{
  "_format": "hh-sol-artifact-1",
  "contractName": "TroveManagerTester",
  "sourceName": "contracts/TestContracts/CDPManagerTester.sol",
  "abi": [
    {
      "inputs": [],
      "name": "IsNotWstETH",
      "type": "error"
    },
    {
      "inputs": [],
      "name": "NoBorrowerOperations",
      "type": "error"
    },
    {
      "anonymous": false,
      "inputs": [
        {
          "indexed": true,
          "internalType": "address",
          "name": "_asset",
          "type": "address"
        },
        {
          "indexed": false,
          "internalType": "uint256",
          "name": "_baseRate",
          "type": "uint256"
        }
      ],
      "name": "BaseRateUpdated",
      "type": "event"
    },
    {
      "anonymous": false,
      "inputs": [
        {
          "indexed": false,
          "internalType": "address",
          "name": "_newBorrowerOperationsAddress",
          "type": "address"
        }
      ],
      "name": "BorrowerOperationsAddressChanged",
      "type": "event"
    },
    {
      "anonymous": false,
      "inputs": [
        {
          "indexed": false,
          "internalType": "address",
          "name": "_collSurplusPoolAddress",
          "type": "address"
        }
      ],
      "name": "CollSurplusPoolAddressChanged",
      "type": "event"
    },
    {
      "anonymous": false,
      "inputs": [
        {
          "indexed": false,
          "internalType": "address",
          "name": "_gasPoolAddress",
          "type": "address"
        }
      ],
      "name": "GasPoolAddressChanged",
      "type": "event"
    },
    {
      "anonymous": false,
      "inputs": [
        {
          "indexed": false,
          "internalType": "uint8",
          "name": "version",
          "type": "uint8"
        }
      ],
      "name": "Initialized",
      "type": "event"
    },
    {
      "anonymous": false,
      "inputs": [
        {
          "indexed": true,
          "internalType": "address",
          "name": "_asset",
          "type": "address"
        },
        {
          "indexed": false,
          "internalType": "uint256",
          "name": "_L_ETH",
          "type": "uint256"
        },
        {
          "indexed": false,
          "internalType": "uint256",
          "name": "_L_UDebt",
          "type": "uint256"
        }
      ],
      "name": "LTermsUpdated",
      "type": "event"
    },
    {
      "anonymous": false,
      "inputs": [
        {
          "indexed": true,
          "internalType": "address",
          "name": "_asset",
          "type": "address"
        },
        {
          "indexed": false,
          "internalType": "uint256",
          "name": "_lastFeeOpTime",
          "type": "uint256"
        }
      ],
      "name": "LastFeeOpTimeUpdated",
      "type": "event"
    },
    {
      "anonymous": false,
      "inputs": [
        {
          "indexed": true,
          "internalType": "address",
          "name": "_asset",
          "type": "address"
        },
        {
          "indexed": false,
          "internalType": "uint256",
          "name": "_liquidatedDebt",
          "type": "uint256"
        },
        {
          "indexed": false,
          "internalType": "uint256",
          "name": "_liquidatedColl",
          "type": "uint256"
        },
        {
          "indexed": false,
          "internalType": "uint256",
          "name": "_collGasCompensation",
          "type": "uint256"
        },
        {
          "indexed": false,
          "internalType": "uint256",
          "name": "_UGasCompensation",
          "type": "uint256"
        }
      ],
      "name": "Liquidation",
      "type": "event"
    },
    {
      "anonymous": false,
      "inputs": [
        {
          "indexed": true,
          "internalType": "address",
          "name": "previousOwner",
          "type": "address"
        },
        {
          "indexed": true,
          "internalType": "address",
          "name": "newOwner",
          "type": "address"
        }
      ],
      "name": "OwnershipTransferred",
      "type": "event"
    },
    {
      "anonymous": false,
      "inputs": [
        {
          "indexed": true,
          "internalType": "address",
          "name": "_asset",
          "type": "address"
        },
        {
          "indexed": false,
          "internalType": "uint256",
          "name": "_attemptedYOUmount",
          "type": "uint256"
        },
        {
          "indexed": false,
          "internalType": "uint256",
          "name": "_actualYOUmount",
          "type": "uint256"
        },
        {
          "indexed": false,
          "internalType": "uint256",
          "name": "_AssetSent",
          "type": "uint256"
        },
        {
          "indexed": false,
          "internalType": "uint256",
          "name": "_AssetFee",
          "type": "uint256"
        }
      ],
      "name": "Redemption",
      "type": "event"
    },
    {
      "anonymous": false,
      "inputs": [
        {
          "indexed": false,
          "internalType": "address",
          "name": "_sortedTrovesAddress",
          "type": "address"
        }
      ],
      "name": "SortedTrovesAddressChanged",
      "type": "event"
    },
    {
      "anonymous": false,
      "inputs": [
        {
          "indexed": false,
          "internalType": "address",
          "name": "_stabilityPoolAddress",
          "type": "address"
        }
      ],
      "name": "StabilityPoolAddressChanged",
      "type": "event"
    },
    {
      "anonymous": false,
      "inputs": [
        {
          "indexed": true,
          "internalType": "address",
          "name": "_asset",
          "type": "address"
        },
        {
          "indexed": false,
          "internalType": "uint256",
          "name": "_totalStakesSnapshot",
          "type": "uint256"
        },
        {
          "indexed": false,
          "internalType": "uint256",
          "name": "_totalCollateralSnapshot",
          "type": "uint256"
        }
      ],
      "name": "SystemSnapshotsUpdated",
      "type": "event"
    },
    {
      "anonymous": false,
      "inputs": [
        {
          "indexed": true,
          "internalType": "address",
          "name": "_asset",
          "type": "address"
        },
        {
          "indexed": false,
          "internalType": "uint256",
          "name": "_newTotalStakes",
          "type": "uint256"
        }
      ],
      "name": "TotalStakesUpdated",
      "type": "event"
    },
    {
      "anonymous": false,
      "inputs": [
        {
          "indexed": true,
          "internalType": "address",
          "name": "_asset",
          "type": "address"
        },
        {
          "indexed": false,
          "internalType": "address",
          "name": "_borrower",
          "type": "address"
        },
        {
          "indexed": false,
          "internalType": "uint256",
          "name": "_newIndex",
          "type": "uint256"
        }
      ],
      "name": "TroveIndexUpdated",
      "type": "event"
    },
    {
      "anonymous": false,
      "inputs": [
        {
          "indexed": true,
          "internalType": "address",
          "name": "_asset",
          "type": "address"
        },
        {
          "indexed": true,
          "internalType": "address",
          "name": "_borrower",
          "type": "address"
        },
        {
          "indexed": false,
          "internalType": "uint256",
          "name": "_debt",
          "type": "uint256"
        },
        {
          "indexed": false,
          "internalType": "uint256",
          "name": "_coll",
          "type": "uint256"
        },
        {
          "indexed": false,
          "internalType": "uint8",
          "name": "operation",
          "type": "uint8"
        }
      ],
      "name": "TroveLiquidated",
      "type": "event"
    },
    {
      "anonymous": false,
      "inputs": [
        {
          "indexed": true,
          "internalType": "address",
          "name": "_asset",
          "type": "address"
        },
        {
          "indexed": false,
          "internalType": "uint256",
          "name": "_L_ETH",
          "type": "uint256"
        },
        {
          "indexed": false,
          "internalType": "uint256",
          "name": "_L_UDebt",
          "type": "uint256"
        }
      ],
      "name": "TroveSnapshotsUpdated",
      "type": "event"
    },
    {
      "anonymous": false,
      "inputs": [
        {
          "indexed": true,
          "internalType": "address",
          "name": "_asset",
          "type": "address"
        },
        {
          "indexed": true,
          "internalType": "address",
          "name": "_borrower",
          "type": "address"
        },
        {
          "indexed": false,
          "internalType": "uint256",
          "name": "_debt",
          "type": "uint256"
        },
        {
          "indexed": false,
          "internalType": "uint256",
          "name": "_coll",
          "type": "uint256"
        },
        {
          "indexed": false,
          "internalType": "uint256",
          "name": "stake",
          "type": "uint256"
        },
        {
          "indexed": false,
          "internalType": "uint8",
          "name": "operation",
          "type": "uint8"
        }
      ],
      "name": "TroveUpdated",
      "type": "event"
    },
    {
      "anonymous": false,
      "inputs": [
        {
          "indexed": false,
          "internalType": "address",
          "name": "_newUTokenAddress",
          "type": "address"
        }
      ],
      "name": "UTokenAddressChanged",
      "type": "event"
    },
    {
      "anonymous": false,
      "inputs": [
        {
          "indexed": true,
          "internalType": "address",
          "name": "newAddress",
          "type": "address"
        }
      ],
      "name": "VaultParametersBaseChanged",
      "type": "event"
    },
    {
      "anonymous": false,
      "inputs": [
        {
          "indexed": false,
          "internalType": "address",
          "name": "_YOUStakingAddress",
          "type": "address"
        }
      ],
      "name": "YOUStakingAddressChanged",
      "type": "event"
    },
    {
      "inputs": [],
      "name": "DECIMAL_PRECISION",
      "outputs": [
        {
          "internalType": "uint256",
          "name": "",
          "type": "uint256"
        }
      ],
      "stateMutability": "view",
      "type": "function"
    },
    {
      "inputs": [],
      "name": "ETH_REF_ADDRESS",
      "outputs": [
        {
          "internalType": "address",
          "name": "",
          "type": "address"
        }
      ],
      "stateMutability": "view",
      "type": "function"
    },
    {
      "inputs": [
        {
          "internalType": "address",
          "name": "",
          "type": "address"
        }
      ],
      "name": "L_ASSETS",
      "outputs": [
        {
          "internalType": "uint256",
          "name": "",
          "type": "uint256"
        }
      ],
      "stateMutability": "view",
      "type": "function"
    },
    {
      "inputs": [
        {
          "internalType": "address",
          "name": "",
          "type": "address"
        }
      ],
      "name": "L_UDebts",
      "outputs": [
        {
          "internalType": "uint256",
          "name": "",
          "type": "uint256"
        }
      ],
      "stateMutability": "view",
      "type": "function"
    },
    {
      "inputs": [],
      "name": "MINUTE_DECAY_FACTOR",
      "outputs": [
        {
          "internalType": "uint256",
          "name": "",
          "type": "uint256"
        }
      ],
      "stateMutability": "view",
      "type": "function"
    },
    {
      "inputs": [],
      "name": "NAME",
      "outputs": [
        {
          "internalType": "string",
          "name": "",
          "type": "string"
        }
      ],
      "stateMutability": "view",
      "type": "function"
    },
    {
      "inputs": [],
      "name": "SECONDS_IN_ONE_MINUTE",
      "outputs": [
        {
          "internalType": "uint256",
          "name": "",
          "type": "uint256"
        }
      ],
      "stateMutability": "view",
      "type": "function"
    },
    {
      "inputs": [
        {
          "internalType": "address",
          "name": "",
          "type": "address"
        },
        {
          "internalType": "uint256",
          "name": "",
          "type": "uint256"
        }
      ],
      "name": "TroveOwners",
      "outputs": [
        {
          "internalType": "address",
          "name": "",
          "type": "address"
        }
      ],
      "stateMutability": "view",
      "type": "function"
    },
    {
      "inputs": [
        {
          "internalType": "address",
          "name": "",
          "type": "address"
        },
        {
          "internalType": "address",
          "name": "",
          "type": "address"
        }
      ],
      "name": "Troves",
      "outputs": [
        {
          "internalType": "address",
          "name": "asset",
          "type": "address"
        },
        {
          "internalType": "uint256",
          "name": "debt",
          "type": "uint256"
        },
        {
          "internalType": "uint256",
          "name": "coll",
          "type": "uint256"
        },
        {
          "internalType": "uint256",
          "name": "stake",
          "type": "uint256"
        },
        {
          "internalType": "enum ITroveManager.Status",
          "name": "status",
          "type": "uint8"
        },
        {
          "internalType": "uint128",
          "name": "arrayIndex",
          "type": "uint128"
        }
      ],
      "stateMutability": "view",
      "type": "function"
    },
    {
      "inputs": [
        {
          "internalType": "address",
          "name": "_asset",
          "type": "address"
        },
        {
          "internalType": "address",
          "name": "_borrower",
          "type": "address"
        }
      ],
      "name": "addTroveOwnerToArray",
      "outputs": [
        {
          "internalType": "uint256",
          "name": "index",
          "type": "uint256"
        }
      ],
      "stateMutability": "nonpayable",
      "type": "function"
    },
    {
      "inputs": [
        {
          "internalType": "address",
          "name": "_asset",
          "type": "address"
        },
        {
          "internalType": "address",
          "name": "_borrower",
          "type": "address"
        }
      ],
      "name": "applyPendingRewards",
      "outputs": [],
      "stateMutability": "nonpayable",
      "type": "function"
    },
    {
      "inputs": [
        {
          "internalType": "address",
          "name": "_asset",
          "type": "address"
        },
        {
          "internalType": "contract IActivePool",
          "name": "_activePool",
          "type": "address"
        },
        {
          "internalType": "contract IDefaultPool",
          "name": "_defaultPool",
          "type": "address"
        },
        {
          "internalType": "address",
          "name": "_borrower",
          "type": "address"
        }
      ],
      "name": "applyPendingRewardsForRedemption",
      "outputs": [],
      "stateMutability": "nonpayable",
      "type": "function"
    },
    {
      "inputs": [
        {
          "internalType": "address",
          "name": "",
          "type": "address"
        }
      ],
      "name": "baseRate",
      "outputs": [
        {
          "internalType": "uint256",
          "name": "",
          "type": "uint256"
        }
      ],
      "stateMutability": "view",
      "type": "function"
    },
    {
      "inputs": [
        {
          "internalType": "address",
          "name": "_asset",
          "type": "address"
        },
        {
          "internalType": "address[]",
          "name": "_troveArray",
          "type": "address[]"
        }
      ],
      "name": "batchLiquidateTroves",
      "outputs": [],
      "stateMutability": "nonpayable",
      "type": "function"
    },
    {
      "inputs": [],
      "name": "borrowerOperationsAddress",
      "outputs": [
        {
          "internalType": "address",
          "name": "",
          "type": "address"
        }
      ],
      "stateMutability": "view",
      "type": "function"
    },
    {
      "inputs": [
        {
          "internalType": "address",
          "name": "_asset",
          "type": "address"
        }
      ],
      "name": "calcDecayedBaseRate",
      "outputs": [
        {
          "internalType": "uint256",
          "name": "",
          "type": "uint256"
        }
      ],
      "stateMutability": "view",
      "type": "function"
    },
    {
      "inputs": [
        {
          "internalType": "address",
          "name": "_asset",
          "type": "address"
        },
        {
          "internalType": "address",
          "name": "_troveOwner",
          "type": "address"
        }
      ],
      "name": "callInternalRemoveTroveOwner",
      "outputs": [],
      "stateMutability": "nonpayable",
      "type": "function"
    },
    {
      "inputs": [
        {
          "internalType": "address",
          "name": "_asset",
          "type": "address"
        },
        {
          "internalType": "uint256",
          "name": "_price",
          "type": "uint256"
        }
      ],
      "name": "checkRecoveryMode",
      "outputs": [
        {
          "internalType": "bool",
          "name": "",
          "type": "bool"
        }
      ],
      "stateMutability": "view",
      "type": "function"
    },
    {
      "inputs": [
        {
          "internalType": "address",
          "name": "_asset",
          "type": "address"
        },
        {
          "internalType": "address",
          "name": "_borrower",
          "type": "address"
        }
      ],
      "name": "closeTrove",
      "outputs": [],
      "stateMutability": "nonpayable",
      "type": "function"
    },
    {
      "inputs": [
        {
          "internalType": "address",
          "name": "_asset",
          "type": "address"
        },
        {
          "internalType": "address",
          "name": "_borrower",
          "type": "address"
        }
      ],
      "name": "closeTroveByRedemption",
      "outputs": [],
      "stateMutability": "nonpayable",
      "type": "function"
    },
    {
      "inputs": [],
      "name": "collSurplusPool",
      "outputs": [
        {
          "internalType": "contract ICollSurplusPool",
          "name": "",
          "type": "address"
        }
      ],
      "stateMutability": "view",
      "type": "function"
    },
    {
      "inputs": [
        {
          "internalType": "uint256",
          "name": "_coll",
          "type": "uint256"
        },
        {
          "internalType": "uint256",
          "name": "_debt",
          "type": "uint256"
        },
        {
          "internalType": "uint256",
          "name": "_price",
          "type": "uint256"
        }
      ],
      "name": "computeICR",
      "outputs": [
        {
          "internalType": "uint256",
          "name": "",
          "type": "uint256"
        }
      ],
      "stateMutability": "pure",
      "type": "function"
    },
    {
      "inputs": [
        {
          "internalType": "address",
          "name": "_asset",
          "type": "address"
        }
      ],
      "name": "decayBaseRateFromBorrowing",
      "outputs": [],
      "stateMutability": "nonpayable",
      "type": "function"
    },
    {
      "inputs": [
        {
          "internalType": "address",
          "name": "_asset",
          "type": "address"
        },
        {
          "internalType": "address",
          "name": "_borrower",
          "type": "address"
        },
        {
          "internalType": "uint256",
          "name": "_collDecrease",
          "type": "uint256"
        }
      ],
      "name": "decreaseTroveColl",
      "outputs": [
        {
          "internalType": "uint256",
          "name": "",
          "type": "uint256"
        }
      ],
      "stateMutability": "nonpayable",
      "type": "function"
    },
    {
      "inputs": [
        {
          "internalType": "address",
          "name": "_asset",
          "type": "address"
        },
        {
          "internalType": "address",
          "name": "_borrower",
          "type": "address"
        },
        {
          "internalType": "uint256",
          "name": "_debtDecrease",
          "type": "uint256"
        }
      ],
      "name": "decreaseTroveDebt",
      "outputs": [
        {
          "internalType": "uint256",
          "name": "",
          "type": "uint256"
        }
      ],
      "stateMutability": "nonpayable",
      "type": "function"
    },
    {
      "inputs": [],
      "name": "gasPoolAddress",
      "outputs": [
        {
          "internalType": "address",
          "name": "",
          "type": "address"
        }
      ],
      "stateMutability": "view",
      "type": "function"
    },
    {
      "inputs": [
        {
          "internalType": "address",
          "name": "_asset",
          "type": "address"
        },
        {
          "internalType": "uint256",
          "name": "_debtVal",
          "type": "uint256"
        }
      ],
      "name": "getActualDebtFromComposite",
      "outputs": [
        {
          "internalType": "uint256",
          "name": "",
          "type": "uint256"
        }
      ],
      "stateMutability": "view",
      "type": "function"
    },
    {
      "inputs": [
        {
          "internalType": "address",
          "name": "_asset",
          "type": "address"
        },
        {
          "internalType": "uint256",
          "name": "_UDebt",
          "type": "uint256"
        }
      ],
      "name": "getBorrowingFee",
      "outputs": [
        {
          "internalType": "uint256",
          "name": "",
          "type": "uint256"
        }
      ],
      "stateMutability": "view",
      "type": "function"
    },
    {
      "inputs": [
        {
          "internalType": "address",
          "name": "_asset",
          "type": "address"
        },
        {
          "internalType": "uint256",
          "name": "_UDebt",
          "type": "uint256"
        }
      ],
      "name": "getBorrowingFeeWithDecay",
      "outputs": [
        {
          "internalType": "uint256",
          "name": "",
          "type": "uint256"
        }
      ],
      "stateMutability": "view",
      "type": "function"
    },
    {
      "inputs": [
        {
          "internalType": "address",
          "name": "_asset",
          "type": "address"
        }
      ],
      "name": "getBorrowingRate",
      "outputs": [
        {
          "internalType": "uint256",
          "name": "",
          "type": "uint256"
        }
      ],
      "stateMutability": "view",
      "type": "function"
    },
    {
      "inputs": [
        {
          "internalType": "address",
          "name": "_asset",
          "type": "address"
        }
      ],
      "name": "getBorrowingRateWithDecay",
      "outputs": [
        {
          "internalType": "uint256",
          "name": "",
          "type": "uint256"
        }
      ],
      "stateMutability": "view",
      "type": "function"
    },
    {
      "inputs": [
        {
          "internalType": "address",
          "name": "_asset",
          "type": "address"
        },
        {
          "internalType": "uint256",
          "name": "_coll",
          "type": "uint256"
        }
      ],
      "name": "getCollGasCompensation",
      "outputs": [
        {
          "internalType": "uint256",
          "name": "",
          "type": "uint256"
        }
      ],
      "stateMutability": "view",
      "type": "function"
    },
    {
      "inputs": [
        {
          "internalType": "address",
          "name": "_asset",
          "type": "address"
        },
        {
          "internalType": "uint256",
          "name": "_debt",
          "type": "uint256"
        }
      ],
      "name": "getCompositeDebt",
      "outputs": [
        {
          "internalType": "uint256",
          "name": "",
          "type": "uint256"
        }
      ],
      "stateMutability": "view",
      "type": "function"
    },
    {
      "inputs": [
        {
          "internalType": "address",
          "name": "_asset",
          "type": "address"
        },
        {
          "internalType": "address",
          "name": "_borrower",
          "type": "address"
        },
        {
          "internalType": "uint256",
          "name": "_price",
          "type": "uint256"
        }
      ],
      "name": "getCurrentICR",
      "outputs": [
        {
          "internalType": "uint256",
          "name": "",
          "type": "uint256"
        }
      ],
      "stateMutability": "view",
      "type": "function"
    },
    {
      "inputs": [
        {
          "internalType": "address",
          "name": "_asset",
          "type": "address"
        },
        {
          "internalType": "address",
          "name": "_borrower",
          "type": "address"
        }
      ],
      "name": "getEntireDebtAndColl",
      "outputs": [
        {
          "internalType": "uint256",
          "name": "debt",
          "type": "uint256"
        },
        {
          "internalType": "uint256",
          "name": "coll",
          "type": "uint256"
        },
        {
          "internalType": "uint256",
          "name": "pendingUDebtReward",
          "type": "uint256"
        },
        {
          "internalType": "uint256",
          "name": "pendingAssetReward",
          "type": "uint256"
        }
      ],
      "stateMutability": "view",
      "type": "function"
    },
    {
      "inputs": [
        {
          "internalType": "address",
          "name": "_asset",
          "type": "address"
        }
      ],
      "name": "getEntireSystemColl",
      "outputs": [
        {
          "internalType": "uint256",
          "name": "entireSystemColl",
          "type": "uint256"
        }
      ],
      "stateMutability": "view",
      "type": "function"
    },
    {
      "inputs": [
        {
          "internalType": "address",
          "name": "_asset",
          "type": "address"
        }
      ],
      "name": "getEntireSystemDebt",
      "outputs": [
        {
          "internalType": "uint256",
          "name": "entireSystemDebt",
          "type": "uint256"
        }
      ],
      "stateMutability": "view",
      "type": "function"
    },
    {
      "inputs": [
        {
          "internalType": "address",
          "name": "_asset",
          "type": "address"
        },
        {
          "internalType": "address",
          "name": "_borrower",
          "type": "address"
        }
      ],
      "name": "getNominalICR",
      "outputs": [
        {
          "internalType": "uint256",
          "name": "",
          "type": "uint256"
        }
      ],
      "stateMutability": "view",
      "type": "function"
    },
    {
      "inputs": [
        {
          "internalType": "address",
          "name": "_asset",
          "type": "address"
        },
        {
          "internalType": "address",
          "name": "_borrower",
          "type": "address"
        }
      ],
      "name": "getPendingAssetReward",
      "outputs": [
        {
          "internalType": "uint256",
          "name": "",
          "type": "uint256"
        }
      ],
      "stateMutability": "view",
      "type": "function"
    },
    {
      "inputs": [
        {
          "internalType": "address",
          "name": "_asset",
          "type": "address"
        },
        {
          "internalType": "address",
          "name": "_borrower",
          "type": "address"
        }
      ],
      "name": "getPendingUDebtReward",
      "outputs": [
        {
          "internalType": "uint256",
          "name": "",
          "type": "uint256"
        }
      ],
      "stateMutability": "view",
      "type": "function"
    },
    {
      "inputs": [
        {
          "internalType": "address",
          "name": "_asset",
          "type": "address"
        },
        {
          "internalType": "uint256",
          "name": "_price",
          "type": "uint256"
        }
      ],
      "name": "getTCR",
      "outputs": [
        {
          "internalType": "uint256",
          "name": "",
          "type": "uint256"
        }
      ],
      "stateMutability": "view",
      "type": "function"
    },
    {
      "inputs": [
        {
          "internalType": "address",
          "name": "_borrower",
          "type": "address"
        },
        {
          "internalType": "address",
          "name": "_asset",
          "type": "address"
        }
      ],
      "name": "getTrove",
      "outputs": [
        {
          "components": [
            {
              "internalType": "address",
              "name": "asset",
              "type": "address"
            },
            {
              "internalType": "uint256",
              "name": "debt",
              "type": "uint256"
            },
            {
              "internalType": "uint256",
              "name": "coll",
              "type": "uint256"
            },
            {
              "internalType": "uint256",
              "name": "stake",
              "type": "uint256"
            },
            {
              "internalType": "enum ITroveManager.Status",
              "name": "status",
              "type": "uint8"
            },
            {
              "internalType": "uint128",
              "name": "arrayIndex",
              "type": "uint128"
            }
          ],
          "internalType": "struct ITroveManager.Trove",
          "name": "",
          "type": "tuple"
        }
      ],
      "stateMutability": "view",
      "type": "function"
    },
    {
      "inputs": [
        {
          "internalType": "address",
          "name": "_asset",
          "type": "address"
        },
        {
          "internalType": "address",
          "name": "_borrower",
          "type": "address"
        }
      ],
      "name": "getTroveColl",
      "outputs": [
        {
          "internalType": "uint256",
          "name": "",
          "type": "uint256"
        }
      ],
      "stateMutability": "view",
      "type": "function"
    },
    {
      "inputs": [
        {
          "internalType": "address",
          "name": "_asset",
          "type": "address"
        },
        {
          "internalType": "address",
          "name": "_borrower",
          "type": "address"
        }
      ],
      "name": "getTroveDebt",
      "outputs": [
        {
          "internalType": "uint256",
          "name": "",
          "type": "uint256"
        }
      ],
      "stateMutability": "view",
      "type": "function"
    },
    {
      "inputs": [
        {
          "internalType": "address",
          "name": "_asset",
          "type": "address"
        },
        {
          "internalType": "uint256",
          "name": "_index",
          "type": "uint256"
        }
      ],
      "name": "getTroveFromTroveOwnersArray",
      "outputs": [
        {
          "internalType": "address",
          "name": "",
          "type": "address"
        }
      ],
      "stateMutability": "view",
      "type": "function"
    },
    {
      "inputs": [
        {
          "internalType": "address",
          "name": "_asset",
          "type": "address"
        }
      ],
      "name": "getTroveOwnersCount",
      "outputs": [
        {
          "internalType": "uint256",
          "name": "",
          "type": "uint256"
        }
      ],
      "stateMutability": "view",
      "type": "function"
    },
    {
      "inputs": [
        {
          "internalType": "address",
          "name": "_asset",
          "type": "address"
        },
        {
          "internalType": "address",
          "name": "_borrower",
          "type": "address"
        }
      ],
      "name": "getTroveStake",
      "outputs": [
        {
          "internalType": "uint256",
          "name": "",
          "type": "uint256"
        }
      ],
      "stateMutability": "view",
      "type": "function"
    },
    {
      "inputs": [
        {
          "internalType": "address",
          "name": "_asset",
          "type": "address"
        },
        {
          "internalType": "address",
          "name": "_borrower",
          "type": "address"
        }
      ],
      "name": "getTroveStatus",
      "outputs": [
        {
          "internalType": "uint256",
          "name": "",
          "type": "uint256"
        }
      ],
      "stateMutability": "view",
      "type": "function"
    },
    {
      "inputs": [
        {
          "internalType": "address",
          "name": "_asset",
          "type": "address"
        }
      ],
      "name": "getUGasCompensation",
      "outputs": [
        {
          "internalType": "uint256",
          "name": "",
          "type": "uint256"
        }
      ],
      "stateMutability": "view",
      "type": "function"
    },
    {
      "inputs": [
        {
          "internalType": "address",
          "name": "_asset",
          "type": "address"
        },
        {
          "internalType": "address",
          "name": "_borrower",
          "type": "address"
        }
      ],
      "name": "hasPendingRewards",
      "outputs": [
        {
          "internalType": "bool",
          "name": "",
          "type": "bool"
        }
      ],
      "stateMutability": "view",
      "type": "function"
    },
    {
      "inputs": [
        {
          "internalType": "address",
          "name": "_asset",
          "type": "address"
        },
        {
          "internalType": "address",
          "name": "_borrower",
          "type": "address"
        },
        {
          "internalType": "uint256",
          "name": "_collIncrease",
          "type": "uint256"
        }
      ],
      "name": "increaseTroveColl",
      "outputs": [
        {
          "internalType": "uint256",
          "name": "",
          "type": "uint256"
        }
      ],
      "stateMutability": "nonpayable",
      "type": "function"
    },
    {
      "inputs": [
        {
          "internalType": "address",
          "name": "_asset",
          "type": "address"
        },
        {
          "internalType": "address",
          "name": "_borrower",
          "type": "address"
        },
        {
          "internalType": "uint256",
          "name": "_debtIncrease",
          "type": "uint256"
        }
      ],
      "name": "increaseTroveDebt",
      "outputs": [
        {
          "internalType": "uint256",
          "name": "",
          "type": "uint256"
        }
      ],
      "stateMutability": "nonpayable",
      "type": "function"
    },
    {
      "inputs": [],
      "name": "isInitialized",
      "outputs": [
        {
          "internalType": "bool",
          "name": "",
          "type": "bool"
        }
      ],
      "stateMutability": "view",
      "type": "function"
    },
    {
      "inputs": [
        {
          "internalType": "address",
          "name": "",
          "type": "address"
        }
      ],
      "name": "lastETHError_Redistribution",
      "outputs": [
        {
          "internalType": "uint256",
          "name": "",
          "type": "uint256"
        }
      ],
      "stateMutability": "view",
      "type": "function"
    },
    {
      "inputs": [
        {
          "internalType": "address",
          "name": "",
          "type": "address"
        }
      ],
      "name": "lastFeeOperationTime",
      "outputs": [
        {
          "internalType": "uint256",
          "name": "",
          "type": "uint256"
        }
      ],
      "stateMutability": "view",
      "type": "function"
    },
    {
      "inputs": [
        {
          "internalType": "address",
          "name": "",
          "type": "address"
        }
      ],
      "name": "lastUDebtError_Redistribution",
      "outputs": [
        {
          "internalType": "uint256",
          "name": "",
          "type": "uint256"
        }
      ],
      "stateMutability": "view",
      "type": "function"
    },
    {
      "inputs": [
        {
          "internalType": "address",
          "name": "_asset",
          "type": "address"
        },
        {
          "internalType": "address",
          "name": "_borrower",
          "type": "address"
        }
      ],
      "name": "liquidate",
      "outputs": [],
      "stateMutability": "nonpayable",
      "type": "function"
    },
    {
      "inputs": [
        {
          "internalType": "address",
          "name": "_asset",
          "type": "address"
        },
        {
          "internalType": "uint256",
          "name": "_n",
          "type": "uint256"
        }
      ],
      "name": "liquidateTroves",
      "outputs": [],
      "stateMutability": "nonpayable",
      "type": "function"
    },
    {
      "inputs": [
        {
          "internalType": "address",
          "name": "_asset",
          "type": "address"
        }
      ],
      "name": "minutesPassedSinceLastFeeOp",
      "outputs": [
        {
          "internalType": "uint256",
          "name": "",
          "type": "uint256"
        }
      ],
      "stateMutability": "view",
      "type": "function"
    },
    {
      "inputs": [],
      "name": "owner",
      "outputs": [
        {
          "internalType": "address",
          "name": "",
          "type": "address"
        }
      ],
      "stateMutability": "view",
      "type": "function"
    },
    {
      "inputs": [],
      "name": "redemptionManagerAddress",
      "outputs": [
        {
          "internalType": "address",
          "name": "",
          "type": "address"
        }
      ],
      "stateMutability": "view",
      "type": "function"
    },
    {
      "inputs": [
        {
          "internalType": "address",
          "name": "_asset",
          "type": "address"
        },
        {
          "internalType": "address",
          "name": "_borrower",
          "type": "address"
        }
      ],
      "name": "removeStake",
      "outputs": [],
      "stateMutability": "nonpayable",
      "type": "function"
    },
    {
      "inputs": [],
      "name": "renounceOwnership",
      "outputs": [],
      "stateMutability": "nonpayable",
      "type": "function"
    },
    {
      "inputs": [
        {
          "internalType": "address",
          "name": "",
          "type": "address"
        },
        {
          "internalType": "address",
          "name": "",
          "type": "address"
        }
      ],
      "name": "rewardSnapshots",
      "outputs": [
        {
          "internalType": "uint256",
          "name": "asset",
          "type": "uint256"
        },
        {
          "internalType": "uint256",
          "name": "UDebt",
          "type": "uint256"
        }
      ],
      "stateMutability": "view",
      "type": "function"
    },
    {
      "inputs": [
        {
          "internalType": "address",
          "name": "_borrowerOperationsAddress",
          "type": "address"
        },
        {
          "internalType": "address",
          "name": "_stabilityPoolManagerAddress",
          "type": "address"
        },
        {
          "internalType": "address",
          "name": "_gasPoolAddress",
          "type": "address"
        },
        {
          "internalType": "address",
          "name": "_collSurplusPoolAddress",
          "type": "address"
        },
        {
          "internalType": "address",
          "name": "_uTokenAddress",
          "type": "address"
        },
        {
          "internalType": "address",
          "name": "_sortedTrovesAddress",
          "type": "address"
        },
        {
          "internalType": "address",
          "name": "_youStakingAddress",
          "type": "address"
        },
        {
          "internalType": "address",
          "name": "_vestaParamsAddress",
          "type": "address"
        }
      ],
      "name": "setAddresses",
      "outputs": [],
      "stateMutability": "nonpayable",
      "type": "function"
    },
    {
      "inputs": [
        {
          "internalType": "address",
          "name": "_asset",
          "type": "address"
        },
        {
          "internalType": "uint256",
          "name": "_baseRate",
          "type": "uint256"
        }
      ],
      "name": "setBaseRate",
      "outputs": [],
      "stateMutability": "nonpayable",
      "type": "function"
    },
    {
      "inputs": [
        {
          "internalType": "address",
          "name": "_asset",
          "type": "address"
        }
      ],
      "name": "setLastFeeOpTimeToNow",
      "outputs": [],
      "stateMutability": "nonpayable",
      "type": "function"
    },
    {
      "inputs": [
        {
          "internalType": "address",
          "name": "_redemptionManagerAddress",
          "type": "address"
        }
      ],
      "name": "setRedemptionManager",
      "outputs": [],
      "stateMutability": "nonpayable",
      "type": "function"
    },
    {
      "inputs": [
        {
          "internalType": "address",
          "name": "_borrower",
          "type": "address"
        },
        {
          "internalType": "address",
          "name": "_asset",
          "type": "address"
        },
        {
          "components": [
            {
              "internalType": "address",
              "name": "asset",
              "type": "address"
            },
            {
              "internalType": "uint256",
              "name": "debt",
              "type": "uint256"
            },
            {
              "internalType": "uint256",
              "name": "coll",
              "type": "uint256"
            },
            {
              "internalType": "uint256",
              "name": "stake",
              "type": "uint256"
            },
            {
              "internalType": "enum ITroveManager.Status",
              "name": "status",
              "type": "uint8"
            },
            {
              "internalType": "uint128",
              "name": "arrayIndex",
              "type": "uint128"
            }
          ],
          "internalType": "struct ITroveManager.Trove",
          "name": "_trove",
          "type": "tuple"
        }
      ],
      "name": "setTrove",
      "outputs": [],
      "stateMutability": "nonpayable",
      "type": "function"
    },
    {
      "inputs": [
        {
          "internalType": "address",
          "name": "_asset",
          "type": "address"
        },
        {
          "internalType": "address",
          "name": "_borrower",
          "type": "address"
        },
        {
          "internalType": "uint256",
          "name": "_num",
          "type": "uint256"
        }
      ],
      "name": "setTroveStatus",
      "outputs": [],
      "stateMutability": "nonpayable",
      "type": "function"
    },
    {
      "inputs": [
        {
          "internalType": "address",
          "name": "_vaultParams",
          "type": "address"
        }
      ],
      "name": "setVestaParameters",
      "outputs": [],
      "stateMutability": "nonpayable",
      "type": "function"
    },
    {
      "inputs": [],
      "name": "sortedTroves",
      "outputs": [
        {
          "internalType": "contract ISortedTroves",
          "name": "",
          "type": "address"
        }
      ],
      "stateMutability": "view",
      "type": "function"
    },
    {
      "inputs": [],
      "name": "stabilityPoolManager",
      "outputs": [
        {
          "internalType": "contract IStabilityPoolManager",
          "name": "",
          "type": "address"
        }
      ],
      "stateMutability": "view",
      "type": "function"
    },
    {
      "inputs": [
        {
          "internalType": "address",
          "name": "",
          "type": "address"
        }
      ],
      "name": "totalCollateralSnapshot",
      "outputs": [
        {
          "internalType": "uint256",
          "name": "",
          "type": "uint256"
        }
      ],
      "stateMutability": "view",
      "type": "function"
    },
    {
      "inputs": [
        {
          "internalType": "address",
          "name": "",
          "type": "address"
        }
      ],
      "name": "totalStakes",
      "outputs": [
        {
          "internalType": "uint256",
          "name": "",
          "type": "uint256"
        }
      ],
      "stateMutability": "view",
      "type": "function"
    },
    {
      "inputs": [
        {
          "internalType": "address",
          "name": "",
          "type": "address"
        }
      ],
      "name": "totalStakesSnapshot",
      "outputs": [
        {
          "internalType": "uint256",
          "name": "",
          "type": "uint256"
        }
      ],
      "stateMutability": "view",
      "type": "function"
    },
    {
      "inputs": [
        {
          "internalType": "address",
          "name": "newOwner",
          "type": "address"
        }
      ],
      "name": "transferOwnership",
      "outputs": [],
      "stateMutability": "nonpayable",
      "type": "function"
    },
    {
      "inputs": [],
      "name": "uToken",
      "outputs": [
        {
          "internalType": "contract IUToken",
          "name": "",
          "type": "address"
        }
      ],
      "stateMutability": "view",
      "type": "function"
    },
    {
      "inputs": [
        {
          "internalType": "address",
          "name": "_asset",
          "type": "address"
        }
      ],
      "name": "unprotectedDecayBaseRateFromBorrowing",
      "outputs": [
        {
          "internalType": "uint256",
          "name": "",
          "type": "uint256"
        }
      ],
      "stateMutability": "nonpayable",
      "type": "function"
    },
    {
      "inputs": [
        {
          "internalType": "address",
          "name": "_asset",
          "type": "address"
        },
        {
          "internalType": "uint256",
          "name": "_rate",
          "type": "uint256"
        }
      ],
      "name": "updateBaseRateAndLastFeeOpTime",
      "outputs": [],
      "stateMutability": "nonpayable",
      "type": "function"
    },
    {
      "inputs": [
        {
          "internalType": "address",
          "name": "_asset",
          "type": "address"
        },
        {
          "internalType": "address",
          "name": "_borrower",
          "type": "address"
        }
      ],
      "name": "updateStakeAndTotalStakes",
      "outputs": [
        {
          "internalType": "uint256",
          "name": "",
          "type": "uint256"
        }
      ],
      "stateMutability": "nonpayable",
      "type": "function"
    },
    {
      "inputs": [
        {
          "internalType": "address",
          "name": "_asset",
          "type": "address"
        },
        {
          "internalType": "address",
          "name": "_borrower",
          "type": "address"
        }
      ],
      "name": "updateTroveRewardSnapshots",
      "outputs": [],
      "stateMutability": "nonpayable",
      "type": "function"
    },
    {
      "inputs": [],
      "name": "vestaParams",
      "outputs": [
        {
          "internalType": "contract IVestaParameters",
          "name": "",
          "type": "address"
        }
      ],
      "stateMutability": "view",
      "type": "function"
    },
    {
      "inputs": [],
      "name": "wstETH",
      "outputs": [
        {
          "internalType": "address",
          "name": "",
          "type": "address"
        }
      ],
      "stateMutability": "view",
      "type": "function"
    },
    {
      "inputs": [],
      "name": "youStaking",
      "outputs": [
        {
          "internalType": "contract IYOUStaking",
          "name": "",
          "type": "address"
        }
      ],
      "stateMutability": "view",
      "type": "function"
    }
  ],
  "bytecode": "0x608060405234801561001057600080fd5b5061621a80620000216000396000f3fe608060405234801561001057600080fd5b50600436106103c65760003560e01c806279912b146103cb57806302540e48146103f157806305d7d143146104045780630635365b146104175780630df9ef2c1461042a5780630e0d7bfe1461043f5780631400de71146104525780631f12cc411461046557806326f7a0d41461048557806327d04b35146104a85780632dcfca60146104bb5780632f2b4e90146104de5780632fae7700146104fe578063305a536914610511578063389062d7146105245780633923608a14610537578063392e53cd1461054a5780633cea8802146105575780633d2163d61461056a57806340c315d21461057d5780634327362a1461059057806345978366146105b057806347538846146105c357806349fe8858146105ed5780634a15a3fa146106005780634aa07e64146106135780635c6944e8146106265780635cc4d148146106465780635f54861414610659578063614d12091461066c578063619b0dae1461067f57806361ec893d14610692578063633156371461069a578063653a8dd1146106ad5780636d5d44b8146106c5578063715018a6146106d857806372141e63146106e0578063789089fd146106e85780637c92590f146106fb5780637e7227cd1461070e5780637f258d501461072e5780637f551157146107a5578063814a0a45146107b857806382569c2c146107cb5780638424ce77146107eb5780638463b16a146107fe57806386b9d81f146108115780638a25363c146108245780638a490ebf146108375780638abad92b1461084a5780638da5cb5b1461085d57806390ec23011461086557806394c3fed3146108785780639e86d0c41461088b578063a20baee61461089e578063a3abe098146108ad578063a3f4df7e146108c0578063a5eb6050146108f8578063ab7f9c7a14610918578063ae91875414610942578063aeabd5cc14610955578063af3700dc14610968578063b1eafaab14610988578063b6d3b0471461099b578063b7f8cf9b146109ae578063b9a9aaa5146109c1578063be16a096146109d4578063c7a1bbdb146109e7578063c7b55481146109fa578063c93fd44a14610a09578063cda775f914610a49578063d3ec3e7114610a5c578063d733cfd014610a7c578063dbe9f91914610a8f578063dc3fe76f14610aa2578063de66583514610ab5578063df349ed514610ad5578063df4fb9ef14610af5578063eeb20c6214610b08578063f2fde38b14610b1b578063f3e2c60814610b2e578063f7a22d8014610b41578063fb4e863c14610b54578063fe4b0df614610b67578063fe9d032314610b7a575b600080fd5b6103de6103d93660046159ed565b610b8d565b6040519081526020015b60405180910390f35b6103de6103ff366004615a0a565b610c05565b6103de6104123660046159ed565b610c18565b6103de6104253660046159ed565b610c7a565b61043d6104383660046159ed565b610c96565b005b6103de61044d366004615a36565b610ccf565b6103de6104603660046159ed565b610cfc565b6103de6104733660046159ed565b606e6020526000908152604090205481565b610498610493366004615a36565b610d19565b6040516103e89493929190615a6f565b6103de6104b63660046159ed565b610d96565b6104ce6104c9366004615a36565b610f77565b60405190151581526020016103e8565b6067546104f1906001600160a01b031681565b6040516103e89190615a8a565b6103de61050c366004615a9e565b610fd1565b6103de61051f366004615a36565b61104e565b61043d610532366004615a0a565b611089565b6103de610545366004615a0a565b6110fc565b6079546104ce9060ff1681565b61043d610565366004615a36565b611108565b61043d610578366004615a36565b611125565b6103de61058b3660046159ed565b61114e565b6103de61059e3660046159ed565b60746020526000908152604090205481565b6103de6105be366004615a9e565b611175565b61043d6105d13660046159ed565b6001600160a01b03166000908152606e60205260409020429055565b6103de6105fb366004615a0a565b6111bd565b6103de61060e366004615a36565b6111d2565b6000546104f1906001600160a01b031681565b6103de6106343660046159ed565b606d6020526000908152604090205481565b61043d6106543660046159ed565b611294565b61043d610667366004615a36565b6112e6565b6103de61067a366004615a36565b611303565b61043d61068d366004615adf565b61134c565b6103de603c81565b606b546104f1906001600160a01b031681565b6079546104f19061010090046001600160a01b031681565b61043d6106d33660046159ed565b61136f565b61043d6113af565b6104f1600081565b61043d6106f6366004615ba9565b6113c3565b61043d610709366004615c68565b611494565b61072161071c366004615a36565b6119c0565b6040516103e89190615d58565b61079361073c366004615a36565b606f602090815260009283526040808420909152908252902080546001820154600283015460038401546004909401546001600160a01b0390931693919290919060ff81169061010090046001600160801b031686565b6040516103e896959493929190615db2565b61043d6107b3366004615a0a565b611a7e565b6103de6107c6366004615e00565b611fad565b6103de6107d93660046159ed565b60736020526000908152604090205481565b6104f16107f9366004615a0a565b611fba565b6103de61080c366004615a9e565b61200b565b61043d61081f366004615a36565b612088565b61043d610832366004615a9e565b61215a565b6104ce610845366004615a0a565b612209565b6103de610858366004615a0a565b61221e565b6104f161223b565b6103de610873366004615a36565b61224a565b6103de6108863660046159ed565b61227c565b6103de6108993660046159ed565b612287565b6103de670de0b6b3a764000081565b6103de6108bb366004615a0a565b612413565b6108eb6040518060400160405280600c81526020016b2a3937bb32a6b0b730b3b2b960a11b81525081565b6040516103e89190615e2c565b6103de6109063660046159ed565b60776020526000908152604090205481565b61043d610926366004615a0a565b6001600160a01b039091166000908152606d6020526040902055565b606c546104f1906001600160a01b031681565b606a546104f1906001600160a01b031681565b6103de6109763660046159ed565b60716020526000908152604090205481565b6103de610996366004615a9e565b61242a565b6103de6109a93660046159ed565b612453565b6066546104f1906001600160a01b031681565b6103de6109cf366004615a0a565b612482565b6103de6109e2366004615a36565b61248e565b61043d6109f5366004615a36565b6124d4565b6103de670ddd4b8c6c7d70d881565b610a3b610a17366004615a36565b60756020908152600092835260408084209091529082529020805460019091015482565b6040516103e8929190615e7a565b6069546104f1906001600160a01b031681565b6103de610a6a3660046159ed565b60786020526000908152604090205481565b61043d610a8a366004615e88565b6124ef565b6103de610a9d366004615a36565b6128b2565b6103de610ab0366004615a36565b6128cf565b6103de610ac33660046159ed565b60726020526000908152604090205481565b6103de610ae33660046159ed565b60706020526000908152604090205481565b61043d610b03366004615a36565b61290a565b6104f1610b16366004615a0a565b612a13565b61043d610b293660046159ed565b612a4b565b6103de610b3c366004615a36565b612ac4565b6065546104f1906001600160a01b031681565b61043d610b62366004615a36565b612aff565b6103de610b75366004615a9e565b612b1a565b6068546104f1906001600160a01b031681565b60655460405163e29607cf60e01b81526000916001600160a01b03169063e29607cf90610bbe908590600401615a8a565b602060405180830381865afa158015610bdb573d6000803e3d6000fd5b505050506040513d601f19601f82011682018060405250810190610bff9190615f31565b92915050565b6000610c118383612b62565b9392505050565b6000610c2382612be1565b6001600160a01b0383166000908152606d60205260409020819055670de0b6b3a76400001015610c5557610c55615f4a565b610c5e82612c37565b506001600160a01b03166000908152606d602052604090205490565b6000610c84612cbb565b610c8d82612d04565b610bff82612be1565b610c9e612d32565b610ca781612d91565b607980546001600160a01b0390921661010002610100600160a81b0319909216919091179055565b6000610cda83612d04565b610ce2612cbb565b610cec8383612e36565b6001600160801b03169392505050565b6000610d0782612d04565b610bff82610d1484612be1565b612ed5565b600080600080610d2886612d04565b6001600160a01b038581166000908152606f60209081526040808320938a1683529290522060018101546002909101549094509250610d6786866111d2565b9150610d73868661248e565b9050610d7f8483612fcf565b9350610d8b8382612fcf565b925092959194509250565b600080606560009054906101000a90046001600160a01b03166001600160a01b0316637f7dde4a6040518163ffffffff1660e01b8152600401602060405180830381865afa158015610dec573d6000803e3d6000fd5b505050506040513d601f19601f82011682018060405250810190610e109190615f60565b6001600160a01b031663631a53d4846040518263ffffffff1660e01b8152600401610e3b9190615a8a565b602060405180830381865afa158015610e58573d6000803e3d6000fd5b505050506040513d601f19601f82011682018060405250810190610e7c9190615f31565b90506000606560009054906101000a90046001600160a01b03166001600160a01b0316633cc742256040518163ffffffff1660e01b8152600401602060405180830381865afa158015610ed3573d6000803e3d6000fd5b505050506040513d601f19601f82011682018060405250810190610ef79190615f60565b6001600160a01b031663631a53d4856040518263ffffffff1660e01b8152600401610f229190615a8a565b602060405180830381865afa158015610f3f573d6000803e3d6000fd5b505050506040513d601f19601f82011682018060405250810190610f639190615f31565b9050610f6f8282612fcf565b949350505050565b6000610f8283612d04565b610f8c8383612fdb565b610f9857506000610bff565b506001600160a01b0380831660008181526073602090815260408083205494861683526075825280832093835292905220541092915050565b6000610fdc84612d04565b610fe4612cbb565b6001600160a01b038084166000908152606f60209081526040808320938816835292905290812060020154611019908461304d565b6001600160a01b038086166000908152606f60209081526040808320938a168352929052206002018190559150509392505050565b600061105983612d04565b506001600160a01b038082166000908152606f602090815260408083209386168352929052206002015492915050565b611091612cbb565b61109a82612d04565b6001600160a01b0382166000818152606d602052604090819020839055517f2f992d01b594c040f05262961e43f8311e780be5fee3deb4c57880dd6374d12d906110e79084815260200190565b60405180910390a26110f882612c37565b5050565b6000610c118383613059565b61111182612d04565b611119612cbb565b6110f8828260046130d8565b6001600160a01b03821660009081526076602052604090205461114983838361324d565b505050565b600061115982612d04565b506001600160a01b031660009081526076602052604090205490565b600061118084612d04565b611188612cbb565b6001600160a01b038084166000908152606f602090815260408083209388168352929052908120600201546110199084612fcf565b60006111c883612d04565b610c118383613484565b60006111dd83612d04565b6001600160a01b03808316600090815260756020908152604080832093871683529281528282206001015460749091529181205461121b908361304d565b9050801580611231575061122f8585612fdb565b155b1561124157600092505050610bff565b6001600160a01b038085166000908152606f6020908152604080832093891683529290529081206003015490611289670de0b6b3a764000061128384866134b3565b906134bf565b979650505050505050565b61129c612d32565b606580546001600160a01b0319166001600160a01b0383169081179091556040517f98c5e303d085e26fdf8af6a41184b0937ed01142ae7fdfa02dcc87e7079c325390600090a250565b6112ef82612d04565b6112f7612cbb565b6110f8828260026130d8565b600061130e83612d04565b6001600160a01b038083166000908152606f6020908152604080832093871683529290522060049081015460ff1690811115610c1157610c11615d2e565b61135584612d04565b61135d612cbb565b611369848484846134cb565b50505050565b611377612cbb565b61138081612d04565b600061138b82612be1565b9050670de0b6b3a76400008111156113a5576113a5615f4a565b6110f88282611089565b6113b7612d32565b6113c16000613626565b565b6113cc82612d04565b6113d4612cbb565b6001600160a01b038381166000908152606f602090815260408083208685168452825291829020845181546001600160a01b031916941693909317835583015160018084019190915590830151600283015560608301516003830155608083015160048084018054869594919260ff199091169190849081111561145a5761145a615d2e565b021790555060a09190910151600490910180546001600160801b0390921661010002610100600160881b0319909216919091179055505050565b80516000036114f65760405162461bcd60e51b8152602060048201526024808201527f54726f76654d616e616765723a206164647265737320617272617920697320656044820152636d70747960e01b60648201526084015b60405180910390fd5b6114ff82612d04565b60655460408051633fbeef2560e11b815290516000926001600160a01b031691637f7dde4a9160048083019260209291908290030181865afa158015611549573d6000803e3d6000fd5b505050506040513d601f19601f8201168201806040525081019061156d9190615f60565b90506000606560009054906101000a90046001600160a01b03166001600160a01b0316633cc742256040518163ffffffff1660e01b8152600401602060405180830381865afa1580156115c4573d6000803e3d6000fd5b505050506040513d601f19601f820116820180604052508101906115e89190615f60565b60675460405163065c20bb60e41b81529192506000916001600160a01b03909116906365c20bb09061161e908890600401615a8a565b602060405180830381865afa15801561163b573d6000803e3d6000fd5b505050506040513d601f19601f8201168201806040525081019061165f9190615f60565b90506116696158a2565b6116716158d3565b826001600160a01b031663923032576040518163ffffffff1660e01b8152600401602060405180830381865afa1580156116af573d6000803e3d6000fd5b505050506040513d601f19601f820116820180604052508101906116d39190615f31565b60208084019190915260655460408051633a0df78d60e11b815290516001600160a01b039092169263741bef1a926004808401938290030181865afa158015611720573d6000803e3d6000fd5b505050506040513d601f19601f820116820180604052508101906117449190615f60565b6001600160a01b031663ace1798e886040518263ffffffff1660e01b815260040161176f9190615a8a565b6020604051808303816000875af115801561178e573d6000803e3d6000fd5b505050506040513d601f19601f820116820180604052508101906117b29190615f31565b8083526117c0908890613678565b15801560408401526117e9576117e2878686856000015186602001518b6136ff565b9050611802565b6117ff878686856000015186602001518b613a16565b90505b60008160200151116118265760405162461bcd60e51b81526004016114ed90615f7d565b608081015160a082015160405163335525ad60e01b81526001600160a01b0386169263335525ad9261185a92600401615e7a565b600060405180830381600087803b15801561187457600080fd5b505af1158015611888573d6000803e3d6000fd5b505050506118a18786868460c001518560e00151613b57565b61010081015115611919576069546101008201516040516347878f1560e01b81526001600160a01b03888116936347878f15936118e6938d9390921691600401615fbf565b600060405180830381600087803b15801561190057600080fd5b505af1158015611914573d6000803e3d6000fd5b505050505b61192887868360400151613e6a565b6020810151606083015261010081015160408201518251611954929161194e919061304d565b9061304d565b826080018181525050866001600160a01b03166000805160206161a5833981519152836060015184608001518460400151856060015160405161199a9493929190615a6f565b60405180910390a26119b787863384606001518560400151614059565b50505050505050565b6119c861591f565b6119d182612d04565b6001600160a01b038084166000908152606f602090815260408083208685168452825291829020825160c0810184528154909416845260018101549184019190915260028101549183019190915260038101546060830152600480820154608084019160ff90911690811115611a4957611a49615d2e565b6004811115611a5a57611a5a615d2e565b81526004919091015461010090046001600160801b03166020909101529392505050565b611a8782612d04565b6040805160e08101808352606554633fbeef2560e11b909152915160009282916001600160a01b0390911690637f7dde4a9060e4808501916020918187030181865afa158015611adb573d6000803e3d6000fd5b505050506040513d601f19601f82011682018060405250810190611aff9190615f60565b6001600160a01b03168152602001606560009054906101000a90046001600160a01b03166001600160a01b0316633cc742256040518163ffffffff1660e01b8152600401602060405180830381865afa158015611b60573d6000803e3d6000fd5b505050506040513d601f19601f82011682018060405250810190611b849190615f60565b6001600160a01b0390811682526000602083018190526040808401829052606c54831660608501526080840182905260a0909301819052606754925163065c20bb60e41b8152939450929116906365c20bb090611be5908790600401615a8a565b602060405180830381865afa158015611c02573d6000803e3d6000fd5b505050506040513d601f19601f82011682018060405250810190611c269190615f60565b9050611c306158a2565b611c386158d3565b606560009054906101000a90046001600160a01b03166001600160a01b031663741bef1a6040518163ffffffff1660e01b8152600401602060405180830381865afa158015611c8b573d6000803e3d6000fd5b505050506040513d601f19601f82011682018060405250810190611caf9190615f60565b6001600160a01b031663ace1798e876040518263ffffffff1660e01b8152600401611cda9190615a8a565b6020604051808303816000875af1158015611cf9573d6000803e3d6000fd5b505050506040513d601f19601f82011682018060405250810190611d1d9190615f31565b826000018181525050826001600160a01b031663923032576040518163ffffffff1660e01b8152600401602060405180830381865afa158015611d64573d6000803e3d6000fd5b505050506040513d601f19601f82011682018060405250810190611d889190615f31565b60208301528151611d9a908790613678565b1580156040840152611dc257611dbb8685846000015185602001518961412e565b9050611de3565b611de08685600001518660200151856000015186602001518a6145ca565b90505b6000816020015111611e075760405162461bcd60e51b81526004016114ed90615f7d565b608081015160a082015160405163335525ad60e01b81526001600160a01b0386169263335525ad92611e3b92600401615e7a565b600060405180830381600087803b158015611e5557600080fd5b505af1158015611e69573d6000803e3d6000fd5b50505050611e8a86856000015186602001518460c001518560e00151613b57565b61010081015115611f055783516069546101008301516040516347878f1560e01b81526001600160a01b03938416936347878f1593611ed2938c939290911691600401615fbf565b600060405180830381600087803b158015611eec57600080fd5b505af1158015611f00573d6000803e3d6000fd5b505050505b611f188685600001518360400151613e6a565b6020810151606083015261010081015160408201518251611f3e929161194e919061304d565b826080018181525050856001600160a01b03166000805160206161a58339815191528360600151846080015184604001518560600151604051611f849493929190615a6f565b60405180910390a2611fa58685600001513384606001518560400151614059565b505050505050565b6000610f6f848484614778565b6000611fc583612d04565b6001600160a01b0383166000908152607660205260409020805483908110611fef57611fef615fe3565b6000918252602090912001546001600160a01b03169392505050565b600061201684612d04565b61201e612cbb565b6001600160a01b038084166000908152606f60209081526040808320938816835292905290812060010154612053908461304d565b6001600160a01b038086166000908152606f60209081526040808320938a168352929052206001018190559150509392505050565b81816120948282612fdb565b6120ea5760405162461bcd60e51b815260206004820152602160248201527f54726f76654d616e616765723a2054726f7665206973206e6f742061637469766044820152606560f81b60648201526084016114ed565b6120f384612d04565b60408051600180825281830190925260009160208083019080368337019050509050838160008151811061212957612129615fe3565b60200260200101906001600160a01b031690816001600160a01b0316815250506121538582611494565b5050505050565b61216383612d04565b61216b612cbb565b6001600160a01b038083166000908152606f6020908152604080832093871680845293909152902080546001600160a01b03191690911790558060048111156121b6576121b6615d2e565b6001600160a01b038084166000908152606f6020908152604080832093881683529290522060049081018054909160ff199091169060019084908111156121ff576121ff615d2e565b0217905550505050565b600061221483612d04565b610c118383613678565b600061222983612d04565b610c1161223584610cfc565b836147a2565b6033546001600160a01b031690565b600061225583612d04565b60008061226285856147ba565b9150915060006122728383614858565b9695505050505050565b6000610bff82614887565b600080606560009054906101000a90046001600160a01b03166001600160a01b0316637f7dde4a6040518163ffffffff1660e01b8152600401602060405180830381865afa1580156122dd573d6000803e3d6000fd5b505050506040513d601f19601f820116820180604052508101906123019190615f60565b6001600160a01b0316635373433f846040518263ffffffff1660e01b815260040161232c9190615a8a565b602060405180830381865afa158015612349573d6000803e3d6000fd5b505050506040513d601f19601f8201168201806040525081019061236d9190615f31565b90506000606560009054906101000a90046001600160a01b03166001600160a01b0316633cc742256040518163ffffffff1660e01b8152600401602060405180830381865afa1580156123c4573d6000803e3d6000fd5b505050506040513d601f19601f820116820180604052508101906123e89190615f60565b6001600160a01b0316635373433f856040518263ffffffff1660e01b8152600401610f229190615a8a565b600061241e83612d04565b610c1161223584612453565b600061243584612d04565b60008061244286866147ba565b915091506000611289838387614778565b600061245e82612d04565b6001600160a01b0382166000908152606d6020526040902054610bff908390612ed5565b6000610c1183836148b2565b600061249983612d04565b6001600160a01b03808316600090815260756020908152604080832093871683529281528282205460739091529181205461121b908361304d565b6124dd82612d04565b6124e5612cbb565b6110f8828261492e565b600054600160a81b900460ff161580801561251757506000546001600160a01b90910460ff16105b806125385750303b1580156125385750600054600160a01b900460ff166001145b61259b5760405162461bcd60e51b815260206004820152602e60248201527f496e697469616c697a61626c653a20636f6e747261637420697320616c72656160448201526d191e481a5b9a5d1a585b1a5e995960921b60648201526084016114ed565b6000805460ff60a01b1916600160a01b17905580156125c8576000805460ff60a81b1916600160a81b1790555b60795460ff161561260a5760405162461bcd60e51b815260206004820152600c60248201526b085a5b9a5d1a585b1a5e995960a21b60448201526064016114ed565b61261389612d91565b61261c88612d91565b61262587612d91565b61262e86612d91565b61263785612d91565b61264084612d91565b61264983612d91565b61265282612d91565b6079805460ff191660011790556126676149a7565b606680546001600160a01b03199081166001600160a01b038c8116919091179092556067805482168b84161790556068805482168a8416179055606980548216898416179055606b80548216888416179055606c80548216878416179055606a80549091169185169190911790556126de82611294565b7f3ca631ffcd2a9b5d9ae18543fc82f58eb4ca33af9e6ab01b7a8e95331e6ed9858960405161270d9190615a8a565b60405180910390a17f82966d27eea39b038ee0fa30cd16532bb24f6e65d31cb58fb227aa5766cdcc7f886040516127449190615a8a565b60405180910390a17fcfb07d791fcafc032b35837b50eb84b74df518cf4cc287e8084f47630fa70fa08760405161277b9190615a8a565b60405180910390a17fe67f36a6e961157d6eff83b91f3af5a62131ceb6f04954ef74f51c1c05e7f88d866040516127b29190615a8a565b60405180910390a17fffbb094c9e44d0e86f5ef0b73fc5fd37eb0b9f00e5d56a3e5a591c1f63ae9378856040516127e99190615a8a565b60405180910390a17f65f4cf077bc01e4742eb5ad98326f6e95b63548ea24b17f8d5e823111fe78800846040516128209190615a8a565b60405180910390a17f028d155b44cc706dadb63eac3ffb852c07d9f185cc5c4fbffc5d51f8742cb6e4836040516128579190615a8a565b60405180910390a180156128a7576000805460ff60a81b19169055604051600181527f7f26b83ff96e1f2b6a682f133852f6798a09c465da95921460cefb38474024989060200160405180910390a15b505050505050505050565b60006128bd83612d04565b6128c5612cbb565b610c1183836149d8565b60006128da83612d04565b506001600160a01b038082166000908152606f602090815260408083209386168352929052206003015492915050565b61291382612d04565b61291b612cbb565b6110f882606560009054906101000a90046001600160a01b03166001600160a01b0316637f7dde4a6040518163ffffffff1660e01b8152600401602060405180830381865afa158015612972573d6000803e3d6000fd5b505050506040513d601f19601f820116820180604052508101906129969190615f60565b606560009054906101000a90046001600160a01b03166001600160a01b0316633cc742256040518163ffffffff1660e01b8152600401602060405180830381865afa1580156129e9573d6000803e3d6000fd5b505050506040513d601f19601f82011682018060405250810190612a0d9190615f60565b846134cb565b60766020528160005260406000208181548110612a2f57600080fd5b6000918252602090912001546001600160a01b03169150829050565b612a53612d32565b6001600160a01b038116612ab85760405162461bcd60e51b815260206004820152602660248201527f4f776e61626c653a206e6577206f776e657220697320746865207a65726f206160448201526564647265737360d01b60648201526084016114ed565b612ac181613626565b50565b6000612acf83612d04565b506001600160a01b038082166000908152606f602090815260408083209386168352929052206001015492915050565b612b0882612d04565b612b10612cbb565b6110f88282614abb565b6000612b2584612d04565b612b2d612cbb565b6001600160a01b038084166000908152606f602090815260408083209388168352929052908120600101546120539084612fcf565b60655460405163e29607cf60e01b8152600091610c11916001600160a01b039091169063e29607cf90612b99908790600401615a8a565b602060405180830381865afa158015612bb6573d6000803e3d6000fd5b505050506040513d601f19601f82011682018060405250810190612bda9190615f31565b8390612fcf565b600080612bed83614887565b90506000612c03670ddd4b8c6c7d70d883614b35565b6001600160a01b0385166000908152606d6020526040902054909150610f6f90670de0b6b3a76400009061128390846134b3565b6001600160a01b0381166000908152606e6020526040812054612c5b90429061304d565b9050603c81106110f8576001600160a01b0382166000818152606e6020908152604091829020429081905591519182527f4b1a24436e474bd20ff461d446818e19b145a1ff52f698dec751807684621acc91015b60405180910390a25050565b6066546001600160a01b03163314801590612ce6575060795461010090046001600160a01b03163314155b156113c1576040516333dd4bab60e11b815260040160405180910390fd5b6000546001600160a01b03828116911614612ac157604051631a40f2bd60e31b815260040160405180910390fd5b33612d3b61223b565b6001600160a01b0316146113c15760405162461bcd60e51b815260206004820181905260248201527f4f776e61626c653a2063616c6c6572206973206e6f7420746865206f776e657260448201526064016114ed565b6001600160a01b038116612de75760405162461bcd60e51b815260206004820152601e60248201527f4163636f756e742063616e6e6f74206265207a65726f2061646472657373000060448201526064016114ed565b803b806110f85760405162461bcd60e51b815260206004820181905260248201527f4163636f756e7420636f64652073697a652063616e6e6f74206265207a65726f60448201526064016114ed565b6001600160a01b03828116600081815260766020908152604082208054600180820183558285529284200180546001600160a01b031916958716959095179094559181529154612e859161304d565b6001600160a01b038084166000908152606f6020908152604080832093881683529290522060040180546001600160801b03831661010002610100600160881b0319909116179055905092915050565b606554604051631108308b60e31b8152600091610c1191612f599185916001600160a01b0390911690638841845890612f12908990600401615a8a565b602060405180830381865afa158015612f2f573d6000803e3d6000fd5b505050506040513d601f19601f82011682018060405250810190612f539190615f31565b90612fcf565b60655460405163098e8fa760e01b81526001600160a01b039091169063098e8fa790612f89908890600401615a8a565b602060405180830381865afa158015612fa6573d6000803e3d6000fd5b505050506040513d601f19601f82011682018060405250810190612fca9190615f31565b614bd9565b6000610c11828461600f565b6000600160405163614d120960e01b8152309063614d1209906130049087908790600401616022565b602060405180830381865afa158015613021573d6000803e3d6000fd5b505050506040513d601f19601f820116820180604052508101906130459190615f31565b149392505050565b6000610c11828461603c565b60655460405163e29607cf60e01b8152600091610c11916001600160a01b039091169063e29607cf90613090908790600401615a8a565b602060405180830381865afa1580156130ad573d6000803e3d6000fd5b505050506040513d601f19601f820116820180604052508101906130d19190615f31565b839061304d565b60008160048111156130ec576130ec615d2e565b1415801561310c5750600181600481111561310957613109615d2e565b14155b61311857613118615f4a565b6001600160a01b03831660009081526076602052604090205461313b8482614bef565b6001600160a01b038084166000908152606f6020908152604080832093881683529290522060049081018054849260ff1990911690600190849081111561318457613184615d2e565b02179055506001600160a01b038381166000818152606f602090815260408083209489168084529482528083206002810184905560019081018490559383526075825280832094835293905291822082815501556131e384848361324d565b606c54604051637f7c149160e01b81526001600160a01b0390911690637f7c1491906132159087908790600401616022565b600060405180830381600087803b15801561322f57600080fd5b505af1158015613243573d6000803e3d6000fd5b5050505050505050565b6001600160a01b038083166000908152606f6020908152604080832093871683529290529081206004015460ff169081600481111561328e5761328e615d2e565b141580156132ae575060018160048111156132ab576132ab615d2e565b14155b6132ba576132ba615f4a565b6001600160a01b038381166000908152606f6020908152604080832093881683529290529081206004015461010090046001600160801b031690839061330182600161304d565b905080836001600160801b0316111561331c5761331c615f4a565b6001600160a01b038716600090815260766020526040812080548390811061334657613346615fe3565b60009182526020808320909101546001600160a01b038b811684526076909252604090922080549190921692508291906001600160801b03871690811061338f5761338f615fe3565b600091825260208083209190910180546001600160a01b0319166001600160a01b03948516179055838316808352606f82526040808420948d16808552948352928390206004018054610100600160881b0319166101006001600160801b038b16908102919091179091558351918252918101919091527f596c08527bf037a7d30b01f257c1ba24ebd2a664cde69f8315accfee1199c668910160405180910390a26001600160a01b03881660009081526076602052604090208054806134585761345861604f565b600082815260209020810160001990810180546001600160a01b03191690550190555050505050505050565b60008061349084612287565b9050600061349d85610d96565b90506134aa828286614778565b95945050505050565b6000610c118284616065565b6000610c118284616092565b6134d58482610f77565b15611369576134e48482612fdb565b6134f0576134f0615f4a565b60006134fc858361248e565b9050600061350a86846111d2565b6001600160a01b038085166000908152606f60209081526040808320938b16835292905220600201549091506135409083612fcf565b6001600160a01b038481166000908152606f60209081526040808320938b1683529290522060028101919091556001015461357b9082612fcf565b6001600160a01b038085166000908152606f60209081526040808320938b16835292905220600101556135ae868461492e565b6135bb8686868486614cb9565b6001600160a01b038381166000818152606f60209081526040808320948b16808452949091528082206001810154600282015460039092015492519495946000805160206161c58339815191529461361694929392916160b6565b60405180910390a3505050505050565b603380546001600160a01b038381166001600160a01b0319831681179093556040519116919082907f8be0079c531659141344cd1fd0a4f28419497f9722a3daafe3b4186f6b6457e090600090a35050565b6000806136858484613484565b606554604051631f6a526d60e11b81529192506001600160a01b031690633ed4a4da906136b6908790600401615a8a565b602060405180830381865afa1580156136d3573d6000803e3d6000fd5b505050506040513d601f19601f820116820180604052508101906136f79190615f31565b119392505050565b6137076158d3565b61370f61596f565b6137176158d3565b8482526000608083015261372a89610d96565b60a083015261373889612287565b60c0830152600060208301525b835182602001511015613a0a578382602001518151811061376857613768615fe3565b60209081029190910101516001600160a01b03166060830152600160608301516001600160a01b039081166000908152606f60209081526040808320938e1683529290522060049081015460ff16908111156137c6576137c6615d2e565b036139f2576137da8983606001518861242a565b60408301526080820151613931576065546040516305f8cff960e01b81526001600160a01b03909116906305f8cff990613818908c90600401615a8a565b602060405180830381865afa158015613835573d6000803e3d6000fd5b505050506040513d601f19601f820116820180604052508101906138599190615f31565b82604001511015801561386b57508151155b6139f25760006138848360c001518460a0015189614778565b90506138a28a8a8a866060015187604001518860000151878e614da7565b608081015184519193506138b6919061304d565b8352608082015160a08401516138cb9161304d565b8360a001818152505061390082610100015161194e846040015161194e8660a001518860c0015161304d90919063ffffffff16565b60c084015261390f84836152df565b93506139258a8460c001518560a001518a6153c0565b156080840152506139f2565b816080015180156139b557506065546040516305f8cff960e01b81526001600160a01b03909116906305f8cff99061396d908c90600401615a8a565b602060405180830381865afa15801561398a573d6000803e3d6000fd5b505050506040513d601f19601f820116820180604052508101906139ae9190615f31565b8260400151105b156139f2576139cf8989898560600151866000015161544a565b608081015183519192506139e3919061304d565b82526139ef83826152df565b92505b60208201805190613a02826160d8565b905250613745565b50509695505050505050565b613a1e6158d3565b613a2661596f565b613a2e6158d3565b848252600060208301525b835182602001511015613a0a5783826020015181518110613a5c57613a5c615fe3565b60209081029190910101516001600160a01b031660608301819052613a83908a908861242a565b60408084019190915260655490516305f8cff960e01b81526001600160a01b03909116906305f8cff990613abb908c90600401615a8a565b602060405180830381865afa158015613ad8573d6000803e3d6000fd5b505050506040513d601f19601f82011682018060405250810190613afc9190615f31565b82604001511015613b3f57613b1c8989898560600151866000015161544a565b60808101518351919250613b30919061304d565b8252613b3c83826152df565b92505b60208201805190613b4f826160d8565b905250613a39565b8115612153576001600160a01b038516600090815260776020526040812054613b8c90612f5384670de0b6b3a76400006134b3565b6001600160a01b03871660009081526078602052604081205491925090613bbf90612f5386670de0b6b3a76400006134b3565b6001600160a01b03881660009081526070602052604081205491925090613be79084906134bf565b6001600160a01b03891660009081526070602052604081205491925090613c0f9084906134bf565b6001600160a01b038a16600090815260706020526040902054909150613c4190613c3a9084906134b3565b859061304d565b6001600160a01b038a16600090815260776020908152604080832093909355607090522054613c7c90613c759083906134b3565b849061304d565b6001600160a01b038a16600090815260786020908152604080832093909355607390522054613cab9083612fcf565b6001600160a01b038a16600090815260736020908152604080832093909355607490522054613cda9082612fcf565b6001600160a01b038a166000818152607460208181526040808420869055607382529283902054919052905191927f6f63d00bdf85957664165c9e20900aabd5a17378cb5c0955ce760e48a6ae48c792613d35929190615e7a565b60405180910390a2604051631197fc7160e01b81526001600160a01b03891690631197fc7190613d6b908c908a906004016160f1565b600060405180830381600087803b158015613d8557600080fd5b505af1158015613d99573d6000803e3d6000fd5b5050604051633c7e6c8960e01b81526001600160a01b038a169250633c7e6c899150613dcb908c908a906004016160f1565b600060405180830381600087803b158015613de557600080fd5b505af1158015613df9573d6000803e3d6000fd5b50506040516347878f1560e01b81526001600160a01b038b1692506347878f159150613e2d908c908b908a90600401615fbf565b600060405180830381600087803b158015613e4757600080fd5b505af1158015613e5b573d6000803e3d6000fd5b50505050505050505050505050565b6001600160a01b0380841660009081526070602090815260408083205460719092528083209190915551635373433f60e01b81529091841690635373433f90613eb7908790600401615a8a565b602060405180830381865afa158015613ed4573d6000803e3d6000fd5b505050506040513d601f19601f82011682018060405250810190613ef89190615f31565b90506000606560009054906101000a90046001600160a01b03166001600160a01b0316633cc742256040518163ffffffff1660e01b8152600401602060405180830381865afa158015613f4f573d6000803e3d6000fd5b505050506040513d601f19601f82011682018060405250810190613f739190615f60565b6001600160a01b0316635373433f866040518263ffffffff1660e01b8152600401613f9e9190615a8a565b602060405180830381865afa158015613fbb573d6000803e3d6000fd5b505050506040513d601f19601f82011682018060405250810190613fdf9190615f31565b9050613fef81612f53848661304d565b6001600160a01b0386166000818152607260208181526040808420869055607182529283902054919052905191927f9ea5863ffc9d961d6c6bb67235c553dfbdbcc8fe12671cdba8887a50501efbaf9261404a929190615e7a565b60405180910390a25050505050565b81156140ca57606b54606854604051631062c15f60e11b81526001600160a01b03928316926320c582be926140979291169087908790600401615fbf565b600060405180830381600087803b1580156140b157600080fd5b505af11580156140c5573d6000803e3d6000fd5b505050505b8015612153576040516347878f1560e01b81526001600160a01b038516906347878f159061410090889087908690600401615fbf565b600060405180830381600087803b15801561411a57600080fd5b505af11580156128a7573d6000803e3d6000fd5b6141366158d3565b604080516060810182526001600160a01b03881681526000602082015290810185905261416161596f565b6141696158d3565b85825260006080830152825161417e90610d96565b60a0830152825161418e90612287565b60c083015260808801518351604051637608271560e01b81526001600160a01b03909216916376082715916141c591600401615a8a565b602060405180830381865afa1580156141e2573d6000803e3d6000fd5b505050506040513d601f19601f820116820180604052508101906142069190615f60565b6001600160a01b03908116606084015260808901518451604051631bdb4c8d60e01b81526000939290921691631bdb4c8d9161424491600401615a8a565b602060405180830381865afa158015614261573d6000803e3d6000fd5b505050506040513d601f19601f820116820180604052508101906142859190615f60565b6000602085015290505b8583602001511080156142b85750806001600160a01b031683606001516001600160a01b031614155b156145bd576080890151845160608501516040516239c6e160ea1b81526000936001600160a01b03169263e71b8400926142f492600401616022565b602060405180830381865afa158015614311573d6000803e3d6000fd5b505050506040513d601f19601f820116820180604052508101906143359190615f60565b905061434e85600001518560600151876040015161242a565b604085015260808401516144c4576065546040516305f8cff960e01b81526001600160a01b03909116906305f8cff99061438c908e90600401615a8a565b602060405180830381865afa1580156143a9573d6000803e3d6000fd5b505050506040513d601f19601f820116820180604052508101906143cd9190615f31565b8460400151101580156143df57508351155b156143ea57506145bd565b60006144038560c001518660a001518860400151614778565b905061443186600001518c600001518d60200151886060015189604001518a60000151878d60400151614da7565b60808101518651919550614445919061304d565b8552608084015160a086015161445a9161304d565b8560a001818152505061448f84610100015161194e866040015161194e8860a001518a60c0015161304d90919063ffffffff16565b60c086015261449e87856152df565b96506144b88c8660c001518760a0015189604001516153c0565b15608086015250614597565b8360800151801561454857506065546040516305f8cff960e01b81526001600160a01b03909116906305f8cff990614500908e90600401615a8a565b602060405180830381865afa15801561451d573d6000803e3d6000fd5b505050506040513d601f19601f820116820180604052508101906145419190615f31565b8460400151105b156145915784518a5160208c01516060870151875161456a949392919061544a565b6080810151855191945061457e919061304d565b845261458a86846152df565b9550614597565b506145bd565b6001600160a01b03166060840152602083018051906145b5826160d8565b90525061428f565b5050505095945050505050565b6145d26158d3565b6145da61596f565b6145e26158d3565b606c54858352600060208401526001600160a01b03165b848360200151101561476b57604051637608271560e01b81526001600160a01b03821690637608271590614631908d90600401615a8a565b602060405180830381865afa15801561464e573d6000803e3d6000fd5b505050506040513d601f19601f820116820180604052508101906146729190615f60565b6001600160a01b03166060840181905261468e908b908961242a565b60408085019190915260655490516305f8cff960e01b81526001600160a01b03909116906305f8cff9906146c6908d90600401615a8a565b602060405180830381865afa1580156146e3573d6000803e3d6000fd5b505050506040513d601f19601f820116820180604052508101906147079190615f31565b8360400151101561474e576147278a8a8a8660600151876000015161544a565b6080810151845191935061473b919061304d565b835261474784836152df565b9350614753565b61476b565b60208301805190614763826160d8565b9052506145f9565b5050509695505050505050565b600082156147995760006147908461128387866134b3565b9150610c119050565b50600019610c11565b6000610c11670de0b6b3a764000061128385856134b3565b60008060006147c9858561248e565b905060006147d786866111d2565b6001600160a01b038087166000908152606f60209081526040808320938b16835292905290812060020154919250906148109084612fcf565b6001600160a01b038088166000908152606f60209081526040808320938c16835292905290812060010154919250906148499084612fcf565b91989197509095505050505050565b6000811561487e57614877826112838568056bc75e2d631000006134b3565b9050610bff565b50600019610bff565b6001600160a01b0381166000908152606e6020526040812054610bff90603c9061128390429061304d565b60655460405163b6c93c3960e01b81526000916001600160a01b03169063b6c93c39906148e3908690600401615a8a565b602060405180830381865afa158015614900573d6000803e3d6000fd5b505050506040513d601f19601f820116820180604052508101906149249190615f31565b610c119083616092565b6001600160a01b0382811660008181526073602090815260408083208054958716845260758352818420858552835281842095865560749092529182902054600190940184905554905191927fc3d426bcfc672bd74f6fae61c225e06f556f80dad48af8a4631b295030a7ad3d92612caf929190615e7a565b600054600160a81b900460ff166149d05760405162461bcd60e51b81526004016114ed9061610a565b6113c1615600565b6001600160a01b038082166000908152606f602090815260408083209386168352929052908120600201548190614a10908590615632565b6001600160a01b038481166000908152606f60209081526040808320938916835292815282822060030180549085905560709091529190205491925090614a5d908390612f53908461304d565b6001600160a01b038616600081815260706020526040908190208390555190917fd5630907014190fb9340da1cf427c96f094dabfbf73d25506e4b0cda9e3a4ca091614aab91815260200190565b60405180910390a2509392505050565b6001600160a01b038082166000908152606f60209081526040808320938616835292815282822060030154607090915291902054614af9908261304d565b6001600160a01b03938416600081815260706020908152604080832094909455949095168552606f845281852090855290925250812060030155565b6000631f540500821115614b4b57631f54050091505b81600003614b625750670de0b6b3a7640000610bff565b670de0b6b3a764000083835b6001811115614bcf57614b82600282616155565b600003614ba757614b9382836156b4565b9150614ba08160026134bf565b9050614b6e565b614bb182846156b4565b9250614bbd82836156b4565b9150614ba0600261128383600161304d565b61227282846156b4565b6000818310614be85781610c11565b5090919050565b600181118015614c6e5750606c5460405163504f167160e01b81526001916001600160a01b03169063504f167190614c2b908690600401615a8a565b602060405180830381865afa158015614c48573d6000803e3d6000fd5b505050506040513d601f19601f82011682018060405250810190614c6c9190615f31565b115b6110f85760405162461bcd60e51b815260206004820152601c60248201527b54726f76654d616e616765723a20546f6f206d7563682074726f766560201b60448201526064016114ed565b604051631197fc7160e01b81526001600160a01b03841690631197fc7190614ce790889086906004016160f1565b600060405180830381600087803b158015614d0157600080fd5b505af1158015614d15573d6000803e3d6000fd5b5050604051633c7e6c8960e01b81526001600160a01b0387169250633c7e6c899150614d4790889086906004016160f1565b600060405180830381600087803b158015614d6157600080fd5b505af1158015614d75573d6000803e3d6000fd5b505060405163053f8cf960e31b81526001600160a01b03861692506329fc67c8915061410090889085906004016160f1565b614daf6158d3565b614db76159b7565b6001600160a01b038a16600090815260766020526040902054600110614ddd57506152d3565b614de78a88610d19565b60408501526020848101919091528401819052908352614e08908b906148b2565b604080840191909152606554905163e29607cf60e01b81526001600160a01b039091169063e29607cf90614e40908d90600401615a8a565b602060405180830381865afa158015614e5d573d6000803e3d6000fd5b505050506040513d601f19601f82011682018060405250810190614e819190615f31565b606083015260408201516020830151614e999161304d565b81526065546040805163397f12d560e11b815290516001600160a01b03909216916372fe25aa916004808201926020929091908290030181865afa158015614ee5573d6000803e3d6000fd5b505050506040513d601f19601f82011682018060405250810190614f099190615f31565b8611614fe357614f248a8a8a84602001518560400151614cb9565b614f2e8a88614abb565b60006080830181905260a0830152815160c0830152805160e0830152614f568a8860036130d8565b866001600160a01b03168a6001600160a01b0316600080516020616185833981519152846000015185602001516002604051614f9493929190616169565b60405180910390a3866001600160a01b03168a6001600160a01b03166000805160206161c583398151915260008060006002604051614fd694939291906160b6565b60405180910390a36152d1565b606560009054906101000a90046001600160a01b03166001600160a01b03166372fe25aa6040518163ffffffff1660e01b8152600401602060405180830381865afa158015615036573d6000803e3d6000fd5b505050506040513d601f19601f8201168201806040525081019061505a9190615f31565b861180156150d757506065546040516305f8cff960e01b81526001600160a01b03909116906305f8cff990615093908d90600401615a8a565b602060405180830381865afa1580156150b0573d6000803e3d6000fd5b505050506040513d601f19601f820116820180604052508101906150d49190615f31565b86105b1561512a576150f18a8a8a84602001518560400151614cb9565b6150fb8a88614abb565b8151815161510a9190876156e4565b60e086015260c085015260a08401526080830152614f568a8860036130d8565b6065546040516305f8cff960e01b81526001600160a01b03909116906305f8cff99061515a908d90600401615a8a565b602060405180830381865afa158015615177573d6000803e3d6000fd5b505050506040513d601f19601f8201168201806040525081019061519b9190615f31565b86101580156151a957508386105b80156151b6575081518510155b156152c0576151d08a8a8a84602001518560400151614cb9565b846000036151e0576151e0615f4a565b6151ea8a88614abb565b6151fe8a836000015184602001518661573e565b915061520c8a8860036130d8565b6101008201511561528257606954610100830151604051633fa5152d60e21b81526001600160a01b039092169163fe9454b49161524f918e918c91600401615fbf565b600060405180830381600087803b15801561526957600080fd5b505af115801561527d573d6000803e3d6000fd5b505050505b866001600160a01b03168a6001600160a01b031660008051602061618583398151915284600001518560a001516002604051614f9493929190616169565b6152c86158d3565b91506152d39050565b505b98975050505050505050565b6152e76158d3565b604080830151908401516152fa91612fcf565b60408201526060808301519084015161531291612fcf565b60608201528151602084015161532791612fcf565b602080830191909152820151835161533e91612fcf565b81526080808301519084015161535391612fcf565b608082015260a0808301519084015161536b91612fcf565b60a082015260c0808301519084015161538391612fcf565b60c082015260e0808301519084015161539b91612fcf565b60e082015261010080830151908401516153b491612fcf565b61010082015292915050565b6000806153ce858585614778565b606554604051631f6a526d60e11b81529192506001600160a01b031690633ed4a4da906153ff908990600401615a8a565b602060405180830381865afa15801561541c573d6000803e3d6000fd5b505050506040513d601f19601f820116820180604052508101906154409190615f31565b1195945050505050565b6154526158d3565b61545a6159b7565b6154648785610d19565b6040850190815260208581019283528601929092529184529051905161548f91899189918991614cb9565b6154998785614abb565b6154a78783602001516148b2565b604080840191909152606554905163e29607cf60e01b81526001600160a01b039091169063e29607cf906154df908a90600401615a8a565b602060405180830381865afa1580156154fc573d6000803e3d6000fd5b505050506040513d601f19601f820116820180604052508101906155209190615f31565b60608301526040820151602083015160009161553c919061304d565b905061554d836000015182866156e4565b60e087015260c086015260a0850152608084015261556d888660036130d8565b846001600160a01b0316886001600160a01b03166000805160206161858339815191528560000151866020015160016040516155ab93929190616169565b60405180910390a3846001600160a01b0316886001600160a01b03166000805160206161c5833981519152600080600060016040516155ed94939291906160b6565b60405180910390a3505095945050505050565b600054600160a81b900460ff166156295760405162461bcd60e51b81526004016114ed9061610a565b6113c133613626565b6001600160a01b0382166000908152607260205260408120548190810361565a575081610c11565b6001600160a01b03841660009081526071602052604090205461567f5761567f615f4a565b6001600160a01b038416600090815260726020908152604080832054607190925290912054610f6f91906112839086906134b3565b6000806156c184846134b3565b9050610f6f670de0b6b3a76400006112836156dd600283616092565b8490612fcf565b60008080808415615728576156f98786614bd9565b93506157098761128388876134b3565b9250615715878561304d565b9150615721868461304d565b9050615735565b5060009250829150859050845b93509350935093565b6157466158d3565b838152602081018390526065546040516305f8cff960e01b81526000916157d5918591611283916001600160a01b03909116906305f8cff99061578d908c90600401615a8a565b602060405180830381865afa1580156157aa573d6000803e3d6000fd5b505050506040513d601f19601f820116820180604052508101906157ce9190615f31565b88906134b3565b90506157e186826148b2565b604080840191909152606554905163e29607cf60e01b81526001600160a01b039091169063e29607cf90615819908990600401615a8a565b602060405180830381865afa158015615836573d6000803e3d6000fd5b505050506040513d601f19601f8201168201806040525081019061585a9190615f31565b606083015260808201859052604082015161587690829061304d565b60a0830152615885848261304d565b61010083015250600060c0820181905260e0820152949350505050565b6040518060a00160405280600081526020016000815260200160001515815260200160008152602001600081525090565b6040518061012001604052806000815260200160008152602001600081526020016000815260200160008152602001600081526020016000815260200160008152602001600081525090565b6040518060c0016040528060006001600160a01b031681526020016000815260200160008152602001600081526020016000600481111561596257615962615d2e565b8152600060209091015290565b6040518060e0016040528060008152602001600081526020016000815260200160006001600160a01b0316815260200160001515815260200160008152602001600081525090565b60405180606001604052806000815260200160008152602001600081525090565b6001600160a01b0381168114612ac157600080fd5b6000602082840312156159ff57600080fd5b8135610c11816159d8565b60008060408385031215615a1d57600080fd5b8235615a28816159d8565b946020939093013593505050565b60008060408385031215615a4957600080fd5b8235615a54816159d8565b91506020830135615a64816159d8565b809150509250929050565b93845260208401929092526040830152606082015260800190565b6001600160a01b0391909116815260200190565b600080600060608486031215615ab357600080fd5b8335615abe816159d8565b92506020840135615ace816159d8565b929592945050506040919091013590565b60008060008060808587031215615af557600080fd5b8435615b00816159d8565b93506020850135615b10816159d8565b92506040850135615b20816159d8565b91506060850135615b30816159d8565b939692955090935050565b634e487b7160e01b600052604160045260246000fd5b60405160c081016001600160401b0381118282101715615b7357615b73615b3b565b60405290565b604051601f8201601f191681016001600160401b0381118282101715615ba157615ba1615b3b565b604052919050565b6000806000838503610100811215615bc057600080fd5b8435615bcb816159d8565b93506020850135615bdb816159d8565b925060c0603f1982011215615bef57600080fd5b50615bf8615b51565b6040850135615c06816159d8565b815260608581013560208301526080860135604083015260a08601359082015260c085013560058110615c3857600080fd5b608082015260e08501356001600160801b0381168114615c5757600080fd5b60a082015292959194509192509050565b60008060408385031215615c7b57600080fd5b8235615c86816159d8565b91506020838101356001600160401b0380821115615ca357600080fd5b818601915086601f830112615cb757600080fd5b813581811115615cc957615cc9615b3b565b8060051b9150615cda848301615b79565b8181529183018401918481019089841115615cf457600080fd5b938501935b83851015615d1e5784359250615d0e836159d8565b8282529385019390850190615cf9565b8096505050505050509250929050565b634e487b7160e01b600052602160045260246000fd5b60058110615d5457615d54615d2e565b9052565b81516001600160a01b0316815260208083015190820152604080830151908201526060808301519082015260808083015160c0830191615d9a90840182615d44565b5060a0928301516001600160801b0316919092015290565b6001600160a01b038716815260208101869052604081018590526060810184905260c08101615de46080830185615d44565b6001600160801b039290921660a0919091015295945050505050565b600080600060608486031215615e1557600080fd5b505081359360208301359350604090920135919050565b600060208083528351808285015260005b81811015615e5957858101830151858201604001528201615e3d565b506000604082860101526040601f19601f8301168501019250505092915050565b918252602082015260400190565b600080600080600080600080610100898b031215615ea557600080fd5b8835615eb0816159d8565b97506020890135615ec0816159d8565b96506040890135615ed0816159d8565b95506060890135615ee0816159d8565b94506080890135615ef0816159d8565b935060a0890135615f00816159d8565b925060c0890135615f10816159d8565b915060e0890135615f20816159d8565b809150509295985092959890939650565b600060208284031215615f4357600080fd5b5051919050565b634e487b7160e01b600052600160045260246000fd5b600060208284031215615f7257600080fd5b8151610c11816159d8565b60208082526022908201527f54726f76654d616e616765723a206e6f7468696e6720746f206c697175696461604082015261746560f01b606082015260800190565b6001600160a01b039384168152919092166020820152604081019190915260600190565b634e487b7160e01b600052603260045260246000fd5b634e487b7160e01b600052601160045260246000fd5b80820180821115610bff57610bff615ff9565b6001600160a01b0392831681529116602082015260400190565b81810381811115610bff57610bff615ff9565b634e487b7160e01b600052603160045260246000fd5b8082028115828204841417610bff57610bff615ff9565b634e487b7160e01b600052601260045260246000fd5b6000826160a1576160a161607c565b500490565b60048110615d5457615d54615d2e565b8481526020810184905260408101839052608081016134aa60608301846160a6565b6000600182016160ea576160ea615ff9565b5060010190565b6001600160a01b03929092168252602082015260400190565b6020808252602b908201527f496e697469616c697a61626c653a20636f6e7472616374206973206e6f74206960408201526a6e697469616c697a696e6760a81b606082015260800190565b6000826161645761616461607c565b500690565b8381526020810183905260608101610f6f60408301846160a656fe44b1a33c624451b36e8d636828145aa4eb39bd6cc5e2cf623bb270d3abc38c88a3f221854f649364e9a3bb384dd1ff938482664f4a0eac0f6e39a542f5193bd3100d2512a463b515ea8d03a69afbcc791f1bd9139132e820631bec236f524ec1a26469706673582212200ba42e820cacc8916dd0d82bac36a105466da61378a6d239b3f0921ef850314464736f6c63430008110033",
  "linkReferences": {},
  "deployedLinkReferences": {}
}