{
  "_format": "hh-sol-artifact-1",
  "contractName": "CommunityIssuanceTester",
  "sourceName": "contracts/TestContracts/CommunityIssuanceTester.sol",
  "abi": [
    {
      "anonymous": false,
      "inputs": [
        {
          "indexed": false,
          "internalType": "uint8",
          "name": "version",
          "type": "uint8"
        }
      ],
      "name": "Initialized",
      "type": "event"
    },
    {
      "anonymous": false,
      "inputs": [
        {
          "indexed": true,
          "internalType": "address",
          "name": "previousOwner",
          "type": "address"
        },
        {
          "indexed": true,
          "internalType": "address",
          "name": "newOwner",
          "type": "address"
        }
      ],
      "name": "OwnershipTransferred",
      "type": "event"
    },
    {
      "anonymous": false,
      "inputs": [
        {
          "indexed": false,
          "internalType": "address",
          "name": "_stabilityPoolAddress",
          "type": "address"
        }
      ],
      "name": "StabilityPoolAddressSet",
      "type": "event"
    },
    {
      "anonymous": false,
      "inputs": [
        {
          "indexed": true,
          "internalType": "address",
          "name": "stabilityPool",
          "type": "address"
        },
        {
          "indexed": false,
          "internalType": "uint256",
          "name": "_totalYOUIssued",
          "type": "uint256"
        }
      ],
      "name": "TotalYOUIssuedUpdated",
      "type": "event"
    },
    {
      "anonymous": false,
      "inputs": [
        {
          "indexed": false,
          "internalType": "address",
          "name": "_YOUTokenAddress",
          "type": "address"
        }
      ],
      "name": "YOUTokenAddressSet",
      "type": "event"
    },
    {
      "inputs": [],
      "name": "DECIMAL_PRECISION",
      "outputs": [
        {
          "internalType": "uint256",
          "name": "",
          "type": "uint256"
        }
      ],
      "stateMutability": "view",
      "type": "function"
    },
    {
      "inputs": [],
      "name": "DISTRIBUTION_DURATION",
      "outputs": [
        {
          "internalType": "uint256",
          "name": "",
          "type": "uint256"
        }
      ],
      "stateMutability": "view",
      "type": "function"
    },
    {
      "inputs": [],
      "name": "NAME",
      "outputs": [
        {
          "internalType": "string",
          "name": "",
          "type": "string"
        }
      ],
      "stateMutability": "view",
      "type": "function"
    },
    {
      "inputs": [],
      "name": "SECONDS_IN_ONE_MINUTE",
      "outputs": [
        {
          "internalType": "uint256",
          "name": "",
          "type": "uint256"
        }
      ],
      "stateMutability": "view",
      "type": "function"
    },
    {
      "inputs": [
        {
          "internalType": "address",
          "name": "",
          "type": "address"
        }
      ],
      "name": "YOUSupplyCaps",
      "outputs": [
        {
          "internalType": "uint256",
          "name": "",
          "type": "uint256"
        }
      ],
      "stateMutability": "view",
      "type": "function"
    },
    {
      "inputs": [
        {
          "internalType": "address",
          "name": "_pool",
          "type": "address"
        },
        {
          "internalType": "uint256",
          "name": "_assignedSupply",
          "type": "uint256"
        }
      ],
      "name": "addFundToStabilityPool",
      "outputs": [],
      "stateMutability": "nonpayable",
      "type": "function"
    },
    {
      "inputs": [
        {
          "internalType": "address",
          "name": "_pool",
          "type": "address"
        },
        {
          "internalType": "uint256",
          "name": "_assignedSupply",
          "type": "uint256"
        },
        {
          "internalType": "address",
          "name": "_spender",
          "type": "address"
        }
      ],
      "name": "addFundToStabilityPoolFrom",
      "outputs": [],
      "stateMutability": "nonpayable",
      "type": "function"
    },
    {
      "inputs": [],
      "name": "adminContract",
      "outputs": [
        {
          "internalType": "address",
          "name": "",
          "type": "address"
        }
      ],
      "stateMutability": "view",
      "type": "function"
    },
    {
      "inputs": [
        {
          "internalType": "address",
          "name": "stabilityPool",
          "type": "address"
        }
      ],
      "name": "getLastUpdateTokenDistribution",
      "outputs": [
        {
          "internalType": "uint256",
          "name": "",
          "type": "uint256"
        }
      ],
      "stateMutability": "view",
      "type": "function"
    },
    {
      "inputs": [],
      "name": "isInitialized",
      "outputs": [
        {
          "internalType": "bool",
          "name": "",
          "type": "bool"
        }
      ],
      "stateMutability": "view",
      "type": "function"
    },
    {
      "inputs": [],
      "name": "issueYOU",
      "outputs": [
        {
          "internalType": "uint256",
          "name": "",
          "type": "uint256"
        }
      ],
      "stateMutability": "nonpayable",
      "type": "function"
    },
    {
      "inputs": [
        {
          "internalType": "address",
          "name": "",
          "type": "address"
        }
      ],
      "name": "lastUpdateTime",
      "outputs": [
        {
          "internalType": "uint256",
          "name": "",
          "type": "uint256"
        }
      ],
      "stateMutability": "view",
      "type": "function"
    },
    {
      "inputs": [
        {
          "internalType": "uint256",
          "name": "_amount",
          "type": "uint256"
        }
      ],
      "name": "obtainYOU",
      "outputs": [],
      "stateMutability": "nonpayable",
      "type": "function"
    },
    {
      "inputs": [],
      "name": "owner",
      "outputs": [
        {
          "internalType": "address",
          "name": "",
          "type": "address"
        }
      ],
      "stateMutability": "view",
      "type": "function"
    },
    {
      "inputs": [
        {
          "internalType": "address",
          "name": "_pool",
          "type": "address"
        },
        {
          "internalType": "uint256",
          "name": "_fundToRemove",
          "type": "uint256"
        }
      ],
      "name": "removeFundFromStabilityPool",
      "outputs": [],
      "stateMutability": "nonpayable",
      "type": "function"
    },
    {
      "inputs": [],
      "name": "renounceOwnership",
      "outputs": [],
      "stateMutability": "nonpayable",
      "type": "function"
    },
    {
      "inputs": [
        {
          "internalType": "address",
          "name": "_account",
          "type": "address"
        },
        {
          "internalType": "uint256",
          "name": "_YOUamount",
          "type": "uint256"
        }
      ],
      "name": "sendYOU",
      "outputs": [],
      "stateMutability": "nonpayable",
      "type": "function"
    },
    {
      "inputs": [
        {
          "internalType": "address",
          "name": "_youTokenAddress",
          "type": "address"
        },
        {
          "internalType": "address",
          "name": "_stabilityPoolManagerAddress",
          "type": "address"
        },
        {
          "internalType": "address",
          "name": "_adminContract",
          "type": "address"
        }
      ],
      "name": "setAddresses",
      "outputs": [],
      "stateMutability": "nonpayable",
      "type": "function"
    },
    {
      "inputs": [
        {
          "internalType": "address",
          "name": "_admin",
          "type": "address"
        }
      ],
      "name": "setAdminContract",
      "outputs": [],
      "stateMutability": "nonpayable",
      "type": "function"
    },
    {
      "inputs": [
        {
          "internalType": "address",
          "name": "_stabilityPool",
          "type": "address"
        },
        {
          "internalType": "uint256",
          "name": "_weeklyReward",
          "type": "uint256"
        }
      ],
      "name": "setWeeklyYouDistribution",
      "outputs": [],
      "stateMutability": "nonpayable",
      "type": "function"
    },
    {
      "inputs": [],
      "name": "stabilityPoolManager",
      "outputs": [
        {
          "internalType": "contract IStabilityPoolManager",
          "name": "",
          "type": "address"
        }
      ],
      "stateMutability": "view",
      "type": "function"
    },
    {
      "inputs": [
        {
          "internalType": "address",
          "name": "",
          "type": "address"
        }
      ],
      "name": "totalYOUIssued",
      "outputs": [
        {
          "internalType": "uint256",
          "name": "",
          "type": "uint256"
        }
      ],
      "stateMutability": "view",
      "type": "function"
    },
    {
      "inputs": [
        {
          "internalType": "address",
          "name": "_target",
          "type": "address"
        },
        {
          "internalType": "address",
          "name": "_receiver",
          "type": "address"
        },
        {
          "internalType": "uint256",
          "name": "_quantity",
          "type": "uint256"
        }
      ],
      "name": "transferFundToAnotherStabilityPool",
      "outputs": [],
      "stateMutability": "nonpayable",
      "type": "function"
    },
    {
      "inputs": [
        {
          "internalType": "address",
          "name": "newOwner",
          "type": "address"
        }
      ],
      "name": "transferOwnership",
      "outputs": [],
      "stateMutability": "nonpayable",
      "type": "function"
    },
    {
      "inputs": [
        {
          "internalType": "address",
          "name": "stabilityPool",
          "type": "address"
        }
      ],
      "name": "unprotectedIssueYOU",
      "outputs": [
        {
          "internalType": "uint256",
          "name": "",
          "type": "uint256"
        }
      ],
      "stateMutability": "nonpayable",
      "type": "function"
    },
    {
      "inputs": [
        {
          "internalType": "address",
          "name": "",
          "type": "address"
        }
      ],
      "name": "youDistributionsByPool",
      "outputs": [
        {
          "internalType": "uint256",
          "name": "",
          "type": "uint256"
        }
      ],
      "stateMutability": "view",
      "type": "function"
    },
    {
      "inputs": [],
      "name": "youToken",
      "outputs": [
        {
          "internalType": "contract IERC20Upgradeable",
          "name": "",
          "type": "address"
        }
      ],
      "stateMutability": "view",
      "type": "function"
    }
  ],
  "bytecode": "0x608060405234801561001057600080fd5b50611a56806100206000396000f3fe608060405234801561001057600080fd5b50600436106101495760003560e01c80630cffaabf1461014e57806317766e181461017457806328f7fdcf146101895780632ce9aead146101925780632f2b4e90146101b2578063363bf964146101d2578063392e53cd146101e5578063418c38d914610209578063440cc8d11461021c57806361ec893d1461022f57806363a812f91461023757806367f439f21461024a5780636b11ea201461026a578063715018a61461027d57806373d693911461028557806387a5e4c8146102985780638da5cb5b146102b85780639f4264d1146102c0578063a20baee6146102d3578063a2f126f0146102e2578063a3f4df7e146102ea578063b3e4043514610327578063c05c5e941461033a578063d3b8ccf21461034d578063d58cb25714610360578063e80286b414610380578063f2fde38b14610393575b600080fd5b61016161015c366004611659565b6103a6565b6040519081526020015b60405180910390f35b610187610182366004611674565b6103b7565b005b61016161276081565b6101616101a0366004611659565b60686020526000908152604090205481565b6066546101c5906001600160a01b031681565b60405161016b91906116b0565b6101876101e03660046116c4565b61041d565b606b546101f990600160a01b900460ff1681565b604051901515815260200161016b565b610161610217366004611659565b610662565b61018761022a3660046116fe565b61066d565b610161603c81565b610187610245366004611659565b6106c9565b610161610258366004611659565b60696020526000908152604090205481565b6065546101c5906001600160a01b031681565b610187610706565b6101876102933660046116fe565b61071a565b6101616102a6366004611659565b60676020526000908152604090205481565b6101c56108b9565b6101876102ce3660046116fe565b6108c8565b610161670de0b6b3a764000081565b6101616109dd565b61031a60405180604001604052806011815260200170436f6d6d756e69747949737375616e636560781b81525081565b60405161016b919061174c565b61018761033536600461177f565b610a79565b606b546101c5906001600160a01b031681565b61018761035b3660046116fe565b610be4565b61016161036e366004611659565b606a6020526000908152604090205481565b61018761038e3660046117bb565b610ceb565b6101876103a1366004611659565b610d60565b60006103b182610dd9565b92915050565b6103bf6108b9565b6001600160a01b0316336001600160a01b031614806103e85750606b546001600160a01b031633145b61040d5760405162461bcd60e51b8152600401610404906117d4565b60405180910390fd5b610418838383610eac565b505050565b600054610100900460ff161580801561043d5750600054600160ff909116105b8061045e575061044c30610ffb565b15801561045e575060005460ff166001145b6104c15760405162461bcd60e51b815260206004820152602e60248201527f496e697469616c697a61626c653a20636f6e747261637420697320616c72656160448201526d191e481a5b9a5d1a585b1a5e995960921b6064820152608401610404565b6000805460ff1916600117905580156104e4576000805461ff0019166101001790555b606b54600160a01b900460ff16156105345760405162461bcd60e51b8152602060048201526013602482015272105b1c9958591e481a5b9a5d1a585b1a5e9959606a1b6044820152606401610404565b61053d8461100a565b6105468361100a565b61054f8261100a565b606b805460ff60a01b1916600160a01b17905561056a6110af565b606b80546001600160a01b038085166001600160a01b0319928316179092556065805487841690831617905560668054928616929091169190911790556040517fc0ad54e58fac2603ed793501ec1532822cf23a969a1cf74aedff6af2471fc574906105d79086906116b0565b60405180910390a17f45c53611bc8ba9e11f4f8173bda9e3faf89c395ddb83f9a55230b156828db3158360405161060e91906116b0565b60405180910390a1801561065c576000805461ff0019169055604051600181527f7f26b83ff96e1f2b6a682f133852f6798a09c465da95921460cefb38474024989060200160405180910390a15b50505050565b60006103b1826110de565b6106756108b9565b6001600160a01b0316336001600160a01b0316148061069e5750606b546001600160a01b031633145b6106ba5760405162461bcd60e51b8152600401610404906117d4565b6106c5828233610eac565b5050565b6106d1611270565b6001600160a01b0381166106e457600080fd5b606b80546001600160a01b0319166001600160a01b0392909216919091179055565b61070e611270565b61071860006112cf565b565b606654604051633c5f6d8f60e21b81526001600160a01b039091169063f17db63c9061074a9033906004016116b0565b602060405180830381865afa158015610767573d6000803e3d6000fd5b505050506040513d601f19601f8201168201806040525081019061078b9190611800565b6107a75760405162461bcd60e51b815260040161040490611822565b6065546040516370a0823160e01b81526000916001600160a01b0316906370a08231906107d89030906004016116b0565b602060405180830381865afa1580156107f5573d6000803e3d6000fd5b505050506040513d601f19601f820116820180604052508101906108199190611865565b905060008282101561082b578161082d565b825b90508060000361083d5750505050565b60655460405163a9059cbb60e01b81526001600160a01b039091169063a9059cbb9061086f908790859060040161187e565b6020604051808303816000875af115801561088e573d6000803e3d6000fd5b505050506040513d601f19601f820116820180604052508101906108b29190611800565b5050505050565b6033546001600160a01b031690565b6108d0611270565b6001600160a01b0382166000908152606860205260408120548391036109085760405162461bcd60e51b815260040161040490611897565b6001600160a01b03831660009081526069602052604081205461092b9084611321565b6001600160a01b0385166000908152606760205260409020549091508110156109665760405162461bcd60e51b8152600401610404906118e7565b6001600160a01b0384166000908152606960205260408120805485929061098e90849061195a565b90915550506001600160a01b038416600090815260696020908152604080832054606790925290912054036109c6576109c684611334565b60655461065c906001600160a01b03163385611365565b606654604051633c5f6d8f60e21b81526000916001600160a01b03169063f17db63c90610a0e9033906004016116b0565b602060405180830381865afa158015610a2b573d6000803e3d6000fd5b505050506040513d601f19601f82011682018060405250810190610a4f9190611800565b610a6b5760405162461bcd60e51b815260040161040490611822565b610a74336110de565b905090565b610a81611270565b6001600160a01b038316600090815260686020526040812054849103610ab95760405162461bcd60e51b815260040161040490611897565b6001600160a01b038316600090815260686020526040812054849103610af15760405162461bcd60e51b815260040161040490611897565b6001600160a01b038516600090815260696020526040812054610b149085611321565b6001600160a01b038716600090815260676020526040902054909150811015610b4f5760405162461bcd60e51b8152600401610404906118e7565b6001600160a01b03861660009081526069602052604081208054869290610b7790849061195a565b90915550506001600160a01b03851660009081526069602052604081208054869290610ba490849061196d565b90915550506001600160a01b03861660009081526069602090815260408083205460679092529091205403610bdc57610bdc86611334565b505050505050565b610bec6108b9565b6001600160a01b0316336001600160a01b03161480610c155750606b546001600160a01b031633145b610c315760405162461bcd60e51b8152600401610404906117d4565b606654604051633c5f6d8f60e21b815283916001600160a01b03169063f17db63c90610c619084906004016116b0565b602060405180830381865afa158015610c7e573d6000803e3d6000fd5b505050506040513d601f19601f82011682018060405250810190610ca29190611800565b610cbe5760405162461bcd60e51b815260040161040490611822565b610cca826127606113bb565b6001600160a01b039093166000908152606a60205260409020929092555050565b60655460405163a9059cbb60e01b81526001600160a01b039091169063a9059cbb90610d1d903390859060040161187e565b6020604051808303816000875af1158015610d3c573d6000803e3d6000fd5b505050506040513d601f19601f820116820180604052508101906106c59190611800565b610d68611270565b6001600160a01b038116610dcd5760405162461bcd60e51b815260206004820152602660248201527f4f776e61626c653a206e6577206f776e657220697320746865207a65726f206160448201526564647265737360d01b6064820152608401610404565b610dd6816112cf565b50565b6001600160a01b0381166000908152606860205260408120548103610e4c5760405162461bcd60e51b815260206004820152602360248201527f53746162696c69747920706f6f6c206861736e2774206265656e2061737369676044820152621b995960ea1b6064820152608401610404565b6001600160a01b038216600090815260686020526040812054610e7d90603c90610e77904290611321565b906113bb565b6001600160a01b0384166000908152606a602052604081205491925090610ea490836113c7565b949350505050565b606654604051633c5f6d8f60e21b81526001600160a01b039091169063f17db63c90610edc9086906004016116b0565b602060405180830381865afa158015610ef9573d6000803e3d6000fd5b505050506040513d601f19601f82011682018060405250810190610f1d9190611800565b610f7b5760405162461bcd60e51b815260206004820152602960248201527f436f6d6d756e69747949737375616e63653a20496e76616c69642053746162696044820152681b1a5d1e48141bdbdb60ba1b6064820152608401610404565b6001600160a01b0383166000908152606860205260408120549003610fb6576001600160a01b03831660009081526068602052604090204290555b6001600160a01b03831660009081526069602052604081208054849290610fde90849061196d565b9091555050606554610418906001600160a01b03168230856113d3565b6001600160a01b03163b151590565b6001600160a01b0381166110605760405162461bcd60e51b815260206004820152601e60248201527f4163636f756e742063616e6e6f74206265207a65726f206164647265737300006044820152606401610404565b803b806106c55760405162461bcd60e51b815260206004820181905260248201527f4163636f756e7420636f64652073697a652063616e6e6f74206265207a65726f6044820152606401610404565b600054610100900460ff166110d65760405162461bcd60e51b815260040161040490611980565b61071861140b565b606654604051633c5f6d8f60e21b815260009183916001600160a01b039091169063f17db63c906111139084906004016116b0565b602060405180830381865afa158015611130573d6000803e3d6000fd5b505050506040513d601f19601f820116820180604052508101906111549190611800565b6111705760405162461bcd60e51b815260040161040490611822565b6001600160a01b03831660009081526069602090815260408083205460679092529091205481116111a557600092505061126a565b60006111b085610dd9565b6001600160a01b038616600090815260676020526040812054919250906111d890839061143b565b90508281111561120c576001600160a01b038616600090815260676020526040902054611206908490611321565b91508290505b6001600160a01b0386166000818152606860209081526040808320429055606782529182902084905590518381527fa5a53002f1de20fe5b5dbaddbbaf8ef13eea09aaeb95f5236a58f0fef11d6bf0910160405180910390a2509250505b50919050565b336112796108b9565b6001600160a01b0316146107185760405162461bcd60e51b815260206004820181905260248201527f4f776e61626c653a2063616c6c6572206973206e6f7420746865206f776e65726044820152606401610404565b603380546001600160a01b038381166001600160a01b0319831681179093556040519116919082907f8be0079c531659141344cd1fd0a4f28419497f9722a3daafe3b4186f6b6457e090600090a35050565b600061132d828461195a565b9392505050565b6001600160a01b03166000908152606860209081526040808320839055606982528083208390556067909152812055565b6104188363a9059cbb60e01b848460405160240161138492919061187e565b60408051601f198184030181529190526020810180516001600160e01b03166001600160e01b031990931692909217909152611447565b600061132d82846119cb565b600061132d82846119ed565b6040516001600160a01b038085166024830152831660448201526064810182905261065c9085906323b872dd60e01b90608401611384565b600054610100900460ff166114325760405162461bcd60e51b815260040161040490611980565b610718336112cf565b600061132d828461196d565b600061149c826040518060400160405280602081526020017f5361666545524332303a206c6f772d6c6576656c2063616c6c206661696c6564815250856001600160a01b031661151c9092919063ffffffff16565b90508051600014806114bd5750808060200190518101906114bd9190611800565b6104185760405162461bcd60e51b815260206004820152602a60248201527f5361666545524332303a204552433230206f7065726174696f6e20646964206e6044820152691bdd081cdd58d8d9595960b21b6064820152608401610404565b6060610ea4848460008585600080866001600160a01b031685876040516115439190611a04565b60006040518083038185875af1925050503d8060008114611580576040519150601f19603f3d011682016040523d82523d6000602084013e611585565b606091505b5091509150611596878383876115a1565b979650505050505050565b6060831561160e578251600003611607576115bb85610ffb565b6116075760405162461bcd60e51b815260206004820152601d60248201527f416464726573733a2063616c6c20746f206e6f6e2d636f6e74726163740000006044820152606401610404565b5081610ea4565b610ea483838151156116235781518083602001fd5b8060405162461bcd60e51b8152600401610404919061174c565b80356001600160a01b038116811461165457600080fd5b919050565b60006020828403121561166b57600080fd5b61132d8261163d565b60008060006060848603121561168957600080fd5b6116928461163d565b9250602084013591506116a76040850161163d565b90509250925092565b6001600160a01b0391909116815260200190565b6000806000606084860312156116d957600080fd5b6116e28461163d565b92506116f06020850161163d565b91506116a76040850161163d565b6000806040838503121561171157600080fd5b61171a8361163d565b946020939093013593505050565b60005b8381101561174357818101518382015260200161172b565b50506000910152565b602081526000825180602084015261176b816040850160208701611728565b601f01601f19169190910160400192915050565b60008060006060848603121561179457600080fd5b61179d8461163d565b92506117ab6020850161163d565b9150604084013590509250925092565b6000602082840312156117cd57600080fd5b5035919050565b60208082526012908201527124b73b30b634b2102832b936b4b9b9b4b7b760711b604082015260600190565b60006020828403121561181257600080fd5b8151801515811461132d57600080fd5b60208082526023908201527f436f6d6d756e69747949737375616e63653a2063616c6c6572206973206e6f7460408201526202053560ec1b606082015260800190565b60006020828403121561187757600080fd5b5051919050565b6001600160a01b03929092168252602082015260400190565b60208082526030908201527f436f6d6d756e69747949737375616e63653a20506f6f6c206e6565647320746f60408201526f1031329030b23232b2103334b939ba1760811b606082015260800190565b6020808252603d908201527f436f6d6d756e69747949737375616e63653a2053746162696c69747920506f6f60408201527f6c20646f65736e2774206861766520656e6f75676820737570706c792e000000606082015260800190565b634e487b7160e01b600052601160045260246000fd5b818103818111156103b1576103b1611944565b808201808211156103b1576103b1611944565b6020808252602b908201527f496e697469616c697a61626c653a20636f6e7472616374206973206e6f74206960408201526a6e697469616c697a696e6760a81b606082015260800190565b6000826119e857634e487b7160e01b600052601260045260246000fd5b500490565b80820281158282048414176103b1576103b1611944565b60008251611a16818460208701611728565b919091019291505056fea26469706673582212203e9a55ebef2744f65201b4c485e22f8c6ee6aede982093b1c5d1f144f975559864736f6c63430008110033",
  "linkReferences": {},
  "deployedLinkReferences": {}
}