{
  "_format": "hh-sol-artifact-1",
  "contractName": "DefaultPoolTester",
  "sourceName": "contracts/TestContracts/DefaultPoolTester.sol",
  "abi": [
    {
      "inputs": [],
      "name": "IsNotWstETH",
      "type": "error"
    },
    {
      "anonymous": false,
      "inputs": [
        {
          "indexed": false,
          "internalType": "address",
          "name": "_newActivePoolAddress",
          "type": "address"
        }
      ],
      "name": "ActivePoolAddressChanged",
      "type": "event"
    },
    {
      "anonymous": false,
      "inputs": [
        {
          "indexed": false,
          "internalType": "address",
          "name": "_assetAddress",
          "type": "address"
        }
      ],
      "name": "AssetAddressChanged",
      "type": "event"
    },
    {
      "anonymous": false,
      "inputs": [
        {
          "indexed": false,
          "internalType": "uint256",
          "name": "_newBalance",
          "type": "uint256"
        }
      ],
      "name": "AssetBalanceUpdated",
      "type": "event"
    },
    {
      "anonymous": false,
      "inputs": [
        {
          "indexed": false,
          "internalType": "address",
          "name": "_to",
          "type": "address"
        },
        {
          "indexed": true,
          "internalType": "address",
          "name": "_asset",
          "type": "address"
        },
        {
          "indexed": false,
          "internalType": "uint256",
          "name": "_amount",
          "type": "uint256"
        }
      ],
      "name": "AssetSent",
      "type": "event"
    },
    {
      "anonymous": false,
      "inputs": [
        {
          "indexed": false,
          "internalType": "address",
          "name": "_newDefaultPoolAddress",
          "type": "address"
        }
      ],
      "name": "DefaultPoolAddressChanged",
      "type": "event"
    },
    {
      "anonymous": false,
      "inputs": [
        {
          "indexed": false,
          "internalType": "address",
          "name": "_asset",
          "type": "address"
        },
        {
          "indexed": false,
          "internalType": "uint256",
          "name": "_balance",
          "type": "uint256"
        }
      ],
      "name": "DefaultPoolAssetBalanceUpdated",
      "type": "event"
    },
    {
      "anonymous": false,
      "inputs": [
        {
          "indexed": false,
          "internalType": "address",
          "name": "_asset",
          "type": "address"
        },
        {
          "indexed": false,
          "internalType": "uint256",
          "name": "_UDebt",
          "type": "uint256"
        }
      ],
      "name": "DefaultPoolUDebtUpdated",
      "type": "event"
    },
    {
      "anonymous": false,
      "inputs": [
        {
          "indexed": false,
          "internalType": "uint8",
          "name": "version",
          "type": "uint8"
        }
      ],
      "name": "Initialized",
      "type": "event"
    },
    {
      "anonymous": false,
      "inputs": [
        {
          "indexed": true,
          "internalType": "address",
          "name": "previousOwner",
          "type": "address"
        },
        {
          "indexed": true,
          "internalType": "address",
          "name": "newOwner",
          "type": "address"
        }
      ],
      "name": "OwnershipTransferred",
      "type": "event"
    },
    {
      "anonymous": false,
      "inputs": [
        {
          "indexed": false,
          "internalType": "address",
          "name": "_newStabilityPoolAddress",
          "type": "address"
        }
      ],
      "name": "StabilityPoolAddressChanged",
      "type": "event"
    },
    {
      "anonymous": false,
      "inputs": [
        {
          "indexed": false,
          "internalType": "address",
          "name": "_newTroveManagerAddress",
          "type": "address"
        }
      ],
      "name": "TroveManagerAddressChanged",
      "type": "event"
    },
    {
      "anonymous": false,
      "inputs": [
        {
          "indexed": false,
          "internalType": "uint256",
          "name": "_newBalance",
          "type": "uint256"
        }
      ],
      "name": "UBalanceUpdated",
      "type": "event"
    },
    {
      "inputs": [],
      "name": "NAME",
      "outputs": [
        {
          "internalType": "string",
          "name": "",
          "type": "string"
        }
      ],
      "stateMutability": "view",
      "type": "function"
    },
    {
      "inputs": [],
      "name": "activePoolAddress",
      "outputs": [
        {
          "internalType": "address",
          "name": "",
          "type": "address"
        }
      ],
      "stateMutability": "view",
      "type": "function"
    },
    {
      "inputs": [
        {
          "internalType": "address",
          "name": "_asset",
          "type": "address"
        },
        {
          "internalType": "uint256",
          "name": "_amount",
          "type": "uint256"
        }
      ],
      "name": "decreaseUDebt",
      "outputs": [],
      "stateMutability": "nonpayable",
      "type": "function"
    },
    {
      "inputs": [
        {
          "internalType": "address",
          "name": "_asset",
          "type": "address"
        }
      ],
      "name": "getAssetBalance",
      "outputs": [
        {
          "internalType": "uint256",
          "name": "",
          "type": "uint256"
        }
      ],
      "stateMutability": "view",
      "type": "function"
    },
    {
      "inputs": [
        {
          "internalType": "address",
          "name": "_asset",
          "type": "address"
        }
      ],
      "name": "getUDebt",
      "outputs": [
        {
          "internalType": "uint256",
          "name": "",
          "type": "uint256"
        }
      ],
      "stateMutability": "view",
      "type": "function"
    },
    {
      "inputs": [
        {
          "internalType": "address",
          "name": "_asset",
          "type": "address"
        },
        {
          "internalType": "uint256",
          "name": "_amount",
          "type": "uint256"
        }
      ],
      "name": "increaseUDebt",
      "outputs": [],
      "stateMutability": "nonpayable",
      "type": "function"
    },
    {
      "inputs": [],
      "name": "isInitialized",
      "outputs": [
        {
          "internalType": "bool",
          "name": "",
          "type": "bool"
        }
      ],
      "stateMutability": "view",
      "type": "function"
    },
    {
      "inputs": [],
      "name": "owner",
      "outputs": [
        {
          "internalType": "address",
          "name": "",
          "type": "address"
        }
      ],
      "stateMutability": "view",
      "type": "function"
    },
    {
      "inputs": [
        {
          "internalType": "address",
          "name": "_asset",
          "type": "address"
        },
        {
          "internalType": "uint256",
          "name": "_amount",
          "type": "uint256"
        }
      ],
      "name": "receivedERC20",
      "outputs": [],
      "stateMutability": "nonpayable",
      "type": "function"
    },
    {
      "inputs": [],
      "name": "redemptionManagerAddress",
      "outputs": [
        {
          "internalType": "address",
          "name": "",
          "type": "address"
        }
      ],
      "stateMutability": "view",
      "type": "function"
    },
    {
      "inputs": [],
      "name": "renounceOwnership",
      "outputs": [],
      "stateMutability": "nonpayable",
      "type": "function"
    },
    {
      "inputs": [
        {
          "internalType": "address",
          "name": "_asset",
          "type": "address"
        },
        {
          "internalType": "uint256",
          "name": "_amount",
          "type": "uint256"
        }
      ],
      "name": "sendAssetToActivePool",
      "outputs": [],
      "stateMutability": "nonpayable",
      "type": "function"
    },
    {
      "inputs": [
        {
          "internalType": "address",
          "name": "_troveManagerAddress",
          "type": "address"
        },
        {
          "internalType": "address",
          "name": "_redemptionManagerAddress",
          "type": "address"
        },
        {
          "internalType": "address",
          "name": "_activePoolAddress",
          "type": "address"
        },
        {
          "internalType": "address",
          "name": "_wstETHAddress",
          "type": "address"
        }
      ],
      "name": "setAddresses",
      "outputs": [],
      "stateMutability": "nonpayable",
      "type": "function"
    },
    {
      "inputs": [
        {
          "internalType": "address",
          "name": "newOwner",
          "type": "address"
        }
      ],
      "name": "transferOwnership",
      "outputs": [],
      "stateMutability": "nonpayable",
      "type": "function"
    },
    {
      "inputs": [],
      "name": "troveManagerAddress",
      "outputs": [
        {
          "internalType": "address",
          "name": "",
          "type": "address"
        }
      ],
      "stateMutability": "view",
      "type": "function"
    },
    {
      "inputs": [
        {
          "internalType": "address",
          "name": "_asset",
          "type": "address"
        },
        {
          "internalType": "uint256",
          "name": "_amount",
          "type": "uint256"
        }
      ],
      "name": "unprotectedIncreaseUDebt",
      "outputs": [],
      "stateMutability": "nonpayable",
      "type": "function"
    },
    {
      "inputs": [
        {
          "internalType": "address",
          "name": "_asset",
          "type": "address"
        },
        {
          "internalType": "uint256",
          "name": "amount",
          "type": "uint256"
        }
      ],
      "name": "unprotectedPayable",
      "outputs": [],
      "stateMutability": "payable",
      "type": "function"
    },
    {
      "inputs": [],
      "name": "wstETH",
      "outputs": [
        {
          "internalType": "address",
          "name": "",
          "type": "address"
        }
      ],
      "stateMutability": "view",
      "type": "function"
    },
    {
      "stateMutability": "payable",
      "type": "receive"
    }
  ],
  "bytecode": "0x608060405234801561001057600080fd5b50611737806100206000396000f3fe6080604052600436106100dd5760003560e01c80631197fc711461018057806329fc67c8146101a2578063392e53cd146101c25780633c7e6c89146101f85780634a945f8d146102185780634aa07e64146102385780635373433f1461026557806357f6d7e0146102935780635a4d28bb146102b3578063631a53d4146102d3578063653a8dd1146102f3578063715018a6146103135780638da5cb5b14610328578063a3f4df7e1461033d578063b08bc72214610381578063c47e417d146103a1578063eb16f004146103b4578063f2fde38b146103d457600080fd5b3661017b576068546001600160a01b031633146101155760405162461bcd60e51b815260040161010c906112bb565b60405180910390fd5b6000805260696020526000805160206116e28339815191525461013890346103f4565b600080805260696020526000805160206116e28339815191528290556040516000805160206116c2833981519152926101719291611304565b60405180910390a1005b600080fd5b34801561018c57600080fd5b506101a061019b366004611339565b610409565b005b3480156101ae57600080fd5b506101a06101bd366004611339565b6104f4565b3480156101ce57600080fd5b506068546101e390600160a01b900460ff1681565b60405190151581526020015b60405180910390f35b34801561020457600080fd5b506101a0610213366004611339565b61077a565b34801561022457600080fd5b506101a0610233366004611363565b61080c565b34801561024457600080fd5b50606554610258906001600160a01b031681565b6040516101ef91906113b7565b34801561027157600080fd5b506102856102803660046113cb565b610a70565b6040519081526020016101ef565b34801561029f57600080fd5b506101a06102ae366004611339565b610ac0565b3480156102bf57600080fd5b50606654610258906001600160a01b031681565b3480156102df57600080fd5b506102856102ee3660046113cb565b610b03565b3480156102ff57600080fd5b50606754610258906001600160a01b031681565b34801561031f57600080fd5b506101a0610b53565b34801561033457600080fd5b50610258610b67565b34801561034957600080fd5b506103746040518060400160405280600b81526020016a111959985d5b1d141bdbdb60aa1b81525081565b6040516101ef919061140a565b34801561038d57600080fd5b50606854610258906001600160a01b031681565b6101a06103af366004611339565b610b76565b3480156103c057600080fd5b506101a06103cf366004611339565b610bd3565b3480156103e057600080fd5b506101a06103ef3660046113cb565b610ce0565b60006104008284611453565b90505b92915050565b60655482906001600160a01b0380831691161461043957604051631a40f2bd60e31b815260040160405180910390fd5b6066546001600160a01b031633148061045c57506067546001600160a01b031633145b6104785760405162461bcd60e51b815260040161010c90611466565b6001600160a01b0383166000908152606a602052604090205461049b9083610d59565b6001600160a01b0384166000908152606a602052604090819020829055517ff275e23f7386fba020870b680840a75ee98eaedfcdf134442109aa8313094c5b916104e791869190611304565b60405180910390a1505050565b60655482906001600160a01b0380831691161461052457604051631a40f2bd60e31b815260040160405180910390fd5b6066546001600160a01b031633148061054757506067546001600160a01b031633145b6105635760405162461bcd60e51b815260040161010c90611466565b6068546001600160a01b0316600061057b8585610d65565b90508060000361058c575050505050565b6001600160a01b0385166000908152606960205260409020546105af9085610d59565b6001600160a01b03861660008181526069602052604090209190915515610649576105e46001600160a01b0386168383610e2e565b604051633ac5bc0160e21b81526001600160a01b0383169063eb16f004906106129088908890600401611304565b600060405180830381600087803b15801561062c57600080fd5b505af1158015610640573d6000803e3d6000fd5b505050506106ee565b6000826001600160a01b03168560405160006040518083038185875af1925050503d8060008114610696576040519150601f19603f3d011682016040523d82523d6000602084013e61069b565b606091505b50509050806106ec5760405162461bcd60e51b815260206004820152601f60248201527f44656661756c74506f6f6c3a2073656e64696e6720455448206661696c656400604482015260640161010c565b505b6001600160a01b038516600090815260696020526040908190205490516000805160206116c28339815191529161072791889190611304565b60405180910390a1846001600160a01b03167ff89c3306c782ffbbe4593aa5673e97e9ad6a8c65d240405e8986363fada66392838360405161076a929190611304565b60405180910390a250505b505050565b60655482906001600160a01b038083169116146107aa57604051631a40f2bd60e31b815260040160405180910390fd5b6066546001600160a01b03163314806107cd57506067546001600160a01b031633145b6107e95760405162461bcd60e51b815260040161010c90611466565b6001600160a01b0383166000908152606a602052604090205461049b90836103f4565b600054610100900460ff161580801561082c5750600054600160ff909116105b8061084d575061083b30610e84565b15801561084d575060005460ff166001145b6108b05760405162461bcd60e51b815260206004820152602e60248201527f496e697469616c697a61626c653a20636f6e747261637420697320616c72656160448201526d191e481a5b9a5d1a585b1a5e995960921b606482015260840161010c565b6000805460ff1916600117905580156108d3576000805461ff0019166101001790555b606854600160a01b900460ff16156109235760405162461bcd60e51b8152602060048201526013602482015272105b1c9958591e481a5b9a5d1a585b1a5e9959606a1b604482015260640161010c565b61092c85610e93565b61093583610e93565b61093e84610e93565b61094782610e93565b6068805460ff60a01b1916600160a01b179055610962610f3c565b606680546001600160a01b038088166001600160a01b031992831617909255606780548784169083161790556068805486841690831617905560658054928516929091169190911790556040517f143219c9e69b09e07e095fcc889b43d8f46ca892bba65f08dc3a0050869a5678906109dc9087906113b7565b60405180910390a17f78f058b189175430c48dc02699e3a0031ea4ff781536dc2fab847de4babdd88283604051610a1391906113b7565b60405180910390a1610a23610b53565b8015610a69576000805461ff0019169055604051600181527f7f26b83ff96e1f2b6a682f133852f6798a09c465da95921460cefb38474024989060200160405180910390a15b5050505050565b60655460009082906001600160a01b03808316911614610aa357604051631a40f2bd60e31b815260040160405180910390fd5b50506001600160a01b031660009081526069602052604090205490565b6001600160a01b0382166000908152606a6020526040902054610ae390826103f4565b6001600160a01b039092166000908152606a602052604090209190915550565b60655460009082906001600160a01b03808316911614610b3657604051631a40f2bd60e31b815260040160405180910390fd5b50506001600160a01b03166000908152606a602052604090205490565b610b5b610f6b565b610b656000610fca565b565b6033546001600160a01b031690565b6001600160a01b03821615610b8b5780610b8d565b345b6001600160a01b038316600090815260696020526040902054909150610bb390346103f4565b6001600160a01b0390921660009081526069602052604090209190915550565b60655482906001600160a01b03808316911614610c0357604051631a40f2bd60e31b815260040160405180910390fd5b6068546001600160a01b03163314610c2d5760405162461bcd60e51b815260040161010c906112bb565b6001600160a01b038316610c835760405162461bcd60e51b815260206004820152601d60248201527f4554482043616e6e6f742075736520746869732066756e6374696f6e73000000604482015260640161010c565b6001600160a01b038316600090815260696020526040902054610ca690836103f4565b6001600160a01b03841660009081526069602052604090819020829055516000805160206116c2833981519152916104e791869190611304565b610ce8610f6b565b6001600160a01b038116610d4d5760405162461bcd60e51b815260206004820152602660248201527f4f776e61626c653a206e6577206f776e657220697320746865207a65726f206160448201526564647265737360d01b606482015260840161010c565b610d5681610fca565b50565b600061040082846114cd565b60006001600160a01b038316610d7c575080610403565b81600003610d8c57506000610403565b6000836001600160a01b031663313ce5676040518163ffffffff1660e01b8152600401602060405180830381865afa158015610dcc573d6000803e3d6000fd5b505050506040513d601f19601f82011682018060405250810190610df091906114e0565b905060128160ff161015610e2657610e1e610e0c82601261150a565b610e1790600a611607565b849061101c565b915050610403565b509092915050565b6107758363a9059cbb60e01b8484604051602401610e4d929190611304565b60408051601f198184030181529190526020810180516001600160e01b03166001600160e01b031990931692909217909152611028565b6001600160a01b03163b151590565b6001600160a01b038116610ee95760405162461bcd60e51b815260206004820152601e60248201527f4163636f756e742063616e6e6f74206265207a65726f20616464726573730000604482015260640161010c565b803b80610f385760405162461bcd60e51b815260206004820181905260248201527f4163636f756e7420636f64652073697a652063616e6e6f74206265207a65726f604482015260640161010c565b5050565b600054610100900460ff16610f635760405162461bcd60e51b815260040161010c90611616565b610b656110fd565b33610f74610b67565b6001600160a01b031614610b655760405162461bcd60e51b815260206004820181905260248201527f4f776e61626c653a2063616c6c6572206973206e6f7420746865206f776e6572604482015260640161010c565b603380546001600160a01b038381166001600160a01b0319831681179093556040519116919082907f8be0079c531659141344cd1fd0a4f28419497f9722a3daafe3b4186f6b6457e090600090a35050565b60006104008284611661565b600061107d826040518060400160405280602081526020017f5361666545524332303a206c6f772d6c6576656c2063616c6c206661696c6564815250856001600160a01b031661112d9092919063ffffffff16565b905080516000148061109e57508080602001905181019061109e9190611683565b6107755760405162461bcd60e51b815260206004820152602a60248201527f5361666545524332303a204552433230206f7065726174696f6e20646964206e6044820152691bdd081cdd58d8d9595960b21b606482015260840161010c565b600054610100900460ff166111245760405162461bcd60e51b815260040161010c90611616565b610b6533610fca565b606061113c8484600085611144565b949350505050565b6060824710156111a55760405162461bcd60e51b815260206004820152602660248201527f416464726573733a20696e73756666696369656e742062616c616e636520666f6044820152651c8818d85b1b60d21b606482015260840161010c565b600080866001600160a01b031685876040516111c191906116a5565b60006040518083038185875af1925050503d80600081146111fe576040519150601f19603f3d011682016040523d82523d6000602084013e611203565b606091505b50915091506112148783838761121f565b979650505050505050565b6060831561128c5782516000036112855761123985610e84565b6112855760405162461bcd60e51b815260206004820152601d60248201527f416464726573733a2063616c6c20746f206e6f6e2d636f6e7472616374000000604482015260640161010c565b508161113c565b61113c83838151156112a15781518083602001fd5b8060405162461bcd60e51b815260040161010c919061140a565b60208082526029908201527f44656661756c74506f6f6c3a2043616c6c6572206973206e6f7420746865204160408201526818dd1a5d99541bdbdb60ba1b606082015260800190565b6001600160a01b03929092168252602082015260400190565b80356001600160a01b038116811461133457600080fd5b919050565b6000806040838503121561134c57600080fd5b6113558361131d565b946020939093013593505050565b6000806000806080858703121561137957600080fd5b6113828561131d565b93506113906020860161131d565b925061139e6040860161131d565b91506113ac6060860161131d565b905092959194509250565b6001600160a01b0391909116815260200190565b6000602082840312156113dd57600080fd5b6104008261131d565b60005b838110156114015781810151838201526020016113e9565b50506000910152565b60208152600082518060208401526114298160408501602087016113e6565b601f01601f19169190910160400192915050565b634e487b7160e01b600052601160045260246000fd5b808201808211156104035761040361143d565b60208082526041908201527f44656661756c74506f6f6c3a2043616c6c6572206973206e6f7420746865205460408201527f726f76654d616e61676572206e6f7220526564656d7074696f6e4d616e6167656060820152603960f91b608082015260a00190565b818103818111156104035761040361143d565b6000602082840312156114f257600080fd5b815160ff8116811461150357600080fd5b9392505050565b60ff82811682821603908111156104035761040361143d565b600181815b8085111561155e5781600019048211156115445761154461143d565b8085161561155157918102915b93841c9390800290611528565b509250929050565b60008261157557506001610403565b8161158257506000610403565b816001811461159857600281146115a2576115be565b6001915050610403565b60ff8411156115b3576115b361143d565b50506001821b610403565b5060208310610133831016604e8410600b84101617156115e1575081810a610403565b6115eb8383611523565b80600019048211156115ff576115ff61143d565b029392505050565b600061040060ff841683611566565b6020808252602b908201527f496e697469616c697a61626c653a20636f6e7472616374206973206e6f74206960408201526a6e697469616c697a696e6760a81b606082015260800190565b60008261167e57634e487b7160e01b600052601260045260246000fd5b500490565b60006020828403121561169557600080fd5b8151801515811461150357600080fd5b600082516116b78184602087016113e6565b919091019291505056fe4d42ce079a4e464782330acbd88d008e74e55501cf9d29de797fa46bac59bc615843af22e99e7c98370145a5056245c244ce8ee852f4ef5e6d6a8e410a18cf41a264697066735822122079b86d21bf7e78f4176a13cf9e0accb23f70aba923969a06fadf995f59e9382564736f6c63430008110033",
  "linkReferences": {},
  "deployedLinkReferences": {}
}