{
  "_format": "hh-sol-artifact-1",
  "contractName": "CollSurplusPool",
  "sourceName": "contracts/CollSurplusPool.sol",
  "abi": [
    {
      "inputs": [],
      "name": "IsNotWstETH",
      "type": "error"
    },
    {
      "anonymous": false,
      "inputs": [
        {
          "indexed": false,
          "internalType": "address",
          "name": "_newActivePoolAddress",
          "type": "address"
        }
      ],
      "name": "ActivePoolAddressChanged",
      "type": "event"
    },
    {
      "anonymous": false,
      "inputs": [
        {
          "indexed": false,
          "internalType": "address",
          "name": "_to",
          "type": "address"
        },
        {
          "indexed": false,
          "internalType": "uint256",
          "name": "_amount",
          "type": "uint256"
        }
      ],
      "name": "AssetSent",
      "type": "event"
    },
    {
      "anonymous": false,
      "inputs": [
        {
          "indexed": false,
          "internalType": "address",
          "name": "_newBorrowerOperationsAddress",
          "type": "address"
        }
      ],
      "name": "BorrowerOperationsAddressChanged",
      "type": "event"
    },
    {
      "anonymous": false,
      "inputs": [
        {
          "indexed": true,
          "internalType": "address",
          "name": "_account",
          "type": "address"
        },
        {
          "indexed": false,
          "internalType": "uint256",
          "name": "_newBalance",
          "type": "uint256"
        }
      ],
      "name": "CollBalanceUpdated",
      "type": "event"
    },
    {
      "anonymous": false,
      "inputs": [
        {
          "indexed": false,
          "internalType": "uint8",
          "name": "version",
          "type": "uint8"
        }
      ],
      "name": "Initialized",
      "type": "event"
    },
    {
      "anonymous": false,
      "inputs": [
        {
          "indexed": true,
          "internalType": "address",
          "name": "previousOwner",
          "type": "address"
        },
        {
          "indexed": true,
          "internalType": "address",
          "name": "newOwner",
          "type": "address"
        }
      ],
      "name": "OwnershipTransferred",
      "type": "event"
    },
    {
      "anonymous": false,
      "inputs": [
        {
          "indexed": false,
          "internalType": "address",
          "name": "_newTroveManagerAddress",
          "type": "address"
        }
      ],
      "name": "TroveManagerAddressChanged",
      "type": "event"
    },
    {
      "inputs": [],
      "name": "NAME",
      "outputs": [
        {
          "internalType": "string",
          "name": "",
          "type": "string"
        }
      ],
      "stateMutability": "view",
      "type": "function"
    },
    {
      "inputs": [
        {
          "internalType": "address",
          "name": "_asset",
          "type": "address"
        },
        {
          "internalType": "address",
          "name": "_account",
          "type": "address"
        },
        {
          "internalType": "uint256",
          "name": "_amount",
          "type": "uint256"
        }
      ],
      "name": "accountSurplus",
      "outputs": [],
      "stateMutability": "nonpayable",
      "type": "function"
    },
    {
      "inputs": [],
      "name": "activePoolAddress",
      "outputs": [
        {
          "internalType": "address",
          "name": "",
          "type": "address"
        }
      ],
      "stateMutability": "view",
      "type": "function"
    },
    {
      "inputs": [],
      "name": "borrowerOperationsAddress",
      "outputs": [
        {
          "internalType": "address",
          "name": "",
          "type": "address"
        }
      ],
      "stateMutability": "view",
      "type": "function"
    },
    {
      "inputs": [
        {
          "internalType": "address",
          "name": "_asset",
          "type": "address"
        },
        {
          "internalType": "address",
          "name": "_account",
          "type": "address"
        }
      ],
      "name": "claimColl",
      "outputs": [],
      "stateMutability": "nonpayable",
      "type": "function"
    },
    {
      "inputs": [
        {
          "internalType": "address",
          "name": "_asset",
          "type": "address"
        }
      ],
      "name": "getAssetBalance",
      "outputs": [
        {
          "internalType": "uint256",
          "name": "",
          "type": "uint256"
        }
      ],
      "stateMutability": "view",
      "type": "function"
    },
    {
      "inputs": [
        {
          "internalType": "address",
          "name": "_asset",
          "type": "address"
        },
        {
          "internalType": "address",
          "name": "_account",
          "type": "address"
        }
      ],
      "name": "getCollateral",
      "outputs": [
        {
          "internalType": "uint256",
          "name": "",
          "type": "uint256"
        }
      ],
      "stateMutability": "view",
      "type": "function"
    },
    {
      "inputs": [],
      "name": "isInitialized",
      "outputs": [
        {
          "internalType": "bool",
          "name": "",
          "type": "bool"
        }
      ],
      "stateMutability": "view",
      "type": "function"
    },
    {
      "inputs": [],
      "name": "owner",
      "outputs": [
        {
          "internalType": "address",
          "name": "",
          "type": "address"
        }
      ],
      "stateMutability": "view",
      "type": "function"
    },
    {
      "inputs": [
        {
          "internalType": "address",
          "name": "_asset",
          "type": "address"
        },
        {
          "internalType": "uint256",
          "name": "_amount",
          "type": "uint256"
        }
      ],
      "name": "receivedERC20",
      "outputs": [],
      "stateMutability": "nonpayable",
      "type": "function"
    },
    {
      "inputs": [],
      "name": "redemptionManagerAddress",
      "outputs": [
        {
          "internalType": "address",
          "name": "",
          "type": "address"
        }
      ],
      "stateMutability": "view",
      "type": "function"
    },
    {
      "inputs": [],
      "name": "renounceOwnership",
      "outputs": [],
      "stateMutability": "nonpayable",
      "type": "function"
    },
    {
      "inputs": [
        {
          "internalType": "address",
          "name": "_borrowerOperationsAddress",
          "type": "address"
        },
        {
          "internalType": "address",
          "name": "_troveManagerAddress",
          "type": "address"
        },
        {
          "internalType": "address",
          "name": "_redemptionManagerAddress",
          "type": "address"
        },
        {
          "internalType": "address",
          "name": "_activePoolAddress",
          "type": "address"
        },
        {
          "internalType": "address",
          "name": "_wstETHAddress",
          "type": "address"
        }
      ],
      "name": "setAddresses",
      "outputs": [],
      "stateMutability": "nonpayable",
      "type": "function"
    },
    {
      "inputs": [
        {
          "internalType": "address",
          "name": "newOwner",
          "type": "address"
        }
      ],
      "name": "transferOwnership",
      "outputs": [],
      "stateMutability": "nonpayable",
      "type": "function"
    },
    {
      "inputs": [],
      "name": "troveManagerAddress",
      "outputs": [
        {
          "internalType": "address",
          "name": "",
          "type": "address"
        }
      ],
      "stateMutability": "view",
      "type": "function"
    },
    {
      "inputs": [],
      "name": "wstETH",
      "outputs": [
        {
          "internalType": "address",
          "name": "",
          "type": "address"
        }
      ],
      "stateMutability": "view",
      "type": "function"
    },
    {
      "stateMutability": "payable",
      "type": "receive"
    }
  ],
  "bytecode": "0x608060405234801561001057600080fd5b5061165c806100206000396000f3fe6080604052600436106100c75760003560e01c8063392e53cd146101195780634aa07e641461014f57806352226ef01461017c5780635373433f146101aa5780635a4d28bb146101ca5780635dd68acd146101ea578063653a8dd11461020c578063715018a61461022c5780638da5cb5b14610241578063a3f4df7e14610256578063b08bc7221461029e578063b7f8cf9b146102be578063ea16003f146102de578063eb16f004146102fe578063f2fde38b1461031e578063fe9454b41461033e57600080fd5b36610114576100d461035e565b60008052606a6020526000805160206115e7833981519152546100f790346103d2565b60008052606a6020526000805160206115e7833981519152819055005b600080fd5b34801561012557600080fd5b5060695461013a90600160a01b900460ff1681565b60405190151581526020015b60405180910390f35b34801561015b57600080fd5b5060655461016f906001600160a01b031681565b6040516101469190611210565b34801561018857600080fd5b5061019c610197366004611240565b6103e7565b604051908152602001610146565b3480156101b657600080fd5b5061019c6101c5366004611273565b610448565b3480156101d657600080fd5b5060675461016f906001600160a01b031681565b3480156101f657600080fd5b5061020a61020536600461128e565b610498565b005b34801561021857600080fd5b5060685461016f906001600160a01b031681565b34801561023857600080fd5b5061020a610749565b34801561024d57600080fd5b5061016f61075b565b34801561026257600080fd5b506102916040518060400160405280600f81526020016e10dbdb1b14dd5c9c1b1d5cd41bdbdb608a1b81525081565b6040516101469190611317565b3480156102aa57600080fd5b5060695461016f906001600160a01b031681565b3480156102ca57600080fd5b5060665461016f906001600160a01b031681565b3480156102ea57600080fd5b5061020a6102f9366004611240565b61076a565b34801561030a57600080fd5b5061020a61031936600461134a565b6109e2565b34801561032a57600080fd5b5061020a610339366004611273565b610a5e565b34801561034a57600080fd5b5061020a610359366004611374565b610ad7565b6069546001600160a01b031633146103d05760405162461bcd60e51b815260206004820152602a60248201527f436f6c6c537572706c7573506f6f6c3a2043616c6c6572206973206e6f74204160448201526918dd1a5d9948141bdbdb60b21b60648201526084015b60405180910390fd5b565b60006103de82846113c6565b90505b92915050565b60655460009083906001600160a01b0380831691161461041a57604051631a40f2bd60e31b815260040160405180910390fd5b50506001600160a01b039081166000908152606b602090815260408083209490931682529290925290205490565b60655460009082906001600160a01b0380831691161461047b57604051631a40f2bd60e31b815260040160405180910390fd5b50506001600160a01b03166000908152606a602052604090205490565b600054610100900460ff16158080156104b85750600054600160ff909116105b806104d957506104c730610b95565b1580156104d9575060005460ff166001145b61053c5760405162461bcd60e51b815260206004820152602e60248201527f496e697469616c697a61626c653a20636f6e747261637420697320616c72656160448201526d191e481a5b9a5d1a585b1a5e995960921b60648201526084016103c7565b6000805460ff19166001179055801561055f576000805461ff0019166101001790555b606954600160a01b900460ff16156105af5760405162461bcd60e51b8152602060048201526013602482015272105b1c9958591e481a5b9a5d1a585b1a5e9959606a1b60448201526064016103c7565b6105b886610ba4565b6105c185610ba4565b6105ca83610ba4565b6105d384610ba4565b6105dc82610ba4565b6069805460ff60a01b1916600160a01b1790556105f7610c4d565b606680546001600160a01b03199081166001600160a01b0389811691909117909255606880548216878416179055606780548216888416179055606980548216868416179055606580549091169184169190911790556040517f3ca631ffcd2a9b5d9ae18543fc82f58eb4ca33af9e6ab01b7a8e95331e6ed9859061067d908890611210565b60405180910390a17f143219c9e69b09e07e095fcc889b43d8f46ca892bba65f08dc3a0050869a5678856040516106b49190611210565b60405180910390a17f78f058b189175430c48dc02699e3a0031ea4ff781536dc2fab847de4babdd882836040516106eb9190611210565b60405180910390a16106fb610749565b8015610741576000805461ff0019169055604051600181527f7f26b83ff96e1f2b6a682f133852f6798a09c465da95921460cefb38474024989060200160405180910390a15b505050505050565b610751610c7c565b6103d06000610cdb565b6033546001600160a01b031690565b60655482906001600160a01b0380831691161461079a57604051631a40f2bd60e31b815260040160405180910390fd5b6107a2610d2d565b6001600160a01b038281166000908152606b60209081526040808320938716835292905290812054906107d58583610da2565b9050600081116108415760405162461bcd60e51b815260206004820152603160248201527f436f6c6c537572706c7573506f6f6c3a204e6f20636f6c6c61746572616c20616044820152707661696c61626c6520746f20636c61696d60781b60648201526084016103c7565b6001600160a01b038481166000818152606b60209081526040808320948a16835293815283822082905592519081529091600080516020611607833981519152910160405180910390a26001600160a01b0385166000908152606a60205260409020546108ae9083610e6b565b6001600160a01b0386166000908152606a60205260409081902091909155517fc4dfa259771b0ed50b100eaf04734dad1b094a866d9d285c59180cde3f3f45e8906108fc90869084906113d9565b60405180910390a16001600160a01b0385166109c7576000846001600160a01b03168360405160006040518083038185875af1925050503d806000811461095f576040519150601f19603f3d011682016040523d82523d6000602084013e610964565b606091505b50509050806109c15760405162461bcd60e51b815260206004820152602360248201527f436f6c6c537572706c7573506f6f6c3a2073656e64696e6720455448206661696044820152621b195960ea1b60648201526084016103c7565b506109db565b6109db6001600160a01b0386168583610e77565b5050505050565b60655482906001600160a01b03808316911614610a1257604051631a40f2bd60e31b815260040160405180910390fd5b610a1a61035e565b6001600160a01b0383166000908152606a6020526040902054610a3d90836103d2565b6001600160a01b039093166000908152606a60205260409020929092555050565b610a66610c7c565b6001600160a01b038116610acb5760405162461bcd60e51b815260206004820152602660248201527f4f776e61626c653a206e6577206f776e657220697320746865207a65726f206160448201526564647265737360d01b60648201526084016103c7565b610ad481610cdb565b50565b60655483906001600160a01b03808316911614610b0757604051631a40f2bd60e31b815260040160405180910390fd5b610b0f610ed2565b6001600160a01b038084166000908152606b60209081526040808320938816835292905290812054610b4190846103d2565b6001600160a01b038581166000818152606b60209081526040808320948b16835293815290839020849055915183815292935091600080516020611607833981519152910160405180910390a25050505050565b6001600160a01b03163b151590565b6001600160a01b038116610bfa5760405162461bcd60e51b815260206004820152601e60248201527f4163636f756e742063616e6e6f74206265207a65726f2061646472657373000060448201526064016103c7565b803b80610c495760405162461bcd60e51b815260206004820181905260248201527f4163636f756e7420636f64652073697a652063616e6e6f74206265207a65726f60448201526064016103c7565b5050565b600054610100900460ff16610c745760405162461bcd60e51b81526004016103c7906113f2565b6103d0610f71565b33610c8561075b565b6001600160a01b0316146103d05760405162461bcd60e51b815260206004820181905260248201527f4f776e61626c653a2063616c6c6572206973206e6f7420746865206f776e657260448201526064016103c7565b603380546001600160a01b038381166001600160a01b0319831681179093556040519116919082907f8be0079c531659141344cd1fd0a4f28419497f9722a3daafe3b4186f6b6457e090600090a35050565b6066546001600160a01b031633146103d05760405162461bcd60e51b815260206004820152603260248201527f436f6c6c537572706c7573506f6f6c3a2043616c6c6572206973206e6f7420426044820152716f72726f776572204f7065726174696f6e7360701b60648201526084016103c7565b60006001600160a01b038316610db95750806103e1565b81600003610dc9575060006103e1565b6000836001600160a01b031663313ce5676040518163ffffffff1660e01b8152600401602060405180830381865afa158015610e09573d6000803e3d6000fd5b505050506040513d601f19601f82011682018060405250810190610e2d919061143d565b905060128160ff161015610e6357610e5b610e49826012611467565b610e5490600a611564565b8490610fa1565b9150506103e1565b509092915050565b60006103de8284611573565b610ecd8363a9059cbb60e01b8484604051602401610e969291906113d9565b60408051601f198184030181529190526020810180516001600160e01b03166001600160e01b031990931692909217909152610fad565b505050565b6067546001600160a01b0316331480610ef557506068546001600160a01b031633145b6103d05760405162461bcd60e51b815260206004820152604160248201527f436f6c6c537572706c7573506f6f6c3a2043616c6c6572206973206e6f74205460448201527f726f76654d616e61676572206e6f7220526564656d7074696f6e4d616e6167656064820152603960f91b608482015260a4016103c7565b600054610100900460ff16610f985760405162461bcd60e51b81526004016103c7906113f2565b6103d033610cdb565b60006103de8284611586565b6000611002826040518060400160405280602081526020017f5361666545524332303a206c6f772d6c6576656c2063616c6c206661696c6564815250856001600160a01b03166110829092919063ffffffff16565b905080516000148061102357508080602001905181019061102391906115a8565b610ecd5760405162461bcd60e51b815260206004820152602a60248201527f5361666545524332303a204552433230206f7065726174696f6e20646964206e6044820152691bdd081cdd58d8d9595960b21b60648201526084016103c7565b60606110918484600085611099565b949350505050565b6060824710156110fa5760405162461bcd60e51b815260206004820152602660248201527f416464726573733a20696e73756666696369656e742062616c616e636520666f6044820152651c8818d85b1b60d21b60648201526084016103c7565b600080866001600160a01b0316858760405161111691906115ca565b60006040518083038185875af1925050503d8060008114611153576040519150601f19603f3d011682016040523d82523d6000602084013e611158565b606091505b509150915061116987838387611174565b979650505050505050565b606083156111e15782516000036111da5761118e85610b95565b6111da5760405162461bcd60e51b815260206004820152601d60248201527f416464726573733a2063616c6c20746f206e6f6e2d636f6e747261637400000060448201526064016103c7565b5081611091565b61109183838151156111f65781518083602001fd5b8060405162461bcd60e51b81526004016103c79190611317565b6001600160a01b0391909116815260200190565b80356001600160a01b038116811461123b57600080fd5b919050565b6000806040838503121561125357600080fd5b61125c83611224565b915061126a60208401611224565b90509250929050565b60006020828403121561128557600080fd5b6103de82611224565b600080600080600060a086880312156112a657600080fd5b6112af86611224565b94506112bd60208701611224565b93506112cb60408701611224565b92506112d960608701611224565b91506112e760808701611224565b90509295509295909350565b60005b8381101561130e5781810151838201526020016112f6565b50506000910152565b60208152600082518060208401526113368160408501602087016112f3565b601f01601f19169190910160400192915050565b6000806040838503121561135d57600080fd5b61136683611224565b946020939093013593505050565b60008060006060848603121561138957600080fd5b61139284611224565b92506113a060208501611224565b9150604084013590509250925092565b634e487b7160e01b600052601160045260246000fd5b808201808211156103e1576103e16113b0565b6001600160a01b03929092168252602082015260400190565b6020808252602b908201527f496e697469616c697a61626c653a20636f6e7472616374206973206e6f74206960408201526a6e697469616c697a696e6760a81b606082015260800190565b60006020828403121561144f57600080fd5b815160ff8116811461146057600080fd5b9392505050565b60ff82811682821603908111156103e1576103e16113b0565b600181815b808511156114bb5781600019048211156114a1576114a16113b0565b808516156114ae57918102915b93841c9390800290611485565b509250929050565b6000826114d2575060016103e1565b816114df575060006103e1565b81600181146114f557600281146114ff5761151b565b60019150506103e1565b60ff841115611510576115106113b0565b50506001821b6103e1565b5060208310610133831016604e8410600b841016171561153e575081810a6103e1565b6115488383611480565b806000190482111561155c5761155c6113b0565b029392505050565b60006103de60ff8416836114c3565b818103818111156103e1576103e16113b0565b6000826115a357634e487b7160e01b600052601260045260246000fd5b500490565b6000602082840312156115ba57600080fd5b8151801515811461146057600080fd5b600082516115dc8184602087016112f3565b919091019291505056fe6021fa82de881996a3e5fd2d032f74dfe72746b8a66c5510d4ab1a3cb7891507f0393a34d05e6567686ad4e097f9d9d2781565957394f1f0d984e5d8e6378f20a2646970667358221220a8c74f64083b9eed88997fe13d5c70409b8d730b89c2347800ba4af8f0158f3164736f6c63430008110033",
  "linkReferences": {},
  "deployedLinkReferences": {}
}