{
  "_format": "hh-sol-artifact-1",
  "contractName": "DefaultPool",
  "sourceName": "contracts/DefaultPool.sol",
  "abi": [
    {
      "inputs": [],
      "name": "IsNotWstETH",
      "type": "error"
    },
    {
      "anonymous": false,
      "inputs": [
        {
          "indexed": false,
          "internalType": "address",
          "name": "_newActivePoolAddress",
          "type": "address"
        }
      ],
      "name": "ActivePoolAddressChanged",
      "type": "event"
    },
    {
      "anonymous": false,
      "inputs": [
        {
          "indexed": false,
          "internalType": "address",
          "name": "_assetAddress",
          "type": "address"
        }
      ],
      "name": "AssetAddressChanged",
      "type": "event"
    },
    {
      "anonymous": false,
      "inputs": [
        {
          "indexed": false,
          "internalType": "uint256",
          "name": "_newBalance",
          "type": "uint256"
        }
      ],
      "name": "AssetBalanceUpdated",
      "type": "event"
    },
    {
      "anonymous": false,
      "inputs": [
        {
          "indexed": false,
          "internalType": "address",
          "name": "_to",
          "type": "address"
        },
        {
          "indexed": true,
          "internalType": "address",
          "name": "_asset",
          "type": "address"
        },
        {
          "indexed": false,
          "internalType": "uint256",
          "name": "_amount",
          "type": "uint256"
        }
      ],
      "name": "AssetSent",
      "type": "event"
    },
    {
      "anonymous": false,
      "inputs": [
        {
          "indexed": false,
          "internalType": "address",
          "name": "_newDefaultPoolAddress",
          "type": "address"
        }
      ],
      "name": "DefaultPoolAddressChanged",
      "type": "event"
    },
    {
      "anonymous": false,
      "inputs": [
        {
          "indexed": false,
          "internalType": "address",
          "name": "_asset",
          "type": "address"
        },
        {
          "indexed": false,
          "internalType": "uint256",
          "name": "_balance",
          "type": "uint256"
        }
      ],
      "name": "DefaultPoolAssetBalanceUpdated",
      "type": "event"
    },
    {
      "anonymous": false,
      "inputs": [
        {
          "indexed": false,
          "internalType": "address",
          "name": "_asset",
          "type": "address"
        },
        {
          "indexed": false,
          "internalType": "uint256",
          "name": "_UDebt",
          "type": "uint256"
        }
      ],
      "name": "DefaultPoolUDebtUpdated",
      "type": "event"
    },
    {
      "anonymous": false,
      "inputs": [
        {
          "indexed": false,
          "internalType": "uint8",
          "name": "version",
          "type": "uint8"
        }
      ],
      "name": "Initialized",
      "type": "event"
    },
    {
      "anonymous": false,
      "inputs": [
        {
          "indexed": true,
          "internalType": "address",
          "name": "previousOwner",
          "type": "address"
        },
        {
          "indexed": true,
          "internalType": "address",
          "name": "newOwner",
          "type": "address"
        }
      ],
      "name": "OwnershipTransferred",
      "type": "event"
    },
    {
      "anonymous": false,
      "inputs": [
        {
          "indexed": false,
          "internalType": "address",
          "name": "_newStabilityPoolAddress",
          "type": "address"
        }
      ],
      "name": "StabilityPoolAddressChanged",
      "type": "event"
    },
    {
      "anonymous": false,
      "inputs": [
        {
          "indexed": false,
          "internalType": "address",
          "name": "_newTroveManagerAddress",
          "type": "address"
        }
      ],
      "name": "TroveManagerAddressChanged",
      "type": "event"
    },
    {
      "anonymous": false,
      "inputs": [
        {
          "indexed": false,
          "internalType": "uint256",
          "name": "_newBalance",
          "type": "uint256"
        }
      ],
      "name": "UBalanceUpdated",
      "type": "event"
    },
    {
      "inputs": [],
      "name": "NAME",
      "outputs": [
        {
          "internalType": "string",
          "name": "",
          "type": "string"
        }
      ],
      "stateMutability": "view",
      "type": "function"
    },
    {
      "inputs": [],
      "name": "activePoolAddress",
      "outputs": [
        {
          "internalType": "address",
          "name": "",
          "type": "address"
        }
      ],
      "stateMutability": "view",
      "type": "function"
    },
    {
      "inputs": [
        {
          "internalType": "address",
          "name": "_asset",
          "type": "address"
        },
        {
          "internalType": "uint256",
          "name": "_amount",
          "type": "uint256"
        }
      ],
      "name": "decreaseUDebt",
      "outputs": [],
      "stateMutability": "nonpayable",
      "type": "function"
    },
    {
      "inputs": [
        {
          "internalType": "address",
          "name": "_asset",
          "type": "address"
        }
      ],
      "name": "getAssetBalance",
      "outputs": [
        {
          "internalType": "uint256",
          "name": "",
          "type": "uint256"
        }
      ],
      "stateMutability": "view",
      "type": "function"
    },
    {
      "inputs": [
        {
          "internalType": "address",
          "name": "_asset",
          "type": "address"
        }
      ],
      "name": "getUDebt",
      "outputs": [
        {
          "internalType": "uint256",
          "name": "",
          "type": "uint256"
        }
      ],
      "stateMutability": "view",
      "type": "function"
    },
    {
      "inputs": [
        {
          "internalType": "address",
          "name": "_asset",
          "type": "address"
        },
        {
          "internalType": "uint256",
          "name": "_amount",
          "type": "uint256"
        }
      ],
      "name": "increaseUDebt",
      "outputs": [],
      "stateMutability": "nonpayable",
      "type": "function"
    },
    {
      "inputs": [],
      "name": "isInitialized",
      "outputs": [
        {
          "internalType": "bool",
          "name": "",
          "type": "bool"
        }
      ],
      "stateMutability": "view",
      "type": "function"
    },
    {
      "inputs": [],
      "name": "owner",
      "outputs": [
        {
          "internalType": "address",
          "name": "",
          "type": "address"
        }
      ],
      "stateMutability": "view",
      "type": "function"
    },
    {
      "inputs": [
        {
          "internalType": "address",
          "name": "_asset",
          "type": "address"
        },
        {
          "internalType": "uint256",
          "name": "_amount",
          "type": "uint256"
        }
      ],
      "name": "receivedERC20",
      "outputs": [],
      "stateMutability": "nonpayable",
      "type": "function"
    },
    {
      "inputs": [],
      "name": "redemptionManagerAddress",
      "outputs": [
        {
          "internalType": "address",
          "name": "",
          "type": "address"
        }
      ],
      "stateMutability": "view",
      "type": "function"
    },
    {
      "inputs": [],
      "name": "renounceOwnership",
      "outputs": [],
      "stateMutability": "nonpayable",
      "type": "function"
    },
    {
      "inputs": [
        {
          "internalType": "address",
          "name": "_asset",
          "type": "address"
        },
        {
          "internalType": "uint256",
          "name": "_amount",
          "type": "uint256"
        }
      ],
      "name": "sendAssetToActivePool",
      "outputs": [],
      "stateMutability": "nonpayable",
      "type": "function"
    },
    {
      "inputs": [
        {
          "internalType": "address",
          "name": "_troveManagerAddress",
          "type": "address"
        },
        {
          "internalType": "address",
          "name": "_redemptionManagerAddress",
          "type": "address"
        },
        {
          "internalType": "address",
          "name": "_activePoolAddress",
          "type": "address"
        },
        {
          "internalType": "address",
          "name": "_wstETHAddress",
          "type": "address"
        }
      ],
      "name": "setAddresses",
      "outputs": [],
      "stateMutability": "nonpayable",
      "type": "function"
    },
    {
      "inputs": [
        {
          "internalType": "address",
          "name": "newOwner",
          "type": "address"
        }
      ],
      "name": "transferOwnership",
      "outputs": [],
      "stateMutability": "nonpayable",
      "type": "function"
    },
    {
      "inputs": [],
      "name": "troveManagerAddress",
      "outputs": [
        {
          "internalType": "address",
          "name": "",
          "type": "address"
        }
      ],
      "stateMutability": "view",
      "type": "function"
    },
    {
      "inputs": [],
      "name": "wstETH",
      "outputs": [
        {
          "internalType": "address",
          "name": "",
          "type": "address"
        }
      ],
      "stateMutability": "view",
      "type": "function"
    },
    {
      "stateMutability": "payable",
      "type": "receive"
    }
  ],
  "bytecode": "0x608060405234801561001057600080fd5b5061164e806100206000396000f3fe6080604052600436106100c75760003560e01c80631197fc711461016a57806329fc67c81461018c578063392e53cd146101ac5780633c7e6c89146101e25780634a945f8d146102025780634aa07e64146102225780635373433f1461024f5780635a4d28bb1461027d578063631a53d41461029d578063653a8dd1146102bd578063715018a6146102dd5780638da5cb5b146102f2578063a3f4df7e14610307578063b08bc7221461034b578063eb16f0041461036b578063f2fde38b1461038b57600080fd5b36610165576068546001600160a01b031633146100ff5760405162461bcd60e51b81526004016100f6906111d2565b60405180910390fd5b6000805260696020526000805160206115f98339815191525461012290346103ab565b600080805260696020526000805160206115f98339815191528290556040516000805160206115d98339815191529261015b929161121b565b60405180910390a1005b600080fd5b34801561017657600080fd5b5061018a610185366004611250565b6103c0565b005b34801561019857600080fd5b5061018a6101a7366004611250565b6104ab565b3480156101b857600080fd5b506068546101cd90600160a01b900460ff1681565b60405190151581526020015b60405180910390f35b3480156101ee57600080fd5b5061018a6101fd366004611250565b610731565b34801561020e57600080fd5b5061018a61021d36600461127a565b6107c3565b34801561022e57600080fd5b50606554610242906001600160a01b031681565b6040516101d991906112ce565b34801561025b57600080fd5b5061026f61026a3660046112e2565b610a27565b6040519081526020016101d9565b34801561028957600080fd5b50606654610242906001600160a01b031681565b3480156102a957600080fd5b5061026f6102b83660046112e2565b610a77565b3480156102c957600080fd5b50606754610242906001600160a01b031681565b3480156102e957600080fd5b5061018a610ac7565b3480156102fe57600080fd5b50610242610adb565b34801561031357600080fd5b5061033e6040518060400160405280600b81526020016a111959985d5b1d141bdbdb60aa1b81525081565b6040516101d99190611321565b34801561035757600080fd5b50606854610242906001600160a01b031681565b34801561037757600080fd5b5061018a610386366004611250565b610aea565b34801561039757600080fd5b5061018a6103a63660046112e2565b610bf7565b60006103b7828461136a565b90505b92915050565b60655482906001600160a01b038083169116146103f057604051631a40f2bd60e31b815260040160405180910390fd5b6066546001600160a01b031633148061041357506067546001600160a01b031633145b61042f5760405162461bcd60e51b81526004016100f69061137d565b6001600160a01b0383166000908152606a60205260409020546104529083610c70565b6001600160a01b0384166000908152606a602052604090819020829055517ff275e23f7386fba020870b680840a75ee98eaedfcdf134442109aa8313094c5b9161049e9186919061121b565b60405180910390a1505050565b60655482906001600160a01b038083169116146104db57604051631a40f2bd60e31b815260040160405180910390fd5b6066546001600160a01b03163314806104fe57506067546001600160a01b031633145b61051a5760405162461bcd60e51b81526004016100f69061137d565b6068546001600160a01b031660006105328585610c7c565b905080600003610543575050505050565b6001600160a01b0385166000908152606960205260409020546105669085610c70565b6001600160a01b038616600081815260696020526040902091909155156106005761059b6001600160a01b0386168383610d45565b604051633ac5bc0160e21b81526001600160a01b0383169063eb16f004906105c9908890889060040161121b565b600060405180830381600087803b1580156105e357600080fd5b505af11580156105f7573d6000803e3d6000fd5b505050506106a5565b6000826001600160a01b03168560405160006040518083038185875af1925050503d806000811461064d576040519150601f19603f3d011682016040523d82523d6000602084013e610652565b606091505b50509050806106a35760405162461bcd60e51b815260206004820152601f60248201527f44656661756c74506f6f6c3a2073656e64696e6720455448206661696c65640060448201526064016100f6565b505b6001600160a01b038516600090815260696020526040908190205490516000805160206115d9833981519152916106de9188919061121b565b60405180910390a1846001600160a01b03167ff89c3306c782ffbbe4593aa5673e97e9ad6a8c65d240405e8986363fada66392838360405161072192919061121b565b60405180910390a250505b505050565b60655482906001600160a01b0380831691161461076157604051631a40f2bd60e31b815260040160405180910390fd5b6066546001600160a01b031633148061078457506067546001600160a01b031633145b6107a05760405162461bcd60e51b81526004016100f69061137d565b6001600160a01b0383166000908152606a602052604090205461045290836103ab565b600054610100900460ff16158080156107e35750600054600160ff909116105b8061080457506107f230610d9b565b158015610804575060005460ff166001145b6108675760405162461bcd60e51b815260206004820152602e60248201527f496e697469616c697a61626c653a20636f6e747261637420697320616c72656160448201526d191e481a5b9a5d1a585b1a5e995960921b60648201526084016100f6565b6000805460ff19166001179055801561088a576000805461ff0019166101001790555b606854600160a01b900460ff16156108da5760405162461bcd60e51b8152602060048201526013602482015272105b1c9958591e481a5b9a5d1a585b1a5e9959606a1b60448201526064016100f6565b6108e385610daa565b6108ec83610daa565b6108f584610daa565b6108fe82610daa565b6068805460ff60a01b1916600160a01b179055610919610e53565b606680546001600160a01b038088166001600160a01b031992831617909255606780548784169083161790556068805486841690831617905560658054928516929091169190911790556040517f143219c9e69b09e07e095fcc889b43d8f46ca892bba65f08dc3a0050869a5678906109939087906112ce565b60405180910390a17f78f058b189175430c48dc02699e3a0031ea4ff781536dc2fab847de4babdd882836040516109ca91906112ce565b60405180910390a16109da610ac7565b8015610a20576000805461ff0019169055604051600181527f7f26b83ff96e1f2b6a682f133852f6798a09c465da95921460cefb38474024989060200160405180910390a15b5050505050565b60655460009082906001600160a01b03808316911614610a5a57604051631a40f2bd60e31b815260040160405180910390fd5b50506001600160a01b031660009081526069602052604090205490565b60655460009082906001600160a01b03808316911614610aaa57604051631a40f2bd60e31b815260040160405180910390fd5b50506001600160a01b03166000908152606a602052604090205490565b610acf610e82565b610ad96000610ee1565b565b6033546001600160a01b031690565b60655482906001600160a01b03808316911614610b1a57604051631a40f2bd60e31b815260040160405180910390fd5b6068546001600160a01b03163314610b445760405162461bcd60e51b81526004016100f6906111d2565b6001600160a01b038316610b9a5760405162461bcd60e51b815260206004820152601d60248201527f4554482043616e6e6f742075736520746869732066756e6374696f6e7300000060448201526064016100f6565b6001600160a01b038316600090815260696020526040902054610bbd90836103ab565b6001600160a01b03841660009081526069602052604090819020829055516000805160206115d98339815191529161049e9186919061121b565b610bff610e82565b6001600160a01b038116610c645760405162461bcd60e51b815260206004820152602660248201527f4f776e61626c653a206e6577206f776e657220697320746865207a65726f206160448201526564647265737360d01b60648201526084016100f6565b610c6d81610ee1565b50565b60006103b782846113e4565b60006001600160a01b038316610c935750806103ba565b81600003610ca3575060006103ba565b6000836001600160a01b031663313ce5676040518163ffffffff1660e01b8152600401602060405180830381865afa158015610ce3573d6000803e3d6000fd5b505050506040513d601f19601f82011682018060405250810190610d0791906113f7565b905060128160ff161015610d3d57610d35610d23826012611421565b610d2e90600a61151e565b8490610f33565b9150506103ba565b509092915050565b61072c8363a9059cbb60e01b8484604051602401610d6492919061121b565b60408051601f198184030181529190526020810180516001600160e01b03166001600160e01b031990931692909217909152610f3f565b6001600160a01b03163b151590565b6001600160a01b038116610e005760405162461bcd60e51b815260206004820152601e60248201527f4163636f756e742063616e6e6f74206265207a65726f2061646472657373000060448201526064016100f6565b803b80610e4f5760405162461bcd60e51b815260206004820181905260248201527f4163636f756e7420636f64652073697a652063616e6e6f74206265207a65726f60448201526064016100f6565b5050565b600054610100900460ff16610e7a5760405162461bcd60e51b81526004016100f69061152d565b610ad9611014565b33610e8b610adb565b6001600160a01b031614610ad95760405162461bcd60e51b815260206004820181905260248201527f4f776e61626c653a2063616c6c6572206973206e6f7420746865206f776e657260448201526064016100f6565b603380546001600160a01b038381166001600160a01b0319831681179093556040519116919082907f8be0079c531659141344cd1fd0a4f28419497f9722a3daafe3b4186f6b6457e090600090a35050565b60006103b78284611578565b6000610f94826040518060400160405280602081526020017f5361666545524332303a206c6f772d6c6576656c2063616c6c206661696c6564815250856001600160a01b03166110449092919063ffffffff16565b9050805160001480610fb5575080806020019051810190610fb5919061159a565b61072c5760405162461bcd60e51b815260206004820152602a60248201527f5361666545524332303a204552433230206f7065726174696f6e20646964206e6044820152691bdd081cdd58d8d9595960b21b60648201526084016100f6565b600054610100900460ff1661103b5760405162461bcd60e51b81526004016100f69061152d565b610ad933610ee1565b6060611053848460008561105b565b949350505050565b6060824710156110bc5760405162461bcd60e51b815260206004820152602660248201527f416464726573733a20696e73756666696369656e742062616c616e636520666f6044820152651c8818d85b1b60d21b60648201526084016100f6565b600080866001600160a01b031685876040516110d891906115bc565b60006040518083038185875af1925050503d8060008114611115576040519150601f19603f3d011682016040523d82523d6000602084013e61111a565b606091505b509150915061112b87838387611136565b979650505050505050565b606083156111a357825160000361119c5761115085610d9b565b61119c5760405162461bcd60e51b815260206004820152601d60248201527f416464726573733a2063616c6c20746f206e6f6e2d636f6e747261637400000060448201526064016100f6565b5081611053565b61105383838151156111b85781518083602001fd5b8060405162461bcd60e51b81526004016100f69190611321565b60208082526029908201527f44656661756c74506f6f6c3a2043616c6c6572206973206e6f7420746865204160408201526818dd1a5d99541bdbdb60ba1b606082015260800190565b6001600160a01b03929092168252602082015260400190565b80356001600160a01b038116811461124b57600080fd5b919050565b6000806040838503121561126357600080fd5b61126c83611234565b946020939093013593505050565b6000806000806080858703121561129057600080fd5b61129985611234565b93506112a760208601611234565b92506112b560408601611234565b91506112c360608601611234565b905092959194509250565b6001600160a01b0391909116815260200190565b6000602082840312156112f457600080fd5b6103b782611234565b60005b83811015611318578181015183820152602001611300565b50506000910152565b60208152600082518060208401526113408160408501602087016112fd565b601f01601f19169190910160400192915050565b634e487b7160e01b600052601160045260246000fd5b808201808211156103ba576103ba611354565b60208082526041908201527f44656661756c74506f6f6c3a2043616c6c6572206973206e6f7420746865205460408201527f726f76654d616e61676572206e6f7220526564656d7074696f6e4d616e6167656060820152603960f91b608082015260a00190565b818103818111156103ba576103ba611354565b60006020828403121561140957600080fd5b815160ff8116811461141a57600080fd5b9392505050565b60ff82811682821603908111156103ba576103ba611354565b600181815b8085111561147557816000190482111561145b5761145b611354565b8085161561146857918102915b93841c939080029061143f565b509250929050565b60008261148c575060016103ba565b81611499575060006103ba565b81600181146114af57600281146114b9576114d5565b60019150506103ba565b60ff8411156114ca576114ca611354565b50506001821b6103ba565b5060208310610133831016604e8410600b84101617156114f8575081810a6103ba565b611502838361143a565b806000190482111561151657611516611354565b029392505050565b60006103b760ff84168361147d565b6020808252602b908201527f496e697469616c697a61626c653a20636f6e7472616374206973206e6f74206960408201526a6e697469616c697a696e6760a81b606082015260800190565b60008261159557634e487b7160e01b600052601260045260246000fd5b500490565b6000602082840312156115ac57600080fd5b8151801515811461141a57600080fd5b600082516115ce8184602087016112fd565b919091019291505056fe4d42ce079a4e464782330acbd88d008e74e55501cf9d29de797fa46bac59bc615843af22e99e7c98370145a5056245c244ce8ee852f4ef5e6d6a8e410a18cf41a26469706673582212200b20dc361357d3e0470d6cc34c850eb3b8821d58e54e8768ad038222fc5f48e164736f6c63430008110033",
  "linkReferences": {},
  "deployedLinkReferences": {}
}