{
  "_format": "hh-sol-artifact-1",
  "contractName": "MultiTroveGetter",
  "sourceName": "contracts/MultiTroveGetter.sol",
  "abi": [
    {
      "inputs": [
        {
          "internalType": "contract TroveManager",
          "name": "_troveManager",
          "type": "address"
        },
        {
          "internalType": "contract ISortedTroves",
          "name": "_sortedTroves",
          "type": "address"
        },
        {
          "internalType": "address",
          "name": "_wstETHAddress",
          "type": "address"
        }
      ],
      "stateMutability": "nonpayable",
      "type": "constructor"
    },
    {
      "inputs": [],
      "name": "IsNotWstETH",
      "type": "error"
    },
    {
      "inputs": [
        {
          "internalType": "address",
          "name": "_asset",
          "type": "address"
        },
        {
          "internalType": "int256",
          "name": "_startIdx",
          "type": "int256"
        },
        {
          "internalType": "uint256",
          "name": "_count",
          "type": "uint256"
        }
      ],
      "name": "getMultipleSortedTroves",
      "outputs": [
        {
          "components": [
            {
              "internalType": "address",
              "name": "owner",
              "type": "address"
            },
            {
              "internalType": "address",
              "name": "asset",
              "type": "address"
            },
            {
              "internalType": "uint256",
              "name": "debt",
              "type": "uint256"
            },
            {
              "internalType": "uint256",
              "name": "coll",
              "type": "uint256"
            },
            {
              "internalType": "uint256",
              "name": "stake",
              "type": "uint256"
            },
            {
              "internalType": "uint256",
              "name": "snapshotAsset",
              "type": "uint256"
            },
            {
              "internalType": "uint256",
              "name": "snapshotUDebt",
              "type": "uint256"
            }
          ],
          "internalType": "struct MultiTroveGetter.CombinedTroveData[]",
          "name": "_troves",
          "type": "tuple[]"
        }
      ],
      "stateMutability": "view",
      "type": "function"
    },
    {
      "inputs": [],
      "name": "sortedTroves",
      "outputs": [
        {
          "internalType": "contract ISortedTroves",
          "name": "",
          "type": "address"
        }
      ],
      "stateMutability": "view",
      "type": "function"
    },
    {
      "inputs": [],
      "name": "troveManager",
      "outputs": [
        {
          "internalType": "contract TroveManager",
          "name": "",
          "type": "address"
        }
      ],
      "stateMutability": "view",
      "type": "function"
    },
    {
      "inputs": [],
      "name": "wstETH",
      "outputs": [
        {
          "internalType": "address",
          "name": "",
          "type": "address"
        }
      ],
      "stateMutability": "view",
      "type": "function"
    }
  ],
  "bytecode": "0x608060405234801561001057600080fd5b50604051610db2380380610db283398101604081905261002f91610089565b600180546001600160a01b039485166001600160a01b0319918216179091556002805493851693821693909317909255600080549190931691161790556100d6565b6001600160a01b038116811461008657600080fd5b50565b60008060006060848603121561009e57600080fd5b83516100a981610071565b60208501519093506100ba81610071565b60408501519092506100cb81610071565b809150509250925092565b610ccd806100e56000396000f3fe608060405234801561001057600080fd5b506004361061004c5760003560e01c806305e533ce146100515780633d83908a1461007a5780634aa07e641461009a578063ae918754146100ad575b600080fd5b61006461005f366004610a13565b6100c0565b6040516100719190610a48565b60405180910390f35b60015461008d906001600160a01b031681565b6040516100719190610ad6565b60005461008d906001600160a01b031681565b60025461008d906001600160a01b031681565b60005460609084906001600160a01b038083169116146100f357604051631a40f2bd60e31b815260040160405180910390fd5b6000806000861261010957508490506001610124565b610114866001610b00565b61011d90610b28565b9150600090505b60025460405163504f167160e01b81526000916001600160a01b03169063504f167190610155908b90600401610ad6565b602060405180830381865afa158015610172573d6000803e3d6000fd5b505050506040513d601f19601f820116820180604052508101906101969190610b44565b90508083106101d85760408051600080825260208201909252906101d0565b6101bd6109ac565b8152602001906001900390816101b55790505b50945061021a565b60006101e48483610b73565b9050808711156101f2578096505b821561020a57610203898589610225565b9550610218565b6102158985896105ee565b95505b505b505050509392505050565b600254604051631bdb4c8d60e01b81526060916000916001600160a01b0390911690631bdb4c8d9061025b908890600401610ad6565b602060405180830381865afa158015610278573d6000803e3d6000fd5b505050506040513d601f19601f8201168201806040525081019061029c9190610b8c565b905060005b8481101561032e576002546040516339ed25cd60e01b81526001600160a01b03909116906339ed25cd906102db9089908690600401610bb0565b602060405180830381865afa1580156102f8573d6000803e3d6000fd5b505050506040513d601f19601f8201168201806040525081019061031c9190610b8c565b915061032781610bca565b90506102a1565b50826001600160401b0381111561034757610347610b5d565b60405190808252806020026020018201604052801561038057816020015b61036d6109ac565b8152602001906001900390816103655790505b50915060005b838110156105e557818382815181106103a1576103a1610be3565b60209081029190910101516001600160a01b0391821690526001546040516307f258d560e41b8152911690637f258d50906103e29089908690600401610bb0565b60c060405180830381865afa1580156103ff573d6000803e3d6000fd5b505050506040513d601f19601f820116820180604052508101906104239190610bf9565b90505086858151811061043857610438610be3565b602002602001015160200187868151811061045557610455610be3565b602002602001015160400188878151811061047257610472610be3565b602002602001015160600189888151811061048f5761048f610be3565b602090810291909101015160800193909352929091529190526001600160a01b03918216905260015460405163649fea2560e11b815291169063c93fd44a906104de9089908690600401610bb0565b6040805180830381865afa1580156104fa573d6000803e3d6000fd5b505050506040513d601f19601f8201168201806040525081019061051e9190610c73565b84838151811061053057610530610be3565b602002602001015160a00185848151811061054d5761054d610be3565b602090810291909101015160c00191909152526002546040516339ed25cd60e01b81526001600160a01b03909116906339ed25cd906105929089908690600401610bb0565b602060405180830381865afa1580156105af573d6000803e3d6000fd5b505050506040513d601f19601f820116820180604052508101906105d39190610b8c565b91506105de81610bca565b9050610386565b50509392505050565b600254604051637608271560e01b81526060916000916001600160a01b0390911690637608271590610624908890600401610ad6565b602060405180830381865afa158015610641573d6000803e3d6000fd5b505050506040513d601f19601f820116820180604052508101906106659190610b8c565b905060005b848110156106f6576002546040516239c6e160ea1b81526001600160a01b039091169063e71b8400906106a39089908690600401610bb0565b602060405180830381865afa1580156106c0573d6000803e3d6000fd5b505050506040513d601f19601f820116820180604052508101906106e49190610b8c565b91506106ef81610bca565b905061066a565b50826001600160401b0381111561070f5761070f610b5d565b60405190808252806020026020018201604052801561074857816020015b6107356109ac565b81526020019060019003908161072d5790505b50915060005b838110156105e5578183828151811061076957610769610be3565b60209081029190910101516001600160a01b0391821690526001546040516307f258d560e41b8152911690637f258d50906107aa9089908690600401610bb0565b60c060405180830381865afa1580156107c7573d6000803e3d6000fd5b505050506040513d601f19601f820116820180604052508101906107eb9190610bf9565b90505086858151811061080057610800610be3565b602002602001015160200187868151811061081d5761081d610be3565b602002602001015160400188878151811061083a5761083a610be3565b602002602001015160600189888151811061085757610857610be3565b602090810291909101015160800193909352929091529190526001600160a01b03918216905260015460405163649fea2560e11b815291169063c93fd44a906108a69089908690600401610bb0565b6040805180830381865afa1580156108c2573d6000803e3d6000fd5b505050506040513d601f19601f820116820180604052508101906108e69190610c73565b8483815181106108f8576108f8610be3565b602002602001015160a00185848151811061091557610915610be3565b602090810291909101015160c00191909152526002546040516239c6e160ea1b81526001600160a01b039091169063e71b8400906109599089908690600401610bb0565b602060405180830381865afa158015610976573d6000803e3d6000fd5b505050506040513d601f19601f8201168201806040525081019061099a9190610b8c565b91506109a581610bca565b905061074e565b6040518060e0016040528060006001600160a01b0316815260200160006001600160a01b0316815260200160008152602001600081526020016000815260200160008152602001600081525090565b6001600160a01b0381168114610a1057600080fd5b50565b600080600060608486031215610a2857600080fd5b8335610a33816109fb565b95602085013595506040909401359392505050565b602080825282518282018190526000919060409081850190868401855b82811015610ac957815180516001600160a01b0390811686528782015116878601528581015186860152606080820151908601526080808201519086015260a0808201519086015260c0908101519085015260e09093019290850190600101610a65565b5091979650505050505050565b6001600160a01b0391909116815260200190565b634e487b7160e01b600052601160045260246000fd5b8082018281126000831280158216821582161715610b2057610b20610aea565b505092915050565b6000600160ff1b8201610b3d57610b3d610aea565b5060000390565b600060208284031215610b5657600080fd5b5051919050565b634e487b7160e01b600052604160045260246000fd5b81810381811115610b8657610b86610aea565b92915050565b600060208284031215610b9e57600080fd5b8151610ba9816109fb565b9392505050565b6001600160a01b0392831681529116602082015260400190565b600060018201610bdc57610bdc610aea565b5060010190565b634e487b7160e01b600052603260045260246000fd5b60008060008060008060c08789031215610c1257600080fd5b8651610c1d816109fb565b80965050602087015194506040870151935060608701519250608087015160058110610c4857600080fd5b60a08801519092506001600160801b0381168114610c6557600080fd5b809150509295509295509295565b60008060408385031215610c8657600080fd5b50508051602090910151909290915056fea264697066735822122093d796b55a9f67d8e0d85408621eb71d1eb0f343c1127caf155bffc80fa16c6464736f6c63430008110033",
  "linkReferences": {},
  "deployedLinkReferences": {}
}