{
  "_format": "hh-sol-artifact-1",
  "contractName": "ActivePool",
  "sourceName": "contracts/ActivePool.sol",
  "abi": [
    {
      "inputs": [],
      "name": "IsNotWstETH",
      "type": "error"
    },
    {
      "anonymous": false,
      "inputs": [
        {
          "indexed": false,
          "internalType": "address",
          "name": "_newActivePoolAddress",
          "type": "address"
        }
      ],
      "name": "ActivePoolAddressChanged",
      "type": "event"
    },
    {
      "anonymous": false,
      "inputs": [
        {
          "indexed": false,
          "internalType": "address",
          "name": "_asset",
          "type": "address"
        },
        {
          "indexed": false,
          "internalType": "uint256",
          "name": "_balance",
          "type": "uint256"
        }
      ],
      "name": "ActivePoolAssetBalanceUpdated",
      "type": "event"
    },
    {
      "anonymous": false,
      "inputs": [
        {
          "indexed": false,
          "internalType": "address",
          "name": "_asset",
          "type": "address"
        },
        {
          "indexed": false,
          "internalType": "uint256",
          "name": "_UDebt",
          "type": "uint256"
        }
      ],
      "name": "ActivePoolUDebtUpdated",
      "type": "event"
    },
    {
      "anonymous": false,
      "inputs": [
        {
          "indexed": false,
          "internalType": "address",
          "name": "_assetAddress",
          "type": "address"
        }
      ],
      "name": "AssetAddressChanged",
      "type": "event"
    },
    {
      "anonymous": false,
      "inputs": [
        {
          "indexed": false,
          "internalType": "uint256",
          "name": "_newBalance",
          "type": "uint256"
        }
      ],
      "name": "AssetBalanceUpdated",
      "type": "event"
    },
    {
      "anonymous": false,
      "inputs": [
        {
          "indexed": false,
          "internalType": "address",
          "name": "_to",
          "type": "address"
        },
        {
          "indexed": true,
          "internalType": "address",
          "name": "_asset",
          "type": "address"
        },
        {
          "indexed": false,
          "internalType": "uint256",
          "name": "_amount",
          "type": "uint256"
        }
      ],
      "name": "AssetSent",
      "type": "event"
    },
    {
      "anonymous": false,
      "inputs": [
        {
          "indexed": false,
          "internalType": "address",
          "name": "_newBorrowerOperationsAddress",
          "type": "address"
        }
      ],
      "name": "BorrowerOperationsAddressChanged",
      "type": "event"
    },
    {
      "anonymous": false,
      "inputs": [
        {
          "indexed": false,
          "internalType": "address",
          "name": "_newDefaultPoolAddress",
          "type": "address"
        }
      ],
      "name": "DefaultPoolAddressChanged",
      "type": "event"
    },
    {
      "anonymous": false,
      "inputs": [
        {
          "indexed": false,
          "internalType": "uint8",
          "name": "version",
          "type": "uint8"
        }
      ],
      "name": "Initialized",
      "type": "event"
    },
    {
      "anonymous": false,
      "inputs": [
        {
          "indexed": true,
          "internalType": "address",
          "name": "previousOwner",
          "type": "address"
        },
        {
          "indexed": true,
          "internalType": "address",
          "name": "newOwner",
          "type": "address"
        }
      ],
      "name": "OwnershipTransferred",
      "type": "event"
    },
    {
      "anonymous": false,
      "inputs": [
        {
          "indexed": false,
          "internalType": "address",
          "name": "_newStabilityPoolAddress",
          "type": "address"
        }
      ],
      "name": "StabilityPoolAddressChanged",
      "type": "event"
    },
    {
      "anonymous": false,
      "inputs": [
        {
          "indexed": false,
          "internalType": "address",
          "name": "_newTroveManagerAddress",
          "type": "address"
        }
      ],
      "name": "TroveManagerAddressChanged",
      "type": "event"
    },
    {
      "anonymous": false,
      "inputs": [
        {
          "indexed": false,
          "internalType": "uint256",
          "name": "_newBalance",
          "type": "uint256"
        }
      ],
      "name": "UBalanceUpdated",
      "type": "event"
    },
    {
      "inputs": [],
      "name": "NAME",
      "outputs": [
        {
          "internalType": "string",
          "name": "",
          "type": "string"
        }
      ],
      "stateMutability": "view",
      "type": "function"
    },
    {
      "inputs": [],
      "name": "borrowerOperationsAddress",
      "outputs": [
        {
          "internalType": "address",
          "name": "",
          "type": "address"
        }
      ],
      "stateMutability": "view",
      "type": "function"
    },
    {
      "inputs": [],
      "name": "collSurplusPool",
      "outputs": [
        {
          "internalType": "contract ICollSurplusPool",
          "name": "",
          "type": "address"
        }
      ],
      "stateMutability": "view",
      "type": "function"
    },
    {
      "inputs": [
        {
          "internalType": "address",
          "name": "_asset",
          "type": "address"
        },
        {
          "internalType": "uint256",
          "name": "_amount",
          "type": "uint256"
        }
      ],
      "name": "decreaseUDebt",
      "outputs": [],
      "stateMutability": "nonpayable",
      "type": "function"
    },
    {
      "inputs": [],
      "name": "defaultPool",
      "outputs": [
        {
          "internalType": "contract IDefaultPool",
          "name": "",
          "type": "address"
        }
      ],
      "stateMutability": "view",
      "type": "function"
    },
    {
      "inputs": [
        {
          "internalType": "address",
          "name": "_asset",
          "type": "address"
        }
      ],
      "name": "getAssetBalance",
      "outputs": [
        {
          "internalType": "uint256",
          "name": "",
          "type": "uint256"
        }
      ],
      "stateMutability": "view",
      "type": "function"
    },
    {
      "inputs": [
        {
          "internalType": "address",
          "name": "_asset",
          "type": "address"
        }
      ],
      "name": "getUDebt",
      "outputs": [
        {
          "internalType": "uint256",
          "name": "",
          "type": "uint256"
        }
      ],
      "stateMutability": "view",
      "type": "function"
    },
    {
      "inputs": [
        {
          "internalType": "address",
          "name": "_asset",
          "type": "address"
        },
        {
          "internalType": "uint256",
          "name": "_amount",
          "type": "uint256"
        }
      ],
      "name": "increaseUDebt",
      "outputs": [],
      "stateMutability": "nonpayable",
      "type": "function"
    },
    {
      "inputs": [],
      "name": "isInitialized",
      "outputs": [
        {
          "internalType": "bool",
          "name": "",
          "type": "bool"
        }
      ],
      "stateMutability": "view",
      "type": "function"
    },
    {
      "inputs": [],
      "name": "owner",
      "outputs": [
        {
          "internalType": "address",
          "name": "",
          "type": "address"
        }
      ],
      "stateMutability": "view",
      "type": "function"
    },
    {
      "inputs": [
        {
          "internalType": "address",
          "name": "_asset",
          "type": "address"
        },
        {
          "internalType": "uint256",
          "name": "_amount",
          "type": "uint256"
        }
      ],
      "name": "receivedERC20",
      "outputs": [],
      "stateMutability": "nonpayable",
      "type": "function"
    },
    {
      "inputs": [],
      "name": "redemptionManagerAddress",
      "outputs": [
        {
          "internalType": "address",
          "name": "",
          "type": "address"
        }
      ],
      "stateMutability": "view",
      "type": "function"
    },
    {
      "inputs": [],
      "name": "renounceOwnership",
      "outputs": [],
      "stateMutability": "nonpayable",
      "type": "function"
    },
    {
      "inputs": [
        {
          "internalType": "address",
          "name": "_asset",
          "type": "address"
        },
        {
          "internalType": "address",
          "name": "_account",
          "type": "address"
        },
        {
          "internalType": "uint256",
          "name": "_amount",
          "type": "uint256"
        }
      ],
      "name": "sendAsset",
      "outputs": [],
      "stateMutability": "nonpayable",
      "type": "function"
    },
    {
      "inputs": [
        {
          "internalType": "address",
          "name": "_borrowerOperationsAddress",
          "type": "address"
        },
        {
          "internalType": "address",
          "name": "_troveManagerAddress",
          "type": "address"
        },
        {
          "internalType": "address",
          "name": "_stabilityManagerAddress",
          "type": "address"
        },
        {
          "internalType": "address",
          "name": "_defaultPoolAddress",
          "type": "address"
        },
        {
          "internalType": "address",
          "name": "_collSurplusPoolAddress",
          "type": "address"
        },
        {
          "internalType": "address",
          "name": "_redemptionAddress",
          "type": "address"
        },
        {
          "internalType": "address",
          "name": "_wstETHAddress",
          "type": "address"
        }
      ],
      "name": "setAddresses",
      "outputs": [],
      "stateMutability": "nonpayable",
      "type": "function"
    },
    {
      "inputs": [],
      "name": "stabilityPoolManager",
      "outputs": [
        {
          "internalType": "contract IStabilityPoolManager",
          "name": "",
          "type": "address"
        }
      ],
      "stateMutability": "view",
      "type": "function"
    },
    {
      "inputs": [
        {
          "internalType": "address",
          "name": "newOwner",
          "type": "address"
        }
      ],
      "name": "transferOwnership",
      "outputs": [],
      "stateMutability": "nonpayable",
      "type": "function"
    },
    {
      "inputs": [],
      "name": "troveManagerAddress",
      "outputs": [
        {
          "internalType": "address",
          "name": "",
          "type": "address"
        }
      ],
      "stateMutability": "view",
      "type": "function"
    },
    {
      "inputs": [],
      "name": "wstETH",
      "outputs": [
        {
          "internalType": "address",
          "name": "",
          "type": "address"
        }
      ],
      "stateMutability": "view",
      "type": "function"
    },
    {
      "stateMutability": "payable",
      "type": "receive"
    }
  ],
  "bytecode": "0x608060405234801561001057600080fd5b50611c21806100206000396000f3fe6080604052600436106100e85760003560e01c80631197fc71146101a05780632f2b4e90146101c2578063392e53cd146101f85780633c7e6c89146102295780633cc742251461024957806347878f15146102695780634aa07e64146102895780635373433f146102a95780635a4d28bb146102d7578063631a53d4146102f7578063653a8dd114610317578063715018a6146103375780638da5cb5b1461034c578063a3f4df7e14610361578063b7f8cf9b146103a4578063cda775f9146103c4578063eaa8ba7f146103e4578063eb16f00414610404578063f2fde38b1461042457600080fd5b3661019b576098546001600160a01b03163314806101105750609b546001600160a01b031633145b6101355760405162461bcd60e51b815260040161012c906116a0565b60405180910390fd5b60008052609e602052600080516020611bcc833981519152546101589034610444565b6000808052609e602052600080516020611bcc833981519152829055604051600080516020611b6c8339815191529261019192916116f1565b60405180910390a1005b600080fd5b3480156101ac57600080fd5b506101c06101bb36600461171f565b610459565b005b3480156101ce57600080fd5b50609d546101e2906001600160a01b031681565b6040516101ef919061174b565b60405180910390f35b34801561020457600080fd5b50609d5461021990600160a01b900460ff1681565b60405190151581526020016101ef565b34801561023557600080fd5b506101c061024436600461171f565b6105d0565b34801561025557600080fd5b50609b546101e2906001600160a01b031681565b34801561027557600080fd5b506101c061028436600461175f565b61069e565b34801561029557600080fd5b506097546101e2906001600160a01b031681565b3480156102b557600080fd5b506102c96102c43660046117a0565b610ac1565b6040519081526020016101ef565b3480156102e357600080fd5b50609a546101e2906001600160a01b031681565b34801561030357600080fd5b506102c96103123660046117a0565b610b11565b34801561032357600080fd5b506099546101e2906001600160a01b031681565b34801561034357600080fd5b506101c0610b61565b34801561035857600080fd5b506101e2610b75565b34801561036d57600080fd5b506103976040518060400160405280600a8152602001691058dd1a5d99541bdbdb60b21b81525081565b6040516101ef91906117e8565b3480156103b057600080fd5b506098546101e2906001600160a01b031681565b3480156103d057600080fd5b50609c546101e2906001600160a01b031681565b3480156103f057600080fd5b506101c06103ff36600461181b565b610b84565b34801561041057600080fd5b506101c061041f36600461171f565b610ea0565b34801561043057600080fd5b506101c061043f3660046117a0565b610f6c565b600061045082846118c7565b90505b92915050565b6098546001600160a01b031633148061047c5750609a546001600160a01b031633145b8061049157506099546001600160a01b031633145b806105085750609d54604051633c5f6d8f60e21b81526001600160a01b039091169063f17db63c906104c790339060040161174b565b602060405180830381865afa1580156104e4573d6000803e3d6000fd5b505050506040513d601f19601f8201168201806040525081019061050891906118da565b6105245760405162461bcd60e51b815260040161012c906118fc565b60975482906001600160a01b0380831691161461055457604051631a40f2bd60e31b815260040160405180910390fd5b6001600160a01b0383166000908152609f60205260409020546105779083610fe5565b6001600160a01b0384166000908152609f602052604090819020829055517f745577ef80a1b980950587cf27f60f5395a9fa025d8e761d4d1a6920f8596d96916105c3918691906116f1565b60405180910390a1505050565b6098546001600160a01b03163314806105f35750609a546001600160a01b031633145b61064b5760405162461bcd60e51b81526020600482015260416024820152600080516020611b8c8339815191526044820152600080516020611bac8339815191526064820152603960f91b608482015260a40161012c565b60975482906001600160a01b0380831691161461067b57604051631a40f2bd60e31b815260040160405180910390fd5b6001600160a01b0383166000908152609f60205260409020546105779083610444565b6106a6610ff1565b6098546001600160a01b03163314806106c95750609a546001600160a01b031633145b806106de57506099546001600160a01b031633145b806107555750609d54604051633c5f6d8f60e21b81526001600160a01b039091169063f17db63c9061071490339060040161174b565b602060405180830381865afa158015610731573d6000803e3d6000fd5b505050506040513d601f19601f8201168201806040525081019061075591906118da565b6107715760405162461bcd60e51b815260040161012c906118fc565b60975483906001600160a01b038083169116146107a157604051631a40f2bd60e31b815260040160405180910390fd5b609d54604051633c5f6d8f60e21b81526001600160a01b039091169063f17db63c906107d190339060040161174b565b602060405180830381865afa1580156107ee573d6000803e3d6000fd5b505050506040513d601f19601f8201168201806040525081019061081291906118da565b1561089e57609d5460405163065c20bb60e41b815233916001600160a01b0316906365c20bb09061084790889060040161174b565b602060405180830381865afa158015610864573d6000803e3d6000fd5b505050506040513d601f19601f82011682018060405250810190610888919061196d565b6001600160a01b03161461089e5761089e61198a565b60006108aa858461104a565b9050806000036108ba5750610ab1565b6001600160a01b0385166000908152609e60205260409020546108dd9084610fe5565b6001600160a01b0386166000818152609e602052604090209190915515610986576109126001600160a01b0386168583611113565b61091b84611169565b1561098157604051633ac5bc0160e21b81526001600160a01b0385169063eb16f0049061094e90889087906004016116f1565b600060405180830381600087803b15801561096857600080fd5b505af115801561097c573d6000803e3d6000fd5b505050505b610a2b565b6000846001600160a01b03168460405160006040518083038185875af1925050503d80600081146109d3576040519150601f19603f3d011682016040523d82523d6000602084013e6109d8565b606091505b5050905080610a295760405162461bcd60e51b815260206004820152601e60248201527f416374697665506f6f6c3a2073656e64696e6720455448206661696c65640000604482015260640161012c565b505b6001600160a01b0385166000908152609e602052604090819020549051600080516020611b6c83398151915291610a64918891906116f1565b60405180910390a1846001600160a01b03167ff89c3306c782ffbbe4593aa5673e97e9ad6a8c65d240405e8986363fada663928583604051610aa79291906116f1565b60405180910390a2505b50610abc6001606555565b505050565b60975460009082906001600160a01b03808316911614610af457604051631a40f2bd60e31b815260040160405180910390fd5b50506001600160a01b03166000908152609e602052604090205490565b60975460009082906001600160a01b03808316911614610b4457604051631a40f2bd60e31b815260040160405180910390fd5b50506001600160a01b03166000908152609f602052604090205490565b610b69611213565b610b736000611272565b565b6033546001600160a01b031690565b600054610100900460ff1615808015610ba45750600054600160ff909116105b80610bc55750610bb3306112c4565b158015610bc5575060005460ff166001145b610c285760405162461bcd60e51b815260206004820152602e60248201527f496e697469616c697a61626c653a20636f6e747261637420697320616c72656160448201526d191e481a5b9a5d1a585b1a5e995960921b606482015260840161012c565b6000805460ff191660011790558015610c4b576000805461ff0019166101001790555b609d54600160a01b900460ff1615610c9b5760405162461bcd60e51b8152602060048201526013602482015272105b1c9958591e481a5b9a5d1a585b1a5e9959606a1b604482015260640161012c565b610ca4886112d3565b610cad876112d3565b610cb6866112d3565b610cbf856112d3565b610cc8846112d3565b610cd1836112d3565b610cda826112d3565b609d805460ff60a01b1916600160a01b179055610cf561137c565b610cfd6113ab565b609880546001600160a01b03199081166001600160a01b038b811691909117909255609980548216868416179055609a805482168a8416179055609d80548216898416179055609b80548216888416179055609c80548216878416179055609780549091169184169190911790556040517f3ca631ffcd2a9b5d9ae18543fc82f58eb4ca33af9e6ab01b7a8e95331e6ed98590610d9b908a9061174b565b60405180910390a17f143219c9e69b09e07e095fcc889b43d8f46ca892bba65f08dc3a0050869a567887604051610dd2919061174b565b60405180910390a17f82966d27eea39b038ee0fa30cd16532bb24f6e65d31cb58fb227aa5766cdcc7f86604051610e09919061174b565b60405180910390a17f5ee0cae2f063ed938bb55046f6a932fb6ae792bf43624806bb90abe68a50be9b85604051610e40919061174b565b60405180910390a1610e50610b61565b8015610e96576000805461ff0019169055604051600181527f7f26b83ff96e1f2b6a682f133852f6798a09c465da95921460cefb38474024989060200160405180910390a15b5050505050505050565b6098546001600160a01b0316331480610ec35750609b546001600160a01b031633145b610edf5760405162461bcd60e51b815260040161012c906116a0565b60975482906001600160a01b03808316911614610f0f57604051631a40f2bd60e31b815260040160405180910390fd5b6001600160a01b0383166000908152609e6020526040902054610f329083610444565b6001600160a01b0384166000908152609e60205260409081902082905551600080516020611b6c833981519152916105c3918691906116f1565b610f74611213565b6001600160a01b038116610fd95760405162461bcd60e51b815260206004820152602660248201527f4f776e61626c653a206e6577206f776e657220697320746865207a65726f206160448201526564647265737360d01b606482015260840161012c565b610fe281611272565b50565b600061045082846119a0565b6002606554036110435760405162461bcd60e51b815260206004820152601f60248201527f5265656e7472616e637947756172643a207265656e7472616e742063616c6c00604482015260640161012c565b6002606555565b60006001600160a01b038316611061575080610453565b8160000361107157506000610453565b6000836001600160a01b031663313ce5676040518163ffffffff1660e01b8152600401602060405180830381865afa1580156110b1573d6000803e3d6000fd5b505050506040513d601f19601f820116820180604052508101906110d591906119b3565b905060128160ff16101561110b576111036110f18260126119d6565b6110fc90600a611ad3565b84906113da565b915050610453565b509092915050565b610abc8363a9059cbb60e01b84846040516024016111329291906116f1565b60408051601f198184030181529190526020810180516001600160e01b03166001600160e01b0319909316929092179091526113e6565b609b546000906001600160a01b03838116911614806111955750609c546001600160a01b038381169116145b806104535750609d54604051633c5f6d8f60e21b81526001600160a01b039091169063f17db63c906111cb90859060040161174b565b602060405180830381865afa1580156111e8573d6000803e3d6000fd5b505050506040513d601f19601f8201168201806040525081019061045391906118da565b6001606555565b3361121c610b75565b6001600160a01b031614610b735760405162461bcd60e51b815260206004820181905260248201527f4f776e61626c653a2063616c6c6572206973206e6f7420746865206f776e6572604482015260640161012c565b603380546001600160a01b038381166001600160a01b0319831681179093556040519116919082907f8be0079c531659141344cd1fd0a4f28419497f9722a3daafe3b4186f6b6457e090600090a35050565b6001600160a01b03163b151590565b6001600160a01b0381166113295760405162461bcd60e51b815260206004820152601e60248201527f4163636f756e742063616e6e6f74206265207a65726f20616464726573730000604482015260640161012c565b803b806113785760405162461bcd60e51b815260206004820181905260248201527f4163636f756e7420636f64652073697a652063616e6e6f74206265207a65726f604482015260640161012c565b5050565b600054610100900460ff166113a35760405162461bcd60e51b815260040161012c90611ae2565b610b736114bb565b600054610100900460ff166113d25760405162461bcd60e51b815260040161012c90611ae2565b610b736114eb565b60006104508284611b2d565b600061143b826040518060400160405280602081526020017f5361666545524332303a206c6f772d6c6576656c2063616c6c206661696c6564815250856001600160a01b03166115129092919063ffffffff16565b905080516000148061145c57508080602001905181019061145c91906118da565b610abc5760405162461bcd60e51b815260206004820152602a60248201527f5361666545524332303a204552433230206f7065726174696f6e20646964206e6044820152691bdd081cdd58d8d9595960b21b606482015260840161012c565b600054610100900460ff166114e25760405162461bcd60e51b815260040161012c90611ae2565b610b7333611272565b600054610100900460ff1661120c5760405162461bcd60e51b815260040161012c90611ae2565b60606115218484600085611529565b949350505050565b60608247101561158a5760405162461bcd60e51b815260206004820152602660248201527f416464726573733a20696e73756666696369656e742062616c616e636520666f6044820152651c8818d85b1b60d21b606482015260840161012c565b600080866001600160a01b031685876040516115a69190611b4f565b60006040518083038185875af1925050503d80600081146115e3576040519150601f19603f3d011682016040523d82523d6000602084013e6115e8565b606091505b50915091506115f987838387611604565b979650505050505050565b6060831561167157825160000361166a5761161e856112c4565b61166a5760405162461bcd60e51b815260206004820152601d60248201527f416464726573733a2063616c6c20746f206e6f6e2d636f6e7472616374000000604482015260640161012c565b5081611521565b61152183838151156116865781518083602001fd5b8060405162461bcd60e51b815260040161012c91906117e8565b60208082526031908201527f416374697665506f6f6c3a2043616c6c6572206973206e65697468657220424f604082015270081b9bdc88111959985d5b1d08141bdbdb607a1b606082015260800190565b6001600160a01b03929092168252602082015260400190565b6001600160a01b0381168114610fe257600080fd5b6000806040838503121561173257600080fd5b823561173d8161170a565b946020939093013593505050565b6001600160a01b0391909116815260200190565b60008060006060848603121561177457600080fd5b833561177f8161170a565b9250602084013561178f8161170a565b929592945050506040919091013590565b6000602082840312156117b257600080fd5b81356117bd8161170a565b9392505050565b60005b838110156117df5781810151838201526020016117c7565b50506000910152565b60208152600082518060208401526118078160408501602087016117c4565b601f01601f19169190910160400192915050565b600080600080600080600060e0888a03121561183657600080fd5b87356118418161170a565b965060208801356118518161170a565b955060408801356118618161170a565b945060608801356118718161170a565b935060808801356118818161170a565b925060a08801356118918161170a565b915060c08801356118a18161170a565b8091505092959891949750929550565b634e487b7160e01b600052601160045260246000fd5b80820180821115610453576104536118b1565b6000602082840312156118ec57600080fd5b815180151581146117bd57600080fd5b6020808252606990820152600080516020611b8c8339815191526040820152600080516020611bac83398151915260608201527f72206e6f7220526564656d7074696f6e4d616e61676572206e6f7220537461626080820152681a5b1a5d1e541bdbdb60ba1b60a082015260c00190565b60006020828403121561197f57600080fd5b81516117bd8161170a565b634e487b7160e01b600052600160045260246000fd5b81810381811115610453576104536118b1565b6000602082840312156119c557600080fd5b815160ff811681146117bd57600080fd5b60ff8281168282160390811115610453576104536118b1565b600181815b80851115611a2a578160001904821115611a1057611a106118b1565b80851615611a1d57918102915b93841c93908002906119f4565b509250929050565b600082611a4157506001610453565b81611a4e57506000610453565b8160018114611a645760028114611a6e57611a8a565b6001915050610453565b60ff841115611a7f57611a7f6118b1565b50506001821b610453565b5060208310610133831016604e8410600b8410161715611aad575081810a610453565b611ab783836119ef565b8060001904821115611acb57611acb6118b1565b029392505050565b600061045060ff841683611a32565b6020808252602b908201527f496e697469616c697a61626c653a20636f6e7472616374206973206e6f74206960408201526a6e697469616c697a696e6760a81b606082015260800190565b600082611b4a57634e487b7160e01b600052601260045260246000fd5b500490565b60008251611b618184602087016117c4565b919091019291505056fed9d22224b27bb4fd824c68076d2a2f5ecbe57af6aadc3564516e4d14dd0930f9416374697665506f6f6c3a2043616c6c6572206973206e65697468657220426f72726f7765724f7065726174696f6e73206e6f722054726f76654d616e616765edae58bba15aea52a58242ef195db2cc4de2b75de265dbb0d58482df22a95978a2646970667358221220dc4fa0112016d37b343e83fd9b77c14641c8ba2e15125b6ffb67a6d3d868cc1564736f6c63430008110033",
  "linkReferences": {},
  "deployedLinkReferences": {}
}