{
  "_format": "hh-sol-artifact-1",
  "contractName": "StabilityPoolTester",
  "sourceName": "contracts/TestContracts/StabilityPoolTester.sol",
  "abi": [
    {
      "anonymous": false,
      "inputs": [
        {
          "indexed": true,
          "internalType": "address",
          "name": "_depositor",
          "type": "address"
        },
        {
          "indexed": false,
          "internalType": "uint256",
          "name": "_Asset",
          "type": "uint256"
        },
        {
          "indexed": false,
          "internalType": "uint256",
          "name": "_ULoss",
          "type": "uint256"
        }
      ],
      "name": "AssetGainWithdrawn",
      "type": "event"
    },
    {
      "anonymous": false,
      "inputs": [
        {
          "indexed": false,
          "internalType": "address",
          "name": "_to",
          "type": "address"
        },
        {
          "indexed": false,
          "internalType": "uint256",
          "name": "_amount",
          "type": "uint256"
        }
      ],
      "name": "AssetSent",
      "type": "event"
    },
    {
      "anonymous": false,
      "inputs": [
        {
          "indexed": false,
          "internalType": "address",
          "name": "_newBorrowerOperationsAddress",
          "type": "address"
        }
      ],
      "name": "BorrowerOperationsAddressChanged",
      "type": "event"
    },
    {
      "anonymous": false,
      "inputs": [
        {
          "indexed": false,
          "internalType": "address",
          "name": "_newCommunityIssuanceAddress",
          "type": "address"
        }
      ],
      "name": "CommunityIssuanceAddressChanged",
      "type": "event"
    },
    {
      "anonymous": false,
      "inputs": [
        {
          "indexed": false,
          "internalType": "address",
          "name": "_newDefaultPoolAddress",
          "type": "address"
        }
      ],
      "name": "DefaultPoolAddressChanged",
      "type": "event"
    },
    {
      "anonymous": false,
      "inputs": [
        {
          "indexed": true,
          "internalType": "address",
          "name": "_depositor",
          "type": "address"
        },
        {
          "indexed": false,
          "internalType": "uint256",
          "name": "_P",
          "type": "uint256"
        },
        {
          "indexed": false,
          "internalType": "uint256",
          "name": "_S",
          "type": "uint256"
        },
        {
          "indexed": false,
          "internalType": "uint256",
          "name": "_G",
          "type": "uint256"
        }
      ],
      "name": "DepositSnapshotUpdated",
      "type": "event"
    },
    {
      "anonymous": false,
      "inputs": [
        {
          "indexed": false,
          "internalType": "uint128",
          "name": "_currentEpoch",
          "type": "uint128"
        }
      ],
      "name": "EpochUpdated",
      "type": "event"
    },
    {
      "anonymous": false,
      "inputs": [
        {
          "indexed": false,
          "internalType": "uint256",
          "name": "_G",
          "type": "uint256"
        },
        {
          "indexed": false,
          "internalType": "uint128",
          "name": "_epoch",
          "type": "uint128"
        },
        {
          "indexed": false,
          "internalType": "uint128",
          "name": "_scale",
          "type": "uint128"
        }
      ],
      "name": "G_Updated",
      "type": "event"
    },
    {
      "anonymous": false,
      "inputs": [
        {
          "indexed": false,
          "internalType": "uint8",
          "name": "version",
          "type": "uint8"
        }
      ],
      "name": "Initialized",
      "type": "event"
    },
    {
      "anonymous": false,
      "inputs": [
        {
          "indexed": false,
          "internalType": "bool",
          "name": "isPreYOU",
          "type": "bool"
        }
      ],
      "name": "IsPreYOUToggled",
      "type": "event"
    },
    {
      "anonymous": false,
      "inputs": [
        {
          "indexed": true,
          "internalType": "address",
          "name": "previousOwner",
          "type": "address"
        },
        {
          "indexed": true,
          "internalType": "address",
          "name": "newOwner",
          "type": "address"
        }
      ],
      "name": "OwnershipTransferred",
      "type": "event"
    },
    {
      "anonymous": false,
      "inputs": [
        {
          "indexed": false,
          "internalType": "uint256",
          "name": "_P",
          "type": "uint256"
        }
      ],
      "name": "P_Updated",
      "type": "event"
    },
    {
      "anonymous": false,
      "inputs": [
        {
          "indexed": false,
          "internalType": "uint256",
          "name": "_S",
          "type": "uint256"
        },
        {
          "indexed": false,
          "internalType": "uint128",
          "name": "_epoch",
          "type": "uint128"
        },
        {
          "indexed": false,
          "internalType": "uint128",
          "name": "_scale",
          "type": "uint128"
        }
      ],
      "name": "S_Updated",
      "type": "event"
    },
    {
      "anonymous": false,
      "inputs": [
        {
          "indexed": false,
          "internalType": "uint128",
          "name": "_currentScale",
          "type": "uint128"
        }
      ],
      "name": "ScaleUpdated",
      "type": "event"
    },
    {
      "anonymous": false,
      "inputs": [
        {
          "indexed": false,
          "internalType": "address",
          "name": "_newSortedTrovesAddress",
          "type": "address"
        }
      ],
      "name": "SortedTrovesAddressChanged",
      "type": "event"
    },
    {
      "anonymous": false,
      "inputs": [
        {
          "indexed": false,
          "internalType": "uint256",
          "name": "_newBalance",
          "type": "uint256"
        }
      ],
      "name": "StabilityPoolAssetBalanceUpdated",
      "type": "event"
    },
    {
      "anonymous": false,
      "inputs": [
        {
          "indexed": false,
          "internalType": "uint256",
          "name": "_newBalance",
          "type": "uint256"
        }
      ],
      "name": "StabilityPoolUBalanceUpdated",
      "type": "event"
    },
    {
      "anonymous": false,
      "inputs": [
        {
          "indexed": false,
          "internalType": "uint256",
          "name": "_newSystemStake",
          "type": "uint256"
        },
        {
          "indexed": false,
          "internalType": "address",
          "name": "_depositor",
          "type": "address"
        }
      ],
      "name": "StakeChanged",
      "type": "event"
    },
    {
      "anonymous": false,
      "inputs": [
        {
          "indexed": false,
          "internalType": "uint256",
          "name": "_P",
          "type": "uint256"
        },
        {
          "indexed": false,
          "internalType": "uint256",
          "name": "_G",
          "type": "uint256"
        }
      ],
      "name": "SystemSnapshotUpdated",
      "type": "event"
    },
    {
      "anonymous": false,
      "inputs": [
        {
          "indexed": false,
          "internalType": "address",
          "name": "_newTroveManagerAddress",
          "type": "address"
        }
      ],
      "name": "TroveManagerAddressChanged",
      "type": "event"
    },
    {
      "anonymous": false,
      "inputs": [
        {
          "indexed": false,
          "internalType": "address",
          "name": "depositor",
          "type": "address"
        },
        {
          "indexed": false,
          "internalType": "uint256",
          "name": "U",
          "type": "uint256"
        }
      ],
      "name": "UPaidToDepositorPreYOU",
      "type": "event"
    },
    {
      "anonymous": false,
      "inputs": [
        {
          "indexed": false,
          "internalType": "address",
          "name": "_newUTokenAddress",
          "type": "address"
        }
      ],
      "name": "UTokenAddressChanged",
      "type": "event"
    },
    {
      "anonymous": false,
      "inputs": [
        {
          "indexed": true,
          "internalType": "address",
          "name": "_depositor",
          "type": "address"
        },
        {
          "indexed": false,
          "internalType": "uint256",
          "name": "_newDeposit",
          "type": "uint256"
        }
      ],
      "name": "UserDepositChanged",
      "type": "event"
    },
    {
      "anonymous": false,
      "inputs": [
        {
          "indexed": true,
          "internalType": "address",
          "name": "newAddress",
          "type": "address"
        }
      ],
      "name": "VaultParametersBaseChanged",
      "type": "event"
    },
    {
      "anonymous": false,
      "inputs": [
        {
          "indexed": true,
          "internalType": "address",
          "name": "_depositor",
          "type": "address"
        },
        {
          "indexed": false,
          "internalType": "uint256",
          "name": "_YOU",
          "type": "uint256"
        }
      ],
      "name": "YOUPaidToDepositor",
      "type": "event"
    },
    {
      "inputs": [],
      "name": "DECIMAL_PRECISION",
      "outputs": [
        {
          "internalType": "uint256",
          "name": "",
          "type": "uint256"
        }
      ],
      "stateMutability": "view",
      "type": "function"
    },
    {
      "inputs": [],
      "name": "ETH_REF_ADDRESS",
      "outputs": [
        {
          "internalType": "address",
          "name": "",
          "type": "address"
        }
      ],
      "stateMutability": "view",
      "type": "function"
    },
    {
      "inputs": [],
      "name": "NAME",
      "outputs": [
        {
          "internalType": "string",
          "name": "",
          "type": "string"
        }
      ],
      "stateMutability": "view",
      "type": "function"
    },
    {
      "inputs": [],
      "name": "P",
      "outputs": [
        {
          "internalType": "uint256",
          "name": "",
          "type": "uint256"
        }
      ],
      "stateMutability": "view",
      "type": "function"
    },
    {
      "inputs": [],
      "name": "SCALE_FACTOR",
      "outputs": [
        {
          "internalType": "uint256",
          "name": "",
          "type": "uint256"
        }
      ],
      "stateMutability": "view",
      "type": "function"
    },
    {
      "inputs": [],
      "name": "STABILITY_POOL_NAME_BYTES",
      "outputs": [
        {
          "internalType": "bytes32",
          "name": "",
          "type": "bytes32"
        }
      ],
      "stateMutability": "view",
      "type": "function"
    },
    {
      "inputs": [],
      "name": "YOUExchangeRate",
      "outputs": [
        {
          "internalType": "uint256",
          "name": "",
          "type": "uint256"
        }
      ],
      "stateMutability": "view",
      "type": "function"
    },
    {
      "inputs": [],
      "name": "borrowerOperations",
      "outputs": [
        {
          "internalType": "contract IBorrowerOperations",
          "name": "",
          "type": "address"
        }
      ],
      "stateMutability": "view",
      "type": "function"
    },
    {
      "inputs": [],
      "name": "communityIssuance",
      "outputs": [
        {
          "internalType": "contract ICommunityIssuance",
          "name": "",
          "type": "address"
        }
      ],
      "stateMutability": "view",
      "type": "function"
    },
    {
      "inputs": [],
      "name": "currentEpoch",
      "outputs": [
        {
          "internalType": "uint128",
          "name": "",
          "type": "uint128"
        }
      ],
      "stateMutability": "view",
      "type": "function"
    },
    {
      "inputs": [],
      "name": "currentScale",
      "outputs": [
        {
          "internalType": "uint128",
          "name": "",
          "type": "uint128"
        }
      ],
      "stateMutability": "view",
      "type": "function"
    },
    {
      "inputs": [
        {
          "internalType": "address",
          "name": "",
          "type": "address"
        }
      ],
      "name": "depositSnapshots",
      "outputs": [
        {
          "internalType": "uint256",
          "name": "S",
          "type": "uint256"
        },
        {
          "internalType": "uint256",
          "name": "P",
          "type": "uint256"
        },
        {
          "internalType": "uint256",
          "name": "G",
          "type": "uint256"
        },
        {
          "internalType": "uint128",
          "name": "scale",
          "type": "uint128"
        },
        {
          "internalType": "uint128",
          "name": "epoch",
          "type": "uint128"
        }
      ],
      "stateMutability": "view",
      "type": "function"
    },
    {
      "inputs": [
        {
          "internalType": "address",
          "name": "",
          "type": "address"
        }
      ],
      "name": "deposits",
      "outputs": [
        {
          "internalType": "uint256",
          "name": "",
          "type": "uint256"
        }
      ],
      "stateMutability": "view",
      "type": "function"
    },
    {
      "inputs": [
        {
          "internalType": "uint128",
          "name": "",
          "type": "uint128"
        },
        {
          "internalType": "uint128",
          "name": "",
          "type": "uint128"
        }
      ],
      "name": "epochToScaleToG",
      "outputs": [
        {
          "internalType": "uint256",
          "name": "",
          "type": "uint256"
        }
      ],
      "stateMutability": "view",
      "type": "function"
    },
    {
      "inputs": [
        {
          "internalType": "uint128",
          "name": "",
          "type": "uint128"
        },
        {
          "internalType": "uint128",
          "name": "",
          "type": "uint128"
        }
      ],
      "name": "epochToScaleToSum",
      "outputs": [
        {
          "internalType": "uint256",
          "name": "",
          "type": "uint256"
        }
      ],
      "stateMutability": "view",
      "type": "function"
    },
    {
      "inputs": [],
      "name": "getAssetBalance",
      "outputs": [
        {
          "internalType": "uint256",
          "name": "",
          "type": "uint256"
        }
      ],
      "stateMutability": "view",
      "type": "function"
    },
    {
      "inputs": [],
      "name": "getAssetType",
      "outputs": [
        {
          "internalType": "address",
          "name": "",
          "type": "address"
        }
      ],
      "stateMutability": "view",
      "type": "function"
    },
    {
      "inputs": [],
      "name": "getCompoundedTotalStake",
      "outputs": [
        {
          "internalType": "uint256",
          "name": "",
          "type": "uint256"
        }
      ],
      "stateMutability": "view",
      "type": "function"
    },
    {
      "inputs": [
        {
          "internalType": "address",
          "name": "_depositor",
          "type": "address"
        }
      ],
      "name": "getCompoundedUDeposit",
      "outputs": [
        {
          "internalType": "uint256",
          "name": "",
          "type": "uint256"
        }
      ],
      "stateMutability": "view",
      "type": "function"
    },
    {
      "inputs": [
        {
          "internalType": "address",
          "name": "_depositor",
          "type": "address"
        }
      ],
      "name": "getDepositorAssetGain",
      "outputs": [
        {
          "internalType": "uint256",
          "name": "",
          "type": "uint256"
        }
      ],
      "stateMutability": "view",
      "type": "function"
    },
    {
      "inputs": [
        {
          "internalType": "address",
          "name": "_depositor",
          "type": "address"
        }
      ],
      "name": "getDepositorAssetGain1e18",
      "outputs": [
        {
          "internalType": "uint256",
          "name": "",
          "type": "uint256"
        }
      ],
      "stateMutability": "view",
      "type": "function"
    },
    {
      "inputs": [
        {
          "internalType": "address",
          "name": "_depositor",
          "type": "address"
        }
      ],
      "name": "getDepositorYOUGain",
      "outputs": [
        {
          "internalType": "uint256",
          "name": "",
          "type": "uint256"
        }
      ],
      "stateMutability": "view",
      "type": "function"
    },
    {
      "inputs": [
        {
          "internalType": "address",
          "name": "_asset",
          "type": "address"
        }
      ],
      "name": "getEntireSystemColl",
      "outputs": [
        {
          "internalType": "uint256",
          "name": "entireSystemColl",
          "type": "uint256"
        }
      ],
      "stateMutability": "view",
      "type": "function"
    },
    {
      "inputs": [
        {
          "internalType": "address",
          "name": "_asset",
          "type": "address"
        }
      ],
      "name": "getEntireSystemDebt",
      "outputs": [
        {
          "internalType": "uint256",
          "name": "entireSystemDebt",
          "type": "uint256"
        }
      ],
      "stateMutability": "view",
      "type": "function"
    },
    {
      "inputs": [],
      "name": "getNameBytes",
      "outputs": [
        {
          "internalType": "bytes32",
          "name": "",
          "type": "bytes32"
        }
      ],
      "stateMutability": "pure",
      "type": "function"
    },
    {
      "inputs": [],
      "name": "getTotalUDeposits",
      "outputs": [
        {
          "internalType": "uint256",
          "name": "",
          "type": "uint256"
        }
      ],
      "stateMutability": "view",
      "type": "function"
    },
    {
      "inputs": [],
      "name": "isInitialized",
      "outputs": [
        {
          "internalType": "bool",
          "name": "",
          "type": "bool"
        }
      ],
      "stateMutability": "view",
      "type": "function"
    },
    {
      "inputs": [],
      "name": "isPreYOU",
      "outputs": [
        {
          "internalType": "bool",
          "name": "",
          "type": "bool"
        }
      ],
      "stateMutability": "view",
      "type": "function"
    },
    {
      "inputs": [],
      "name": "lastAssetError_Offset",
      "outputs": [
        {
          "internalType": "uint256",
          "name": "",
          "type": "uint256"
        }
      ],
      "stateMutability": "view",
      "type": "function"
    },
    {
      "inputs": [],
      "name": "lastULossError_Offset",
      "outputs": [
        {
          "internalType": "uint256",
          "name": "",
          "type": "uint256"
        }
      ],
      "stateMutability": "view",
      "type": "function"
    },
    {
      "inputs": [],
      "name": "lastYOUError",
      "outputs": [
        {
          "internalType": "uint256",
          "name": "",
          "type": "uint256"
        }
      ],
      "stateMutability": "view",
      "type": "function"
    },
    {
      "inputs": [
        {
          "internalType": "uint256",
          "name": "_debtToOffset",
          "type": "uint256"
        },
        {
          "internalType": "uint256",
          "name": "_collToAdd",
          "type": "uint256"
        }
      ],
      "name": "offset",
      "outputs": [],
      "stateMutability": "nonpayable",
      "type": "function"
    },
    {
      "inputs": [],
      "name": "owner",
      "outputs": [
        {
          "internalType": "address",
          "name": "",
          "type": "address"
        }
      ],
      "stateMutability": "view",
      "type": "function"
    },
    {
      "inputs": [
        {
          "internalType": "uint256",
          "name": "_amount",
          "type": "uint256"
        }
      ],
      "name": "provideToSP",
      "outputs": [],
      "stateMutability": "nonpayable",
      "type": "function"
    },
    {
      "inputs": [
        {
          "internalType": "address",
          "name": "_asset",
          "type": "address"
        },
        {
          "internalType": "uint256",
          "name": "_amount",
          "type": "uint256"
        }
      ],
      "name": "receivedERC20",
      "outputs": [],
      "stateMutability": "nonpayable",
      "type": "function"
    },
    {
      "inputs": [],
      "name": "renounceOwnership",
      "outputs": [],
      "stateMutability": "nonpayable",
      "type": "function"
    },
    {
      "inputs": [
        {
          "internalType": "address",
          "name": "_assetAddress",
          "type": "address"
        },
        {
          "internalType": "address",
          "name": "_borrowerOperationsAddress",
          "type": "address"
        },
        {
          "internalType": "address",
          "name": "_troveManagerAddress",
          "type": "address"
        },
        {
          "internalType": "address",
          "name": "_uTokenAddress",
          "type": "address"
        },
        {
          "internalType": "address",
          "name": "_sortedTrovesAddress",
          "type": "address"
        },
        {
          "internalType": "address",
          "name": "_communityIssuanceAddress",
          "type": "address"
        },
        {
          "internalType": "address",
          "name": "_vestaParamsAddress",
          "type": "address"
        },
        {
          "internalType": "uint256",
          "name": "_YOUExchangeRate",
          "type": "uint256"
        }
      ],
      "name": "setAddresses",
      "outputs": [],
      "stateMutability": "nonpayable",
      "type": "function"
    },
    {
      "inputs": [
        {
          "internalType": "uint128",
          "name": "_currentScale",
          "type": "uint128"
        }
      ],
      "name": "setCurrentScale",
      "outputs": [],
      "stateMutability": "nonpayable",
      "type": "function"
    },
    {
      "inputs": [
        {
          "internalType": "uint256",
          "name": "_totalUDeposits",
          "type": "uint256"
        }
      ],
      "name": "setTotalDeposits",
      "outputs": [],
      "stateMutability": "nonpayable",
      "type": "function"
    },
    {
      "inputs": [
        {
          "internalType": "address",
          "name": "_vaultParams",
          "type": "address"
        }
      ],
      "name": "setVestaParameters",
      "outputs": [],
      "stateMutability": "nonpayable",
      "type": "function"
    },
    {
      "inputs": [],
      "name": "sortedTroves",
      "outputs": [
        {
          "internalType": "contract ISortedTroves",
          "name": "",
          "type": "address"
        }
      ],
      "stateMutability": "view",
      "type": "function"
    },
    {
      "inputs": [],
      "name": "systemSnapshots",
      "outputs": [
        {
          "internalType": "uint256",
          "name": "S",
          "type": "uint256"
        },
        {
          "internalType": "uint256",
          "name": "P",
          "type": "uint256"
        },
        {
          "internalType": "uint256",
          "name": "G",
          "type": "uint256"
        },
        {
          "internalType": "uint128",
          "name": "scale",
          "type": "uint128"
        },
        {
          "internalType": "uint128",
          "name": "epoch",
          "type": "uint128"
        }
      ],
      "stateMutability": "view",
      "type": "function"
    },
    {
      "inputs": [],
      "name": "togglePreYOU",
      "outputs": [],
      "stateMutability": "nonpayable",
      "type": "function"
    },
    {
      "inputs": [],
      "name": "totalStakes",
      "outputs": [
        {
          "internalType": "uint256",
          "name": "",
          "type": "uint256"
        }
      ],
      "stateMutability": "view",
      "type": "function"
    },
    {
      "inputs": [
        {
          "internalType": "address",
          "name": "newOwner",
          "type": "address"
        }
      ],
      "name": "transferOwnership",
      "outputs": [],
      "stateMutability": "nonpayable",
      "type": "function"
    },
    {
      "inputs": [],
      "name": "troveManager",
      "outputs": [
        {
          "internalType": "contract ITroveManager",
          "name": "",
          "type": "address"
        }
      ],
      "stateMutability": "view",
      "type": "function"
    },
    {
      "inputs": [],
      "name": "uToken",
      "outputs": [
        {
          "internalType": "contract IUToken",
          "name": "",
          "type": "address"
        }
      ],
      "stateMutability": "view",
      "type": "function"
    },
    {
      "inputs": [],
      "name": "unprotectedPayable",
      "outputs": [],
      "stateMutability": "payable",
      "type": "function"
    },
    {
      "inputs": [],
      "name": "vestaParams",
      "outputs": [
        {
          "internalType": "contract IVestaParameters",
          "name": "",
          "type": "address"
        }
      ],
      "stateMutability": "view",
      "type": "function"
    },
    {
      "inputs": [
        {
          "internalType": "address",
          "name": "_upperHint",
          "type": "address"
        },
        {
          "internalType": "address",
          "name": "_lowerHint",
          "type": "address"
        }
      ],
      "name": "withdrawAssetGainToTrove",
      "outputs": [],
      "stateMutability": "nonpayable",
      "type": "function"
    },
    {
      "inputs": [
        {
          "internalType": "uint256",
          "name": "_amount",
          "type": "uint256"
        }
      ],
      "name": "withdrawFromSP",
      "outputs": [],
      "stateMutability": "nonpayable",
      "type": "function"
    },
    {
      "inputs": [],
      "name": "wstETH",
      "outputs": [
        {
          "internalType": "address",
          "name": "",
          "type": "address"
        }
      ],
      "stateMutability": "view",
      "type": "function"
    },
    {
      "stateMutability": "payable",
      "type": "receive"
    }
  ],
  "bytecode": "0x608060405234801561001057600080fd5b50613d8e806100206000396000f3fe6080604052600436106102535760003560e01c80630fe3e1b71461029a57806313db1c37146102cd578063183b3159146102e35780631de64283146102f857806327d04b351461030d57806328a0a04d1461032d5780632e30c4ff146103655780632e54bf9514610387578063335525ad146103a75780633470a4a2146103c7578063392e53cd146103e85780633d83908a146104125780634634bb1a1461043f5780634aa07e641461045f57806350f592db1461047f5780635cc4d148146104bc57806363315637146104dc578063715018a6146104fc57806372141e6314610511578063766718081461052657806377553ad41461055a57806378c77a241461057a5780638060e0c81461059a57806382e0a574146105b057806386da0824146105e8578063896317b8146106725780638ac89d04146106905780638b8fbd92146106a55780638da5cb5b146106bb57806391962d0d146106d057806392303257146106ef57806395fb16bb146107045780639e86d0c414610724578063a20baee614610744578063a3f4df7e14610760578063a4e59ac8146107a6578063a8e10e39146107c6578063ab135249146107e8578063ae918754146107fe578063ba22f7cb1461081e578063ba9c74851461083e578063bf9befb11461085e578063c2eeb95814610874578063c7cb317314610894578063ce4b5bbe146108b4578063e3c8d67a146108cc578063eb16f004146108e2578063f2fde38b14610902578063f3af7c3b14610922578063f7a22d801461092a578063f8832ae31461094a578063fc7e286d1461098157600080fd5b36610295576102606109ae565b606c5461026d9034610a9c565b606c819055604051908152600080516020613c198339815191529060200160405180910390a1005b600080fd5b3480156102a657600080fd5b506102ba6102b536600461367b565b610ab1565b6040519081526020015b60405180910390f35b3480156102d957600080fd5b506102ba60795481565b3480156102ef57600080fd5b50606c546102ba565b34801561030457600080fd5b506102ba610b50565b34801561031957600080fd5b506102ba61032836600461367b565b610bb8565b34801561033957600080fd5b506102ba6103483660046136b4565b607760209081526000928352604080842090915290825290205481565b34801561037157600080fd5b506103856103803660046136e7565b610d91565b005b34801561039357600080fd5b506103856103a2366004613787565b611102565b3480156103b357600080fd5b506103856103c23660046137a0565b611262565b3480156103d357600080fd5b50600080516020613cb98339815191526102ba565b3480156103f457600080fd5b50607c546104029060ff1681565b60405190151581526020016102c4565b34801561041e57600080fd5b50606754610432906001600160a01b031681565b6040516102c491906137c2565b34801561044b57600080fd5b506102ba61045a36600461367b565b6112c4565b34801561046b57600080fd5b50600054610432906001600160a01b031681565b34801561048b57600080fd5b5061038561049a3660046137d6565b607680546001600160801b0319166001600160801b0392909216919091179055565b3480156104c857600080fd5b506103856104d736600461367b565b611363565b3480156104e857600080fd5b50606854610432906001600160a01b031681565b34801561050857600080fd5b506103856113b5565b34801561051d57600080fd5b50610432600081565b34801561053257600080fd5b5060765461054d90600160801b90046001600160801b031681565b6040516102c491906137f1565b34801561056657600080fd5b50606654610432906001600160a01b031681565b34801561058657600080fd5b50610385610595366004613787565b6113c7565b3480156105a657600080fd5b506102ba607d5481565b3480156105bc57600080fd5b506102ba6105cb3660046136b4565b607860209081526000928352604080842090915290825290205481565b3480156105f457600080fd5b5061063e61060336600461367b565b606f602052600090815260409020805460018201546002830154600390930154919290916001600160801b0380821691600160801b90041685565b604080519586526020860194909452928401919091526001600160801b03908116606084015216608082015260a0016102c4565b34801561067e57600080fd5b50606b546001600160a01b0316610432565b34801561069c57600080fd5b5061038561150a565b3480156106b157600080fd5b506102ba60755481565b3480156106c757600080fd5b50610432611574565b3480156106dc57600080fd5b50607c5461040290610100900460ff1681565b3480156106fb57600080fd5b50606d546102ba565b34801561071057600080fd5b50606a54610432906001600160a01b031681565b34801561073057600080fd5b506102ba61073f36600461367b565b611583565b34801561075057600080fd5b506102ba670de0b6b3a764000081565b34801561076c57600080fd5b506107996040518060400160405280600d81526020016c14dd18589a5b1a5d1e541bdbdb609a1b81525081565b6040516102c49190613829565b3480156107b257600080fd5b5060765461054d906001600160801b031681565b3480156107d257600080fd5b506102ba600080516020613cb983398151915281565b3480156107f457600080fd5b506102ba607a5481565b34801561080a57600080fd5b50606954610432906001600160a01b031681565b34801561082a57600080fd5b506102ba61083936600461367b565b61170f565b34801561084a57600080fd5b50610385610859366004613787565b606d55565b34801561086a57600080fd5b506102ba60705481565b34801561088057600080fd5b5061038561088f36600461385c565b6117b6565b3480156108a057600080fd5b506102ba6108af36600461367b565b6119c6565b3480156108c057600080fd5b506102ba633b9aca0081565b3480156108d857600080fd5b506102ba607b5481565b3480156108ee57600080fd5b506103856108fd366004613895565b611a5d565b34801561090e57600080fd5b5061038561091d36600461367b565b611b1f565b610385611b98565b34801561093657600080fd5b50606554610432906001600160a01b031681565b34801561095657600080fd5b5060715460725460735460745461063e939291906001600160801b0380821691600160801b90041685565b34801561098d57600080fd5b506102ba61099c36600461367b565b606e6020526000908152604090205481565b606560009054906101000a90046001600160a01b03166001600160a01b0316637f7dde4a6040518163ffffffff1660e01b8152600401602060405180830381865afa158015610a01573d6000803e3d6000fd5b505050506040513d601f19601f82011682018060405250810190610a2591906138c1565b6001600160a01b0316336001600160a01b031614610a9a5760405162461bcd60e51b815260206004820152602760248201527f53746162696c697479506f6f6c3a2043616c6c6572206973206e6f74204163746044820152661a5d99541bdbdb60ca1b60648201526084015b60405180910390fd5b565b6000610aa882846138f4565b90505b92915050565b6001600160a01b0381166000908152606e6020526040812054808203610ada5750600092915050565b6001600160a01b0383166000908152606f6020908152604091829020825160a081018452815481526001820154928101929092526002810154928201929092526003909101546001600160801b038082166060840152600160801b909104166080820152610b488282611baa565b949350505050565b607054600090808203610b6557600091505090565b6040805160a08101825260715481526072546020820152607354918101919091526074546001600160801b038082166060840152600160801b909104166080820152610bb2908290611c83565b91505090565b600080606560009054906101000a90046001600160a01b03166001600160a01b0316637f7dde4a6040518163ffffffff1660e01b8152600401602060405180830381865afa158015610c0e573d6000803e3d6000fd5b505050506040513d601f19601f82011682018060405250810190610c3291906138c1565b6001600160a01b031663631a53d4846040518263ffffffff1660e01b8152600401610c5d91906137c2565b602060405180830381865afa158015610c7a573d6000803e3d6000fd5b505050506040513d601f19601f82011682018060405250810190610c9e9190613907565b90506000606560009054906101000a90046001600160a01b03166001600160a01b0316633cc742256040518163ffffffff1660e01b8152600401602060405180830381865afa158015610cf5573d6000803e3d6000fd5b505050506040513d601f19601f82011682018060405250810190610d1991906138c1565b6001600160a01b031663631a53d4856040518263ffffffff1660e01b8152600401610d4491906137c2565b602060405180830381865afa158015610d61573d6000803e3d6000fd5b505050506040513d601f19601f82011682018060405250810190610d859190613907565b9050610b488282610a9c565b600054600160a81b900460ff1615808015610db957506000546001600160a01b90910460ff16105b80610de15750610dc830611d75565b158015610de15750600054600160a01b900460ff166001145b610e445760405162461bcd60e51b815260206004820152602e60248201527f496e697469616c697a61626c653a20636f6e747261637420697320616c72656160448201526d191e481a5b9a5d1a585b1a5e995960921b6064820152608401610a91565b6000805460ff60a01b1916600160a01b1790558015610e71576000805460ff60a81b1916600160a81b1790555b607c5460ff1615610eba5760405162461bcd60e51b8152602060048201526013602482015272105b1c9958591e481a5b9a5d1a585b1a5e9959606a1b6044820152606401610a91565b610ec388611d84565b610ecc87611d84565b610ed586611d84565b610ede85611d84565b610ee784611d84565b610ef083611d84565b607c805461ffff1916610101179055607d829055610f0c611e29565b6001600160a01b03891615610f2457610f2489611d84565b606b80546001600160a01b03199081166001600160a01b038c8116919091179092556066805482168b84161790556067805482168a8416179055606880548216898416179055606980548216888416179055606a8054909116918616919091179055610f8f83611363565b670de0b6b3a76400006075556040517f3ca631ffcd2a9b5d9ae18543fc82f58eb4ca33af9e6ab01b7a8e95331e6ed98590610fcb908a906137c2565b60405180910390a17f143219c9e69b09e07e095fcc889b43d8f46ca892bba65f08dc3a0050869a56788760405161100291906137c2565b60405180910390a17fffbb094c9e44d0e86f5ef0b73fc5fd37eb0b9f00e5d56a3e5a591c1f63ae93788660405161103991906137c2565b60405180910390a17f65f4cf077bc01e4742eb5ad98326f6e95b63548ea24b17f8d5e823111fe788008560405161107091906137c2565b60405180910390a17f3055265812fb8447b9ada4a5d804ec43bd528ec40e89c952bbc7b85dc5ac6811846040516110a791906137c2565b60405180910390a180156110f7576000805460ff60a81b19169055604051600181527f7f26b83ff96e1f2b6a682f133852f6798a09c465da95921460cefb38474024989060200160405180910390a15b505050505050505050565b801561111057611110611e5a565b336000908152606e602052604090205461112981612135565b606a546001600160a01b031661113e8161219e565b60006111493361170f565b9050600061115633610ab1565b90506000611163336112c4565b90506000611171878361220f565b9050600061117f8784612225565b905061118b8633612231565b6000611195610b50565b905060006111a38285612225565b90506111ae816123ec565b600080516020613d3983398151915281336040516111cd929190613920565b60405180910390a16111df3385612482565b60006111eb8686612225565b90506111f733826124fd565b6040518181523390600080516020613c998339815191529060200160405180910390a2336001600160a01b0316600080516020613d198339815191528986604051611243929190613937565b60405180910390a26112558888612630565b5050505050505050505050565b61126a612763565b606d54801580611278575082155b1561128257505050565b606a54611297906001600160a01b031661219e565b6000806112a58486856127cf565b915091506112b3828261289d565b6112bd8486612b53565b5050505050565b6001600160a01b0381166000908152606e60205260408120548082036112ed5750600092915050565b6001600160a01b0383166000908152606f6020908152604091829020825160a081018452815481526001820154928101929092526002810154928201929092526003909101546001600160801b038082166060840152600160801b90910416608082015261135c908290611c83565b9392505050565b61136b612d00565b606580546001600160a01b0319166001600160a01b0383169081179091556040517f98c5e303d085e26fdf8af6a41184b0937ed01142ae7fdfa02dcc87e7079c325390600090a250565b6113bd612d00565b610a9a6000612d5f565b6113d081612db1565b336000908152606e6020526040902054606a546001600160a01b03166113f58161219e565b60006114003361170f565b9050600061140d33610ab1565b9050600061141a336112c4565b905060006114288683612225565b90506114348533612231565b600061143e610b50565b9050600061144c828a610a9c565b9050611457816123ec565b600080516020613d398339815191528133604051611476929190613920565b60405180910390a1611488338a612e10565b6000611494858b610a9c565b90506114a033826124fd565b6040518181523390600080516020613c998339815191529060200160405180910390a2336001600160a01b0316600080516020613d1983398151915288866040516114ec929190613937565b60405180910390a26114fe8787612630565b50505050505050505050565b611512612d00565b607c805460ff610100808304821615810261ff001990931692909217928390556040517fb9f685b05f86f188fb8b7d7faaa088d1ae7e38218c7ee9d6533477f37560f8759361156a9390049091161515815260200190565b60405180910390a1565b6033546001600160a01b031690565b600080606560009054906101000a90046001600160a01b03166001600160a01b0316637f7dde4a6040518163ffffffff1660e01b8152600401602060405180830381865afa1580156115d9573d6000803e3d6000fd5b505050506040513d601f19601f820116820180604052508101906115fd91906138c1565b6001600160a01b0316635373433f846040518263ffffffff1660e01b815260040161162891906137c2565b602060405180830381865afa158015611645573d6000803e3d6000fd5b505050506040513d601f19601f820116820180604052508101906116699190613907565b90506000606560009054906101000a90046001600160a01b03166001600160a01b0316633cc742256040518163ffffffff1660e01b8152600401602060405180830381865afa1580156116c0573d6000803e3d6000fd5b505050506040513d601f19601f820116820180604052508101906116e491906138c1565b6001600160a01b0316635373433f856040518263ffffffff1660e01b8152600401610d4491906137c2565b6001600160a01b0381166000908152606e60205260408120548082036117385750600092915050565b6001600160a01b038084166000908152606f6020908152604091829020825160a081018452815481526001820154928101929092526002810154928201929092526003909101546001600160801b038082166060840152600160801b909104166080820152606b549091610b4891166117b18484611baa565b612eac565b336000908152606e60205260409020546117cf81612135565b6117d833612f75565b6117e133613061565b606a546001600160a01b03166117f68161219e565b600061180133610ab1565b9050600061180e336112c4565b9050600061181c8583612225565b90506118288433612231565b6000611832610b50565b905061183d816123ec565b600080516020613d39833981519152813360405161185c929190613920565b60405180910390a161186e33846124fd565b336001600160a01b0316600080516020613d198339815191528584604051611897929190613937565b60405180910390a26040518381523390600080516020613c998339815191529060200160405180910390a2606c546118cf9085612225565b606c819055604051908152600080516020613c198339815191529060200160405180910390a1600080516020613c598339815191523385604051611914929190613945565b60405180910390a1606654606b546001600160a01b039182169163501414f5911615611941576000611943565b855b606b5460405160e084901b6001600160e01b03191681526001600160a01b039182166004820152602481018990523360448201528c82166064820152908b16608482015260a4016000604051808303818588803b1580156119a357600080fd5b505af11580156119b7573d6000803e3d6000fd5b50505050505050505050505050565b6001600160a01b0381166000908152606e60205260408120548082036119ef5750600092915050565b6001600160a01b0383166000908152606f6020908152604091829020825160a081018452815481526001820154928101929092526002810154928201929092526003909101546001600160801b038082166060840152600160801b909104166080820152610b4882826130c6565b611a656109ae565b606b546001600160a01b03838116911614611ad55760405162461bcd60e51b815260206004820152602a60248201527f526563656976696e67207468652077726f6e6720617373657420696e20537461604482015269189a5b1a5d1e541bdbdb60b21b6064820152608401610a91565b606b546001600160a01b031615611b1b57606c54611af39082610a9c565b606c819055604051908152600080516020613c19833981519152906020015b60405180910390a15b5050565b611b27612d00565b6001600160a01b038116611b8c5760405162461bcd60e51b815260206004820152602660248201527f4f776e61626c653a206e6577206f776e657220697320746865207a65726f206160448201526564647265737360d01b6064820152608401610a91565b611b9581612d5f565b50565b606c54611ba59034610a9c565b606c55565b6080810151606082015182516020808501516001600160801b03808616600090815260778452604080822092871682529190935282205491949392918590611bf29084612225565b6001600160801b03808716600090815260776020526040812092935091611c4991633b9aca0091908490611c29908a166001613142565b6001600160801b03168152602081019190915260400160002054906131bf565b90506000611c75670de0b6b3a7640000611c6f8681611c688888610a9c565b8f906131cb565b906131bf565b9a9950505050505050505050565b6020810151606082015160808301516076546000939291906001600160801b03600160801b90910481169082161015611cc25760009350505050610aab565b6076546000908190611cdd906001600160801b0316856131d7565b9050806001600160801b0316600003611d1057611d0985611c6f6075548b6131cb90919063ffffffff16565b9150611d47565b806001600160801b0316600103611d4257611d09633b9aca00611c6f87611c6f6075548d6131cb90919063ffffffff16565b600091505b611d5588633b9aca006131bf565b821015611d6a57600095505050505050610aab565b509695505050505050565b6001600160a01b03163b151590565b6001600160a01b038116611dda5760405162461bcd60e51b815260206004820152601e60248201527f4163636f756e742063616e6e6f74206265207a65726f206164647265737300006044820152606401610a91565b803b80611b1b5760405162461bcd60e51b815260206004820181905260248201527f4163636f756e7420636f64652073697a652063616e6e6f74206265207a65726f6044820152606401610a91565b600054600160a81b900460ff16611e525760405162461bcd60e51b8152600401610a919061395e565b610a9a613256565b60655460408051633a0df78d60e11b815290516000926001600160a01b03169163741bef1a9160048083019260209291908290030181865afa158015611ea4573d6000803e3d6000fd5b505050506040513d601f19601f82011682018060405250810190611ec891906138c1565b606b54604051635670bcc760e11b81526001600160a01b039283169263ace1798e92611ef9929116906004016137c2565b6020604051808303816000875af1158015611f18573d6000803e3d6000fd5b505050506040513d601f19601f82011682018060405250810190611f3c9190613907565b606954606b54604051637608271560e01b81529293506000926001600160a01b0392831692637608271592611f76929116906004016137c2565b602060405180830381865afa158015611f93573d6000803e3d6000fd5b505050506040513d601f19601f82011682018060405250810190611fb791906138c1565b606754606b5460405163b1eafaab60e01b81529293506000926001600160a01b039283169263b1eafaab92611ff592911690869088906004016139a9565b602060405180830381865afa158015612012573d6000803e3d6000fd5b505050506040513d601f19601f820116820180604052508101906120369190613907565b606554606b546040516305f8cff960e01b81529293506001600160a01b03918216926305f8cff99261206c9216906004016137c2565b602060405180830381865afa158015612089573d6000803e3d6000fd5b505050506040513d601f19601f820116820180604052508101906120ad9190613907565b8110156121305760405162461bcd60e51b8152602060048201526044602482018190527f53746162696c697479506f6f6c3a2043616e6e6f742077697468647261772077908201527f68696c65207468657265206172652074726f766573207769746820494352203c6064820152631026a1a960e11b608482015260a401610a91565b505050565b60008111611b955760405162461bcd60e51b815260206004820152603060248201527f53746162696c697479506f6f6c3a2055736572206d757374206861766520612060448201526f1b9bdb8b5e995c9bc819195c1bdcda5d60821b6064820152608401610a91565b6000816001600160a01b031663a2f126f06040518163ffffffff1660e01b81526004016020604051808303816000875af11580156121e0573d6000803e3d6000fd5b505050506040513d601f19601f820116820180604052508101906122049190613907565b9050611b1b81613288565b600081831061221e5781610aa8565b5090919050565b6000610aa882846139cd565b600061223c826119c6565b607c54909150610100900460ff161561234457606854607d546001600160a01b039091169063a9059cbb90849061227b85670de0b6b3a76400006139e0565b61228591906139f7565b6040518363ffffffff1660e01b81526004016122a2929190613945565b6020604051808303816000875af11580156122c1573d6000803e3d6000fd5b505050506040513d601f19601f820116820180604052508101906122e59190613a19565b507fe160dfcb2380169c057c54be3cff79a2910c3d3f1d7b2ec1ae4c44bcfc660af482607d5483670de0b6b3a764000061231f91906139e0565b61232991906139f7565b604051612337929190613945565b60405180910390a1505050565b6040516373d6939160e01b81526001600160a01b038416906373d69391906123729085908590600401613945565b600060405180830381600087803b15801561238c57600080fd5b505af11580156123a0573d6000803e3d6000fd5b50505050816001600160a01b03167fa867fd6c2d9c2e2ab8b79962b9743e5f2766510bac947b4ad8b904765c372d68826040516123df91815260200190565b60405180910390a2505050565b60708190556076546075546001600160801b03600160801b8084048216600081815260786020908152604080832095909716808352949052859020546072859055607381905591810283176074559351607194929391907fb9388978b54026c51c20e3972ba5ed79bca3fc98beb4d005b4ae633b14db9718906124729084908490613937565b60405180910390a1505050505050565b8060000361248e575050565b606854604051631062c15f60e11b81526001600160a01b03909116906320c582be906124c2903090869086906004016139a9565b600060405180830381600087803b1580156124dc57600080fd5b505af11580156124f0573d6000803e3d6000fd5b50505050611b1b81613391565b6001600160a01b0382166000908152606e60205260408120829055819003612579576001600160a01b0382166000818152606f6020526040808220828155600181018390556002810183905560030182905551600080516020613c398339815191529161256d9181908190613a3b565b60405180910390a25050565b6076546075546001600160801b03600160801b808404821660008181526077602090815260408083209590971680835294815286822054838352607882528783208684528252878320546001600160a01b038b16808552606f909352928890206001810188905581815560028101849055948402861760038601559651949692959492939192600080516020613c398339815191529061261e90879087908790613a3b565b60405180910390a25050505050505050565b8160000361263c575050565b606c546126499082612225565b606c55606b546001600160a01b031661270457604051600090339083908381818185875af1925050503d806000811461269e576040519150601f19603f3d011682016040523d82523d6000602084013e6126a3565b606091505b50509050806126fe5760405162461bcd60e51b815260206004820152602160248201527f53746162696c697479506f6f6c3a2073656e64696e6720455448206661696c656044820152601960fa1b6064820152608401610a91565b5061271b565b606b5461271b906001600160a01b031633846133c7565b600080516020613c19833981519152606c5460405161273c91815260200190565b60405180910390a1600080516020613c598339815191523383604051611b12929190613945565b6067546001600160a01b03163314610a9a5760405162461bcd60e51b815260206004820152602960248201527f53746162696c697479506f6f6c3a2043616c6c6572206973206e6f742054726f6044820152683b32a6b0b730b3b2b960b91b6064820152608401610a91565b60008060006127fb607a546127f5670de0b6b3a7640000896131cb90919063ffffffff16565b90610a9c565b90508385111561280d5761280d613a51565b838503612829576000607b55670de0b6b3a76400009150612871565b607b5460009061284b9061284588670de0b6b3a76400006131cb565b90612225565b905061285c60016127f583886131bf565b925061286c8161284585886131cb565b607b55505b61287b81856131bf565b925061289161288a84866131cb565b8290612225565b607a5550935093915050565b6075546000670de0b6b3a76400008311156128ba576128ba613a51565b60006128ce670de0b6b3a764000085612225565b6076546001600160801b03600160801b82048116600081815260776020908152604080832094909516808352939052928320549394509092909161291289886131cb565b905060006129208383610a9c565b6001600160801b038086166000908152607760209081526040808320938a168352929052819020829055519091507fe12e2cd2c9afa8069203ca07e7eff1edce4a075686d0736a8e7e0d593597b2079061297f90839087908990613a67565b60405180910390a185600003612a43576129a36001600160801b0385166001613142565b607680546001600160801b03908116600160801b938216840217918290556040517fb50f0f59e7cb5b421dc77581c3a9919e3806e076e5fa78a874c3f120cb7d874d936129f49304909116906137f1565b60405180910390a1607680546001600160801b0319169055604051600080516020613cf983398151915290612a2b906000906137f1565b60405180910390a1670de0b6b3a76400009650612aff565b633b9aca00612a5e670de0b6b3a7640000611c6f8b8a6131cb565b1015612ae657612a88670de0b6b3a7640000611c6f633b9aca00612a828c8b6131cb565b906131cb565b9650612a9e6001600160801b0386166001613142565b607680546001600160801b0319166001600160801b03929092169182179055604051600080516020613cf983398151915291612ad9916137f1565b60405180910390a1612aff565b612afc670de0b6b3a7640000611c6f8a896131cb565b96505b60008711612b0f57612b0f613a51565b60758790556040518781527fc1a9618cb59ebca77cbdbc2949f126823c407ff13edb285fd0262519a9c18e8c9060200160405180910390a150505050505050505050565b60655460408051633fbeef2560e11b815290516000926001600160a01b031691637f7dde4a9160048083019260209291908290030181865afa158015612b9d573d6000803e3d6000fd5b505050506040513d601f19601f82011682018060405250810190612bc191906138c1565b606b54604051631197fc7160e01b81529192506001600160a01b0380841692631197fc7192612bf69216908690600401613945565b600060405180830381600087803b158015612c1057600080fd5b505af1158015612c24573d6000803e3d6000fd5b50505050612c3182613391565b606854604051632770a7eb60e21b81526001600160a01b0390911690639dc29fac90612c639030908690600401613945565b600060405180830381600087803b158015612c7d57600080fd5b505af1158015612c91573d6000803e3d6000fd5b5050606b546040516347878f1560e01b81526001600160a01b0380861694506347878f159350612cc9921690309088906004016139a9565b600060405180830381600087803b158015612ce357600080fd5b505af1158015612cf7573d6000803e3d6000fd5b50505050505050565b33612d09611574565b6001600160a01b031614610a9a5760405162461bcd60e51b815260206004820181905260248201527f4f776e61626c653a2063616c6c6572206973206e6f7420746865206f776e65726044820152606401610a91565b603380546001600160a01b038381166001600160a01b0319831681179093556040519116919082907f8be0079c531659141344cd1fd0a4f28419497f9722a3daafe3b4186f6b6457e090600090a35050565b60008111611b955760405162461bcd60e51b815260206004820152602660248201527f53746162696c697479506f6f6c3a20416d6f756e74206d757374206265206e6f6044820152656e2d7a65726f60d01b6064820152608401610a91565b606854604051632ee65eeb60e21b81526001600160a01b039091169063bb997bac90612e44908590309086906004016139a9565b600060405180830381600087803b158015612e5e57600080fd5b505af1158015612e72573d6000803e3d6000fd5b5050606d5460009250612e86915083610a9c565b606d819055604051818152909150600080516020613c7983398151915290602001612337565b60006001600160a01b038316612ec3575080610aab565b81600003612ed357506000610aab565b6000836001600160a01b031663313ce5676040518163ffffffff1660e01b8152600401602060405180830381865afa158015612f13573d6000803e3d6000fd5b505050506040513d601f19601f82011682018060405250810190612f379190613a86565b905060128160ff161015612f6d57612f65612f53826012613aa9565b612f5e90600a613ba6565b84906131bf565b915050610aab565b509092915050565b606754606b5460405163614d120960e01b81526001600160a01b039182166004820152838216602482015291169063614d120990604401602060405180830381865afa158015612fc9573d6000803e3d6000fd5b505050506040513d601f19601f82011682018060405250810190612fed9190613907565b600114611b955760405162461bcd60e51b81526020600482015260486024820152600080516020613cd983398151915260448201527f616e206163746976652074726f766520746f2077697468647261772041737365606482015267744761696e20746f60c01b608482015260a401610a91565b600061306c8261170f565b905060008111611b1b5760405162461bcd60e51b81526020600482015260316024820152600080516020613cd98339815191526044820152703737b716bd32b9379022aa241023b0b4b760791b6064820152608401610a91565b608081015160608201516040808401516020808601516001600160801b0380871660009081526078845285812091871681529252928120549094939290859061310f9084612225565b6001600160801b03808716600090815260786020526040812092935091611c4991633b9aca0091908490611c29908a1660015b60008061314f8385613bb5565b9050836001600160801b0316816001600160801b03161015610aa85760405162461bcd60e51b815260206004820152602360248201527f5665737461536166654d6174683132383a206164646974696f6e206f766572666044820152626c6f7760e81b6064820152608401610a91565b6000610aa882846139f7565b6000610aa882846139e0565b6000826001600160801b0316826001600160801b0316111561324a5760405162461bcd60e51b815260206004820152602660248201527f5665737461536166654d6174683132383a207375627472616374696f6e206f766044820152656572666c6f7760d01b6064820152608401610a91565b6000610b488385613bdc565b600054600160a81b900460ff1661327f5760405162461bcd60e51b8152600401610a919061395e565b610a9a33612d5f565b606d54801580613296575081155b1561329f575050565b60006132ab838361341d565b905060006132c4607554836131cb90919063ffffffff16565b6076546001600160801b03600160801b8204811660009081526078602090815260408083209390941682529190915220549091506133029082610a9c565b607680546001600160801b03600160801b80830482166000908152607860208181526040808420968616845295815285832097909755945491820483168082529486528381209190921680835294528190205490517f2d6127771b164a9cc8827d24b5955db2a77e7a81dac389107ebb8bce9fb64968936133839391613a67565b60405180910390a150505050565b606d546000906133a19083612225565b606d819055604051818152909150600080516020613c7983398151915290602001611b12565b6121308363a9059cbb60e01b84846040516024016133e6929190613945565b60408051601f198184030181529190526020810180516001600160e01b03166001600160e01b031990931692909217909152613470565b6000806134416079546127f5670de0b6b3a7640000876131cb90919063ffffffff16565b9050600061344f82856131bf565b905061346561345e82866131cb565b8390612225565b607955949350505050565b60006134c5826040518060400160405280602081526020017f5361666545524332303a206c6f772d6c6576656c2063616c6c206661696c6564815250856001600160a01b03166135459092919063ffffffff16565b90508051600014806134e65750808060200190518101906134e69190613a19565b6121305760405162461bcd60e51b815260206004820152602a60248201527f5361666545524332303a204552433230206f7065726174696f6e20646964206e6044820152691bdd081cdd58d8d9595960b21b6064820152608401610a91565b6060610b48848460008585600080866001600160a01b0316858760405161356c9190613bfc565b60006040518083038185875af1925050503d80600081146135a9576040519150601f19603f3d011682016040523d82523d6000602084013e6135ae565b606091505b50915091506135bf878383876135ca565b979650505050505050565b60608315613637578251600003613630576135e485611d75565b6136305760405162461bcd60e51b815260206004820152601d60248201527f416464726573733a2063616c6c20746f206e6f6e2d636f6e74726163740000006044820152606401610a91565b5081610b48565b610b48838381511561364c5781518083602001fd5b8060405162461bcd60e51b8152600401610a919190613829565b6001600160a01b0381168114611b9557600080fd5b60006020828403121561368d57600080fd5b8135610aa881613666565b80356001600160801b03811681146136af57600080fd5b919050565b600080604083850312156136c757600080fd5b6136d083613698565b91506136de60208401613698565b90509250929050565b600080600080600080600080610100898b03121561370457600080fd5b883561370f81613666565b9750602089013561371f81613666565b9650604089013561372f81613666565b9550606089013561373f81613666565b9450608089013561374f81613666565b935060a089013561375f81613666565b925060c089013561376f81613666565b8092505060e089013590509295985092959890939650565b60006020828403121561379957600080fd5b5035919050565b600080604083850312156137b357600080fd5b50508035926020909101359150565b6001600160a01b0391909116815260200190565b6000602082840312156137e857600080fd5b610aa882613698565b6001600160801b0391909116815260200190565b60005b83811015613820578181015183820152602001613808565b50506000910152565b6020815260008251806020840152613848816040850160208701613805565b601f01601f19169190910160400192915050565b6000806040838503121561386f57600080fd5b823561387a81613666565b9150602083013561388a81613666565b809150509250929050565b600080604083850312156138a857600080fd5b82356138b381613666565b946020939093013593505050565b6000602082840312156138d357600080fd5b8151610aa881613666565b634e487b7160e01b600052601160045260246000fd5b80820180821115610aab57610aab6138de565b60006020828403121561391957600080fd5b5051919050565b9182526001600160a01b0316602082015260400190565b918252602082015260400190565b6001600160a01b03929092168252602082015260400190565b6020808252602b908201527f496e697469616c697a61626c653a20636f6e7472616374206973206e6f74206960408201526a6e697469616c697a696e6760a81b606082015260800190565b6001600160a01b039384168152919092166020820152604081019190915260600190565b81810381811115610aab57610aab6138de565b8082028115828204841417610aab57610aab6138de565b600082613a1457634e487b7160e01b600052601260045260246000fd5b500490565b600060208284031215613a2b57600080fd5b81518015158114610aa857600080fd5b9283526020830191909152604082015260600190565b634e487b7160e01b600052600160045260246000fd5b9283526001600160801b03918216602084015216604082015260600190565b600060208284031215613a9857600080fd5b815160ff81168114610aa857600080fd5b60ff8281168282160390811115610aab57610aab6138de565b600181815b80851115613afd578160001904821115613ae357613ae36138de565b80851615613af057918102915b93841c9390800290613ac7565b509250929050565b600082613b1457506001610aab565b81613b2157506000610aab565b8160018114613b375760028114613b4157613b5d565b6001915050610aab565b60ff841115613b5257613b526138de565b50506001821b610aab565b5060208310610133831016604e8410600b8410161715613b80575081810a610aab565b613b8a8383613ac2565b8060001904821115613b9e57613b9e6138de565b029392505050565b6000610aa860ff841683613b05565b6001600160801b03818116838216019080821115613bd557613bd56138de565b5092915050565b6001600160801b03828116828216039080821115613bd557613bd56138de565b60008251613c0e818460208701613805565b919091019291505056feda08342aeb056fbb00fd5a62a4033b8f6496e358fd964a431042595d762afbaf2d6cc0bcdf72c9486f6451bde6b80f44066f4558f77f44dbfedbe7d8b295225ac4dfa259771b0ed50b100eaf04734dad1b094a866d9d285c59180cde3f3f45e832449ddbf0a02db8444d6687307ae4024de6db36dc09c3d5667fa71d6bffaa9ebce78369dccab09eec1986f4d409ab09ffbb47d65423e5148fcf98411c5111c9f704b47f65a99b2219b7213612db4be4a436cdf50624f4baca1373ef0de0aac753746162696c697479506f6f6c3a2063616c6c6572206d7573742068617665201f9dfc70cd666adb18a39d60a797518f7b4febf4b6e24ef37d44f6e1e7219fbe3807eb27e116be27b5a2c63478a4f4029945291386db0b94d494102430cab67c02a5b2bd0f6030e3d5dfb2ee2b5bcf058fe8526dabf91b58b2d5d53d0f02dc04a2646970667358221220f5065ac1fe2b08e43468b5462f6097978bd70fbbfecd1c2d7554ffab5e43bba864736f6c63430008110033",
  "linkReferences": {},
  "deployedLinkReferences": {}
}