{
  "_format": "hh-sol-artifact-1",
  "contractName": "MockAggregator",
  "sourceName": "contracts/TestContracts/MockAggregator.sol",
  "abi": [
    {
      "inputs": [],
      "name": "decimals",
      "outputs": [
        {
          "internalType": "uint8",
          "name": "",
          "type": "uint8"
        }
      ],
      "stateMutability": "view",
      "type": "function"
    },
    {
      "inputs": [],
      "name": "description",
      "outputs": [
        {
          "internalType": "string",
          "name": "",
          "type": "string"
        }
      ],
      "stateMutability": "pure",
      "type": "function"
    },
    {
      "inputs": [
        {
          "internalType": "uint80",
          "name": "",
          "type": "uint80"
        }
      ],
      "name": "getRoundData",
      "outputs": [
        {
          "internalType": "uint80",
          "name": "roundId",
          "type": "uint80"
        },
        {
          "internalType": "int256",
          "name": "answer",
          "type": "int256"
        },
        {
          "internalType": "uint256",
          "name": "startedAt",
          "type": "uint256"
        },
        {
          "internalType": "uint256",
          "name": "updatedAt",
          "type": "uint256"
        },
        {
          "internalType": "uint80",
          "name": "answeredInRound",
          "type": "uint80"
        }
      ],
      "stateMutability": "view",
      "type": "function"
    },
    {
      "inputs": [],
      "name": "latestRoundData",
      "outputs": [
        {
          "internalType": "uint80",
          "name": "roundId",
          "type": "uint80"
        },
        {
          "internalType": "int256",
          "name": "answer",
          "type": "int256"
        },
        {
          "internalType": "uint256",
          "name": "startedAt",
          "type": "uint256"
        },
        {
          "internalType": "uint256",
          "name": "updatedAt",
          "type": "uint256"
        },
        {
          "internalType": "uint80",
          "name": "answeredInRound",
          "type": "uint80"
        }
      ],
      "stateMutability": "view",
      "type": "function"
    },
    {
      "inputs": [
        {
          "internalType": "uint8",
          "name": "_decimals",
          "type": "uint8"
        }
      ],
      "name": "setDecimals",
      "outputs": [],
      "stateMutability": "nonpayable",
      "type": "function"
    },
    {
      "inputs": [],
      "name": "setDecimalsRevert",
      "outputs": [],
      "stateMutability": "nonpayable",
      "type": "function"
    },
    {
      "inputs": [],
      "name": "setLatestRevert",
      "outputs": [],
      "stateMutability": "nonpayable",
      "type": "function"
    },
    {
      "inputs": [
        {
          "internalType": "uint80",
          "name": "_latestRoundId",
          "type": "uint80"
        }
      ],
      "name": "setLatestRoundId",
      "outputs": [],
      "stateMutability": "nonpayable",
      "type": "function"
    },
    {
      "inputs": [
        {
          "internalType": "int256",
          "name": "_prevPrice",
          "type": "int256"
        }
      ],
      "name": "setPrevPrice",
      "outputs": [],
      "stateMutability": "nonpayable",
      "type": "function"
    },
    {
      "inputs": [],
      "name": "setPrevRevert",
      "outputs": [],
      "stateMutability": "nonpayable",
      "type": "function"
    },
    {
      "inputs": [
        {
          "internalType": "uint80",
          "name": "_prevRoundId",
          "type": "uint80"
        }
      ],
      "name": "setPrevRoundId",
      "outputs": [],
      "stateMutability": "nonpayable",
      "type": "function"
    },
    {
      "inputs": [
        {
          "internalType": "uint256",
          "name": "_prevUpdateTime",
          "type": "uint256"
        }
      ],
      "name": "setPrevUpdateTime",
      "outputs": [],
      "stateMutability": "nonpayable",
      "type": "function"
    },
    {
      "inputs": [
        {
          "internalType": "int256",
          "name": "_price",
          "type": "int256"
        }
      ],
      "name": "setPrice",
      "outputs": [],
      "stateMutability": "nonpayable",
      "type": "function"
    },
    {
      "inputs": [
        {
          "internalType": "uint256",
          "name": "_updateTime",
          "type": "uint256"
        }
      ],
      "name": "setUpdateTime",
      "outputs": [],
      "stateMutability": "nonpayable",
      "type": "function"
    },
    {
      "inputs": [],
      "name": "version",
      "outputs": [
        {
          "internalType": "uint256",
          "name": "",
          "type": "uint256"
        }
      ],
      "stateMutability": "pure",
      "type": "function"
    }
  ],
  "bytecode": "0x60806040526000805460ff1916600817905534801561001d57600080fd5b506104fe8061002d6000396000f3fe608060405234801561001057600080fd5b50600436106100c55760003560e01c806313886538146100ca57806329ccf0cf146100df578063313ce5671461010057806354fd4d501461011f57806366543a6c1461012e5780637134b9901461014f5780637284e4161461017f5780637394e7891461019957806375354ffa146101ac5780637a1395aa146101e65780639a6fc8f51461020a578063a68e594514610251578063bf73eea614610272578063f7a3080614610285578063feaf968c14610298575b600080fd5b6100dd6100d836600461040e565b600255565b005b6005805460ff60b01b198116600160b01b9182900460ff1615909102179055005b6101086102a0565b60405160ff90911681526020015b60405180910390f35b60405160018152602001610116565b6005805460ff60a01b198116600160a01b9182900460ff1615909102179055005b6100dd61015d366004610427565b600580546001600160501b0319166001600160501b0392909216919091179055565b604080516020810182526000815290516101169190610457565b6100dd6101a736600461040e565b600455565b6100dd6101ba366004610427565b600580546001600160501b03909216600160501b02600160501b600160a01b0319909216919091179055565b6100dd6101f43660046104a5565b6000805460ff191660ff92909216919091179055565b61021d610218366004610427565b610300565b604080516001600160501b03968716815260208101959095528401929092526060830152909116608082015260a001610116565b6005805460ff60a81b198116600160a81b9182900460ff1615909102179055005b6100dd61028036600461040e565b600355565b6100dd61029336600461040e565b600155565b61021d610389565b600554600090600160b01b900460ff16156102f65760405162461bcd60e51b8152602060048201526011602482015270191958da5b585b1cc81c995d995c9d1959607a1b60448201526064015b60405180910390fd5b5060005460ff1690565b6000806000806000600560159054906101000a900460ff161561035d5760405162461bcd60e51b815260206004820152601560248201527419d95d149bdd5b9911185d18481c995d995c9d1959605a1b60448201526064016102ed565b5050600554600254600354600160501b9092046001600160501b03169690955060009450909250839150565b6000806000806000600560149054906101000a900460ff16156103e95760405162461bcd60e51b81526020600482015260186024820152771b185d195cdd149bdd5b9911185d18481c995d995c9d195960421b60448201526064016102ed565b50506005546001546003546001600160501b0390921695909450600093509091508290565b60006020828403121561042057600080fd5b5035919050565b60006020828403121561043957600080fd5b81356001600160501b038116811461045057600080fd5b9392505050565b600060208083528351808285015260005b8181101561048457858101830151858201604001528201610468565b506000604082860101526040601f19601f8301168501019250505092915050565b6000602082840312156104b757600080fd5b813560ff8116811461045057600080fdfea26469706673582212206af77b7b0fa6f5798d129bf4d225d13b8040ae516cb830867a913fbf593b59d564736f6c63430008110033",
  "linkReferences": {},
  "deployedLinkReferences": {}
}