{
  "_format": "hh-sol-artifact-1",
  "contractName": "ActivePoolTester",
  "sourceName": "contracts/TestContracts/ActivePoolTester.sol",
  "abi": [
    {
      "inputs": [],
      "name": "IsNotWstETH",
      "type": "error"
    },
    {
      "anonymous": false,
      "inputs": [
        {
          "indexed": false,
          "internalType": "address",
          "name": "_newActivePoolAddress",
          "type": "address"
        }
      ],
      "name": "ActivePoolAddressChanged",
      "type": "event"
    },
    {
      "anonymous": false,
      "inputs": [
        {
          "indexed": false,
          "internalType": "address",
          "name": "_asset",
          "type": "address"
        },
        {
          "indexed": false,
          "internalType": "uint256",
          "name": "_balance",
          "type": "uint256"
        }
      ],
      "name": "ActivePoolAssetBalanceUpdated",
      "type": "event"
    },
    {
      "anonymous": false,
      "inputs": [
        {
          "indexed": false,
          "internalType": "address",
          "name": "_asset",
          "type": "address"
        },
        {
          "indexed": false,
          "internalType": "uint256",
          "name": "_UDebt",
          "type": "uint256"
        }
      ],
      "name": "ActivePoolUDebtUpdated",
      "type": "event"
    },
    {
      "anonymous": false,
      "inputs": [
        {
          "indexed": false,
          "internalType": "address",
          "name": "_assetAddress",
          "type": "address"
        }
      ],
      "name": "AssetAddressChanged",
      "type": "event"
    },
    {
      "anonymous": false,
      "inputs": [
        {
          "indexed": false,
          "internalType": "uint256",
          "name": "_newBalance",
          "type": "uint256"
        }
      ],
      "name": "AssetBalanceUpdated",
      "type": "event"
    },
    {
      "anonymous": false,
      "inputs": [
        {
          "indexed": false,
          "internalType": "address",
          "name": "_to",
          "type": "address"
        },
        {
          "indexed": true,
          "internalType": "address",
          "name": "_asset",
          "type": "address"
        },
        {
          "indexed": false,
          "internalType": "uint256",
          "name": "_amount",
          "type": "uint256"
        }
      ],
      "name": "AssetSent",
      "type": "event"
    },
    {
      "anonymous": false,
      "inputs": [
        {
          "indexed": false,
          "internalType": "address",
          "name": "_newBorrowerOperationsAddress",
          "type": "address"
        }
      ],
      "name": "BorrowerOperationsAddressChanged",
      "type": "event"
    },
    {
      "anonymous": false,
      "inputs": [
        {
          "indexed": false,
          "internalType": "address",
          "name": "_newDefaultPoolAddress",
          "type": "address"
        }
      ],
      "name": "DefaultPoolAddressChanged",
      "type": "event"
    },
    {
      "anonymous": false,
      "inputs": [
        {
          "indexed": false,
          "internalType": "uint8",
          "name": "version",
          "type": "uint8"
        }
      ],
      "name": "Initialized",
      "type": "event"
    },
    {
      "anonymous": false,
      "inputs": [
        {
          "indexed": true,
          "internalType": "address",
          "name": "previousOwner",
          "type": "address"
        },
        {
          "indexed": true,
          "internalType": "address",
          "name": "newOwner",
          "type": "address"
        }
      ],
      "name": "OwnershipTransferred",
      "type": "event"
    },
    {
      "anonymous": false,
      "inputs": [
        {
          "indexed": false,
          "internalType": "address",
          "name": "_newStabilityPoolAddress",
          "type": "address"
        }
      ],
      "name": "StabilityPoolAddressChanged",
      "type": "event"
    },
    {
      "anonymous": false,
      "inputs": [
        {
          "indexed": false,
          "internalType": "address",
          "name": "_newTroveManagerAddress",
          "type": "address"
        }
      ],
      "name": "TroveManagerAddressChanged",
      "type": "event"
    },
    {
      "anonymous": false,
      "inputs": [
        {
          "indexed": false,
          "internalType": "uint256",
          "name": "_newBalance",
          "type": "uint256"
        }
      ],
      "name": "UBalanceUpdated",
      "type": "event"
    },
    {
      "inputs": [],
      "name": "NAME",
      "outputs": [
        {
          "internalType": "string",
          "name": "",
          "type": "string"
        }
      ],
      "stateMutability": "view",
      "type": "function"
    },
    {
      "inputs": [],
      "name": "borrowerOperationsAddress",
      "outputs": [
        {
          "internalType": "address",
          "name": "",
          "type": "address"
        }
      ],
      "stateMutability": "view",
      "type": "function"
    },
    {
      "inputs": [],
      "name": "collSurplusPool",
      "outputs": [
        {
          "internalType": "contract ICollSurplusPool",
          "name": "",
          "type": "address"
        }
      ],
      "stateMutability": "view",
      "type": "function"
    },
    {
      "inputs": [
        {
          "internalType": "address",
          "name": "_asset",
          "type": "address"
        },
        {
          "internalType": "uint256",
          "name": "_amount",
          "type": "uint256"
        }
      ],
      "name": "decreaseUDebt",
      "outputs": [],
      "stateMutability": "nonpayable",
      "type": "function"
    },
    {
      "inputs": [],
      "name": "defaultPool",
      "outputs": [
        {
          "internalType": "contract IDefaultPool",
          "name": "",
          "type": "address"
        }
      ],
      "stateMutability": "view",
      "type": "function"
    },
    {
      "inputs": [
        {
          "internalType": "address",
          "name": "_asset",
          "type": "address"
        }
      ],
      "name": "getAssetBalance",
      "outputs": [
        {
          "internalType": "uint256",
          "name": "",
          "type": "uint256"
        }
      ],
      "stateMutability": "view",
      "type": "function"
    },
    {
      "inputs": [
        {
          "internalType": "address",
          "name": "_asset",
          "type": "address"
        }
      ],
      "name": "getUDebt",
      "outputs": [
        {
          "internalType": "uint256",
          "name": "",
          "type": "uint256"
        }
      ],
      "stateMutability": "view",
      "type": "function"
    },
    {
      "inputs": [
        {
          "internalType": "address",
          "name": "_asset",
          "type": "address"
        },
        {
          "internalType": "uint256",
          "name": "_amount",
          "type": "uint256"
        }
      ],
      "name": "increaseUDebt",
      "outputs": [],
      "stateMutability": "nonpayable",
      "type": "function"
    },
    {
      "inputs": [],
      "name": "isInitialized",
      "outputs": [
        {
          "internalType": "bool",
          "name": "",
          "type": "bool"
        }
      ],
      "stateMutability": "view",
      "type": "function"
    },
    {
      "inputs": [],
      "name": "owner",
      "outputs": [
        {
          "internalType": "address",
          "name": "",
          "type": "address"
        }
      ],
      "stateMutability": "view",
      "type": "function"
    },
    {
      "inputs": [
        {
          "internalType": "address",
          "name": "_asset",
          "type": "address"
        },
        {
          "internalType": "uint256",
          "name": "_amount",
          "type": "uint256"
        }
      ],
      "name": "receivedERC20",
      "outputs": [],
      "stateMutability": "nonpayable",
      "type": "function"
    },
    {
      "inputs": [],
      "name": "redemptionManagerAddress",
      "outputs": [
        {
          "internalType": "address",
          "name": "",
          "type": "address"
        }
      ],
      "stateMutability": "view",
      "type": "function"
    },
    {
      "inputs": [],
      "name": "renounceOwnership",
      "outputs": [],
      "stateMutability": "nonpayable",
      "type": "function"
    },
    {
      "inputs": [
        {
          "internalType": "address",
          "name": "_asset",
          "type": "address"
        },
        {
          "internalType": "address",
          "name": "_account",
          "type": "address"
        },
        {
          "internalType": "uint256",
          "name": "_amount",
          "type": "uint256"
        }
      ],
      "name": "sendAsset",
      "outputs": [],
      "stateMutability": "nonpayable",
      "type": "function"
    },
    {
      "inputs": [
        {
          "internalType": "address",
          "name": "_borrowerOperationsAddress",
          "type": "address"
        },
        {
          "internalType": "address",
          "name": "_troveManagerAddress",
          "type": "address"
        },
        {
          "internalType": "address",
          "name": "_stabilityManagerAddress",
          "type": "address"
        },
        {
          "internalType": "address",
          "name": "_defaultPoolAddress",
          "type": "address"
        },
        {
          "internalType": "address",
          "name": "_collSurplusPoolAddress",
          "type": "address"
        },
        {
          "internalType": "address",
          "name": "_redemptionAddress",
          "type": "address"
        },
        {
          "internalType": "address",
          "name": "_wstETHAddress",
          "type": "address"
        }
      ],
      "name": "setAddresses",
      "outputs": [],
      "stateMutability": "nonpayable",
      "type": "function"
    },
    {
      "inputs": [],
      "name": "stabilityPoolManager",
      "outputs": [
        {
          "internalType": "contract IStabilityPoolManager",
          "name": "",
          "type": "address"
        }
      ],
      "stateMutability": "view",
      "type": "function"
    },
    {
      "inputs": [
        {
          "internalType": "address",
          "name": "newOwner",
          "type": "address"
        }
      ],
      "name": "transferOwnership",
      "outputs": [],
      "stateMutability": "nonpayable",
      "type": "function"
    },
    {
      "inputs": [],
      "name": "troveManagerAddress",
      "outputs": [
        {
          "internalType": "address",
          "name": "",
          "type": "address"
        }
      ],
      "stateMutability": "view",
      "type": "function"
    },
    {
      "inputs": [
        {
          "internalType": "address",
          "name": "_asset",
          "type": "address"
        },
        {
          "internalType": "uint256",
          "name": "_amount",
          "type": "uint256"
        }
      ],
      "name": "unprotectedIncreaseUDebt",
      "outputs": [],
      "stateMutability": "nonpayable",
      "type": "function"
    },
    {
      "inputs": [
        {
          "internalType": "address",
          "name": "_asset",
          "type": "address"
        },
        {
          "internalType": "uint256",
          "name": "amount",
          "type": "uint256"
        }
      ],
      "name": "unprotectedPayable",
      "outputs": [],
      "stateMutability": "payable",
      "type": "function"
    },
    {
      "inputs": [],
      "name": "wstETH",
      "outputs": [
        {
          "internalType": "address",
          "name": "",
          "type": "address"
        }
      ],
      "stateMutability": "view",
      "type": "function"
    },
    {
      "stateMutability": "payable",
      "type": "receive"
    }
  ],
  "bytecode": "0x608060405234801561001057600080fd5b50611d0a806100206000396000f3fe6080604052600436106100fe5760003560e01c80631197fc71146101b65780632f2b4e90146101d8578063392e53cd1461020e5780633c7e6c891461023f5780633cc742251461025f57806347878f151461027f5780634aa07e641461029f5780635373433f146102bf57806357f6d7e0146102ed5780635a4d28bb1461030d578063631a53d41461032d578063653a8dd11461034d578063715018a61461036d5780638da5cb5b14610382578063a3f4df7e14610397578063b7f8cf9b146103da578063c47e417d146103fa578063cda775f91461040d578063eaa8ba7f1461042d578063eb16f0041461044d578063f2fde38b1461046d57600080fd5b366101b1576098546001600160a01b03163314806101265750609b546001600160a01b031633145b61014b5760405162461bcd60e51b815260040161014290611789565b60405180910390fd5b60008052609e602052600080516020611cb58339815191525461016e903461048d565b6000808052609e602052600080516020611cb5833981519152829055604051600080516020611c55833981519152926101a792916117da565b60405180910390a1005b600080fd5b3480156101c257600080fd5b506101d66101d1366004611808565b6104a2565b005b3480156101e457600080fd5b50609d546101f8906001600160a01b031681565b6040516102059190611834565b60405180910390f35b34801561021a57600080fd5b50609d5461022f90600160a01b900460ff1681565b6040519015158152602001610205565b34801561024b57600080fd5b506101d661025a366004611808565b610619565b34801561026b57600080fd5b50609b546101f8906001600160a01b031681565b34801561028b57600080fd5b506101d661029a366004611848565b6106e7565b3480156102ab57600080fd5b506097546101f8906001600160a01b031681565b3480156102cb57600080fd5b506102df6102da366004611889565b610b0a565b604051908152602001610205565b3480156102f957600080fd5b506101d6610308366004611808565b610b5a565b34801561031957600080fd5b50609a546101f8906001600160a01b031681565b34801561033957600080fd5b506102df610348366004611889565b610b9d565b34801561035957600080fd5b506099546101f8906001600160a01b031681565b34801561037957600080fd5b506101d6610bed565b34801561038e57600080fd5b506101f8610c01565b3480156103a357600080fd5b506103cd6040518060400160405280600a8152602001691058dd1a5d99541bdbdb60b21b81525081565b60405161020591906118d1565b3480156103e657600080fd5b506098546101f8906001600160a01b031681565b6101d6610408366004611808565b610c10565b34801561041957600080fd5b50609c546101f8906001600160a01b031681565b34801561043957600080fd5b506101d6610448366004611904565b610c6d565b34801561045957600080fd5b506101d6610468366004611808565b610f89565b34801561047957600080fd5b506101d6610488366004611889565b611055565b600061049982846119b0565b90505b92915050565b6098546001600160a01b03163314806104c55750609a546001600160a01b031633145b806104da57506099546001600160a01b031633145b806105515750609d54604051633c5f6d8f60e21b81526001600160a01b039091169063f17db63c90610510903390600401611834565b602060405180830381865afa15801561052d573d6000803e3d6000fd5b505050506040513d601f19601f8201168201806040525081019061055191906119c3565b61056d5760405162461bcd60e51b8152600401610142906119e5565b60975482906001600160a01b0380831691161461059d57604051631a40f2bd60e31b815260040160405180910390fd5b6001600160a01b0383166000908152609f60205260409020546105c090836110ce565b6001600160a01b0384166000908152609f602052604090819020829055517f745577ef80a1b980950587cf27f60f5395a9fa025d8e761d4d1a6920f8596d969161060c918691906117da565b60405180910390a1505050565b6098546001600160a01b031633148061063c5750609a546001600160a01b031633145b6106945760405162461bcd60e51b81526020600482015260416024820152600080516020611c758339815191526044820152600080516020611c958339815191526064820152603960f91b608482015260a401610142565b60975482906001600160a01b038083169116146106c457604051631a40f2bd60e31b815260040160405180910390fd5b6001600160a01b0383166000908152609f60205260409020546105c0908361048d565b6106ef6110da565b6098546001600160a01b03163314806107125750609a546001600160a01b031633145b8061072757506099546001600160a01b031633145b8061079e5750609d54604051633c5f6d8f60e21b81526001600160a01b039091169063f17db63c9061075d903390600401611834565b602060405180830381865afa15801561077a573d6000803e3d6000fd5b505050506040513d601f19601f8201168201806040525081019061079e91906119c3565b6107ba5760405162461bcd60e51b8152600401610142906119e5565b60975483906001600160a01b038083169116146107ea57604051631a40f2bd60e31b815260040160405180910390fd5b609d54604051633c5f6d8f60e21b81526001600160a01b039091169063f17db63c9061081a903390600401611834565b602060405180830381865afa158015610837573d6000803e3d6000fd5b505050506040513d601f19601f8201168201806040525081019061085b91906119c3565b156108e757609d5460405163065c20bb60e41b815233916001600160a01b0316906365c20bb090610890908890600401611834565b602060405180830381865afa1580156108ad573d6000803e3d6000fd5b505050506040513d601f19601f820116820180604052508101906108d19190611a56565b6001600160a01b0316146108e7576108e7611a73565b60006108f38584611133565b9050806000036109035750610afa565b6001600160a01b0385166000908152609e602052604090205461092690846110ce565b6001600160a01b0386166000818152609e6020526040902091909155156109cf5761095b6001600160a01b03861685836111fc565b61096484611252565b156109ca57604051633ac5bc0160e21b81526001600160a01b0385169063eb16f0049061099790889087906004016117da565b600060405180830381600087803b1580156109b157600080fd5b505af11580156109c5573d6000803e3d6000fd5b505050505b610a74565b6000846001600160a01b03168460405160006040518083038185875af1925050503d8060008114610a1c576040519150601f19603f3d011682016040523d82523d6000602084013e610a21565b606091505b5050905080610a725760405162461bcd60e51b815260206004820152601e60248201527f416374697665506f6f6c3a2073656e64696e6720455448206661696c656400006044820152606401610142565b505b6001600160a01b0385166000908152609e602052604090819020549051600080516020611c5583398151915291610aad918891906117da565b60405180910390a1846001600160a01b03167ff89c3306c782ffbbe4593aa5673e97e9ad6a8c65d240405e8986363fada663928583604051610af09291906117da565b60405180910390a2505b50610b056001606555565b505050565b60975460009082906001600160a01b03808316911614610b3d57604051631a40f2bd60e31b815260040160405180910390fd5b50506001600160a01b03166000908152609e602052604090205490565b6001600160a01b0382166000908152609f6020526040902054610b7d908261048d565b6001600160a01b039092166000908152609f602052604090209190915550565b60975460009082906001600160a01b03808316911614610bd057604051631a40f2bd60e31b815260040160405180910390fd5b50506001600160a01b03166000908152609f602052604090205490565b610bf56112fc565b610bff600061135b565b565b6033546001600160a01b031690565b6001600160a01b03821615610c255780610c27565b345b6001600160a01b0383166000908152609e6020526040902054909150610c4d903461048d565b6001600160a01b039092166000908152609e602052604090209190915550565b600054610100900460ff1615808015610c8d5750600054600160ff909116105b80610cae5750610c9c306113ad565b158015610cae575060005460ff166001145b610d115760405162461bcd60e51b815260206004820152602e60248201527f496e697469616c697a61626c653a20636f6e747261637420697320616c72656160448201526d191e481a5b9a5d1a585b1a5e995960921b6064820152608401610142565b6000805460ff191660011790558015610d34576000805461ff0019166101001790555b609d54600160a01b900460ff1615610d845760405162461bcd60e51b8152602060048201526013602482015272105b1c9958591e481a5b9a5d1a585b1a5e9959606a1b6044820152606401610142565b610d8d886113bc565b610d96876113bc565b610d9f866113bc565b610da8856113bc565b610db1846113bc565b610dba836113bc565b610dc3826113bc565b609d805460ff60a01b1916600160a01b179055610dde611465565b610de6611494565b609880546001600160a01b03199081166001600160a01b038b811691909117909255609980548216868416179055609a805482168a8416179055609d80548216898416179055609b80548216888416179055609c80548216878416179055609780549091169184169190911790556040517f3ca631ffcd2a9b5d9ae18543fc82f58eb4ca33af9e6ab01b7a8e95331e6ed98590610e84908a90611834565b60405180910390a17f143219c9e69b09e07e095fcc889b43d8f46ca892bba65f08dc3a0050869a567887604051610ebb9190611834565b60405180910390a17f82966d27eea39b038ee0fa30cd16532bb24f6e65d31cb58fb227aa5766cdcc7f86604051610ef29190611834565b60405180910390a17f5ee0cae2f063ed938bb55046f6a932fb6ae792bf43624806bb90abe68a50be9b85604051610f299190611834565b60405180910390a1610f39610bed565b8015610f7f576000805461ff0019169055604051600181527f7f26b83ff96e1f2b6a682f133852f6798a09c465da95921460cefb38474024989060200160405180910390a15b5050505050505050565b6098546001600160a01b0316331480610fac5750609b546001600160a01b031633145b610fc85760405162461bcd60e51b815260040161014290611789565b60975482906001600160a01b03808316911614610ff857604051631a40f2bd60e31b815260040160405180910390fd5b6001600160a01b0383166000908152609e602052604090205461101b908361048d565b6001600160a01b0384166000908152609e60205260409081902082905551600080516020611c558339815191529161060c918691906117da565b61105d6112fc565b6001600160a01b0381166110c25760405162461bcd60e51b815260206004820152602660248201527f4f776e61626c653a206e6577206f776e657220697320746865207a65726f206160448201526564647265737360d01b6064820152608401610142565b6110cb8161135b565b50565b60006104998284611a89565b60026065540361112c5760405162461bcd60e51b815260206004820152601f60248201527f5265656e7472616e637947756172643a207265656e7472616e742063616c6c006044820152606401610142565b6002606555565b60006001600160a01b03831661114a57508061049c565b8160000361115a5750600061049c565b6000836001600160a01b031663313ce5676040518163ffffffff1660e01b8152600401602060405180830381865afa15801561119a573d6000803e3d6000fd5b505050506040513d601f19601f820116820180604052508101906111be9190611a9c565b905060128160ff1610156111f4576111ec6111da826012611abf565b6111e590600a611bbc565b84906114c3565b91505061049c565b509092915050565b610b058363a9059cbb60e01b848460405160240161121b9291906117da565b60408051601f198184030181529190526020810180516001600160e01b03166001600160e01b0319909316929092179091526114cf565b609b546000906001600160a01b038381169116148061127e5750609c546001600160a01b038381169116145b8061049c5750609d54604051633c5f6d8f60e21b81526001600160a01b039091169063f17db63c906112b4908590600401611834565b602060405180830381865afa1580156112d1573d6000803e3d6000fd5b505050506040513d601f19601f8201168201806040525081019061049c91906119c3565b6001606555565b33611305610c01565b6001600160a01b031614610bff5760405162461bcd60e51b815260206004820181905260248201527f4f776e61626c653a2063616c6c6572206973206e6f7420746865206f776e65726044820152606401610142565b603380546001600160a01b038381166001600160a01b0319831681179093556040519116919082907f8be0079c531659141344cd1fd0a4f28419497f9722a3daafe3b4186f6b6457e090600090a35050565b6001600160a01b03163b151590565b6001600160a01b0381166114125760405162461bcd60e51b815260206004820152601e60248201527f4163636f756e742063616e6e6f74206265207a65726f206164647265737300006044820152606401610142565b803b806114615760405162461bcd60e51b815260206004820181905260248201527f4163636f756e7420636f64652073697a652063616e6e6f74206265207a65726f6044820152606401610142565b5050565b600054610100900460ff1661148c5760405162461bcd60e51b815260040161014290611bcb565b610bff6115a4565b600054610100900460ff166114bb5760405162461bcd60e51b815260040161014290611bcb565b610bff6115d4565b60006104998284611c16565b6000611524826040518060400160405280602081526020017f5361666545524332303a206c6f772d6c6576656c2063616c6c206661696c6564815250856001600160a01b03166115fb9092919063ffffffff16565b905080516000148061154557508080602001905181019061154591906119c3565b610b055760405162461bcd60e51b815260206004820152602a60248201527f5361666545524332303a204552433230206f7065726174696f6e20646964206e6044820152691bdd081cdd58d8d9595960b21b6064820152608401610142565b600054610100900460ff166115cb5760405162461bcd60e51b815260040161014290611bcb565b610bff3361135b565b600054610100900460ff166112f55760405162461bcd60e51b815260040161014290611bcb565b606061160a8484600085611612565b949350505050565b6060824710156116735760405162461bcd60e51b815260206004820152602660248201527f416464726573733a20696e73756666696369656e742062616c616e636520666f6044820152651c8818d85b1b60d21b6064820152608401610142565b600080866001600160a01b0316858760405161168f9190611c38565b60006040518083038185875af1925050503d80600081146116cc576040519150601f19603f3d011682016040523d82523d6000602084013e6116d1565b606091505b50915091506116e2878383876116ed565b979650505050505050565b6060831561175a57825160000361175357611707856113ad565b6117535760405162461bcd60e51b815260206004820152601d60248201527f416464726573733a2063616c6c20746f206e6f6e2d636f6e74726163740000006044820152606401610142565b508161160a565b61160a838381511561176f5781518083602001fd5b8060405162461bcd60e51b815260040161014291906118d1565b60208082526031908201527f416374697665506f6f6c3a2043616c6c6572206973206e65697468657220424f604082015270081b9bdc88111959985d5b1d08141bdbdb607a1b606082015260800190565b6001600160a01b03929092168252602082015260400190565b6001600160a01b03811681146110cb57600080fd5b6000806040838503121561181b57600080fd5b8235611826816117f3565b946020939093013593505050565b6001600160a01b0391909116815260200190565b60008060006060848603121561185d57600080fd5b8335611868816117f3565b92506020840135611878816117f3565b929592945050506040919091013590565b60006020828403121561189b57600080fd5b81356118a6816117f3565b9392505050565b60005b838110156118c85781810151838201526020016118b0565b50506000910152565b60208152600082518060208401526118f08160408501602087016118ad565b601f01601f19169190910160400192915050565b600080600080600080600060e0888a03121561191f57600080fd5b873561192a816117f3565b9650602088013561193a816117f3565b9550604088013561194a816117f3565b9450606088013561195a816117f3565b9350608088013561196a816117f3565b925060a088013561197a816117f3565b915060c088013561198a816117f3565b8091505092959891949750929550565b634e487b7160e01b600052601160045260246000fd5b8082018082111561049c5761049c61199a565b6000602082840312156119d557600080fd5b815180151581146118a657600080fd5b6020808252606990820152600080516020611c758339815191526040820152600080516020611c9583398151915260608201527f72206e6f7220526564656d7074696f6e4d616e61676572206e6f7220537461626080820152681a5b1a5d1e541bdbdb60ba1b60a082015260c00190565b600060208284031215611a6857600080fd5b81516118a6816117f3565b634e487b7160e01b600052600160045260246000fd5b8181038181111561049c5761049c61199a565b600060208284031215611aae57600080fd5b815160ff811681146118a657600080fd5b60ff828116828216039081111561049c5761049c61199a565b600181815b80851115611b13578160001904821115611af957611af961199a565b80851615611b0657918102915b93841c9390800290611add565b509250929050565b600082611b2a5750600161049c565b81611b375750600061049c565b8160018114611b4d5760028114611b5757611b73565b600191505061049c565b60ff841115611b6857611b6861199a565b50506001821b61049c565b5060208310610133831016604e8410600b8410161715611b96575081810a61049c565b611ba08383611ad8565b8060001904821115611bb457611bb461199a565b029392505050565b600061049960ff841683611b1b565b6020808252602b908201527f496e697469616c697a61626c653a20636f6e7472616374206973206e6f74206960408201526a6e697469616c697a696e6760a81b606082015260800190565b600082611c3357634e487b7160e01b600052601260045260246000fd5b500490565b60008251611c4a8184602087016118ad565b919091019291505056fed9d22224b27bb4fd824c68076d2a2f5ecbe57af6aadc3564516e4d14dd0930f9416374697665506f6f6c3a2043616c6c6572206973206e65697468657220426f72726f7765724f7065726174696f6e73206e6f722054726f76654d616e616765edae58bba15aea52a58242ef195db2cc4de2b75de265dbb0d58482df22a95978a2646970667358221220330c39c2e9c9c0bbbf2a181d83a4299e10a54a69dfd14081efea2be1b9073a7864736f6c63430008110033",
  "linkReferences": {},
  "deployedLinkReferences": {}
}