{
  "_format": "hh-sol-artifact-1",
  "contractName": "YOUTokenTester",
  "sourceName": "contracts/TestContracts/YOUTokenTester.sol",
  "abi": [
    {
      "inputs": [
        {
          "internalType": "address",
          "name": "_treasury",
          "type": "address"
        }
      ],
      "stateMutability": "nonpayable",
      "type": "constructor"
    },
    {
      "anonymous": false,
      "inputs": [
        {
          "indexed": true,
          "internalType": "address",
          "name": "owner",
          "type": "address"
        },
        {
          "indexed": true,
          "internalType": "address",
          "name": "spender",
          "type": "address"
        },
        {
          "indexed": false,
          "internalType": "uint256",
          "name": "value",
          "type": "uint256"
        }
      ],
      "name": "Approval",
      "type": "event"
    },
    {
      "anonymous": false,
      "inputs": [
        {
          "indexed": true,
          "internalType": "uint16",
          "name": "_srcChainId",
          "type": "uint16"
        },
        {
          "indexed": false,
          "internalType": "bytes",
          "name": "_srcAddress",
          "type": "bytes"
        },
        {
          "indexed": false,
          "internalType": "uint64",
          "name": "_nonce",
          "type": "uint64"
        },
        {
          "indexed": false,
          "internalType": "bytes32",
          "name": "_hash",
          "type": "bytes32"
        }
      ],
      "name": "CallOFTReceivedSuccess",
      "type": "event"
    },
    {
      "anonymous": false,
      "inputs": [
        {
          "indexed": false,
          "internalType": "uint16",
          "name": "_srcChainId",
          "type": "uint16"
        },
        {
          "indexed": false,
          "internalType": "bytes",
          "name": "_srcAddress",
          "type": "bytes"
        },
        {
          "indexed": false,
          "internalType": "uint64",
          "name": "_nonce",
          "type": "uint64"
        },
        {
          "indexed": false,
          "internalType": "bytes",
          "name": "_payload",
          "type": "bytes"
        },
        {
          "indexed": false,
          "internalType": "bytes",
          "name": "_reason",
          "type": "bytes"
        }
      ],
      "name": "MessageFailed",
      "type": "event"
    },
    {
      "anonymous": false,
      "inputs": [
        {
          "indexed": false,
          "internalType": "address",
          "name": "_address",
          "type": "address"
        }
      ],
      "name": "NonContractAddress",
      "type": "event"
    },
    {
      "anonymous": false,
      "inputs": [
        {
          "indexed": true,
          "internalType": "address",
          "name": "previousOwner",
          "type": "address"
        },
        {
          "indexed": true,
          "internalType": "address",
          "name": "newOwner",
          "type": "address"
        }
      ],
      "name": "OwnershipTransferred",
      "type": "event"
    },
    {
      "anonymous": false,
      "inputs": [
        {
          "indexed": true,
          "internalType": "uint16",
          "name": "_srcChainId",
          "type": "uint16"
        },
        {
          "indexed": true,
          "internalType": "address",
          "name": "_to",
          "type": "address"
        },
        {
          "indexed": false,
          "internalType": "uint256",
          "name": "_amount",
          "type": "uint256"
        }
      ],
      "name": "ReceiveFromChain",
      "type": "event"
    },
    {
      "anonymous": false,
      "inputs": [
        {
          "indexed": false,
          "internalType": "uint16",
          "name": "_srcChainId",
          "type": "uint16"
        },
        {
          "indexed": false,
          "internalType": "bytes",
          "name": "_srcAddress",
          "type": "bytes"
        },
        {
          "indexed": false,
          "internalType": "uint64",
          "name": "_nonce",
          "type": "uint64"
        },
        {
          "indexed": false,
          "internalType": "bytes32",
          "name": "_payloadHash",
          "type": "bytes32"
        }
      ],
      "name": "RetryMessageSuccess",
      "type": "event"
    },
    {
      "anonymous": false,
      "inputs": [
        {
          "indexed": true,
          "internalType": "uint16",
          "name": "_dstChainId",
          "type": "uint16"
        },
        {
          "indexed": true,
          "internalType": "address",
          "name": "_from",
          "type": "address"
        },
        {
          "indexed": true,
          "internalType": "bytes32",
          "name": "_toAddress",
          "type": "bytes32"
        },
        {
          "indexed": false,
          "internalType": "uint256",
          "name": "_amount",
          "type": "uint256"
        }
      ],
      "name": "SendToChain",
      "type": "event"
    },
    {
      "anonymous": false,
      "inputs": [
        {
          "indexed": false,
          "internalType": "uint16",
          "name": "_dstChainId",
          "type": "uint16"
        },
        {
          "indexed": false,
          "internalType": "uint16",
          "name": "_type",
          "type": "uint16"
        },
        {
          "indexed": false,
          "internalType": "uint256",
          "name": "_minDstGas",
          "type": "uint256"
        }
      ],
      "name": "SetMinDstGas",
      "type": "event"
    },
    {
      "anonymous": false,
      "inputs": [
        {
          "indexed": false,
          "internalType": "address",
          "name": "precrime",
          "type": "address"
        }
      ],
      "name": "SetPrecrime",
      "type": "event"
    },
    {
      "anonymous": false,
      "inputs": [
        {
          "indexed": false,
          "internalType": "uint16",
          "name": "_remoteChainId",
          "type": "uint16"
        },
        {
          "indexed": false,
          "internalType": "bytes",
          "name": "_path",
          "type": "bytes"
        }
      ],
      "name": "SetTrustedRemote",
      "type": "event"
    },
    {
      "anonymous": false,
      "inputs": [
        {
          "indexed": false,
          "internalType": "uint16",
          "name": "_remoteChainId",
          "type": "uint16"
        },
        {
          "indexed": false,
          "internalType": "bytes",
          "name": "_remoteAddress",
          "type": "bytes"
        }
      ],
      "name": "SetTrustedRemoteAddress",
      "type": "event"
    },
    {
      "anonymous": false,
      "inputs": [
        {
          "indexed": false,
          "internalType": "bool",
          "name": "_useCustomAdapterParams",
          "type": "bool"
        }
      ],
      "name": "SetUseCustomAdapterParams",
      "type": "event"
    },
    {
      "anonymous": false,
      "inputs": [
        {
          "indexed": true,
          "internalType": "address",
          "name": "from",
          "type": "address"
        },
        {
          "indexed": true,
          "internalType": "address",
          "name": "to",
          "type": "address"
        },
        {
          "indexed": false,
          "internalType": "uint256",
          "name": "value",
          "type": "uint256"
        }
      ],
      "name": "Transfer",
      "type": "event"
    },
    {
      "inputs": [],
      "name": "DEFAULT_PAYLOAD_SIZE_LIMIT",
      "outputs": [
        {
          "internalType": "uint256",
          "name": "",
          "type": "uint256"
        }
      ],
      "stateMutability": "view",
      "type": "function"
    },
    {
      "inputs": [],
      "name": "DOMAIN_SEPARATOR",
      "outputs": [
        {
          "internalType": "bytes32",
          "name": "",
          "type": "bytes32"
        }
      ],
      "stateMutability": "view",
      "type": "function"
    },
    {
      "inputs": [],
      "name": "NO_EXTRA_GAS",
      "outputs": [
        {
          "internalType": "uint256",
          "name": "",
          "type": "uint256"
        }
      ],
      "stateMutability": "view",
      "type": "function"
    },
    {
      "inputs": [],
      "name": "PERMIT_TYPEHASH",
      "outputs": [
        {
          "internalType": "bytes32",
          "name": "",
          "type": "bytes32"
        }
      ],
      "stateMutability": "view",
      "type": "function"
    },
    {
      "inputs": [],
      "name": "PT_SEND",
      "outputs": [
        {
          "internalType": "uint8",
          "name": "",
          "type": "uint8"
        }
      ],
      "stateMutability": "view",
      "type": "function"
    },
    {
      "inputs": [],
      "name": "PT_SEND_AND_CALL",
      "outputs": [
        {
          "internalType": "uint8",
          "name": "",
          "type": "uint8"
        }
      ],
      "stateMutability": "view",
      "type": "function"
    },
    {
      "inputs": [
        {
          "internalType": "address",
          "name": "owner",
          "type": "address"
        },
        {
          "internalType": "address",
          "name": "spender",
          "type": "address"
        }
      ],
      "name": "allowance",
      "outputs": [
        {
          "internalType": "uint256",
          "name": "",
          "type": "uint256"
        }
      ],
      "stateMutability": "view",
      "type": "function"
    },
    {
      "inputs": [
        {
          "internalType": "address",
          "name": "spender",
          "type": "address"
        },
        {
          "internalType": "uint256",
          "name": "amount",
          "type": "uint256"
        }
      ],
      "name": "approve",
      "outputs": [
        {
          "internalType": "bool",
          "name": "",
          "type": "bool"
        }
      ],
      "stateMutability": "nonpayable",
      "type": "function"
    },
    {
      "inputs": [
        {
          "internalType": "address",
          "name": "account",
          "type": "address"
        }
      ],
      "name": "balanceOf",
      "outputs": [
        {
          "internalType": "uint256",
          "name": "",
          "type": "uint256"
        }
      ],
      "stateMutability": "view",
      "type": "function"
    },
    {
      "inputs": [
        {
          "internalType": "address",
          "name": "owner",
          "type": "address"
        },
        {
          "internalType": "address",
          "name": "spender",
          "type": "address"
        },
        {
          "internalType": "uint256",
          "name": "amount",
          "type": "uint256"
        }
      ],
      "name": "callInternalApprove",
      "outputs": [],
      "stateMutability": "nonpayable",
      "type": "function"
    },
    {
      "inputs": [
        {
          "internalType": "address",
          "name": "sender",
          "type": "address"
        },
        {
          "internalType": "address",
          "name": "recipient",
          "type": "address"
        },
        {
          "internalType": "uint256",
          "name": "amount",
          "type": "uint256"
        }
      ],
      "name": "callInternalTransfer",
      "outputs": [],
      "stateMutability": "nonpayable",
      "type": "function"
    },
    {
      "inputs": [
        {
          "internalType": "uint16",
          "name": "_srcChainId",
          "type": "uint16"
        },
        {
          "internalType": "bytes",
          "name": "_srcAddress",
          "type": "bytes"
        },
        {
          "internalType": "uint64",
          "name": "_nonce",
          "type": "uint64"
        },
        {
          "internalType": "bytes32",
          "name": "_from",
          "type": "bytes32"
        },
        {
          "internalType": "address",
          "name": "_to",
          "type": "address"
        },
        {
          "internalType": "uint256",
          "name": "_amount",
          "type": "uint256"
        },
        {
          "internalType": "bytes",
          "name": "_payload",
          "type": "bytes"
        },
        {
          "internalType": "uint256",
          "name": "_gasForCall",
          "type": "uint256"
        }
      ],
      "name": "callOnOFTReceived",
      "outputs": [],
      "stateMutability": "nonpayable",
      "type": "function"
    },
    {
      "inputs": [],
      "name": "chainId",
      "outputs": [
        {
          "internalType": "uint256",
          "name": "chainID",
          "type": "uint256"
        }
      ],
      "stateMutability": "view",
      "type": "function"
    },
    {
      "inputs": [],
      "name": "circulatingSupply",
      "outputs": [
        {
          "internalType": "uint256",
          "name": "",
          "type": "uint256"
        }
      ],
      "stateMutability": "view",
      "type": "function"
    },
    {
      "inputs": [
        {
          "internalType": "uint16",
          "name": "",
          "type": "uint16"
        },
        {
          "internalType": "bytes",
          "name": "",
          "type": "bytes"
        },
        {
          "internalType": "uint64",
          "name": "",
          "type": "uint64"
        }
      ],
      "name": "creditedPackets",
      "outputs": [
        {
          "internalType": "bool",
          "name": "",
          "type": "bool"
        }
      ],
      "stateMutability": "view",
      "type": "function"
    },
    {
      "inputs": [],
      "name": "decimals",
      "outputs": [
        {
          "internalType": "uint8",
          "name": "",
          "type": "uint8"
        }
      ],
      "stateMutability": "view",
      "type": "function"
    },
    {
      "inputs": [
        {
          "internalType": "address",
          "name": "spender",
          "type": "address"
        },
        {
          "internalType": "uint256",
          "name": "subtractedValue",
          "type": "uint256"
        }
      ],
      "name": "decreaseAllowance",
      "outputs": [
        {
          "internalType": "bool",
          "name": "",
          "type": "bool"
        }
      ],
      "stateMutability": "nonpayable",
      "type": "function"
    },
    {
      "inputs": [
        {
          "internalType": "uint16",
          "name": "_dstChainId",
          "type": "uint16"
        },
        {
          "internalType": "bytes32",
          "name": "_toAddress",
          "type": "bytes32"
        },
        {
          "internalType": "uint256",
          "name": "_amount",
          "type": "uint256"
        },
        {
          "internalType": "bytes",
          "name": "_payload",
          "type": "bytes"
        },
        {
          "internalType": "uint64",
          "name": "_dstGasForCall",
          "type": "uint64"
        },
        {
          "internalType": "bool",
          "name": "_useZro",
          "type": "bool"
        },
        {
          "internalType": "bytes",
          "name": "_adapterParams",
          "type": "bytes"
        }
      ],
      "name": "estimateSendAndCallFee",
      "outputs": [
        {
          "internalType": "uint256",
          "name": "nativeFee",
          "type": "uint256"
        },
        {
          "internalType": "uint256",
          "name": "zroFee",
          "type": "uint256"
        }
      ],
      "stateMutability": "view",
      "type": "function"
    },
    {
      "inputs": [
        {
          "internalType": "uint16",
          "name": "_dstChainId",
          "type": "uint16"
        },
        {
          "internalType": "bytes32",
          "name": "_toAddress",
          "type": "bytes32"
        },
        {
          "internalType": "uint256",
          "name": "_amount",
          "type": "uint256"
        },
        {
          "internalType": "bool",
          "name": "_useZro",
          "type": "bool"
        },
        {
          "internalType": "bytes",
          "name": "_adapterParams",
          "type": "bytes"
        }
      ],
      "name": "estimateSendFee",
      "outputs": [
        {
          "internalType": "uint256",
          "name": "nativeFee",
          "type": "uint256"
        },
        {
          "internalType": "uint256",
          "name": "zroFee",
          "type": "uint256"
        }
      ],
      "stateMutability": "view",
      "type": "function"
    },
    {
      "inputs": [
        {
          "internalType": "uint16",
          "name": "",
          "type": "uint16"
        },
        {
          "internalType": "bytes",
          "name": "",
          "type": "bytes"
        },
        {
          "internalType": "uint64",
          "name": "",
          "type": "uint64"
        }
      ],
      "name": "failedMessages",
      "outputs": [
        {
          "internalType": "bytes32",
          "name": "",
          "type": "bytes32"
        }
      ],
      "stateMutability": "view",
      "type": "function"
    },
    {
      "inputs": [
        {
          "internalType": "uint16",
          "name": "_srcChainId",
          "type": "uint16"
        },
        {
          "internalType": "bytes",
          "name": "_srcAddress",
          "type": "bytes"
        }
      ],
      "name": "forceResumeReceive",
      "outputs": [],
      "stateMutability": "nonpayable",
      "type": "function"
    },
    {
      "inputs": [],
      "name": "getChainId",
      "outputs": [
        {
          "internalType": "uint256",
          "name": "chainID",
          "type": "uint256"
        }
      ],
      "stateMutability": "view",
      "type": "function"
    },
    {
      "inputs": [
        {
          "internalType": "uint16",
          "name": "_version",
          "type": "uint16"
        },
        {
          "internalType": "uint16",
          "name": "_chainId",
          "type": "uint16"
        },
        {
          "internalType": "address",
          "name": "",
          "type": "address"
        },
        {
          "internalType": "uint256",
          "name": "_configType",
          "type": "uint256"
        }
      ],
      "name": "getConfig",
      "outputs": [
        {
          "internalType": "bytes",
          "name": "",
          "type": "bytes"
        }
      ],
      "stateMutability": "view",
      "type": "function"
    },
    {
      "inputs": [
        {
          "internalType": "uint16",
          "name": "_remoteChainId",
          "type": "uint16"
        }
      ],
      "name": "getTrustedRemoteAddress",
      "outputs": [
        {
          "internalType": "bytes",
          "name": "",
          "type": "bytes"
        }
      ],
      "stateMutability": "view",
      "type": "function"
    },
    {
      "inputs": [
        {
          "internalType": "address",
          "name": "spender",
          "type": "address"
        },
        {
          "internalType": "uint256",
          "name": "addedValue",
          "type": "uint256"
        }
      ],
      "name": "increaseAllowance",
      "outputs": [
        {
          "internalType": "bool",
          "name": "",
          "type": "bool"
        }
      ],
      "stateMutability": "nonpayable",
      "type": "function"
    },
    {
      "inputs": [
        {
          "internalType": "uint16",
          "name": "_srcChainId",
          "type": "uint16"
        },
        {
          "internalType": "bytes",
          "name": "_srcAddress",
          "type": "bytes"
        }
      ],
      "name": "isTrustedRemote",
      "outputs": [
        {
          "internalType": "bool",
          "name": "",
          "type": "bool"
        }
      ],
      "stateMutability": "view",
      "type": "function"
    },
    {
      "inputs": [],
      "name": "lzEndpoint",
      "outputs": [
        {
          "internalType": "contract ILayerZeroEndpoint",
          "name": "",
          "type": "address"
        }
      ],
      "stateMutability": "view",
      "type": "function"
    },
    {
      "inputs": [
        {
          "internalType": "uint16",
          "name": "_srcChainId",
          "type": "uint16"
        },
        {
          "internalType": "bytes",
          "name": "_srcAddress",
          "type": "bytes"
        },
        {
          "internalType": "uint64",
          "name": "_nonce",
          "type": "uint64"
        },
        {
          "internalType": "bytes",
          "name": "_payload",
          "type": "bytes"
        }
      ],
      "name": "lzReceive",
      "outputs": [],
      "stateMutability": "nonpayable",
      "type": "function"
    },
    {
      "inputs": [
        {
          "internalType": "uint16",
          "name": "",
          "type": "uint16"
        },
        {
          "internalType": "uint16",
          "name": "",
          "type": "uint16"
        }
      ],
      "name": "minDstGasLookup",
      "outputs": [
        {
          "internalType": "uint256",
          "name": "",
          "type": "uint256"
        }
      ],
      "stateMutability": "view",
      "type": "function"
    },
    {
      "inputs": [],
      "name": "name",
      "outputs": [
        {
          "internalType": "string",
          "name": "",
          "type": "string"
        }
      ],
      "stateMutability": "view",
      "type": "function"
    },
    {
      "inputs": [
        {
          "internalType": "uint16",
          "name": "_srcChainId",
          "type": "uint16"
        },
        {
          "internalType": "bytes",
          "name": "_srcAddress",
          "type": "bytes"
        },
        {
          "internalType": "uint64",
          "name": "_nonce",
          "type": "uint64"
        },
        {
          "internalType": "bytes",
          "name": "_payload",
          "type": "bytes"
        }
      ],
      "name": "nonblockingLzReceive",
      "outputs": [],
      "stateMutability": "nonpayable",
      "type": "function"
    },
    {
      "inputs": [
        {
          "internalType": "address",
          "name": "owner",
          "type": "address"
        }
      ],
      "name": "nonces",
      "outputs": [
        {
          "internalType": "uint256",
          "name": "",
          "type": "uint256"
        }
      ],
      "stateMutability": "view",
      "type": "function"
    },
    {
      "inputs": [],
      "name": "owner",
      "outputs": [
        {
          "internalType": "address",
          "name": "",
          "type": "address"
        }
      ],
      "stateMutability": "view",
      "type": "function"
    },
    {
      "inputs": [
        {
          "internalType": "uint16",
          "name": "",
          "type": "uint16"
        }
      ],
      "name": "payloadSizeLimitLookup",
      "outputs": [
        {
          "internalType": "uint256",
          "name": "",
          "type": "uint256"
        }
      ],
      "stateMutability": "view",
      "type": "function"
    },
    {
      "inputs": [
        {
          "internalType": "address",
          "name": "owner",
          "type": "address"
        },
        {
          "internalType": "address",
          "name": "spender",
          "type": "address"
        },
        {
          "internalType": "uint256",
          "name": "amount",
          "type": "uint256"
        },
        {
          "internalType": "uint256",
          "name": "deadline",
          "type": "uint256"
        },
        {
          "internalType": "uint8",
          "name": "v",
          "type": "uint8"
        },
        {
          "internalType": "bytes32",
          "name": "r",
          "type": "bytes32"
        },
        {
          "internalType": "bytes32",
          "name": "s",
          "type": "bytes32"
        }
      ],
      "name": "permit",
      "outputs": [],
      "stateMutability": "nonpayable",
      "type": "function"
    },
    {
      "inputs": [],
      "name": "precrime",
      "outputs": [
        {
          "internalType": "address",
          "name": "",
          "type": "address"
        }
      ],
      "stateMutability": "view",
      "type": "function"
    },
    {
      "inputs": [],
      "name": "renounceOwnership",
      "outputs": [],
      "stateMutability": "nonpayable",
      "type": "function"
    },
    {
      "inputs": [
        {
          "internalType": "uint16",
          "name": "_srcChainId",
          "type": "uint16"
        },
        {
          "internalType": "bytes",
          "name": "_srcAddress",
          "type": "bytes"
        },
        {
          "internalType": "uint64",
          "name": "_nonce",
          "type": "uint64"
        },
        {
          "internalType": "bytes",
          "name": "_payload",
          "type": "bytes"
        }
      ],
      "name": "retryMessage",
      "outputs": [],
      "stateMutability": "payable",
      "type": "function"
    },
    {
      "inputs": [
        {
          "internalType": "address",
          "name": "_from",
          "type": "address"
        },
        {
          "internalType": "uint16",
          "name": "_dstChainId",
          "type": "uint16"
        },
        {
          "internalType": "bytes32",
          "name": "_toAddress",
          "type": "bytes32"
        },
        {
          "internalType": "uint256",
          "name": "_amount",
          "type": "uint256"
        },
        {
          "internalType": "bytes",
          "name": "_payload",
          "type": "bytes"
        },
        {
          "internalType": "uint64",
          "name": "_dstGasForCall",
          "type": "uint64"
        },
        {
          "components": [
            {
              "internalType": "address payable",
              "name": "refundAddress",
              "type": "address"
            },
            {
              "internalType": "address",
              "name": "zroPaymentAddress",
              "type": "address"
            },
            {
              "internalType": "bytes",
              "name": "adapterParams",
              "type": "bytes"
            }
          ],
          "internalType": "struct ICommonOFT.LzCallParams",
          "name": "_callParams",
          "type": "tuple"
        }
      ],
      "name": "sendAndCall",
      "outputs": [],
      "stateMutability": "payable",
      "type": "function"
    },
    {
      "inputs": [
        {
          "internalType": "address",
          "name": "_from",
          "type": "address"
        },
        {
          "internalType": "uint16",
          "name": "_dstChainId",
          "type": "uint16"
        },
        {
          "internalType": "bytes32",
          "name": "_toAddress",
          "type": "bytes32"
        },
        {
          "internalType": "uint256",
          "name": "_amount",
          "type": "uint256"
        },
        {
          "components": [
            {
              "internalType": "address payable",
              "name": "refundAddress",
              "type": "address"
            },
            {
              "internalType": "address",
              "name": "zroPaymentAddress",
              "type": "address"
            },
            {
              "internalType": "bytes",
              "name": "adapterParams",
              "type": "bytes"
            }
          ],
          "internalType": "struct ICommonOFT.LzCallParams",
          "name": "_callParams",
          "type": "tuple"
        }
      ],
      "name": "sendFrom",
      "outputs": [],
      "stateMutability": "payable",
      "type": "function"
    },
    {
      "inputs": [
        {
          "internalType": "uint16",
          "name": "_version",
          "type": "uint16"
        },
        {
          "internalType": "uint16",
          "name": "_chainId",
          "type": "uint16"
        },
        {
          "internalType": "uint256",
          "name": "_configType",
          "type": "uint256"
        },
        {
          "internalType": "bytes",
          "name": "_config",
          "type": "bytes"
        }
      ],
      "name": "setConfig",
      "outputs": [],
      "stateMutability": "nonpayable",
      "type": "function"
    },
    {
      "inputs": [
        {
          "internalType": "uint16",
          "name": "_dstChainId",
          "type": "uint16"
        },
        {
          "internalType": "uint16",
          "name": "_packetType",
          "type": "uint16"
        },
        {
          "internalType": "uint256",
          "name": "_minGas",
          "type": "uint256"
        }
      ],
      "name": "setMinDstGas",
      "outputs": [],
      "stateMutability": "nonpayable",
      "type": "function"
    },
    {
      "inputs": [
        {
          "internalType": "uint16",
          "name": "_dstChainId",
          "type": "uint16"
        },
        {
          "internalType": "uint256",
          "name": "_size",
          "type": "uint256"
        }
      ],
      "name": "setPayloadSizeLimit",
      "outputs": [],
      "stateMutability": "nonpayable",
      "type": "function"
    },
    {
      "inputs": [
        {
          "internalType": "address",
          "name": "_precrime",
          "type": "address"
        }
      ],
      "name": "setPrecrime",
      "outputs": [],
      "stateMutability": "nonpayable",
      "type": "function"
    },
    {
      "inputs": [
        {
          "internalType": "uint16",
          "name": "_version",
          "type": "uint16"
        }
      ],
      "name": "setReceiveVersion",
      "outputs": [],
      "stateMutability": "nonpayable",
      "type": "function"
    },
    {
      "inputs": [
        {
          "internalType": "uint16",
          "name": "_version",
          "type": "uint16"
        }
      ],
      "name": "setSendVersion",
      "outputs": [],
      "stateMutability": "nonpayable",
      "type": "function"
    },
    {
      "inputs": [
        {
          "internalType": "uint16",
          "name": "_remoteChainId",
          "type": "uint16"
        },
        {
          "internalType": "bytes",
          "name": "_path",
          "type": "bytes"
        }
      ],
      "name": "setTrustedRemote",
      "outputs": [],
      "stateMutability": "nonpayable",
      "type": "function"
    },
    {
      "inputs": [
        {
          "internalType": "uint16",
          "name": "_remoteChainId",
          "type": "uint16"
        },
        {
          "internalType": "bytes",
          "name": "_remoteAddress",
          "type": "bytes"
        }
      ],
      "name": "setTrustedRemoteAddress",
      "outputs": [],
      "stateMutability": "nonpayable",
      "type": "function"
    },
    {
      "inputs": [
        {
          "internalType": "bool",
          "name": "_useCustomAdapterParams",
          "type": "bool"
        }
      ],
      "name": "setUseCustomAdapterParams",
      "outputs": [],
      "stateMutability": "nonpayable",
      "type": "function"
    },
    {
      "inputs": [],
      "name": "sharedDecimals",
      "outputs": [
        {
          "internalType": "uint8",
          "name": "",
          "type": "uint8"
        }
      ],
      "stateMutability": "view",
      "type": "function"
    },
    {
      "inputs": [
        {
          "internalType": "bytes4",
          "name": "interfaceId",
          "type": "bytes4"
        }
      ],
      "name": "supportsInterface",
      "outputs": [
        {
          "internalType": "bool",
          "name": "",
          "type": "bool"
        }
      ],
      "stateMutability": "view",
      "type": "function"
    },
    {
      "inputs": [],
      "name": "symbol",
      "outputs": [
        {
          "internalType": "string",
          "name": "",
          "type": "string"
        }
      ],
      "stateMutability": "view",
      "type": "function"
    },
    {
      "inputs": [],
      "name": "token",
      "outputs": [
        {
          "internalType": "address",
          "name": "",
          "type": "address"
        }
      ],
      "stateMutability": "view",
      "type": "function"
    },
    {
      "inputs": [],
      "name": "totalSupply",
      "outputs": [
        {
          "internalType": "uint256",
          "name": "",
          "type": "uint256"
        }
      ],
      "stateMutability": "view",
      "type": "function"
    },
    {
      "inputs": [
        {
          "internalType": "address",
          "name": "to",
          "type": "address"
        },
        {
          "internalType": "uint256",
          "name": "amount",
          "type": "uint256"
        }
      ],
      "name": "transfer",
      "outputs": [
        {
          "internalType": "bool",
          "name": "",
          "type": "bool"
        }
      ],
      "stateMutability": "nonpayable",
      "type": "function"
    },
    {
      "inputs": [
        {
          "internalType": "address",
          "name": "from",
          "type": "address"
        },
        {
          "internalType": "address",
          "name": "to",
          "type": "address"
        },
        {
          "internalType": "uint256",
          "name": "amount",
          "type": "uint256"
        }
      ],
      "name": "transferFrom",
      "outputs": [
        {
          "internalType": "bool",
          "name": "",
          "type": "bool"
        }
      ],
      "stateMutability": "nonpayable",
      "type": "function"
    },
    {
      "inputs": [
        {
          "internalType": "address",
          "name": "newOwner",
          "type": "address"
        }
      ],
      "name": "transferOwnership",
      "outputs": [],
      "stateMutability": "nonpayable",
      "type": "function"
    },
    {
      "inputs": [],
      "name": "treasury",
      "outputs": [
        {
          "internalType": "address",
          "name": "",
          "type": "address"
        }
      ],
      "stateMutability": "view",
      "type": "function"
    },
    {
      "inputs": [
        {
          "internalType": "uint16",
          "name": "",
          "type": "uint16"
        }
      ],
      "name": "trustedRemoteLookup",
      "outputs": [
        {
          "internalType": "bytes",
          "name": "",
          "type": "bytes"
        }
      ],
      "stateMutability": "view",
      "type": "function"
    },
    {
      "inputs": [
        {
          "internalType": "address",
          "name": "account",
          "type": "address"
        },
        {
          "internalType": "uint256",
          "name": "amount",
          "type": "uint256"
        }
      ],
      "name": "unprotectedMint",
      "outputs": [],
      "stateMutability": "nonpayable",
      "type": "function"
    },
    {
      "inputs": [
        {
          "internalType": "address",
          "name": "_sender",
          "type": "address"
        },
        {
          "internalType": "address",
          "name": "_receiver",
          "type": "address"
        },
        {
          "internalType": "uint256",
          "name": "_amount",
          "type": "uint256"
        }
      ],
      "name": "unprotectedTransferFrom",
      "outputs": [],
      "stateMutability": "nonpayable",
      "type": "function"
    },
    {
      "inputs": [],
      "name": "useCustomAdapterParams",
      "outputs": [
        {
          "internalType": "bool",
          "name": "",
          "type": "bool"
        }
      ],
      "stateMutability": "view",
      "type": "function"
    }
  ],
  "bytecode": "0x61010060405269d3c21bcecceda1000000600f553480156200002057600080fd5b5060405162004f4138038062004f418339810160408190526200004391620004d4565b8060405180604001604052806005815260200164566573746160d81b81525060405180604001604052806003815260200162594f5560e81b8152506006733c2269811836af69497e5f486a85d7316753cf62838383838383838381818080620000bb620000b56200030060201b60201c565b62000304565b6001600160a01b0316608052505060ff1660a05250600b9050620000e08382620005aa565b50600c620000ef8282620005aa565b5050506000620001046200035460201b60201c565b90508060ff168360ff161115620001725760405162461bcd60e51b815260206004820152602760248201527f4f46543a20736861726564446563696d616c73206d757374206265203c3d20646044820152666563696d616c7360c81b60648201526084015b60405180910390fd5b6200017e83826200068c565b6200018b90600a620007a5565b60c052504693507f8b73c3c69bb8fe3d512ecc4cf759cc79239f7b179b0ffacaa9a75d522b39400f9250620001c291505062000359565b805160209182012060408051808201825260018152603160f81b90840152805192830193909352918101919091527fc89efdaa54c0f20c7adf612882df0950f5a951637e0307cdcb4c672f298b8bc66060820152608081018290523060a082015260c00160408051601f198184030181529190528051602090910120600e555050506001600160a01b0383169150620002a090505760405162461bcd60e51b815260206004820152601460248201527f496e76616c696420547265617375727920536967000000000000000000000000604482015260640162000169565b6001600160a01b03811660e052600f54620002d6903390620002d0906032620003f3602090811b62001f3917901c565b6200040a565b620002f881620002d06032600f54620003f360201b62001f391790919060201c565b5050620007e6565b3390565b600080546001600160a01b038381166001600160a01b0319831681178455604051919092169283917f8be0079c531659141344cd1fd0a4f28419497f9722a3daafe3b4186f6b6457e09190a35050565b601290565b6060600b80546200036a906200051c565b80601f016020809104026020016040519081016040528092919081815260200182805462000398906200051c565b8015620003e95780601f10620003bd57610100808354040283529160200191620003e9565b820191906000526020600020905b815481529060010190602001808311620003cb57829003601f168201915b5050505050905090565b6000620004018284620007b6565b90505b92915050565b6001600160a01b038216620004625760405162461bcd60e51b815260206004820152601f60248201527f45524332303a206d696e7420746f20746865207a65726f206164647265737300604482015260640162000169565b80600a6000828254620004769190620007d0565b90915550506001600160a01b0382166000818152600860209081526040808320805486019055518481527fddf252ad1be2c89b69c2b068fc378daa952ba7f163c4a11628f55a4df523b3ef910160405180910390a35050565b505050565b600060208284031215620004e757600080fd5b81516001600160a01b0381168114620004ff57600080fd5b9392505050565b634e487b7160e01b600052604160045260246000fd5b600181811c908216806200053157607f821691505b6020821081036200055257634e487b7160e01b600052602260045260246000fd5b50919050565b601f821115620004cf57600081815260208120601f850160051c81016020861015620005815750805b601f850160051c820191505b81811015620005a2578281556001016200058d565b505050505050565b81516001600160401b03811115620005c657620005c662000506565b620005de81620005d784546200051c565b8462000558565b602080601f831160018114620006165760008415620005fd5750858301515b600019600386901b1c1916600185901b178555620005a2565b600085815260208120601f198616915b82811015620006475788860151825594840194600190910190840162000626565b5085821015620006665787850151600019600388901b60f8161c191681555b5050505050600190811b01905550565b634e487b7160e01b600052601160045260246000fd5b60ff828116828216039081111562000404576200040462000676565b600181815b80851115620006e9578160001904821115620006cd57620006cd62000676565b80851615620006db57918102915b93841c9390800290620006ad565b509250929050565b600082620007025750600162000404565b81620007115750600062000404565b81600181146200072a5760028114620007355762000755565b600191505062000404565b60ff84111562000749576200074962000676565b50506001821b62000404565b5060208310610133831016604e8410600b84101617156200077a575081810a62000404565b620007868383620006a8565b80600019048211156200079d576200079d62000676565b029392505050565b60006200040160ff841683620006f1565b808202811582820484141762000404576200040462000676565b8082018082111562000404576200040462000676565b60805160a05160c05160e0516146e26200085f600039600061061301526000613080015260006107250152600081816108e201528181610ab201528181610dda01528181610e9a01528181611062015281816116fb01528181611eb9015281816123bc0152818161286f0152612fc101526146e26000f3fe6080604052600436106102bc5760003560e01c80621d3567146102c157806301ffc9a7146102e357806303d999461461031857806306fdde031461033857806307e0db171461035a578063095ea7b31461037a5780630df374831461039a57806310ddb137146103ba57806318160ddd146103da57806323b872dd146103f957806330adf81f14610419578063313ce5671461043b5780633408e4701461045d5780633644e51514610470578063365260b414610486578063387a54d9146104bb57806339509351146104db5780633d8b38f6146104fb5780633f1f4fa41461051b57806342d65a8d1461054857806344770515146105685780634c42899a1461057d5780635099f99f146105925780635b8c41e6146105b257806361d027b31461060157806366ad5c8a14610642578063695ef6bf1461066257806370a0823114610675578063715018a6146106ab5780637533d788146106c057806376203b48146106e05780637ecebe00146106f3578063857749b0146107135780638cfd8f5c146107475780638da5cb5b1461077f5780639358928b14610794578063950c8a74146107a957806395d89b41146107c95780639a8a05921461045d5780639bdb9812146107de5780639f38369a14610830578063a457c2d714610850578063a4c51df514610870578063a6c3d16514610890578063a9059cbb146108b0578063b353aaa7146108d0578063baf3292d14610904578063c446183414610924578063cbed8b9c1461093a578063d1deba1f1461095a578063d505accf1461096d578063db303211146104bb578063dd62ed3e1461098d578063df2a5b3b146109ad578063e6a20ae6146109cd578063eab45d9c146109e2578063eaffd49a14610a02578063eb8d72b714610a22578063ed629c5c14610a42578063f2fde38b14610a5c578063f5ecbdbc14610a7c578063fc0c546a14610a9c575b600080fd5b3480156102cd57600080fd5b506102e16102dc366004613616565b610aaf565b005b3480156102ef57600080fd5b506103036102fe3660046136a9565b610ce0565b60405190151581526020015b60405180910390f35b34801561032457600080fd5b506102e16103333660046136e8565b610d17565b34801561034457600080fd5b5061034d610d27565b60405161030f9190613779565b34801561036657600080fd5b506102e161037536600461378c565b610db9565b34801561038657600080fd5b506103036103953660046137a7565b610e42565b3480156103a657600080fd5b506102e16103b53660046137d3565b610e5a565b3480156103c657600080fd5b506102e16103d536600461378c565b610e79565b3480156103e657600080fd5b50600a545b60405190815260200161030f565b34801561040557600080fd5b506103036104143660046136e8565b610ed1565b34801561042557600080fd5b506103eb60008051602061468d83398151915281565b34801561044757600080fd5b5060125b60405160ff909116815260200161030f565b34801561046957600080fd5b50466103eb565b34801561047c57600080fd5b506103eb600e5481565b34801561049257600080fd5b506104a66104a13660046137ff565b610ef5565b6040805192835260208301919091520161030f565b3480156104c757600080fd5b506102e16104d63660046136e8565b610f4a565b3480156104e757600080fd5b506103036104f63660046137a7565b610f55565b34801561050757600080fd5b50610303610516366004613864565b610f77565b34801561052757600080fd5b506103eb61053636600461378c565b60036020526000908152604090205481565b34801561055457600080fd5b506102e1610563366004613864565b611043565b34801561057457600080fd5b506103eb600081565b34801561058957600080fd5b5061044b600081565b34801561059e57600080fd5b506102e16105ad3660046137a7565b6110c9565b3480156105be57600080fd5b506103eb6105cd366004613923565b6005602090815260009384526040808520845180860184018051928152908401958401959095209452929052825290205481565b34801561060d57600080fd5b506106357f000000000000000000000000000000000000000000000000000000000000000081565b60405161030f91906139c3565b34801561064e57600080fd5b506102e161065d366004613616565b6110d7565b6102e16106703660046139ef565b6111b3565b34801561068157600080fd5b506103eb610690366004613a62565b6001600160a01b031660009081526008602052604090205490565b3480156106b757600080fd5b506102e161121e565b3480156106cc57600080fd5b5061034d6106db36600461378c565b611232565b6102e16106ee366004613a7f565b6112cc565b3480156106ff57600080fd5b506103eb61070e366004613a62565b61137b565b34801561071f57600080fd5b5061044b7f000000000000000000000000000000000000000000000000000000000000000081565b34801561075357600080fd5b506103eb610762366004613b31565b600260209081526000928352604080842090915290825290205481565b34801561078b57600080fd5b50610635611399565b3480156107a057600080fd5b506103eb6113a8565b3480156107b557600080fd5b50600454610635906001600160a01b031681565b3480156107d557600080fd5b5061034d6113b8565b3480156107ea57600080fd5b506103036107f9366004613923565b6007602090815260009384526040808520845180860184018051928152908401958401959095209452929052825290205460ff1681565b34801561083c57600080fd5b5061034d61084b36600461378c565b6113c7565b34801561085c57600080fd5b5061030361086b3660046137a7565b6114dd565b34801561087c57600080fd5b506104a661088b366004613b64565b611558565b34801561089c57600080fd5b506102e16108ab366004613864565b6115e7565b3480156108bc57600080fd5b506103036108cb3660046137a7565b611670565b3480156108dc57600080fd5b506106357f000000000000000000000000000000000000000000000000000000000000000081565b34801561091057600080fd5b506102e161091f366004613a62565b61167e565b34801561093057600080fd5b506103eb61271081565b34801561094657600080fd5b506102e1610955366004613c1d565b6116dc565b6102e1610968366004613616565b611766565b34801561097957600080fd5b506102e1610988366004613c8b565b61197c565b34801561099957600080fd5b506103eb6109a8366004613d02565b611b82565b3480156109b957600080fd5b506102e16109c8366004613d3b565b611bad565b3480156109d957600080fd5b5061044b600181565b3480156109ee57600080fd5b506102e16109fd366004613d77565b611c5f565b348015610a0e57600080fd5b506102e1610a1d366004613d92565b611ca8565b348015610a2e57600080fd5b506102e1610a3d366004613864565b611db5565b348015610a4e57600080fd5b506006546103039060ff1681565b348015610a6857600080fd5b506102e1610a77366004613a62565b611e0f565b348015610a8857600080fd5b5061034d610a97366004613e5a565b611e88565b348015610aa857600080fd5b5030610635565b337f00000000000000000000000000000000000000000000000000000000000000006001600160a01b031614610b2c5760405162461bcd60e51b815260206004820152601e60248201527f4c7a4170703a20696e76616c696420656e64706f696e742063616c6c6572000060448201526064015b60405180910390fd5b61ffff861660009081526001602052604081208054610b4a90613ea7565b80601f0160208091040260200160405190810160405280929190818152602001828054610b7690613ea7565b8015610bc35780601f10610b9857610100808354040283529160200191610bc3565b820191906000526020600020905b815481529060010190602001808311610ba657829003601f168201915b50505050509050805186869050148015610bde575060008151115b8015610c06575080516020820120604051610bfc9088908890613edb565b6040518091039020145b610c615760405162461bcd60e51b815260206004820152602660248201527f4c7a4170703a20696e76616c696420736f757263652073656e64696e6720636f6044820152651b9d1c9858dd60d21b6064820152608401610b23565b610cd78787878080601f01602080910402602001604051908101604052809392919081815260200183838082843760009201919091525050604080516020601f8a018190048102820181019092528881528a935091508890889081908401838280828437600092019190915250611f4592505050565b50505050505050565b60006001600160e01b03198216631f7ecdf760e01b1480610d1157506301ffc9a760e01b6001600160e01b03198316145b92915050565b610d22838383611fbe565b505050565b6060600b8054610d3690613ea7565b80601f0160208091040260200160405190810160405280929190818152602001828054610d6290613ea7565b8015610daf5780601f10610d8457610100808354040283529160200191610daf565b820191906000526020600020905b815481529060010190602001808311610d9257829003601f168201915b5050505050905090565b610dc16120e2565b6040516307e0db1760e01b815261ffff821660048201527f00000000000000000000000000000000000000000000000000000000000000006001600160a01b0316906307e0db17906024015b600060405180830381600087803b158015610e2757600080fd5b505af1158015610e3b573d6000803e3d6000fd5b5050505050565b600033610e50818585611fbe565b5060019392505050565b610e626120e2565b61ffff909116600090815260036020526040902055565b610e816120e2565b6040516310ddb13760e01b815261ffff821660048201527f00000000000000000000000000000000000000000000000000000000000000006001600160a01b0316906310ddb13790602401610e0d565b600033610edf858285612141565b610eea8585856121bb565b506001949350505050565b600080610f3b8888888888888080601f01602080910402602001604051908101604052809392919081815260200183838082843760009201919091525061235492505050565b91509150965096945050505050565b610d228383836121bb565b600033610e50818585610f688383611b82565b610f729190613f01565b611fbe565b61ffff831660009081526001602052604081208054829190610f9890613ea7565b80601f0160208091040260200160405190810160405280929190818152602001828054610fc490613ea7565b80156110115780601f10610fe657610100808354040283529160200191611011565b820191906000526020600020905b815481529060010190602001808311610ff457829003601f168201915b505050505090508383604051611028929190613edb565b60405180910390208180519060200120149150509392505050565b61104b6120e2565b6040516342d65a8d60e01b81526001600160a01b037f000000000000000000000000000000000000000000000000000000000000000016906342d65a8d9061109b90869086908690600401613f3d565b600060405180830381600087803b1580156110b557600080fd5b505af1158015610cd7573d6000803e3d6000fd5b6110d38282612448565b5050565b3330146111355760405162461bcd60e51b815260206004820152602660248201527f4e6f6e626c6f636b696e674c7a4170703a2063616c6c6572206d7573742062656044820152650204c7a4170760d41b6064820152608401610b23565b6111ab8686868080601f01602080910402602001604051908101604052809392919081815260200183838082843760009201919091525050604080516020601f8901819004810282018101909252878152899350915087908790819084018382808284376000920191909152506124f792505050565b505050505050565b6111ab858585856111c76020870187613a62565b6111d76040880160208901613a62565b6111e46040890189613f5b565b8080601f01602080910402602001604051908101604052809392919081815260200183838082843760009201919091525061257d92505050565b6112266120e2565b6112306000612627565b565b6001602052600090815260409020805461124b90613ea7565b80601f016020809104026020016040519081016040528092919081815260200182805461127790613ea7565b80156112c45780601f10611299576101008083540402835291602001916112c4565b820191906000526020600020905b8154815290600101906020018083116112a757829003601f168201915b505050505081565b6113708888888888888080601f0160208091040260200160405190810160405280939291908181526020018383808284376000920191909152508a92506113199150506020890189613a62565b61132960408a0160208b01613a62565b61133660408b018b613f5b565b8080601f01602080910402602001604051908101604052809392919081815260200183838082843760009201919091525061267792505050565b505050505050505050565b6001600160a01b0381166000908152600d6020526040812054610d11565b6000546001600160a01b031690565b60006113b3600a5490565b905090565b6060600c8054610d3690613ea7565b61ffff81166000908152600160205260408120805460609291906113ea90613ea7565b80601f016020809104026020016040519081016040528092919081815260200182805461141690613ea7565b80156114635780601f1061143857610100808354040283529160200191611463565b820191906000526020600020905b81548152906001019060200180831161144657829003601f168201915b5050505050905080516000036114bb5760405162461bcd60e51b815260206004820152601d60248201527f4c7a4170703a206e6f20747275737465642070617468207265636f72640000006044820152606401610b23565b6114d66000601483516114ce9190613fa1565b839190612735565b9392505050565b600033816114eb8286611b82565b90508381101561154b5760405162461bcd60e51b815260206004820152602560248201527f45524332303a2064656372656173656420616c6c6f77616e63652062656c6f77604482015264207a65726f60d81b6064820152608401610b23565b610eea8286868403611fbe565b6000806115d58b8b8b8b8b8080601f01602080910402602001604051908101604052809392919081815260200183838082843760009201919091525050604080516020601f8d018190048102820181019092528b81528e93508d9250908c908c908190840183828082843760009201919091525061284292505050565b91509150995099975050505050505050565b6115ef6120e2565b81813060405160200161160493929190613fb4565b60408051601f1981840301815291815261ffff851660009081526001602052209061162f9082614030565b507f8c0400cfe2d1199b1a725c78960bcc2a344d869b80590d0f2bd005db15a572ce83838360405161166393929190613f3d565b60405180910390a1505050565b600033610e508185856121bb565b6116866120e2565b600480546001600160a01b0319166001600160a01b0383161790556040517f5db758e995a17ec1ad84bdef7e8c3293a0bd6179bcce400dff5d4c3d87db726b906116d19083906139c3565b60405180910390a150565b6116e46120e2565b6040516332fb62e760e21b81526001600160a01b037f0000000000000000000000000000000000000000000000000000000000000000169063cbed8b9c9061173890889088908890889088906004016140e9565b600060405180830381600087803b15801561175257600080fd5b505af1158015611370573d6000803e3d6000fd5b61ffff861660009081526005602052604080822090516117899088908890613edb565b90815260408051602092819003830190206001600160401b038716600090815292529020549050806118095760405162461bcd60e51b815260206004820152602360248201527f4e6f6e626c6f636b696e674c7a4170703a206e6f2073746f726564206d65737360448201526261676560e81b6064820152608401610b23565b80838360405161181a929190613edb565b6040518091039020146118795760405162461bcd60e51b815260206004820152602160248201527f4e6f6e626c6f636b696e674c7a4170703a20696e76616c6964207061796c6f616044820152601960fa1b6064820152608401610b23565b61ffff8716600090815260056020526040808220905161189c9089908990613edb565b90815260408051602092819003830181206001600160401b038916600090815290845282902093909355601f88018290048202830182019052868252611934918991899089908190840183828082843760009201919091525050604080516020601f8a018190048102820181019092528881528a9350915088908890819084018382808284376000920191909152506124f792505050565b7fc264d91f3adc5588250e1551f547752ca0cfa8f6b530d243b9f9f4cab10ea8e5878787878560405161196b959493929190614122565b60405180910390a150505050505050565b834211156119c75760405162461bcd60e51b81526020600482015260186024820152775065726d69743a206578706972656420646561646c696e6560401b6044820152606401610b23565b6001600160a01b038781166000818152600d6020908152604080832054815160008051602061468d8339815191528185015280830195909552948b166060850152608084018a905260a084019490945260c08084018990528451808503909101815260e084018552805190820120600e5461190160f01b61010086015261010285015261012280850182905285518086039091018152610142850180875281519184019190912090849052610162850180875281905260ff89166101828601526101a285018890526101c2850187905294519094936001926101e2808301939192601f198301929081900390910190855afa158015611aca573d6000803e3d6000fd5b5050604051601f1901519150506001600160a01b03811615801590611b005750896001600160a01b0316816001600160a01b0316145b611b4c5760405162461bcd60e51b815260206004820152601e60248201527f45524332305065726d69743a20496e76616c6964207369676e617475726500006044820152606401610b23565b6001600160a01b038a166000908152600d6020526040902080546001019055611b768a8a8a611fbe565b50505050505050505050565b6001600160a01b03918216600090815260096020908152604080832093909416825291909152205490565b611bb56120e2565b60008111611bfd5760405162461bcd60e51b81526020600482015260156024820152744c7a4170703a20696e76616c6964206d696e47617360581b6044820152606401610b23565b61ffff83811660008181526002602090815260408083209487168084529482529182902085905581519283528201929092529081018290527f9d5c7c0b934da8fefa9c7760c98383778a12dfbfc0c3b3106518f43fb9508ac090606001611663565b611c676120e2565b6006805460ff19168215159081179091556040519081527f1584ad594a70cbe1e6515592e1272a987d922b097ead875069cebe8b40c004a4906020016116d1565b333014611cf75760405162461bcd60e51b815260206004820152601f60248201527f4f4654436f72653a2063616c6c6572206d757374206265204f4654436f7265006044820152606401610b23565b611d023086866128fd565b9350846001600160a01b03168a61ffff1660008051602061464d83398151915286604051611d3291815260200190565b60405180910390a3604051633fe79aed60e11b81526001600160a01b03861690637fcf35da908390611d76908e908e908e908e908e908d908d908d9060040161415d565b600060405180830381600088803b158015611d9057600080fd5b5087f1158015611da4573d6000803e3d6000fd5b505050505050505050505050505050565b611dbd6120e2565b61ffff83166000908152600160205260409020611ddb8284836141ba565b507ffa41487ad5d6728f0b19276fa1eddc16558578f5109fc39d2dc33c3230470dab83838360405161166393929190613f3d565b611e176120e2565b6001600160a01b038116611e7c5760405162461bcd60e51b815260206004820152602660248201527f4f776e61626c653a206e6577206f776e657220697320746865207a65726f206160448201526564647265737360d01b6064820152608401610b23565b611e8581612627565b50565b604051633d7b2f6f60e21b815261ffff808616600483015284166024820152306044820152606481018290526060907f00000000000000000000000000000000000000000000000000000000000000006001600160a01b03169063f5ecbdbc90608401600060405180830381865afa158015611f08573d6000803e3d6000fd5b505050506040513d6000823e601f3d908101601f19168201604052611f309190810190614273565b95945050505050565b60006114d682846142e0565b600080611fa85a60966366ad5c8a60e01b89898989604051602401611f6d94939291906142f7565b60408051601f198184030181529190526020810180516001600160e01b03166001600160e01b0319909316929092179091523092919061294f565b91509150816111ab576111ab86868686856129d9565b6001600160a01b0383166120205760405162461bcd60e51b8152602060048201526024808201527f45524332303a20617070726f76652066726f6d20746865207a65726f206164646044820152637265737360e01b6064820152608401610b23565b6001600160a01b0382166120815760405162461bcd60e51b815260206004820152602260248201527f45524332303a20617070726f766520746f20746865207a65726f206164647265604482015261737360f01b6064820152608401610b23565b6001600160a01b0383811660008181526009602090815260408083209487168084529482529182902085905590518481527f8c5be1e5ebec7d5bd14f71427d1e84f3dd0314c0f7b2291e5b200ac8c7c3b925910160405180910390a3505050565b336120eb611399565b6001600160a01b0316146112305760405162461bcd60e51b815260206004820181905260248201527f4f776e61626c653a2063616c6c6572206973206e6f7420746865206f776e65726044820152606401610b23565b600061214d8484611b82565b905060001981146121b557818110156121a85760405162461bcd60e51b815260206004820152601d60248201527f45524332303a20696e73756666696369656e7420616c6c6f77616e63650000006044820152606401610b23565b6121b58484848403611fbe565b50505050565b6001600160a01b03831661221f5760405162461bcd60e51b815260206004820152602560248201527f45524332303a207472616e736665722066726f6d20746865207a65726f206164604482015264647265737360d81b6064820152608401610b23565b6001600160a01b0382166122815760405162461bcd60e51b815260206004820152602360248201527f45524332303a207472616e7366657220746f20746865207a65726f206164647260448201526265737360e81b6064820152608401610b23565b6001600160a01b038316600090815260086020526040902054818110156122f95760405162461bcd60e51b815260206004820152602660248201527f45524332303a207472616e7366657220616d6f756e7420657863656564732062604482015265616c616e636560d01b6064820152608401610b23565b6001600160a01b03808516600081815260086020526040808220868603905592861680825290839020805486019055915160008051602061466d833981519152906123479086815260200190565b60405180910390a36121b5565b60008060006123a28761236688612a76565b6040805160006020820152602181019390935260c09190911b6001600160c01b0319166041830152805160298184030181526049909201905290565b60405163040a7bb160e41b81529091506001600160a01b037f000000000000000000000000000000000000000000000000000000000000000016906340a7bb10906123f9908b90309086908b908b90600401614335565b6040805180830381865afa158015612415573d6000803e3d6000fd5b505050506040513d601f19601f820116820180604052508101906124399190614389565b92509250509550959350505050565b6001600160a01b03821661249e5760405162461bcd60e51b815260206004820152601f60248201527f45524332303a206d696e7420746f20746865207a65726f2061646472657373006044820152606401610b23565b80600a60008282546124b09190613f01565b90915550506001600160a01b03821660008181526008602090815260408083208054860190555184815260008051602061466d833981519152910160405180910390a35050565b60006125038282612ae1565b905060ff811661251e5761251985858585612b3d565b610e3b565b60001960ff8216016125365761251985858585612bbb565b60405162461bcd60e51b815260206004820152601c60248201527b4f4654436f72653a20756e6b6e6f776e207061636b6574207479706560201b6044820152606401610b23565b600061258b87828481612dc4565b61259485612e3e565b5090506125a388888884612e66565b9050600081116125c55760405162461bcd60e51b8152600401610b23906143ad565b60006125d48761236684612a76565b90506125e4888287878734612e98565b86896001600160a01b03168961ffff1660008051602061462d8339815191528560405161261391815260200190565b60405180910390a450979650505050505050565b600080546001600160a01b038381166001600160a01b0319831681178455604051919092169283917f8be0079c531659141344cd1fd0a4f28419497f9722a3daafe3b4186f6b6457e09190a35050565b600061268f896001846001600160401b038916612dc4565b61269887612e3e565b5090506126a78a8a8a84612e66565b9050600081116126c95760405162461bcd60e51b8152600401610b23906143ad565b60006126e0338a6126d985612a76565b8a8a61303d565b90506126f08a8287878734612e98565b888b6001600160a01b03168b61ffff1660008051602061462d8339815191528560405161271f91815260200190565b60405180910390a4509998505050505050505050565b60608161274381601f613f01565b10156127825760405162461bcd60e51b815260206004820152600e60248201526d736c6963655f6f766572666c6f7760901b6044820152606401610b23565b61278c8284613f01565b845110156127d05760405162461bcd60e51b8152602060048201526011602482015270736c6963655f6f75744f66426f756e647360781b6044820152606401610b23565b6060821580156127ef5760405191506000825260208201604052612839565b6040519150601f8416801560200281840101858101878315602002848b0101015b81831015612828578051835260209283019201612810565b5050858452601f01601f1916604052505b50949350505050565b6000806000612855338a6126d98b612a76565b60405163040a7bb160e41b81529091506001600160a01b037f000000000000000000000000000000000000000000000000000000000000000016906340a7bb10906128ac908d90309086908b908b90600401614335565b6040805180830381865afa1580156128c8573d6000803e3d6000fd5b505050506040513d601f19601f820116820180604052508101906128ec9190614389565b925092505097509795505050505050565b600033306001600160a01b0386161480159061292b5750806001600160a01b0316856001600160a01b031614155b1561293b5761293b858285612141565b6129468585856121bb565b50909392505050565b6000606060008060008661ffff166001600160401b03811115612974576129746138b6565b6040519080825280601f01601f19166020018201604052801561299e576020820181803683370190505b50905060008087516020890160008d8df191503d9250868311156129c0578692505b828152826000602083013e909890975095505050505050565b8180519060200120600560008761ffff1661ffff16815260200190815260200160002085604051612a0a91906143e0565b9081526040805191829003602090810183206001600160401b0388166000908152915220919091557fe183f33de2837795525b4792ca4cd60535bd77c53b7e7030060bfcf5734d6b0c90612a6790879087908790879087906143fc565b60405180910390a15050505050565b600080612a8161307e565b612a8b9084614464565b90506001600160401b03811115610d115760405162461bcd60e51b815260206004820152601a6024820152794f4654436f72653a20616d6f756e745344206f766572666c6f7760301b6044820152606401610b23565b6000612aee826001613f01565b83511015612b345760405162461bcd60e51b8152602060048201526013602482015272746f55696e74385f6f75744f66426f756e647360681b6044820152606401610b23565b50016001015190565b600080612b49836130a2565b90925090506001600160a01b038216612b625761dead91505b6000612b6d826130fc565b9050612b7a878483613119565b9050826001600160a01b03168761ffff1660008051602061464d83398151915283604051612baa91815260200190565b60405180910390a350505050505050565b6000806000806000612bcc8661312c565b945094509450945094506000600760008b61ffff1661ffff16815260200190815260200160002089604051612c0191906143e0565b90815260408051602092819003830190206001600160401b038b166000908152925281205460ff169150612c34856130fc565b905081612ca257612c468b3083613119565b61ffff8c16600090815260076020526040908190209051919250600191612c6e908d906143e0565b90815260408051602092819003830190206001600160401b038d16600090815292529020805460ff19169115159190911790555b6001600160a01b0386163b612cf4577f9aedf5fdba8716db3b6705ca00150643309995d4f818a249ed6dde6677e7792d86604051612ce091906139c3565b60405180910390a1505050505050506121b5565b8a8a8a8a8a8a868a60008a612d12578b6001600160401b0316612d14565b5a5b9050600080612d465a609663eaffd49a60e01b8e8e8e8d8d8d8d8d604051602401611f6d989796959493929190614478565b915091508115612d9f578751602089012060405161ffff8d16907fb8890edbfc1c74692f527444645f95489c3703cc2df42e4a366f5d06fa6cd88490612d91908e908e9086906144ec565b60405180910390a250612dac565b612dac8b8b8b8b856129d9565b50505050505050505050505050505050505050505050565b60065460ff1615612de057612ddb848484846131b8565b6121b5565b8151156121b55760405162461bcd60e51b815260206004820152602660248201527f4f4654436f72653a205f61646170746572506172616d73206d7573742062652060448201526532b6b83a3c9760d11b6064820152608401610b23565b600080612e4961307e565b612e53908461451a565b9050612e5f8184613fa1565b9150915091565b6000336001600160a01b0386168114612e8457612e84868285612141565b612e8e8684613292565b5090949350505050565b61ffff861660009081526001602052604081208054612eb690613ea7565b80601f0160208091040260200160405190810160405280929190818152602001828054612ee290613ea7565b8015612f2f5780601f10612f0457610100808354040283529160200191612f2f565b820191906000526020600020905b815481529060010190602001808311612f1257829003601f168201915b505050505090508051600003612fa05760405162461bcd60e51b815260206004820152603060248201527f4c7a4170703a2064657374696e6174696f6e20636861696e206973206e6f742060448201526f61207472757374656420736f7572636560801b6064820152608401610b23565b612fab8787516133b4565b60405162c5803160e81b81526001600160a01b037f0000000000000000000000000000000000000000000000000000000000000000169063c5803100908490613002908b9086908c908c908c908c9060040161452e565b6000604051808303818588803b15801561301b57600080fd5b505af115801561302f573d6000803e3d6000fd5b505050505050505050505050565b6060600185856001600160a01b038916858760405160200161306496959493929190614595565b604051602081830303815290604052905095945050505050565b7f000000000000000000000000000000000000000000000000000000000000000090565b600080806130b08482612ae1565b60ff161480156130c1575082516029145b6130dd5760405162461bcd60e51b8152600401610b23906145fa565b6130e883600d613425565b91506130f583602161348a565b9050915091565b600061310661307e565b610d11906001600160401b0384166142e0565b60006131258383612448565b5092915050565b60008080606081600161313f8783612ae1565b60ff161461315f5760405162461bcd60e51b8152600401610b23906145fa565b61316a86600d613425565b935061317786602161348a565b92506131848660296134e7565b945061319186604961348a565b90506131ad60518088516131a59190613fa1565b889190612735565b915091939590929450565b60006131c383613545565b61ffff8087166000908152600260209081526040808320938916835292905290812054919250906131f5908490613f01565b9050600081116132445760405162461bcd60e51b815260206004820152601a602482015279131e905c1c0e881b5a5b91d85cd31a5b5a5d081b9bdd081cd95d60321b6044820152606401610b23565b808210156111ab5760405162461bcd60e51b815260206004820152601b60248201527a4c7a4170703a20676173206c696d697420697320746f6f206c6f7760281b6044820152606401610b23565b6001600160a01b0382166132f25760405162461bcd60e51b815260206004820152602160248201527f45524332303a206275726e2066726f6d20746865207a65726f206164647265736044820152607360f81b6064820152608401610b23565b6001600160a01b038216600090815260086020526040902054818110156133665760405162461bcd60e51b815260206004820152602260248201527f45524332303a206275726e20616d6f756e7420657863656564732062616c616e604482015261636560f01b6064820152608401610b23565b6001600160a01b03831660008181526008602090815260408083208686039055600a805487900390555185815291929160008051602061466d833981519152910160405180910390a3505050565b61ffff8216600090815260036020526040812054908190036133d557506127105b80821115610d225760405162461bcd60e51b815260206004820181905260248201527f4c7a4170703a207061796c6f61642073697a6520697320746f6f206c617267656044820152606401610b23565b6000613432826014613f01565b8351101561347a5760405162461bcd60e51b8152602060048201526015602482015274746f416464726573735f6f75744f66426f756e647360581b6044820152606401610b23565b500160200151600160601b900490565b6000613497826008613f01565b835110156134de5760405162461bcd60e51b8152602060048201526014602482015273746f55696e7436345f6f75744f66426f756e647360601b6044820152606401610b23565b50016008015190565b60006134f4826020613f01565b8351101561353c5760405162461bcd60e51b8152602060048201526015602482015274746f427974657333325f6f75744f66426f756e647360581b6044820152606401610b23565b50016020015190565b60006022825110156135985760405162461bcd60e51b815260206004820152601c60248201527b4c7a4170703a20696e76616c69642061646170746572506172616d7360201b6044820152606401610b23565b506022015190565b803561ffff811681146135b257600080fd5b919050565b60008083601f8401126135c957600080fd5b5081356001600160401b038111156135e057600080fd5b6020830191508360208285010111156135f857600080fd5b9250929050565b80356001600160401b03811681146135b257600080fd5b6000806000806000806080878903121561362f57600080fd5b613638876135a0565b955060208701356001600160401b038082111561365457600080fd5b6136608a838b016135b7565b909750955085915061367460408a016135ff565b9450606089013591508082111561368a57600080fd5b5061369789828a016135b7565b979a9699509497509295939492505050565b6000602082840312156136bb57600080fd5b81356001600160e01b0319811681146114d657600080fd5b6001600160a01b0381168114611e8557600080fd5b6000806000606084860312156136fd57600080fd5b8335613708816136d3565b92506020840135613718816136d3565b929592945050506040919091013590565b60005b8381101561374457818101518382015260200161372c565b50506000910152565b60008151808452613765816020860160208601613729565b601f01601f19169290920160200192915050565b6020815260006114d6602083018461374d565b60006020828403121561379e57600080fd5b6114d6826135a0565b600080604083850312156137ba57600080fd5b82356137c5816136d3565b946020939093013593505050565b600080604083850312156137e657600080fd5b6137c5836135a0565b803580151581146135b257600080fd5b60008060008060008060a0878903121561381857600080fd5b613821876135a0565b9550602087013594506040870135935061383d606088016137ef565b925060808701356001600160401b0381111561385857600080fd5b61369789828a016135b7565b60008060006040848603121561387957600080fd5b613882846135a0565b925060208401356001600160401b0381111561389d57600080fd5b6138a9868287016135b7565b9497909650939450505050565b634e487b7160e01b600052604160045260246000fd5b604051601f8201601f191681016001600160401b03811182821017156138f4576138f46138b6565b604052919050565b60006001600160401b03821115613915576139156138b6565b50601f01601f191660200190565b60008060006060848603121561393857600080fd5b613941846135a0565b925060208401356001600160401b0381111561395c57600080fd5b8401601f8101861361396d57600080fd5b803561398061397b826138fc565b6138cc565b81815287602083850101111561399557600080fd5b816020840160208301376000602083830101528094505050506139ba604085016135ff565b90509250925092565b6001600160a01b0391909116815260200190565b6000606082840312156139e957600080fd5b50919050565b600080600080600060a08688031215613a0757600080fd5b8535613a12816136d3565b9450613a20602087016135a0565b9350604086013592506060860135915060808601356001600160401b03811115613a4957600080fd5b613a55888289016139d7565b9150509295509295909350565b600060208284031215613a7457600080fd5b81356114d6816136d3565b60008060008060008060008060e0898b031215613a9b57600080fd5b8835613aa6816136d3565b9750613ab460208a016135a0565b9650604089013595506060890135945060808901356001600160401b0380821115613ade57600080fd5b613aea8c838d016135b7565b9096509450849150613afe60a08c016135ff565b935060c08b0135915080821115613b1457600080fd5b50613b218b828c016139d7565b9150509295985092959890939650565b60008060408385031215613b4457600080fd5b613b4d836135a0565b9150613b5b602084016135a0565b90509250929050565b600080600080600080600080600060e08a8c031215613b8257600080fd5b613b8b8a6135a0565b985060208a0135975060408a0135965060608a01356001600160401b0380821115613bb557600080fd5b613bc18d838e016135b7565b9098509650869150613bd560808d016135ff565b9550613be360a08d016137ef565b945060c08c0135915080821115613bf957600080fd5b50613c068c828d016135b7565b915080935050809150509295985092959850929598565b600080600080600060808688031215613c3557600080fd5b613c3e866135a0565b9450613c4c602087016135a0565b93506040860135925060608601356001600160401b03811115613c6e57600080fd5b613c7a888289016135b7565b969995985093965092949392505050565b600080600080600080600060e0888a031215613ca657600080fd5b8735613cb1816136d3565b96506020880135613cc1816136d3565b95506040880135945060608801359350608088013560ff81168114613ce557600080fd5b9699959850939692959460a0840135945060c09093013592915050565b60008060408385031215613d1557600080fd5b8235613d20816136d3565b91506020830135613d30816136d3565b809150509250929050565b600080600060608486031215613d5057600080fd5b613d59846135a0565b9250613d67602085016135a0565b9150604084013590509250925092565b600060208284031215613d8957600080fd5b6114d6826137ef565b6000806000806000806000806000806101008b8d031215613db257600080fd5b613dbb8b6135a0565b995060208b01356001600160401b0380821115613dd757600080fd5b613de38e838f016135b7565b909b509950899150613df760408e016135ff565b985060608d0135975060808d01359150613e10826136d3565b90955060a08c0135945060c08c01359080821115613e2d57600080fd5b50613e3a8d828e016135b7565b9150809450508092505060e08b013590509295989b9194979a5092959850565b60008060008060808587031215613e7057600080fd5b613e79856135a0565b9350613e87602086016135a0565b92506040850135613e97816136d3565b9396929550929360600135925050565b600181811c90821680613ebb57607f821691505b6020821081036139e957634e487b7160e01b600052602260045260246000fd5b8183823760009101908152919050565b634e487b7160e01b600052601160045260246000fd5b80820180821115610d1157610d11613eeb565b81835281816020850137506000828201602090810191909152601f909101601f19169091010190565b61ffff84168152604060208201526000611f30604083018486613f14565b6000808335601e19843603018112613f7257600080fd5b8301803591506001600160401b03821115613f8c57600080fd5b6020019150368190038213156135f857600080fd5b81810381811115610d1157610d11613eeb565b8284823760609190911b6001600160601b0319169101908152601401919050565b601f821115610d2257600081815260208120601f850160051c81016020861015613ffc5750805b601f850160051c820191505b818110156111ab57828155600101614008565b600019600383901b1c191660019190911b1790565b81516001600160401b03811115614049576140496138b6565b61405d816140578454613ea7565b84613fd5565b602080601f83116001811461408c576000841561407a5750858301515b614084858261401b565b8655506111ab565b600085815260208120601f198616915b828110156140bb5788860151825594840194600190910190840161409c565b50858210156140d95787850151600019600388901b60f8161c191681555b5050505050600190811b01905550565b600061ffff808816835280871660208401525084604083015260806060830152614117608083018486613f14565b979650505050505050565b61ffff86168152608060208201526000614140608083018688613f14565b6001600160401b0394909416604083015250606001529392505050565b61ffff8916815260c06020820152600061417b60c08301898b613f14565b6001600160401b0388166040840152606083018790526080830186905282810360a08401526141ab818587613f14565b9b9a5050505050505050505050565b6001600160401b038311156141d1576141d16138b6565b6141e5836141df8354613ea7565b83613fd5565b6000601f84116001811461421357600085156142015750838201355b61420b868261401b565b845550610e3b565b600083815260209020601f19861690835b828110156142445786850135825560209485019460019092019101614224565b50868210156142615760001960f88860031b161c19848701351681555b505060018560011b0183555050505050565b60006020828403121561428557600080fd5b81516001600160401b0381111561429b57600080fd5b8201601f810184136142ac57600080fd5b80516142ba61397b826138fc565b8181528560208385010111156142cf57600080fd5b611f30826020830160208601613729565b8082028115828204841417610d1157610d11613eeb565b61ffff85168152608060208201526000614314608083018661374d565b6001600160401b03851660408401528281036060840152614117818561374d565b61ffff861681526001600160a01b038516602082015260a0604082018190526000906143639083018661374d565b8415156060840152828103608084015261437d818561374d565b98975050505050505050565b6000806040838503121561439c57600080fd5b505080516020909101519092909150565b60208082526019908201527813d19510dbdc994e88185b5bdd5b9d081d1bdbc81cdb585b1b603a1b604082015260600190565b600082516143f2818460208701613729565b9190910192915050565b61ffff8616815260a06020820152600061441960a083018761374d565b6001600160401b0386166040840152828103606084015261443a818661374d565b9050828103608084015261437d818561374d565b634e487b7160e01b600052601260045260246000fd5b6000826144735761447361444e565b500490565b600061010061ffff8b1683528060208401526144968184018b61374d565b6001600160401b038a166040850152606084018990526001600160a01b038816608085015260a0840187905283810360c085015290506144d6818661374d565b9150508260e08301529998505050505050505050565b6060815260006144ff606083018661374d565b6001600160401b039490941660208301525060400152919050565b6000826145295761452961444e565b500690565b61ffff8716815260c06020820152600061454b60c083018861374d565b828103604084015261455d818861374d565b6001600160a01b0387811660608601528616608085015283810360a08501529050614588818561374d565b9998505050505050505050565b6001600160f81b031960f888901b168152600181018690526001600160c01b031960c086811b821660218401526029830186905284901b16604982015281516000906145e8816051850160208701613729565b91909101605101979650505050505050565b60208082526018908201527713d19510dbdc994e881a5b9d985b1a59081c185e5b1bd85960421b60408201526060019056fed81fc9b8523134ed613870ed029d6170cbb73aa6a6bc311b9a642689fb9df59abf551ec93859b170f9b2141bd9298bf3f64322c6f7beb2543a0cb669834118bfddf252ad1be2c89b69c2b068fc378daa952ba7f163c4a11628f55a4df523b3ef6e71edae12b1b97f4d1f60370fef10105fa2faae0126114a169c64845d6126c9a26469706673582212201e7d5ef9eb96f32c26acf5523f409dccebad3e846810a9d5974502537100de4d64736f6c63430008110033",
  "linkReferences": {},
  "deployedLinkReferences": {}
}