{
  "_format": "hh-sol-artifact-1",
  "contractName": "YOUToken",
  "sourceName": "contracts/YOU/YOUToken.sol",
  "abi": [
    {
      "inputs": [
        {
          "internalType": "address",
          "name": "_treasurySig",
          "type": "address"
        }
      ],
      "stateMutability": "nonpayable",
      "type": "constructor"
    },
    {
      "anonymous": false,
      "inputs": [
        {
          "indexed": true,
          "internalType": "address",
          "name": "owner",
          "type": "address"
        },
        {
          "indexed": true,
          "internalType": "address",
          "name": "spender",
          "type": "address"
        },
        {
          "indexed": false,
          "internalType": "uint256",
          "name": "value",
          "type": "uint256"
        }
      ],
      "name": "Approval",
      "type": "event"
    },
    {
      "anonymous": false,
      "inputs": [
        {
          "indexed": true,
          "internalType": "uint16",
          "name": "_srcChainId",
          "type": "uint16"
        },
        {
          "indexed": false,
          "internalType": "bytes",
          "name": "_srcAddress",
          "type": "bytes"
        },
        {
          "indexed": false,
          "internalType": "uint64",
          "name": "_nonce",
          "type": "uint64"
        },
        {
          "indexed": false,
          "internalType": "bytes32",
          "name": "_hash",
          "type": "bytes32"
        }
      ],
      "name": "CallOFTReceivedSuccess",
      "type": "event"
    },
    {
      "anonymous": false,
      "inputs": [
        {
          "indexed": false,
          "internalType": "uint16",
          "name": "_srcChainId",
          "type": "uint16"
        },
        {
          "indexed": false,
          "internalType": "bytes",
          "name": "_srcAddress",
          "type": "bytes"
        },
        {
          "indexed": false,
          "internalType": "uint64",
          "name": "_nonce",
          "type": "uint64"
        },
        {
          "indexed": false,
          "internalType": "bytes",
          "name": "_payload",
          "type": "bytes"
        },
        {
          "indexed": false,
          "internalType": "bytes",
          "name": "_reason",
          "type": "bytes"
        }
      ],
      "name": "MessageFailed",
      "type": "event"
    },
    {
      "anonymous": false,
      "inputs": [
        {
          "indexed": false,
          "internalType": "address",
          "name": "_address",
          "type": "address"
        }
      ],
      "name": "NonContractAddress",
      "type": "event"
    },
    {
      "anonymous": false,
      "inputs": [
        {
          "indexed": true,
          "internalType": "address",
          "name": "previousOwner",
          "type": "address"
        },
        {
          "indexed": true,
          "internalType": "address",
          "name": "newOwner",
          "type": "address"
        }
      ],
      "name": "OwnershipTransferred",
      "type": "event"
    },
    {
      "anonymous": false,
      "inputs": [
        {
          "indexed": true,
          "internalType": "uint16",
          "name": "_srcChainId",
          "type": "uint16"
        },
        {
          "indexed": true,
          "internalType": "address",
          "name": "_to",
          "type": "address"
        },
        {
          "indexed": false,
          "internalType": "uint256",
          "name": "_amount",
          "type": "uint256"
        }
      ],
      "name": "ReceiveFromChain",
      "type": "event"
    },
    {
      "anonymous": false,
      "inputs": [
        {
          "indexed": false,
          "internalType": "uint16",
          "name": "_srcChainId",
          "type": "uint16"
        },
        {
          "indexed": false,
          "internalType": "bytes",
          "name": "_srcAddress",
          "type": "bytes"
        },
        {
          "indexed": false,
          "internalType": "uint64",
          "name": "_nonce",
          "type": "uint64"
        },
        {
          "indexed": false,
          "internalType": "bytes32",
          "name": "_payloadHash",
          "type": "bytes32"
        }
      ],
      "name": "RetryMessageSuccess",
      "type": "event"
    },
    {
      "anonymous": false,
      "inputs": [
        {
          "indexed": true,
          "internalType": "uint16",
          "name": "_dstChainId",
          "type": "uint16"
        },
        {
          "indexed": true,
          "internalType": "address",
          "name": "_from",
          "type": "address"
        },
        {
          "indexed": true,
          "internalType": "bytes32",
          "name": "_toAddress",
          "type": "bytes32"
        },
        {
          "indexed": false,
          "internalType": "uint256",
          "name": "_amount",
          "type": "uint256"
        }
      ],
      "name": "SendToChain",
      "type": "event"
    },
    {
      "anonymous": false,
      "inputs": [
        {
          "indexed": false,
          "internalType": "uint16",
          "name": "_dstChainId",
          "type": "uint16"
        },
        {
          "indexed": false,
          "internalType": "uint16",
          "name": "_type",
          "type": "uint16"
        },
        {
          "indexed": false,
          "internalType": "uint256",
          "name": "_minDstGas",
          "type": "uint256"
        }
      ],
      "name": "SetMinDstGas",
      "type": "event"
    },
    {
      "anonymous": false,
      "inputs": [
        {
          "indexed": false,
          "internalType": "address",
          "name": "precrime",
          "type": "address"
        }
      ],
      "name": "SetPrecrime",
      "type": "event"
    },
    {
      "anonymous": false,
      "inputs": [
        {
          "indexed": false,
          "internalType": "uint16",
          "name": "_remoteChainId",
          "type": "uint16"
        },
        {
          "indexed": false,
          "internalType": "bytes",
          "name": "_path",
          "type": "bytes"
        }
      ],
      "name": "SetTrustedRemote",
      "type": "event"
    },
    {
      "anonymous": false,
      "inputs": [
        {
          "indexed": false,
          "internalType": "uint16",
          "name": "_remoteChainId",
          "type": "uint16"
        },
        {
          "indexed": false,
          "internalType": "bytes",
          "name": "_remoteAddress",
          "type": "bytes"
        }
      ],
      "name": "SetTrustedRemoteAddress",
      "type": "event"
    },
    {
      "anonymous": false,
      "inputs": [
        {
          "indexed": false,
          "internalType": "bool",
          "name": "_useCustomAdapterParams",
          "type": "bool"
        }
      ],
      "name": "SetUseCustomAdapterParams",
      "type": "event"
    },
    {
      "anonymous": false,
      "inputs": [
        {
          "indexed": true,
          "internalType": "address",
          "name": "from",
          "type": "address"
        },
        {
          "indexed": true,
          "internalType": "address",
          "name": "to",
          "type": "address"
        },
        {
          "indexed": false,
          "internalType": "uint256",
          "name": "value",
          "type": "uint256"
        }
      ],
      "name": "Transfer",
      "type": "event"
    },
    {
      "inputs": [],
      "name": "DEFAULT_PAYLOAD_SIZE_LIMIT",
      "outputs": [
        {
          "internalType": "uint256",
          "name": "",
          "type": "uint256"
        }
      ],
      "stateMutability": "view",
      "type": "function"
    },
    {
      "inputs": [],
      "name": "DOMAIN_SEPARATOR",
      "outputs": [
        {
          "internalType": "bytes32",
          "name": "",
          "type": "bytes32"
        }
      ],
      "stateMutability": "view",
      "type": "function"
    },
    {
      "inputs": [],
      "name": "NO_EXTRA_GAS",
      "outputs": [
        {
          "internalType": "uint256",
          "name": "",
          "type": "uint256"
        }
      ],
      "stateMutability": "view",
      "type": "function"
    },
    {
      "inputs": [],
      "name": "PERMIT_TYPEHASH",
      "outputs": [
        {
          "internalType": "bytes32",
          "name": "",
          "type": "bytes32"
        }
      ],
      "stateMutability": "view",
      "type": "function"
    },
    {
      "inputs": [],
      "name": "PT_SEND",
      "outputs": [
        {
          "internalType": "uint8",
          "name": "",
          "type": "uint8"
        }
      ],
      "stateMutability": "view",
      "type": "function"
    },
    {
      "inputs": [],
      "name": "PT_SEND_AND_CALL",
      "outputs": [
        {
          "internalType": "uint8",
          "name": "",
          "type": "uint8"
        }
      ],
      "stateMutability": "view",
      "type": "function"
    },
    {
      "inputs": [
        {
          "internalType": "address",
          "name": "owner",
          "type": "address"
        },
        {
          "internalType": "address",
          "name": "spender",
          "type": "address"
        }
      ],
      "name": "allowance",
      "outputs": [
        {
          "internalType": "uint256",
          "name": "",
          "type": "uint256"
        }
      ],
      "stateMutability": "view",
      "type": "function"
    },
    {
      "inputs": [
        {
          "internalType": "address",
          "name": "spender",
          "type": "address"
        },
        {
          "internalType": "uint256",
          "name": "amount",
          "type": "uint256"
        }
      ],
      "name": "approve",
      "outputs": [
        {
          "internalType": "bool",
          "name": "",
          "type": "bool"
        }
      ],
      "stateMutability": "nonpayable",
      "type": "function"
    },
    {
      "inputs": [
        {
          "internalType": "address",
          "name": "account",
          "type": "address"
        }
      ],
      "name": "balanceOf",
      "outputs": [
        {
          "internalType": "uint256",
          "name": "",
          "type": "uint256"
        }
      ],
      "stateMutability": "view",
      "type": "function"
    },
    {
      "inputs": [
        {
          "internalType": "uint16",
          "name": "_srcChainId",
          "type": "uint16"
        },
        {
          "internalType": "bytes",
          "name": "_srcAddress",
          "type": "bytes"
        },
        {
          "internalType": "uint64",
          "name": "_nonce",
          "type": "uint64"
        },
        {
          "internalType": "bytes32",
          "name": "_from",
          "type": "bytes32"
        },
        {
          "internalType": "address",
          "name": "_to",
          "type": "address"
        },
        {
          "internalType": "uint256",
          "name": "_amount",
          "type": "uint256"
        },
        {
          "internalType": "bytes",
          "name": "_payload",
          "type": "bytes"
        },
        {
          "internalType": "uint256",
          "name": "_gasForCall",
          "type": "uint256"
        }
      ],
      "name": "callOnOFTReceived",
      "outputs": [],
      "stateMutability": "nonpayable",
      "type": "function"
    },
    {
      "inputs": [],
      "name": "chainId",
      "outputs": [
        {
          "internalType": "uint256",
          "name": "chainID",
          "type": "uint256"
        }
      ],
      "stateMutability": "view",
      "type": "function"
    },
    {
      "inputs": [],
      "name": "circulatingSupply",
      "outputs": [
        {
          "internalType": "uint256",
          "name": "",
          "type": "uint256"
        }
      ],
      "stateMutability": "view",
      "type": "function"
    },
    {
      "inputs": [
        {
          "internalType": "uint16",
          "name": "",
          "type": "uint16"
        },
        {
          "internalType": "bytes",
          "name": "",
          "type": "bytes"
        },
        {
          "internalType": "uint64",
          "name": "",
          "type": "uint64"
        }
      ],
      "name": "creditedPackets",
      "outputs": [
        {
          "internalType": "bool",
          "name": "",
          "type": "bool"
        }
      ],
      "stateMutability": "view",
      "type": "function"
    },
    {
      "inputs": [],
      "name": "decimals",
      "outputs": [
        {
          "internalType": "uint8",
          "name": "",
          "type": "uint8"
        }
      ],
      "stateMutability": "view",
      "type": "function"
    },
    {
      "inputs": [
        {
          "internalType": "address",
          "name": "spender",
          "type": "address"
        },
        {
          "internalType": "uint256",
          "name": "subtractedValue",
          "type": "uint256"
        }
      ],
      "name": "decreaseAllowance",
      "outputs": [
        {
          "internalType": "bool",
          "name": "",
          "type": "bool"
        }
      ],
      "stateMutability": "nonpayable",
      "type": "function"
    },
    {
      "inputs": [
        {
          "internalType": "uint16",
          "name": "_dstChainId",
          "type": "uint16"
        },
        {
          "internalType": "bytes32",
          "name": "_toAddress",
          "type": "bytes32"
        },
        {
          "internalType": "uint256",
          "name": "_amount",
          "type": "uint256"
        },
        {
          "internalType": "bytes",
          "name": "_payload",
          "type": "bytes"
        },
        {
          "internalType": "uint64",
          "name": "_dstGasForCall",
          "type": "uint64"
        },
        {
          "internalType": "bool",
          "name": "_useZro",
          "type": "bool"
        },
        {
          "internalType": "bytes",
          "name": "_adapterParams",
          "type": "bytes"
        }
      ],
      "name": "estimateSendAndCallFee",
      "outputs": [
        {
          "internalType": "uint256",
          "name": "nativeFee",
          "type": "uint256"
        },
        {
          "internalType": "uint256",
          "name": "zroFee",
          "type": "uint256"
        }
      ],
      "stateMutability": "view",
      "type": "function"
    },
    {
      "inputs": [
        {
          "internalType": "uint16",
          "name": "_dstChainId",
          "type": "uint16"
        },
        {
          "internalType": "bytes32",
          "name": "_toAddress",
          "type": "bytes32"
        },
        {
          "internalType": "uint256",
          "name": "_amount",
          "type": "uint256"
        },
        {
          "internalType": "bool",
          "name": "_useZro",
          "type": "bool"
        },
        {
          "internalType": "bytes",
          "name": "_adapterParams",
          "type": "bytes"
        }
      ],
      "name": "estimateSendFee",
      "outputs": [
        {
          "internalType": "uint256",
          "name": "nativeFee",
          "type": "uint256"
        },
        {
          "internalType": "uint256",
          "name": "zroFee",
          "type": "uint256"
        }
      ],
      "stateMutability": "view",
      "type": "function"
    },
    {
      "inputs": [
        {
          "internalType": "uint16",
          "name": "",
          "type": "uint16"
        },
        {
          "internalType": "bytes",
          "name": "",
          "type": "bytes"
        },
        {
          "internalType": "uint64",
          "name": "",
          "type": "uint64"
        }
      ],
      "name": "failedMessages",
      "outputs": [
        {
          "internalType": "bytes32",
          "name": "",
          "type": "bytes32"
        }
      ],
      "stateMutability": "view",
      "type": "function"
    },
    {
      "inputs": [
        {
          "internalType": "uint16",
          "name": "_srcChainId",
          "type": "uint16"
        },
        {
          "internalType": "bytes",
          "name": "_srcAddress",
          "type": "bytes"
        }
      ],
      "name": "forceResumeReceive",
      "outputs": [],
      "stateMutability": "nonpayable",
      "type": "function"
    },
    {
      "inputs": [
        {
          "internalType": "uint16",
          "name": "_version",
          "type": "uint16"
        },
        {
          "internalType": "uint16",
          "name": "_chainId",
          "type": "uint16"
        },
        {
          "internalType": "address",
          "name": "",
          "type": "address"
        },
        {
          "internalType": "uint256",
          "name": "_configType",
          "type": "uint256"
        }
      ],
      "name": "getConfig",
      "outputs": [
        {
          "internalType": "bytes",
          "name": "",
          "type": "bytes"
        }
      ],
      "stateMutability": "view",
      "type": "function"
    },
    {
      "inputs": [
        {
          "internalType": "uint16",
          "name": "_remoteChainId",
          "type": "uint16"
        }
      ],
      "name": "getTrustedRemoteAddress",
      "outputs": [
        {
          "internalType": "bytes",
          "name": "",
          "type": "bytes"
        }
      ],
      "stateMutability": "view",
      "type": "function"
    },
    {
      "inputs": [
        {
          "internalType": "address",
          "name": "spender",
          "type": "address"
        },
        {
          "internalType": "uint256",
          "name": "addedValue",
          "type": "uint256"
        }
      ],
      "name": "increaseAllowance",
      "outputs": [
        {
          "internalType": "bool",
          "name": "",
          "type": "bool"
        }
      ],
      "stateMutability": "nonpayable",
      "type": "function"
    },
    {
      "inputs": [
        {
          "internalType": "uint16",
          "name": "_srcChainId",
          "type": "uint16"
        },
        {
          "internalType": "bytes",
          "name": "_srcAddress",
          "type": "bytes"
        }
      ],
      "name": "isTrustedRemote",
      "outputs": [
        {
          "internalType": "bool",
          "name": "",
          "type": "bool"
        }
      ],
      "stateMutability": "view",
      "type": "function"
    },
    {
      "inputs": [],
      "name": "lzEndpoint",
      "outputs": [
        {
          "internalType": "contract ILayerZeroEndpoint",
          "name": "",
          "type": "address"
        }
      ],
      "stateMutability": "view",
      "type": "function"
    },
    {
      "inputs": [
        {
          "internalType": "uint16",
          "name": "_srcChainId",
          "type": "uint16"
        },
        {
          "internalType": "bytes",
          "name": "_srcAddress",
          "type": "bytes"
        },
        {
          "internalType": "uint64",
          "name": "_nonce",
          "type": "uint64"
        },
        {
          "internalType": "bytes",
          "name": "_payload",
          "type": "bytes"
        }
      ],
      "name": "lzReceive",
      "outputs": [],
      "stateMutability": "nonpayable",
      "type": "function"
    },
    {
      "inputs": [
        {
          "internalType": "uint16",
          "name": "",
          "type": "uint16"
        },
        {
          "internalType": "uint16",
          "name": "",
          "type": "uint16"
        }
      ],
      "name": "minDstGasLookup",
      "outputs": [
        {
          "internalType": "uint256",
          "name": "",
          "type": "uint256"
        }
      ],
      "stateMutability": "view",
      "type": "function"
    },
    {
      "inputs": [],
      "name": "name",
      "outputs": [
        {
          "internalType": "string",
          "name": "",
          "type": "string"
        }
      ],
      "stateMutability": "view",
      "type": "function"
    },
    {
      "inputs": [
        {
          "internalType": "uint16",
          "name": "_srcChainId",
          "type": "uint16"
        },
        {
          "internalType": "bytes",
          "name": "_srcAddress",
          "type": "bytes"
        },
        {
          "internalType": "uint64",
          "name": "_nonce",
          "type": "uint64"
        },
        {
          "internalType": "bytes",
          "name": "_payload",
          "type": "bytes"
        }
      ],
      "name": "nonblockingLzReceive",
      "outputs": [],
      "stateMutability": "nonpayable",
      "type": "function"
    },
    {
      "inputs": [
        {
          "internalType": "address",
          "name": "owner",
          "type": "address"
        }
      ],
      "name": "nonces",
      "outputs": [
        {
          "internalType": "uint256",
          "name": "",
          "type": "uint256"
        }
      ],
      "stateMutability": "view",
      "type": "function"
    },
    {
      "inputs": [],
      "name": "owner",
      "outputs": [
        {
          "internalType": "address",
          "name": "",
          "type": "address"
        }
      ],
      "stateMutability": "view",
      "type": "function"
    },
    {
      "inputs": [
        {
          "internalType": "uint16",
          "name": "",
          "type": "uint16"
        }
      ],
      "name": "payloadSizeLimitLookup",
      "outputs": [
        {
          "internalType": "uint256",
          "name": "",
          "type": "uint256"
        }
      ],
      "stateMutability": "view",
      "type": "function"
    },
    {
      "inputs": [
        {
          "internalType": "address",
          "name": "owner",
          "type": "address"
        },
        {
          "internalType": "address",
          "name": "spender",
          "type": "address"
        },
        {
          "internalType": "uint256",
          "name": "amount",
          "type": "uint256"
        },
        {
          "internalType": "uint256",
          "name": "deadline",
          "type": "uint256"
        },
        {
          "internalType": "uint8",
          "name": "v",
          "type": "uint8"
        },
        {
          "internalType": "bytes32",
          "name": "r",
          "type": "bytes32"
        },
        {
          "internalType": "bytes32",
          "name": "s",
          "type": "bytes32"
        }
      ],
      "name": "permit",
      "outputs": [],
      "stateMutability": "nonpayable",
      "type": "function"
    },
    {
      "inputs": [],
      "name": "precrime",
      "outputs": [
        {
          "internalType": "address",
          "name": "",
          "type": "address"
        }
      ],
      "stateMutability": "view",
      "type": "function"
    },
    {
      "inputs": [],
      "name": "renounceOwnership",
      "outputs": [],
      "stateMutability": "nonpayable",
      "type": "function"
    },
    {
      "inputs": [
        {
          "internalType": "uint16",
          "name": "_srcChainId",
          "type": "uint16"
        },
        {
          "internalType": "bytes",
          "name": "_srcAddress",
          "type": "bytes"
        },
        {
          "internalType": "uint64",
          "name": "_nonce",
          "type": "uint64"
        },
        {
          "internalType": "bytes",
          "name": "_payload",
          "type": "bytes"
        }
      ],
      "name": "retryMessage",
      "outputs": [],
      "stateMutability": "payable",
      "type": "function"
    },
    {
      "inputs": [
        {
          "internalType": "address",
          "name": "_from",
          "type": "address"
        },
        {
          "internalType": "uint16",
          "name": "_dstChainId",
          "type": "uint16"
        },
        {
          "internalType": "bytes32",
          "name": "_toAddress",
          "type": "bytes32"
        },
        {
          "internalType": "uint256",
          "name": "_amount",
          "type": "uint256"
        },
        {
          "internalType": "bytes",
          "name": "_payload",
          "type": "bytes"
        },
        {
          "internalType": "uint64",
          "name": "_dstGasForCall",
          "type": "uint64"
        },
        {
          "components": [
            {
              "internalType": "address payable",
              "name": "refundAddress",
              "type": "address"
            },
            {
              "internalType": "address",
              "name": "zroPaymentAddress",
              "type": "address"
            },
            {
              "internalType": "bytes",
              "name": "adapterParams",
              "type": "bytes"
            }
          ],
          "internalType": "struct ICommonOFT.LzCallParams",
          "name": "_callParams",
          "type": "tuple"
        }
      ],
      "name": "sendAndCall",
      "outputs": [],
      "stateMutability": "payable",
      "type": "function"
    },
    {
      "inputs": [
        {
          "internalType": "address",
          "name": "_from",
          "type": "address"
        },
        {
          "internalType": "uint16",
          "name": "_dstChainId",
          "type": "uint16"
        },
        {
          "internalType": "bytes32",
          "name": "_toAddress",
          "type": "bytes32"
        },
        {
          "internalType": "uint256",
          "name": "_amount",
          "type": "uint256"
        },
        {
          "components": [
            {
              "internalType": "address payable",
              "name": "refundAddress",
              "type": "address"
            },
            {
              "internalType": "address",
              "name": "zroPaymentAddress",
              "type": "address"
            },
            {
              "internalType": "bytes",
              "name": "adapterParams",
              "type": "bytes"
            }
          ],
          "internalType": "struct ICommonOFT.LzCallParams",
          "name": "_callParams",
          "type": "tuple"
        }
      ],
      "name": "sendFrom",
      "outputs": [],
      "stateMutability": "payable",
      "type": "function"
    },
    {
      "inputs": [
        {
          "internalType": "uint16",
          "name": "_version",
          "type": "uint16"
        },
        {
          "internalType": "uint16",
          "name": "_chainId",
          "type": "uint16"
        },
        {
          "internalType": "uint256",
          "name": "_configType",
          "type": "uint256"
        },
        {
          "internalType": "bytes",
          "name": "_config",
          "type": "bytes"
        }
      ],
      "name": "setConfig",
      "outputs": [],
      "stateMutability": "nonpayable",
      "type": "function"
    },
    {
      "inputs": [
        {
          "internalType": "uint16",
          "name": "_dstChainId",
          "type": "uint16"
        },
        {
          "internalType": "uint16",
          "name": "_packetType",
          "type": "uint16"
        },
        {
          "internalType": "uint256",
          "name": "_minGas",
          "type": "uint256"
        }
      ],
      "name": "setMinDstGas",
      "outputs": [],
      "stateMutability": "nonpayable",
      "type": "function"
    },
    {
      "inputs": [
        {
          "internalType": "uint16",
          "name": "_dstChainId",
          "type": "uint16"
        },
        {
          "internalType": "uint256",
          "name": "_size",
          "type": "uint256"
        }
      ],
      "name": "setPayloadSizeLimit",
      "outputs": [],
      "stateMutability": "nonpayable",
      "type": "function"
    },
    {
      "inputs": [
        {
          "internalType": "address",
          "name": "_precrime",
          "type": "address"
        }
      ],
      "name": "setPrecrime",
      "outputs": [],
      "stateMutability": "nonpayable",
      "type": "function"
    },
    {
      "inputs": [
        {
          "internalType": "uint16",
          "name": "_version",
          "type": "uint16"
        }
      ],
      "name": "setReceiveVersion",
      "outputs": [],
      "stateMutability": "nonpayable",
      "type": "function"
    },
    {
      "inputs": [
        {
          "internalType": "uint16",
          "name": "_version",
          "type": "uint16"
        }
      ],
      "name": "setSendVersion",
      "outputs": [],
      "stateMutability": "nonpayable",
      "type": "function"
    },
    {
      "inputs": [
        {
          "internalType": "uint16",
          "name": "_remoteChainId",
          "type": "uint16"
        },
        {
          "internalType": "bytes",
          "name": "_path",
          "type": "bytes"
        }
      ],
      "name": "setTrustedRemote",
      "outputs": [],
      "stateMutability": "nonpayable",
      "type": "function"
    },
    {
      "inputs": [
        {
          "internalType": "uint16",
          "name": "_remoteChainId",
          "type": "uint16"
        },
        {
          "internalType": "bytes",
          "name": "_remoteAddress",
          "type": "bytes"
        }
      ],
      "name": "setTrustedRemoteAddress",
      "outputs": [],
      "stateMutability": "nonpayable",
      "type": "function"
    },
    {
      "inputs": [
        {
          "internalType": "bool",
          "name": "_useCustomAdapterParams",
          "type": "bool"
        }
      ],
      "name": "setUseCustomAdapterParams",
      "outputs": [],
      "stateMutability": "nonpayable",
      "type": "function"
    },
    {
      "inputs": [],
      "name": "sharedDecimals",
      "outputs": [
        {
          "internalType": "uint8",
          "name": "",
          "type": "uint8"
        }
      ],
      "stateMutability": "view",
      "type": "function"
    },
    {
      "inputs": [
        {
          "internalType": "bytes4",
          "name": "interfaceId",
          "type": "bytes4"
        }
      ],
      "name": "supportsInterface",
      "outputs": [
        {
          "internalType": "bool",
          "name": "",
          "type": "bool"
        }
      ],
      "stateMutability": "view",
      "type": "function"
    },
    {
      "inputs": [],
      "name": "symbol",
      "outputs": [
        {
          "internalType": "string",
          "name": "",
          "type": "string"
        }
      ],
      "stateMutability": "view",
      "type": "function"
    },
    {
      "inputs": [],
      "name": "token",
      "outputs": [
        {
          "internalType": "address",
          "name": "",
          "type": "address"
        }
      ],
      "stateMutability": "view",
      "type": "function"
    },
    {
      "inputs": [],
      "name": "totalSupply",
      "outputs": [
        {
          "internalType": "uint256",
          "name": "",
          "type": "uint256"
        }
      ],
      "stateMutability": "view",
      "type": "function"
    },
    {
      "inputs": [
        {
          "internalType": "address",
          "name": "to",
          "type": "address"
        },
        {
          "internalType": "uint256",
          "name": "amount",
          "type": "uint256"
        }
      ],
      "name": "transfer",
      "outputs": [
        {
          "internalType": "bool",
          "name": "",
          "type": "bool"
        }
      ],
      "stateMutability": "nonpayable",
      "type": "function"
    },
    {
      "inputs": [
        {
          "internalType": "address",
          "name": "from",
          "type": "address"
        },
        {
          "internalType": "address",
          "name": "to",
          "type": "address"
        },
        {
          "internalType": "uint256",
          "name": "amount",
          "type": "uint256"
        }
      ],
      "name": "transferFrom",
      "outputs": [
        {
          "internalType": "bool",
          "name": "",
          "type": "bool"
        }
      ],
      "stateMutability": "nonpayable",
      "type": "function"
    },
    {
      "inputs": [
        {
          "internalType": "address",
          "name": "newOwner",
          "type": "address"
        }
      ],
      "name": "transferOwnership",
      "outputs": [],
      "stateMutability": "nonpayable",
      "type": "function"
    },
    {
      "inputs": [],
      "name": "treasury",
      "outputs": [
        {
          "internalType": "address",
          "name": "",
          "type": "address"
        }
      ],
      "stateMutability": "view",
      "type": "function"
    },
    {
      "inputs": [
        {
          "internalType": "uint16",
          "name": "",
          "type": "uint16"
        }
      ],
      "name": "trustedRemoteLookup",
      "outputs": [
        {
          "internalType": "bytes",
          "name": "",
          "type": "bytes"
        }
      ],
      "stateMutability": "view",
      "type": "function"
    },
    {
      "inputs": [],
      "name": "useCustomAdapterParams",
      "outputs": [
        {
          "internalType": "bool",
          "name": "",
          "type": "bool"
        }
      ],
      "stateMutability": "view",
      "type": "function"
    }
  ],
  "bytecode": "0x61010060405269d3c21bcecceda1000000600f553480156200002057600080fd5b5060405162004e8438038062004e848339810160408190526200004391620004d2565b60405180604001604052806005815260200164566573746160d81b81525060405180604001604052806003815260200162594f5560e81b8152506006733c2269811836af69497e5f486a85d7316753cf62838383838383838381818080620000ba620000b4620002fe60201b60201c565b62000302565b6001600160a01b0316608052505060ff1660a05250600b9050620000df8382620005a8565b50600c620000ee8282620005a8565b5050506000620001036200035260201b60201c565b90508060ff168360ff161115620001715760405162461bcd60e51b815260206004820152602760248201527f4f46543a20736861726564446563696d616c73206d757374206265203c3d20646044820152666563696d616c7360c81b60648201526084015b60405180910390fd5b6200017d83826200068a565b6200018a90600a620007a3565b60c052504693507f8b73c3c69bb8fe3d512ecc4cf759cc79239f7b179b0ffacaa9a75d522b39400f9250620001c191505062000357565b805160209182012060408051808201825260018152603160f81b90840152805192830193909352918101919091527fc89efdaa54c0f20c7adf612882df0950f5a951637e0307cdcb4c672f298b8bc66060820152608081018290523060a082015260c00160408051601f198184030181529190528051602090910120600e555050506001600160a01b03831691506200029f90505760405162461bcd60e51b815260206004820152601460248201527f496e76616c696420547265617375727920536967000000000000000000000000604482015260640162000168565b6001600160a01b03811660e052600f54620002d5903390620002cf906032620003f1602090811b62001e7917901c565b62000408565b620002f781620002cf6032600f54620003f160201b62001e791790919060201c565b50620007e4565b3390565b600080546001600160a01b038381166001600160a01b0319831681178455604051919092169283917f8be0079c531659141344cd1fd0a4f28419497f9722a3daafe3b4186f6b6457e09190a35050565b601290565b6060600b805462000368906200051a565b80601f016020809104026020016040519081016040528092919081815260200182805462000396906200051a565b8015620003e75780601f10620003bb57610100808354040283529160200191620003e7565b820191906000526020600020905b815481529060010190602001808311620003c957829003601f168201915b5050505050905090565b6000620003ff8284620007b4565b90505b92915050565b6001600160a01b038216620004605760405162461bcd60e51b815260206004820152601f60248201527f45524332303a206d696e7420746f20746865207a65726f206164647265737300604482015260640162000168565b80600a6000828254620004749190620007ce565b90915550506001600160a01b0382166000818152600860209081526040808320805486019055518481527fddf252ad1be2c89b69c2b068fc378daa952ba7f163c4a11628f55a4df523b3ef910160405180910390a35050565b505050565b600060208284031215620004e557600080fd5b81516001600160a01b0381168114620004fd57600080fd5b9392505050565b634e487b7160e01b600052604160045260246000fd5b600181811c908216806200052f57607f821691505b6020821081036200055057634e487b7160e01b600052602260045260246000fd5b50919050565b601f821115620004cd57600081815260208120601f850160051c810160208610156200057f5750805b601f850160051c820191505b81811015620005a0578281556001016200058b565b505050505050565b81516001600160401b03811115620005c457620005c462000504565b620005dc81620005d584546200051a565b8462000556565b602080601f831160018114620006145760008415620005fb5750858301515b600019600386901b1c1916600185901b178555620005a0565b600085815260208120601f198616915b82811015620006455788860151825594840194600190910190840162000624565b5085821015620006645787850151600019600388901b60f8161c191681555b5050505050600190811b01905550565b634e487b7160e01b600052601160045260246000fd5b60ff828116828216039081111562000402576200040262000674565b600181815b80851115620006e7578160001904821115620006cb57620006cb62000674565b80851615620006d957918102915b93841c9390800290620006ab565b509250929050565b600082620007005750600162000402565b816200070f5750600062000402565b8160018114620007285760028114620007335762000753565b600191505062000402565b60ff84111562000747576200074762000674565b50506001821b62000402565b5060208310610133831016604e8410600b841016171562000778575081810a62000402565b620007848383620006a6565b80600019048211156200079b576200079b62000674565b029392505050565b6000620003ff60ff841683620006ef565b808202811582820484141762000402576200040262000674565b8082018082111562000402576200040262000674565b60805160a05160c05160e0516146276200085d600039600061056901526000612f160152600061067b01526000818161084b01528181610a1b01528181610d3301528181610df301528181610fb00152818161163b01528181611df9015281816122fc015281816127000152612e5701526146276000f3fe6080604052600436106102855760003560e01c80621d35671461028a57806301ffc9a7146102ac57806306fdde03146102e157806307e0db1714610303578063095ea7b3146103235780630df374831461034357806310ddb1371461036357806318160ddd1461038357806323b872dd146103a257806330adf81f146103c2578063313ce567146103e45780633644e51514610406578063365260b41461041c57806339509351146104515780633d8b38f6146104715780633f1f4fa41461049157806342d65a8d146104be57806344770515146104de5780634c42899a146104f35780635b8c41e61461050857806361d027b31461055757806366ad5c8a14610598578063695ef6bf146105b857806370a08231146105cb578063715018a6146106015780637533d7881461061657806376203b48146106365780637ecebe0014610649578063857749b0146106695780638cfd8f5c1461069d5780638da5cb5b146106d55780639358928b146106ea578063950c8a74146106ff57806395d89b411461071f5780639a8a0592146107345780639bdb9812146107475780639f38369a14610799578063a457c2d7146107b9578063a4c51df5146107d9578063a6c3d165146107f9578063a9059cbb14610819578063b353aaa714610839578063baf3292d1461086d578063c44618341461088d578063cbed8b9c146108a3578063d1deba1f146108c3578063d505accf146108d6578063dd62ed3e146108f6578063df2a5b3b14610916578063e6a20ae614610936578063eab45d9c1461094b578063eaffd49a1461096b578063eb8d72b71461098b578063ed629c5c146109ab578063f2fde38b146109c5578063f5ecbdbc146109e5578063fc0c546a14610a05575b600080fd5b34801561029657600080fd5b506102aa6102a536600461355b565b610a18565b005b3480156102b857600080fd5b506102cc6102c73660046135ee565b610c49565b60405190151581526020015b60405180910390f35b3480156102ed57600080fd5b506102f6610c80565b6040516102d89190613668565b34801561030f57600080fd5b506102aa61031e36600461367b565b610d12565b34801561032f57600080fd5b506102cc61033e3660046136ab565b610d9b565b34801561034f57600080fd5b506102aa61035e3660046136d7565b610db3565b34801561036f57600080fd5b506102aa61037e36600461367b565b610dd2565b34801561038f57600080fd5b50600a545b6040519081526020016102d8565b3480156103ae57600080fd5b506102cc6103bd3660046136f3565b610e2a565b3480156103ce57600080fd5b506103946000805160206145d283398151915281565b3480156103f057600080fd5b5060125b60405160ff90911681526020016102d8565b34801561041257600080fd5b50610394600e5481565b34801561042857600080fd5b5061043c610437366004613744565b610e4e565b604080519283526020830191909152016102d8565b34801561045d57600080fd5b506102cc61046c3660046136ab565b610ea3565b34801561047d57600080fd5b506102cc61048c3660046137a9565b610ec5565b34801561049d57600080fd5b506103946104ac36600461367b565b60036020526000908152604090205481565b3480156104ca57600080fd5b506102aa6104d93660046137a9565b610f91565b3480156104ea57600080fd5b50610394600081565b3480156104ff57600080fd5b506103f4600081565b34801561051457600080fd5b50610394610523366004613868565b6005602090815260009384526040808520845180860184018051928152908401958401959095209452929052825290205481565b34801561056357600080fd5b5061058b7f000000000000000000000000000000000000000000000000000000000000000081565b6040516102d89190613908565b3480156105a457600080fd5b506102aa6105b336600461355b565b611017565b6102aa6105c6366004613934565b6110f3565b3480156105d757600080fd5b506103946105e63660046139a7565b6001600160a01b031660009081526008602052604090205490565b34801561060d57600080fd5b506102aa61115e565b34801561062257600080fd5b506102f661063136600461367b565b611172565b6102aa6106443660046139c4565b61120c565b34801561065557600080fd5b506103946106643660046139a7565b6112bb565b34801561067557600080fd5b506103f47f000000000000000000000000000000000000000000000000000000000000000081565b3480156106a957600080fd5b506103946106b8366004613a76565b600260209081526000928352604080842090915290825290205481565b3480156106e157600080fd5b5061058b6112d9565b3480156106f657600080fd5b506103946112e8565b34801561070b57600080fd5b5060045461058b906001600160a01b031681565b34801561072b57600080fd5b506102f66112f8565b34801561074057600080fd5b5046610394565b34801561075357600080fd5b506102cc610762366004613868565b6007602090815260009384526040808520845180860184018051928152908401958401959095209452929052825290205460ff1681565b3480156107a557600080fd5b506102f66107b436600461367b565b611307565b3480156107c557600080fd5b506102cc6107d43660046136ab565b61141d565b3480156107e557600080fd5b5061043c6107f4366004613aa9565b611498565b34801561080557600080fd5b506102aa6108143660046137a9565b611527565b34801561082557600080fd5b506102cc6108343660046136ab565b6115b0565b34801561084557600080fd5b5061058b7f000000000000000000000000000000000000000000000000000000000000000081565b34801561087957600080fd5b506102aa6108883660046139a7565b6115be565b34801561089957600080fd5b5061039461271081565b3480156108af57600080fd5b506102aa6108be366004613b62565b61161c565b6102aa6108d136600461355b565b6116a6565b3480156108e257600080fd5b506102aa6108f1366004613bd0565b6118bc565b34801561090257600080fd5b50610394610911366004613c47565b611ac2565b34801561092257600080fd5b506102aa610931366004613c80565b611aed565b34801561094257600080fd5b506103f4600181565b34801561095757600080fd5b506102aa610966366004613cbc565b611b9f565b34801561097757600080fd5b506102aa610986366004613cd7565b611be8565b34801561099757600080fd5b506102aa6109a63660046137a9565b611cf5565b3480156109b757600080fd5b506006546102cc9060ff1681565b3480156109d157600080fd5b506102aa6109e03660046139a7565b611d4f565b3480156109f157600080fd5b506102f6610a00366004613d9f565b611dc8565b348015610a1157600080fd5b503061058b565b337f00000000000000000000000000000000000000000000000000000000000000006001600160a01b031614610a955760405162461bcd60e51b815260206004820152601e60248201527f4c7a4170703a20696e76616c696420656e64706f696e742063616c6c6572000060448201526064015b60405180910390fd5b61ffff861660009081526001602052604081208054610ab390613dec565b80601f0160208091040260200160405190810160405280929190818152602001828054610adf90613dec565b8015610b2c5780601f10610b0157610100808354040283529160200191610b2c565b820191906000526020600020905b815481529060010190602001808311610b0f57829003601f168201915b50505050509050805186869050148015610b47575060008151115b8015610b6f575080516020820120604051610b659088908890613e20565b6040518091039020145b610bca5760405162461bcd60e51b815260206004820152602660248201527f4c7a4170703a20696e76616c696420736f757263652073656e64696e6720636f6044820152651b9d1c9858dd60d21b6064820152608401610a8c565b610c408787878080601f01602080910402602001604051908101604052809392919081815260200183838082843760009201919091525050604080516020601f8a018190048102820181019092528881528a935091508890889081908401838280828437600092019190915250611e8592505050565b50505050505050565b60006001600160e01b03198216631f7ecdf760e01b1480610c7a57506301ffc9a760e01b6001600160e01b03198316145b92915050565b6060600b8054610c8f90613dec565b80601f0160208091040260200160405190810160405280929190818152602001828054610cbb90613dec565b8015610d085780601f10610cdd57610100808354040283529160200191610d08565b820191906000526020600020905b815481529060010190602001808311610ceb57829003601f168201915b5050505050905090565b610d1a611efe565b6040516307e0db1760e01b815261ffff821660048201527f00000000000000000000000000000000000000000000000000000000000000006001600160a01b0316906307e0db17906024015b600060405180830381600087803b158015610d8057600080fd5b505af1158015610d94573d6000803e3d6000fd5b5050505050565b600033610da9818585611f5d565b5060019392505050565b610dbb611efe565b61ffff909116600090815260036020526040902055565b610dda611efe565b6040516310ddb13760e01b815261ffff821660048201527f00000000000000000000000000000000000000000000000000000000000000006001600160a01b0316906310ddb13790602401610d66565b600033610e38858285612081565b610e438585856120fb565b506001949350505050565b600080610e948888888888888080601f01602080910402602001604051908101604052809392919081815260200183838082843760009201919091525061229492505050565b91509150965096945050505050565b600033610da9818585610eb68383611ac2565b610ec09190613e46565b611f5d565b61ffff831660009081526001602052604081208054829190610ee690613dec565b80601f0160208091040260200160405190810160405280929190818152602001828054610f1290613dec565b8015610f5f5780601f10610f3457610100808354040283529160200191610f5f565b820191906000526020600020905b815481529060010190602001808311610f4257829003601f168201915b505050505090508383604051610f76929190613e20565b60405180910390208180519060200120149150509392505050565b610f99611efe565b6040516342d65a8d60e01b81526001600160a01b037f000000000000000000000000000000000000000000000000000000000000000016906342d65a8d90610fe990869086908690600401613e82565b600060405180830381600087803b15801561100357600080fd5b505af1158015610c40573d6000803e3d6000fd5b3330146110755760405162461bcd60e51b815260206004820152602660248201527f4e6f6e626c6f636b696e674c7a4170703a2063616c6c6572206d7573742062656044820152650204c7a4170760d41b6064820152608401610a8c565b6110eb8686868080601f01602080910402602001604051908101604052809392919081815260200183838082843760009201919091525050604080516020601f89018190048102820181019092528781528993509150879087908190840183828082843760009201919091525061238892505050565b505050505050565b6110eb8585858561110760208701876139a7565b61111760408801602089016139a7565b6111246040890189613ea0565b8080601f01602080910402602001604051908101604052809392919081815260200183838082843760009201919091525061240e92505050565b611166611efe565b61117060006124b8565b565b6001602052600090815260409020805461118b90613dec565b80601f01602080910402602001604051908101604052809291908181526020018280546111b790613dec565b80156112045780601f106111d957610100808354040283529160200191611204565b820191906000526020600020905b8154815290600101906020018083116111e757829003601f168201915b505050505081565b6112b08888888888888080601f0160208091040260200160405190810160405280939291908181526020018383808284376000920191909152508a925061125991505060208901896139a7565b61126960408a0160208b016139a7565b61127660408b018b613ea0565b8080601f01602080910402602001604051908101604052809392919081815260200183838082843760009201919091525061250892505050565b505050505050505050565b6001600160a01b0381166000908152600d6020526040812054610c7a565b6000546001600160a01b031690565b60006112f3600a5490565b905090565b6060600c8054610c8f90613dec565b61ffff811660009081526001602052604081208054606092919061132a90613dec565b80601f016020809104026020016040519081016040528092919081815260200182805461135690613dec565b80156113a35780601f10611378576101008083540402835291602001916113a3565b820191906000526020600020905b81548152906001019060200180831161138657829003601f168201915b5050505050905080516000036113fb5760405162461bcd60e51b815260206004820152601d60248201527f4c7a4170703a206e6f20747275737465642070617468207265636f72640000006044820152606401610a8c565b61141660006014835161140e9190613ee6565b8391906125c6565b9392505050565b6000338161142b8286611ac2565b90508381101561148b5760405162461bcd60e51b815260206004820152602560248201527f45524332303a2064656372656173656420616c6c6f77616e63652062656c6f77604482015264207a65726f60d81b6064820152608401610a8c565b610e438286868403611f5d565b6000806115158b8b8b8b8b8080601f01602080910402602001604051908101604052809392919081815260200183838082843760009201919091525050604080516020601f8d018190048102820181019092528b81528e93508d9250908c908c90819084018382808284376000920191909152506126d392505050565b91509150995099975050505050505050565b61152f611efe565b81813060405160200161154493929190613ef9565b60408051601f1981840301815291815261ffff851660009081526001602052209061156f9082613f75565b507f8c0400cfe2d1199b1a725c78960bcc2a344d869b80590d0f2bd005db15a572ce8383836040516115a393929190613e82565b60405180910390a1505050565b600033610da98185856120fb565b6115c6611efe565b600480546001600160a01b0319166001600160a01b0383161790556040517f5db758e995a17ec1ad84bdef7e8c3293a0bd6179bcce400dff5d4c3d87db726b90611611908390613908565b60405180910390a150565b611624611efe565b6040516332fb62e760e21b81526001600160a01b037f0000000000000000000000000000000000000000000000000000000000000000169063cbed8b9c90611678908890889088908890889060040161402e565b600060405180830381600087803b15801561169257600080fd5b505af11580156112b0573d6000803e3d6000fd5b61ffff861660009081526005602052604080822090516116c99088908890613e20565b90815260408051602092819003830190206001600160401b038716600090815292529020549050806117495760405162461bcd60e51b815260206004820152602360248201527f4e6f6e626c6f636b696e674c7a4170703a206e6f2073746f726564206d65737360448201526261676560e81b6064820152608401610a8c565b80838360405161175a929190613e20565b6040518091039020146117b95760405162461bcd60e51b815260206004820152602160248201527f4e6f6e626c6f636b696e674c7a4170703a20696e76616c6964207061796c6f616044820152601960fa1b6064820152608401610a8c565b61ffff871660009081526005602052604080822090516117dc9089908990613e20565b90815260408051602092819003830181206001600160401b038916600090815290845282902093909355601f88018290048202830182019052868252611874918991899089908190840183828082843760009201919091525050604080516020601f8a018190048102820181019092528881528a93509150889088908190840183828082843760009201919091525061238892505050565b7fc264d91f3adc5588250e1551f547752ca0cfa8f6b530d243b9f9f4cab10ea8e587878787856040516118ab959493929190614067565b60405180910390a150505050505050565b834211156119075760405162461bcd60e51b81526020600482015260186024820152775065726d69743a206578706972656420646561646c696e6560401b6044820152606401610a8c565b6001600160a01b038781166000818152600d602090815260408083205481516000805160206145d28339815191528185015280830195909552948b166060850152608084018a905260a084019490945260c08084018990528451808503909101815260e084018552805190820120600e5461190160f01b61010086015261010285015261012280850182905285518086039091018152610142850180875281519184019190912090849052610162850180875281905260ff89166101828601526101a285018890526101c2850187905294519094936001926101e2808301939192601f198301929081900390910190855afa158015611a0a573d6000803e3d6000fd5b5050604051601f1901519150506001600160a01b03811615801590611a405750896001600160a01b0316816001600160a01b0316145b611a8c5760405162461bcd60e51b815260206004820152601e60248201527f45524332305065726d69743a20496e76616c6964207369676e617475726500006044820152606401610a8c565b6001600160a01b038a166000908152600d6020526040902080546001019055611ab68a8a8a611f5d565b50505050505050505050565b6001600160a01b03918216600090815260096020908152604080832093909416825291909152205490565b611af5611efe565b60008111611b3d5760405162461bcd60e51b81526020600482015260156024820152744c7a4170703a20696e76616c6964206d696e47617360581b6044820152606401610a8c565b61ffff83811660008181526002602090815260408083209487168084529482529182902085905581519283528201929092529081018290527f9d5c7c0b934da8fefa9c7760c98383778a12dfbfc0c3b3106518f43fb9508ac0906060016115a3565b611ba7611efe565b6006805460ff19168215159081179091556040519081527f1584ad594a70cbe1e6515592e1272a987d922b097ead875069cebe8b40c004a490602001611611565b333014611c375760405162461bcd60e51b815260206004820152601f60248201527f4f4654436f72653a2063616c6c6572206d757374206265204f4654436f7265006044820152606401610a8c565b611c4230868661278e565b9350846001600160a01b03168a61ffff1660008051602061459283398151915286604051611c7291815260200190565b60405180910390a3604051633fe79aed60e11b81526001600160a01b03861690637fcf35da908390611cb6908e908e908e908e908e908d908d908d906004016140a2565b600060405180830381600088803b158015611cd057600080fd5b5087f1158015611ce4573d6000803e3d6000fd5b505050505050505050505050505050565b611cfd611efe565b61ffff83166000908152600160205260409020611d1b8284836140ff565b507ffa41487ad5d6728f0b19276fa1eddc16558578f5109fc39d2dc33c3230470dab8383836040516115a393929190613e82565b611d57611efe565b6001600160a01b038116611dbc5760405162461bcd60e51b815260206004820152602660248201527f4f776e61626c653a206e6577206f776e657220697320746865207a65726f206160448201526564647265737360d01b6064820152608401610a8c565b611dc5816124b8565b50565b604051633d7b2f6f60e21b815261ffff808616600483015284166024820152306044820152606481018290526060907f00000000000000000000000000000000000000000000000000000000000000006001600160a01b03169063f5ecbdbc90608401600060405180830381865afa158015611e48573d6000803e3d6000fd5b505050506040513d6000823e601f3d908101601f19168201604052611e7091908101906141b8565b95945050505050565b60006114168284614225565b600080611ee85a60966366ad5c8a60e01b89898989604051602401611ead949392919061423c565b60408051601f198184030181529190526020810180516001600160e01b03166001600160e01b031990931692909217909152309291906127e0565b91509150816110eb576110eb868686868561286a565b33611f076112d9565b6001600160a01b0316146111705760405162461bcd60e51b815260206004820181905260248201527f4f776e61626c653a2063616c6c6572206973206e6f7420746865206f776e65726044820152606401610a8c565b6001600160a01b038316611fbf5760405162461bcd60e51b8152602060048201526024808201527f45524332303a20617070726f76652066726f6d20746865207a65726f206164646044820152637265737360e01b6064820152608401610a8c565b6001600160a01b0382166120205760405162461bcd60e51b815260206004820152602260248201527f45524332303a20617070726f766520746f20746865207a65726f206164647265604482015261737360f01b6064820152608401610a8c565b6001600160a01b0383811660008181526009602090815260408083209487168084529482529182902085905590518481527f8c5be1e5ebec7d5bd14f71427d1e84f3dd0314c0f7b2291e5b200ac8c7c3b925910160405180910390a3505050565b600061208d8484611ac2565b905060001981146120f557818110156120e85760405162461bcd60e51b815260206004820152601d60248201527f45524332303a20696e73756666696369656e7420616c6c6f77616e63650000006044820152606401610a8c565b6120f58484848403611f5d565b50505050565b6001600160a01b03831661215f5760405162461bcd60e51b815260206004820152602560248201527f45524332303a207472616e736665722066726f6d20746865207a65726f206164604482015264647265737360d81b6064820152608401610a8c565b6001600160a01b0382166121c15760405162461bcd60e51b815260206004820152602360248201527f45524332303a207472616e7366657220746f20746865207a65726f206164647260448201526265737360e81b6064820152608401610a8c565b6001600160a01b038316600090815260086020526040902054818110156122395760405162461bcd60e51b815260206004820152602660248201527f45524332303a207472616e7366657220616d6f756e7420657863656564732062604482015265616c616e636560d01b6064820152608401610a8c565b6001600160a01b0380851660008181526008602052604080822086860390559286168082529083902080548601905591516000805160206145b2833981519152906122879086815260200190565b60405180910390a36120f5565b60008060006122e2876122a68861290c565b6040805160006020820152602181019390935260c09190911b6001600160c01b0319166041830152805160298184030181526049909201905290565b60405163040a7bb160e41b81529091506001600160a01b037f000000000000000000000000000000000000000000000000000000000000000016906340a7bb1090612339908b90309086908b908b9060040161427a565b6040805180830381865afa158015612355573d6000803e3d6000fd5b505050506040513d601f19601f8201168201806040525081019061237991906142ce565b92509250509550959350505050565b60006123948282612977565b905060ff81166123af576123aa858585856129d3565b610d94565b60001960ff8216016123c7576123aa85858585612a51565b60405162461bcd60e51b815260206004820152601c60248201527b4f4654436f72653a20756e6b6e6f776e207061636b6574207479706560201b6044820152606401610a8c565b600061241c87828481612c5a565b61242585612cd4565b50905061243488888884612cfc565b9050600081116124565760405162461bcd60e51b8152600401610a8c906142f2565b6000612465876122a68461290c565b9050612475888287878734612d2e565b86896001600160a01b03168961ffff16600080516020614572833981519152856040516124a491815260200190565b60405180910390a450979650505050505050565b600080546001600160a01b038381166001600160a01b0319831681178455604051919092169283917f8be0079c531659141344cd1fd0a4f28419497f9722a3daafe3b4186f6b6457e09190a35050565b6000612520896001846001600160401b038916612c5a565b61252987612cd4565b5090506125388a8a8a84612cfc565b90506000811161255a5760405162461bcd60e51b8152600401610a8c906142f2565b6000612571338a61256a8561290c565b8a8a612ed3565b90506125818a8287878734612d2e565b888b6001600160a01b03168b61ffff16600080516020614572833981519152856040516125b091815260200190565b60405180910390a4509998505050505050505050565b6060816125d481601f613e46565b10156126135760405162461bcd60e51b815260206004820152600e60248201526d736c6963655f6f766572666c6f7760901b6044820152606401610a8c565b61261d8284613e46565b845110156126615760405162461bcd60e51b8152602060048201526011602482015270736c6963655f6f75744f66426f756e647360781b6044820152606401610a8c565b60608215801561268057604051915060008252602082016040526126ca565b6040519150601f8416801560200281840101858101878315602002848b0101015b818310156126b95780518352602092830192016126a1565b5050858452601f01601f1916604052505b50949350505050565b60008060006126e6338a61256a8b61290c565b60405163040a7bb160e41b81529091506001600160a01b037f000000000000000000000000000000000000000000000000000000000000000016906340a7bb109061273d908d90309086908b908b9060040161427a565b6040805180830381865afa158015612759573d6000803e3d6000fd5b505050506040513d601f19601f8201168201806040525081019061277d91906142ce565b925092505097509795505050505050565b600033306001600160a01b038616148015906127bc5750806001600160a01b0316856001600160a01b031614155b156127cc576127cc858285612081565b6127d78585856120fb565b50909392505050565b6000606060008060008661ffff166001600160401b03811115612805576128056137fb565b6040519080825280601f01601f19166020018201604052801561282f576020820181803683370190505b50905060008087516020890160008d8df191503d925086831115612851578692505b828152826000602083013e909890975095505050505050565b8180519060200120600560008761ffff1661ffff1681526020019081526020016000208560405161289b9190614325565b9081526040805191829003602090810183206001600160401b0388166000908152915220919091557fe183f33de2837795525b4792ca4cd60535bd77c53b7e7030060bfcf5734d6b0c906128f89087908790879087908790614341565b60405180910390a15050505050565b505050565b600080612917612f14565b61292190846143a9565b90506001600160401b03811115610c7a5760405162461bcd60e51b815260206004820152601a6024820152794f4654436f72653a20616d6f756e745344206f766572666c6f7760301b6044820152606401610a8c565b6000612984826001613e46565b835110156129ca5760405162461bcd60e51b8152602060048201526013602482015272746f55696e74385f6f75744f66426f756e647360681b6044820152606401610a8c565b50016001015190565b6000806129df83612f38565b90925090506001600160a01b0382166129f85761dead91505b6000612a0382612f92565b9050612a10878483612faf565b9050826001600160a01b03168761ffff1660008051602061459283398151915283604051612a4091815260200190565b60405180910390a350505050505050565b6000806000806000612a6286612fc2565b945094509450945094506000600760008b61ffff1661ffff16815260200190815260200160002089604051612a979190614325565b90815260408051602092819003830190206001600160401b038b166000908152925281205460ff169150612aca85612f92565b905081612b3857612adc8b3083612faf565b61ffff8c16600090815260076020526040908190209051919250600191612b04908d90614325565b90815260408051602092819003830190206001600160401b038d16600090815292529020805460ff19169115159190911790555b6001600160a01b0386163b612b8a577f9aedf5fdba8716db3b6705ca00150643309995d4f818a249ed6dde6677e7792d86604051612b769190613908565b60405180910390a1505050505050506120f5565b8a8a8a8a8a8a868a60008a612ba8578b6001600160401b0316612baa565b5a5b9050600080612bdc5a609663eaffd49a60e01b8e8e8e8d8d8d8d8d604051602401611ead9897969594939291906143bd565b915091508115612c35578751602089012060405161ffff8d16907fb8890edbfc1c74692f527444645f95489c3703cc2df42e4a366f5d06fa6cd88490612c27908e908e908690614431565b60405180910390a250612c42565b612c428b8b8b8b8561286a565b50505050505050505050505050505050505050505050565b60065460ff1615612c7657612c718484848461304e565b6120f5565b8151156120f55760405162461bcd60e51b815260206004820152602660248201527f4f4654436f72653a205f61646170746572506172616d73206d7573742062652060448201526532b6b83a3c9760d11b6064820152608401610a8c565b600080612cdf612f14565b612ce9908461445f565b9050612cf58184613ee6565b9150915091565b6000336001600160a01b0386168114612d1a57612d1a868285612081565b612d248684613128565b5090949350505050565b61ffff861660009081526001602052604081208054612d4c90613dec565b80601f0160208091040260200160405190810160405280929190818152602001828054612d7890613dec565b8015612dc55780601f10612d9a57610100808354040283529160200191612dc5565b820191906000526020600020905b815481529060010190602001808311612da857829003601f168201915b505050505090508051600003612e365760405162461bcd60e51b815260206004820152603060248201527f4c7a4170703a2064657374696e6174696f6e20636861696e206973206e6f742060448201526f61207472757374656420736f7572636560801b6064820152608401610a8c565b612e4187875161324a565b60405162c5803160e81b81526001600160a01b037f0000000000000000000000000000000000000000000000000000000000000000169063c5803100908490612e98908b9086908c908c908c908c90600401614473565b6000604051808303818588803b158015612eb157600080fd5b505af1158015612ec5573d6000803e3d6000fd5b505050505050505050505050565b6060600185856001600160a01b0389168587604051602001612efa969594939291906144da565b604051602081830303815290604052905095945050505050565b7f000000000000000000000000000000000000000000000000000000000000000090565b60008080612f468482612977565b60ff16148015612f57575082516029145b612f735760405162461bcd60e51b8152600401610a8c9061453f565b612f7e83600d6132bb565b9150612f8b836021613320565b9050915091565b6000612f9c612f14565b610c7a906001600160401b038416614225565b6000612fbb838361337d565b5092915050565b600080806060816001612fd58783612977565b60ff1614612ff55760405162461bcd60e51b8152600401610a8c9061453f565b61300086600d6132bb565b935061300d866021613320565b925061301a86602961342c565b9450613027866049613320565b9050613043605180885161303b9190613ee6565b8891906125c6565b915091939590929450565b60006130598361348a565b61ffff80871660009081526002602090815260408083209389168352929052908120549192509061308b908490613e46565b9050600081116130da5760405162461bcd60e51b815260206004820152601a602482015279131e905c1c0e881b5a5b91d85cd31a5b5a5d081b9bdd081cd95d60321b6044820152606401610a8c565b808210156110eb5760405162461bcd60e51b815260206004820152601b60248201527a4c7a4170703a20676173206c696d697420697320746f6f206c6f7760281b6044820152606401610a8c565b6001600160a01b0382166131885760405162461bcd60e51b815260206004820152602160248201527f45524332303a206275726e2066726f6d20746865207a65726f206164647265736044820152607360f81b6064820152608401610a8c565b6001600160a01b038216600090815260086020526040902054818110156131fc5760405162461bcd60e51b815260206004820152602260248201527f45524332303a206275726e20616d6f756e7420657863656564732062616c616e604482015261636560f01b6064820152608401610a8c565b6001600160a01b03831660008181526008602090815260408083208686039055600a80548790039055518581529192916000805160206145b2833981519152910160405180910390a3505050565b61ffff82166000908152600360205260408120549081900361326b57506127105b808211156129075760405162461bcd60e51b815260206004820181905260248201527f4c7a4170703a207061796c6f61642073697a6520697320746f6f206c617267656044820152606401610a8c565b60006132c8826014613e46565b835110156133105760405162461bcd60e51b8152602060048201526015602482015274746f416464726573735f6f75744f66426f756e647360581b6044820152606401610a8c565b500160200151600160601b900490565b600061332d826008613e46565b835110156133745760405162461bcd60e51b8152602060048201526014602482015273746f55696e7436345f6f75744f66426f756e647360601b6044820152606401610a8c565b50016008015190565b6001600160a01b0382166133d35760405162461bcd60e51b815260206004820152601f60248201527f45524332303a206d696e7420746f20746865207a65726f2061646472657373006044820152606401610a8c565b80600a60008282546133e59190613e46565b90915550506001600160a01b0382166000818152600860209081526040808320805486019055518481526000805160206145b2833981519152910160405180910390a35050565b6000613439826020613e46565b835110156134815760405162461bcd60e51b8152602060048201526015602482015274746f427974657333325f6f75744f66426f756e647360581b6044820152606401610a8c565b50016020015190565b60006022825110156134dd5760405162461bcd60e51b815260206004820152601c60248201527b4c7a4170703a20696e76616c69642061646170746572506172616d7360201b6044820152606401610a8c565b506022015190565b803561ffff811681146134f757600080fd5b919050565b60008083601f84011261350e57600080fd5b5081356001600160401b0381111561352557600080fd5b60208301915083602082850101111561353d57600080fd5b9250929050565b80356001600160401b03811681146134f757600080fd5b6000806000806000806080878903121561357457600080fd5b61357d876134e5565b955060208701356001600160401b038082111561359957600080fd5b6135a58a838b016134fc565b90975095508591506135b960408a01613544565b945060608901359150808211156135cf57600080fd5b506135dc89828a016134fc565b979a9699509497509295939492505050565b60006020828403121561360057600080fd5b81356001600160e01b03198116811461141657600080fd5b60005b8381101561363357818101518382015260200161361b565b50506000910152565b60008151808452613654816020860160208601613618565b601f01601f19169290920160200192915050565b602081526000611416602083018461363c565b60006020828403121561368d57600080fd5b611416826134e5565b6001600160a01b0381168114611dc557600080fd5b600080604083850312156136be57600080fd5b82356136c981613696565b946020939093013593505050565b600080604083850312156136ea57600080fd5b6136c9836134e5565b60008060006060848603121561370857600080fd5b833561371381613696565b9250602084013561372381613696565b929592945050506040919091013590565b803580151581146134f757600080fd5b60008060008060008060a0878903121561375d57600080fd5b613766876134e5565b9550602087013594506040870135935061378260608801613734565b925060808701356001600160401b0381111561379d57600080fd5b6135dc89828a016134fc565b6000806000604084860312156137be57600080fd5b6137c7846134e5565b925060208401356001600160401b038111156137e257600080fd5b6137ee868287016134fc565b9497909650939450505050565b634e487b7160e01b600052604160045260246000fd5b604051601f8201601f191681016001600160401b0381118282101715613839576138396137fb565b604052919050565b60006001600160401b0382111561385a5761385a6137fb565b50601f01601f191660200190565b60008060006060848603121561387d57600080fd5b613886846134e5565b925060208401356001600160401b038111156138a157600080fd5b8401601f810186136138b257600080fd5b80356138c56138c082613841565b613811565b8181528760208385010111156138da57600080fd5b816020840160208301376000602083830101528094505050506138ff60408501613544565b90509250925092565b6001600160a01b0391909116815260200190565b60006060828403121561392e57600080fd5b50919050565b600080600080600060a0868803121561394c57600080fd5b853561395781613696565b9450613965602087016134e5565b9350604086013592506060860135915060808601356001600160401b0381111561398e57600080fd5b61399a8882890161391c565b9150509295509295909350565b6000602082840312156139b957600080fd5b813561141681613696565b60008060008060008060008060e0898b0312156139e057600080fd5b88356139eb81613696565b97506139f960208a016134e5565b9650604089013595506060890135945060808901356001600160401b0380821115613a2357600080fd5b613a2f8c838d016134fc565b9096509450849150613a4360a08c01613544565b935060c08b0135915080821115613a5957600080fd5b50613a668b828c0161391c565b9150509295985092959890939650565b60008060408385031215613a8957600080fd5b613a92836134e5565b9150613aa0602084016134e5565b90509250929050565b600080600080600080600080600060e08a8c031215613ac757600080fd5b613ad08a6134e5565b985060208a0135975060408a0135965060608a01356001600160401b0380821115613afa57600080fd5b613b068d838e016134fc565b9098509650869150613b1a60808d01613544565b9550613b2860a08d01613734565b945060c08c0135915080821115613b3e57600080fd5b50613b4b8c828d016134fc565b915080935050809150509295985092959850929598565b600080600080600060808688031215613b7a57600080fd5b613b83866134e5565b9450613b91602087016134e5565b93506040860135925060608601356001600160401b03811115613bb357600080fd5b613bbf888289016134fc565b969995985093965092949392505050565b600080600080600080600060e0888a031215613beb57600080fd5b8735613bf681613696565b96506020880135613c0681613696565b95506040880135945060608801359350608088013560ff81168114613c2a57600080fd5b9699959850939692959460a0840135945060c09093013592915050565b60008060408385031215613c5a57600080fd5b8235613c6581613696565b91506020830135613c7581613696565b809150509250929050565b600080600060608486031215613c9557600080fd5b613c9e846134e5565b9250613cac602085016134e5565b9150604084013590509250925092565b600060208284031215613cce57600080fd5b61141682613734565b6000806000806000806000806000806101008b8d031215613cf757600080fd5b613d008b6134e5565b995060208b01356001600160401b0380821115613d1c57600080fd5b613d288e838f016134fc565b909b509950899150613d3c60408e01613544565b985060608d0135975060808d01359150613d5582613696565b90955060a08c0135945060c08c01359080821115613d7257600080fd5b50613d7f8d828e016134fc565b9150809450508092505060e08b013590509295989b9194979a5092959850565b60008060008060808587031215613db557600080fd5b613dbe856134e5565b9350613dcc602086016134e5565b92506040850135613ddc81613696565b9396929550929360600135925050565b600181811c90821680613e0057607f821691505b60208210810361392e57634e487b7160e01b600052602260045260246000fd5b8183823760009101908152919050565b634e487b7160e01b600052601160045260246000fd5b80820180821115610c7a57610c7a613e30565b81835281816020850137506000828201602090810191909152601f909101601f19169091010190565b61ffff84168152604060208201526000611e70604083018486613e59565b6000808335601e19843603018112613eb757600080fd5b8301803591506001600160401b03821115613ed157600080fd5b60200191503681900382131561353d57600080fd5b81810381811115610c7a57610c7a613e30565b8284823760609190911b6001600160601b0319169101908152601401919050565b601f82111561290757600081815260208120601f850160051c81016020861015613f415750805b601f850160051c820191505b818110156110eb57828155600101613f4d565b600019600383901b1c191660019190911b1790565b81516001600160401b03811115613f8e57613f8e6137fb565b613fa281613f9c8454613dec565b84613f1a565b602080601f831160018114613fd15760008415613fbf5750858301515b613fc98582613f60565b8655506110eb565b600085815260208120601f198616915b8281101561400057888601518255948401946001909101908401613fe1565b508582101561401e5787850151600019600388901b60f8161c191681555b5050505050600190811b01905550565b600061ffff80881683528087166020840152508460408301526080606083015261405c608083018486613e59565b979650505050505050565b61ffff86168152608060208201526000614085608083018688613e59565b6001600160401b0394909416604083015250606001529392505050565b61ffff8916815260c0602082015260006140c060c08301898b613e59565b6001600160401b0388166040840152606083018790526080830186905282810360a08401526140f0818587613e59565b9b9a5050505050505050505050565b6001600160401b03831115614116576141166137fb565b61412a836141248354613dec565b83613f1a565b6000601f84116001811461415857600085156141465750838201355b6141508682613f60565b845550610d94565b600083815260209020601f19861690835b828110156141895786850135825560209485019460019092019101614169565b50868210156141a65760001960f88860031b161c19848701351681555b505060018560011b0183555050505050565b6000602082840312156141ca57600080fd5b81516001600160401b038111156141e057600080fd5b8201601f810184136141f157600080fd5b80516141ff6138c082613841565b81815285602083850101111561421457600080fd5b611e70826020830160208601613618565b8082028115828204841417610c7a57610c7a613e30565b61ffff85168152608060208201526000614259608083018661363c565b6001600160401b0385166040840152828103606084015261405c818561363c565b61ffff861681526001600160a01b038516602082015260a0604082018190526000906142a89083018661363c565b841515606084015282810360808401526142c2818561363c565b98975050505050505050565b600080604083850312156142e157600080fd5b505080516020909101519092909150565b60208082526019908201527813d19510dbdc994e88185b5bdd5b9d081d1bdbc81cdb585b1b603a1b604082015260600190565b60008251614337818460208701613618565b9190910192915050565b61ffff8616815260a06020820152600061435e60a083018761363c565b6001600160401b0386166040840152828103606084015261437f818661363c565b905082810360808401526142c2818561363c565b634e487b7160e01b600052601260045260246000fd5b6000826143b8576143b8614393565b500490565b600061010061ffff8b1683528060208401526143db8184018b61363c565b6001600160401b038a166040850152606084018990526001600160a01b038816608085015260a0840187905283810360c0850152905061441b818661363c565b9150508260e08301529998505050505050505050565b606081526000614444606083018661363c565b6001600160401b039490941660208301525060400152919050565b60008261446e5761446e614393565b500690565b61ffff8716815260c06020820152600061449060c083018861363c565b82810360408401526144a2818861363c565b6001600160a01b0387811660608601528616608085015283810360a085015290506144cd818561363c565b9998505050505050505050565b6001600160f81b031960f888901b168152600181018690526001600160c01b031960c086811b821660218401526029830186905284901b166049820152815160009061452d816051850160208701613618565b91909101605101979650505050505050565b60208082526018908201527713d19510dbdc994e881a5b9d985b1a59081c185e5b1bd85960421b60408201526060019056fed81fc9b8523134ed613870ed029d6170cbb73aa6a6bc311b9a642689fb9df59abf551ec93859b170f9b2141bd9298bf3f64322c6f7beb2543a0cb669834118bfddf252ad1be2c89b69c2b068fc378daa952ba7f163c4a11628f55a4df523b3ef6e71edae12b1b97f4d1f60370fef10105fa2faae0126114a169c64845d6126c9a2646970667358221220ace7538e51947e53540885a86666a604ee3acb2cc5a49f251c0ec33ce6a5f23664736f6c63430008110033",
  "linkReferences": {},
  "deployedLinkReferences": {}
}