{
  "_format": "hh-sol-artifact-1",
  "contractName": "BorrowerOperationsScript",
  "sourceName": "contracts/Proxy/BorrowerOperationsScript.sol",
  "abi": [
    {
      "inputs": [
        {
          "internalType": "contract IBorrowerOperations",
          "name": "_borrowerOperations",
          "type": "address"
        }
      ],
      "stateMutability": "nonpayable",
      "type": "constructor"
    },
    {
      "inputs": [
        {
          "internalType": "address",
          "name": "_asset",
          "type": "address"
        },
        {
          "internalType": "uint256",
          "name": "_assetAmountSent",
          "type": "uint256"
        },
        {
          "internalType": "address",
          "name": "_upperHint",
          "type": "address"
        },
        {
          "internalType": "address",
          "name": "_lowerHint",
          "type": "address"
        }
      ],
      "name": "addColl",
      "outputs": [],
      "stateMutability": "payable",
      "type": "function"
    },
    {
      "inputs": [
        {
          "internalType": "address",
          "name": "_asset",
          "type": "address"
        },
        {
          "internalType": "uint256",
          "name": "_assetAmountSent",
          "type": "uint256"
        },
        {
          "internalType": "uint256",
          "name": "_maxFee",
          "type": "uint256"
        },
        {
          "internalType": "uint256",
          "name": "_collWithdrawal",
          "type": "uint256"
        },
        {
          "internalType": "uint256",
          "name": "_debtChange",
          "type": "uint256"
        },
        {
          "internalType": "bool",
          "name": "isDebtIncrease",
          "type": "bool"
        },
        {
          "internalType": "address",
          "name": "_upperHint",
          "type": "address"
        },
        {
          "internalType": "address",
          "name": "_lowerHint",
          "type": "address"
        }
      ],
      "name": "adjustTrove",
      "outputs": [],
      "stateMutability": "payable",
      "type": "function"
    },
    {
      "inputs": [
        {
          "internalType": "address",
          "name": "_asset",
          "type": "address"
        }
      ],
      "name": "claimCollateral",
      "outputs": [],
      "stateMutability": "nonpayable",
      "type": "function"
    },
    {
      "inputs": [
        {
          "internalType": "address",
          "name": "_asset",
          "type": "address"
        }
      ],
      "name": "closeTrove",
      "outputs": [],
      "stateMutability": "nonpayable",
      "type": "function"
    },
    {
      "inputs": [
        {
          "internalType": "address",
          "name": "_asset",
          "type": "address"
        },
        {
          "internalType": "uint256",
          "name": "_assetAmountSent",
          "type": "uint256"
        },
        {
          "internalType": "uint256",
          "name": "_maxFee",
          "type": "uint256"
        },
        {
          "internalType": "uint256",
          "name": "_YOUmount",
          "type": "uint256"
        },
        {
          "internalType": "address",
          "name": "_upperHint",
          "type": "address"
        },
        {
          "internalType": "address",
          "name": "_lowerHint",
          "type": "address"
        }
      ],
      "name": "openTrove",
      "outputs": [],
      "stateMutability": "payable",
      "type": "function"
    },
    {
      "inputs": [
        {
          "internalType": "address",
          "name": "_asset",
          "type": "address"
        },
        {
          "internalType": "uint256",
          "name": "_amount",
          "type": "uint256"
        },
        {
          "internalType": "address",
          "name": "_upperHint",
          "type": "address"
        },
        {
          "internalType": "address",
          "name": "_lowerHint",
          "type": "address"
        }
      ],
      "name": "repayU",
      "outputs": [],
      "stateMutability": "nonpayable",
      "type": "function"
    },
    {
      "inputs": [
        {
          "internalType": "address",
          "name": "_asset",
          "type": "address"
        },
        {
          "internalType": "uint256",
          "name": "_amount",
          "type": "uint256"
        },
        {
          "internalType": "address",
          "name": "_upperHint",
          "type": "address"
        },
        {
          "internalType": "address",
          "name": "_lowerHint",
          "type": "address"
        }
      ],
      "name": "withdrawColl",
      "outputs": [],
      "stateMutability": "nonpayable",
      "type": "function"
    },
    {
      "inputs": [
        {
          "internalType": "address",
          "name": "_asset",
          "type": "address"
        },
        {
          "internalType": "uint256",
          "name": "_maxFee",
          "type": "uint256"
        },
        {
          "internalType": "uint256",
          "name": "_amount",
          "type": "uint256"
        },
        {
          "internalType": "address",
          "name": "_upperHint",
          "type": "address"
        },
        {
          "internalType": "address",
          "name": "_lowerHint",
          "type": "address"
        }
      ],
      "name": "withdrawU",
      "outputs": [],
      "stateMutability": "nonpayable",
      "type": "function"
    }
  ],
  "bytecode": "0x60a060405234801561001057600080fd5b5060405161095b38038061095b83398101604081905261002f916100f7565b61003881610049565b6001600160a01b0316608052610127565b6001600160a01b0381166100a45760405162461bcd60e51b815260206004820152601e60248201527f4163636f756e742063616e6e6f74206265207a65726f2061646472657373000060448201526064015b60405180910390fd5b803b806100f35760405162461bcd60e51b815260206004820181905260248201527f4163636f756e7420636f64652073697a652063616e6e6f74206265207a65726f604482015260640161009b565b5050565b60006020828403121561010957600080fd5b81516001600160a01b038116811461012057600080fd5b9392505050565b6080516107e86101736000396000818161014d015281816101f60152818161026b0152818161033b0152818161040e0152818161048f01528181610507015261056201526107e86000f3fe60806040526004361061006b5760003560e01c806348a4a39d1461007057806349b010c51461008557806374399021146100a55780637da0b1fa146100b85780638235b284146100cb578063a06a715c146100eb578063bf8c50071461010b578063cbd138ae1461012b575b600080fd5b61008361007e3660046105d3565b61014b565b005b34801561009157600080fd5b506100836100a03660046105d3565b6101df565b6100836100b3366004610620565b610269565b6100836100c63660046106a2565b610339565b3480156100d757600080fd5b506100836100e6366004610701565b6103f7565b3480156100f757600080fd5b506100836101063660046105d3565b610478565b34801561011757600080fd5b5061008361012636600461071c565b6104ca565b34801561013757600080fd5b50610083610146366004610701565b61054b565b7f00000000000000000000000000000000000000000000000000000000000000006001600160a01b03166348a4a39d6101848686610597565b868686866040518663ffffffff1660e01b81526004016101a79493929190610773565b6000604051808303818588803b1580156101c057600080fd5b505af11580156101d4573d6000803e3d6000fd5b505050505050505050565b6040516349b010c560e01b81526001600160a01b037f000000000000000000000000000000000000000000000000000000000000000016906349b010c590610231908790879087908790600401610773565b600060405180830381600087803b15801561024b57600080fd5b505af115801561025f573d6000803e3d6000fd5b5050505050505050565b7f00000000000000000000000000000000000000000000000000000000000000006001600160a01b031663743990216102a28a8a610597565b6040516001600160e01b031960e084901b1681526001600160a01b03808d166004830152602482018c9052604482018b9052606482018a90526084820189905287151560a483015280871660c4830152851660e4820152610104016000604051808303818588803b15801561031657600080fd5b505af115801561032a573d6000803e3d6000fd5b50505050505050505050505050565b7f00000000000000000000000000000000000000000000000000000000000000006001600160a01b0316637da0b1fa6103728888610597565b6040516001600160e01b031960e084901b1681526001600160a01b03808b166004830152602482018a905260448201899052606482018890528087166084830152851660a482015260c4016000604051808303818588803b1580156103d657600080fd5b505af11580156103ea573d6000803e3d6000fd5b5050505050505050505050565b60405163208d6ca160e21b81526001600160a01b037f00000000000000000000000000000000000000000000000000000000000000001690638235b2849061044390849060040161079e565b600060405180830381600087803b15801561045d57600080fd5b505af1158015610471573d6000803e3d6000fd5b5050505050565b60405163281a9c5760e21b81526001600160a01b037f0000000000000000000000000000000000000000000000000000000000000000169063a06a715c90610231908790879087908790600401610773565b60405163bf8c500760e01b81526001600160a01b0386811660048301526024820186905260448201859052838116606483015282811660848301527f0000000000000000000000000000000000000000000000000000000000000000169063bf8c50079060a401600060405180830381600087803b1580156101c057600080fd5b6040516365e89c5760e11b81526001600160a01b037f0000000000000000000000000000000000000000000000000000000000000000169063cbd138ae9061044390849060040161079e565b60006001600160a01b038316156105ae57816105b0565b345b9392505050565b80356001600160a01b03811681146105ce57600080fd5b919050565b600080600080608085870312156105e957600080fd5b6105f2856105b7565b935060208501359250610607604086016105b7565b9150610615606086016105b7565b905092959194509250565b600080600080600080600080610100898b03121561063d57600080fd5b610646896105b7565b97506020890135965060408901359550606089013594506080890135935060a0890135801515811461067757600080fd5b925061068560c08a016105b7565b915061069360e08a016105b7565b90509295985092959890939650565b60008060008060008060c087890312156106bb57600080fd5b6106c4876105b7565b95506020870135945060408701359350606087013592506106e7608088016105b7565b91506106f560a088016105b7565b90509295509295509295565b60006020828403121561071357600080fd5b6105b0826105b7565b600080600080600060a0868803121561073457600080fd5b61073d866105b7565b94506020860135935060408601359250610759606087016105b7565b9150610767608087016105b7565b90509295509295909350565b6001600160a01b03948516815260208101939093529083166040830152909116606082015260800190565b6001600160a01b039190911681526020019056fea26469706673582212200c658e86e4e4f8dcf386f413a1205b9696cc5abea2b40ad6e909057484370af064736f6c63430008110033",
  "linkReferences": {},
  "deployedLinkReferences": {}
}