{
  "_format": "hh-sol-artifact-1",
  "contractName": "SortedTrovesTester",
  "sourceName": "contracts/TestContracts/SortedTrovesTester.sol",
  "abi": [
    {
      "inputs": [
        {
          "internalType": "address",
          "name": "",
          "type": "address"
        },
        {
          "internalType": "address",
          "name": "",
          "type": "address"
        },
        {
          "internalType": "uint256",
          "name": "",
          "type": "uint256"
        }
      ],
      "name": "getCurrentICR",
      "outputs": [
        {
          "internalType": "uint256",
          "name": "",
          "type": "uint256"
        }
      ],
      "stateMutability": "pure",
      "type": "function"
    },
    {
      "inputs": [
        {
          "internalType": "address",
          "name": "",
          "type": "address"
        },
        {
          "internalType": "address",
          "name": "",
          "type": "address"
        }
      ],
      "name": "getNominalICR",
      "outputs": [
        {
          "internalType": "uint256",
          "name": "",
          "type": "uint256"
        }
      ],
      "stateMutability": "pure",
      "type": "function"
    },
    {
      "inputs": [
        {
          "internalType": "address",
          "name": "_asset",
          "type": "address"
        },
        {
          "internalType": "address",
          "name": "_id",
          "type": "address"
        },
        {
          "internalType": "uint256",
          "name": "_NICR",
          "type": "uint256"
        },
        {
          "internalType": "address",
          "name": "_prevId",
          "type": "address"
        },
        {
          "internalType": "address",
          "name": "_nextId",
          "type": "address"
        }
      ],
      "name": "insert",
      "outputs": [],
      "stateMutability": "nonpayable",
      "type": "function"
    },
    {
      "inputs": [
        {
          "internalType": "address",
          "name": "_asset",
          "type": "address"
        },
        {
          "internalType": "address",
          "name": "_id",
          "type": "address"
        },
        {
          "internalType": "uint256",
          "name": "_newNICR",
          "type": "uint256"
        },
        {
          "internalType": "address",
          "name": "_prevId",
          "type": "address"
        },
        {
          "internalType": "address",
          "name": "_nextId",
          "type": "address"
        }
      ],
      "name": "reInsert",
      "outputs": [],
      "stateMutability": "nonpayable",
      "type": "function"
    },
    {
      "inputs": [
        {
          "internalType": "address",
          "name": "_asset",
          "type": "address"
        },
        {
          "internalType": "address",
          "name": "_id",
          "type": "address"
        }
      ],
      "name": "remove",
      "outputs": [],
      "stateMutability": "nonpayable",
      "type": "function"
    },
    {
      "inputs": [
        {
          "internalType": "address",
          "name": "_sortedTrovesAddress",
          "type": "address"
        }
      ],
      "name": "setSortedTroves",
      "outputs": [],
      "stateMutability": "nonpayable",
      "type": "function"
    }
  ],
  "bytecode": "0x608060405234801561001057600080fd5b50610398806100206000396000f3fe608060405234801561001057600080fd5b50600436106100625760003560e01c80637c933c0a146100675780637f7c14911461007c57806390ec23011461008f578063b1eafaab146100b7578063bc9b5bd5146100ce578063e24b40d2146100e1575b600080fd5b61007a610075366004610241565b610111565b005b61007a61008a36600461029f565b610182565b6100a561009d36600461029f565b600192915050565b60405190815260200160405180910390f35b6100a56100c53660046102d2565b60019392505050565b61007a6100dc366004610241565b6101ed565b61007a6100ef36600461030e565b600080546001600160a01b0319166001600160a01b0392909216919091179055565b600054604051633e499e0560e11b81526001600160a01b0390911690637c933c0a906101499088908890889088908890600401610330565b600060405180830381600087803b15801561016357600080fd5b505af1158015610177573d6000803e3d6000fd5b505050505050505050565b600054604051637f7c149160e01b81526001600160a01b038481166004830152838116602483015290911690637f7c149190604401600060405180830381600087803b1580156101d157600080fd5b505af11580156101e5573d6000803e3d6000fd5b505050505050565b60005460405163bc9b5bd560e01b81526001600160a01b039091169063bc9b5bd5906101499088908890889088908890600401610330565b80356001600160a01b038116811461023c57600080fd5b919050565b600080600080600060a0868803121561025957600080fd5b61026286610225565b945061027060208701610225565b93506040860135925061028560608701610225565b915061029360808701610225565b90509295509295909350565b600080604083850312156102b257600080fd5b6102bb83610225565b91506102c960208401610225565b90509250929050565b6000806000606084860312156102e757600080fd5b6102f084610225565b92506102fe60208501610225565b9150604084013590509250925092565b60006020828403121561032057600080fd5b61032982610225565b9392505050565b6001600160a01b0395861681529385166020850152604084019290925283166060830152909116608082015260a0019056fea26469706673582212205d13649f20a3ae934b7b9e2602afa28402d4ba187c8e3a22ab00f893aec7870e64736f6c63430008110033",
  "linkReferences": {},
  "deployedLinkReferences": {}
}