{
  "_format": "hh-sol-artifact-1",
  "contractName": "MockTellor",
  "sourceName": "contracts/TestContracts/MockTellor.sol",
  "abi": [
    {
      "inputs": [
        {
          "internalType": "uint256",
          "name": "",
          "type": "uint256"
        }
      ],
      "name": "getNewValueCountbyRequestId",
      "outputs": [
        {
          "internalType": "uint256",
          "name": "",
          "type": "uint256"
        }
      ],
      "stateMutability": "view",
      "type": "function"
    },
    {
      "inputs": [
        {
          "internalType": "uint256",
          "name": "",
          "type": "uint256"
        },
        {
          "internalType": "uint256",
          "name": "",
          "type": "uint256"
        }
      ],
      "name": "getTimestampbyRequestIDandIndex",
      "outputs": [
        {
          "internalType": "uint256",
          "name": "",
          "type": "uint256"
        }
      ],
      "stateMutability": "view",
      "type": "function"
    },
    {
      "inputs": [
        {
          "internalType": "uint256",
          "name": "",
          "type": "uint256"
        },
        {
          "internalType": "uint256",
          "name": "",
          "type": "uint256"
        }
      ],
      "name": "retrieveData",
      "outputs": [
        {
          "internalType": "uint256",
          "name": "",
          "type": "uint256"
        }
      ],
      "stateMutability": "view",
      "type": "function"
    },
    {
      "inputs": [
        {
          "internalType": "bool",
          "name": "_didRetrieve",
          "type": "bool"
        }
      ],
      "name": "setDidRetrieve",
      "outputs": [],
      "stateMutability": "nonpayable",
      "type": "function"
    },
    {
      "inputs": [
        {
          "internalType": "uint256",
          "name": "_price",
          "type": "uint256"
        }
      ],
      "name": "setPrice",
      "outputs": [],
      "stateMutability": "nonpayable",
      "type": "function"
    },
    {
      "inputs": [],
      "name": "setRevertRequest",
      "outputs": [],
      "stateMutability": "nonpayable",
      "type": "function"
    },
    {
      "inputs": [
        {
          "internalType": "uint256",
          "name": "_updateTime",
          "type": "uint256"
        }
      ],
      "name": "setUpdateTime",
      "outputs": [],
      "stateMutability": "nonpayable",
      "type": "function"
    }
  ],
  "bytecode": "0x60806040526000805460ff1916600117905534801561001d57600080fd5b506102198061002d6000396000f3fe608060405234801561001057600080fd5b506004361061006d5760003560e01c80632fc0eb851461007257806346eee1c41461008b57806377fbb663146100b057806391b7f5ed146100c657806393fa4915146100d9578063bf73eea6146100ef578063c495485714610102575b600080fd5b6100896003805460ff19811660ff90911615179055565b005b61009e61009936600461017f565b610123565b60405190815260200160405180910390f35b61009e6100be366004610198565b505060025490565b6100896100d436600461017f565b600155565b61009e6100e7366004610198565b505060015490565b6100896100fd36600461017f565b600255565b6100896101103660046101ba565b6000805460ff1916911515919091179055565b60035460009060ff16156101775760405162461bcd60e51b815260206004820152601760248201527615195b1b1bdc881c995c5d595cdd081c995d995c9d1959604a1b604482015260640160405180910390fd5b506001919050565b60006020828403121561019157600080fd5b5035919050565b600080604083850312156101ab57600080fd5b50508035926020909101359150565b6000602082840312156101cc57600080fd5b813580151581146101dc57600080fd5b939250505056fea26469706673582212200d62ac0353bbbf7270a408969a040cabef4e3dd7be620612477871146ce4fcaf64736f6c63430008110033",
  "linkReferences": {},
  "deployedLinkReferences": {}
}