{
  "_format": "hh-sol-artifact-1",
  "contractName": "BorrowerOperationsTester",
  "sourceName": "contracts/TestContracts/BorrowerOperationsTester.sol",
  "abi": [
    {
      "inputs": [],
      "name": "IsNotWstETH",
      "type": "error"
    },
    {
      "anonymous": false,
      "inputs": [
        {
          "indexed": false,
          "internalType": "address",
          "name": "_collSurplusPoolAddress",
          "type": "address"
        }
      ],
      "name": "CollSurplusPoolAddressChanged",
      "type": "event"
    },
    {
      "anonymous": false,
      "inputs": [
        {
          "indexed": false,
          "internalType": "address",
          "name": "_gasPoolAddress",
          "type": "address"
        }
      ],
      "name": "GasPoolAddressChanged",
      "type": "event"
    },
    {
      "anonymous": false,
      "inputs": [
        {
          "indexed": false,
          "internalType": "uint8",
          "name": "version",
          "type": "uint8"
        }
      ],
      "name": "Initialized",
      "type": "event"
    },
    {
      "anonymous": false,
      "inputs": [
        {
          "indexed": true,
          "internalType": "address",
          "name": "previousOwner",
          "type": "address"
        },
        {
          "indexed": true,
          "internalType": "address",
          "name": "newOwner",
          "type": "address"
        }
      ],
      "name": "OwnershipTransferred",
      "type": "event"
    },
    {
      "anonymous": false,
      "inputs": [
        {
          "indexed": false,
          "internalType": "address",
          "name": "_sortedTrovesAddress",
          "type": "address"
        }
      ],
      "name": "SortedTrovesAddressChanged",
      "type": "event"
    },
    {
      "anonymous": false,
      "inputs": [
        {
          "indexed": false,
          "internalType": "address",
          "name": "_stabilityPoolAddress",
          "type": "address"
        }
      ],
      "name": "StabilityPoolAddressChanged",
      "type": "event"
    },
    {
      "anonymous": false,
      "inputs": [
        {
          "indexed": true,
          "internalType": "address",
          "name": "_asset",
          "type": "address"
        },
        {
          "indexed": true,
          "internalType": "address",
          "name": "_borrower",
          "type": "address"
        },
        {
          "indexed": false,
          "internalType": "uint256",
          "name": "arrayIndex",
          "type": "uint256"
        }
      ],
      "name": "TroveCreated",
      "type": "event"
    },
    {
      "anonymous": false,
      "inputs": [
        {
          "indexed": false,
          "internalType": "address",
          "name": "_newTroveManagerAddress",
          "type": "address"
        }
      ],
      "name": "TroveManagerAddressChanged",
      "type": "event"
    },
    {
      "anonymous": false,
      "inputs": [
        {
          "indexed": true,
          "internalType": "address",
          "name": "_asset",
          "type": "address"
        },
        {
          "indexed": true,
          "internalType": "address",
          "name": "_borrower",
          "type": "address"
        },
        {
          "indexed": false,
          "internalType": "uint256",
          "name": "_debt",
          "type": "uint256"
        },
        {
          "indexed": false,
          "internalType": "uint256",
          "name": "_coll",
          "type": "uint256"
        },
        {
          "indexed": false,
          "internalType": "uint256",
          "name": "stake",
          "type": "uint256"
        },
        {
          "indexed": false,
          "internalType": "enum BorrowerOperations.BorrowerOperation",
          "name": "operation",
          "type": "uint8"
        }
      ],
      "name": "TroveUpdated",
      "type": "event"
    },
    {
      "anonymous": false,
      "inputs": [
        {
          "indexed": true,
          "internalType": "address",
          "name": "_asset",
          "type": "address"
        },
        {
          "indexed": true,
          "internalType": "address",
          "name": "_borrower",
          "type": "address"
        },
        {
          "indexed": false,
          "internalType": "uint256",
          "name": "_UFee",
          "type": "uint256"
        }
      ],
      "name": "UBorrowingFeePaid",
      "type": "event"
    },
    {
      "anonymous": false,
      "inputs": [
        {
          "indexed": false,
          "internalType": "address",
          "name": "_uTokenAddress",
          "type": "address"
        }
      ],
      "name": "UTokenAddressChanged",
      "type": "event"
    },
    {
      "anonymous": false,
      "inputs": [
        {
          "indexed": true,
          "internalType": "address",
          "name": "newAddress",
          "type": "address"
        }
      ],
      "name": "VaultParametersBaseChanged",
      "type": "event"
    },
    {
      "anonymous": false,
      "inputs": [
        {
          "indexed": false,
          "internalType": "address",
          "name": "_YOUStakingAddress",
          "type": "address"
        }
      ],
      "name": "YOUStakingAddressChanged",
      "type": "event"
    },
    {
      "inputs": [],
      "name": "DECIMAL_PRECISION",
      "outputs": [
        {
          "internalType": "uint256",
          "name": "",
          "type": "uint256"
        }
      ],
      "stateMutability": "view",
      "type": "function"
    },
    {
      "inputs": [],
      "name": "ETH_REF_ADDRESS",
      "outputs": [
        {
          "internalType": "address",
          "name": "",
          "type": "address"
        }
      ],
      "stateMutability": "view",
      "type": "function"
    },
    {
      "inputs": [],
      "name": "NAME",
      "outputs": [
        {
          "internalType": "string",
          "name": "",
          "type": "string"
        }
      ],
      "stateMutability": "view",
      "type": "function"
    },
    {
      "inputs": [],
      "name": "UToken",
      "outputs": [
        {
          "internalType": "contract IUToken",
          "name": "",
          "type": "address"
        }
      ],
      "stateMutability": "view",
      "type": "function"
    },
    {
      "inputs": [],
      "name": "YOUStaking",
      "outputs": [
        {
          "internalType": "contract IYOUStaking",
          "name": "",
          "type": "address"
        }
      ],
      "stateMutability": "view",
      "type": "function"
    },
    {
      "inputs": [],
      "name": "YOUStakingAddress",
      "outputs": [
        {
          "internalType": "address",
          "name": "",
          "type": "address"
        }
      ],
      "stateMutability": "view",
      "type": "function"
    },
    {
      "inputs": [
        {
          "internalType": "address",
          "name": "_asset",
          "type": "address"
        },
        {
          "internalType": "uint256",
          "name": "_assetSent",
          "type": "uint256"
        },
        {
          "internalType": "address",
          "name": "_upperHint",
          "type": "address"
        },
        {
          "internalType": "address",
          "name": "_lowerHint",
          "type": "address"
        }
      ],
      "name": "addColl",
      "outputs": [],
      "stateMutability": "payable",
      "type": "function"
    },
    {
      "inputs": [
        {
          "internalType": "address",
          "name": "_asset",
          "type": "address"
        },
        {
          "internalType": "uint256",
          "name": "_assetSent",
          "type": "uint256"
        },
        {
          "internalType": "uint256",
          "name": "_maxFeePercentage",
          "type": "uint256"
        },
        {
          "internalType": "uint256",
          "name": "_collWithdrawal",
          "type": "uint256"
        },
        {
          "internalType": "uint256",
          "name": "_UChange",
          "type": "uint256"
        },
        {
          "internalType": "bool",
          "name": "_isDebtIncrease",
          "type": "bool"
        },
        {
          "internalType": "address",
          "name": "_upperHint",
          "type": "address"
        },
        {
          "internalType": "address",
          "name": "_lowerHint",
          "type": "address"
        }
      ],
      "name": "adjustTrove",
      "outputs": [],
      "stateMutability": "payable",
      "type": "function"
    },
    {
      "inputs": [
        {
          "internalType": "address",
          "name": "_asset",
          "type": "address"
        },
        {
          "internalType": "uint256",
          "name": "_amount",
          "type": "uint256"
        },
        {
          "internalType": "address",
          "name": "_borrower",
          "type": "address"
        },
        {
          "internalType": "uint256",
          "name": "_collWithdrawal",
          "type": "uint256"
        },
        {
          "internalType": "uint256",
          "name": "_debtChange",
          "type": "uint256"
        },
        {
          "internalType": "bool",
          "name": "_isDebtIncrease",
          "type": "bool"
        },
        {
          "internalType": "address",
          "name": "_upperHint",
          "type": "address"
        },
        {
          "internalType": "address",
          "name": "_lowerHint",
          "type": "address"
        }
      ],
      "name": "callInternalAdjustLoan",
      "outputs": [],
      "stateMutability": "nonpayable",
      "type": "function"
    },
    {
      "inputs": [
        {
          "internalType": "address",
          "name": "_asset",
          "type": "address"
        }
      ],
      "name": "claimCollateral",
      "outputs": [],
      "stateMutability": "nonpayable",
      "type": "function"
    },
    {
      "inputs": [
        {
          "internalType": "address",
          "name": "_asset",
          "type": "address"
        }
      ],
      "name": "closeTrove",
      "outputs": [],
      "stateMutability": "nonpayable",
      "type": "function"
    },
    {
      "inputs": [
        {
          "internalType": "address",
          "name": "_asset",
          "type": "address"
        },
        {
          "internalType": "uint256",
          "name": "_debt",
          "type": "uint256"
        }
      ],
      "name": "getCompositeDebt",
      "outputs": [
        {
          "internalType": "uint256",
          "name": "",
          "type": "uint256"
        }
      ],
      "stateMutability": "view",
      "type": "function"
    },
    {
      "inputs": [
        {
          "internalType": "address",
          "name": "_asset",
          "type": "address"
        }
      ],
      "name": "getEntireSystemColl",
      "outputs": [
        {
          "internalType": "uint256",
          "name": "entireSystemColl",
          "type": "uint256"
        }
      ],
      "stateMutability": "view",
      "type": "function"
    },
    {
      "inputs": [
        {
          "internalType": "address",
          "name": "_asset",
          "type": "address"
        }
      ],
      "name": "getEntireSystemDebt",
      "outputs": [
        {
          "internalType": "uint256",
          "name": "entireSystemDebt",
          "type": "uint256"
        }
      ],
      "stateMutability": "view",
      "type": "function"
    },
    {
      "inputs": [
        {
          "internalType": "uint256",
          "name": "_coll",
          "type": "uint256"
        },
        {
          "internalType": "uint256",
          "name": "_debt",
          "type": "uint256"
        },
        {
          "internalType": "uint256",
          "name": "_collChange",
          "type": "uint256"
        },
        {
          "internalType": "bool",
          "name": "isCollIncrease",
          "type": "bool"
        },
        {
          "internalType": "uint256",
          "name": "_debtChange",
          "type": "uint256"
        },
        {
          "internalType": "bool",
          "name": "isDebtIncrease",
          "type": "bool"
        },
        {
          "internalType": "uint256",
          "name": "_price",
          "type": "uint256"
        }
      ],
      "name": "getNewICRFromTroveChange",
      "outputs": [
        {
          "internalType": "uint256",
          "name": "",
          "type": "uint256"
        }
      ],
      "stateMutability": "pure",
      "type": "function"
    },
    {
      "inputs": [
        {
          "internalType": "address",
          "name": "_asset",
          "type": "address"
        },
        {
          "internalType": "uint256",
          "name": "_collChange",
          "type": "uint256"
        },
        {
          "internalType": "bool",
          "name": "isCollIncrease",
          "type": "bool"
        },
        {
          "internalType": "uint256",
          "name": "_debtChange",
          "type": "uint256"
        },
        {
          "internalType": "bool",
          "name": "isDebtIncrease",
          "type": "bool"
        },
        {
          "internalType": "uint256",
          "name": "_price",
          "type": "uint256"
        }
      ],
      "name": "getNewTCRFromTroveChange",
      "outputs": [
        {
          "internalType": "uint256",
          "name": "",
          "type": "uint256"
        }
      ],
      "stateMutability": "view",
      "type": "function"
    },
    {
      "inputs": [
        {
          "internalType": "uint256",
          "name": "_coll",
          "type": "uint256"
        },
        {
          "internalType": "uint256",
          "name": "_price",
          "type": "uint256"
        }
      ],
      "name": "getUSDValue",
      "outputs": [
        {
          "internalType": "uint256",
          "name": "",
          "type": "uint256"
        }
      ],
      "stateMutability": "pure",
      "type": "function"
    },
    {
      "inputs": [],
      "name": "isInitialized",
      "outputs": [
        {
          "internalType": "bool",
          "name": "",
          "type": "bool"
        }
      ],
      "stateMutability": "view",
      "type": "function"
    },
    {
      "inputs": [
        {
          "internalType": "address",
          "name": "_asset",
          "type": "address"
        },
        {
          "internalType": "uint256",
          "name": "_amountMoved",
          "type": "uint256"
        },
        {
          "internalType": "address",
          "name": "_borrower",
          "type": "address"
        },
        {
          "internalType": "address",
          "name": "_upperHint",
          "type": "address"
        },
        {
          "internalType": "address",
          "name": "_lowerHint",
          "type": "address"
        }
      ],
      "name": "moveETHGainToTrove",
      "outputs": [],
      "stateMutability": "payable",
      "type": "function"
    },
    {
      "inputs": [
        {
          "internalType": "address",
          "name": "_asset",
          "type": "address"
        },
        {
          "internalType": "uint256",
          "name": "_tokenAmount",
          "type": "uint256"
        },
        {
          "internalType": "uint256",
          "name": "_maxFeePercentage",
          "type": "uint256"
        },
        {
          "internalType": "uint256",
          "name": "_YOUmount",
          "type": "uint256"
        },
        {
          "internalType": "address",
          "name": "_upperHint",
          "type": "address"
        },
        {
          "internalType": "address",
          "name": "_lowerHint",
          "type": "address"
        }
      ],
      "name": "openTrove",
      "outputs": [],
      "stateMutability": "payable",
      "type": "function"
    },
    {
      "inputs": [],
      "name": "owner",
      "outputs": [
        {
          "internalType": "address",
          "name": "",
          "type": "address"
        }
      ],
      "stateMutability": "view",
      "type": "function"
    },
    {
      "inputs": [],
      "name": "renounceOwnership",
      "outputs": [],
      "stateMutability": "nonpayable",
      "type": "function"
    },
    {
      "inputs": [
        {
          "internalType": "address",
          "name": "_asset",
          "type": "address"
        },
        {
          "internalType": "uint256",
          "name": "_YOUmount",
          "type": "uint256"
        },
        {
          "internalType": "address",
          "name": "_upperHint",
          "type": "address"
        },
        {
          "internalType": "address",
          "name": "_lowerHint",
          "type": "address"
        }
      ],
      "name": "repayU",
      "outputs": [],
      "stateMutability": "nonpayable",
      "type": "function"
    },
    {
      "inputs": [
        {
          "internalType": "address",
          "name": "_troveManagerAddress",
          "type": "address"
        },
        {
          "internalType": "address",
          "name": "_stabilityPoolManagerAddress",
          "type": "address"
        },
        {
          "internalType": "address",
          "name": "_gasPoolAddress",
          "type": "address"
        },
        {
          "internalType": "address",
          "name": "_collSurplusPoolAddress",
          "type": "address"
        },
        {
          "internalType": "address",
          "name": "_sortedTrovesAddress",
          "type": "address"
        },
        {
          "internalType": "address",
          "name": "_uTokenAddress",
          "type": "address"
        },
        {
          "internalType": "address",
          "name": "_YOUStakingAddress",
          "type": "address"
        },
        {
          "internalType": "address",
          "name": "_vestaParamsAddress",
          "type": "address"
        }
      ],
      "name": "setAddresses",
      "outputs": [],
      "stateMutability": "nonpayable",
      "type": "function"
    },
    {
      "inputs": [
        {
          "internalType": "address",
          "name": "_vaultParams",
          "type": "address"
        }
      ],
      "name": "setVestaParameters",
      "outputs": [],
      "stateMutability": "nonpayable",
      "type": "function"
    },
    {
      "inputs": [],
      "name": "sortedTroves",
      "outputs": [
        {
          "internalType": "contract ISortedTroves",
          "name": "",
          "type": "address"
        }
      ],
      "stateMutability": "view",
      "type": "function"
    },
    {
      "inputs": [
        {
          "internalType": "address",
          "name": "newOwner",
          "type": "address"
        }
      ],
      "name": "transferOwnership",
      "outputs": [],
      "stateMutability": "nonpayable",
      "type": "function"
    },
    {
      "inputs": [],
      "name": "troveManager",
      "outputs": [
        {
          "internalType": "contract ITroveManager",
          "name": "",
          "type": "address"
        }
      ],
      "stateMutability": "view",
      "type": "function"
    },
    {
      "inputs": [],
      "name": "vestaParams",
      "outputs": [
        {
          "internalType": "contract IVestaParameters",
          "name": "",
          "type": "address"
        }
      ],
      "stateMutability": "view",
      "type": "function"
    },
    {
      "inputs": [
        {
          "internalType": "address",
          "name": "_asset",
          "type": "address"
        },
        {
          "internalType": "uint256",
          "name": "_collWithdrawal",
          "type": "uint256"
        },
        {
          "internalType": "address",
          "name": "_upperHint",
          "type": "address"
        },
        {
          "internalType": "address",
          "name": "_lowerHint",
          "type": "address"
        }
      ],
      "name": "withdrawColl",
      "outputs": [],
      "stateMutability": "nonpayable",
      "type": "function"
    },
    {
      "inputs": [
        {
          "internalType": "address",
          "name": "_asset",
          "type": "address"
        },
        {
          "internalType": "uint256",
          "name": "_maxFeePercentage",
          "type": "uint256"
        },
        {
          "internalType": "uint256",
          "name": "_YOUmount",
          "type": "uint256"
        },
        {
          "internalType": "address",
          "name": "_upperHint",
          "type": "address"
        },
        {
          "internalType": "address",
          "name": "_lowerHint",
          "type": "address"
        }
      ],
      "name": "withdrawU",
      "outputs": [],
      "stateMutability": "nonpayable",
      "type": "function"
    },
    {
      "inputs": [],
      "name": "wstETH",
      "outputs": [
        {
          "internalType": "address",
          "name": "",
          "type": "address"
        }
      ],
      "stateMutability": "view",
      "type": "function"
    },
    {
      "stateMutability": "payable",
      "type": "receive"
    }
  ],
  "bytecode": "0x608060405234801561001057600080fd5b50614f83806100206000396000f3fe6080604052600436106101775760003560e01c806302540e481461018357806327d04b35146101b6578063392e53cd146101d65780633d83908a1461020757806348a4a39d1461023457806349b010c5146102495780634aa07e64146102695780634c0a577d14610289578063501414f5146102a957806351584ca4146102bc57806352bc13e1146102dc5780635545db99146102fc5780635cc4d1481461031c5780636da6678a1461033c5780636f30d2121461035c578063715018a61461037c57806372141e631461039157806374399021146103a65780637da0b1fa146103b95780638235b284146103cc5780638da5cb5b146103ec5780639e86d0c414610401578063a06a715c14610421578063a20baee614610441578063a3f4df7e1461045d578063ae918754146104a8578063bf8c5007146104c8578063c27ec9c0146104e8578063cbd138ae14610508578063d733cfd014610528578063f2fde38b14610548578063f7a22d801461056857600080fd5b3661017e57005b600080fd5b34801561018f57600080fd5b506101a361019e36600461473b565b610588565b6040519081526020015b60405180910390f35b3480156101c257600080fd5b506101a36101d1366004614767565b6105cb565b3480156101e257600080fd5b50606d546101f790600160a01b900460ff1681565b60405190151581526020016101ad565b34801561021357600080fd5b50606654610227906001600160a01b031681565b6040516101ad9190614784565b610247610242366004614798565b6107a4565b005b34801561025557600080fd5b50610247610264366004614798565b6107fa565b34801561027557600080fd5b50600054610227906001600160a01b031681565b34801561029557600080fd5b50606a54610227906001600160a01b031681565b6102476102b73660046147eb565b61083e565b3480156102c857600080fd5b506101a36102d7366004614861565b61089d565b3480156102e857600080fd5b50606c54610227906001600160a01b031681565b34801561030857600080fd5b50606b54610227906001600160a01b031681565b34801561032857600080fd5b50610247610337366004614767565b6108ba565b34801561034857600080fd5b506101a36103573660046148ca565b61090c565b34801561036857600080fd5b506101a3610377366004614931565b610927565b34801561038857600080fd5b5061024761093c565b34801561039d57600080fd5b50610227600081565b6102476103b4366004614953565b610950565b6102476103c73660046149d8565b6109a7565b3480156103d857600080fd5b506102476103e7366004614767565b611267565b3480156103f857600080fd5b506102276112f7565b34801561040d57600080fd5b506101a361041c366004614767565b611306565b34801561042d57600080fd5b5061024761043c366004614798565b611492565b34801561044d57600080fd5b506101a3670de0b6b3a764000081565b34801561046957600080fd5b5061049b60405180604001604052806012815260200171426f72726f7765724f7065726174696f6e7360701b81525081565b6040516101ad9190614a63565b3480156104b457600080fd5b50606d54610227906001600160a01b031681565b3480156104d457600080fd5b506102476104e3366004614a96565b6114d7565b3480156104f457600080fd5b50610247610503366004614ad7565b61151b565b34801561051457600080fd5b50610247610523366004614767565b611537565b34801561053457600080fd5b50610247610543366004614b34565b611b91565b34801561055457600080fd5b50610247610563366004614767565b611f7d565b34801561057457600080fd5b50606554610227906001600160a01b031681565b6000805483906001600160a01b038083169116146105b957604051631a40f2bd60e31b815260040160405180910390fd5b6105c38484611ff6565b949350505050565b600080606560009054906101000a90046001600160a01b03166001600160a01b0316637f7dde4a6040518163ffffffff1660e01b8152600401602060405180830381865afa158015610621573d6000803e3d6000fd5b505050506040513d601f19601f820116820180604052508101906106459190614bac565b6001600160a01b031663631a53d4846040518263ffffffff1660e01b81526004016106709190614784565b602060405180830381865afa15801561068d573d6000803e3d6000fd5b505050506040513d601f19601f820116820180604052508101906106b19190614bc9565b90506000606560009054906101000a90046001600160a01b03166001600160a01b0316633cc742256040518163ffffffff1660e01b8152600401602060405180830381865afa158015610708573d6000803e3d6000fd5b505050506040513d601f19601f8201168201806040525081019061072c9190614bac565b6001600160a01b031663631a53d4856040518263ffffffff1660e01b81526004016107579190614784565b602060405180830381865afa158015610774573d6000803e3d6000fd5b505050506040513d601f19601f820116820180604052508101906107989190614bc9565b90506105c38282612071565b60005484906001600160a01b038083169116146107d457604051631a40f2bd60e31b815260040160405180910390fd5b6107f3856107e48787600061207d565b3360008060008989600061219c565b5050505050565b60005484906001600160a01b0380831691161461082a57604051631a40f2bd60e31b815260040160405180910390fd5b6107f385600033876000808989600061219c565b60005485906001600160a01b0380831691161461086e57604051631a40f2bd60e31b815260040160405180910390fd5b610876612a1b565b610895866108868888600061207d565b8660008060008989600061219c565b505050505050565b60006108ae88888888888888612aea565b98975050505050505050565b6108c2612b1d565b606580546001600160a01b0319166001600160a01b0383169081179091556040517f98c5e303d085e26fdf8af6a41184b0937ed01142ae7fdfa02dcc87e7079c325390600090a250565b600061091c878787878787612b7c565b979650505050505050565b60006109338383612bf2565b90505b92915050565b610944612b1d565b61094e6000612c11565b565b60005488906001600160a01b0380831691161461098057604051631a40f2bd60e31b815260040160405180910390fd5b61099c896109908b8b600161207d565b3389898989898f61219c565b505050505050505050565b60005486906001600160a01b038083169116146109d757604051631a40f2bd60e31b815260040160405180910390fd5b6065546040516362a3b93f60e01b81526001600160a01b03909116906362a3b93f90610a07908a90600401614784565b600060405180830381600087803b158015610a2157600080fd5b505af1158015610a35573d6000803e3d6000fd5b5050604080516060810182526066546001600160a01b0390811682526065548351633fbeef2560e11b81529351600096509294506020808601949190921692637f7dde4a926004808401939192918290030181865afa158015610a9c573d6000803e3d6000fd5b505050506040513d601f19601f82011682018060405250810190610ac09190614bac565b6001600160a01b039081168252606c54811660209283015260408051610120810182526000938101849052908101839052606081018390526080810183905260a0810183905260c0810183905260e081018390526101008101839052908b1680825292935091610b31918a9061207d565b9750606560009054906101000a90046001600160a01b03166001600160a01b031663741bef1a6040518163ffffffff1660e01b8152600401602060405180830381865afa158015610b86573d6000803e3d6000fd5b505050506040513d601f19601f82011682018060405250810190610baa9190614bac565b8151604051635670bcc760e11b81526001600160a01b03929092169163ace1798e91610bd891600401614784565b6020604051808303816000875af1158015610bf7573d6000803e3d6000fd5b505050506040513d601f19601f82011682018060405250810190610c1b9190614bc9565b602082018190528151600091610c319190612c63565b9050610c4282600001518983612cea565b81518351610c51919033612f31565b6060820187905280610c8e57815183516040850151610c739291908a8c612ffa565b604083018190526060830151610c8891612071565b60608301525b610ca0826000015183606001516131ab565b610cb282600001518360600151611ff6565b60808301819052610cc557610cc5614be2565b610cd88983608001518460200151613292565b60a08301526080820151610ced908a906132bf565b60c08301528015610d0f57610d0a82600001518360a001516132ee565b610d51565b610d2182600001518360a001516133ce565b6000610d3f83600001518b6001866080015160018860200151612b7c565b9050610d4f8360000151826134b4565b505b825182516040516322894d8f60e21b81526001600160a01b0390921691638a25363c91610d85913390600190600401614bf8565b600060405180830381600087803b158015610d9f57600080fd5b505af1158015610db3573d6000803e3d6000fd5b5050845184516040516322cbc1b360e11b81526001600160a01b03909216935063459783669250610dea9133908e90600401614bf8565b6020604051808303816000875af1158015610e09573d6000803e3d6000fd5b505050506040513d601f19601f82011682018060405250810190610e2d9190614bc9565b50825182516080840151604051637f2586fb60e11b81526001600160a01b039093169263fe4b0df692610e67929091339190600401614bf8565b6020604051808303816000875af1158015610e86573d6000803e3d6000fd5b505050506040513d601f19601f82011682018060405250810190610eaa9190614bc9565b508251825160405163c7a1bbdb60e01b81526001600160a01b039092169163c7a1bbdb91610edc913390600401614c1c565b600060405180830381600087803b158015610ef657600080fd5b505af1158015610f0a573d6000803e3d6000fd5b50508451845160405163dbe9f91960e01b81526001600160a01b03909216935063dbe9f9199250610f3f913390600401614c1c565b6020604051808303816000875af1158015610f5e573d6000803e3d6000fd5b505050506040513d601f19601f82011682018060405250810190610f829190614bc9565b60e0830152606d54825160c0840151604051633e499e0560e11b81526001600160a01b0390931692637c933c0a92610fc59290913391908c908c90600401614c36565b600060405180830381600087803b158015610fdf57600080fd5b505af1158015610ff3573d6000803e3d6000fd5b505084518451604051630706bdff60e11b81526001600160a01b039092169350630e0d7bfe9250611028913390600401614c1c565b6020604051808303816000875af1158015611047573d6000803e3d6000fd5b505050506040513d601f19601f8201168201806040525081019061106b9190614bc9565b6101008301819052825160405191825233916001600160a01b03909116907fc78aeff453faf39d5a4a56acb99641aa471118956e00bdf4ca3e08ee6687fef69060200160405180910390a36110c9826000015184602001518b61359a565b6110e7826000015184602001518560400151338b87606001516136e7565b81516020840151604080860151606854606554925163e29607cf60e01b81526111e59594936001600160a01b0392831692169063e29607cf9061112e908790600401614784565b602060405180830381865afa15801561114b573d6000803e3d6000fd5b505050506040513d601f19601f8201168201806040525081019061116f9190614bc9565b606554885160405163e29607cf60e01b81526001600160a01b039092169163e29607cf9161119f91600401614784565b602060405180830381865afa1580156111bc573d6000803e3d6000fd5b505050506040513d601f19601f820116820180604052508101906111e09190614bc9565b6136e7565b8151608083015160e084015160405133936001600160a01b031692600080516020614f2e8339815191529261121f928f9190600090614c8a565b60405180910390a38151604080840151905190815233916001600160a01b031690600080516020614f0e8339815191529060200160405180910390a350505050505050505050565b60005481906001600160a01b0380831691161461129757604051631a40f2bd60e31b815260040160405180910390fd5b60695460405163ea16003f60e01b81526001600160a01b039091169063ea16003f906112c99085903390600401614c1c565b600060405180830381600087803b1580156112e357600080fd5b505af1158015610895573d6000803e3d6000fd5b6033546001600160a01b031690565b600080606560009054906101000a90046001600160a01b03166001600160a01b0316637f7dde4a6040518163ffffffff1660e01b8152600401602060405180830381865afa15801561135c573d6000803e3d6000fd5b505050506040513d601f19601f820116820180604052508101906113809190614bac565b6001600160a01b0316635373433f846040518263ffffffff1660e01b81526004016113ab9190614784565b602060405180830381865afa1580156113c8573d6000803e3d6000fd5b505050506040513d601f19601f820116820180604052508101906113ec9190614bc9565b90506000606560009054906101000a90046001600160a01b03166001600160a01b0316633cc742256040518163ffffffff1660e01b8152600401602060405180830381865afa158015611443573d6000803e3d6000fd5b505050506040513d601f19601f820116820180604052508101906114679190614bac565b6001600160a01b0316635373433f856040518263ffffffff1660e01b81526004016107579190614784565b60005484906001600160a01b038083169116146114c257604051631a40f2bd60e31b815260040160405180910390fd5b6107f38560003360008860008989600061219c565b60005485906001600160a01b0380831691161461150757604051631a40f2bd60e31b815260040160405180910390fd5b61089586600033600088600189898d61219c565b61152d8888888888888888600061219c565b5050505050505050565b60005481906001600160a01b0380831691161461156757604051631a40f2bd60e31b815260040160405180910390fd5b61158b60405180606001604052806000815260200160008152602001600081525090565b60665460655460408051633fbeef2560e11b815290516001600160a01b03938416936000931691637f7dde4a9160048083019260209291908290030181865afa1580156115dc573d6000803e3d6000fd5b505050506040513d601f19601f820116820180604052508101906116009190614bac565b606c549091506001600160a01b031661161a8684336137b1565b606560009054906101000a90046001600160a01b03166001600160a01b031663741bef1a6040518163ffffffff1660e01b8152600401602060405180830381865afa15801561166d573d6000803e3d6000fd5b505050506040513d601f19601f820116820180604052508101906116919190614bac565b6001600160a01b031663ace1798e876040518263ffffffff1660e01b81526004016116bc9190614784565b6020604051808303816000875af11580156116db573d6000803e3d6000fd5b505050506040513d601f19601f820116820180604052508101906116ff9190614bc9565b80855261170d90879061388c565b60405163df4fb9ef60e01b81526001600160a01b0384169063df4fb9ef9061173b9089903390600401614c1c565b600060405180830381600087803b15801561175557600080fd5b505af1158015611769573d6000803e3d6000fd5b505060405163305a536960e01b81526001600160a01b038616925063305a5369915061179b9089903390600401614c1c565b602060405180830381865afa1580156117b8573d6000803e3d6000fd5b505050506040513d601f19601f820116820180604052508101906117dc9190614bc9565b6020850152604051631e7c58c160e31b81526001600160a01b0384169063f3e2c6089061180f9089903390600401614c1c565b602060405180830381865afa15801561182c573d6000803e3d6000fd5b505050506040513d601f19601f820116820180604052508101906118509190614bc9565b604080860191909152606554905163e29607cf60e01b81526118e591839133916118e0916001600160a01b039091169063e29607cf90611894908d90600401614784565b602060405180830381865afa1580156118b1573d6000803e3d6000fd5b505050506040513d601f19601f820116820180604052508101906118d59190614bc9565b604089015190613905565b613911565b60006119038786602001516000886040015160008a60000151612b7c565b905061190f87826134b4565b604051633ed3a18f60e21b81526001600160a01b0385169063fb4e863c9061193d908a903390600401614c1c565b600060405180830381600087803b15801561195757600080fd5b505af115801561196b573d6000803e3d6000fd5b50506040516317d5218560e21b81526001600160a01b0387169250635f548614915061199d908a903390600401614c1c565b600060405180830381600087803b1580156119b757600080fd5b505af11580156119cb573d6000803e3d6000fd5b50505050336001600160a01b0316876001600160a01b0316600080516020614f2e83398151915260008060006001604051611a099493929190614c8a565b60405180910390a360655460405163e29607cf60e01b8152611aa2918991869186913391611a9d916001600160a01b039091169063e29607cf90611a51908890600401614784565b602060405180830381865afa158015611a6e573d6000803e3d6000fd5b505050506040513d601f19601f82011682018060405250810190611a929190614bc9565b60408c015190613905565b6139f1565b60685460655460405163e29607cf60e01b8152611b22928a92879287926001600160a01b0390811692169063e29607cf90611ae1908790600401614784565b602060405180830381865afa158015611afe573d6000803e3d6000fd5b505050506040513d601f19601f82011682018060405250810190611a9d9190614bc9565b60208501516040516347878f1560e01b81526001600160a01b038516916347878f1591611b56918b91339190600401614bf8565b600060405180830381600087803b158015611b7057600080fd5b505af1158015611b84573d6000803e3d6000fd5b5050505050505050505050565b600054600160a81b900460ff1615808015611bb957506000546001600160a01b90910460ff16105b80611be15750611bc830613aad565b158015611be15750600054600160a01b900460ff166001145b611c495760405162461bcd60e51b815260206004820152602e60248201527f496e697469616c697a61626c653a20636f6e747261637420697320616c72656160448201526d191e481a5b9a5d1a585b1a5e995960921b60648201526084015b60405180910390fd5b6000805460ff60a01b1916600160a01b1790558015611c76576000805460ff60a81b1916600160a81b1790555b606d54600160a01b900460ff1615611cc65760405162461bcd60e51b8152602060048201526013602482015272105b1c9958591e481a5b9a5d1a585b1a5e9959606a1b6044820152606401611c40565b611ccf89613abc565b611cd888613abc565b611ce187613abc565b611cea86613abc565b611cf385613abc565b611cfc84613abc565b611d0583613abc565b611d0e82613abc565b606d805460ff60a01b1916600160a01b179055611d29613b61565b606680546001600160a01b03199081166001600160a01b038c8116919091179092556067805482168b84161790556068805482168a8416179055606980548216898416179055606d80548216888416179055606c80548216878416179055606b805482169286169283179055606a80549091169091179055611daa826108ba565b7f143219c9e69b09e07e095fcc889b43d8f46ca892bba65f08dc3a0050869a567889604051611dd99190614784565b60405180910390a17f82966d27eea39b038ee0fa30cd16532bb24f6e65d31cb58fb227aa5766cdcc7f88604051611e109190614784565b60405180910390a17fcfb07d791fcafc032b35837b50eb84b74df518cf4cc287e8084f47630fa70fa087604051611e479190614784565b60405180910390a17fe67f36a6e961157d6eff83b91f3af5a62131ceb6f04954ef74f51c1c05e7f88d86604051611e7e9190614784565b60405180910390a17f65f4cf077bc01e4742eb5ad98326f6e95b63548ea24b17f8d5e823111fe7880085604051611eb59190614784565b60405180910390a17fffbb094c9e44d0e86f5ef0b73fc5fd37eb0b9f00e5d56a3e5a591c1f63ae937884604051611eec9190614784565b60405180910390a17f028d155b44cc706dadb63eac3ffb852c07d9f185cc5c4fbffc5d51f8742cb6e483604051611f239190614784565b60405180910390a1801561099c576000805460ff60a81b19169055604051600181527f7f26b83ff96e1f2b6a682f133852f6798a09c465da95921460cefb38474024989060200160405180910390a1505050505050505050565b611f85612b1d565b6001600160a01b038116611fea5760405162461bcd60e51b815260206004820152602660248201527f4f776e61626c653a206e6577206f776e657220697320746865207a65726f206160448201526564647265737360d01b6064820152608401611c40565b611ff381612c11565b50565b60655460405163e29607cf60e01b8152600091610933916001600160a01b039091169063e29607cf9061202d908790600401614784565b602060405180830381865afa15801561204a573d6000803e3d6000fd5b505050506040513d601f19601f8201168201806040525081019061206e9190614bc9565b83905b60006109338284614cc2565b6000805484906001600160a01b038083169116146120ae57604051631a40f2bd60e31b815260040160405180910390fd5b6001600160a01b0385161583806120cc57508080156120cc57503415155b806120de5750801580156120de575034155b6121805760405162461bcd60e51b815260206004820152606160248201527f426f72726f7765724f703a20496e76616c696420496e7075742e204f7665727260448201527f696465206d73672e76616c7565206f6e6c79206966207573696e67204554482060648201527f61737365742c206f746865727769736520757365205f746f6b656e416d6f756e6084820152601d60fa1b60a482015260c401611c40565b6001600160a01b038616612192573494505b5092949350505050565b604080516060810182526066546001600160a01b0390811682526065548351633fbeef2560e11b815293516000946020808601949390931692637f7dde4a926004808401938290030181865afa1580156121fa573d6000803e3d6000fd5b505050506040513d601f19601f8201168201806040525081019061221e9190614bac565b6001600160a01b03168152602001606c60009054906101000a90046001600160a01b03166001600160a01b031681525090506122cd604051806101c0016040528060006001600160a01b031681526020016000815260200160008152602001600081526020016000151581526020016000815260200160008152602001600081526020016000815260200160008152602001600081526020016000815260200160008152602001600081525090565b6001600160a01b038b1681523415806122e557508934145b61234f5760405162461bcd60e51b815260206004820152603560248201527f426f72726f7765724f703a205f417373657453656e7420616e64204d73672e76604482015274616c7565206172656e2774207468652073616d652160581b6064820152608401611c40565b606560009054906101000a90046001600160a01b03166001600160a01b031663741bef1a6040518163ffffffff1660e01b8152600401602060405180830381865afa1580156123a2573d6000803e3d6000fd5b505050506040513d601f19601f820116820180604052508101906123c69190614bac565b8151604051635670bcc760e11b81526001600160a01b03929092169163ace1798e916123f491600401614784565b6020604051808303816000875af1158015612413573d6000803e3d6000fd5b505050506040513d601f19601f820116820180604052508101906124379190614bc9565b60208201819052815160009161244d9190612c63565b9050861561246b578151612462908583612cea565b61246b88613b92565b612475898c613c02565b61248089898d613c72565b8151835161248f91908c6137b1565b336001600160a01b038b1614806125285750606754604051633c5f6d8f60e21b81526001600160a01b039091169063f17db63c906124d1903390600401614784565b602060405180830381865afa1580156124ee573d6000803e3d6000fd5b505050506040513d601f19601f820116820180604052508101906125129190614cd5565b801561251e575060008b115b8015612528575087155b61253457612534614be2565b8251825160405163df4fb9ef60e01b81526001600160a01b039092169163df4fb9ef91612565918e90600401614c1c565b600060405180830381600087803b15801561257f57600080fd5b505af1158015612593573d6000803e3d6000fd5b505050506125a18b8a613d14565b151560808401526040830152606082018890528680156125bf575080155b156125f6578151835160408501516125da9291908b88612ffa565b610140830181905260608301516125f091612071565b60608301525b82518251604051631e7c58c160e31b81526001600160a01b039092169163f3e2c60891612627918e90600401614c1c565b602060405180830381865afa158015612644573d6000803e3d6000fd5b505050506040513d601f19601f820116820180604052508101906126689190614bc9565b60a08301528251825160405163305a536960e01b81526001600160a01b039092169163305a53699161269e918e90600401614c1c565b602060405180830381865afa1580156126bb573d6000803e3d6000fd5b505050506040513d601f19601f820116820180604052508101906126df9190614bc9565b60c0830181905260a083015160208401516126fb929190613292565b8260e001818152505061272b8260c001518360a001518460400151856080015186606001518c8860200151612aea565b61010083015260c08201518911156127a45760405162461bcd60e51b815260206004820152603660248201527f426f72726f7765724f703a20547279696e6720746f2072656d6f7665206d6f7260448201527565207468616e207468652074726f766520686f6c647360501b6064820152608401611c40565b81516127b390828b8a86613d33565b861580156127c15750600088115b1561281d576127f382600001516127ee84606001516127e886600001518760a00151613daf565b90613905565b6131ab565b61280a82600001518360a001518460600151613e2e565b61281d83604001518b8460600151613911565b612840826000015184600001518c8560400151866080015187606001518d613ee1565b6101608401526101808301528251825160405163dbe9f91960e01b81526001600160a01b039092169163dbe9f9199161287d918e90600401614c1c565b6020604051808303816000875af115801561289c573d6000803e3d6000fd5b505050506040513d601f19601f820116820180604052508101906128c09190614bc9565b826101a001818152505060006128ee8360c001518460a001518560400151866080015187606001518d6140db565b606d54845160405163bc9b5bd560e01b81529293506001600160a01b039091169163bc9b5bd591612929918f9086908d908d90600401614c36565b600060405180830381600087803b15801561294357600080fd5b505af1158015612957573d6000803e3d6000fd5b505050508a6001600160a01b031683600001516001600160a01b0316600080516020614f2e833981519152856101600151866101800151876101a0015160026040516129a69493929190614c8a565b60405180910390a3825161014084015160405190815233916001600160a01b031690600080516020614f0e8339815191529060200160405180910390a3612a0c83600001518560200151866040015133876040015188608001518f8f8b606001516140fe565b50505050505050505050505050565b606754604051633c5f6d8f60e21b81526001600160a01b039091169063f17db63c90612a4b903390600401614784565b602060405180830381865afa158015612a68573d6000803e3d6000fd5b505050506040513d601f19601f82011682018060405250810190612a8c9190614cd5565b61094e5760405162461bcd60e51b815260206004820152602960248201527f426f72726f7765724f70733a2043616c6c6572206973206e6f742053746162696044820152681b1a5d1e48141bdbdb60ba1b6064820152608401611c40565b6000806000612afd8a8a8a8a8a8a614198565b915091506000612b0e838387613292565b9b9a5050505050505050505050565b33612b266112f7565b6001600160a01b03161461094e5760405162461bcd60e51b815260206004820181905260248201527f4f776e61626c653a2063616c6c6572206973206e6f7420746865206f776e65726044820152606401611c40565b600080612b8888611306565b90506000612b95896105cb565b905086612bab57612ba68289613905565b612bb5565b612bb58289612071565b915084612bcb57612bc68187613905565b612bd5565b612bd58187612071565b90506000612be4838387613292565b9a9950505050505050505050565b6000806105c3670de0b6b3a7640000612c0b85876141ec565b906141f8565b603380546001600160a01b038381166001600160a01b0319831681179093556040519116919082907f8be0079c531659141344cd1fd0a4f28419497f9722a3daafe3b4186f6b6457e090600090a35050565b600080612c708484614204565b606554604051631f6a526d60e11b81529192506001600160a01b031690633ed4a4da90612ca1908790600401614784565b602060405180830381865afa158015612cbe573d6000803e3d6000fd5b505050506040513d601f19601f82011682018060405250810190612ce29190614bc9565b119392505050565b8015612dd657606560009054906101000a90046001600160a01b03166001600160a01b031663a20baee66040518163ffffffff1660e01b8152600401602060405180830381865afa158015612d43573d6000803e3d6000fd5b505050506040513d601f19601f82011682018060405250810190612d679190614bc9565b821115612dd15760405162461bcd60e51b815260206004820152603260248201527f4d6178206665652070657263656e74616765206d757374206c657373207468616044820152716e206f7220657175616c20746f203130302560701b6064820152608401611c40565b505050565b606554604051631108308b60e31b81526001600160a01b0390911690638841845890612e06908690600401614784565b602060405180830381865afa158015612e23573d6000803e3d6000fd5b505050506040513d601f19601f82011682018060405250810190612e479190614bc9565b8210158015612ecc5750606560009054906101000a90046001600160a01b03166001600160a01b031663a20baee66040518163ffffffff1660e01b8152600401602060405180830381865afa158015612ea4573d6000803e3d6000fd5b505050506040513d601f19601f82011682018060405250810190612ec89190614bc9565b8211155b612dd15760405162461bcd60e51b815260206004820152603060248201527f4d6178206665652070657263656e74616765206d75737420626520626574776560448201526f656e20302e352520616e64203130302560801b6064820152608401611c40565b60405163614d120960e01b81526000906001600160a01b0384169063614d120990612f629087908690600401614c1c565b602060405180830381865afa158015612f7f573d6000803e3d6000fd5b505050506040513d601f19601f82011682018060405250810190612fa39190614bc9565b905080600103612ff45760405162461bcd60e51b815260206004820152601c60248201527b426f72726f7765724f70733a2054726f76652069732061637469766560201b6044820152606401611c40565b50505050565b604051630daba89760e31b81526000906001600160a01b03861690636d5d44b890613029908990600401614784565b600060405180830381600087803b15801561304357600080fd5b505af1158015613057573d6000803e3d6000fd5b50506040516314757c1360e31b8152600092506001600160a01b038816915063a3abe0989061308c908a908890600401614cf2565b602060405180830381865afa1580156130a9573d6000803e3d6000fd5b505050506040513d601f19601f820116820180604052508101906130cd9190614bc9565b90506130da81858561422a565b606b54604051636361ddf360e11b81526001600160a01b038088169263c6c3bbe69261310e928c9216908690600401614bf8565b600060405180830381600087803b15801561312857600080fd5b505af115801561313c573d6000803e3d6000fd5b5050606a546040516342966f6760e11b8152600481018590526001600160a01b03909116925063852cdece9150602401600060405180830381600087803b15801561318657600080fd5b505af115801561319a573d6000803e3d6000fd5b509293505050505b95945050505050565b60655460405163c4063a1960e01b81526001600160a01b039091169063c4063a19906131db908590600401614784565b602060405180830381865afa1580156131f8573d6000803e3d6000fd5b505050506040513d601f19601f8201168201806040525081019061321c9190614bc9565b81101561328e5760405162461bcd60e51b815260206004820152603a60248201527f426f72726f7765724f70733a2054726f76652773206e65742064656274206d7560448201527973742062652067726561746572207468616e206d696e696d756d60301b6064820152608401611c40565b5050565b600082156132b35760006132aa84612c0b87866141ec565b91506132b89050565b506000195b9392505050565b600081156132e5576132de82612c0b8568056bc75e2d631000006141ec565b9050610936565b50600019610936565b606554604051631f6a526d60e11b81526001600160a01b0390911690633ed4a4da9061331e908590600401614784565b602060405180830381865afa15801561333b573d6000803e3d6000fd5b505050506040513d601f19601f8201168201806040525081019061335f9190614bc9565b81101561328e5760405162461bcd60e51b815260206004820152603760248201527f426f72726f7765724f70733a204f7065726174696f6e206d757374206c65617660448201527632903a3937bb32903bb4ba341024a1a9101f1e9021a1a960491b6064820152608401611c40565b6065546040516305f8cff960e01b81526001600160a01b03909116906305f8cff9906133fe908590600401614784565b602060405180830381865afa15801561341b573d6000803e3d6000fd5b505050506040513d601f19601f8201168201806040525081019061343f9190614bc9565b81101561328e5760405162461bcd60e51b81526020600482015260496024820152600080516020614eee83398151915260448201527f6f756c6420726573756c7420696e20494352203c204d4352206973206e6f74206064820152681c195c9b5a5d1d195960ba1b608482015260a401611c40565b606554604051631f6a526d60e11b81526001600160a01b0390911690633ed4a4da906134e4908590600401614784565b602060405180830381865afa158015613501573d6000803e3d6000fd5b505050506040513d601f19601f820116820180604052508101906135259190614bc9565b81101561328e5760405162461bcd60e51b81526020600482015260496024820152600080516020614eee83398151915260448201527f6f756c6420726573756c7420696e20544352203c20434352206973206e6f74206064820152681c195c9b5a5d1d195960ba1b608482015260a401611c40565b6001600160a01b038316613661576000826001600160a01b03168260405160006040518083038185875af1925050503d80600081146135f5576040519150601f19603f3d011682016040523d82523d6000602084013e6135fa565b606091505b5050905080612ff45760405162461bcd60e51b815260206004820152602d60248201527f426f72726f7765724f70733a2053656e64696e672045544820746f204163746960448201526c1d99541bdbdb0819985a5b1959609a1b6064820152608401611c40565b61368233836136708685614303565b6001600160a01b0387169291906143cc565b604051633ac5bc0160e21b81526001600160a01b0383169063eb16f004906136b09086908590600401614cf2565b600060405180830381600087803b1580156136ca57600080fd5b505af11580156136de573d6000803e3d6000fd5b50505050505050565b604051633c7e6c8960e01b81526001600160a01b03861690633c7e6c89906137159089908590600401614cf2565b600060405180830381600087803b15801561372f57600080fd5b505af1158015613743573d6000803e3d6000fd5b5050604051636361ddf360e11b81526001600160a01b038716925063c6c3bbe6915061377790899087908790600401614bf8565b600060405180830381600087803b15801561379157600080fd5b505af11580156137a5573d6000803e3d6000fd5b50505050505050505050565b60405163614d120960e01b81526000906001600160a01b0384169063614d1209906137e29087908690600401614c1c565b602060405180830381865afa1580156137ff573d6000803e3d6000fd5b505050506040513d601f19601f820116820180604052508101906138239190614bc9565b905080600114612ff45760405162461bcd60e51b815260206004820152602e60248201527f426f72726f7765724f70733a2054726f766520646f6573206e6f74206578697360448201526d1d081bdc881a5cc818db1bdcd95960921b6064820152608401611c40565b6138968282612c63565b1561328e5760405162461bcd60e51b815260206004820152603960248201527f426f72726f7765724f70733a204f7065726174696f6e206e6f74207065726d696044820152787474656420647572696e67205265636f76657279204d6f646560381b6064820152608401611c40565b60006109338284614d0b565b6040516370a0823160e01b815281906001600160a01b038516906370a082319061393f908690600401614784565b602060405180830381865afa15801561395c573d6000803e3d6000fd5b505050506040513d601f19601f820116820180604052508101906139809190614bc9565b1015612dd15760405162461bcd60e51b815260206004820152603a60248201527f426f72726f7765724f70733a2043616c6c657220646f65736e74206861766520604482015279195b9bdd59da0815481d1bc81b585ad9481c995c185e5b595b9d60321b6064820152608401611c40565b604051631197fc7160e01b81526001600160a01b03851690631197fc7190613a1f9088908590600401614cf2565b600060405180830381600087803b158015613a3957600080fd5b505af1158015613a4d573d6000803e3d6000fd5b5050604051632770a7eb60e21b81526001600160a01b0386169250639dc29fac9150613a7f9085908590600401614cf2565b600060405180830381600087803b158015613a9957600080fd5b505af115801561099c573d6000803e3d6000fd5b6001600160a01b03163b151590565b6001600160a01b038116613b125760405162461bcd60e51b815260206004820152601e60248201527f4163636f756e742063616e6e6f74206265207a65726f206164647265737300006044820152606401611c40565b803b8061328e5760405162461bcd60e51b815260206004820181905260248201527f4163636f756e7420636f64652073697a652063616e6e6f74206265207a65726f6044820152606401611c40565b600054600160a81b900460ff16613b8a5760405162461bcd60e51b8152600401611c4090614d1e565b61094e614424565b60008111611ff35760405162461bcd60e51b815260206004820152603760248201527f426f72726f7765724f70733a204465627420696e637265617365207265717569604482015276726573206e6f6e2d7a65726f20646562744368616e676560481b6064820152608401611c40565b811580613c0d575080155b61328e5760405162461bcd60e51b815260206004820152603060248201527f426f72726f7765724f7065726174696f6e733a2043616e6e6f7420776974686460448201526f1c985dc8185b99081859190818dbdb1b60821b6064820152608401611c40565b34151580613c7f57508215155b80613c8957508115155b80613c9357508015155b612dd15760405162461bcd60e51b815260206004820152604660248201527f426f72726f7765724f70733a205468657265206d75737420626520656974686560448201527f72206120636f6c6c61746572616c206368616e6765206f7220612064656274206064820152656368616e676560d01b608482015260a401611c40565b6000808315613d2857508290506001613d2c565b8291505b9250929050565b8315613d6f57613d4283614456565b8115613d6a57613d57858261010001516132ee565b613d6a8161010001518260e001516144ca565b6107f3565b613d7e858261010001516133ce565b613d9c85826040015183608001518460600151868660200151612b7c565b61012082018190526107f39086906134b4565b60655460405163e29607cf60e01b8152600091610933916001600160a01b039091169063e29607cf90613de6908790600401614784565b602060405180830381865afa158015613e03573d6000803e3d6000fd5b505050506040513d601f19601f82011682018060405250810190613e279190614bc9565b8390613905565b60655460405163e29607cf60e01b8152613e60916001600160a01b03169063e29607cf90613de6908790600401614784565b811115612dd15760405162461bcd60e51b815260206004820152604360248201527f426f72726f7765724f70733a20416d6f756e7420726570616964206d7573742060448201527f6e6f74206265206c6172676572207468616e207468652054726f76652773206460648201526219589d60ea1b608482015260a401611c40565b600080600085613f6257604051622fae7760e81b81526001600160a01b038a1690632fae770090613f1a908d908c908c90600401614bf8565b6020604051808303816000875af1158015613f39573d6000803e3d6000fd5b505050506040513d601f19601f82011682018060405250810190613f5d9190614bc9565b613fd5565b6040516322cbc1b360e11b81526001600160a01b038a1690634597836690613f92908d908c908c90600401614bf8565b6020604051808303816000875af1158015613fb1573d6000803e3d6000fd5b505050506040513d601f19601f82011682018060405250810190613fd59190614bc9565b905060008461405657604051634231d8b560e11b81526001600160a01b038b1690638463b16a9061400e908e908d908b90600401614bf8565b6020604051808303816000875af115801561402d573d6000803e3d6000fd5b505050506040513d601f19601f820116820180604052508101906140519190614bc9565b6140c9565b604051637f2586fb60e11b81526001600160a01b038b169063fe4b0df690614086908e908d908b90600401614bf8565b6020604051808303816000875af11580156140a5573d6000803e3d6000fd5b505050506040513d601f19601f820116820180604052508101906140c99190614bc9565b919b919a509098505050505050505050565b60008060006140ee898989898989614198565b915091506000612be483836132bf565b8115614117576141128989898987866136e7565b614124565b61412489898989876139f1565b831561413a5761413589898761359a565b61099c565b6040516347878f1560e01b81526001600160a01b038916906347878f159061416a908c908a908a90600401614bf8565b600060405180830381600087803b15801561418457600080fd5b505af1158015612a0c573d6000803e3d6000fd5b6000808787866141b1576141ac8a89613905565b6141bb565b6141bb8a89612071565b9150846141d1576141cc8987613905565b6141db565b6141db8987612071565b919a91995090975050505050505050565b60006109338284614d69565b60006109338284614d80565b60008061421084611306565b9050600061421d856105cb565b90506131a2828286613292565b60006142b183612c0b606560009054906101000a90046001600160a01b03166001600160a01b031663a20baee66040518163ffffffff1660e01b8152600401602060405180830381865afa158015614286573d6000803e3d6000fd5b505050506040513d601f19601f820116820180604052508101906142aa9190614bc9565b87906141ec565b905081811115612ff45760405162461bcd60e51b815260206004820152601d60248201527f4665652065786365656465642070726f7669646564206d6178696d756d0000006044820152606401611c40565b60006001600160a01b03831661431a575080610936565b8160000361432a57506000610936565b6000836001600160a01b031663313ce5676040518163ffffffff1660e01b8152600401602060405180830381865afa15801561436a573d6000803e3d6000fd5b505050506040513d601f19601f8201168201806040525081019061438e9190614da2565b905060128160ff1610156143c4576143bc6143aa826012614dc5565b6143b590600a614ec2565b84906141f8565b915050610936565b509092915050565b612ff4846323b872dd60e01b8585856040516024016143ed93929190614bf8565b60408051601f198184030181529190526020810180516001600160e01b03166001600160e01b031990931692909217909152614540565b600054600160a81b900460ff1661444d5760405162461bcd60e51b8152600401611c4090614d1e565b61094e33612c11565b8015611ff35760405162461bcd60e51b815260206004820152603e60248201527f426f72726f7765724f70733a20436f6c6c61746572616c20776974686472617760448201527f616c206e6f74207065726d6974746564205265636f76657279204d6f646500006064820152608401611c40565b8082101561328e5760405162461bcd60e51b815260206004820152603e60248201527f426f72726f7765724f70733a2043616e6e6f7420646563726561736520796f7560448201527f722054726f766527732049435220696e205265636f76657279204d6f646500006064820152608401611c40565b6000614595826040518060400160405280602081526020017f5361666545524332303a206c6f772d6c6576656c2063616c6c206661696c6564815250856001600160a01b03166146159092919063ffffffff16565b90508051600014806145b65750808060200190518101906145b69190614cd5565b612dd15760405162461bcd60e51b815260206004820152602a60248201527f5361666545524332303a204552433230206f7065726174696f6e20646964206e6044820152691bdd081cdd58d8d9595960b21b6064820152608401611c40565b60606105c3848460008585600080866001600160a01b0316858760405161463c9190614ed1565b60006040518083038185875af1925050503d8060008114614679576040519150601f19603f3d011682016040523d82523d6000602084013e61467e565b606091505b509150915061091c87838387606083156146f75782516000036146f0576146a485613aad565b6146f05760405162461bcd60e51b815260206004820152601d60248201527f416464726573733a2063616c6c20746f206e6f6e2d636f6e74726163740000006044820152606401611c40565b50816105c3565b6105c3838381511561470c5781518083602001fd5b8060405162461bcd60e51b8152600401611c409190614a63565b6001600160a01b0381168114611ff357600080fd5b6000806040838503121561474e57600080fd5b823561475981614726565b946020939093013593505050565b60006020828403121561477957600080fd5b81356132b881614726565b6001600160a01b0391909116815260200190565b600080600080608085870312156147ae57600080fd5b84356147b981614726565b93506020850135925060408501356147d081614726565b915060608501356147e081614726565b939692955090935050565b600080600080600060a0868803121561480357600080fd5b853561480e81614726565b945060208601359350604086013561482581614726565b9250606086013561483581614726565b9150608086013561484581614726565b809150509295509295909350565b8015158114611ff357600080fd5b600080600080600080600060e0888a03121561487c57600080fd5b873596506020880135955060408801359450606088013561489c81614853565b93506080880135925060a08801356148b381614853565b8092505060c0880135905092959891949750929550565b60008060008060008060c087890312156148e357600080fd5b86356148ee81614726565b955060208701359450604087013561490581614853565b935060608701359250608087013561491c81614853565b8092505060a087013590509295509295509295565b6000806040838503121561494457600080fd5b50508035926020909101359150565b600080600080600080600080610100898b03121561497057600080fd5b883561497b81614726565b97506020890135965060408901359550606089013594506080890135935060a08901356149a781614853565b925060c08901356149b781614726565b915060e08901356149c781614726565b809150509295985092959890939650565b60008060008060008060c087890312156149f157600080fd5b86356149fc81614726565b95506020870135945060408701359350606087013592506080870135614a2181614726565b915060a0870135614a3181614726565b809150509295509295509295565b60005b83811015614a5a578181015183820152602001614a42565b50506000910152565b6020815260008251806020840152614a82816040850160208701614a3f565b601f01601f19169190910160400192915050565b600080600080600060a08688031215614aae57600080fd5b8535614ab981614726565b94506020860135935060408601359250606086013561483581614726565b600080600080600080600080610100898b031215614af457600080fd5b8835614aff81614726565b9750602089013596506040890135614b1681614726565b9550606089013594506080890135935060a08901356149a781614853565b600080600080600080600080610100898b031215614b5157600080fd5b8835614b5c81614726565b97506020890135614b6c81614726565b96506040890135614b7c81614726565b95506060890135614b8c81614726565b94506080890135614b9c81614726565b935060a08901356149a781614726565b600060208284031215614bbe57600080fd5b81516132b881614726565b600060208284031215614bdb57600080fd5b5051919050565b634e487b7160e01b600052600160045260246000fd5b6001600160a01b039384168152919092166020820152604081019190915260600190565b6001600160a01b0392831681529116602082015260400190565b6001600160a01b0395861681529385166020850152604084019290925283166060830152909116608082015260a00190565b60038110614c8657634e487b7160e01b600052602160045260246000fd5b9052565b8481526020810184905260408101839052608081016131a26060830184614c68565b634e487b7160e01b600052601160045260246000fd5b8082018082111561093657610936614cac565b600060208284031215614ce757600080fd5b81516132b881614853565b6001600160a01b03929092168252602082015260400190565b8181038181111561093657610936614cac565b6020808252602b908201527f496e697469616c697a61626c653a20636f6e7472616374206973206e6f74206960408201526a6e697469616c697a696e6760a81b606082015260800190565b808202811582820484141761093657610936614cac565b600082614d9d57634e487b7160e01b600052601260045260246000fd5b500490565b600060208284031215614db457600080fd5b815160ff811681146132b857600080fd5b60ff828116828216039081111561093657610936614cac565b600181815b80851115614e19578160001904821115614dff57614dff614cac565b80851615614e0c57918102915b93841c9390800290614de3565b509250929050565b600082614e3057506001610936565b81614e3d57506000610936565b8160018114614e535760028114614e5d57614e79565b6001915050610936565b60ff841115614e6e57614e6e614cac565b50506001821b610936565b5060208310610133831016604e8410600b8410161715614e9c575081810a610936565b614ea68383614dde565b8060001904821115614eba57614eba614cac565b029392505050565b600061093360ff841683614e21565b60008251614ee3818460208701614a3f565b919091019291505056fe426f72726f7765724f70733a20416e206f7065726174696f6e207468617420777fe8c11964bd4400688f43844e9c5ce4280a11fcd43a6dc51d31a4cc39527b2a100d2512a463b515ea8d03a69afbcc791f1bd9139132e820631bec236f524ec1a2646970667358221220a9204e69e494c8d323db2878dcb33b34ad3bbf885de7e58c1943f3d86074e25764736f6c63430008110033",
  "linkReferences": {},
  "deployedLinkReferences": {}
}