{
  "_format": "hh-sol-artifact-1",
  "contractName": "PriceFeedTester",
  "sourceName": "contracts/TestContracts/PriceFeedTester.sol",
  "abi": [
    {
      "anonymous": false,
      "inputs": [
        {
          "indexed": false,
          "internalType": "uint8",
          "name": "version",
          "type": "uint8"
        }
      ],
      "name": "Initialized",
      "type": "event"
    },
    {
      "anonymous": false,
      "inputs": [
        {
          "indexed": true,
          "internalType": "address",
          "name": "token",
          "type": "address"
        },
        {
          "indexed": false,
          "internalType": "uint256",
          "name": "_lastGoodIndex",
          "type": "uint256"
        }
      ],
      "name": "LastGoodIndexUpdated",
      "type": "event"
    },
    {
      "anonymous": false,
      "inputs": [
        {
          "indexed": true,
          "internalType": "address",
          "name": "token",
          "type": "address"
        },
        {
          "indexed": false,
          "internalType": "uint256",
          "name": "_lastGoodPrice",
          "type": "uint256"
        }
      ],
      "name": "LastGoodPriceUpdated",
      "type": "event"
    },
    {
      "anonymous": false,
      "inputs": [
        {
          "indexed": true,
          "internalType": "address",
          "name": "previousOwner",
          "type": "address"
        },
        {
          "indexed": true,
          "internalType": "address",
          "name": "newOwner",
          "type": "address"
        }
      ],
      "name": "OwnershipTransferred",
      "type": "event"
    },
    {
      "anonymous": false,
      "inputs": [
        {
          "indexed": false,
          "internalType": "enum IPriceFeed.Status",
          "name": "newStatus",
          "type": "uint8"
        }
      ],
      "name": "PriceFeedStatusChanged",
      "type": "event"
    },
    {
      "anonymous": false,
      "inputs": [
        {
          "indexed": false,
          "internalType": "address",
          "name": "token",
          "type": "address"
        },
        {
          "indexed": false,
          "internalType": "address",
          "name": "chainLinkAggregator",
          "type": "address"
        },
        {
          "indexed": false,
          "internalType": "bytes32",
          "name": "tellorId",
          "type": "bytes32"
        }
      ],
      "name": "RegisteredNewOracle",
      "type": "event"
    },
    {
      "inputs": [],
      "name": "DECIMAL_PRECISION",
      "outputs": [
        {
          "internalType": "uint256",
          "name": "",
          "type": "uint256"
        }
      ],
      "stateMutability": "view",
      "type": "function"
    },
    {
      "inputs": [],
      "name": "FLAG_ARBITRUM_SEQ_OFFLINE",
      "outputs": [
        {
          "internalType": "address",
          "name": "",
          "type": "address"
        }
      ],
      "stateMutability": "view",
      "type": "function"
    },
    {
      "inputs": [],
      "name": "MAX_PRICE_DEVIATION_FROM_PREVIOUS_ROUND",
      "outputs": [
        {
          "internalType": "uint256",
          "name": "",
          "type": "uint256"
        }
      ],
      "stateMutability": "view",
      "type": "function"
    },
    {
      "inputs": [],
      "name": "MAX_PRICE_DIFFERENCE_BETWEEN_ORACLES",
      "outputs": [
        {
          "internalType": "uint256",
          "name": "",
          "type": "uint256"
        }
      ],
      "stateMutability": "view",
      "type": "function"
    },
    {
      "inputs": [],
      "name": "NAME",
      "outputs": [
        {
          "internalType": "string",
          "name": "",
          "type": "string"
        }
      ],
      "stateMutability": "view",
      "type": "function"
    },
    {
      "inputs": [],
      "name": "TARGET_DIGITS",
      "outputs": [
        {
          "internalType": "uint256",
          "name": "",
          "type": "uint256"
        }
      ],
      "stateMutability": "view",
      "type": "function"
    },
    {
      "inputs": [],
      "name": "TELLOR_DIGITS",
      "outputs": [
        {
          "internalType": "uint256",
          "name": "",
          "type": "uint256"
        }
      ],
      "stateMutability": "view",
      "type": "function"
    },
    {
      "inputs": [],
      "name": "TIMEOUT",
      "outputs": [
        {
          "internalType": "uint256",
          "name": "",
          "type": "uint256"
        }
      ],
      "stateMutability": "view",
      "type": "function"
    },
    {
      "inputs": [
        {
          "internalType": "address",
          "name": "_token",
          "type": "address"
        },
        {
          "internalType": "address",
          "name": "_chainlinkOracle",
          "type": "address"
        },
        {
          "internalType": "bytes32",
          "name": "_tellorId",
          "type": "bytes32"
        }
      ],
      "name": "addOracle",
      "outputs": [],
      "stateMutability": "nonpayable",
      "type": "function"
    },
    {
      "inputs": [],
      "name": "adminContract",
      "outputs": [
        {
          "internalType": "address",
          "name": "",
          "type": "address"
        }
      ],
      "stateMutability": "view",
      "type": "function"
    },
    {
      "inputs": [],
      "name": "chainlinkFlags",
      "outputs": [
        {
          "internalType": "contract FlagsInterface",
          "name": "",
          "type": "address"
        }
      ],
      "stateMutability": "view",
      "type": "function"
    },
    {
      "inputs": [
        {
          "internalType": "address",
          "name": "_token",
          "type": "address"
        }
      ],
      "name": "fetchPrice",
      "outputs": [
        {
          "internalType": "uint256",
          "name": "",
          "type": "uint256"
        }
      ],
      "stateMutability": "nonpayable",
      "type": "function"
    },
    {
      "inputs": [],
      "name": "isInitialized",
      "outputs": [
        {
          "internalType": "bool",
          "name": "",
          "type": "bool"
        }
      ],
      "stateMutability": "view",
      "type": "function"
    },
    {
      "inputs": [
        {
          "internalType": "address",
          "name": "",
          "type": "address"
        }
      ],
      "name": "lastGoodPrice",
      "outputs": [
        {
          "internalType": "uint256",
          "name": "",
          "type": "uint256"
        }
      ],
      "stateMutability": "view",
      "type": "function"
    },
    {
      "inputs": [],
      "name": "owner",
      "outputs": [
        {
          "internalType": "address",
          "name": "",
          "type": "address"
        }
      ],
      "stateMutability": "view",
      "type": "function"
    },
    {
      "inputs": [
        {
          "internalType": "address",
          "name": "",
          "type": "address"
        }
      ],
      "name": "registeredOracles",
      "outputs": [
        {
          "internalType": "contract AggregatorV3Interface",
          "name": "chainLinkOracle",
          "type": "address"
        },
        {
          "internalType": "bool",
          "name": "isRegistered",
          "type": "bool"
        },
        {
          "internalType": "bytes32",
          "name": "tellorId",
          "type": "bytes32"
        }
      ],
      "stateMutability": "view",
      "type": "function"
    },
    {
      "inputs": [],
      "name": "renounceOwnership",
      "outputs": [],
      "stateMutability": "nonpayable",
      "type": "function"
    },
    {
      "inputs": [],
      "name": "sequencerUptimeFeed",
      "outputs": [
        {
          "internalType": "contract AggregatorV3Interface",
          "name": "",
          "type": "address"
        }
      ],
      "stateMutability": "view",
      "type": "function"
    },
    {
      "inputs": [
        {
          "internalType": "address",
          "name": "_sequencerUptimeFeed",
          "type": "address"
        },
        {
          "internalType": "address",
          "name": "_adminContract",
          "type": "address"
        },
        {
          "internalType": "address",
          "name": "_tellorCaller",
          "type": "address"
        }
      ],
      "name": "setAddresses",
      "outputs": [],
      "stateMutability": "nonpayable",
      "type": "function"
    },
    {
      "inputs": [
        {
          "internalType": "address",
          "name": "_admin",
          "type": "address"
        }
      ],
      "name": "setAdminContract",
      "outputs": [],
      "stateMutability": "nonpayable",
      "type": "function"
    },
    {
      "inputs": [
        {
          "internalType": "uint256",
          "name": "_lastGoodPrice",
          "type": "uint256"
        }
      ],
      "name": "setLastGoodPrice",
      "outputs": [],
      "stateMutability": "nonpayable",
      "type": "function"
    },
    {
      "inputs": [
        {
          "internalType": "enum IPriceFeed.Status",
          "name": "_status",
          "type": "uint8"
        }
      ],
      "name": "setStatus",
      "outputs": [],
      "stateMutability": "nonpayable",
      "type": "function"
    },
    {
      "inputs": [],
      "name": "status",
      "outputs": [
        {
          "internalType": "enum IPriceFeed.Status",
          "name": "",
          "type": "uint8"
        }
      ],
      "stateMutability": "view",
      "type": "function"
    },
    {
      "inputs": [],
      "name": "tellorCaller",
      "outputs": [
        {
          "internalType": "contract ITellorCaller",
          "name": "",
          "type": "address"
        }
      ],
      "stateMutability": "view",
      "type": "function"
    },
    {
      "inputs": [
        {
          "internalType": "address",
          "name": "newOwner",
          "type": "address"
        }
      ],
      "name": "transferOwnership",
      "outputs": [],
      "stateMutability": "nonpayable",
      "type": "function"
    }
  ],
  "bytecode": "0x608060405234801561001057600080fd5b5061198f806100206000396000f3fe608060405234801561001057600080fd5b50600436106101335760003560e01c80631be5c92f14610138578063200d2ed2146101535780632e49d78b1461017457806331eab82514610189578063363bf964146101bc578063392e53cd146101cf57806345079cb4146101f357806358a6aa881461020157806363a812f914610210578063715018a6146102235780637c61e3bf1461022b5780638429bbf61461023e5780638da5cb5b1461025e578063a0b79b9a14610266578063a20baee614610279578063a3f4df7e14610288578063a7264705146102bd578063ace1798e146102d0578063c05c5e94146102e3578063c521b3f5146102f6578063e4362b2314610331578063e4440e0214610393578063ebf8e6c6146103a6578063f2fde38b146103ae578063f56f48f2146103c1575b600080fd5b610140601281565b6040519081526020015b60405180910390f35b60685461016790600160a01b900460ff1681565b60405161014a9190611595565b6101876101823660046115bd565b6103ca565b005b6101a473a438451d6458044c3c8cd2f6f31c91ac882a6d9181565b6040516001600160a01b03909116815260200161014a565b6101876101ca3660046115f5565b6103f7565b6067546101e390600160a01b900460ff1681565b604051901515815260200161014a565b61014066b1a2bc2ec5000081565b6101406706f05b59d3b2000081565b61018761021e366004611638565b610599565b6101876105d6565b6067546101a4906001600160a01b031681565b61014061024c366004611638565b606a6020526000908152604090205481565b6101a46105ea565b610187610274366004611653565b6105f9565b610140670de0b6b3a764000081565b6102b060405180604001604052806009815260200168141c9a58d95199595960ba1b81525081565b60405161014a919061168f565b6066546101a4906001600160a01b031681565b6101406102de366004611638565b6107bf565b6068546101a4906001600160a01b031681565b6101876103043660046116dd565b60008052606a6020527f6021fa82de881996a3e5fd2d032f74dfe72746b8a66c5510d4ab1a3cb789150755565b61036e61033f366004611638565b606960205260009081526040902080546001909101546001600160a01b03821691600160a01b900460ff169083565b604080516001600160a01b03909416845291151560208401529082015260600161014a565b6065546101a4906001600160a01b031681565b610140600681565b6101876103bc366004611638565b610ba4565b61014061384081565b6068805482919060ff60a01b1916600160a01b8360048111156103ef576103ef61157f565b021790555050565b600054610100900460ff16158080156104175750600054600160ff909116105b806104315750303b158015610431575060005460ff166001145b6104995760405162461bcd60e51b815260206004820152602e60248201527f496e697469616c697a61626c653a20636f6e747261637420697320616c72656160448201526d191e481a5b9a5d1a585b1a5e995960921b60648201526084015b60405180910390fd5b6000805460ff1916600117905580156104bc576000805461ff0019166101001790555b606754600160a01b900460ff16156104d357600080fd5b6104dc84610c1d565b6104e583610c1d565b6104ee82610c1d565b6067805460ff60a01b1916600160a01b179055610509610cc6565b60688054606680546001600160a01b038881166001600160a01b0319928316179092556067805487841692169190911790556001600160a81b03199091169085161790558015610593576000805461ff0019169055604051600181527f7f26b83ff96e1f2b6a682f133852f6798a09c465da95921460cefb38474024989060200160405180910390a15b50505050565b6105a1610cf5565b6001600160a01b0381166105b457600080fd5b606880546001600160a01b0319166001600160a01b0392909216919091179055565b6105de610cf5565b6105e86000610d54565b565b6033546001600160a01b031690565b6106016105ea565b6001600160a01b0316336001600160a01b0316148061062a57506068546001600160a01b031633145b61066b5760405162461bcd60e51b815260206004820152601260248201527124b73b30b634b2102832b936b4b9b9b4b7b760711b6044820152606401610490565b604080516060810182526001600160a01b03808516825260016020808401828152848601878152898516600090815260699093529582209451855491511515600160a01b026001600160a81b0319909216941693909317929092178355925191909201558290806106db83610da6565b915091506106e98282610ddb565b1580156106fc57506106fa82610dfe565b155b6107615760405162461bcd60e51b815260206004820152603060248201527f5072696365466565643a20436861696e6c696e6b206d75737420626520776f7260448201526f1ada5b99c8185b990818dd5c9c995b9d60821b6064820152608401610490565b61076b8683610e21565b50604080516001600160a01b038089168252871660208201529081018590527fd3f51980d8160932f826899d422b8d5f469e0b0c5aa705b2303b68a9ddb5593f9060600160405180910390a1505050505050565b6001600160a01b03811660009081526069602052604081208054600160a01b900460ff1661082b5760405162461bcd60e51b81526020600482015260196024820152784f7261636c65206973206e6f7420726567697374657265642160381b6044820152606401610490565b80546000908190610844906001600160a01b0316610da6565b9150915060006108578460010154610e45565b6001600160a01b0387166000908152606a6020526040812054919250606854600160a01b900460ff1660048111156108915761089161157f565b036109c0576108a08484610ddb565b156108fe576108ae82610f01565b156108c7576108bd6002610f51565b9695505050505050565b6108d082610dfe565b156108df576108bd6001610f51565b6108e96001610f51565b6108f38783610fb5565b979650505050505050565b61090784610dfe565b156109465761091582610f01565b15610924576108bd6004610f51565b61092e6003610f51565b61093782610dfe565b156108e9579695505050505050565b6109508484610fc5565b1561099e5761095e82610f01565b1561096d576108bd6002610f51565b61097682610dfe565b15610985576108bd6001610f51565b61098f8483611052565b156108df576108f38785610e21565b6109a782610f01565b156109b6576109b66004610f51565b6108f38785610e21565b6001606854600160a01b900460ff1660048111156109e0576109e061157f565b03610a17576109f08484846110cb565b156109ff576109b66000610f51565b610a0882610f01565b1561092e576108bd6002610f51565b6002606854600160a01b900460ff166004811115610a3757610a3761157f565b03610a5657610a478484846110cb565b156108bd576109b66000610f51565b6003606854600160a01b900460ff166004811115610a7657610a7661157f565b03610b1b57610a858484610ddb565b15610aac57610a9382610f01565b15610aa2576108bd6002610f51565b61092e6001610f51565b610ab584610dfe565b15610ad257610ac382610f01565b1561092e576108bd6004610f51565b610adb82610f01565b15610aea576109b66004610f51565b610af382610dfe565b15610b02579695505050505050565b610b0c8483611052565b156108df576109b66000610f51565b6004606854600160a01b900460ff166004811115610b3b57610b3b61157f565b036108bd57610b4a8484610ddb565b15610b59576108bd6002610f51565b610b6284610dfe565b15610b71579695505050505050565b610b7c8484846110cb565b15610b8b576109b66000610f51565b610b958484610fc5565b156109b6576108bd6002610f51565b610bac610cf5565b6001600160a01b038116610c115760405162461bcd60e51b815260206004820152602660248201527f4f776e61626c653a206e6577206f776e657220697320746865207a65726f206160448201526564647265737360d01b6064820152608401610490565b610c1a81610d54565b50565b6001600160a01b038116610c735760405162461bcd60e51b815260206004820152601e60248201527f4163636f756e742063616e6e6f74206265207a65726f206164647265737300006044820152606401610490565b803b80610cc25760405162461bcd60e51b815260206004820181905260248201527f4163636f756e7420636f64652073697a652063616e6e6f74206265207a65726f6044820152606401610490565b5050565b600054610100900460ff16610ced5760405162461bcd60e51b8152600401610490906116f6565b6105e8611125565b33610cfe6105ea565b6001600160a01b0316146105e85760405162461bcd60e51b815260206004820181905260248201527f4f776e61626c653a2063616c6c6572206973206e6f7420746865206f776e65726044820152606401610490565b603380546001600160a01b038381166001600160a01b0319831681179093556040519116919082907f8be0079c531659141344cd1fd0a4f28419497f9722a3daafe3b4186f6b6457e090600090a35050565b610dae611551565b610db6611551565b610dbf83611155565b9150610dd4838360000151846080015161130f565b9050915091565b6000610de6836113c6565b80610df55750610df5826113c6565b90505b92915050565b6000613840610e1a83604001514261142890919063ffffffff16565b1192915050565b600080610e398360200151846080015160ff16611434565b9050610df58482611497565b60408051608081018252600080825260208201819052918101829052606081019190915281610e7357919050565b606754604051637835690560e01b8152600481018490526001600160a01b0390911690637835690590602401606060405180830381865afa925050508015610ed8575060408051601f3d908101601f19168201909252610ed591810190611741565b60015b610ee157919050565b91151583526020830152604082015260016060820152919050565b919050565b60008160600151610f1457506001919050565b60408201511580610f285750428260400151115b15610f3557506001919050565b8160200151600003610f4957506001919050565b506000919050565b6068805482919060ff60a01b1916600160a01b836004811115610f7657610f7661157f565b02179055507f5c57579a8214fe4f710c1c56fa829f045b9fa6d225a744225a30c32188064d4e81604051610faa9190611595565b60405180910390a150565b600080610e3983602001516114f0565b600080610fdd8460200151856080015160ff16611434565b90506000610ff68460200151856080015160ff16611434565b905060006110048383611513565b905060006110128484611529565b9050600061103c82611036670de0b6b3a76400006110308388611428565b90611539565b90611545565b6706f05b59d3b200001098975050505050505050565b60008061106a8460200151856080015160ff16611434565b9050600061107b84602001516114f0565b905060006110898284611513565b905060006110978385611529565b905060006110b583611036670de0b6b3a76400006110308684611428565b66b1a2bc2ec50000101598975050505050505050565b60006110d682610f01565b806110e557506110e582610dfe565b806110f557506110f58484610ddb565b80611104575061110484610dfe565b156111115750600061111e565b61111b8483611052565b90505b9392505050565b600054610100900460ff1661114c5760405162461bcd60e51b8152600401610490906116f6565b6105e833610d54565b61115d611551565b600080606660009054906101000a90046001600160a01b03166001600160a01b031663feaf968c6040518163ffffffff1660e01b815260040160a060405180830381865afa1580156111b3573d6000803e3d6000fd5b505050506040513d601f19601f820116820180604052508101906111d79190611794565b5091945092505082159050806111ef57505050919050565b60006111fb83426117fa565b9050610e10811161120f5750505050919050565b856001600160a01b031663313ce5676040518163ffffffff1660e01b8152600401602060405180830381865afa925050508015611269575060408051601f3d908101601f191682019092526112669181019061180d565b60015b6112765750505050919050565b60ff166080860152856001600160a01b031663feaf968c6040518163ffffffff1660e01b815260040160a060405180830381865afa9250505080156112d8575060408051601f3d908101601f191682019092526112d591810190611794565b60015b6112e55750505050919050565b506001600160501b0390931688525060208701526040860152505060016060840152509092915050565b611317611551565b6001600160501b0383161561111e57604051639a6fc8f560e01b81526001600160501b0360001985011660048201526001600160a01b03851690639a6fc8f59060240160a060405180830381865afa925050508015611393575060408051601f3d908101601f1916820190925261139091810190611794565b60015b1561111e57506001600160501b039093168452506020830152604082015260ff821660808201526001606082015261111e565b600081606001516113d957506001919050565b81516001600160501b03166000036113f357506001919050565b604082015115806114075750428260400151115b1561141457506001919050565b6000826020015113610f4957506001919050565b6000610df582846117fa565b600080601283106114665761145f61144d6012856117fa565b61145890600a611914565b8590611545565b9050610df5565b6012831015610df55761148f61147d8460126117fa565b61148890600a611914565b8590611539565b949350505050565b6001600160a01b0382166000818152606a602052604090819020839055517f9a696fe6a955b23852e2b245b6847dfda7d8944623d9b42628e087344ad17963906114e49084815260200190565b60405180910390a25050565b6000610df8611501600660126117fa565b61150c90600a611914565b8390611539565b60008183106115225781610df5565b5090919050565b6000818310156115225781610df5565b6000610df58284611920565b6000610df58284611937565b6040805160a08101825260008082526020820181905291810182905260608101829052608081019190915290565b634e487b7160e01b600052602160045260246000fd5b60208101600583106115b757634e487b7160e01b600052602160045260246000fd5b91905290565b6000602082840312156115cf57600080fd5b813560058110610df557600080fd5b80356001600160a01b0381168114610efc57600080fd5b60008060006060848603121561160a57600080fd5b611613846115de565b9250611621602085016115de565b915061162f604085016115de565b90509250925092565b60006020828403121561164a57600080fd5b610df5826115de565b60008060006060848603121561166857600080fd5b611671846115de565b925061167f602085016115de565b9150604084013590509250925092565b600060208083528351808285015260005b818110156116bc578581018301518582016040015282016116a0565b506000604082860101526040601f19601f8301168501019250505092915050565b6000602082840312156116ef57600080fd5b5035919050565b6020808252602b908201527f496e697469616c697a61626c653a20636f6e7472616374206973206e6f74206960408201526a6e697469616c697a696e6760a81b606082015260800190565b60008060006060848603121561175657600080fd5b8351801515811461176657600080fd5b602085015160409095015190969495509392505050565b80516001600160501b0381168114610efc57600080fd5b600080600080600060a086880312156117ac57600080fd5b6117b58661177d565b94506020860151935060408601519250606086015191506117d86080870161177d565b90509295509295909350565b634e487b7160e01b600052601160045260246000fd5b81810381811115610df857610df86117e4565b60006020828403121561181f57600080fd5b815160ff81168114610df557600080fd5b600181815b8085111561186b578160001904821115611851576118516117e4565b8085161561185e57918102915b93841c9390800290611835565b509250929050565b60008261188257506001610df8565b8161188f57506000610df8565b81600181146118a557600281146118af576118cb565b6001915050610df8565b60ff8411156118c0576118c06117e4565b50506001821b610df8565b5060208310610133831016604e8410600b84101617156118ee575081810a610df8565b6118f88383611830565b806000190482111561190c5761190c6117e4565b029392505050565b6000610df58383611873565b8082028115828204841417610df857610df86117e4565b60008261195457634e487b7160e01b600052601260045260246000fd5b50049056fea26469706673582212206c7302a425291041f4f16a6438eb836a49c51f28aa1073ac177120f71186f6c964736f6c63430008110033",
  "linkReferences": {},
  "deployedLinkReferences": {}
}