{
  "_format": "hh-sol-artifact-1",
  "contractName": "CommunityIssuance",
  "sourceName": "contracts/YOU/CommunityIssuance.sol",
  "abi": [
    {
      "anonymous": false,
      "inputs": [
        {
          "indexed": false,
          "internalType": "uint8",
          "name": "version",
          "type": "uint8"
        }
      ],
      "name": "Initialized",
      "type": "event"
    },
    {
      "anonymous": false,
      "inputs": [
        {
          "indexed": true,
          "internalType": "address",
          "name": "previousOwner",
          "type": "address"
        },
        {
          "indexed": true,
          "internalType": "address",
          "name": "newOwner",
          "type": "address"
        }
      ],
      "name": "OwnershipTransferred",
      "type": "event"
    },
    {
      "anonymous": false,
      "inputs": [
        {
          "indexed": false,
          "internalType": "address",
          "name": "_stabilityPoolAddress",
          "type": "address"
        }
      ],
      "name": "StabilityPoolAddressSet",
      "type": "event"
    },
    {
      "anonymous": false,
      "inputs": [
        {
          "indexed": true,
          "internalType": "address",
          "name": "stabilityPool",
          "type": "address"
        },
        {
          "indexed": false,
          "internalType": "uint256",
          "name": "_totalYOUIssued",
          "type": "uint256"
        }
      ],
      "name": "TotalYOUIssuedUpdated",
      "type": "event"
    },
    {
      "anonymous": false,
      "inputs": [
        {
          "indexed": false,
          "internalType": "address",
          "name": "_YOUTokenAddress",
          "type": "address"
        }
      ],
      "name": "YOUTokenAddressSet",
      "type": "event"
    },
    {
      "inputs": [],
      "name": "DECIMAL_PRECISION",
      "outputs": [
        {
          "internalType": "uint256",
          "name": "",
          "type": "uint256"
        }
      ],
      "stateMutability": "view",
      "type": "function"
    },
    {
      "inputs": [],
      "name": "DISTRIBUTION_DURATION",
      "outputs": [
        {
          "internalType": "uint256",
          "name": "",
          "type": "uint256"
        }
      ],
      "stateMutability": "view",
      "type": "function"
    },
    {
      "inputs": [],
      "name": "NAME",
      "outputs": [
        {
          "internalType": "string",
          "name": "",
          "type": "string"
        }
      ],
      "stateMutability": "view",
      "type": "function"
    },
    {
      "inputs": [],
      "name": "SECONDS_IN_ONE_MINUTE",
      "outputs": [
        {
          "internalType": "uint256",
          "name": "",
          "type": "uint256"
        }
      ],
      "stateMutability": "view",
      "type": "function"
    },
    {
      "inputs": [
        {
          "internalType": "address",
          "name": "",
          "type": "address"
        }
      ],
      "name": "YOUSupplyCaps",
      "outputs": [
        {
          "internalType": "uint256",
          "name": "",
          "type": "uint256"
        }
      ],
      "stateMutability": "view",
      "type": "function"
    },
    {
      "inputs": [
        {
          "internalType": "address",
          "name": "_pool",
          "type": "address"
        },
        {
          "internalType": "uint256",
          "name": "_assignedSupply",
          "type": "uint256"
        }
      ],
      "name": "addFundToStabilityPool",
      "outputs": [],
      "stateMutability": "nonpayable",
      "type": "function"
    },
    {
      "inputs": [
        {
          "internalType": "address",
          "name": "_pool",
          "type": "address"
        },
        {
          "internalType": "uint256",
          "name": "_assignedSupply",
          "type": "uint256"
        },
        {
          "internalType": "address",
          "name": "_spender",
          "type": "address"
        }
      ],
      "name": "addFundToStabilityPoolFrom",
      "outputs": [],
      "stateMutability": "nonpayable",
      "type": "function"
    },
    {
      "inputs": [],
      "name": "adminContract",
      "outputs": [
        {
          "internalType": "address",
          "name": "",
          "type": "address"
        }
      ],
      "stateMutability": "view",
      "type": "function"
    },
    {
      "inputs": [],
      "name": "isInitialized",
      "outputs": [
        {
          "internalType": "bool",
          "name": "",
          "type": "bool"
        }
      ],
      "stateMutability": "view",
      "type": "function"
    },
    {
      "inputs": [],
      "name": "issueYOU",
      "outputs": [
        {
          "internalType": "uint256",
          "name": "",
          "type": "uint256"
        }
      ],
      "stateMutability": "nonpayable",
      "type": "function"
    },
    {
      "inputs": [
        {
          "internalType": "address",
          "name": "",
          "type": "address"
        }
      ],
      "name": "lastUpdateTime",
      "outputs": [
        {
          "internalType": "uint256",
          "name": "",
          "type": "uint256"
        }
      ],
      "stateMutability": "view",
      "type": "function"
    },
    {
      "inputs": [],
      "name": "owner",
      "outputs": [
        {
          "internalType": "address",
          "name": "",
          "type": "address"
        }
      ],
      "stateMutability": "view",
      "type": "function"
    },
    {
      "inputs": [
        {
          "internalType": "address",
          "name": "_pool",
          "type": "address"
        },
        {
          "internalType": "uint256",
          "name": "_fundToRemove",
          "type": "uint256"
        }
      ],
      "name": "removeFundFromStabilityPool",
      "outputs": [],
      "stateMutability": "nonpayable",
      "type": "function"
    },
    {
      "inputs": [],
      "name": "renounceOwnership",
      "outputs": [],
      "stateMutability": "nonpayable",
      "type": "function"
    },
    {
      "inputs": [
        {
          "internalType": "address",
          "name": "_account",
          "type": "address"
        },
        {
          "internalType": "uint256",
          "name": "_YOUamount",
          "type": "uint256"
        }
      ],
      "name": "sendYOU",
      "outputs": [],
      "stateMutability": "nonpayable",
      "type": "function"
    },
    {
      "inputs": [
        {
          "internalType": "address",
          "name": "_youTokenAddress",
          "type": "address"
        },
        {
          "internalType": "address",
          "name": "_stabilityPoolManagerAddress",
          "type": "address"
        },
        {
          "internalType": "address",
          "name": "_adminContract",
          "type": "address"
        }
      ],
      "name": "setAddresses",
      "outputs": [],
      "stateMutability": "nonpayable",
      "type": "function"
    },
    {
      "inputs": [
        {
          "internalType": "address",
          "name": "_admin",
          "type": "address"
        }
      ],
      "name": "setAdminContract",
      "outputs": [],
      "stateMutability": "nonpayable",
      "type": "function"
    },
    {
      "inputs": [
        {
          "internalType": "address",
          "name": "_stabilityPool",
          "type": "address"
        },
        {
          "internalType": "uint256",
          "name": "_weeklyReward",
          "type": "uint256"
        }
      ],
      "name": "setWeeklyYouDistribution",
      "outputs": [],
      "stateMutability": "nonpayable",
      "type": "function"
    },
    {
      "inputs": [],
      "name": "stabilityPoolManager",
      "outputs": [
        {
          "internalType": "contract IStabilityPoolManager",
          "name": "",
          "type": "address"
        }
      ],
      "stateMutability": "view",
      "type": "function"
    },
    {
      "inputs": [
        {
          "internalType": "address",
          "name": "",
          "type": "address"
        }
      ],
      "name": "totalYOUIssued",
      "outputs": [
        {
          "internalType": "uint256",
          "name": "",
          "type": "uint256"
        }
      ],
      "stateMutability": "view",
      "type": "function"
    },
    {
      "inputs": [
        {
          "internalType": "address",
          "name": "_target",
          "type": "address"
        },
        {
          "internalType": "address",
          "name": "_receiver",
          "type": "address"
        },
        {
          "internalType": "uint256",
          "name": "_quantity",
          "type": "uint256"
        }
      ],
      "name": "transferFundToAnotherStabilityPool",
      "outputs": [],
      "stateMutability": "nonpayable",
      "type": "function"
    },
    {
      "inputs": [
        {
          "internalType": "address",
          "name": "newOwner",
          "type": "address"
        }
      ],
      "name": "transferOwnership",
      "outputs": [],
      "stateMutability": "nonpayable",
      "type": "function"
    },
    {
      "inputs": [
        {
          "internalType": "address",
          "name": "",
          "type": "address"
        }
      ],
      "name": "youDistributionsByPool",
      "outputs": [
        {
          "internalType": "uint256",
          "name": "",
          "type": "uint256"
        }
      ],
      "stateMutability": "view",
      "type": "function"
    },
    {
      "inputs": [],
      "name": "youToken",
      "outputs": [
        {
          "internalType": "contract IERC20Upgradeable",
          "name": "",
          "type": "address"
        }
      ],
      "stateMutability": "view",
      "type": "function"
    }
  ],
  "bytecode": "0x608060405234801561001057600080fd5b506119c0806100206000396000f3fe608060405234801561001057600080fd5b50600436106101285760003560e01c806317766e181461012d57806328f7fdcf146101425780632ce9aead1461015e5780632f2b4e901461017e578063363bf9641461019e578063392e53cd146101b1578063440cc8d1146101d557806361ec893d146101e857806363a812f9146101f057806367f439f2146102035780636b11ea2014610223578063715018a61461023657806373d693911461023e57806387a5e4c8146102515780638da5cb5b146102715780639f4264d114610279578063a20baee61461028c578063a2f126f01461029b578063a3f4df7e146102a3578063b3e40435146102e0578063c05c5e94146102f3578063d3b8ccf214610306578063d58cb25714610319578063f2fde38b14610339575b600080fd5b61014061013b3660046115d5565b61034c565b005b61014b61276081565b6040519081526020015b60405180910390f35b61014b61016c366004611611565b60686020526000908152604090205481565b606654610191906001600160a01b031681565b604051610155919061162c565b6101406101ac366004611640565b6103b2565b606b546101c590600160a01b900460ff1681565b6040519015158152602001610155565b6101406101e336600461167a565b6105f7565b61014b603c81565b6101406101fe366004611611565b610653565b61014b610211366004611611565b60696020526000908152604090205481565b606554610191906001600160a01b031681565b610140610690565b61014061024c36600461167a565b6106a4565b61014b61025f366004611611565b60676020526000908152604090205481565b610191610843565b61014061028736600461167a565b610852565b61014b670de0b6b3a764000081565b61014b610967565b6102d360405180604001604052806011815260200170436f6d6d756e69747949737375616e636560781b81525081565b60405161015591906116c8565b6101406102ee3660046116fb565b610a03565b606b54610191906001600160a01b031681565b61014061031436600461167a565b610b6e565b61014b610327366004611611565b606a6020526000908152604090205481565b610140610347366004611611565b610c75565b610354610843565b6001600160a01b0316336001600160a01b0316148061037d5750606b546001600160a01b031633145b6103a25760405162461bcd60e51b815260040161039990611737565b60405180910390fd5b6103ad838383610cee565b505050565b600054610100900460ff16158080156103d25750600054600160ff909116105b806103f357506103e130610e3d565b1580156103f3575060005460ff166001145b6104565760405162461bcd60e51b815260206004820152602e60248201527f496e697469616c697a61626c653a20636f6e747261637420697320616c72656160448201526d191e481a5b9a5d1a585b1a5e995960921b6064820152608401610399565b6000805460ff191660011790558015610479576000805461ff0019166101001790555b606b54600160a01b900460ff16156104c95760405162461bcd60e51b8152602060048201526013602482015272105b1c9958591e481a5b9a5d1a585b1a5e9959606a1b6044820152606401610399565b6104d284610e4c565b6104db83610e4c565b6104e482610e4c565b606b805460ff60a01b1916600160a01b1790556104ff610ef1565b606b80546001600160a01b038085166001600160a01b0319928316179092556065805487841690831617905560668054928616929091169190911790556040517fc0ad54e58fac2603ed793501ec1532822cf23a969a1cf74aedff6af2471fc5749061056c90869061162c565b60405180910390a17f45c53611bc8ba9e11f4f8173bda9e3faf89c395ddb83f9a55230b156828db315836040516105a3919061162c565b60405180910390a180156105f1576000805461ff0019169055604051600181527f7f26b83ff96e1f2b6a682f133852f6798a09c465da95921460cefb38474024989060200160405180910390a15b50505050565b6105ff610843565b6001600160a01b0316336001600160a01b031614806106285750606b546001600160a01b031633145b6106445760405162461bcd60e51b815260040161039990611737565b61064f828233610cee565b5050565b61065b610f20565b6001600160a01b03811661066e57600080fd5b606b80546001600160a01b0319166001600160a01b0392909216919091179055565b610698610f20565b6106a26000610f7f565b565b606654604051633c5f6d8f60e21b81526001600160a01b039091169063f17db63c906106d490339060040161162c565b602060405180830381865afa1580156106f1573d6000803e3d6000fd5b505050506040513d601f19601f820116820180604052508101906107159190611763565b6107315760405162461bcd60e51b81526004016103999061178c565b6065546040516370a0823160e01b81526000916001600160a01b0316906370a082319061076290309060040161162c565b602060405180830381865afa15801561077f573d6000803e3d6000fd5b505050506040513d601f19601f820116820180604052508101906107a391906117cf565b90506000828210156107b557816107b7565b825b9050806000036107c75750505050565b60655460405163a9059cbb60e01b81526001600160a01b039091169063a9059cbb906107f990879085906004016117e8565b6020604051808303816000875af1158015610818573d6000803e3d6000fd5b505050506040513d601f19601f8201168201806040525081019061083c9190611763565b5050505050565b6033546001600160a01b031690565b61085a610f20565b6001600160a01b0382166000908152606860205260408120548391036108925760405162461bcd60e51b815260040161039990611801565b6001600160a01b0383166000908152606960205260408120546108b59084610fd1565b6001600160a01b0385166000908152606760205260409020549091508110156108f05760405162461bcd60e51b815260040161039990611851565b6001600160a01b038416600090815260696020526040812080548592906109189084906118c4565b90915550506001600160a01b038416600090815260696020908152604080832054606790925290912054036109505761095084610fe6565b6065546105f1906001600160a01b03163385611017565b606654604051633c5f6d8f60e21b81526000916001600160a01b03169063f17db63c9061099890339060040161162c565b602060405180830381865afa1580156109b5573d6000803e3d6000fd5b505050506040513d601f19601f820116820180604052508101906109d99190611763565b6109f55760405162461bcd60e51b81526004016103999061178c565b6109fe3361106d565b905090565b610a0b610f20565b6001600160a01b038316600090815260686020526040812054849103610a435760405162461bcd60e51b815260040161039990611801565b6001600160a01b038316600090815260686020526040812054849103610a7b5760405162461bcd60e51b815260040161039990611801565b6001600160a01b038516600090815260696020526040812054610a9e9085610fd1565b6001600160a01b038716600090815260676020526040902054909150811015610ad95760405162461bcd60e51b815260040161039990611851565b6001600160a01b03861660009081526069602052604081208054869290610b019084906118c4565b90915550506001600160a01b03851660009081526069602052604081208054869290610b2e9084906118d7565b90915550506001600160a01b03861660009081526069602090815260408083205460679092529091205403610b6657610b6686610fe6565b505050505050565b610b76610843565b6001600160a01b0316336001600160a01b03161480610b9f5750606b546001600160a01b031633145b610bbb5760405162461bcd60e51b815260040161039990611737565b606654604051633c5f6d8f60e21b815283916001600160a01b03169063f17db63c90610beb90849060040161162c565b602060405180830381865afa158015610c08573d6000803e3d6000fd5b505050506040513d601f19601f82011682018060405250810190610c2c9190611763565b610c485760405162461bcd60e51b81526004016103999061178c565b610c54826127606111ff565b6001600160a01b039093166000908152606a60205260409020929092555050565b610c7d610f20565b6001600160a01b038116610ce25760405162461bcd60e51b815260206004820152602660248201527f4f776e61626c653a206e6577206f776e657220697320746865207a65726f206160448201526564647265737360d01b6064820152608401610399565b610ceb81610f7f565b50565b606654604051633c5f6d8f60e21b81526001600160a01b039091169063f17db63c90610d1e90869060040161162c565b602060405180830381865afa158015610d3b573d6000803e3d6000fd5b505050506040513d601f19601f82011682018060405250810190610d5f9190611763565b610dbd5760405162461bcd60e51b815260206004820152602960248201527f436f6d6d756e69747949737375616e63653a20496e76616c69642053746162696044820152681b1a5d1e48141bdbdb60ba1b6064820152608401610399565b6001600160a01b0383166000908152606860205260408120549003610df8576001600160a01b03831660009081526068602052604090204290555b6001600160a01b03831660009081526069602052604081208054849290610e209084906118d7565b90915550506065546103ad906001600160a01b031682308561120b565b6001600160a01b03163b151590565b6001600160a01b038116610ea25760405162461bcd60e51b815260206004820152601e60248201527f4163636f756e742063616e6e6f74206265207a65726f206164647265737300006044820152606401610399565b803b8061064f5760405162461bcd60e51b815260206004820181905260248201527f4163636f756e7420636f64652073697a652063616e6e6f74206265207a65726f6044820152606401610399565b600054610100900460ff16610f185760405162461bcd60e51b8152600401610399906118ea565b6106a2611243565b33610f29610843565b6001600160a01b0316146106a25760405162461bcd60e51b815260206004820181905260248201527f4f776e61626c653a2063616c6c6572206973206e6f7420746865206f776e65726044820152606401610399565b603380546001600160a01b038381166001600160a01b0319831681179093556040519116919082907f8be0079c531659141344cd1fd0a4f28419497f9722a3daafe3b4186f6b6457e090600090a35050565b6000610fdd82846118c4565b90505b92915050565b6001600160a01b03166000908152606860209081526040808320839055606982528083208390556067909152812055565b6103ad8363a9059cbb60e01b84846040516024016110369291906117e8565b60408051601f198184030181529190526020810180516001600160e01b03166001600160e01b031990931692909217909152611273565b606654604051633c5f6d8f60e21b815260009183916001600160a01b039091169063f17db63c906110a290849060040161162c565b602060405180830381865afa1580156110bf573d6000803e3d6000fd5b505050506040513d601f19601f820116820180604052508101906110e39190611763565b6110ff5760405162461bcd60e51b81526004016103999061178c565b6001600160a01b03831660009081526069602090815260408083205460679092529091205481116111345760009250506111f9565b600061113f85611348565b6001600160a01b0386166000908152606760205260408120549192509061116790839061141b565b90508281111561119b576001600160a01b038616600090815260676020526040902054611195908490610fd1565b91508290505b6001600160a01b0386166000818152606860209081526040808320429055606782529182902084905590518381527fa5a53002f1de20fe5b5dbaddbbaf8ef13eea09aaeb95f5236a58f0fef11d6bf0910160405180910390a2509250505b50919050565b6000610fdd8284611935565b6040516001600160a01b03808516602483015283166044820152606481018290526105f19085906323b872dd60e01b90608401611036565b600054610100900460ff1661126a5760405162461bcd60e51b8152600401610399906118ea565b6106a233610f7f565b60006112c8826040518060400160405280602081526020017f5361666545524332303a206c6f772d6c6576656c2063616c6c206661696c6564815250856001600160a01b03166114279092919063ffffffff16565b90508051600014806112e95750808060200190518101906112e99190611763565b6103ad5760405162461bcd60e51b815260206004820152602a60248201527f5361666545524332303a204552433230206f7065726174696f6e20646964206e6044820152691bdd081cdd58d8d9595960b21b6064820152608401610399565b6001600160a01b03811660009081526068602052604081205481036113bb5760405162461bcd60e51b815260206004820152602360248201527f53746162696c69747920706f6f6c206861736e2774206265656e2061737369676044820152621b995960ea1b6064820152608401610399565b6001600160a01b0382166000908152606860205260408120546113ec90603c906113e6904290610fd1565b906111ff565b6001600160a01b0384166000908152606a6020526040812054919250906114139083611436565b949350505050565b6000610fdd82846118d7565b60606114138484600085611442565b6000610fdd8284611957565b6060824710156114a35760405162461bcd60e51b815260206004820152602660248201527f416464726573733a20696e73756666696369656e742062616c616e636520666f6044820152651c8818d85b1b60d21b6064820152608401610399565b600080866001600160a01b031685876040516114bf919061196e565b60006040518083038185875af1925050503d80600081146114fc576040519150601f19603f3d011682016040523d82523d6000602084013e611501565b606091505b50915091506115128783838761151d565b979650505050505050565b6060831561158a5782516000036115835761153785610e3d565b6115835760405162461bcd60e51b815260206004820152601d60248201527f416464726573733a2063616c6c20746f206e6f6e2d636f6e74726163740000006044820152606401610399565b5081611413565b611413838381511561159f5781518083602001fd5b8060405162461bcd60e51b815260040161039991906116c8565b80356001600160a01b03811681146115d057600080fd5b919050565b6000806000606084860312156115ea57600080fd5b6115f3846115b9565b925060208401359150611608604085016115b9565b90509250925092565b60006020828403121561162357600080fd5b610fdd826115b9565b6001600160a01b0391909116815260200190565b60008060006060848603121561165557600080fd5b61165e846115b9565b925061166c602085016115b9565b9150611608604085016115b9565b6000806040838503121561168d57600080fd5b611696836115b9565b946020939093013593505050565b60005b838110156116bf5781810151838201526020016116a7565b50506000910152565b60208152600082518060208401526116e78160408501602087016116a4565b601f01601f19169190910160400192915050565b60008060006060848603121561171057600080fd5b611719846115b9565b9250611727602085016115b9565b9150604084013590509250925092565b60208082526012908201527124b73b30b634b2102832b936b4b9b9b4b7b760711b604082015260600190565b60006020828403121561177557600080fd5b8151801515811461178557600080fd5b9392505050565b60208082526023908201527f436f6d6d756e69747949737375616e63653a2063616c6c6572206973206e6f7460408201526202053560ec1b606082015260800190565b6000602082840312156117e157600080fd5b5051919050565b6001600160a01b03929092168252602082015260400190565b60208082526030908201527f436f6d6d756e69747949737375616e63653a20506f6f6c206e6565647320746f60408201526f1031329030b23232b2103334b939ba1760811b606082015260800190565b6020808252603d908201527f436f6d6d756e69747949737375616e63653a2053746162696c69747920506f6f60408201527f6c20646f65736e2774206861766520656e6f75676820737570706c792e000000606082015260800190565b634e487b7160e01b600052601160045260246000fd5b81810381811115610fe057610fe06118ae565b80820180821115610fe057610fe06118ae565b6020808252602b908201527f496e697469616c697a61626c653a20636f6e7472616374206973206e6f74206960408201526a6e697469616c697a696e6760a81b606082015260800190565b60008261195257634e487b7160e01b600052601260045260246000fd5b500490565b8082028115828204841417610fe057610fe06118ae565b600082516119808184602087016116a4565b919091019291505056fea26469706673582212202cb8010dc172439ad5fd8c3e8a3ed60b7b2629dd207f8e2435a644964841217964736f6c63430008110033",
  "linkReferences": {},
  "deployedLinkReferences": {}
}