{
  "_format": "hh-sol-artifact-1",
  "contractName": "FunctionCaller",
  "sourceName": "contracts/TestContracts/FunctionCaller.sol",
  "abi": [
    {
      "inputs": [],
      "name": "priceFeedAddress",
      "outputs": [
        {
          "internalType": "address",
          "name": "",
          "type": "address"
        }
      ],
      "stateMutability": "view",
      "type": "function"
    },
    {
      "inputs": [
        {
          "internalType": "address",
          "name": "_priceFeedAddress",
          "type": "address"
        }
      ],
      "name": "setPriceFeedAddress",
      "outputs": [],
      "stateMutability": "nonpayable",
      "type": "function"
    },
    {
      "inputs": [
        {
          "internalType": "address",
          "name": "_sortedTrovesAddress",
          "type": "address"
        }
      ],
      "name": "setSortedTrovesAddress",
      "outputs": [],
      "stateMutability": "nonpayable",
      "type": "function"
    },
    {
      "inputs": [
        {
          "internalType": "address",
          "name": "_troveManagerAddress",
          "type": "address"
        }
      ],
      "name": "setTroveManagerAddress",
      "outputs": [],
      "stateMutability": "nonpayable",
      "type": "function"
    },
    {
      "inputs": [],
      "name": "sortedTrovesAddress",
      "outputs": [
        {
          "internalType": "address",
          "name": "",
          "type": "address"
        }
      ],
      "stateMutability": "view",
      "type": "function"
    },
    {
      "inputs": [
        {
          "internalType": "address",
          "name": "_asset",
          "type": "address"
        },
        {
          "internalType": "uint256",
          "name": "_NICR",
          "type": "uint256"
        },
        {
          "internalType": "address",
          "name": "_prevId",
          "type": "address"
        },
        {
          "internalType": "address",
          "name": "_nextId",
          "type": "address"
        }
      ],
      "name": "sortedTroves_findInsertPosition",
      "outputs": [
        {
          "internalType": "address",
          "name": "",
          "type": "address"
        },
        {
          "internalType": "address",
          "name": "",
          "type": "address"
        }
      ],
      "stateMutability": "view",
      "type": "function"
    },
    {
      "inputs": [],
      "name": "troveManagerAddress",
      "outputs": [
        {
          "internalType": "address",
          "name": "",
          "type": "address"
        }
      ],
      "stateMutability": "view",
      "type": "function"
    },
    {
      "inputs": [
        {
          "internalType": "address",
          "name": "_asset",
          "type": "address"
        },
        {
          "internalType": "address",
          "name": "_address",
          "type": "address"
        },
        {
          "internalType": "uint256",
          "name": "_price",
          "type": "uint256"
        }
      ],
      "name": "troveManager_getCurrentICR",
      "outputs": [
        {
          "internalType": "uint256",
          "name": "",
          "type": "uint256"
        }
      ],
      "stateMutability": "view",
      "type": "function"
    }
  ],
  "bytecode": "0x608060405234801561001057600080fd5b5061044a806100206000396000f3fe608060405234801561001057600080fd5b50600436106100775760003560e01c8062cf5db41461007c5780632caffa81146100b85780635947185b146100e85780635a4d28bb14610109578063a06dec711461011c578063ced2027c14610156578063e0abca0b14610190578063f1f89cab146101a3575b600080fd5b6100b661008a366004610309565b600580546001600160a01b039092166001600160a01b0319928316811790915560048054909216179055565b005b6003546100cb906001600160a01b031681565b6040516001600160a01b0390911681526020015b60405180910390f35b6100fb6100f636600461032d565b6101d6565b6040519081526020016100df565b6001546100cb906001600160a01b031681565b6100b661012a366004610309565b600180546001600160a01b039092166001600160a01b0319928316811790915560028054909216179055565b6100b6610164366004610309565b600180546001600160a01b039092166001600160a01b0319928316811790915560008054909216179055565b6005546100cb906001600160a01b031681565b6101b66101b136600461036e565b61025c565b604080516001600160a01b039384168152929091166020830152016100df565b6000805460405163b1eafaab60e01b81526001600160a01b0386811660048301528581166024830152604482018590529091169063b1eafaab90606401602060405180830381865afa158015610230573d6000803e3d6000fd5b505050506040513d601f19601f8201168201806040525081019061025491906103c1565b949350505050565b600254604051632ffcd97160e21b81526001600160a01b0386811660048301526024820186905284811660448301528381166064830152600092839291169063bff365c4906084016040805180830381865afa1580156102c0573d6000803e3d6000fd5b505050506040513d601f19601f820116820180604052508101906102e491906103da565b9150915094509492505050565b6001600160a01b038116811461030657600080fd5b50565b60006020828403121561031b57600080fd5b8135610326816102f1565b9392505050565b60008060006060848603121561034257600080fd5b833561034d816102f1565b9250602084013561035d816102f1565b929592945050506040919091013590565b6000806000806080858703121561038457600080fd5b843561038f816102f1565b93506020850135925060408501356103a6816102f1565b915060608501356103b6816102f1565b939692955090935050565b6000602082840312156103d357600080fd5b5051919050565b600080604083850312156103ed57600080fd5b82516103f8816102f1565b6020840151909250610409816102f1565b80915050925092905056fea2646970667358221220c07a04d6062d4aede39914b1013847c96b7891d0c273a2ba840819478a7a7a9264736f6c63430008110033",
  "linkReferences": {},
  "deployedLinkReferences": {}
}