{
  "_format": "hh-sol-artifact-1",
  "contractName": "VestaMathTester",
  "sourceName": "contracts/TestContracts/VestaMathTester.sol",
  "abi": [
    {
      "inputs": [
        {
          "internalType": "uint256",
          "name": "_base",
          "type": "uint256"
        },
        {
          "internalType": "uint256",
          "name": "_n",
          "type": "uint256"
        }
      ],
      "name": "callDecPow",
      "outputs": [
        {
          "internalType": "uint256",
          "name": "",
          "type": "uint256"
        }
      ],
      "stateMutability": "pure",
      "type": "function"
    },
    {
      "inputs": [
        {
          "internalType": "uint256",
          "name": "_base",
          "type": "uint256"
        },
        {
          "internalType": "uint256",
          "name": "_n",
          "type": "uint256"
        }
      ],
      "name": "callDecPowTx",
      "outputs": [
        {
          "internalType": "uint256",
          "name": "",
          "type": "uint256"
        }
      ],
      "stateMutability": "pure",
      "type": "function"
    },
    {
      "inputs": [
        {
          "internalType": "uint256",
          "name": "_a",
          "type": "uint256"
        },
        {
          "internalType": "uint256",
          "name": "_b",
          "type": "uint256"
        }
      ],
      "name": "callMax",
      "outputs": [
        {
          "internalType": "uint256",
          "name": "",
          "type": "uint256"
        }
      ],
      "stateMutability": "pure",
      "type": "function"
    }
  ],
  "bytecode": "0x608060405234801561001057600080fd5b506102ba806100206000396000f3fe608060405234801561001057600080fd5b50600436106100405760003560e01c8062fa72ff1461004557806336090b011461006a578063d407725214610045575b600080fd5b6100586100533660046101d1565b61007d565b60405190815260200160405180910390f35b6100586100783660046101d1565b610092565b6000610089838361009e565b90505b92915050565b60006100898383610152565b6000631f5405008211156100b457631f54050091505b816000036100cb5750670de0b6b3a764000061008c565b670de0b6b3a764000083835b600181111561013e576100eb600282610209565b600003610110576100fc8283610169565b91506101098160026101a1565b90506100d7565b61011a8284610169565b92506101268283610169565b915061010960026101388360016101ad565b906101a1565b6101488284610169565b9695505050505050565b6000818310156101625781610089565b5090919050565b60008061017684846101b9565b9050610199670de0b6b3a7640000610138610192600283610233565b84906101c5565b949350505050565b60006100898284610233565b60006100898284610247565b6000610089828461025a565b60006100898284610271565b600080604083850312156101e457600080fd5b50508035926020909101359150565b634e487b7160e01b600052601260045260246000fd5b600082610218576102186101f3565b500690565b634e487b7160e01b600052601160045260246000fd5b600082610242576102426101f3565b500490565b8181038181111561008c5761008c61021d565b808202811582820484141761008c5761008c61021d565b8082018082111561008c5761008c61021d56fea2646970667358221220d72df6eba6ebe228176e6215ad16e0f47122a64396731b7f3bf4b5f8a91d176464736f6c63430008110033",
  "linkReferences": {},
  "deployedLinkReferences": {}
}