{
  "_format": "hh-sol-artifact-1",
  "contractName": "YOUStaking",
  "sourceName": "contracts/YOU/YOUStaking.sol",
  "abi": [
    {
      "anonymous": false,
      "inputs": [
        {
          "indexed": false,
          "internalType": "address",
          "name": "_activePoolAddress",
          "type": "address"
        }
      ],
      "name": "ActivePoolAddressSet",
      "type": "event"
    },
    {
      "anonymous": false,
      "inputs": [
        {
          "indexed": true,
          "internalType": "address",
          "name": "_asset",
          "type": "address"
        },
        {
          "indexed": true,
          "internalType": "address",
          "name": "_account",
          "type": "address"
        },
        {
          "indexed": false,
          "internalType": "uint256",
          "name": "_amount",
          "type": "uint256"
        }
      ],
      "name": "AssetSent",
      "type": "event"
    },
    {
      "anonymous": false,
      "inputs": [
        {
          "indexed": false,
          "internalType": "address",
          "name": "_borrowerOperationsAddress",
          "type": "address"
        }
      ],
      "name": "BorrowerOperationsAddressSet",
      "type": "event"
    },
    {
      "anonymous": false,
      "inputs": [
        {
          "indexed": true,
          "internalType": "address",
          "name": "_asset",
          "type": "address"
        },
        {
          "indexed": false,
          "internalType": "uint256",
          "name": "_F_ASSET",
          "type": "uint256"
        }
      ],
      "name": "F_AssetUpdated",
      "type": "event"
    },
    {
      "anonymous": false,
      "inputs": [
        {
          "indexed": false,
          "internalType": "uint256",
          "name": "_F_U",
          "type": "uint256"
        }
      ],
      "name": "F_UUpdated",
      "type": "event"
    },
    {
      "anonymous": false,
      "inputs": [
        {
          "indexed": false,
          "internalType": "uint8",
          "name": "version",
          "type": "uint8"
        }
      ],
      "name": "Initialized",
      "type": "event"
    },
    {
      "anonymous": false,
      "inputs": [
        {
          "indexed": true,
          "internalType": "address",
          "name": "previousOwner",
          "type": "address"
        },
        {
          "indexed": true,
          "internalType": "address",
          "name": "newOwner",
          "type": "address"
        }
      ],
      "name": "OwnershipTransferred",
      "type": "event"
    },
    {
      "anonymous": false,
      "inputs": [
        {
          "indexed": false,
          "internalType": "address",
          "name": "account",
          "type": "address"
        }
      ],
      "name": "Paused",
      "type": "event"
    },
    {
      "anonymous": false,
      "inputs": [
        {
          "indexed": true,
          "internalType": "address",
          "name": "_asset",
          "type": "address"
        },
        {
          "indexed": false,
          "internalType": "uint256",
          "name": "_amount",
          "type": "uint256"
        }
      ],
      "name": "SentToTreasury",
      "type": "event"
    },
    {
      "anonymous": false,
      "inputs": [
        {
          "indexed": true,
          "internalType": "address",
          "name": "staker",
          "type": "address"
        },
        {
          "indexed": false,
          "internalType": "uint256",
          "name": "newStake",
          "type": "uint256"
        }
      ],
      "name": "StakeChanged",
      "type": "event"
    },
    {
      "anonymous": false,
      "inputs": [
        {
          "indexed": false,
          "internalType": "address",
          "name": "_staker",
          "type": "address"
        },
        {
          "indexed": false,
          "internalType": "uint256",
          "name": "_F_Asset",
          "type": "uint256"
        },
        {
          "indexed": false,
          "internalType": "uint256",
          "name": "_F_U",
          "type": "uint256"
        }
      ],
      "name": "StakerSnapshotsUpdated",
      "type": "event"
    },
    {
      "anonymous": false,
      "inputs": [
        {
          "indexed": true,
          "internalType": "address",
          "name": "staker",
          "type": "address"
        },
        {
          "indexed": true,
          "internalType": "address",
          "name": "asset",
          "type": "address"
        },
        {
          "indexed": false,
          "internalType": "uint256",
          "name": "AssetGain",
          "type": "uint256"
        }
      ],
      "name": "StakingGainsAssetWithdrawn",
      "type": "event"
    },
    {
      "anonymous": false,
      "inputs": [
        {
          "indexed": true,
          "internalType": "address",
          "name": "staker",
          "type": "address"
        },
        {
          "indexed": false,
          "internalType": "uint256",
          "name": "UGain",
          "type": "uint256"
        }
      ],
      "name": "StakingGainsUWithdrawn",
      "type": "event"
    },
    {
      "anonymous": false,
      "inputs": [
        {
          "indexed": false,
          "internalType": "uint256",
          "name": "_totalYOUStaked",
          "type": "uint256"
        }
      ],
      "name": "TotalYOUStakedUpdated",
      "type": "event"
    },
    {
      "anonymous": false,
      "inputs": [
        {
          "indexed": false,
          "internalType": "address",
          "name": "_treausury",
          "type": "address"
        }
      ],
      "name": "TreasuryAddressChanged",
      "type": "event"
    },
    {
      "anonymous": false,
      "inputs": [
        {
          "indexed": false,
          "internalType": "address",
          "name": "_troveManager",
          "type": "address"
        }
      ],
      "name": "TroveManagerAddressSet",
      "type": "event"
    },
    {
      "anonymous": false,
      "inputs": [
        {
          "indexed": false,
          "internalType": "address",
          "name": "_uTokenAddress",
          "type": "address"
        }
      ],
      "name": "UTokenAddressSet",
      "type": "event"
    },
    {
      "anonymous": false,
      "inputs": [
        {
          "indexed": false,
          "internalType": "address",
          "name": "account",
          "type": "address"
        }
      ],
      "name": "Unpaused",
      "type": "event"
    },
    {
      "anonymous": false,
      "inputs": [
        {
          "indexed": false,
          "internalType": "address",
          "name": "_YOUTokenAddress",
          "type": "address"
        }
      ],
      "name": "YOUTokenAddressSet",
      "type": "event"
    },
    {
      "inputs": [],
      "name": "DECIMAL_PRECISION",
      "outputs": [
        {
          "internalType": "uint256",
          "name": "",
          "type": "uint256"
        }
      ],
      "stateMutability": "view",
      "type": "function"
    },
    {
      "inputs": [
        {
          "internalType": "address",
          "name": "",
          "type": "address"
        }
      ],
      "name": "F_ASSETS",
      "outputs": [
        {
          "internalType": "uint256",
          "name": "",
          "type": "uint256"
        }
      ],
      "stateMutability": "view",
      "type": "function"
    },
    {
      "inputs": [],
      "name": "F_U",
      "outputs": [
        {
          "internalType": "uint256",
          "name": "",
          "type": "uint256"
        }
      ],
      "stateMutability": "view",
      "type": "function"
    },
    {
      "inputs": [],
      "name": "NAME",
      "outputs": [
        {
          "internalType": "string",
          "name": "",
          "type": "string"
        }
      ],
      "stateMutability": "view",
      "type": "function"
    },
    {
      "inputs": [],
      "name": "activePoolAddress",
      "outputs": [
        {
          "internalType": "address",
          "name": "",
          "type": "address"
        }
      ],
      "stateMutability": "view",
      "type": "function"
    },
    {
      "inputs": [],
      "name": "borrowerOperationsAddress",
      "outputs": [
        {
          "internalType": "address",
          "name": "",
          "type": "address"
        }
      ],
      "stateMutability": "view",
      "type": "function"
    },
    {
      "inputs": [
        {
          "internalType": "address",
          "name": "_treasury",
          "type": "address"
        }
      ],
      "name": "changeTreasuryAddress",
      "outputs": [],
      "stateMutability": "nonpayable",
      "type": "function"
    },
    {
      "inputs": [
        {
          "internalType": "address",
          "name": "_asset",
          "type": "address"
        },
        {
          "internalType": "address",
          "name": "_user",
          "type": "address"
        }
      ],
      "name": "getPendingAssetGain",
      "outputs": [
        {
          "internalType": "uint256",
          "name": "",
          "type": "uint256"
        }
      ],
      "stateMutability": "view",
      "type": "function"
    },
    {
      "inputs": [
        {
          "internalType": "address",
          "name": "_user",
          "type": "address"
        }
      ],
      "name": "getPendingUGain",
      "outputs": [
        {
          "internalType": "uint256",
          "name": "",
          "type": "uint256"
        }
      ],
      "stateMutability": "view",
      "type": "function"
    },
    {
      "inputs": [
        {
          "internalType": "address",
          "name": "_asset",
          "type": "address"
        },
        {
          "internalType": "uint256",
          "name": "_AssetFee",
          "type": "uint256"
        }
      ],
      "name": "increaseF_Asset",
      "outputs": [],
      "stateMutability": "nonpayable",
      "type": "function"
    },
    {
      "inputs": [
        {
          "internalType": "uint256",
          "name": "_UFee",
          "type": "uint256"
        }
      ],
      "name": "increaseF_U",
      "outputs": [],
      "stateMutability": "nonpayable",
      "type": "function"
    },
    {
      "inputs": [],
      "name": "isInitialized",
      "outputs": [
        {
          "internalType": "bool",
          "name": "",
          "type": "bool"
        }
      ],
      "stateMutability": "view",
      "type": "function"
    },
    {
      "inputs": [],
      "name": "owner",
      "outputs": [
        {
          "internalType": "address",
          "name": "",
          "type": "address"
        }
      ],
      "stateMutability": "view",
      "type": "function"
    },
    {
      "inputs": [],
      "name": "pause",
      "outputs": [],
      "stateMutability": "nonpayable",
      "type": "function"
    },
    {
      "inputs": [],
      "name": "paused",
      "outputs": [
        {
          "internalType": "bool",
          "name": "",
          "type": "bool"
        }
      ],
      "stateMutability": "view",
      "type": "function"
    },
    {
      "inputs": [],
      "name": "renounceOwnership",
      "outputs": [],
      "stateMutability": "nonpayable",
      "type": "function"
    },
    {
      "inputs": [
        {
          "internalType": "address",
          "name": "",
          "type": "address"
        }
      ],
      "name": "sentToTreasuryTracker",
      "outputs": [
        {
          "internalType": "uint256",
          "name": "",
          "type": "uint256"
        }
      ],
      "stateMutability": "view",
      "type": "function"
    },
    {
      "inputs": [
        {
          "internalType": "address",
          "name": "_youTokenAddress",
          "type": "address"
        },
        {
          "internalType": "address",
          "name": "_uTokenAddress",
          "type": "address"
        },
        {
          "internalType": "address",
          "name": "_troveManagerAddress",
          "type": "address"
        },
        {
          "internalType": "address",
          "name": "_borrowerOperationsAddress",
          "type": "address"
        },
        {
          "internalType": "address",
          "name": "_activePoolAddress",
          "type": "address"
        },
        {
          "internalType": "address",
          "name": "_treasury",
          "type": "address"
        }
      ],
      "name": "setAddresses",
      "outputs": [],
      "stateMutability": "nonpayable",
      "type": "function"
    },
    {
      "inputs": [
        {
          "internalType": "address",
          "name": "",
          "type": "address"
        }
      ],
      "name": "snapshots",
      "outputs": [
        {
          "internalType": "uint256",
          "name": "F_U_Snapshot",
          "type": "uint256"
        }
      ],
      "stateMutability": "view",
      "type": "function"
    },
    {
      "inputs": [
        {
          "internalType": "uint256",
          "name": "_YOUamount",
          "type": "uint256"
        }
      ],
      "name": "stake",
      "outputs": [],
      "stateMutability": "nonpayable",
      "type": "function"
    },
    {
      "inputs": [
        {
          "internalType": "address",
          "name": "",
          "type": "address"
        }
      ],
      "name": "stakes",
      "outputs": [
        {
          "internalType": "uint256",
          "name": "",
          "type": "uint256"
        }
      ],
      "stateMutability": "view",
      "type": "function"
    },
    {
      "inputs": [],
      "name": "totalYOUStaked",
      "outputs": [
        {
          "internalType": "uint256",
          "name": "",
          "type": "uint256"
        }
      ],
      "stateMutability": "view",
      "type": "function"
    },
    {
      "inputs": [
        {
          "internalType": "address",
          "name": "newOwner",
          "type": "address"
        }
      ],
      "name": "transferOwnership",
      "outputs": [],
      "stateMutability": "nonpayable",
      "type": "function"
    },
    {
      "inputs": [],
      "name": "treasury",
      "outputs": [
        {
          "internalType": "address",
          "name": "",
          "type": "address"
        }
      ],
      "stateMutability": "view",
      "type": "function"
    },
    {
      "inputs": [],
      "name": "troveManagerAddress",
      "outputs": [
        {
          "internalType": "address",
          "name": "",
          "type": "address"
        }
      ],
      "stateMutability": "view",
      "type": "function"
    },
    {
      "inputs": [],
      "name": "uToken",
      "outputs": [
        {
          "internalType": "contract IERC20Upgradeable",
          "name": "",
          "type": "address"
        }
      ],
      "stateMutability": "view",
      "type": "function"
    },
    {
      "inputs": [],
      "name": "unpause",
      "outputs": [],
      "stateMutability": "nonpayable",
      "type": "function"
    },
    {
      "inputs": [
        {
          "internalType": "uint256",
          "name": "_YOUamount",
          "type": "uint256"
        }
      ],
      "name": "unstake",
      "outputs": [],
      "stateMutability": "nonpayable",
      "type": "function"
    },
    {
      "inputs": [],
      "name": "youToken",
      "outputs": [
        {
          "internalType": "contract IERC20Upgradeable",
          "name": "",
          "type": "address"
        }
      ],
      "stateMutability": "view",
      "type": "function"
    },
    {
      "stateMutability": "payable",
      "type": "receive"
    }
  ],
  "bytecode": "0x608060405234801561001057600080fd5b506121d0806100206000396000f3fe6080604052600436106101565760003560e01c8063122581e6146101cd57806316934fc4146101ed5780632e17de781461022d5780632ffbaa551461024d57806334b3081f1461026d5780633522c6e81461029d578063392e53cd146102bd5780633f4ba83a146102e75780634438c951146102fc5780635a4d28bb146103125780635c975abb1461033f57806361d027b31461035757806363315637146103775780636b11ea20146103975780636cfb6bf9146103b7578063715018a6146103d75780638174a5f2146103ec5780638456cb5914610419578063852cdece1461042e5780638da5cb5b1461044e578063955d3ca414610463578063a20baee614610490578063a3f4df7e146104ac578063a694fc3a146104ef578063a6f353f01461050f578063b08bc7221461052f578063b7f8cf9b1461054f578063e9be48f81461056f578063f2fde38b1461058557600080fd5b366101c85760d6546001600160a01b031633146101c65760405162461bcd60e51b8152602060048201526024808201527f594f555374616b696e673a2063616c6c6572206973206e6f7420416374697665604482015263141bdbdb60e21b60648201526084015b60405180910390fd5b005b600080fd5b3480156101d957600080fd5b506101c66101e8366004611cf5565b6105a5565b3480156101f957600080fd5b5061021a610208366004611d1f565b60ca6020526000908152604090205481565b6040519081526020015b60405180910390f35b34801561023957600080fd5b506101c6610248366004611d3a565b610737565b34801561025957600080fd5b5061021a610268366004611d1f565b6109b7565b34801561027957600080fd5b5061021a610288366004611d1f565b60ce6020526000908152604090206001015481565b3480156102a957600080fd5b5061021a6102b8366004611d53565b6109c8565b3480156102c957600080fd5b5060c9546102d79060ff1681565b6040519015158152602001610224565b3480156102f357600080fd5b506101c66109db565b34801561030857600080fd5b5061021a60cb5481565b34801561031e57600080fd5b5060d454610332906001600160a01b031681565b6040516102249190611d86565b34801561034b57600080fd5b5060335460ff166102d7565b34801561036357600080fd5b5060d754610332906001600160a01b031681565b34801561038357600080fd5b5060d354610332906001600160a01b031681565b3480156103a357600080fd5b5060d254610332906001600160a01b031681565b3480156103c357600080fd5b506101c66103d2366004611d9a565b6109ed565b3480156103e357600080fd5b506101c6610da0565b3480156103f857600080fd5b5061021a610407366004611d1f565b60cc6020526000908152604090205481565b34801561042557600080fd5b506101c6610db2565b34801561043a57600080fd5b506101c6610449366004611d3a565b610dc2565b34801561045a57600080fd5b50610332610ebc565b34801561046f57600080fd5b5061021a61047e366004611d1f565b60d16020526000908152604090205481565b34801561049c57600080fd5b5061021a670de0b6b3a764000081565b3480156104b857600080fd5b506104e26040518060400160405280600a815260200169594f555374616b696e6760b01b81525081565b6040516102249190611e32565b3480156104fb57600080fd5b506101c661050a366004611d3a565b610ecb565b34801561051b57600080fd5b506101c661052a366004611d1f565b61114b565b34801561053b57600080fd5b5060d654610332906001600160a01b031681565b34801561055b57600080fd5b5060d554610332906001600160a01b031681565b34801561057b57600080fd5b5061021a60cd5481565b34801561059157600080fd5b506101c66105a0366004611d1f565b6111a9565b60d4546001600160a01b031633146105ff5760405162461bcd60e51b815260206004820181905260248201527f594f555374616b696e673a2063616c6c6572206973206e6f742054726f76654d60448201526064016101bd565b60335460ff161561061857610614828261121f565b5050565b6001600160a01b038216600090815260d0602052604090205460ff1661068c576001600160a01b038216600081815260d060205260408120805460ff1916600190811790915560cf805491820181559091526000805160206120fb8339815191520180546001600160a01b03191690911790555b60cb54600090156106b95760cb546106b6906106b084670de0b6b3a76400006112a5565b906112b1565b90505b6001600160a01b038316600090815260cc60205260409020546106dc90826112bd565b6001600160a01b038416600081815260cc6020526040908190208390555190917fae1df072173f21c2cc2e0aa1368be1b6b7b0f4f295d82ccae83bd489a5575f299161072a91815260200190565b60405180910390a2505050565b61073f6112c9565b33600090815260ca602052604090205461075881611322565b60cf54600080805b838110156108a15760cf818154811061077b5761077b611e65565b6000918252602090912001546001600160a01b0316915061079c8233611386565b92508060000361084d5760006107b133611400565b60d35460405163a9059cbb60e01b81529192506001600160a01b03169063a9059cbb906107e49033908590600401611e7b565b6020604051808303816000875af1158015610803573d6000803e3d6000fd5b505050506040513d601f19601f820116820180604052508101906108279190611e94565b5060405181815233906000805160206120db8339815191529060200160405180910390a2505b6108578233611445565b6040518381526001600160a01b03831690339060008051602061213b8339815191529060200160405180910390a361088f82846114c8565b8061089981611ecc565b915050610760565b5084156109a65760006108b48686611523565b905060006108c28683611539565b33600090815260ca6020526040902081905560cb549091506108e49083611539565b60cb81905560405190815260008051602061217b8339815191529060200160405180910390a160d25460405163a9059cbb60e01b81526001600160a01b039091169063a9059cbb9061093c9033908690600401611e7b565b6020604051808303816000875af115801561095b573d6000803e3d6000fd5b505050506040513d601f19601f8201168201806040525081019061097f9190611e94565b50604051818152339060008051602061215b8339815191529060200160405180910390a250505b505050506109b46001609755565b50565b60006109c282611400565b92915050565b60006109d48383611386565b9392505050565b6109e361154c565b6109eb6115ab565b565b600054610100900460ff1615808015610a0d5750600054600160ff909116105b80610a2e5750610a1c306115f7565b158015610a2e575060005460ff166001145b610a915760405162461bcd60e51b815260206004820152602e60248201527f496e697469616c697a61626c653a20636f6e747261637420697320616c72656160448201526d191e481a5b9a5d1a585b1a5e995960921b60648201526084016101bd565b6000805460ff191660011790558015610ab4576000805461ff0019166101001790555b60c95460ff1615610afd5760405162461bcd60e51b8152602060048201526013602482015272105b1c9958591e48125b9a5d1a585b1a5e9959606a1b60448201526064016101bd565b6001600160a01b038216610b4e5760405162461bcd60e51b8152602060048201526018602482015277496e76616c6964205472656175737279204164647265737360401b60448201526064016101bd565b610b5787611606565b610b6086611606565b610b6985611606565b610b7284611606565b610b7b83611606565b60c9805460ff19166001179055610b906116ab565b610b986116da565b610ba0611709565b610ba8611738565b60d280546001600160a01b03199081166001600160a01b038a81169190911790925560d38054821689841617905560d48054821688841617905560d58054821687841617905560d68054821686841617905560d7805482169285169290921790915560d06020527f790dca8aa28f25f1915553dd78bb1fae41686aabbb62ea6516ab2cafb7d25899805460ff1916600190811790915560cf805491820181556000526000805160206120fb833981519152018054909116905560405160008051602061211b83398151915290610c7f908990611d86565b60405180910390a160008051602061211b83398151915286604051610ca49190611d86565b60405180910390a17f41097dcc1f7cbd663d822443d7972f05b04f71918b30fe9fc59dd6e42e22806085604051610cdb9190611d86565b60405180910390a17f5962f8af633c4df1ab230096f773a514ee5adf7785c621ecdcdb764cb7f6e39184604051610d129190611d86565b60405180910390a17f8f6a6e7d20a3233e0a79883272259ffbd7a243734e397bc2b4642c79d7fa8a6d83604051610d499190611d86565b60405180910390a18015610d97576000805461ff0019169055604051600181527f7f26b83ff96e1f2b6a682f133852f6798a09c465da95921460cefb38474024989060200160405180910390a15b50505050505050565b610da861154c565b6109eb6000611775565b610dba61154c565b6109eb611738565b60d5546001600160a01b03163314610e2a5760405162461bcd60e51b815260206004820152602560248201527f594f555374616b696e673a2063616c6c6572206973206e6f7420426f72726f7760448201526465724f707360d81b60648201526084016101bd565b60335460ff1615610e4b5760d3546109b4906001600160a01b03168261121f565b60cb5460009015610e725760cb54610e6f906106b084670de0b6b3a76400006112a5565b90505b60cd54610e7f90826112bd565b60cd8190556040519081527ff1328c1733e5d818d921abe5088b7689c0087a1189a2e6dd645b0320d39ed510906020015b60405180910390a15050565b6065546001600160a01b031690565b610ed36112c9565b610edb6117c7565b60008111610ee857600080fd5b33600090815260ca602052604081205460cf54909180805b838110156110485760cf8181548110610f1b57610f1b611e65565b6000918252602090912001546001600160a01b03169150841561102c57610f428233611386565b925080600003610ff3576000610f5733611400565b60d35460405163a9059cbb60e01b81529192506001600160a01b03169063a9059cbb90610f8a9033908590600401611e7b565b6020604051808303816000875af1158015610fa9573d6000803e3d6000fd5b505050506040513d601f19601f82011682018060405250810190610fcd9190611e94565b5060405181815233906000805160206120db8339815191529060200160405180910390a2505b610ffd82846114c8565b6040518381526001600160a01b03831690339060008051602061213b8339815191529060200160405180910390a35b6110368233611445565b8061104081611ecc565b915050610f00565b50600061105585876112bd565b33600090815260ca6020526040902081905560cb5490915061107790876112bd565b60cb81905560405190815260008051602061217b8339815191529060200160405180910390a160d2546040516323b872dd60e01b8152336004820152306024820152604481018890526001600160a01b03909116906323b872dd906064016020604051808303816000875af11580156110f4573d6000803e3d6000fd5b505050506040513d601f19601f820116820180604052508101906111189190611e94565b50604051818152339060008051602061215b8339815191529060200160405180910390a250505050506109b46001609755565b61115361154c565b60d780546001600160a01b0319166001600160a01b0383161790556040517f9073dfac663173e64aa95665faedae52e2246f9bcdd3890fbfaf6733b46bba139061119e908390611d86565b60405180910390a150565b6111b161154c565b6001600160a01b0381166112165760405162461bcd60e51b815260206004820152602660248201527f4f776e61626c653a206e6577206f776e657220697320746865207a65726f206160448201526564647265737360d01b60648201526084016101bd565b6109b481611775565b60d754611236906001600160a01b0316838361180d565b6001600160a01b038216600090815260d160205260408120805483929061125e908490611ee5565b90915550506040518181526001600160a01b038316907fcb3b1cf844e7338746f3d6afd66ab59782b22b7e485960c851b6e77689714da49060200160405180910390a25050565b60006109d48284611ef8565b60006109d48284611f0f565b60006109d48284611ee5565b60026097540361131b5760405162461bcd60e51b815260206004820152601f60248201527f5265656e7472616e637947756172643a207265656e7472616e742063616c6c0060448201526064016101bd565b6002609755565b600081116109b45760405162461bcd60e51b815260206004820152602b60248201527f594f555374616b696e673a2055736572206d75737420686176652061206e6f6e60448201526a2d7a65726f207374616b6560a81b60648201526084016101bd565b6001600160a01b03808216600090815260ce6020908152604080832093861683529281528282205460cc9091529181205490919082906113f790670de0b6b3a7640000906106b0906113d89086611539565b6001600160a01b038816600090815260ca6020526040902054906112a5565b95945050505050565b6001600160a01b038116600090815260ce602052604081206001015460cd54829061143d90670de0b6b3a7640000906106b0906113d89086611539565b949350505050565b6001600160a01b03828116600081815260cc60208181526040808420805496881680865260ce8452828620968652868452948290209690965560cd5460019095018590559181529354815192835293820193909352918201527f6b5cf27595af4428271524e0a5abd2b63f6fee1a61e31970490f5a10e257a1cd90606001610eb0565b6114d282826118f6565b90506114df33838361180d565b60405181815233906001600160a01b038416907ff89c3306c782ffbbe4593aa5673e97e9ad6a8c65d240405e8986363fada663929060200160405180910390a35050565b600081831061153257816109d4565b5090919050565b60006109d48284611f31565b6001609755565b33611555610ebc565b6001600160a01b0316146109eb5760405162461bcd60e51b815260206004820181905260248201527f4f776e61626c653a2063616c6c6572206973206e6f7420746865206f776e657260448201526064016101bd565b6115b36119bf565b6033805460ff191690557f5db9ee0a495bf2e6ff9c91a7834c1ba4fdd244a5e8aa4e537bd38aeae4b073aa335b6040516115ed9190611d86565b60405180910390a1565b6001600160a01b03163b151590565b6001600160a01b03811661165c5760405162461bcd60e51b815260206004820152601e60248201527f4163636f756e742063616e6e6f74206265207a65726f2061646472657373000060448201526064016101bd565b803b806106145760405162461bcd60e51b815260206004820181905260248201527f4163636f756e7420636f64652073697a652063616e6e6f74206265207a65726f60448201526064016101bd565b600054610100900460ff166116d25760405162461bcd60e51b81526004016101bd90611f44565b6109eb611a08565b600054610100900460ff166117015760405162461bcd60e51b81526004016101bd90611f44565b6109eb611a3b565b600054610100900460ff166117305760405162461bcd60e51b81526004016101bd90611f44565b6109eb611a62565b6117406117c7565b6033805460ff191660011790557f62e78cea01bee320cd4e420270b5ea74000d11b0c9f74754ebdbfc544b05a2586115e03390565b606580546001600160a01b038381166001600160a01b0319831681179093556040519116919082907f8be0079c531659141344cd1fd0a4f28419497f9722a3daafe3b4186f6b6457e090600090a35050565b60335460ff16156109eb5760405162461bcd60e51b815260206004820152601060248201526f14185d5cd8589b194e881c185d5cd95960821b60448201526064016101bd565b6001600160a01b0382166118dd576000836001600160a01b03168260405160006040518083038185875af1925050503d8060008114611868576040519150601f19603f3d011682016040523d82523d6000602084013e61186d565b606091505b50509050806118d75760405162461bcd60e51b815260206004820152603060248201527f594f555374616b696e673a204661696c656420746f2073656e6420616363756d60448201526f3ab630ba32b21020b9b9b2ba23b0b4b760811b60648201526084016101bd565b50505050565b6118f16001600160a01b0383168483611a92565b505050565b60006001600160a01b03831661190d5750806109c2565b8160000361191d575060006109c2565b6000836001600160a01b031663313ce5676040518163ffffffff1660e01b8152600401602060405180830381865afa15801561195d573d6000803e3d6000fd5b505050506040513d601f19601f820116820180604052508101906119819190611f8f565b905060128160ff1610156119b7576119af61199d826012611fb2565b6119a890600a6120af565b84906112b1565b9150506109c2565b509092915050565b60335460ff166109eb5760405162461bcd60e51b815260206004820152601460248201527314185d5cd8589b194e881b9bdd081c185d5cd95960621b60448201526064016101bd565b600054610100900460ff16611a2f5760405162461bcd60e51b81526004016101bd90611f44565b6033805460ff19169055565b600054610100900460ff166115455760405162461bcd60e51b81526004016101bd90611f44565b600054610100900460ff16611a895760405162461bcd60e51b81526004016101bd90611f44565b6109eb33611775565b6118f18363a9059cbb60e01b8484604051602401611ab1929190611e7b565b60408051601f198184030181529190526020810180516001600160e01b03166001600160e01b0319909316929092179091526000611b38826040518060400160405280602081526020017f5361666545524332303a206c6f772d6c6576656c2063616c6c206661696c6564815250856001600160a01b0316611bb89092919063ffffffff16565b9050805160001480611b59575080806020019051810190611b599190611e94565b6118f15760405162461bcd60e51b815260206004820152602a60248201527f5361666545524332303a204552433230206f7065726174696f6e20646964206e6044820152691bdd081cdd58d8d9595960b21b60648201526084016101bd565b606061143d848460008585600080866001600160a01b03168587604051611bdf91906120be565b60006040518083038185875af1925050503d8060008114611c1c576040519150601f19603f3d011682016040523d82523d6000602084013e611c21565b606091505b5091509150611c3287838387611c3d565b979650505050505050565b60608315611caa578251600003611ca357611c57856115f7565b611ca35760405162461bcd60e51b815260206004820152601d60248201527f416464726573733a2063616c6c20746f206e6f6e2d636f6e747261637400000060448201526064016101bd565b508161143d565b61143d8383815115611cbf5781518083602001fd5b8060405162461bcd60e51b81526004016101bd9190611e32565b80356001600160a01b0381168114611cf057600080fd5b919050565b60008060408385031215611d0857600080fd5b611d1183611cd9565b946020939093013593505050565b600060208284031215611d3157600080fd5b6109d482611cd9565b600060208284031215611d4c57600080fd5b5035919050565b60008060408385031215611d6657600080fd5b611d6f83611cd9565b9150611d7d60208401611cd9565b90509250929050565b6001600160a01b0391909116815260200190565b60008060008060008060c08789031215611db357600080fd5b611dbc87611cd9565b9550611dca60208801611cd9565b9450611dd860408801611cd9565b9350611de660608801611cd9565b9250611df460808801611cd9565b9150611e0260a08801611cd9565b90509295509295509295565b60005b83811015611e29578181015183820152602001611e11565b50506000910152565b6020815260008251806020840152611e51816040850160208701611e0e565b601f01601f19169190910160400192915050565b634e487b7160e01b600052603260045260246000fd5b6001600160a01b03929092168252602082015260400190565b600060208284031215611ea657600080fd5b815180151581146109d457600080fd5b634e487b7160e01b600052601160045260246000fd5b600060018201611ede57611ede611eb6565b5060010190565b808201808211156109c2576109c2611eb6565b80820281158282048414176109c2576109c2611eb6565b600082611f2c57634e487b7160e01b600052601260045260246000fd5b500490565b818103818111156109c2576109c2611eb6565b6020808252602b908201527f496e697469616c697a61626c653a20636f6e7472616374206973206e6f74206960408201526a6e697469616c697a696e6760a81b606082015260800190565b600060208284031215611fa157600080fd5b815160ff811681146109d457600080fd5b60ff82811682821603908111156109c2576109c2611eb6565b600181815b80851115612006578160001904821115611fec57611fec611eb6565b80851615611ff957918102915b93841c9390800290611fd0565b509250929050565b60008261201d575060016109c2565b8161202a575060006109c2565b8160018114612040576002811461204a57612066565b60019150506109c2565b60ff84111561205b5761205b611eb6565b50506001821b6109c2565b5060208310610133831016604e8410600b8410161715612089575081810a6109c2565b6120938383611fcb565b80600019048211156120a7576120a7611eb6565b029392505050565b60006109d460ff84168361200e565b600082516120d0818460208701611e0e565b919091019291505056fe793c9a4ca8adbf1ed84ebc05848a4f22edcdb4a3b03c8a1e29ec1f30a9843fd6acb8d954e2cfef495862221e91bd7523613cf8808827cb33edfe4904cc51bf29c0ad54e58fac2603ed793501ec1532822cf23a969a1cf74aedff6af2471fc5745461929fc7866d2777ffdec3e8203fb397bb1c8d727549022e6128217bf80ae339df0e5286a3ef2f42a0bf52f32cfe2c58e5b0405f47fe512f2c2439e4cfe204fb4e49673247b4700957d74d369dd685c55b6cfbd381d55db9c895a60d6c889da264697066735822122085fd254de35f6322123766023b42375a4367939bd977c06ea867818fdf9be94264736f6c63430008110033",
  "linkReferences": {},
  "deployedLinkReferences": {}
}