{
  "_format": "hh-sol-artifact-1",
  "contractName": "PriceFeed",
  "sourceName": "contracts/PriceFeed.sol",
  "abi": [
    {
      "anonymous": false,
      "inputs": [
        {
          "indexed": false,
          "internalType": "uint8",
          "name": "version",
          "type": "uint8"
        }
      ],
      "name": "Initialized",
      "type": "event"
    },
    {
      "anonymous": false,
      "inputs": [
        {
          "indexed": true,
          "internalType": "address",
          "name": "token",
          "type": "address"
        },
        {
          "indexed": false,
          "internalType": "uint256",
          "name": "_lastGoodIndex",
          "type": "uint256"
        }
      ],
      "name": "LastGoodIndexUpdated",
      "type": "event"
    },
    {
      "anonymous": false,
      "inputs": [
        {
          "indexed": true,
          "internalType": "address",
          "name": "token",
          "type": "address"
        },
        {
          "indexed": false,
          "internalType": "uint256",
          "name": "_lastGoodPrice",
          "type": "uint256"
        }
      ],
      "name": "LastGoodPriceUpdated",
      "type": "event"
    },
    {
      "anonymous": false,
      "inputs": [
        {
          "indexed": true,
          "internalType": "address",
          "name": "previousOwner",
          "type": "address"
        },
        {
          "indexed": true,
          "internalType": "address",
          "name": "newOwner",
          "type": "address"
        }
      ],
      "name": "OwnershipTransferred",
      "type": "event"
    },
    {
      "anonymous": false,
      "inputs": [
        {
          "indexed": false,
          "internalType": "enum IPriceFeed.Status",
          "name": "newStatus",
          "type": "uint8"
        }
      ],
      "name": "PriceFeedStatusChanged",
      "type": "event"
    },
    {
      "anonymous": false,
      "inputs": [
        {
          "indexed": false,
          "internalType": "address",
          "name": "token",
          "type": "address"
        },
        {
          "indexed": false,
          "internalType": "address",
          "name": "chainLinkAggregator",
          "type": "address"
        },
        {
          "indexed": false,
          "internalType": "bytes32",
          "name": "tellorId",
          "type": "bytes32"
        }
      ],
      "name": "RegisteredNewOracle",
      "type": "event"
    },
    {
      "inputs": [],
      "name": "DECIMAL_PRECISION",
      "outputs": [
        {
          "internalType": "uint256",
          "name": "",
          "type": "uint256"
        }
      ],
      "stateMutability": "view",
      "type": "function"
    },
    {
      "inputs": [],
      "name": "FLAG_ARBITRUM_SEQ_OFFLINE",
      "outputs": [
        {
          "internalType": "address",
          "name": "",
          "type": "address"
        }
      ],
      "stateMutability": "view",
      "type": "function"
    },
    {
      "inputs": [],
      "name": "MAX_PRICE_DEVIATION_FROM_PREVIOUS_ROUND",
      "outputs": [
        {
          "internalType": "uint256",
          "name": "",
          "type": "uint256"
        }
      ],
      "stateMutability": "view",
      "type": "function"
    },
    {
      "inputs": [],
      "name": "MAX_PRICE_DIFFERENCE_BETWEEN_ORACLES",
      "outputs": [
        {
          "internalType": "uint256",
          "name": "",
          "type": "uint256"
        }
      ],
      "stateMutability": "view",
      "type": "function"
    },
    {
      "inputs": [],
      "name": "NAME",
      "outputs": [
        {
          "internalType": "string",
          "name": "",
          "type": "string"
        }
      ],
      "stateMutability": "view",
      "type": "function"
    },
    {
      "inputs": [],
      "name": "TARGET_DIGITS",
      "outputs": [
        {
          "internalType": "uint256",
          "name": "",
          "type": "uint256"
        }
      ],
      "stateMutability": "view",
      "type": "function"
    },
    {
      "inputs": [],
      "name": "TELLOR_DIGITS",
      "outputs": [
        {
          "internalType": "uint256",
          "name": "",
          "type": "uint256"
        }
      ],
      "stateMutability": "view",
      "type": "function"
    },
    {
      "inputs": [],
      "name": "TIMEOUT",
      "outputs": [
        {
          "internalType": "uint256",
          "name": "",
          "type": "uint256"
        }
      ],
      "stateMutability": "view",
      "type": "function"
    },
    {
      "inputs": [
        {
          "internalType": "address",
          "name": "_token",
          "type": "address"
        },
        {
          "internalType": "address",
          "name": "_chainlinkOracle",
          "type": "address"
        },
        {
          "internalType": "bytes32",
          "name": "_tellorId",
          "type": "bytes32"
        }
      ],
      "name": "addOracle",
      "outputs": [],
      "stateMutability": "nonpayable",
      "type": "function"
    },
    {
      "inputs": [],
      "name": "adminContract",
      "outputs": [
        {
          "internalType": "address",
          "name": "",
          "type": "address"
        }
      ],
      "stateMutability": "view",
      "type": "function"
    },
    {
      "inputs": [],
      "name": "chainlinkFlags",
      "outputs": [
        {
          "internalType": "contract FlagsInterface",
          "name": "",
          "type": "address"
        }
      ],
      "stateMutability": "view",
      "type": "function"
    },
    {
      "inputs": [
        {
          "internalType": "address",
          "name": "_token",
          "type": "address"
        }
      ],
      "name": "fetchPrice",
      "outputs": [
        {
          "internalType": "uint256",
          "name": "",
          "type": "uint256"
        }
      ],
      "stateMutability": "nonpayable",
      "type": "function"
    },
    {
      "inputs": [],
      "name": "isInitialized",
      "outputs": [
        {
          "internalType": "bool",
          "name": "",
          "type": "bool"
        }
      ],
      "stateMutability": "view",
      "type": "function"
    },
    {
      "inputs": [
        {
          "internalType": "address",
          "name": "",
          "type": "address"
        }
      ],
      "name": "lastGoodPrice",
      "outputs": [
        {
          "internalType": "uint256",
          "name": "",
          "type": "uint256"
        }
      ],
      "stateMutability": "view",
      "type": "function"
    },
    {
      "inputs": [],
      "name": "owner",
      "outputs": [
        {
          "internalType": "address",
          "name": "",
          "type": "address"
        }
      ],
      "stateMutability": "view",
      "type": "function"
    },
    {
      "inputs": [
        {
          "internalType": "address",
          "name": "",
          "type": "address"
        }
      ],
      "name": "registeredOracles",
      "outputs": [
        {
          "internalType": "contract AggregatorV3Interface",
          "name": "chainLinkOracle",
          "type": "address"
        },
        {
          "internalType": "bool",
          "name": "isRegistered",
          "type": "bool"
        },
        {
          "internalType": "bytes32",
          "name": "tellorId",
          "type": "bytes32"
        }
      ],
      "stateMutability": "view",
      "type": "function"
    },
    {
      "inputs": [],
      "name": "renounceOwnership",
      "outputs": [],
      "stateMutability": "nonpayable",
      "type": "function"
    },
    {
      "inputs": [],
      "name": "sequencerUptimeFeed",
      "outputs": [
        {
          "internalType": "contract AggregatorV3Interface",
          "name": "",
          "type": "address"
        }
      ],
      "stateMutability": "view",
      "type": "function"
    },
    {
      "inputs": [
        {
          "internalType": "address",
          "name": "_sequencerUptimeFeed",
          "type": "address"
        },
        {
          "internalType": "address",
          "name": "_adminContract",
          "type": "address"
        },
        {
          "internalType": "address",
          "name": "_tellorCaller",
          "type": "address"
        }
      ],
      "name": "setAddresses",
      "outputs": [],
      "stateMutability": "nonpayable",
      "type": "function"
    },
    {
      "inputs": [
        {
          "internalType": "address",
          "name": "_admin",
          "type": "address"
        }
      ],
      "name": "setAdminContract",
      "outputs": [],
      "stateMutability": "nonpayable",
      "type": "function"
    },
    {
      "inputs": [],
      "name": "status",
      "outputs": [
        {
          "internalType": "enum IPriceFeed.Status",
          "name": "",
          "type": "uint8"
        }
      ],
      "stateMutability": "view",
      "type": "function"
    },
    {
      "inputs": [],
      "name": "tellorCaller",
      "outputs": [
        {
          "internalType": "contract ITellorCaller",
          "name": "",
          "type": "address"
        }
      ],
      "stateMutability": "view",
      "type": "function"
    },
    {
      "inputs": [
        {
          "internalType": "address",
          "name": "newOwner",
          "type": "address"
        }
      ],
      "name": "transferOwnership",
      "outputs": [],
      "stateMutability": "nonpayable",
      "type": "function"
    }
  ],
  "bytecode": "0x608060405234801561001057600080fd5b506118c4806100206000396000f3fe608060405234801561001057600080fd5b506004361061011d5760003560e01c80631be5c92f14610122578063200d2ed21461013d57806331eab8251461015e578063363bf96414610191578063392e53cd146101a657806345079cb4146101ca57806358a6aa88146101d857806363a812f9146101e7578063715018a6146101fa5780637c61e3bf146102025780638429bbf6146102155780638da5cb5b14610235578063a0b79b9a1461023d578063a20baee614610250578063a3f4df7e1461025f578063a726470514610294578063ace1798e146102a7578063c05c5e94146102ba578063e4362b23146102cd578063e4440e021461032f578063ebf8e6c614610342578063f2fde38b1461034a578063f56f48f21461035d575b600080fd5b61012a601281565b6040519081526020015b60405180910390f35b60685461015190600160a01b900460ff1681565b6040516101349190611504565b61017973a438451d6458044c3c8cd2f6f31c91ac882a6d9181565b6040516001600160a01b039091168152602001610134565b6101a461019f366004611543565b610366565b005b6067546101ba90600160a01b900460ff1681565b6040519015158152602001610134565b61012a66b1a2bc2ec5000081565b61012a6706f05b59d3b2000081565b6101a46101f5366004611586565b610508565b6101a4610545565b606754610179906001600160a01b031681565b61012a610223366004611586565b606a6020526000908152604090205481565b610179610559565b6101a461024b3660046115a1565b610568565b61012a670de0b6b3a764000081565b61028760405180604001604052806009815260200168141c9a58d95199595960ba1b81525081565b60405161013491906115dd565b606654610179906001600160a01b031681565b61012a6102b5366004611586565b61072e565b606854610179906001600160a01b031681565b61030a6102db366004611586565b606960205260009081526040902080546001909101546001600160a01b03821691600160a01b900460ff169083565b604080516001600160a01b039094168452911515602084015290820152606001610134565b606554610179906001600160a01b031681565b61012a600681565b6101a4610358366004611586565b610b13565b61012a61384081565b600054610100900460ff16158080156103865750600054600160ff909116105b806103a05750303b1580156103a0575060005460ff166001145b6104085760405162461bcd60e51b815260206004820152602e60248201527f496e697469616c697a61626c653a20636f6e747261637420697320616c72656160448201526d191e481a5b9a5d1a585b1a5e995960921b60648201526084015b60405180910390fd5b6000805460ff19166001179055801561042b576000805461ff0019166101001790555b606754600160a01b900460ff161561044257600080fd5b61044b84610b8c565b61045483610b8c565b61045d82610b8c565b6067805460ff60a01b1916600160a01b179055610478610c35565b60688054606680546001600160a01b038881166001600160a01b0319928316179092556067805487841692169190911790556001600160a81b03199091169085161790558015610502576000805461ff0019169055604051600181527f7f26b83ff96e1f2b6a682f133852f6798a09c465da95921460cefb38474024989060200160405180910390a15b50505050565b610510610c64565b6001600160a01b03811661052357600080fd5b606880546001600160a01b0319166001600160a01b0392909216919091179055565b61054d610c64565b6105576000610cc3565b565b6033546001600160a01b031690565b610570610559565b6001600160a01b0316336001600160a01b0316148061059957506068546001600160a01b031633145b6105da5760405162461bcd60e51b815260206004820152601260248201527124b73b30b634b2102832b936b4b9b9b4b7b760711b60448201526064016103ff565b604080516060810182526001600160a01b03808516825260016020808401828152848601878152898516600090815260699093529582209451855491511515600160a01b026001600160a81b03199092169416939093179290921783559251919092015582908061064a83610d15565b915091506106588282610d4a565b15801561066b575061066982610d6d565b155b6106d05760405162461bcd60e51b815260206004820152603060248201527f5072696365466565643a20436861696e6c696e6b206d75737420626520776f7260448201526f1ada5b99c8185b990818dd5c9c995b9d60821b60648201526084016103ff565b6106da8683610d90565b50604080516001600160a01b038089168252871660208201529081018590527fd3f51980d8160932f826899d422b8d5f469e0b0c5aa705b2303b68a9ddb5593f9060600160405180910390a1505050505050565b6001600160a01b03811660009081526069602052604081208054600160a01b900460ff1661079a5760405162461bcd60e51b81526020600482015260196024820152784f7261636c65206973206e6f7420726567697374657265642160381b60448201526064016103ff565b805460009081906107b3906001600160a01b0316610d15565b9150915060006107c68460010154610db4565b6001600160a01b0387166000908152606a6020526040812054919250606854600160a01b900460ff166004811115610800576108006114ee565b0361092f5761080f8484610d4a565b1561086d5761081d82610e70565b156108365761082c6002610ec0565b9695505050505050565b61083f82610d6d565b1561084e5761082c6001610ec0565b6108586001610ec0565b6108628783610f24565b979650505050505050565b61087684610d6d565b156108b55761088482610e70565b156108935761082c6004610ec0565b61089d6003610ec0565b6108a682610d6d565b15610858579695505050505050565b6108bf8484610f34565b1561090d576108cd82610e70565b156108dc5761082c6002610ec0565b6108e582610d6d565b156108f45761082c6001610ec0565b6108fe8483610fc1565b1561084e576108628785610d90565b61091682610e70565b15610925576109256004610ec0565b6108628785610d90565b6001606854600160a01b900460ff16600481111561094f5761094f6114ee565b036109865761095f84848461103a565b1561096e576109256000610ec0565b61097782610e70565b1561089d5761082c6002610ec0565b6002606854600160a01b900460ff1660048111156109a6576109a66114ee565b036109c5576109b684848461103a565b1561082c576109256000610ec0565b6003606854600160a01b900460ff1660048111156109e5576109e56114ee565b03610a8a576109f48484610d4a565b15610a1b57610a0282610e70565b15610a115761082c6002610ec0565b61089d6001610ec0565b610a2484610d6d565b15610a4157610a3282610e70565b1561089d5761082c6004610ec0565b610a4a82610e70565b15610a59576109256004610ec0565b610a6282610d6d565b15610a71579695505050505050565b610a7b8483610fc1565b1561084e576109256000610ec0565b6004606854600160a01b900460ff166004811115610aaa57610aaa6114ee565b0361082c57610ab98484610d4a565b15610ac85761082c6002610ec0565b610ad184610d6d565b15610ae0579695505050505050565b610aeb84848461103a565b15610afa576109256000610ec0565b610b048484610f34565b156109255761082c6002610ec0565b610b1b610c64565b6001600160a01b038116610b805760405162461bcd60e51b815260206004820152602660248201527f4f776e61626c653a206e6577206f776e657220697320746865207a65726f206160448201526564647265737360d01b60648201526084016103ff565b610b8981610cc3565b50565b6001600160a01b038116610be25760405162461bcd60e51b815260206004820152601e60248201527f4163636f756e742063616e6e6f74206265207a65726f2061646472657373000060448201526064016103ff565b803b80610c315760405162461bcd60e51b815260206004820181905260248201527f4163636f756e7420636f64652073697a652063616e6e6f74206265207a65726f60448201526064016103ff565b5050565b600054610100900460ff16610c5c5760405162461bcd60e51b81526004016103ff9061162b565b610557611094565b33610c6d610559565b6001600160a01b0316146105575760405162461bcd60e51b815260206004820181905260248201527f4f776e61626c653a2063616c6c6572206973206e6f7420746865206f776e657260448201526064016103ff565b603380546001600160a01b038381166001600160a01b0319831681179093556040519116919082907f8be0079c531659141344cd1fd0a4f28419497f9722a3daafe3b4186f6b6457e090600090a35050565b610d1d6114c0565b610d256114c0565b610d2e836110c4565b9150610d43838360000151846080015161127e565b9050915091565b6000610d5583611335565b80610d645750610d6482611335565b90505b92915050565b6000613840610d8983604001514261139790919063ffffffff16565b1192915050565b600080610da88360200151846080015160ff166113a3565b9050610d648482611406565b60408051608081018252600080825260208201819052918101829052606081019190915281610de257919050565b606754604051637835690560e01b8152600481018490526001600160a01b0390911690637835690590602401606060405180830381865afa925050508015610e47575060408051601f3d908101601f19168201909252610e4491810190611676565b60015b610e5057919050565b91151583526020830152604082015260016060820152919050565b919050565b60008160600151610e8357506001919050565b60408201511580610e975750428260400151115b15610ea457506001919050565b8160200151600003610eb857506001919050565b506000919050565b6068805482919060ff60a01b1916600160a01b836004811115610ee557610ee56114ee565b02179055507f5c57579a8214fe4f710c1c56fa829f045b9fa6d225a744225a30c32188064d4e81604051610f199190611504565b60405180910390a150565b600080610da8836020015161145f565b600080610f4c8460200151856080015160ff166113a3565b90506000610f658460200151856080015160ff166113a3565b90506000610f738383611482565b90506000610f818484611498565b90506000610fab82610fa5670de0b6b3a7640000610f9f8388611397565b906114a8565b906114b4565b6706f05b59d3b200001098975050505050505050565b600080610fd98460200151856080015160ff166113a3565b90506000610fea846020015161145f565b90506000610ff88284611482565b905060006110068385611498565b9050600061102483610fa5670de0b6b3a7640000610f9f8684611397565b66b1a2bc2ec50000101598975050505050505050565b600061104582610e70565b80611054575061105482610d6d565b8061106457506110648484610d4a565b80611073575061107384610d6d565b156110805750600061108d565b61108a8483610fc1565b90505b9392505050565b600054610100900460ff166110bb5760405162461bcd60e51b81526004016103ff9061162b565b61055733610cc3565b6110cc6114c0565b600080606660009054906101000a90046001600160a01b03166001600160a01b031663feaf968c6040518163ffffffff1660e01b815260040160a060405180830381865afa158015611122573d6000803e3d6000fd5b505050506040513d601f19601f8201168201806040525081019061114691906116c9565b50919450925050821590508061115e57505050919050565b600061116a834261172f565b9050610e10811161117e5750505050919050565b856001600160a01b031663313ce5676040518163ffffffff1660e01b8152600401602060405180830381865afa9250505080156111d8575060408051601f3d908101601f191682019092526111d591810190611742565b60015b6111e55750505050919050565b60ff166080860152856001600160a01b031663feaf968c6040518163ffffffff1660e01b815260040160a060405180830381865afa925050508015611247575060408051601f3d908101601f19168201909252611244918101906116c9565b60015b6112545750505050919050565b506001600160501b0390931688525060208701526040860152505060016060840152509092915050565b6112866114c0565b6001600160501b0383161561108d57604051639a6fc8f560e01b81526001600160501b0360001985011660048201526001600160a01b03851690639a6fc8f59060240160a060405180830381865afa925050508015611302575060408051601f3d908101601f191682019092526112ff918101906116c9565b60015b1561108d57506001600160501b039093168452506020830152604082015260ff821660808201526001606082015261108d565b6000816060015161134857506001919050565b81516001600160501b031660000361136257506001919050565b604082015115806113765750428260400151115b1561138357506001919050565b6000826020015113610eb857506001919050565b6000610d64828461172f565b600080601283106113d5576113ce6113bc60128561172f565b6113c790600a611849565b85906114b4565b9050610d64565b6012831015610d64576113fe6113ec84601261172f565b6113f790600a611849565b85906114a8565b949350505050565b6001600160a01b0382166000818152606a602052604090819020839055517f9a696fe6a955b23852e2b245b6847dfda7d8944623d9b42628e087344ad17963906114539084815260200190565b60405180910390a25050565b6000610d676114706006601261172f565b61147b90600a611849565b83906114a8565b60008183106114915781610d64565b5090919050565b6000818310156114915781610d64565b6000610d648284611855565b6000610d64828461186c565b6040805160a08101825260008082526020820181905291810182905260608101829052608081019190915290565b634e487b7160e01b600052602160045260246000fd5b602081016005831061152657634e487b7160e01b600052602160045260246000fd5b91905290565b80356001600160a01b0381168114610e6b57600080fd5b60008060006060848603121561155857600080fd5b6115618461152c565b925061156f6020850161152c565b915061157d6040850161152c565b90509250925092565b60006020828403121561159857600080fd5b610d648261152c565b6000806000606084860312156115b657600080fd5b6115bf8461152c565b92506115cd6020850161152c565b9150604084013590509250925092565b600060208083528351808285015260005b8181101561160a578581018301518582016040015282016115ee565b506000604082860101526040601f19601f8301168501019250505092915050565b6020808252602b908201527f496e697469616c697a61626c653a20636f6e7472616374206973206e6f74206960408201526a6e697469616c697a696e6760a81b606082015260800190565b60008060006060848603121561168b57600080fd5b8351801515811461169b57600080fd5b602085015160409095015190969495509392505050565b80516001600160501b0381168114610e6b57600080fd5b600080600080600060a086880312156116e157600080fd5b6116ea866116b2565b945060208601519350604086015192506060860151915061170d608087016116b2565b90509295509295909350565b634e487b7160e01b600052601160045260246000fd5b81810381811115610d6757610d67611719565b60006020828403121561175457600080fd5b815160ff81168114610d6457600080fd5b600181815b808511156117a057816000190482111561178657611786611719565b8085161561179357918102915b93841c939080029061176a565b509250929050565b6000826117b757506001610d67565b816117c457506000610d67565b81600181146117da57600281146117e457611800565b6001915050610d67565b60ff8411156117f5576117f5611719565b50506001821b610d67565b5060208310610133831016604e8410600b8410161715611823575081810a610d67565b61182d8383611765565b806000190482111561184157611841611719565b029392505050565b6000610d6483836117a8565b8082028115828204841417610d6757610d67611719565b60008261188957634e487b7160e01b600052601260045260246000fd5b50049056fea2646970667358221220bebce5285c51f604e4cc44e2f5f7c4e9f8b3576c96be440adf01aabb8239376d64736f6c63430008110033",
  "linkReferences": {},
  "deployedLinkReferences": {}
}