{
  "_format": "hh-sol-artifact-1",
  "contractName": "TellorCaller",
  "sourceName": "contracts/Dependencies/TellorCaller.sol",
  "abi": [
    {
      "inputs": [
        {
          "internalType": "address",
          "name": "_tellorMasterAddress",
          "type": "address"
        }
      ],
      "stateMutability": "nonpayable",
      "type": "constructor"
    },
    {
      "inputs": [
        {
          "internalType": "bytes32",
          "name": "_queryId",
          "type": "bytes32"
        }
      ],
      "name": "getTellorCurrentValue",
      "outputs": [
        {
          "internalType": "bool",
          "name": "ifRetrieve",
          "type": "bool"
        },
        {
          "internalType": "uint256",
          "name": "value",
          "type": "uint256"
        },
        {
          "internalType": "uint256",
          "name": "_timestampRetrieved",
          "type": "uint256"
        }
      ],
      "stateMutability": "view",
      "type": "function"
    },
    {
      "inputs": [],
      "name": "tellor",
      "outputs": [
        {
          "internalType": "contract ITellor",
          "name": "",
          "type": "address"
        }
      ],
      "stateMutability": "view",
      "type": "function"
    }
  ],
  "bytecode": "0x608060405234801561001057600080fd5b5060405161051538038061051583398101604081905261002f91610054565b600080546001600160a01b0319166001600160a01b0392909216919091179055610084565b60006020828403121561006657600080fd5b81516001600160a01b038116811461007d57600080fd5b9392505050565b610482806100936000396000f3fe608060405234801561001057600080fd5b50600436106100365760003560e01c80631959ad5b1461003b578063783569051461006b575b600080fd5b60005461004e906001600160a01b031681565b6040516001600160a01b0390911681526020015b60405180910390f35b61007e6100793660046102b9565b61009b565b604080519315158452602084019290925290820152606001610062565b600080546040516377b03e0d60e01b8152600481018490528291829182916001600160a01b0316906377b03e0d90602401602060405180830381865afa1580156100e9573d6000803e3d6000fd5b505050506040513d601f19601f8201168201806040525081019061010d91906102d2565b60008054919250906001600160a01b031663ce5e11bf8761012f85600161024d565b6040516001600160e01b031960e085901b16815260048101929092526024820152604401602060405180830381865afa158015610170573d6000803e3d6000fd5b505050506040513d601f19601f8201168201806040525081019061019491906102d2565b6000805460405163c5958af960e01b8152600481018a90526024810184905292935090916001600160a01b039091169063c5958af990604401600060405180830381865afa1580156101ea573d6000803e3d6000fd5b505050506040513d6000823e601f3d908101601f191682016040526102129190810190610301565b9050600061021f82610262565b9050801561023857600196509450909250610246915050565b506000955085945090925050505b9193909250565b600061025982846103e0565b90505b92915050565b6000805b82518110156102b357828181518110610281576102816103f3565b016020015160f81c61029583610100610409565b61029f9190610420565b9150806102ab81610433565b915050610266565b50919050565b6000602082840312156102cb57600080fd5b5035919050565b6000602082840312156102e457600080fd5b5051919050565b634e487b7160e01b600052604160045260246000fd5b6000602080838503121561031457600080fd5b82516001600160401b038082111561032b57600080fd5b818501915085601f83011261033f57600080fd5b815181811115610351576103516102eb565b604051601f8201601f19908116603f01168101908382118183101715610379576103796102eb565b81604052828152888684870101111561039157600080fd5b600093505b828410156103b35784840186015181850187015292850192610396565b600086848301015280965050505050505092915050565b634e487b7160e01b600052601160045260246000fd5b8181038181111561025c5761025c6103ca565b634e487b7160e01b600052603260045260246000fd5b808202811582820484141761025c5761025c6103ca565b8082018082111561025c5761025c6103ca565b600060018201610445576104456103ca565b506001019056fea26469706673582212206582af40f28d0e2b81bbb5f52d57d8c04a9dbb7833674ba66f6e4786596b324264736f6c63430008110033",
  "linkReferences": {},
  "deployedLinkReferences": {}
}