{
  "_format": "hh-sol-artifact-1",
  "contractName": "RedemptionManager",
  "sourceName": "contracts/RedemptionManager.sol",
  "abi": [
    {
      "inputs": [],
      "name": "IsNotWstETH",
      "type": "error"
    },
    {
      "anonymous": false,
      "inputs": [
        {
          "indexed": true,
          "internalType": "address",
          "name": "_asset",
          "type": "address"
        },
        {
          "indexed": false,
          "internalType": "uint256",
          "name": "_baseRate",
          "type": "uint256"
        }
      ],
      "name": "BaseRateUpdated",
      "type": "event"
    },
    {
      "anonymous": false,
      "inputs": [
        {
          "indexed": false,
          "internalType": "address",
          "name": "_newBorrowerOperationsAddress",
          "type": "address"
        }
      ],
      "name": "BorrowerOperationsAddressChanged",
      "type": "event"
    },
    {
      "anonymous": false,
      "inputs": [
        {
          "indexed": false,
          "internalType": "address",
          "name": "_collSurplusPoolAddress",
          "type": "address"
        }
      ],
      "name": "CollSurplusPoolAddressChanged",
      "type": "event"
    },
    {
      "anonymous": false,
      "inputs": [
        {
          "indexed": false,
          "internalType": "address",
          "name": "_gasPoolAddress",
          "type": "address"
        }
      ],
      "name": "GasPoolAddressChanged",
      "type": "event"
    },
    {
      "anonymous": false,
      "inputs": [
        {
          "indexed": false,
          "internalType": "uint8",
          "name": "version",
          "type": "uint8"
        }
      ],
      "name": "Initialized",
      "type": "event"
    },
    {
      "anonymous": false,
      "inputs": [
        {
          "indexed": true,
          "internalType": "address",
          "name": "_asset",
          "type": "address"
        },
        {
          "indexed": false,
          "internalType": "uint256",
          "name": "_L_ETH",
          "type": "uint256"
        },
        {
          "indexed": false,
          "internalType": "uint256",
          "name": "_L_UDebt",
          "type": "uint256"
        }
      ],
      "name": "LTermsUpdated",
      "type": "event"
    },
    {
      "anonymous": false,
      "inputs": [
        {
          "indexed": true,
          "internalType": "address",
          "name": "_asset",
          "type": "address"
        },
        {
          "indexed": false,
          "internalType": "uint256",
          "name": "_lastFeeOpTime",
          "type": "uint256"
        }
      ],
      "name": "LastFeeOpTimeUpdated",
      "type": "event"
    },
    {
      "anonymous": false,
      "inputs": [
        {
          "indexed": true,
          "internalType": "address",
          "name": "_asset",
          "type": "address"
        },
        {
          "indexed": false,
          "internalType": "uint256",
          "name": "_liquidatedDebt",
          "type": "uint256"
        },
        {
          "indexed": false,
          "internalType": "uint256",
          "name": "_liquidatedColl",
          "type": "uint256"
        },
        {
          "indexed": false,
          "internalType": "uint256",
          "name": "_collGasCompensation",
          "type": "uint256"
        },
        {
          "indexed": false,
          "internalType": "uint256",
          "name": "_UGasCompensation",
          "type": "uint256"
        }
      ],
      "name": "Liquidation",
      "type": "event"
    },
    {
      "anonymous": false,
      "inputs": [
        {
          "indexed": true,
          "internalType": "address",
          "name": "previousOwner",
          "type": "address"
        },
        {
          "indexed": true,
          "internalType": "address",
          "name": "newOwner",
          "type": "address"
        }
      ],
      "name": "OwnershipTransferred",
      "type": "event"
    },
    {
      "anonymous": false,
      "inputs": [
        {
          "indexed": true,
          "internalType": "address",
          "name": "_asset",
          "type": "address"
        },
        {
          "indexed": false,
          "internalType": "uint256",
          "name": "_attemptedYOUmount",
          "type": "uint256"
        },
        {
          "indexed": false,
          "internalType": "uint256",
          "name": "_actualYOUmount",
          "type": "uint256"
        },
        {
          "indexed": false,
          "internalType": "uint256",
          "name": "_AssetSent",
          "type": "uint256"
        },
        {
          "indexed": false,
          "internalType": "uint256",
          "name": "_AssetFee",
          "type": "uint256"
        }
      ],
      "name": "Redemption",
      "type": "event"
    },
    {
      "anonymous": false,
      "inputs": [
        {
          "indexed": false,
          "internalType": "address",
          "name": "_sortedTrovesAddress",
          "type": "address"
        }
      ],
      "name": "SortedTrovesAddressChanged",
      "type": "event"
    },
    {
      "anonymous": false,
      "inputs": [
        {
          "indexed": false,
          "internalType": "address",
          "name": "_stabilityPoolAddress",
          "type": "address"
        }
      ],
      "name": "StabilityPoolAddressChanged",
      "type": "event"
    },
    {
      "anonymous": false,
      "inputs": [
        {
          "indexed": true,
          "internalType": "address",
          "name": "_asset",
          "type": "address"
        },
        {
          "indexed": false,
          "internalType": "uint256",
          "name": "_totalStakesSnapshot",
          "type": "uint256"
        },
        {
          "indexed": false,
          "internalType": "uint256",
          "name": "_totalCollateralSnapshot",
          "type": "uint256"
        }
      ],
      "name": "SystemSnapshotsUpdated",
      "type": "event"
    },
    {
      "anonymous": false,
      "inputs": [
        {
          "indexed": true,
          "internalType": "address",
          "name": "_asset",
          "type": "address"
        },
        {
          "indexed": false,
          "internalType": "uint256",
          "name": "_newTotalStakes",
          "type": "uint256"
        }
      ],
      "name": "TotalStakesUpdated",
      "type": "event"
    },
    {
      "anonymous": false,
      "inputs": [
        {
          "indexed": true,
          "internalType": "address",
          "name": "_asset",
          "type": "address"
        },
        {
          "indexed": false,
          "internalType": "address",
          "name": "_borrower",
          "type": "address"
        },
        {
          "indexed": false,
          "internalType": "uint256",
          "name": "_newIndex",
          "type": "uint256"
        }
      ],
      "name": "TroveIndexUpdated",
      "type": "event"
    },
    {
      "anonymous": false,
      "inputs": [
        {
          "indexed": true,
          "internalType": "address",
          "name": "_asset",
          "type": "address"
        },
        {
          "indexed": true,
          "internalType": "address",
          "name": "_borrower",
          "type": "address"
        },
        {
          "indexed": false,
          "internalType": "uint256",
          "name": "_debt",
          "type": "uint256"
        },
        {
          "indexed": false,
          "internalType": "uint256",
          "name": "_coll",
          "type": "uint256"
        },
        {
          "indexed": false,
          "internalType": "uint8",
          "name": "operation",
          "type": "uint8"
        }
      ],
      "name": "TroveLiquidated",
      "type": "event"
    },
    {
      "anonymous": false,
      "inputs": [
        {
          "indexed": true,
          "internalType": "address",
          "name": "_asset",
          "type": "address"
        },
        {
          "indexed": false,
          "internalType": "uint256",
          "name": "_L_ETH",
          "type": "uint256"
        },
        {
          "indexed": false,
          "internalType": "uint256",
          "name": "_L_UDebt",
          "type": "uint256"
        }
      ],
      "name": "TroveSnapshotsUpdated",
      "type": "event"
    },
    {
      "anonymous": false,
      "inputs": [
        {
          "indexed": true,
          "internalType": "address",
          "name": "_asset",
          "type": "address"
        },
        {
          "indexed": true,
          "internalType": "address",
          "name": "_borrower",
          "type": "address"
        },
        {
          "indexed": false,
          "internalType": "uint256",
          "name": "_debt",
          "type": "uint256"
        },
        {
          "indexed": false,
          "internalType": "uint256",
          "name": "_coll",
          "type": "uint256"
        },
        {
          "indexed": false,
          "internalType": "uint256",
          "name": "stake",
          "type": "uint256"
        },
        {
          "indexed": false,
          "internalType": "uint8",
          "name": "operation",
          "type": "uint8"
        }
      ],
      "name": "TroveUpdated",
      "type": "event"
    },
    {
      "anonymous": false,
      "inputs": [
        {
          "indexed": false,
          "internalType": "address",
          "name": "_newUTokenAddress",
          "type": "address"
        }
      ],
      "name": "UTokenAddressChanged",
      "type": "event"
    },
    {
      "anonymous": false,
      "inputs": [
        {
          "indexed": true,
          "internalType": "address",
          "name": "newAddress",
          "type": "address"
        }
      ],
      "name": "VaultParametersBaseChanged",
      "type": "event"
    },
    {
      "anonymous": false,
      "inputs": [
        {
          "indexed": false,
          "internalType": "address",
          "name": "_YOUStakingAddress",
          "type": "address"
        }
      ],
      "name": "YOUStakingAddressChanged",
      "type": "event"
    },
    {
      "inputs": [],
      "name": "BETA",
      "outputs": [
        {
          "internalType": "uint256",
          "name": "",
          "type": "uint256"
        }
      ],
      "stateMutability": "view",
      "type": "function"
    },
    {
      "inputs": [],
      "name": "DECIMAL_PRECISION",
      "outputs": [
        {
          "internalType": "uint256",
          "name": "",
          "type": "uint256"
        }
      ],
      "stateMutability": "view",
      "type": "function"
    },
    {
      "inputs": [],
      "name": "ETH_REF_ADDRESS",
      "outputs": [
        {
          "internalType": "address",
          "name": "",
          "type": "address"
        }
      ],
      "stateMutability": "view",
      "type": "function"
    },
    {
      "inputs": [],
      "name": "NAME",
      "outputs": [
        {
          "internalType": "string",
          "name": "",
          "type": "string"
        }
      ],
      "stateMutability": "view",
      "type": "function"
    },
    {
      "inputs": [
        {
          "internalType": "address",
          "name": "_user",
          "type": "address"
        }
      ],
      "name": "addUserToWhitelistRedemption",
      "outputs": [],
      "stateMutability": "nonpayable",
      "type": "function"
    },
    {
      "inputs": [
        {
          "internalType": "address",
          "name": "_asset",
          "type": "address"
        }
      ],
      "name": "getEntireSystemColl",
      "outputs": [
        {
          "internalType": "uint256",
          "name": "entireSystemColl",
          "type": "uint256"
        }
      ],
      "stateMutability": "view",
      "type": "function"
    },
    {
      "inputs": [
        {
          "internalType": "address",
          "name": "_asset",
          "type": "address"
        }
      ],
      "name": "getEntireSystemDebt",
      "outputs": [
        {
          "internalType": "uint256",
          "name": "entireSystemDebt",
          "type": "uint256"
        }
      ],
      "stateMutability": "view",
      "type": "function"
    },
    {
      "inputs": [
        {
          "internalType": "address",
          "name": "_asset",
          "type": "address"
        },
        {
          "internalType": "uint256",
          "name": "_assetDraw",
          "type": "uint256"
        }
      ],
      "name": "getRedemptionFeeWithDecay",
      "outputs": [
        {
          "internalType": "uint256",
          "name": "",
          "type": "uint256"
        }
      ],
      "stateMutability": "view",
      "type": "function"
    },
    {
      "inputs": [
        {
          "internalType": "address",
          "name": "_asset",
          "type": "address"
        }
      ],
      "name": "getRedemptionRate",
      "outputs": [
        {
          "internalType": "uint256",
          "name": "",
          "type": "uint256"
        }
      ],
      "stateMutability": "view",
      "type": "function"
    },
    {
      "inputs": [
        {
          "internalType": "address",
          "name": "_asset",
          "type": "address"
        }
      ],
      "name": "getRedemptionRateWithDecay",
      "outputs": [
        {
          "internalType": "uint256",
          "name": "",
          "type": "uint256"
        }
      ],
      "stateMutability": "view",
      "type": "function"
    },
    {
      "inputs": [],
      "name": "isInitialized",
      "outputs": [
        {
          "internalType": "bool",
          "name": "",
          "type": "bool"
        }
      ],
      "stateMutability": "view",
      "type": "function"
    },
    {
      "inputs": [],
      "name": "isRedemptionWhitelisted",
      "outputs": [
        {
          "internalType": "bool",
          "name": "",
          "type": "bool"
        }
      ],
      "stateMutability": "view",
      "type": "function"
    },
    {
      "inputs": [],
      "name": "owner",
      "outputs": [
        {
          "internalType": "address",
          "name": "",
          "type": "address"
        }
      ],
      "stateMutability": "view",
      "type": "function"
    },
    {
      "inputs": [
        {
          "internalType": "address",
          "name": "_asset",
          "type": "address"
        },
        {
          "internalType": "uint256",
          "name": "_Uamount",
          "type": "uint256"
        },
        {
          "internalType": "address",
          "name": "_firstRedemptionHint",
          "type": "address"
        },
        {
          "internalType": "address",
          "name": "_upperPartialRedemptionHint",
          "type": "address"
        },
        {
          "internalType": "address",
          "name": "_lowerPartialRedemptionHint",
          "type": "address"
        },
        {
          "internalType": "uint256",
          "name": "_partialRedemptionHintNICR",
          "type": "uint256"
        },
        {
          "internalType": "uint256",
          "name": "_maxIterations",
          "type": "uint256"
        },
        {
          "internalType": "uint256",
          "name": "_maxFeePercentage",
          "type": "uint256"
        }
      ],
      "name": "redeemCollateral",
      "outputs": [],
      "stateMutability": "nonpayable",
      "type": "function"
    },
    {
      "inputs": [
        {
          "internalType": "address",
          "name": "",
          "type": "address"
        }
      ],
      "name": "redemptionWhitelist",
      "outputs": [
        {
          "internalType": "bool",
          "name": "",
          "type": "bool"
        }
      ],
      "stateMutability": "view",
      "type": "function"
    },
    {
      "inputs": [
        {
          "internalType": "address",
          "name": "_user",
          "type": "address"
        }
      ],
      "name": "removeUserFromWhitelistRedemption",
      "outputs": [],
      "stateMutability": "nonpayable",
      "type": "function"
    },
    {
      "inputs": [],
      "name": "renounceOwnership",
      "outputs": [],
      "stateMutability": "nonpayable",
      "type": "function"
    },
    {
      "inputs": [
        {
          "internalType": "contract TroveManager",
          "name": "_troveManager",
          "type": "address"
        }
      ],
      "name": "setAddresses",
      "outputs": [],
      "stateMutability": "nonpayable",
      "type": "function"
    },
    {
      "inputs": [
        {
          "internalType": "bool",
          "name": "_status",
          "type": "bool"
        }
      ],
      "name": "setRedemptionWhitelistStatus",
      "outputs": [],
      "stateMutability": "nonpayable",
      "type": "function"
    },
    {
      "inputs": [
        {
          "internalType": "address",
          "name": "_vaultParams",
          "type": "address"
        }
      ],
      "name": "setVestaParameters",
      "outputs": [],
      "stateMutability": "nonpayable",
      "type": "function"
    },
    {
      "inputs": [
        {
          "internalType": "address",
          "name": "newOwner",
          "type": "address"
        }
      ],
      "name": "transferOwnership",
      "outputs": [],
      "stateMutability": "nonpayable",
      "type": "function"
    },
    {
      "inputs": [],
      "name": "troveManager",
      "outputs": [
        {
          "internalType": "contract TroveManager",
          "name": "",
          "type": "address"
        }
      ],
      "stateMutability": "view",
      "type": "function"
    },
    {
      "inputs": [],
      "name": "vestaParams",
      "outputs": [
        {
          "internalType": "contract IVestaParameters",
          "name": "",
          "type": "address"
        }
      ],
      "stateMutability": "view",
      "type": "function"
    },
    {
      "inputs": [],
      "name": "wstETH",
      "outputs": [
        {
          "internalType": "address",
          "name": "",
          "type": "address"
        }
      ],
      "stateMutability": "view",
      "type": "function"
    }
  ],
  "bytecode": "0x608060405234801561001057600080fd5b506131e1806100206000396000f3fe608060405234801561001057600080fd5b50600436106101285760003560e01c8063071a75411461012d57806323977b4d1461014857806327d04b351461017b578063392e53cd1461018e5780633d36cc95146101a25780633d83908a146101b557806340a44bd1146101d557806341107210146101ea578063431d4724146101fd5780634aa07e64146102105780635cc4d14814610223578063715018a61461023657806372141e631461023e57806381d3c435146102465780638da5cb5b146102595780639e86d0c414610261578063a20baee614610274578063a3f4df7e14610283578063acc18b53146102c0578063b4c9d17e146102d3578063d201d328146102e6578063f2fde38b146102f9578063f6c5d7361461030c578063f7a22d8014610320575b600080fd5b610135600281565b6040519081526020015b60405180910390f35b61016b610156366004612d54565b60676020526000908152604090205460ff1681565b604051901515815260200161013f565b610135610189366004612d54565b610333565b60665461016b90600160a81b900460ff1681565b6101356101b0366004612d54565b610514565b6066546101c8906001600160a01b031681565b60405161013f9190612d71565b6101e86101e3366004612d85565b6105a1565b005b6101356101f8366004612e06565b611396565b6101e861020b366004612d54565b6113ba565b6000546101c8906001600160a01b031681565b6101e8610231366004612d54565b6113e6565b6101e8611438565b6101c8600081565b6101e8610254366004612d54565b61144c565b6101c86115e7565b61013561026f366004612d54565b6115f6565b610135670de0b6b3a764000081565b6102b3604051806040016040528060118152602001702932b232b6b83a34b7b726b0b730b3b2b960791b81525081565b60405161013f9190612e32565b6101e86102ce366004612e8e565b611782565b6101e86102e1366004612d54565b6117a8565b6101356102f4366004612d54565b6117d1565b6101e8610307366004612d54565b611812565b60665461016b90600160a01b900460ff1681565b6065546101c8906001600160a01b031681565b600080606560009054906101000a90046001600160a01b03166001600160a01b0316637f7dde4a6040518163ffffffff1660e01b8152600401602060405180830381865afa158015610389573d6000803e3d6000fd5b505050506040513d601f19601f820116820180604052508101906103ad9190612eab565b6001600160a01b031663631a53d4846040518263ffffffff1660e01b81526004016103d89190612d71565b602060405180830381865afa1580156103f5573d6000803e3d6000fd5b505050506040513d601f19601f820116820180604052508101906104199190612ec8565b90506000606560009054906101000a90046001600160a01b03166001600160a01b0316633cc742256040518163ffffffff1660e01b8152600401602060405180830381865afa158015610470573d6000803e3d6000fd5b505050506040513d601f19601f820116820180604052508101906104949190612eab565b6001600160a01b031663631a53d4856040518263ffffffff1660e01b81526004016104bf9190612d71565b602060405180830381865afa1580156104dc573d6000803e3d6000fd5b505050506040513d601f19601f820116820180604052508101906105009190612ec8565b905061050c828261188b565b949350505050565b600061051f82611897565b606654604051630635365b60e01b815261059b9184916001600160a01b0390911690630635365b90610555908490600401612d71565b602060405180830381865afa158015610572573d6000803e3d6000fd5b505050506040513d601f19601f820116820180604052508101906105969190612ec8565b6118c5565b92915050565b6105aa88611897565b606654600160a01b900460ff1615610620573360009081526067602052604090205460ff166106205760405162461bcd60e51b815260206004820152601e60248201527f4e6f742077686974656c697374656420666f7220526564656d7074696f6e000060448201526064015b60405180910390fd5b606554604051630e24a3fb60e31b81526001600160a01b03909116906371251fd890610650908b90600401612d71565b602060405180830381865afa15801561066d573d6000803e3d6000fd5b505050506040513d601f19601f820116820180604052508101906106919190612ec8565b4210156106ec5760405162461bcd60e51b815260206004820152602360248201527f54726f76654d616e616765723a20526564656d7074696f6e20697320626c6f636044820152621ad95960ea1b6064820152608401610617565b60408051808201909152600080825260208201526040805160e08101808352606554633fbeef2560e11b909152915160009282916001600160a01b0390911690637f7dde4a9060e4808501916020918187030181865afa158015610754573d6000803e3d6000fd5b505050506040513d601f19601f820116820180604052508101906107789190612eab565b6001600160a01b03168152602001606560009054906101000a90046001600160a01b03166001600160a01b0316633cc742256040518163ffffffff1660e01b8152600401602060405180830381865afa1580156107d9573d6000803e3d6000fd5b505050506040513d601f19601f820116820180604052508101906107fd9190612eab565b6001600160a01b03168152602001606660009054906101000a90046001600160a01b03166001600160a01b031663633156376040518163ffffffff1660e01b8152600401602060405180830381865afa15801561085e573d6000803e3d6000fd5b505050506040513d601f19601f820116820180604052508101906108829190612eab565b6001600160a01b03168152602001606660009054906101000a90046001600160a01b03166001600160a01b031663aeabd5cc6040518163ffffffff1660e01b8152600401602060405180830381865afa1580156108e3573d6000803e3d6000fd5b505050506040513d601f19601f820116820180604052508101906109079190612eab565b6001600160a01b03168152602001606660009054906101000a90046001600160a01b03166001600160a01b031663ae9187546040518163ffffffff1660e01b8152600401602060405180830381865afa158015610968573d6000803e3d6000fd5b505050506040513d601f19601f8201168201806040525081019061098c9190612eab565b6001600160a01b03168152602001606660009054906101000a90046001600160a01b03166001600160a01b031663cda775f96040518163ffffffff1660e01b8152600401602060405180830381865afa1580156109ed573d6000803e3d6000fd5b505050506040513d601f19601f82011682018060405250810190610a119190612eab565b6001600160a01b03168152602001606660009054906101000a90046001600160a01b03166001600160a01b031663fe9d03236040518163ffffffff1660e01b8152600401602060405180830381865afa158015610a72573d6000803e3d6000fd5b505050506040513d601f19601f82011682018060405250810190610a969190612eab565b6001600160a01b03168152509050610aec60405180610100016040528060008152602001600081526020016000815260200160008152602001600081526020016000815260200160008152602001600081525090565b610af68b85611957565b606560009054906101000a90046001600160a01b03166001600160a01b031663741bef1a6040518163ffffffff1660e01b8152600401602060405180830381865afa158015610b49573d6000803e3d6000fd5b505050506040513d601f19601f82011682018060405250810190610b6d9190612eab565b6001600160a01b031663ace1798e8c6040518263ffffffff1660e01b8152600401610b989190612d71565b6020604051808303816000875af1158015610bb7573d6000803e3d6000fd5b505050506040513d601f19601f82011682018060405250810190610bdb9190612ec8565b60c08201819052610bed908c90611a41565b610bf68a611b05565b610c058260400151338c611b4e565b610c0e8b610333565b60e0820152898152608082015160c0820151610c2d918d918c90611c21565b15610c43576001600160a01b0389168352610e5f565b81608001516001600160a01b031663760827158c6040518263ffffffff1660e01b8152600401610c739190612d71565b602060405180830381865afa158015610c90573d6000803e3d6000fd5b505050506040513d601f19601f82011682018060405250810190610cb49190612eab565b6001600160a01b031683525b82516001600160a01b031615801590610dd557506065546040516305f8cff960e01b81526001600160a01b03909116906305f8cff990610d04908e90600401612d71565b602060405180830381865afa158015610d21573d6000803e3d6000fd5b505050506040513d601f19601f82011682018060405250810190610d459190612ec8565b606660009054906101000a90046001600160a01b03166001600160a01b031663b1eafaab8d86600001518560c001516040518463ffffffff1660e01b8152600401610d9293929190612ef1565b602060405180830381865afa158015610daf573d6000803e3d6000fd5b505050506040513d601f19601f82011682018060405250810190610dd39190612ec8565b105b15610e5f57608082015183516040516239c6e160ea1b81526001600160a01b039092169163e71b840091610e0e918f9190600401612f15565b602060405180830381865afa158015610e2b573d6000803e3d6000fd5b505050506040513d601f19601f82011682018060405250810190610e4f9190612eab565b6001600160a01b03168352610cc0565b84600003610e6d5760001994505b82516001600160a01b031615801590610e865750805115155b8015610e925750600085115b156110655784610ea181612f45565b608084015185516040516239c6e160ea1b81529298506001600160a01b03909116925063e71b840091610ed8918f91600401612f15565b602060405180830381865afa158015610ef5573d6000803e3d6000fd5b505050506040513d601f19601f82011682018060405250810190610f199190612eab565b83602001906001600160a01b031690816001600160a01b031681525050606660009054906101000a90046001600160a01b03166001600160a01b031663619b0dae8c8460000151856020015187600001516040518563ffffffff1660e01b8152600401610faf94939291906001600160a01b03948516815292841660208401529083166040830152909116606082015260800190565b600060405180830381600087803b158015610fc957600080fd5b505af1158015610fdd573d6000803e3d6000fd5b505050506000610fff8c84866000015185600001518660c001518e8e8e611f17565b90508060400151156110115750611065565b805160208301516110219161188b565b602080840191909152810151604083015161103b9161188b565b60408301528051825161104d91612608565b82525060208301516001600160a01b03168352610e6d565b60008160400151116110b95760405162461bcd60e51b815260206004820152601e60248201527f54726f76654d616e616765723a20556e61626c6520746f2072656465656d00006044820152606401610617565b6110d18b82604001518360c001518460e00151612614565b506110e08b826040015161274b565b6060820181905260408201516110f7919086612759565b81600001516001600160a01b03166347878f158c846060015184606001516040518463ffffffff1660e01b815260040161113393929190612ef1565b600060405180830381600087803b15801561114d57600080fd5b505af1158015611161573d6000803e3d6000fd5b5050505081606001516001600160a01b031663122581e68c83606001516040518363ffffffff1660e01b815260040161119b929190612f5c565b600060405180830381600087803b1580156111b557600080fd5b505af11580156111c9573d6000803e3d6000fd5b50505050606081015160408201516111e091612608565b8160800181815250508a6001600160a01b03167f08b6f1ce3f9ab2722e8ea40c31a3e3a806a41702c5994f29af43dc0c1f2837df8b83602001518460400151856060015160405161124a949392919093845260208401929092526040830152606082015260800190565b60405180910390a281604001516001600160a01b0316639dc29fac3383602001516040518363ffffffff1660e01b8152600401611288929190612f5c565b600060405180830381600087803b1580156112a257600080fd5b505af11580156112b6573d6000803e3d6000fd5b505083516020840151604051631197fc7160e01b81526001600160a01b039092169350631197fc7192506112ef918f9190600401612f5c565b600060405180830381600087803b15801561130957600080fd5b505af115801561131d573d6000803e3d6000fd5b5050835160808401516040516347878f1560e01b81526001600160a01b0390921693506347878f159250611357918f913391600401612ef1565b600060405180830381600087803b15801561137157600080fd5b505af1158015611385573d6000803e3d6000fd5b505050505050505050505050505050565b60006113a183611897565b6113b36113ad84610514565b83612838565b9392505050565b6113c261289f565b6001600160a01b03166000908152606760205260409020805460ff19166001179055565b6113ee61289f565b606580546001600160a01b0319166001600160a01b0383169081179091556040517f98c5e303d085e26fdf8af6a41184b0937ed01142ae7fdfa02dcc87e7079c325390600090a250565b61144061289f565b61144a60006128fe565b565b600054600160a81b900460ff161580801561147457506000546001600160a01b90910460ff16105b806114955750303b1580156114955750600054600160a01b900460ff166001145b6114f85760405162461bcd60e51b815260206004820152602e60248201527f496e697469616c697a61626c653a20636f6e747261637420697320616c72656160448201526d191e481a5b9a5d1a585b1a5e995960921b6064820152608401610617565b6000805460ff60a01b1916600160a01b1790558015611525576000805460ff60a81b1916600160a81b1790555b606654600160a81b900460ff161561156e5760405162461bcd60e51b815260206004820152600c60248201526b085a5b9a5d1a585b1a5e995960a21b6044820152606401610617565b61157782612950565b606680546001600160a01b038416600161ff0160a01b031990911617600160a81b17905580156115e3576000805460ff60a81b19169055604051600181527f7f26b83ff96e1f2b6a682f133852f6798a09c465da95921460cefb38474024989060200160405180910390a15b5050565b6033546001600160a01b031690565b600080606560009054906101000a90046001600160a01b03166001600160a01b0316637f7dde4a6040518163ffffffff1660e01b8152600401602060405180830381865afa15801561164c573d6000803e3d6000fd5b505050506040513d601f19601f820116820180604052508101906116709190612eab565b6001600160a01b0316635373433f846040518263ffffffff1660e01b815260040161169b9190612d71565b602060405180830381865afa1580156116b8573d6000803e3d6000fd5b505050506040513d601f19601f820116820180604052508101906116dc9190612ec8565b90506000606560009054906101000a90046001600160a01b03166001600160a01b0316633cc742256040518163ffffffff1660e01b8152600401602060405180830381865afa158015611733573d6000803e3d6000fd5b505050506040513d601f19601f820116820180604052508101906117579190612eab565b6001600160a01b0316635373433f856040518263ffffffff1660e01b81526004016104bf9190612d71565b61178a61289f565b60668054911515600160a01b0260ff60a01b19909216919091179055565b6117b061289f565b6001600160a01b03166000908152606760205260409020805460ff19169055565b60006117dc82611897565b606654604051630b8d289d60e31b815261059b9184916001600160a01b0390911690635c6944e890610555908490600401612d71565b61181a61289f565b6001600160a01b03811661187f5760405162461bcd60e51b815260206004820152602660248201527f4f776e61626c653a206e6577206f776e657220697320746865207a65726f206160448201526564647265737360d01b6064820152608401610617565b611888816128fe565b50565b60006113b38284612f75565b6000546001600160a01b0382811691161461188857604051631a40f2bd60e31b815260040160405180910390fd5b606554604051635c197b9960e01b81526000916113b3916119499185916001600160a01b0390911690635c197b9990611902908990600401612d71565b602060405180830381865afa15801561191f573d6000803e3d6000fd5b505050506040513d601f19601f820116820180604052508101906119439190612ec8565b9061188b565b670de0b6b3a76400006129f5565b606554604051635c197b9960e01b81526001600160a01b0390911690635c197b9990611987908590600401612d71565b602060405180830381865afa1580156119a4573d6000803e3d6000fd5b505050506040513d601f19601f820116820180604052508101906119c89190612ec8565b81101580156119df5750670de0b6b3a76400008111155b6115e35760405162461bcd60e51b815260206004820152602d60248201527f4d6178206665652070657263656e74206d757374206265206265747765656e2060448201526c302e352520616e64203130302560981b6064820152608401610617565b6065546040516305f8cff960e01b81526001600160a01b03909116906305f8cff990611a71908590600401612d71565b602060405180830381865afa158015611a8e573d6000803e3d6000fd5b505050506040513d601f19601f82011682018060405250810190611ab29190612ec8565b611abc8383612a0b565b10156115e35760405162461bcd60e51b81526020600482015260186024820152772a3937bb32a6b0b730b3b2b91d1010aa21a9101e1026a1a960411b6044820152606401610617565b600081116118885760405162461bcd60e51b8152602060048201526016602482015275151c9bdd9953585b9859d95c8e880857d85b5bdd5b9d60521b6044820152606401610617565b6040516370a0823160e01b815281906001600160a01b038516906370a0823190611b7c908690600401612d71565b602060405180830381865afa158015611b99573d6000803e3d6000fd5b505050506040513d601f19601f82011682018060405250810190611bbd9190612ec8565b1015611c1c5760405162461bcd60e51b815260206004820152602860248201527f54726f76654d616e616765723a20546f6f206d75636820726564656d7074696f6044820152671b88185b5bdd5b9d60c21b6064820152608401610617565b505050565b60006001600160a01b0383161580611ca55750604051631da4d95d60e31b81526001600160a01b0385169063ed26cae890611c629088908790600401612f15565b602060405180830381865afa158015611c7f573d6000803e3d6000fd5b505050506040513d601f19601f82011682018060405250810190611ca39190612f88565b155b80611d9357506065546040516305f8cff960e01b81526001600160a01b03909116906305f8cff990611cdb908890600401612d71565b602060405180830381865afa158015611cf8573d6000803e3d6000fd5b505050506040513d601f19601f82011682018060405250810190611d1c9190612ec8565b60665460405163b1eafaab60e01b81526001600160a01b039091169063b1eafaab90611d5090899088908890600401612ef1565b602060405180830381865afa158015611d6d573d6000803e3d6000fd5b505050506040513d601f19601f82011682018060405250810190611d919190612ec8565b105b15611da05750600061050c565b6040516339ed25cd60e01b81526000906001600160a01b038616906339ed25cd90611dd19089908890600401612f15565b602060405180830381865afa158015611dee573d6000803e3d6000fd5b505050506040513d601f19601f82011682018060405250810190611e129190612eab565b90506001600160a01b0381161580611f0d57506065546040516305f8cff960e01b81526001600160a01b03909116906305f8cff990611e55908990600401612d71565b602060405180830381865afa158015611e72573d6000803e3d6000fd5b505050506040513d601f19601f82011682018060405250810190611e969190612ec8565b60665460405163b1eafaab60e01b81526001600160a01b039091169063b1eafaab90611eca908a9086908990600401612ef1565b602060405180830381865afa158015611ee7573d6000803e3d6000fd5b505050506040513d601f19601f82011682018060405250810190611f0b9190612ec8565b105b9695505050505050565b611f3d604051806060016040528060008152602001600081526020016000151581525090565b604080516060810182526001600160a01b03808c168083528a8216602084018190528385018a90526066549451637e7227cd60e01b81529394600094931692637e7227cd92611f8f9291600401612f15565b60c060405180830381865afa158015611fac573d6000803e3d6000fd5b505050506040513d601f19601f82011682018060405250810190611fd09190612fcb565b905061206b88612066606560009054906101000a90046001600160a01b03166001600160a01b031663e29607cf8f6040518263ffffffff1660e01b815260040161201a9190612d71565b602060405180830381865afa158015612037573d6000803e3d6000fd5b505050506040513d601f19601f8201168201806040525081019061205b9190612ec8565b602085015190612608565b6129f5565b80845261208c90889061208690670de0b6b3a7640000612a3a565b90612a46565b6020808501919091528351908201516000916120a89190612608565b905060006120c78560200151846040015161260890919063ffffffff16565b9050606560009054906101000a90046001600160a01b03166001600160a01b031663e29607cf8e6040518263ffffffff1660e01b815260040161210a9190612d71565b602060405180830381865afa158015612127573d6000803e3d6000fd5b505050506040513d601f19601f8201168201806040525081019061214b9190612ec8565b820361230a5760665484516020860151604051633ed3a18f60e21b81526001600160a01b039093169263fb4e863c92612188929091600401612f15565b600060405180830381600087803b1580156121a257600080fd5b505af11580156121b6573d6000803e3d6000fd5b505060665486516020880151604051631e75440160e11b81526001600160a01b039093169450633cea880293506121ef92600401612f15565b600060405180830381600087803b15801561220957600080fd5b505af115801561221d573d6000803e3d6000fd5b505050506122bb84600001518d8660200151606560009054906101000a90046001600160a01b03166001600160a01b031663e29607cf89600001516040518263ffffffff1660e01b81526004016122749190612d71565b602060405180830381865afa158015612291573d6000803e3d6000fd5b505050506040513d601f19601f820116820180604052508101906122b59190612ec8565b85612a52565b83602001516001600160a01b031684600001516001600160a01b031660008051602061318c833981519152600080600060036040516122fd949392919061308c565b60405180910390a36125f7565b60006123168284612c65565b905086811415806123a15750606554855160405163c4063a1960e01b81526001600160a01b039092169163c4063a199161235291600401612d71565b602060405180830381865afa15801561236f573d6000803e3d6000fd5b505050506040513d601f19601f820116820180604052508101906123939190612ec8565b855161239f9085612c94565b105b156123b857505060016040850152506125fc915050565b60808d01518551602087015160405163bc9b5bd560e01b81526001600160a01b0392831660048201529082166024820152604481018490528b821660648201528a8216608482015291169063bc9b5bd59060a401600060405180830381600087803b15801561242657600080fd5b505af115801561243a573d6000803e3d6000fd5b5050505060208085018490526040808601849052606654918701518751915163789089fd60e01b81526001600160a01b039093169263789089fd92612484929189906004016130ae565b600060405180830381600087803b15801561249e57600080fd5b505af11580156124b2573d6000803e3d6000fd5b50506066548751602089015160405163dbe9f91960e01b81526001600160a01b03909316945063dbe9f91993506124eb92600401612f15565b6020604051808303816000875af115801561250a573d6000803e3d6000fd5b505050506040513d601f19601f8201168201806040525081019061252e9190612ec8565b5060665460208601518651604051637e7227cd60e01b81526001600160a01b0390931692637e7227cd92612566929091600401612f15565b60c060405180830381865afa158015612583573d6000803e3d6000fd5b505050506040513d601f19601f820116820180604052508101906125a79190612fcb565b935084602001516001600160a01b031685600001516001600160a01b031660008051602061318c8339815191528585886060015160036040516125ed949392919061308c565b60405180910390a3505b505050505b98975050505050505050565b60006113b38284613129565b606654604051630635365b60e01b815260009182916001600160a01b0390911690630635365b90612649908990600401612d71565b602060405180830381865afa158015612666573d6000803e3d6000fd5b505050506040513d601f19601f8201168201806040525081019061268a9190612ec8565b9050600061269c846120868888612a3a565b905060006126b56126ae836002612a46565b849061188b565b90506126c981670de0b6b3a76400006129f5565b9050600081116126db576126db61313c565b60665460405163389062d760e01b81526001600160a01b039091169063389062d79061270d908b908590600401612f5c565b600060405180830381600087803b15801561272757600080fd5b505af115801561273b573d6000803e3d6000fd5b50929a9950505050505050505050565b60006113b36113ad846117d1565b60006127e083612086606560009054906101000a90046001600160a01b03166001600160a01b031663a20baee66040518163ffffffff1660e01b8152600401602060405180830381865afa1580156127b5573d6000803e3d6000fd5b505050506040513d601f19601f820116820180604052508101906127d99190612ec8565b8790612a3a565b9050818111156128325760405162461bcd60e51b815260206004820152601d60248201527f4665652065786365656465642070726f7669646564206d6178696d756d0000006044820152606401610617565b50505050565b600080612851670de0b6b3a76400006120868686612a3a565b90508281106113b35760405162461bcd60e51b815260206004820152601a60248201527954726f76654d616e616765723a20546f6f206d7563682066656560301b6044820152606401610617565b336128a86115e7565b6001600160a01b03161461144a5760405162461bcd60e51b815260206004820181905260248201527f4f776e61626c653a2063616c6c6572206973206e6f7420746865206f776e65726044820152606401610617565b603380546001600160a01b038381166001600160a01b0319831681179093556040519116919082907f8be0079c531659141344cd1fd0a4f28419497f9722a3daafe3b4186f6b6457e090600090a35050565b6001600160a01b0381166129a65760405162461bcd60e51b815260206004820152601e60248201527f4163636f756e742063616e6e6f74206265207a65726f206164647265737300006044820152606401610617565b803b806115e35760405162461bcd60e51b815260206004820181905260248201527f4163636f756e7420636f64652073697a652063616e6e6f74206265207a65726f6044820152606401610617565b6000818310612a0457816113b3565b5090919050565b600080612a17846115f6565b90506000612a2485610333565b9050612a31828286612d13565b95945050505050565b60006113b38284613152565b60006113b38284613169565b83604001516001600160a01b0316639dc29fac606660009054906101000a90046001600160a01b03166001600160a01b031663fe9d03236040518163ffffffff1660e01b8152600401602060405180830381865afa158015612ab8573d6000803e3d6000fd5b505050506040513d601f19601f82011682018060405250810190612adc9190612eab565b846040518363ffffffff1660e01b8152600401612afa929190612f5c565b600060405180830381600087803b158015612b1457600080fd5b505af1158015612b28573d6000803e3d6000fd5b50508551604051631197fc7160e01b81526001600160a01b039091169250631197fc719150612b5d9088908690600401612f5c565b600060405180830381600087803b158015612b7757600080fd5b505af1158015612b8b573d6000803e3d6000fd5b505050508360a001516001600160a01b031663fe9454b48685846040518463ffffffff1660e01b8152600401612bc393929190612ef1565b600060405180830381600087803b158015612bdd57600080fd5b505af1158015612bf1573d6000803e3d6000fd5b5050855160a08701516040516347878f1560e01b81526001600160a01b0390921693506347878f159250612c2c918991908690600401612ef1565b600060405180830381600087803b158015612c4657600080fd5b505af1158015612c5a573d6000803e3d6000fd5b505050505050505050565b60008115612c8b57612c84826120868568056bc75e2d63100000612a3a565b905061059b565b5060001961059b565b60655460405163e29607cf60e01b81526000916113b3916001600160a01b039091169063e29607cf90612ccb908790600401612d71565b602060405180830381865afa158015612ce8573d6000803e3d6000fd5b505050506040513d601f19601f82011682018060405250810190612d0c9190612ec8565b8390612608565b60008215612d34576000612d2b846120868786612a3a565b91506113b39050565b506000199392505050565b6001600160a01b038116811461188857600080fd5b600060208284031215612d6657600080fd5b81356113b381612d3f565b6001600160a01b0391909116815260200190565b600080600080600080600080610100898b031215612da257600080fd5b8835612dad81612d3f565b9750602089013596506040890135612dc481612d3f565b95506060890135612dd481612d3f565b94506080890135612de481612d3f565b979a969950949793969560a0850135955060c08501359460e001359350915050565b60008060408385031215612e1957600080fd5b8235612e2481612d3f565b946020939093013593505050565b600060208083528351808285015260005b81811015612e5f57858101830151858201604001528201612e43565b506000604082860101526040601f19601f8301168501019250505092915050565b801515811461188857600080fd5b600060208284031215612ea057600080fd5b81356113b381612e80565b600060208284031215612ebd57600080fd5b81516113b381612d3f565b600060208284031215612eda57600080fd5b5051919050565b8051612eec81612d3f565b919050565b6001600160a01b039384168152919092166020820152604081019190915260600190565b6001600160a01b0392831681529116602082015260400190565b634e487b7160e01b600052601160045260246000fd5b600081612f5457612f54612f2f565b506000190190565b6001600160a01b03929092168252602082015260400190565b8082018082111561059b5761059b612f2f565b600060208284031215612f9a57600080fd5b81516113b381612e80565b805160058110612eec57600080fd5b80516001600160801b0381168114612eec57600080fd5b600060c08284031215612fdd57600080fd5b60405160c081016001600160401b038111828210171561300d57634e487b7160e01b600052604160045260246000fd5b60405261301983612ee1565b815260208301516020820152604083015160408201526060830151606082015261304560808401612fa5565b608082015261305660a08401612fb4565b60a08201529392505050565b634e487b7160e01b600052602160045260246000fd5b6004811061308857613088613062565b9052565b848152602081018490526040810183905260808101612a316060830184613078565b60006101008201905060018060a01b0380861683528085166020840152808451166040840152506020830151606083015260408301516080830152606083015160a083015260808301516005811061310857613108613062565b60c083015260a092909201516001600160801b031660e09091015292915050565b8181038181111561059b5761059b612f2f565b634e487b7160e01b600052600160045260246000fd5b808202811582820484141761059b5761059b612f2f565b60008261318657634e487b7160e01b600052601260045260246000fd5b50049056fe100d2512a463b515ea8d03a69afbcc791f1bd9139132e820631bec236f524ec1a26469706673582212201ecc4f477fe49f7a183dccb07f345e78c167e236f8bcbfbdd3bf59413ef37b5f64736f6c63430008110033",
  "linkReferences": {},
  "deployedLinkReferences": {}
}