{
  "_format": "hh-sol-artifact-1",
  "contractName": "BorrowerWrappersScript",
  "sourceName": "contracts/Proxy/BorrowerWrappersScript.sol",
  "abi": [
    {
      "inputs": [
        {
          "internalType": "address",
          "name": "_borrowerOperationsAddress",
          "type": "address"
        },
        {
          "internalType": "address",
          "name": "_troveManagerAddress",
          "type": "address"
        },
        {
          "internalType": "address",
          "name": "_YOUStakingAddress",
          "type": "address"
        }
      ],
      "stateMutability": "nonpayable",
      "type": "constructor"
    },
    {
      "inputs": [],
      "name": "NAME",
      "outputs": [
        {
          "internalType": "string",
          "name": "",
          "type": "string"
        }
      ],
      "stateMutability": "view",
      "type": "function"
    },
    {
      "inputs": [
        {
          "internalType": "address",
          "name": "_asset",
          "type": "address"
        },
        {
          "internalType": "uint256",
          "name": "_assetAmountSent",
          "type": "uint256"
        },
        {
          "internalType": "address",
          "name": "_upperHint",
          "type": "address"
        },
        {
          "internalType": "address",
          "name": "_lowerHint",
          "type": "address"
        }
      ],
      "name": "addColl",
      "outputs": [],
      "stateMutability": "payable",
      "type": "function"
    },
    {
      "inputs": [
        {
          "internalType": "address",
          "name": "_asset",
          "type": "address"
        },
        {
          "internalType": "uint256",
          "name": "_assetAmountSent",
          "type": "uint256"
        },
        {
          "internalType": "uint256",
          "name": "_maxFee",
          "type": "uint256"
        },
        {
          "internalType": "uint256",
          "name": "_collWithdrawal",
          "type": "uint256"
        },
        {
          "internalType": "uint256",
          "name": "_debtChange",
          "type": "uint256"
        },
        {
          "internalType": "bool",
          "name": "isDebtIncrease",
          "type": "bool"
        },
        {
          "internalType": "address",
          "name": "_upperHint",
          "type": "address"
        },
        {
          "internalType": "address",
          "name": "_lowerHint",
          "type": "address"
        }
      ],
      "name": "adjustTrove",
      "outputs": [],
      "stateMutability": "payable",
      "type": "function"
    },
    {
      "inputs": [
        {
          "internalType": "address",
          "name": "_asset",
          "type": "address"
        }
      ],
      "name": "claimCollateral",
      "outputs": [],
      "stateMutability": "nonpayable",
      "type": "function"
    },
    {
      "inputs": [
        {
          "internalType": "address",
          "name": "_asset",
          "type": "address"
        },
        {
          "internalType": "uint256",
          "name": "_maxFee",
          "type": "uint256"
        },
        {
          "internalType": "uint256",
          "name": "_YOUmount",
          "type": "uint256"
        },
        {
          "internalType": "address",
          "name": "_upperHint",
          "type": "address"
        },
        {
          "internalType": "address",
          "name": "_lowerHint",
          "type": "address"
        }
      ],
      "name": "claimCollateralAndOpenTrove",
      "outputs": [],
      "stateMutability": "payable",
      "type": "function"
    },
    {
      "inputs": [
        {
          "internalType": "address",
          "name": "_asset",
          "type": "address"
        },
        {
          "internalType": "uint256",
          "name": "_maxFee",
          "type": "uint256"
        },
        {
          "internalType": "address",
          "name": "_upperHint",
          "type": "address"
        },
        {
          "internalType": "address",
          "name": "_lowerHint",
          "type": "address"
        }
      ],
      "name": "claimSPRewardsAndRecycle",
      "outputs": [],
      "stateMutability": "nonpayable",
      "type": "function"
    },
    {
      "inputs": [
        {
          "internalType": "address",
          "name": "_asset",
          "type": "address"
        },
        {
          "internalType": "uint256",
          "name": "_maxFee",
          "type": "uint256"
        },
        {
          "internalType": "address",
          "name": "_upperHint",
          "type": "address"
        },
        {
          "internalType": "address",
          "name": "_lowerHint",
          "type": "address"
        }
      ],
      "name": "claimStakingGainsAndRecycle",
      "outputs": [],
      "stateMutability": "nonpayable",
      "type": "function"
    },
    {
      "inputs": [
        {
          "internalType": "address",
          "name": "_asset",
          "type": "address"
        }
      ],
      "name": "closeTrove",
      "outputs": [],
      "stateMutability": "nonpayable",
      "type": "function"
    },
    {
      "inputs": [
        {
          "internalType": "address",
          "name": "_asset",
          "type": "address"
        },
        {
          "internalType": "uint256",
          "name": "_assetAmountSent",
          "type": "uint256"
        },
        {
          "internalType": "uint256",
          "name": "_maxFee",
          "type": "uint256"
        },
        {
          "internalType": "uint256",
          "name": "_YOUmount",
          "type": "uint256"
        },
        {
          "internalType": "address",
          "name": "_upperHint",
          "type": "address"
        },
        {
          "internalType": "address",
          "name": "_lowerHint",
          "type": "address"
        }
      ],
      "name": "openTrove",
      "outputs": [],
      "stateMutability": "payable",
      "type": "function"
    },
    {
      "inputs": [
        {
          "internalType": "address",
          "name": "_asset",
          "type": "address"
        },
        {
          "internalType": "uint256",
          "name": "_amount",
          "type": "uint256"
        },
        {
          "internalType": "address",
          "name": "_upperHint",
          "type": "address"
        },
        {
          "internalType": "address",
          "name": "_lowerHint",
          "type": "address"
        }
      ],
      "name": "repayU",
      "outputs": [],
      "stateMutability": "nonpayable",
      "type": "function"
    },
    {
      "inputs": [
        {
          "internalType": "uint256",
          "name": "_YOUamount",
          "type": "uint256"
        }
      ],
      "name": "stake",
      "outputs": [],
      "stateMutability": "nonpayable",
      "type": "function"
    },
    {
      "inputs": [
        {
          "internalType": "address",
          "name": "_recipient",
          "type": "address"
        },
        {
          "internalType": "uint256",
          "name": "_amount",
          "type": "uint256"
        }
      ],
      "name": "transferETH",
      "outputs": [
        {
          "internalType": "bool",
          "name": "",
          "type": "bool"
        }
      ],
      "stateMutability": "nonpayable",
      "type": "function"
    },
    {
      "inputs": [
        {
          "internalType": "address",
          "name": "_asset",
          "type": "address"
        },
        {
          "internalType": "uint256",
          "name": "_amount",
          "type": "uint256"
        },
        {
          "internalType": "address",
          "name": "_upperHint",
          "type": "address"
        },
        {
          "internalType": "address",
          "name": "_lowerHint",
          "type": "address"
        }
      ],
      "name": "withdrawColl",
      "outputs": [],
      "stateMutability": "nonpayable",
      "type": "function"
    },
    {
      "inputs": [
        {
          "internalType": "address",
          "name": "_asset",
          "type": "address"
        },
        {
          "internalType": "uint256",
          "name": "_maxFee",
          "type": "uint256"
        },
        {
          "internalType": "uint256",
          "name": "_amount",
          "type": "uint256"
        },
        {
          "internalType": "address",
          "name": "_upperHint",
          "type": "address"
        },
        {
          "internalType": "address",
          "name": "_lowerHint",
          "type": "address"
        }
      ],
      "name": "withdrawU",
      "outputs": [],
      "stateMutability": "nonpayable",
      "type": "function"
    }
  ],
  "bytecode": "0x6101606040523480156200001257600080fd5b506040516200206f3803806200206f8339810160408190526200003591620004ec565b8083620000428162000426565b6001600160a01b0316608052620000598162000426565b6001600160a01b031660a052620000708262000426565b6000829050806001600160a01b031660c0816001600160a01b0316815250506000816001600160a01b0316632f2b4e906040518163ffffffff1660e01b8152600401602060405180830381865afa158015620000d0573d6000803e3d6000fd5b505050506040513d601f19601f82011682018060405250810190620000f6919062000540565b9050620001038162000426565b806001600160a01b031660e0816001600160a01b0316815250506000826001600160a01b031663f7a22d806040518163ffffffff1660e01b8152600401602060405180830381865afa1580156200015e573d6000803e3d6000fd5b505050506040513d601f19601f8201168201806040525081019062000184919062000540565b6001600160a01b031663741bef1a6040518163ffffffff1660e01b8152600401602060405180830381865afa158015620001c2573d6000803e3d6000fd5b505050506040513d601f19601f82011682018060405250810190620001e8919062000540565b9050620001f58162000426565b806001600160a01b0316610100816001600160a01b0316815250506000836001600160a01b031663633156376040518163ffffffff1660e01b8152600401602060405180830381865afa15801562000251573d6000803e3d6000fd5b505050506040513d601f19601f8201168201806040525081019062000277919062000540565b9050620002848162000426565b806001600160a01b0316610120816001600160a01b0316815250506000856001600160a01b0316636b11ea206040518163ffffffff1660e01b8152600401602060405180830381865afa158015620002e0573d6000803e3d6000fd5b505050506040513d601f19601f8201168201806040525081019062000306919062000540565b9050620003138162000426565b806001600160a01b0316610140816001600160a01b0316815250506000856001600160a01b031663aeabd5cc6040518163ffffffff1660e01b8152600401602060405180830381865afa1580156200036f573d6000803e3d6000fd5b505050506040513d601f19601f8201168201806040525081019062000395919062000540565b9050806001600160a01b0316876001600160a01b031614620004175760405162461bcd60e51b815260206004820152603060248201527f426f72726f77657257726170706572735363726970743a2057726f6e6720594f60448201526f555374616b696e67206164647265737360801b60648201526084015b60405180910390fd5b50505050505050505062000567565b6001600160a01b0381166200047e5760405162461bcd60e51b815260206004820152601e60248201527f4163636f756e742063616e6e6f74206265207a65726f2061646472657373000060448201526064016200040e565b803b80620004cf5760405162461bcd60e51b815260206004820181905260248201527f4163636f756e7420636f64652073697a652063616e6e6f74206265207a65726f60448201526064016200040e565b5050565b6001600160a01b0381168114620004e957600080fd5b50565b6000806000606084860312156200050257600080fd5b83516200050f81620004d3565b60208501519093506200052281620004d3565b60408501519092506200053581620004d3565b809150509250925092565b6000602082840312156200055357600080fd5b81516200056081620004d3565b9392505050565b60805160a05160c05160e051610100516101205161014051611a136200065c600039600081816105b60152818161097001528181610e0f0152610f8d01526000818161053a01526106dd015260006113cc01526000818161088201528181610ea101526111100152600081816112e40152818161148b015261151401526000818161065a01528181610a1301528181610cc101526112140152600081816102860152818161032f015281816103bb015281816104550152818161079f01528181610a8901528181610b4d01528181610bef01528181610c7001528181610d3501528181610d9001526110420152611a136000f3fe6080604052600436106100ad5760003560e01c806348a4a39d146100b257806349b010c5146100c75780634cda9c90146100e757806371c9382c146100fa578063743990211461011a5780637b1a49091461012d5780637da0b1fa146101625780638235b28414610175578063a06a715c14610195578063a3f4df7e146101b5578063a694fc3a14610204578063bf8c500714610224578063cbd138ae14610244578063dde90cb314610264575b600080fd5b6100c56100c0366004611606565b610284565b005b3480156100d357600080fd5b506100c56100e2366004611606565b610318565b6100c56100f5366004611659565b6103a2565b34801561010657600080fd5b506100c5610115366004611606565b6104f0565b6100c56101283660046116b8565b610a87565b34801561013957600080fd5b5061014d610148366004611742565b610aeb565b60405190151581526020015b60405180910390f35b6100c561017036600461176e565b610b4b565b34801561018157600080fd5b506100c56101903660046117d5565b610bd8565b3480156101a157600080fd5b506100c56101b0366004611606565b610c59565b3480156101c157600080fd5b506101f760405180604001604052806016815260200175109bdc9c9bddd95c95dc985c1c195c9cd4d8dc9a5c1d60521b81525081565b60405161015991906117f2565b34801561021057600080fd5b506100c561021f366004611840565b610cab565b34801561023057600080fd5b506100c561023f366004611659565b610cf8565b34801561025057600080fd5b506100c561025f3660046117d5565b610d79565b34801561027057600080fd5b506100c561027f366004611606565b610dc5565b7f00000000000000000000000000000000000000000000000000000000000000006001600160a01b03166348a4a39d6102bd8686611285565b868686866040518663ffffffff1660e01b81526004016102e09493929190611859565b6000604051808303818588803b1580156102f957600080fd5b505af115801561030d573d6000803e3d6000fd5b505050505050505050565b6040516349b010c560e01b81526001600160a01b037f000000000000000000000000000000000000000000000000000000000000000016906349b010c59061036a908790879087908790600401611859565b600060405180830381600087803b15801561038457600080fd5b505af1158015610398573d6000803e3d6000fd5b5050505050505050565b60405163208d6ca160e21b815247906001600160a01b037f00000000000000000000000000000000000000000000000000000000000000001690638235b284906103f0908990600401611884565b600060405180830381600087803b15801561040a57600080fd5b505af115801561041e573d6000803e3d6000fd5b50479250505081811161043357610433611898565b60006104493461044384866112a5565b906112b1565b90506001600160a01b037f0000000000000000000000000000000000000000000000000000000000000000811690637da0b1fa908a161561048b57600061048d565b825b8a848b8b8b8b6040518863ffffffff1660e01b81526004016104b4969594939291906118ae565b6000604051808303818588803b1580156104cd57600080fd5b505af11580156104e1573d6000803e3d6000fd5b50505050505050505050505050565b6040805160a0810182526001600160a01b0380871682526020820186905284811682840152838116606083015260006080830181905292516370a0823160e01b81529192479290917f000000000000000000000000000000000000000000000000000000000000000016906370a082319061056f903090600401611884565b602060405180830381865afa15801561058c573d6000803e3d6000fd5b505050506040513d601f19601f820116820180604052508101906105b091906118e8565b905060007f00000000000000000000000000000000000000000000000000000000000000006001600160a01b03166370a08231306040518263ffffffff1660e01b81526004016106009190611884565b602060405180830381865afa15801561061d573d6000803e3d6000fd5b505050506040513d601f19601f8201168201806040525081019061064191906118e8565b6040516305c2fbcf60e31b8152600060048201529091507f00000000000000000000000000000000000000000000000000000000000000006001600160a01b031690632e17de7890602401600060405180830381600087803b1580156106a657600080fd5b505af11580156106ba573d6000803e3d6000fd5b5050505060006106d384476112a590919063ffffffff16565b9050600061076e847f00000000000000000000000000000000000000000000000000000000000000006001600160a01b03166370a08231306040518263ffffffff1660e01b81526004016107279190611884565b602060405180830381865afa158015610744573d6000803e3d6000fd5b505050506040513d601f19601f8201168201806040525081019061076891906118e8565b906112a5565b9050811561084a57855161078290306112bd565b855161078e90836113c7565b608087015285516001600160a01b037f000000000000000000000000000000000000000000000000000000000000000081169163743990219116156107d45760006107d6565b835b8860000151858a6020015160008c6080015160018e604001518f606001516040518a63ffffffff1660e01b8152600401610817989796959493929190611901565b6000604051808303818588803b15801561083057600080fd5b505af1158015610844573d6000803e3d6000fd5b50505050505b60006108638760800151836112b190919063ffffffff16565b90508015610a7a5760405163065c20bb60e41b81526001600160a01b037f000000000000000000000000000000000000000000000000000000000000000016906365c20bb0906108b7908e90600401611884565b602060405180830381865afa1580156108d4573d6000803e3d6000fd5b505050506040513d601f19601f820116820180604052508101906108f8919061194b565b6001600160a01b03166378c77a24826040518263ffffffff1660e01b815260040161092591815260200190565b600060405180830381600087803b15801561093f57600080fd5b505af1158015610953573d6000803e3d6000fd5b50506040516370a0823160e01b8152600092506001600160a01b037f00000000000000000000000000000000000000000000000000000000000000001691506370a08231906109a6903090600401611884565b602060405180830381865afa1580156109c3573d6000803e3d6000fd5b505050506040513d601f19601f820116820180604052508101906109e791906118e8565b905060006109f582876112a5565b905080156104e15760405163534a7e1d60e11b8152600481018290527f00000000000000000000000000000000000000000000000000000000000000006001600160a01b03169063a694fc3a90602401600060405180830381600087803b158015610a5f57600080fd5b505af1158015610a73573d6000803e3d6000fd5b5050505050505b5050505050505050505050565b7f00000000000000000000000000000000000000000000000000000000000000006001600160a01b03166374399021610ac08a8a611285565b8a8a8a8a8a8a8a8a6040518a63ffffffff1660e01b81526004016104b4989796959493929190611901565b600080836001600160a01b03168360405160006040518083038185875af1925050503d8060008114610b39576040519150601f19603f3d011682016040523d82523d6000602084013e610b3e565b606091505b5090925050505b92915050565b7f00000000000000000000000000000000000000000000000000000000000000006001600160a01b0316637da0b1fa610b848888611285565b8888888888886040518863ffffffff1660e01b8152600401610bab969594939291906118ae565b6000604051808303818588803b158015610bc457600080fd5b505af1158015610a7a573d6000803e3d6000fd5b60405163208d6ca160e21b81526001600160a01b037f00000000000000000000000000000000000000000000000000000000000000001690638235b28490610c24908490600401611884565b600060405180830381600087803b158015610c3e57600080fd5b505af1158015610c52573d6000803e3d6000fd5b5050505050565b60405163281a9c5760e21b81526001600160a01b037f0000000000000000000000000000000000000000000000000000000000000000169063a06a715c9061036a908790879087908790600401611859565b60405163534a7e1d60e11b8152600481018290527f00000000000000000000000000000000000000000000000000000000000000006001600160a01b03169063a694fc3a90602401610c24565b60405163bf8c500760e01b81526001600160a01b0386811660048301526024820186905260448201859052838116606483015282811660848301527f0000000000000000000000000000000000000000000000000000000000000000169063bf8c50079060a401600060405180830381600087803b1580156102f957600080fd5b6040516365e89c5760e11b81526001600160a01b037f0000000000000000000000000000000000000000000000000000000000000000169063cbd138ae90610c24908490600401611884565b6040805160a0810182526001600160a01b0380871682526020820186905284811682840152838116606083015260006080830181905292516370a0823160e01b81529192479290917f000000000000000000000000000000000000000000000000000000000000000016906370a0823190610e44903090600401611884565b602060405180830381865afa158015610e61573d6000803e3d6000fd5b505050506040513d601f19601f82011682018060405250810190610e8591906118e8565b835160405163065c20bb60e41b81529192506001600160a01b037f000000000000000000000000000000000000000000000000000000000000000016916365c20bb091610ed491600401611884565b602060405180830381865afa158015610ef1573d6000803e3d6000fd5b505050506040513d601f19601f82011682018060405250810190610f15919061194b565b604051632e54bf9560e01b8152600060048201526001600160a01b039190911690632e54bf9590602401600060405180830381600087803b158015610f5957600080fd5b505af1158015610f6d573d6000803e3d6000fd5b50506040516370a0823160e01b8152479250600091506001600160a01b037f000000000000000000000000000000000000000000000000000000000000000016906370a0823190610fc2903090600401611884565b602060405180830381865afa158015610fdf573d6000803e3d6000fd5b505050506040513d601f19601f8201168201806040525081019061100391906118e8565b9050600061101183866112a5565b905080156111ea57855161102590306112bd565b855161103190826113c7565b608087015285516001600160a01b037f00000000000000000000000000000000000000000000000000000000000000008116916374399021911615611077576000611079565b825b8860000151848a6020015160008c6080015160018e604001518f606001516040518a63ffffffff1660e01b81526004016110ba989796959493929190611901565b6000604051808303818588803b1580156110d357600080fd5b505af11580156110e7573d6000803e3d6000fd5b50505050506000866080015111156111ea5760405163065c20bb60e41b81526001600160a01b037f000000000000000000000000000000000000000000000000000000000000000016906365c20bb090611145908d90600401611884565b602060405180830381865afa158015611162573d6000803e3d6000fd5b505050506040513d601f19601f82011682018060405250810190611186919061194b565b6001600160a01b03166378c77a2487608001516040518263ffffffff1660e01b81526004016111b791815260200190565b600060405180830381600087803b1580156111d157600080fd5b505af11580156111e5573d6000803e3d6000fd5b505050505b60006111f683866112a5565b90508015610a7a5760405163534a7e1d60e11b8152600481018290527f00000000000000000000000000000000000000000000000000000000000000006001600160a01b03169063a694fc3a90602401600060405180830381600087803b15801561126057600080fd5b505af1158015611274573d6000803e3d6000fd5b505050505050505050505050505050565b60006001600160a01b0383161561129c578161129e565b345b9392505050565b600061129e828461197e565b600061129e8284611991565b60405163614d120960e01b81526001600160a01b03838116600483015282811660248301527f0000000000000000000000000000000000000000000000000000000000000000169063614d120990604401602060405180830381865afa15801561132b573d6000803e3d6000fd5b505050506040513d601f19601f8201168201806040525081019061134f91906118e8565b6001146113c35760405162461bcd60e51b815260206004820152603860248201527f426f72726f77657257726170706572735363726970743a2063616c6c6572206d604482015277757374206861766520616e206163746976652074726f766560401b606482015260840160405180910390fd5b5050565b6000807f00000000000000000000000000000000000000000000000000000000000000006001600160a01b031663ace1798e856040518263ffffffff1660e01b81526004016114169190611884565b6020604051808303816000875af1158015611435573d6000803e3d6000fd5b505050506040513d601f19601f8201168201806040525081019061145991906118e8565b60405163b1eafaab60e01b81526001600160a01b038681166004830152306024830152604482018390529192506000917f0000000000000000000000000000000000000000000000000000000000000000169063b1eafaab90606401602060405180830381865afa1580156114d2573d6000803e3d6000fd5b505050506040513d601f19601f820116820180604052508101906114f691906118e8565b9050600061150e8261150887866115d6565b906115e2565b905060007f00000000000000000000000000000000000000000000000000000000000000006001600160a01b0316631400de71886040518263ffffffff1660e01b815260040161155e9190611884565b602060405180830381865afa15801561157b573d6000803e3d6000fd5b505050506040513d601f19601f8201168201806040525081019061159f91906118e8565b905060006115ca6115b8670de0b6b3a7640000846112b1565b61150885670de0b6b3a76400006115d6565b98975050505050505050565b600061129e82846119a4565b600061129e82846119bb565b6001600160a01b038116811461160357600080fd5b50565b6000806000806080858703121561161c57600080fd5b8435611627816115ee565b935060208501359250604085013561163e816115ee565b9150606085013561164e816115ee565b939692955090935050565b600080600080600060a0868803121561167157600080fd5b853561167c816115ee565b94506020860135935060408601359250606086013561169a816115ee565b915060808601356116aa816115ee565b809150509295509295909350565b600080600080600080600080610100898b0312156116d557600080fd5b88356116e0816115ee565b97506020890135965060408901359550606089013594506080890135935060a0890135801515811461171157600080fd5b925060c0890135611721816115ee565b915060e0890135611731816115ee565b809150509295985092959890939650565b6000806040838503121561175557600080fd5b8235611760816115ee565b946020939093013593505050565b60008060008060008060c0878903121561178757600080fd5b8635611792816115ee565b955060208701359450604087013593506060870135925060808701356117b7816115ee565b915060a08701356117c7816115ee565b809150509295509295509295565b6000602082840312156117e757600080fd5b813561129e816115ee565b600060208083528351808285015260005b8181101561181f57858101830151858201604001528201611803565b506000604082860101526040601f19601f8301168501019250505092915050565b60006020828403121561185257600080fd5b5035919050565b6001600160a01b03948516815260208101939093529083166040830152909116606082015260800190565b6001600160a01b0391909116815260200190565b634e487b7160e01b600052600160045260246000fd5b6001600160a01b0396871681526020810195909552604085019390935260608401919091528316608083015290911660a082015260c00190565b6000602082840312156118fa57600080fd5b5051919050565b6001600160a01b0398891681526020810197909752604087019590955260608601939093526080850191909152151560a0840152831660c083015290911660e08201526101000190565b60006020828403121561195d57600080fd5b815161129e816115ee565b634e487b7160e01b600052601160045260246000fd5b81810381811115610b4557610b45611968565b80820180821115610b4557610b45611968565b8082028115828204841417610b4557610b45611968565b6000826119d857634e487b7160e01b600052601260045260246000fd5b50049056fea2646970667358221220b9b925c2824c4baa39269abb61d1626015987bd79ee89a6dfc15cc2b1cf406d264736f6c63430008110033",
  "linkReferences": {},
  "deployedLinkReferences": {}
}