{
  "_format": "hh-sol-artifact-1",
  "contractName": "BorrowerOperations",
  "sourceName": "contracts/BorrowerOperations.sol",
  "abi": [
    {
      "inputs": [],
      "name": "IsNotWstETH",
      "type": "error"
    },
    {
      "anonymous": false,
      "inputs": [
        {
          "indexed": false,
          "internalType": "address",
          "name": "_collSurplusPoolAddress",
          "type": "address"
        }
      ],
      "name": "CollSurplusPoolAddressChanged",
      "type": "event"
    },
    {
      "anonymous": false,
      "inputs": [
        {
          "indexed": false,
          "internalType": "address",
          "name": "_gasPoolAddress",
          "type": "address"
        }
      ],
      "name": "GasPoolAddressChanged",
      "type": "event"
    },
    {
      "anonymous": false,
      "inputs": [
        {
          "indexed": false,
          "internalType": "uint8",
          "name": "version",
          "type": "uint8"
        }
      ],
      "name": "Initialized",
      "type": "event"
    },
    {
      "anonymous": false,
      "inputs": [
        {
          "indexed": true,
          "internalType": "address",
          "name": "previousOwner",
          "type": "address"
        },
        {
          "indexed": true,
          "internalType": "address",
          "name": "newOwner",
          "type": "address"
        }
      ],
      "name": "OwnershipTransferred",
      "type": "event"
    },
    {
      "anonymous": false,
      "inputs": [
        {
          "indexed": false,
          "internalType": "address",
          "name": "_sortedTrovesAddress",
          "type": "address"
        }
      ],
      "name": "SortedTrovesAddressChanged",
      "type": "event"
    },
    {
      "anonymous": false,
      "inputs": [
        {
          "indexed": false,
          "internalType": "address",
          "name": "_stabilityPoolAddress",
          "type": "address"
        }
      ],
      "name": "StabilityPoolAddressChanged",
      "type": "event"
    },
    {
      "anonymous": false,
      "inputs": [
        {
          "indexed": true,
          "internalType": "address",
          "name": "_asset",
          "type": "address"
        },
        {
          "indexed": true,
          "internalType": "address",
          "name": "_borrower",
          "type": "address"
        },
        {
          "indexed": false,
          "internalType": "uint256",
          "name": "arrayIndex",
          "type": "uint256"
        }
      ],
      "name": "TroveCreated",
      "type": "event"
    },
    {
      "anonymous": false,
      "inputs": [
        {
          "indexed": false,
          "internalType": "address",
          "name": "_newTroveManagerAddress",
          "type": "address"
        }
      ],
      "name": "TroveManagerAddressChanged",
      "type": "event"
    },
    {
      "anonymous": false,
      "inputs": [
        {
          "indexed": true,
          "internalType": "address",
          "name": "_asset",
          "type": "address"
        },
        {
          "indexed": true,
          "internalType": "address",
          "name": "_borrower",
          "type": "address"
        },
        {
          "indexed": false,
          "internalType": "uint256",
          "name": "_debt",
          "type": "uint256"
        },
        {
          "indexed": false,
          "internalType": "uint256",
          "name": "_coll",
          "type": "uint256"
        },
        {
          "indexed": false,
          "internalType": "uint256",
          "name": "stake",
          "type": "uint256"
        },
        {
          "indexed": false,
          "internalType": "enum BorrowerOperations.BorrowerOperation",
          "name": "operation",
          "type": "uint8"
        }
      ],
      "name": "TroveUpdated",
      "type": "event"
    },
    {
      "anonymous": false,
      "inputs": [
        {
          "indexed": true,
          "internalType": "address",
          "name": "_asset",
          "type": "address"
        },
        {
          "indexed": true,
          "internalType": "address",
          "name": "_borrower",
          "type": "address"
        },
        {
          "indexed": false,
          "internalType": "uint256",
          "name": "_UFee",
          "type": "uint256"
        }
      ],
      "name": "UBorrowingFeePaid",
      "type": "event"
    },
    {
      "anonymous": false,
      "inputs": [
        {
          "indexed": false,
          "internalType": "address",
          "name": "_uTokenAddress",
          "type": "address"
        }
      ],
      "name": "UTokenAddressChanged",
      "type": "event"
    },
    {
      "anonymous": false,
      "inputs": [
        {
          "indexed": true,
          "internalType": "address",
          "name": "newAddress",
          "type": "address"
        }
      ],
      "name": "VaultParametersBaseChanged",
      "type": "event"
    },
    {
      "anonymous": false,
      "inputs": [
        {
          "indexed": false,
          "internalType": "address",
          "name": "_YOUStakingAddress",
          "type": "address"
        }
      ],
      "name": "YOUStakingAddressChanged",
      "type": "event"
    },
    {
      "inputs": [],
      "name": "DECIMAL_PRECISION",
      "outputs": [
        {
          "internalType": "uint256",
          "name": "",
          "type": "uint256"
        }
      ],
      "stateMutability": "view",
      "type": "function"
    },
    {
      "inputs": [],
      "name": "ETH_REF_ADDRESS",
      "outputs": [
        {
          "internalType": "address",
          "name": "",
          "type": "address"
        }
      ],
      "stateMutability": "view",
      "type": "function"
    },
    {
      "inputs": [],
      "name": "NAME",
      "outputs": [
        {
          "internalType": "string",
          "name": "",
          "type": "string"
        }
      ],
      "stateMutability": "view",
      "type": "function"
    },
    {
      "inputs": [],
      "name": "UToken",
      "outputs": [
        {
          "internalType": "contract IUToken",
          "name": "",
          "type": "address"
        }
      ],
      "stateMutability": "view",
      "type": "function"
    },
    {
      "inputs": [],
      "name": "YOUStaking",
      "outputs": [
        {
          "internalType": "contract IYOUStaking",
          "name": "",
          "type": "address"
        }
      ],
      "stateMutability": "view",
      "type": "function"
    },
    {
      "inputs": [],
      "name": "YOUStakingAddress",
      "outputs": [
        {
          "internalType": "address",
          "name": "",
          "type": "address"
        }
      ],
      "stateMutability": "view",
      "type": "function"
    },
    {
      "inputs": [
        {
          "internalType": "address",
          "name": "_asset",
          "type": "address"
        },
        {
          "internalType": "uint256",
          "name": "_assetSent",
          "type": "uint256"
        },
        {
          "internalType": "address",
          "name": "_upperHint",
          "type": "address"
        },
        {
          "internalType": "address",
          "name": "_lowerHint",
          "type": "address"
        }
      ],
      "name": "addColl",
      "outputs": [],
      "stateMutability": "payable",
      "type": "function"
    },
    {
      "inputs": [
        {
          "internalType": "address",
          "name": "_asset",
          "type": "address"
        },
        {
          "internalType": "uint256",
          "name": "_assetSent",
          "type": "uint256"
        },
        {
          "internalType": "uint256",
          "name": "_maxFeePercentage",
          "type": "uint256"
        },
        {
          "internalType": "uint256",
          "name": "_collWithdrawal",
          "type": "uint256"
        },
        {
          "internalType": "uint256",
          "name": "_UChange",
          "type": "uint256"
        },
        {
          "internalType": "bool",
          "name": "_isDebtIncrease",
          "type": "bool"
        },
        {
          "internalType": "address",
          "name": "_upperHint",
          "type": "address"
        },
        {
          "internalType": "address",
          "name": "_lowerHint",
          "type": "address"
        }
      ],
      "name": "adjustTrove",
      "outputs": [],
      "stateMutability": "payable",
      "type": "function"
    },
    {
      "inputs": [
        {
          "internalType": "address",
          "name": "_asset",
          "type": "address"
        }
      ],
      "name": "claimCollateral",
      "outputs": [],
      "stateMutability": "nonpayable",
      "type": "function"
    },
    {
      "inputs": [
        {
          "internalType": "address",
          "name": "_asset",
          "type": "address"
        }
      ],
      "name": "closeTrove",
      "outputs": [],
      "stateMutability": "nonpayable",
      "type": "function"
    },
    {
      "inputs": [
        {
          "internalType": "address",
          "name": "_asset",
          "type": "address"
        },
        {
          "internalType": "uint256",
          "name": "_debt",
          "type": "uint256"
        }
      ],
      "name": "getCompositeDebt",
      "outputs": [
        {
          "internalType": "uint256",
          "name": "",
          "type": "uint256"
        }
      ],
      "stateMutability": "view",
      "type": "function"
    },
    {
      "inputs": [
        {
          "internalType": "address",
          "name": "_asset",
          "type": "address"
        }
      ],
      "name": "getEntireSystemColl",
      "outputs": [
        {
          "internalType": "uint256",
          "name": "entireSystemColl",
          "type": "uint256"
        }
      ],
      "stateMutability": "view",
      "type": "function"
    },
    {
      "inputs": [
        {
          "internalType": "address",
          "name": "_asset",
          "type": "address"
        }
      ],
      "name": "getEntireSystemDebt",
      "outputs": [
        {
          "internalType": "uint256",
          "name": "entireSystemDebt",
          "type": "uint256"
        }
      ],
      "stateMutability": "view",
      "type": "function"
    },
    {
      "inputs": [],
      "name": "isInitialized",
      "outputs": [
        {
          "internalType": "bool",
          "name": "",
          "type": "bool"
        }
      ],
      "stateMutability": "view",
      "type": "function"
    },
    {
      "inputs": [
        {
          "internalType": "address",
          "name": "_asset",
          "type": "address"
        },
        {
          "internalType": "uint256",
          "name": "_amountMoved",
          "type": "uint256"
        },
        {
          "internalType": "address",
          "name": "_borrower",
          "type": "address"
        },
        {
          "internalType": "address",
          "name": "_upperHint",
          "type": "address"
        },
        {
          "internalType": "address",
          "name": "_lowerHint",
          "type": "address"
        }
      ],
      "name": "moveETHGainToTrove",
      "outputs": [],
      "stateMutability": "payable",
      "type": "function"
    },
    {
      "inputs": [
        {
          "internalType": "address",
          "name": "_asset",
          "type": "address"
        },
        {
          "internalType": "uint256",
          "name": "_tokenAmount",
          "type": "uint256"
        },
        {
          "internalType": "uint256",
          "name": "_maxFeePercentage",
          "type": "uint256"
        },
        {
          "internalType": "uint256",
          "name": "_YOUmount",
          "type": "uint256"
        },
        {
          "internalType": "address",
          "name": "_upperHint",
          "type": "address"
        },
        {
          "internalType": "address",
          "name": "_lowerHint",
          "type": "address"
        }
      ],
      "name": "openTrove",
      "outputs": [],
      "stateMutability": "payable",
      "type": "function"
    },
    {
      "inputs": [],
      "name": "owner",
      "outputs": [
        {
          "internalType": "address",
          "name": "",
          "type": "address"
        }
      ],
      "stateMutability": "view",
      "type": "function"
    },
    {
      "inputs": [],
      "name": "renounceOwnership",
      "outputs": [],
      "stateMutability": "nonpayable",
      "type": "function"
    },
    {
      "inputs": [
        {
          "internalType": "address",
          "name": "_asset",
          "type": "address"
        },
        {
          "internalType": "uint256",
          "name": "_YOUmount",
          "type": "uint256"
        },
        {
          "internalType": "address",
          "name": "_upperHint",
          "type": "address"
        },
        {
          "internalType": "address",
          "name": "_lowerHint",
          "type": "address"
        }
      ],
      "name": "repayU",
      "outputs": [],
      "stateMutability": "nonpayable",
      "type": "function"
    },
    {
      "inputs": [
        {
          "internalType": "address",
          "name": "_troveManagerAddress",
          "type": "address"
        },
        {
          "internalType": "address",
          "name": "_stabilityPoolManagerAddress",
          "type": "address"
        },
        {
          "internalType": "address",
          "name": "_gasPoolAddress",
          "type": "address"
        },
        {
          "internalType": "address",
          "name": "_collSurplusPoolAddress",
          "type": "address"
        },
        {
          "internalType": "address",
          "name": "_sortedTrovesAddress",
          "type": "address"
        },
        {
          "internalType": "address",
          "name": "_uTokenAddress",
          "type": "address"
        },
        {
          "internalType": "address",
          "name": "_YOUStakingAddress",
          "type": "address"
        },
        {
          "internalType": "address",
          "name": "_vestaParamsAddress",
          "type": "address"
        }
      ],
      "name": "setAddresses",
      "outputs": [],
      "stateMutability": "nonpayable",
      "type": "function"
    },
    {
      "inputs": [
        {
          "internalType": "address",
          "name": "_vaultParams",
          "type": "address"
        }
      ],
      "name": "setVestaParameters",
      "outputs": [],
      "stateMutability": "nonpayable",
      "type": "function"
    },
    {
      "inputs": [],
      "name": "sortedTroves",
      "outputs": [
        {
          "internalType": "contract ISortedTroves",
          "name": "",
          "type": "address"
        }
      ],
      "stateMutability": "view",
      "type": "function"
    },
    {
      "inputs": [
        {
          "internalType": "address",
          "name": "newOwner",
          "type": "address"
        }
      ],
      "name": "transferOwnership",
      "outputs": [],
      "stateMutability": "nonpayable",
      "type": "function"
    },
    {
      "inputs": [],
      "name": "troveManager",
      "outputs": [
        {
          "internalType": "contract ITroveManager",
          "name": "",
          "type": "address"
        }
      ],
      "stateMutability": "view",
      "type": "function"
    },
    {
      "inputs": [],
      "name": "vestaParams",
      "outputs": [
        {
          "internalType": "contract IVestaParameters",
          "name": "",
          "type": "address"
        }
      ],
      "stateMutability": "view",
      "type": "function"
    },
    {
      "inputs": [
        {
          "internalType": "address",
          "name": "_asset",
          "type": "address"
        },
        {
          "internalType": "uint256",
          "name": "_collWithdrawal",
          "type": "uint256"
        },
        {
          "internalType": "address",
          "name": "_upperHint",
          "type": "address"
        },
        {
          "internalType": "address",
          "name": "_lowerHint",
          "type": "address"
        }
      ],
      "name": "withdrawColl",
      "outputs": [],
      "stateMutability": "nonpayable",
      "type": "function"
    },
    {
      "inputs": [
        {
          "internalType": "address",
          "name": "_asset",
          "type": "address"
        },
        {
          "internalType": "uint256",
          "name": "_maxFeePercentage",
          "type": "uint256"
        },
        {
          "internalType": "uint256",
          "name": "_YOUmount",
          "type": "uint256"
        },
        {
          "internalType": "address",
          "name": "_upperHint",
          "type": "address"
        },
        {
          "internalType": "address",
          "name": "_lowerHint",
          "type": "address"
        }
      ],
      "name": "withdrawU",
      "outputs": [],
      "stateMutability": "nonpayable",
      "type": "function"
    },
    {
      "inputs": [],
      "name": "wstETH",
      "outputs": [
        {
          "internalType": "address",
          "name": "",
          "type": "address"
        }
      ],
      "stateMutability": "view",
      "type": "function"
    }
  ],
  "bytecode": "0x608060405234801561001057600080fd5b50614d18806100206000396000f3fe6080604052600436106101475760003560e01c806302540e481461014c57806327d04b351461017f578063392e53cd1461019f5780633d83908a146101d057806348a4a39d146101fd57806349b010c5146102125780634aa07e64146102325780634c0a577d14610252578063501414f51461027257806352bc13e1146102855780635545db99146102a55780635cc4d148146102c5578063715018a6146102e557806372141e63146102fa578063743990211461030f5780637da0b1fa146103225780638235b284146103355780638da5cb5b146103555780639e86d0c41461036a578063a06a715c1461038a578063a20baee6146103aa578063a3f4df7e146103c6578063ae91875414610411578063bf8c500714610431578063cbd138ae14610451578063d733cfd014610471578063f2fde38b14610491578063f7a22d80146104b1575b600080fd5b34801561015857600080fd5b5061016c61016736600461461f565b6104d1565b6040519081526020015b60405180910390f35b34801561018b57600080fd5b5061016c61019a36600461464b565b610514565b3480156101ab57600080fd5b50606d546101c090600160a01b900460ff1681565b6040519015158152602001610176565b3480156101dc57600080fd5b506066546101f0906001600160a01b031681565b6040516101769190614668565b61021061020b36600461467c565b6106ed565b005b34801561021e57600080fd5b5061021061022d36600461467c565b610743565b34801561023e57600080fd5b506000546101f0906001600160a01b031681565b34801561025e57600080fd5b50606a546101f0906001600160a01b031681565b6102106102803660046146cf565b610787565b34801561029157600080fd5b50606c546101f0906001600160a01b031681565b3480156102b157600080fd5b50606b546101f0906001600160a01b031681565b3480156102d157600080fd5b506102106102e036600461464b565b6107e6565b3480156102f157600080fd5b50610210610838565b34801561030657600080fd5b506101f0600081565b61021061031d366004614745565b61084c565b6102106103303660046147ca565b6108a3565b34801561034157600080fd5b5061021061035036600461464b565b611163565b34801561036157600080fd5b506101f06111f3565b34801561037657600080fd5b5061016c61038536600461464b565b611202565b34801561039657600080fd5b506102106103a536600461467c565b61138e565b3480156103b657600080fd5b5061016c670de0b6b3a764000081565b3480156103d257600080fd5b5061040460405180604001604052806012815260200171426f72726f7765724f7065726174696f6e7360701b81525081565b6040516101769190614855565b34801561041d57600080fd5b50606d546101f0906001600160a01b031681565b34801561043d57600080fd5b5061021061044c366004614888565b6113d3565b34801561045d57600080fd5b5061021061046c36600461464b565b611417565b34801561047d57600080fd5b5061021061048c3660046148c9565b611a71565b34801561049d57600080fd5b506102106104ac36600461464b565b611e5d565b3480156104bd57600080fd5b506065546101f0906001600160a01b031681565b6000805483906001600160a01b0380831691161461050257604051631a40f2bd60e31b815260040160405180910390fd5b61050c8484611ed6565b949350505050565b600080606560009054906101000a90046001600160a01b03166001600160a01b0316637f7dde4a6040518163ffffffff1660e01b8152600401602060405180830381865afa15801561056a573d6000803e3d6000fd5b505050506040513d601f19601f8201168201806040525081019061058e9190614941565b6001600160a01b031663631a53d4846040518263ffffffff1660e01b81526004016105b99190614668565b602060405180830381865afa1580156105d6573d6000803e3d6000fd5b505050506040513d601f19601f820116820180604052508101906105fa919061495e565b90506000606560009054906101000a90046001600160a01b03166001600160a01b0316633cc742256040518163ffffffff1660e01b8152600401602060405180830381865afa158015610651573d6000803e3d6000fd5b505050506040513d601f19601f820116820180604052508101906106759190614941565b6001600160a01b031663631a53d4856040518263ffffffff1660e01b81526004016106a09190614668565b602060405180830381865afa1580156106bd573d6000803e3d6000fd5b505050506040513d601f19601f820116820180604052508101906106e1919061495e565b905061050c8282611f5e565b60005484906001600160a01b0380831691161461071d57604051631a40f2bd60e31b815260040160405180910390fd5b61073c8561072d87876000611f6a565b33600080600089896000612089565b5050505050565b60005484906001600160a01b0380831691161461077357604051631a40f2bd60e31b815260040160405180910390fd5b61073c856000338760008089896000612089565b60005485906001600160a01b038083169116146107b757604051631a40f2bd60e31b815260040160405180910390fd5b6107bf612908565b6107de866107cf88886000611f6a565b86600080600089896000612089565b505050505050565b6107ee6129d7565b606580546001600160a01b0319166001600160a01b0383169081179091556040517f98c5e303d085e26fdf8af6a41184b0937ed01142ae7fdfa02dcc87e7079c325390600090a250565b6108406129d7565b61084a6000612a36565b565b60005488906001600160a01b0380831691161461087c57604051631a40f2bd60e31b815260040160405180910390fd5b6108988961088c8b8b6001611f6a565b3389898989898f612089565b505050505050505050565b60005486906001600160a01b038083169116146108d357604051631a40f2bd60e31b815260040160405180910390fd5b6065546040516362a3b93f60e01b81526001600160a01b03909116906362a3b93f90610903908a90600401614668565b600060405180830381600087803b15801561091d57600080fd5b505af1158015610931573d6000803e3d6000fd5b5050604080516060810182526066546001600160a01b0390811682526065548351633fbeef2560e11b81529351600096509294506020808601949190921692637f7dde4a926004808401939192918290030181865afa158015610998573d6000803e3d6000fd5b505050506040513d601f19601f820116820180604052508101906109bc9190614941565b6001600160a01b039081168252606c54811660209283015260408051610120810182526000938101849052908101839052606081018390526080810183905260a0810183905260c0810183905260e081018390526101008101839052908b1680825292935091610a2d918a90611f6a565b9750606560009054906101000a90046001600160a01b03166001600160a01b031663741bef1a6040518163ffffffff1660e01b8152600401602060405180830381865afa158015610a82573d6000803e3d6000fd5b505050506040513d601f19601f82011682018060405250810190610aa69190614941565b8151604051635670bcc760e11b81526001600160a01b03929092169163ace1798e91610ad491600401614668565b6020604051808303816000875af1158015610af3573d6000803e3d6000fd5b505050506040513d601f19601f82011682018060405250810190610b17919061495e565b602082018190528151600091610b2d9190612a88565b9050610b3e82600001518983612b0f565b81518351610b4d919033612d56565b6060820187905280610b8a57815183516040850151610b6f9291908a8c612e1f565b604083018190526060830151610b8491611f5e565b60608301525b610b9c82600001518360600151612fd0565b610bae82600001518360600151611ed6565b60808301819052610bc157610bc1614977565b610bd489836080015184602001516130b7565b60a08301526080820151610be9908a906130ea565b60c08301528015610c0b57610c0682600001518360a00151613119565b610c4d565b610c1d82600001518360a001516131f9565b6000610c3b83600001518b60018660800151600188602001516132df565b9050610c4b836000015182613355565b505b825182516040516322894d8f60e21b81526001600160a01b0390921691638a25363c91610c8191339060019060040161498d565b600060405180830381600087803b158015610c9b57600080fd5b505af1158015610caf573d6000803e3d6000fd5b5050845184516040516322cbc1b360e11b81526001600160a01b03909216935063459783669250610ce69133908e9060040161498d565b6020604051808303816000875af1158015610d05573d6000803e3d6000fd5b505050506040513d601f19601f82011682018060405250810190610d29919061495e565b50825182516080840151604051637f2586fb60e11b81526001600160a01b039093169263fe4b0df692610d6392909133919060040161498d565b6020604051808303816000875af1158015610d82573d6000803e3d6000fd5b505050506040513d601f19601f82011682018060405250810190610da6919061495e565b508251825160405163c7a1bbdb60e01b81526001600160a01b039092169163c7a1bbdb91610dd89133906004016149b1565b600060405180830381600087803b158015610df257600080fd5b505af1158015610e06573d6000803e3d6000fd5b50508451845160405163dbe9f91960e01b81526001600160a01b03909216935063dbe9f9199250610e3b9133906004016149b1565b6020604051808303816000875af1158015610e5a573d6000803e3d6000fd5b505050506040513d601f19601f82011682018060405250810190610e7e919061495e565b60e0830152606d54825160c0840151604051633e499e0560e11b81526001600160a01b0390931692637c933c0a92610ec19290913391908c908c906004016149cb565b600060405180830381600087803b158015610edb57600080fd5b505af1158015610eef573d6000803e3d6000fd5b505084518451604051630706bdff60e11b81526001600160a01b039092169350630e0d7bfe9250610f249133906004016149b1565b6020604051808303816000875af1158015610f43573d6000803e3d6000fd5b505050506040513d601f19601f82011682018060405250810190610f67919061495e565b6101008301819052825160405191825233916001600160a01b03909116907fc78aeff453faf39d5a4a56acb99641aa471118956e00bdf4ca3e08ee6687fef69060200160405180910390a3610fc5826000015184602001518b61343b565b610fe3826000015184602001518560400151338b8760600151613588565b81516020840151604080860151606854606554925163e29607cf60e01b81526110e19594936001600160a01b0392831692169063e29607cf9061102a908790600401614668565b602060405180830381865afa158015611047573d6000803e3d6000fd5b505050506040513d601f19601f8201168201806040525081019061106b919061495e565b606554885160405163e29607cf60e01b81526001600160a01b039092169163e29607cf9161109b91600401614668565b602060405180830381865afa1580156110b8573d6000803e3d6000fd5b505050506040513d601f19601f820116820180604052508101906110dc919061495e565b613588565b8151608083015160e084015160405133936001600160a01b031692600080516020614cc38339815191529261111b928f9190600090614a1f565b60405180910390a38151604080840151905190815233916001600160a01b031690600080516020614ca38339815191529060200160405180910390a350505050505050505050565b60005481906001600160a01b0380831691161461119357604051631a40f2bd60e31b815260040160405180910390fd5b60695460405163ea16003f60e01b81526001600160a01b039091169063ea16003f906111c590859033906004016149b1565b600060405180830381600087803b1580156111df57600080fd5b505af11580156107de573d6000803e3d6000fd5b6033546001600160a01b031690565b600080606560009054906101000a90046001600160a01b03166001600160a01b0316637f7dde4a6040518163ffffffff1660e01b8152600401602060405180830381865afa158015611258573d6000803e3d6000fd5b505050506040513d601f19601f8201168201806040525081019061127c9190614941565b6001600160a01b0316635373433f846040518263ffffffff1660e01b81526004016112a79190614668565b602060405180830381865afa1580156112c4573d6000803e3d6000fd5b505050506040513d601f19601f820116820180604052508101906112e8919061495e565b90506000606560009054906101000a90046001600160a01b03166001600160a01b0316633cc742256040518163ffffffff1660e01b8152600401602060405180830381865afa15801561133f573d6000803e3d6000fd5b505050506040513d601f19601f820116820180604052508101906113639190614941565b6001600160a01b0316635373433f856040518263ffffffff1660e01b81526004016106a09190614668565b60005484906001600160a01b038083169116146113be57604051631a40f2bd60e31b815260040160405180910390fd5b61073c85600033600088600089896000612089565b60005485906001600160a01b0380831691161461140357604051631a40f2bd60e31b815260040160405180910390fd5b6107de86600033600088600189898d612089565b60005481906001600160a01b0380831691161461144757604051631a40f2bd60e31b815260040160405180910390fd5b61146b60405180606001604052806000815260200160008152602001600081525090565b60665460655460408051633fbeef2560e11b815290516001600160a01b03938416936000931691637f7dde4a9160048083019260209291908290030181865afa1580156114bc573d6000803e3d6000fd5b505050506040513d601f19601f820116820180604052508101906114e09190614941565b606c549091506001600160a01b03166114fa868433613652565b606560009054906101000a90046001600160a01b03166001600160a01b031663741bef1a6040518163ffffffff1660e01b8152600401602060405180830381865afa15801561154d573d6000803e3d6000fd5b505050506040513d601f19601f820116820180604052508101906115719190614941565b6001600160a01b031663ace1798e876040518263ffffffff1660e01b815260040161159c9190614668565b6020604051808303816000875af11580156115bb573d6000803e3d6000fd5b505050506040513d601f19601f820116820180604052508101906115df919061495e565b8085526115ed90879061372d565b60405163df4fb9ef60e01b81526001600160a01b0384169063df4fb9ef9061161b90899033906004016149b1565b600060405180830381600087803b15801561163557600080fd5b505af1158015611649573d6000803e3d6000fd5b505060405163305a536960e01b81526001600160a01b038616925063305a5369915061167b90899033906004016149b1565b602060405180830381865afa158015611698573d6000803e3d6000fd5b505050506040513d601f19601f820116820180604052508101906116bc919061495e565b6020850152604051631e7c58c160e31b81526001600160a01b0384169063f3e2c608906116ef90899033906004016149b1565b602060405180830381865afa15801561170c573d6000803e3d6000fd5b505050506040513d601f19601f82011682018060405250810190611730919061495e565b604080860191909152606554905163e29607cf60e01b81526117c591839133916117c0916001600160a01b039091169063e29607cf90611774908d90600401614668565b602060405180830381865afa158015611791573d6000803e3d6000fd5b505050506040513d601f19601f820116820180604052508101906117b5919061495e565b6040890151906137a6565b6137b2565b60006117e38786602001516000886040015160008a600001516132df565b90506117ef8782613355565b604051633ed3a18f60e21b81526001600160a01b0385169063fb4e863c9061181d908a9033906004016149b1565b600060405180830381600087803b15801561183757600080fd5b505af115801561184b573d6000803e3d6000fd5b50506040516317d5218560e21b81526001600160a01b0387169250635f548614915061187d908a9033906004016149b1565b600060405180830381600087803b15801561189757600080fd5b505af11580156118ab573d6000803e3d6000fd5b50505050336001600160a01b0316876001600160a01b0316600080516020614cc3833981519152600080600060016040516118e99493929190614a1f565b60405180910390a360655460405163e29607cf60e01b815261198291899186918691339161197d916001600160a01b039091169063e29607cf90611931908890600401614668565b602060405180830381865afa15801561194e573d6000803e3d6000fd5b505050506040513d601f19601f82011682018060405250810190611972919061495e565b60408c0151906137a6565b613892565b60685460655460405163e29607cf60e01b8152611a02928a92879287926001600160a01b0390811692169063e29607cf906119c1908790600401614668565b602060405180830381865afa1580156119de573d6000803e3d6000fd5b505050506040513d601f19601f8201168201806040525081019061197d919061495e565b60208501516040516347878f1560e01b81526001600160a01b038516916347878f1591611a36918b9133919060040161498d565b600060405180830381600087803b158015611a5057600080fd5b505af1158015611a64573d6000803e3d6000fd5b5050505050505050505050565b600054600160a81b900460ff1615808015611a9957506000546001600160a01b90910460ff16105b80611ac15750611aa83061394e565b158015611ac15750600054600160a01b900460ff166001145b611b295760405162461bcd60e51b815260206004820152602e60248201527f496e697469616c697a61626c653a20636f6e747261637420697320616c72656160448201526d191e481a5b9a5d1a585b1a5e995960921b60648201526084015b60405180910390fd5b6000805460ff60a01b1916600160a01b1790558015611b56576000805460ff60a81b1916600160a81b1790555b606d54600160a01b900460ff1615611ba65760405162461bcd60e51b8152602060048201526013602482015272105b1c9958591e481a5b9a5d1a585b1a5e9959606a1b6044820152606401611b20565b611baf8961395d565b611bb88861395d565b611bc18761395d565b611bca8661395d565b611bd38561395d565b611bdc8461395d565b611be58361395d565b611bee8261395d565b606d805460ff60a01b1916600160a01b179055611c09613a02565b606680546001600160a01b03199081166001600160a01b038c8116919091179092556067805482168b84161790556068805482168a8416179055606980548216898416179055606d80548216888416179055606c80548216878416179055606b805482169286169283179055606a80549091169091179055611c8a826107e6565b7f143219c9e69b09e07e095fcc889b43d8f46ca892bba65f08dc3a0050869a567889604051611cb99190614668565b60405180910390a17f82966d27eea39b038ee0fa30cd16532bb24f6e65d31cb58fb227aa5766cdcc7f88604051611cf09190614668565b60405180910390a17fcfb07d791fcafc032b35837b50eb84b74df518cf4cc287e8084f47630fa70fa087604051611d279190614668565b60405180910390a17fe67f36a6e961157d6eff83b91f3af5a62131ceb6f04954ef74f51c1c05e7f88d86604051611d5e9190614668565b60405180910390a17f65f4cf077bc01e4742eb5ad98326f6e95b63548ea24b17f8d5e823111fe7880085604051611d959190614668565b60405180910390a17fffbb094c9e44d0e86f5ef0b73fc5fd37eb0b9f00e5d56a3e5a591c1f63ae937884604051611dcc9190614668565b60405180910390a17f028d155b44cc706dadb63eac3ffb852c07d9f185cc5c4fbffc5d51f8742cb6e483604051611e039190614668565b60405180910390a18015610898576000805460ff60a81b19169055604051600181527f7f26b83ff96e1f2b6a682f133852f6798a09c465da95921460cefb38474024989060200160405180910390a1505050505050505050565b611e656129d7565b6001600160a01b038116611eca5760405162461bcd60e51b815260206004820152602660248201527f4f776e61626c653a206e6577206f776e657220697320746865207a65726f206160448201526564647265737360d01b6064820152608401611b20565b611ed381612a36565b50565b60655460405163e29607cf60e01b8152600091611f55916001600160a01b039091169063e29607cf90611f0d908790600401614668565b602060405180830381865afa158015611f2a573d6000803e3d6000fd5b505050506040513d601f19601f82011682018060405250810190611f4e919061495e565b8390611f5e565b90505b92915050565b6000611f558284614a57565b6000805484906001600160a01b03808316911614611f9b57604051631a40f2bd60e31b815260040160405180910390fd5b6001600160a01b038516158380611fb95750808015611fb957503415155b80611fcb575080158015611fcb575034155b61206d5760405162461bcd60e51b815260206004820152606160248201527f426f72726f7765724f703a20496e76616c696420496e7075742e204f7665727260448201527f696465206d73672e76616c7565206f6e6c79206966207573696e67204554482060648201527f61737365742c206f746865727769736520757365205f746f6b656e416d6f756e6084820152601d60fa1b60a482015260c401611b20565b6001600160a01b03861661207f573494505b5092949350505050565b604080516060810182526066546001600160a01b0390811682526065548351633fbeef2560e11b815293516000946020808601949390931692637f7dde4a926004808401938290030181865afa1580156120e7573d6000803e3d6000fd5b505050506040513d601f19601f8201168201806040525081019061210b9190614941565b6001600160a01b03168152602001606c60009054906101000a90046001600160a01b03166001600160a01b031681525090506121ba604051806101c0016040528060006001600160a01b031681526020016000815260200160008152602001600081526020016000151581526020016000815260200160008152602001600081526020016000815260200160008152602001600081526020016000815260200160008152602001600081525090565b6001600160a01b038b1681523415806121d257508934145b61223c5760405162461bcd60e51b815260206004820152603560248201527f426f72726f7765724f703a205f417373657453656e7420616e64204d73672e76604482015274616c7565206172656e2774207468652073616d652160581b6064820152608401611b20565b606560009054906101000a90046001600160a01b03166001600160a01b031663741bef1a6040518163ffffffff1660e01b8152600401602060405180830381865afa15801561228f573d6000803e3d6000fd5b505050506040513d601f19601f820116820180604052508101906122b39190614941565b8151604051635670bcc760e11b81526001600160a01b03929092169163ace1798e916122e191600401614668565b6020604051808303816000875af1158015612300573d6000803e3d6000fd5b505050506040513d601f19601f82011682018060405250810190612324919061495e565b60208201819052815160009161233a9190612a88565b9050861561235857815161234f908583612b0f565b61235888613a33565b612362898c613aa3565b61236d89898d613b13565b8151835161237c91908c613652565b336001600160a01b038b1614806124155750606754604051633c5f6d8f60e21b81526001600160a01b039091169063f17db63c906123be903390600401614668565b602060405180830381865afa1580156123db573d6000803e3d6000fd5b505050506040513d601f19601f820116820180604052508101906123ff9190614a6a565b801561240b575060008b115b8015612415575087155b61242157612421614977565b8251825160405163df4fb9ef60e01b81526001600160a01b039092169163df4fb9ef91612452918e906004016149b1565b600060405180830381600087803b15801561246c57600080fd5b505af1158015612480573d6000803e3d6000fd5b5050505061248e8b8a613bb5565b151560808401526040830152606082018890528680156124ac575080155b156124e3578151835160408501516124c79291908b88612e1f565b610140830181905260608301516124dd91611f5e565b60608301525b82518251604051631e7c58c160e31b81526001600160a01b039092169163f3e2c60891612514918e906004016149b1565b602060405180830381865afa158015612531573d6000803e3d6000fd5b505050506040513d601f19601f82011682018060405250810190612555919061495e565b60a08301528251825160405163305a536960e01b81526001600160a01b039092169163305a53699161258b918e906004016149b1565b602060405180830381865afa1580156125a8573d6000803e3d6000fd5b505050506040513d601f19601f820116820180604052508101906125cc919061495e565b60c0830181905260a083015160208401516125e89291906130b7565b8260e00181815250506126188260c001518360a001518460400151856080015186606001518c8860200151613bd4565b61010083015260c08201518911156126915760405162461bcd60e51b815260206004820152603660248201527f426f72726f7765724f703a20547279696e6720746f2072656d6f7665206d6f7260448201527565207468616e207468652074726f766520686f6c647360501b6064820152608401611b20565b81516126a090828b8a86613c07565b861580156126ae5750600088115b1561270a576126e082600001516126db84606001516126d586600001518760a00151613c83565b906137a6565b612fd0565b6126f782600001518360a001518460600151613d02565b61270a83604001518b84606001516137b2565b61272d826000015184600001518c8560400151866080015187606001518d613db5565b6101608401526101808301528251825160405163dbe9f91960e01b81526001600160a01b039092169163dbe9f9199161276a918e906004016149b1565b6020604051808303816000875af1158015612789573d6000803e3d6000fd5b505050506040513d601f19601f820116820180604052508101906127ad919061495e565b826101a001818152505060006127db8360c001518460a001518560400151866080015187606001518d613faf565b606d54845160405163bc9b5bd560e01b81529293506001600160a01b039091169163bc9b5bd591612816918f9086908d908d906004016149cb565b600060405180830381600087803b15801561283057600080fd5b505af1158015612844573d6000803e3d6000fd5b505050508a6001600160a01b031683600001516001600160a01b0316600080516020614cc3833981519152856101600151866101800151876101a0015160026040516128939493929190614a1f565b60405180910390a3825161014084015160405190815233916001600160a01b031690600080516020614ca38339815191529060200160405180910390a36128f983600001518560200151866040015133876040015188608001518f8f8b60600151613fd2565b50505050505050505050505050565b606754604051633c5f6d8f60e21b81526001600160a01b039091169063f17db63c90612938903390600401614668565b602060405180830381865afa158015612955573d6000803e3d6000fd5b505050506040513d601f19601f820116820180604052508101906129799190614a6a565b61084a5760405162461bcd60e51b815260206004820152602960248201527f426f72726f7765724f70733a2043616c6c6572206973206e6f742053746162696044820152681b1a5d1e48141bdbdb60ba1b6064820152608401611b20565b336129e06111f3565b6001600160a01b03161461084a5760405162461bcd60e51b815260206004820181905260248201527f4f776e61626c653a2063616c6c6572206973206e6f7420746865206f776e65726044820152606401611b20565b603380546001600160a01b038381166001600160a01b0319831681179093556040519116919082907f8be0079c531659141344cd1fd0a4f28419497f9722a3daafe3b4186f6b6457e090600090a35050565b600080612a95848461406c565b606554604051631f6a526d60e11b81529192506001600160a01b031690633ed4a4da90612ac6908790600401614668565b602060405180830381865afa158015612ae3573d6000803e3d6000fd5b505050506040513d601f19601f82011682018060405250810190612b07919061495e565b119392505050565b8015612bfb57606560009054906101000a90046001600160a01b03166001600160a01b031663a20baee66040518163ffffffff1660e01b8152600401602060405180830381865afa158015612b68573d6000803e3d6000fd5b505050506040513d601f19601f82011682018060405250810190612b8c919061495e565b821115612bf65760405162461bcd60e51b815260206004820152603260248201527f4d6178206665652070657263656e74616765206d757374206c657373207468616044820152716e206f7220657175616c20746f203130302560701b6064820152608401611b20565b505050565b606554604051631108308b60e31b81526001600160a01b0390911690638841845890612c2b908690600401614668565b602060405180830381865afa158015612c48573d6000803e3d6000fd5b505050506040513d601f19601f82011682018060405250810190612c6c919061495e565b8210158015612cf15750606560009054906101000a90046001600160a01b03166001600160a01b031663a20baee66040518163ffffffff1660e01b8152600401602060405180830381865afa158015612cc9573d6000803e3d6000fd5b505050506040513d601f19601f82011682018060405250810190612ced919061495e565b8211155b612bf65760405162461bcd60e51b815260206004820152603060248201527f4d6178206665652070657263656e74616765206d75737420626520626574776560448201526f656e20302e352520616e64203130302560801b6064820152608401611b20565b60405163614d120960e01b81526000906001600160a01b0384169063614d120990612d8790879086906004016149b1565b602060405180830381865afa158015612da4573d6000803e3d6000fd5b505050506040513d601f19601f82011682018060405250810190612dc8919061495e565b905080600103612e195760405162461bcd60e51b815260206004820152601c60248201527b426f72726f7765724f70733a2054726f76652069732061637469766560201b6044820152606401611b20565b50505050565b604051630daba89760e31b81526000906001600160a01b03861690636d5d44b890612e4e908990600401614668565b600060405180830381600087803b158015612e6857600080fd5b505af1158015612e7c573d6000803e3d6000fd5b50506040516314757c1360e31b8152600092506001600160a01b038816915063a3abe09890612eb1908a908890600401614a87565b602060405180830381865afa158015612ece573d6000803e3d6000fd5b505050506040513d601f19601f82011682018060405250810190612ef2919061495e565b9050612eff818585614092565b606b54604051636361ddf360e11b81526001600160a01b038088169263c6c3bbe692612f33928c921690869060040161498d565b600060405180830381600087803b158015612f4d57600080fd5b505af1158015612f61573d6000803e3d6000fd5b5050606a546040516342966f6760e11b8152600481018590526001600160a01b03909116925063852cdece9150602401600060405180830381600087803b158015612fab57600080fd5b505af1158015612fbf573d6000803e3d6000fd5b509293505050505b95945050505050565b60655460405163c4063a1960e01b81526001600160a01b039091169063c4063a1990613000908590600401614668565b602060405180830381865afa15801561301d573d6000803e3d6000fd5b505050506040513d601f19601f82011682018060405250810190613041919061495e565b8110156130b35760405162461bcd60e51b815260206004820152603a60248201527f426f72726f7765724f70733a2054726f76652773206e65742064656274206d7560448201527973742062652067726561746572207468616e206d696e696d756d60301b6064820152608401611b20565b5050565b600082156130de5760006130d5846130cf878661416b565b90614177565b91506130e39050565b506000195b9392505050565b6000811561311057613109826130cf8568056bc75e2d6310000061416b565b9050611f58565b50600019611f58565b606554604051631f6a526d60e11b81526001600160a01b0390911690633ed4a4da90613149908590600401614668565b602060405180830381865afa158015613166573d6000803e3d6000fd5b505050506040513d601f19601f8201168201806040525081019061318a919061495e565b8110156130b35760405162461bcd60e51b815260206004820152603760248201527f426f72726f7765724f70733a204f7065726174696f6e206d757374206c65617660448201527632903a3937bb32903bb4ba341024a1a9101f1e9021a1a960491b6064820152608401611b20565b6065546040516305f8cff960e01b81526001600160a01b03909116906305f8cff990613229908590600401614668565b602060405180830381865afa158015613246573d6000803e3d6000fd5b505050506040513d601f19601f8201168201806040525081019061326a919061495e565b8110156130b35760405162461bcd60e51b81526020600482015260496024820152600080516020614c8383398151915260448201527f6f756c6420726573756c7420696e20494352203c204d4352206973206e6f74206064820152681c195c9b5a5d1d195960ba1b608482015260a401611b20565b6000806132eb88611202565b905060006132f889610514565b90508661330e5761330982896137a6565b613318565b6133188289611f5e565b91508461332e5761332981876137a6565b613338565b6133388187611f5e565b905060006133478383876130b7565b9a9950505050505050505050565b606554604051631f6a526d60e11b81526001600160a01b0390911690633ed4a4da90613385908590600401614668565b602060405180830381865afa1580156133a2573d6000803e3d6000fd5b505050506040513d601f19601f820116820180604052508101906133c6919061495e565b8110156130b35760405162461bcd60e51b81526020600482015260496024820152600080516020614c8383398151915260448201527f6f756c6420726573756c7420696e20544352203c20434352206973206e6f74206064820152681c195c9b5a5d1d195960ba1b608482015260a401611b20565b6001600160a01b038316613502576000826001600160a01b03168260405160006040518083038185875af1925050503d8060008114613496576040519150601f19603f3d011682016040523d82523d6000602084013e61349b565b606091505b5050905080612e195760405162461bcd60e51b815260206004820152602d60248201527f426f72726f7765724f70733a2053656e64696e672045544820746f204163746960448201526c1d99541bdbdb0819985a5b1959609a1b6064820152608401611b20565b61352333836135118685614183565b6001600160a01b03871692919061424c565b604051633ac5bc0160e21b81526001600160a01b0383169063eb16f004906135519086908590600401614a87565b600060405180830381600087803b15801561356b57600080fd5b505af115801561357f573d6000803e3d6000fd5b50505050505050565b604051633c7e6c8960e01b81526001600160a01b03861690633c7e6c89906135b69089908590600401614a87565b600060405180830381600087803b1580156135d057600080fd5b505af11580156135e4573d6000803e3d6000fd5b5050604051636361ddf360e11b81526001600160a01b038716925063c6c3bbe691506136189089908790879060040161498d565b600060405180830381600087803b15801561363257600080fd5b505af1158015613646573d6000803e3d6000fd5b50505050505050505050565b60405163614d120960e01b81526000906001600160a01b0384169063614d12099061368390879086906004016149b1565b602060405180830381865afa1580156136a0573d6000803e3d6000fd5b505050506040513d601f19601f820116820180604052508101906136c4919061495e565b905080600114612e195760405162461bcd60e51b815260206004820152602e60248201527f426f72726f7765724f70733a2054726f766520646f6573206e6f74206578697360448201526d1d081bdc881a5cc818db1bdcd95960921b6064820152608401611b20565b6137378282612a88565b156130b35760405162461bcd60e51b815260206004820152603960248201527f426f72726f7765724f70733a204f7065726174696f6e206e6f74207065726d696044820152787474656420647572696e67205265636f76657279204d6f646560381b6064820152608401611b20565b6000611f558284614aa0565b6040516370a0823160e01b815281906001600160a01b038516906370a08231906137e0908690600401614668565b602060405180830381865afa1580156137fd573d6000803e3d6000fd5b505050506040513d601f19601f82011682018060405250810190613821919061495e565b1015612bf65760405162461bcd60e51b815260206004820152603a60248201527f426f72726f7765724f70733a2043616c6c657220646f65736e74206861766520604482015279195b9bdd59da0815481d1bc81b585ad9481c995c185e5b595b9d60321b6064820152608401611b20565b604051631197fc7160e01b81526001600160a01b03851690631197fc71906138c09088908590600401614a87565b600060405180830381600087803b1580156138da57600080fd5b505af11580156138ee573d6000803e3d6000fd5b5050604051632770a7eb60e21b81526001600160a01b0386169250639dc29fac91506139209085908590600401614a87565b600060405180830381600087803b15801561393a57600080fd5b505af1158015610898573d6000803e3d6000fd5b6001600160a01b03163b151590565b6001600160a01b0381166139b35760405162461bcd60e51b815260206004820152601e60248201527f4163636f756e742063616e6e6f74206265207a65726f206164647265737300006044820152606401611b20565b803b806130b35760405162461bcd60e51b815260206004820181905260248201527f4163636f756e7420636f64652073697a652063616e6e6f74206265207a65726f6044820152606401611b20565b600054600160a81b900460ff16613a2b5760405162461bcd60e51b8152600401611b2090614ab3565b61084a6142a4565b60008111611ed35760405162461bcd60e51b815260206004820152603760248201527f426f72726f7765724f70733a204465627420696e637265617365207265717569604482015276726573206e6f6e2d7a65726f20646562744368616e676560481b6064820152608401611b20565b811580613aae575080155b6130b35760405162461bcd60e51b815260206004820152603060248201527f426f72726f7765724f7065726174696f6e733a2043616e6e6f7420776974686460448201526f1c985dc8185b99081859190818dbdb1b60821b6064820152608401611b20565b34151580613b2057508215155b80613b2a57508115155b80613b3457508015155b612bf65760405162461bcd60e51b815260206004820152604660248201527f426f72726f7765724f70733a205468657265206d75737420626520656974686560448201527f72206120636f6c6c61746572616c206368616e6765206f7220612064656274206064820152656368616e676560d01b608482015260a401611b20565b6000808315613bc957508290506001613bcd565b8291505b9250929050565b6000806000613be78a8a8a8a8a8a6142d6565b915091506000613bf88383876130b7565b9b9a5050505050505050505050565b8315613c4357613c168361432a565b8115613c3e57613c2b85826101000151613119565b613c3e8161010001518260e0015161439e565b61073c565b613c52858261010001516131f9565b613c70858260400151836080015184606001518686602001516132df565b610120820181905261073c908690613355565b60655460405163e29607cf60e01b8152600091611f55916001600160a01b039091169063e29607cf90613cba908790600401614668565b602060405180830381865afa158015613cd7573d6000803e3d6000fd5b505050506040513d601f19601f82011682018060405250810190613cfb919061495e565b83906137a6565b60655460405163e29607cf60e01b8152613d34916001600160a01b03169063e29607cf90613cba908790600401614668565b811115612bf65760405162461bcd60e51b815260206004820152604360248201527f426f72726f7765724f70733a20416d6f756e7420726570616964206d7573742060448201527f6e6f74206265206c6172676572207468616e207468652054726f76652773206460648201526219589d60ea1b608482015260a401611b20565b600080600085613e3657604051622fae7760e81b81526001600160a01b038a1690632fae770090613dee908d908c908c9060040161498d565b6020604051808303816000875af1158015613e0d573d6000803e3d6000fd5b505050506040513d601f19601f82011682018060405250810190613e31919061495e565b613ea9565b6040516322cbc1b360e11b81526001600160a01b038a1690634597836690613e66908d908c908c9060040161498d565b6020604051808303816000875af1158015613e85573d6000803e3d6000fd5b505050506040513d601f19601f82011682018060405250810190613ea9919061495e565b9050600084613f2a57604051634231d8b560e11b81526001600160a01b038b1690638463b16a90613ee2908e908d908b9060040161498d565b6020604051808303816000875af1158015613f01573d6000803e3d6000fd5b505050506040513d601f19601f82011682018060405250810190613f25919061495e565b613f9d565b604051637f2586fb60e11b81526001600160a01b038b169063fe4b0df690613f5a908e908d908b9060040161498d565b6020604051808303816000875af1158015613f79573d6000803e3d6000fd5b505050506040513d601f19601f82011682018060405250810190613f9d919061495e565b919b919a509098505050505050505050565b6000806000613fc28989898989896142d6565b91509150600061334783836130ea565b8115613feb57613fe6898989898786613588565b613ff8565b613ff88989898987613892565b831561400e5761400989898761343b565b610898565b6040516347878f1560e01b81526001600160a01b038916906347878f159061403e908c908a908a9060040161498d565b600060405180830381600087803b15801561405857600080fd5b505af11580156128f9573d6000803e3d6000fd5b60008061407884611202565b9050600061408585610514565b9050612fc78282866130b7565b6000614119836130cf606560009054906101000a90046001600160a01b03166001600160a01b031663a20baee66040518163ffffffff1660e01b8152600401602060405180830381865afa1580156140ee573d6000803e3d6000fd5b505050506040513d601f19601f82011682018060405250810190614112919061495e565b879061416b565b905081811115612e195760405162461bcd60e51b815260206004820152601d60248201527f4665652065786365656465642070726f7669646564206d6178696d756d0000006044820152606401611b20565b6000611f558284614afe565b6000611f558284614b15565b60006001600160a01b03831661419a575080611f58565b816000036141aa57506000611f58565b6000836001600160a01b031663313ce5676040518163ffffffff1660e01b8152600401602060405180830381865afa1580156141ea573d6000803e3d6000fd5b505050506040513d601f19601f8201168201806040525081019061420e9190614b37565b905060128160ff1610156142445761423c61422a826012614b5a565b61423590600a614c57565b8490614177565b915050611f58565b509092915050565b612e19846323b872dd60e01b85858560405160240161426d9392919061498d565b60408051601f198184030181529190526020810180516001600160e01b03166001600160e01b031990931692909217909152614414565b600054600160a81b900460ff166142cd5760405162461bcd60e51b8152600401611b2090614ab3565b61084a33612a36565b6000808787866142ef576142ea8a896137a6565b6142f9565b6142f98a89611f5e565b91508461430f5761430a89876137a6565b614319565b6143198987611f5e565b919a91995090975050505050505050565b8015611ed35760405162461bcd60e51b815260206004820152603e60248201527f426f72726f7765724f70733a20436f6c6c61746572616c20776974686472617760448201527f616c206e6f74207065726d6974746564205265636f76657279204d6f646500006064820152608401611b20565b808210156130b35760405162461bcd60e51b815260206004820152603e60248201527f426f72726f7765724f70733a2043616e6e6f7420646563726561736520796f7560448201527f722054726f766527732049435220696e205265636f76657279204d6f646500006064820152608401611b20565b6000614469826040518060400160405280602081526020017f5361666545524332303a206c6f772d6c6576656c2063616c6c206661696c6564815250856001600160a01b03166144e99092919063ffffffff16565b905080516000148061448a57508080602001905181019061448a9190614a6a565b612bf65760405162461bcd60e51b815260206004820152602a60248201527f5361666545524332303a204552433230206f7065726174696f6e20646964206e6044820152691bdd081cdd58d8d9595960b21b6064820152608401611b20565b606061050c848460008585600080866001600160a01b031685876040516145109190614c66565b60006040518083038185875af1925050503d806000811461454d576040519150601f19603f3d011682016040523d82523d6000602084013e614552565b606091505b50915091506145638783838761456e565b979650505050505050565b606083156145db5782516000036145d4576145888561394e565b6145d45760405162461bcd60e51b815260206004820152601d60248201527f416464726573733a2063616c6c20746f206e6f6e2d636f6e74726163740000006044820152606401611b20565b508161050c565b61050c83838151156145f05781518083602001fd5b8060405162461bcd60e51b8152600401611b209190614855565b6001600160a01b0381168114611ed357600080fd5b6000806040838503121561463257600080fd5b823561463d8161460a565b946020939093013593505050565b60006020828403121561465d57600080fd5b81356130e38161460a565b6001600160a01b0391909116815260200190565b6000806000806080858703121561469257600080fd5b843561469d8161460a565b93506020850135925060408501356146b48161460a565b915060608501356146c48161460a565b939692955090935050565b600080600080600060a086880312156146e757600080fd5b85356146f28161460a565b94506020860135935060408601356147098161460a565b925060608601356147198161460a565b915060808601356147298161460a565b809150509295509295909350565b8015158114611ed357600080fd5b600080600080600080600080610100898b03121561476257600080fd5b883561476d8161460a565b97506020890135965060408901359550606089013594506080890135935060a089013561479981614737565b925060c08901356147a98161460a565b915060e08901356147b98161460a565b809150509295985092959890939650565b60008060008060008060c087890312156147e357600080fd5b86356147ee8161460a565b955060208701359450604087013593506060870135925060808701356148138161460a565b915060a08701356148238161460a565b809150509295509295509295565b60005b8381101561484c578181015183820152602001614834565b50506000910152565b6020815260008251806020840152614874816040850160208701614831565b601f01601f19169190910160400192915050565b600080600080600060a086880312156148a057600080fd5b85356148ab8161460a565b9450602086013593506040860135925060608601356147198161460a565b600080600080600080600080610100898b0312156148e657600080fd5b88356148f18161460a565b975060208901356149018161460a565b965060408901356149118161460a565b955060608901356149218161460a565b945060808901356149318161460a565b935060a08901356147998161460a565b60006020828403121561495357600080fd5b81516130e38161460a565b60006020828403121561497057600080fd5b5051919050565b634e487b7160e01b600052600160045260246000fd5b6001600160a01b039384168152919092166020820152604081019190915260600190565b6001600160a01b0392831681529116602082015260400190565b6001600160a01b0395861681529385166020850152604084019290925283166060830152909116608082015260a00190565b60038110614a1b57634e487b7160e01b600052602160045260246000fd5b9052565b848152602081018490526040810183905260808101612fc760608301846149fd565b634e487b7160e01b600052601160045260246000fd5b80820180821115611f5857611f58614a41565b600060208284031215614a7c57600080fd5b81516130e381614737565b6001600160a01b03929092168252602082015260400190565b81810381811115611f5857611f58614a41565b6020808252602b908201527f496e697469616c697a61626c653a20636f6e7472616374206973206e6f74206960408201526a6e697469616c697a696e6760a81b606082015260800190565b8082028115828204841417611f5857611f58614a41565b600082614b3257634e487b7160e01b600052601260045260246000fd5b500490565b600060208284031215614b4957600080fd5b815160ff811681146130e357600080fd5b60ff8281168282160390811115611f5857611f58614a41565b600181815b80851115614bae578160001904821115614b9457614b94614a41565b80851615614ba157918102915b93841c9390800290614b78565b509250929050565b600082614bc557506001611f58565b81614bd257506000611f58565b8160018114614be85760028114614bf257614c0e565b6001915050611f58565b60ff841115614c0357614c03614a41565b50506001821b611f58565b5060208310610133831016604e8410600b8410161715614c31575081810a611f58565b614c3b8383614b73565b8060001904821115614c4f57614c4f614a41565b029392505050565b6000611f5560ff841683614bb6565b60008251614c78818460208701614831565b919091019291505056fe426f72726f7765724f70733a20416e206f7065726174696f6e207468617420777fe8c11964bd4400688f43844e9c5ce4280a11fcd43a6dc51d31a4cc39527b2a100d2512a463b515ea8d03a69afbcc791f1bd9139132e820631bec236f524ec1a26469706673582212204d27a645cdcb19458fc5f090a51e30f4c7e662cd6efbcc44e554e1b309c538c864736f6c63430008110033",
  "linkReferences": {},
  "deployedLinkReferences": {}
}