{
  "_format": "hh-sol-artifact-1",
  "contractName": "PriceFeedV2",
  "sourceName": "contracts/PriceFeedV2.sol",
  "abi": [
    {
      "anonymous": false,
      "inputs": [
        {
          "indexed": false,
          "internalType": "uint8",
          "name": "version",
          "type": "uint8"
        }
      ],
      "name": "Initialized",
      "type": "event"
    },
    {
      "anonymous": false,
      "inputs": [
        {
          "indexed": true,
          "internalType": "address",
          "name": "token",
          "type": "address"
        },
        {
          "indexed": false,
          "internalType": "uint256",
          "name": "_lastGoodIndex",
          "type": "uint256"
        }
      ],
      "name": "LastGoodIndexUpdated",
      "type": "event"
    },
    {
      "anonymous": false,
      "inputs": [
        {
          "indexed": true,
          "internalType": "address",
          "name": "token",
          "type": "address"
        },
        {
          "indexed": false,
          "internalType": "uint256",
          "name": "_lastGoodPrice",
          "type": "uint256"
        }
      ],
      "name": "LastGoodPriceUpdated",
      "type": "event"
    },
    {
      "anonymous": false,
      "inputs": [
        {
          "indexed": true,
          "internalType": "address",
          "name": "previousOwner",
          "type": "address"
        },
        {
          "indexed": true,
          "internalType": "address",
          "name": "newOwner",
          "type": "address"
        }
      ],
      "name": "OwnershipTransferred",
      "type": "event"
    },
    {
      "anonymous": false,
      "inputs": [
        {
          "indexed": false,
          "internalType": "enum IPriceFeed.Status",
          "name": "newStatus",
          "type": "uint8"
        }
      ],
      "name": "PriceFeedStatusChanged",
      "type": "event"
    },
    {
      "anonymous": false,
      "inputs": [
        {
          "indexed": false,
          "internalType": "address",
          "name": "token",
          "type": "address"
        },
        {
          "indexed": false,
          "internalType": "address",
          "name": "chainLinkAggregator",
          "type": "address"
        },
        {
          "indexed": false,
          "internalType": "bytes32",
          "name": "tellorId",
          "type": "bytes32"
        }
      ],
      "name": "RegisteredNewOracle",
      "type": "event"
    },
    {
      "inputs": [],
      "name": "DECIMAL_PRECISION",
      "outputs": [
        {
          "internalType": "uint256",
          "name": "",
          "type": "uint256"
        }
      ],
      "stateMutability": "view",
      "type": "function"
    },
    {
      "inputs": [],
      "name": "FLAG_ARBITRUM_SEQ_OFFLINE",
      "outputs": [
        {
          "internalType": "address",
          "name": "",
          "type": "address"
        }
      ],
      "stateMutability": "view",
      "type": "function"
    },
    {
      "inputs": [],
      "name": "MAX_PRICE_DEVIATION_FROM_PREVIOUS_ROUND",
      "outputs": [
        {
          "internalType": "uint256",
          "name": "",
          "type": "uint256"
        }
      ],
      "stateMutability": "view",
      "type": "function"
    },
    {
      "inputs": [],
      "name": "MAX_PRICE_DIFFERENCE_BETWEEN_ORACLES",
      "outputs": [
        {
          "internalType": "uint256",
          "name": "",
          "type": "uint256"
        }
      ],
      "stateMutability": "view",
      "type": "function"
    },
    {
      "inputs": [],
      "name": "NAME",
      "outputs": [
        {
          "internalType": "string",
          "name": "",
          "type": "string"
        }
      ],
      "stateMutability": "view",
      "type": "function"
    },
    {
      "inputs": [],
      "name": "TARGET_DIGITS",
      "outputs": [
        {
          "internalType": "uint256",
          "name": "",
          "type": "uint256"
        }
      ],
      "stateMutability": "view",
      "type": "function"
    },
    {
      "inputs": [],
      "name": "TELLOR_DIGITS",
      "outputs": [
        {
          "internalType": "uint256",
          "name": "",
          "type": "uint256"
        }
      ],
      "stateMutability": "view",
      "type": "function"
    },
    {
      "inputs": [],
      "name": "TIMEOUT",
      "outputs": [
        {
          "internalType": "uint256",
          "name": "",
          "type": "uint256"
        }
      ],
      "stateMutability": "view",
      "type": "function"
    },
    {
      "inputs": [
        {
          "internalType": "address",
          "name": "_token",
          "type": "address"
        },
        {
          "internalType": "address",
          "name": "_chainlinkOracle",
          "type": "address"
        },
        {
          "internalType": "bytes32",
          "name": "_tellorId",
          "type": "bytes32"
        }
      ],
      "name": "addOracle",
      "outputs": [],
      "stateMutability": "nonpayable",
      "type": "function"
    },
    {
      "inputs": [],
      "name": "adminContract",
      "outputs": [
        {
          "internalType": "address",
          "name": "",
          "type": "address"
        }
      ],
      "stateMutability": "view",
      "type": "function"
    },
    {
      "inputs": [],
      "name": "chainlinkFlags",
      "outputs": [
        {
          "internalType": "contract FlagsInterface",
          "name": "",
          "type": "address"
        }
      ],
      "stateMutability": "view",
      "type": "function"
    },
    {
      "inputs": [
        {
          "internalType": "address",
          "name": "_token",
          "type": "address"
        }
      ],
      "name": "fetchPrice",
      "outputs": [
        {
          "internalType": "uint256",
          "name": "",
          "type": "uint256"
        }
      ],
      "stateMutability": "nonpayable",
      "type": "function"
    },
    {
      "inputs": [],
      "name": "isInitialized",
      "outputs": [
        {
          "internalType": "bool",
          "name": "",
          "type": "bool"
        }
      ],
      "stateMutability": "view",
      "type": "function"
    },
    {
      "inputs": [
        {
          "internalType": "address",
          "name": "",
          "type": "address"
        }
      ],
      "name": "lastGoodPrice",
      "outputs": [
        {
          "internalType": "uint256",
          "name": "",
          "type": "uint256"
        }
      ],
      "stateMutability": "view",
      "type": "function"
    },
    {
      "inputs": [],
      "name": "owner",
      "outputs": [
        {
          "internalType": "address",
          "name": "",
          "type": "address"
        }
      ],
      "stateMutability": "view",
      "type": "function"
    },
    {
      "inputs": [
        {
          "internalType": "address",
          "name": "",
          "type": "address"
        }
      ],
      "name": "registeredOracles",
      "outputs": [
        {
          "internalType": "contract AggregatorV3Interface",
          "name": "chainLinkOracle",
          "type": "address"
        },
        {
          "internalType": "bool",
          "name": "isRegistered",
          "type": "bool"
        },
        {
          "internalType": "bytes32",
          "name": "tellorId",
          "type": "bytes32"
        }
      ],
      "stateMutability": "view",
      "type": "function"
    },
    {
      "inputs": [],
      "name": "renounceOwnership",
      "outputs": [],
      "stateMutability": "nonpayable",
      "type": "function"
    },
    {
      "inputs": [
        {
          "internalType": "address",
          "name": "_chainlinkFlag",
          "type": "address"
        },
        {
          "internalType": "address",
          "name": "_adminContract",
          "type": "address"
        },
        {
          "internalType": "address",
          "name": "_tellorCaller",
          "type": "address"
        }
      ],
      "name": "setAddresses",
      "outputs": [],
      "stateMutability": "nonpayable",
      "type": "function"
    },
    {
      "inputs": [
        {
          "internalType": "address",
          "name": "_admin",
          "type": "address"
        }
      ],
      "name": "setAdminContract",
      "outputs": [],
      "stateMutability": "nonpayable",
      "type": "function"
    },
    {
      "inputs": [],
      "name": "status",
      "outputs": [
        {
          "internalType": "enum IPriceFeed.Status",
          "name": "",
          "type": "uint8"
        }
      ],
      "stateMutability": "view",
      "type": "function"
    },
    {
      "inputs": [],
      "name": "tellorCaller",
      "outputs": [
        {
          "internalType": "contract ITellorCaller",
          "name": "",
          "type": "address"
        }
      ],
      "stateMutability": "view",
      "type": "function"
    },
    {
      "inputs": [
        {
          "internalType": "address",
          "name": "newOwner",
          "type": "address"
        }
      ],
      "name": "transferOwnership",
      "outputs": [],
      "stateMutability": "nonpayable",
      "type": "function"
    }
  ],
  "bytecode": "0x608060405234801561001057600080fd5b506118a5806100206000396000f3fe608060405234801561001057600080fd5b50600436106101125760003560e01c80631be5c92f14610117578063200d2ed21461013257806331eab82514610153578063363bf9641461017b578063392e53cd1461019057806345079cb4146101b457806358a6aa88146101c257806363a812f9146101d1578063715018a6146101e45780637c61e3bf146101ec5780638429bbf6146101ff5780638da5cb5b1461021f578063a0b79b9a14610227578063a20baee61461023a578063a3f4df7e14610249578063ace1798e14610280578063c05c5e9414610293578063e4362b23146102a6578063e4440e0214610308578063ebf8e6c61461031b578063f2fde38b14610323578063f56f48f214610336575b600080fd5b61011f601281565b6040519081526020015b60405180910390f35b60675461014690600160a01b900460ff1681565b60405161012991906114ad565b61016e73a438451d6458044c3c8cd2f6f31c91ac882a6d9181565b60405161012991906114d5565b61018e610189366004611500565b61033f565b005b6066546101a490600160a01b900460ff1681565b6040519015158152602001610129565b61011f66b1a2bc2ec5000081565b61011f6706f05b59d3b2000081565b61018e6101df366004611543565b6104e1565b61018e61051e565b60665461016e906001600160a01b031681565b61011f61020d366004611543565b60696020526000908152604090205481565b61016e610532565b61018e61023536600461155e565b610541565b61011f670de0b6b3a764000081565b6102736040518060400160405280600b81526020016a283934b1b2a332b2b22b1960a91b81525081565b604051610129919061159a565b61011f61028e366004611543565b610707565b60675461016e906001600160a01b031681565b6102e36102b4366004611543565b606860205260009081526040902080546001909101546001600160a01b03821691600160a01b900460ff169083565b604080516001600160a01b039094168452911515602084015290820152606001610129565b60655461016e906001600160a01b031681565b61011f600681565b61018e610331366004611543565b610aec565b61011f61384081565b600054610100900460ff161580801561035f5750600054600160ff909116105b806103795750303b158015610379575060005460ff166001145b6103e15760405162461bcd60e51b815260206004820152602e60248201527f496e697469616c697a61626c653a20636f6e747261637420697320616c72656160448201526d191e481a5b9a5d1a585b1a5e995960921b60648201526084015b60405180910390fd5b6000805460ff191660011790558015610404576000805461ff0019166101001790555b606654600160a01b900460ff161561041b57600080fd5b61042484610b65565b61042d83610b65565b61043682610b65565b6066805460ff60a01b1916600160a01b179055610451610c0e565b60678054606580546001600160a01b038881166001600160a01b0319928316179092556066805487841692169190911790556001600160a81b031990911690851617905580156104db576000805461ff0019169055604051600181527f7f26b83ff96e1f2b6a682f133852f6798a09c465da95921460cefb38474024989060200160405180910390a15b50505050565b6104e9610c3d565b6001600160a01b0381166104fc57600080fd5b606780546001600160a01b0319166001600160a01b0392909216919091179055565b610526610c3d565b6105306000610c9c565b565b6033546001600160a01b031690565b610549610532565b6001600160a01b0316336001600160a01b0316148061057257506067546001600160a01b031633145b6105b35760405162461bcd60e51b815260206004820152601260248201527124b73b30b634b2102832b936b4b9b9b4b7b760711b60448201526064016103d8565b604080516060810182526001600160a01b03808516825260016020808401828152848601878152898516600090815260689093529582209451855491511515600160a01b026001600160a81b03199092169416939093179290921783559251919092015582908061062383610cee565b915091506106318282610d23565b158015610644575061064282610d46565b155b6106a95760405162461bcd60e51b815260206004820152603060248201527f5072696365466565643a20436861696e6c696e6b206d75737420626520776f7260448201526f1ada5b99c8185b990818dd5c9c995b9d60821b60648201526084016103d8565b6106b38683610d69565b50604080516001600160a01b038089168252871660208201529081018590527fd3f51980d8160932f826899d422b8d5f469e0b0c5aa705b2303b68a9ddb5593f9060600160405180910390a1505050505050565b6001600160a01b03811660009081526068602052604081208054600160a01b900460ff166107735760405162461bcd60e51b81526020600482015260196024820152784f7261636c65206973206e6f7420726567697374657265642160381b60448201526064016103d8565b8054600090819061078c906001600160a01b0316610cee565b91509150600061079f8460010154610d8d565b6001600160a01b038716600090815260696020526040812054919250606754600160a01b900460ff1660048111156107d9576107d9611497565b03610908576107e88484610d23565b15610846576107f682610e49565b1561080f576108056002610e99565b9695505050505050565b61081882610d46565b15610827576108056001610e99565b6108316001610e99565b61083b8783610efd565b979650505050505050565b61084f84610d46565b1561088e5761085d82610e49565b1561086c576108056004610e99565b6108766003610e99565b61087f82610d46565b15610831579695505050505050565b6108988484610f0d565b156108e6576108a682610e49565b156108b5576108056002610e99565b6108be82610d46565b156108cd576108056001610e99565b6108d78483610f9a565b156108275761083b8785610d69565b6108ef82610e49565b156108fe576108fe6004610e99565b61083b8785610d69565b6001606754600160a01b900460ff16600481111561092857610928611497565b0361095f57610938848484611013565b15610947576108fe6000610e99565b61095082610e49565b15610876576108056002610e99565b6002606754600160a01b900460ff16600481111561097f5761097f611497565b0361099e5761098f848484611013565b15610805576108fe6000610e99565b6003606754600160a01b900460ff1660048111156109be576109be611497565b03610a63576109cd8484610d23565b156109f4576109db82610e49565b156109ea576108056002610e99565b6108766001610e99565b6109fd84610d46565b15610a1a57610a0b82610e49565b15610876576108056004610e99565b610a2382610e49565b15610a32576108fe6004610e99565b610a3b82610d46565b15610a4a579695505050505050565b610a548483610f9a565b15610827576108fe6000610e99565b6004606754600160a01b900460ff166004811115610a8357610a83611497565b0361080557610a928484610d23565b15610aa1576108056002610e99565b610aaa84610d46565b15610ab9579695505050505050565b610ac4848484611013565b15610ad3576108fe6000610e99565b610add8484610f0d565b156108fe576108056002610e99565b610af4610c3d565b6001600160a01b038116610b595760405162461bcd60e51b815260206004820152602660248201527f4f776e61626c653a206e6577206f776e657220697320746865207a65726f206160448201526564647265737360d01b60648201526084016103d8565b610b6281610c9c565b50565b6001600160a01b038116610bbb5760405162461bcd60e51b815260206004820152601e60248201527f4163636f756e742063616e6e6f74206265207a65726f2061646472657373000060448201526064016103d8565b803b80610c0a5760405162461bcd60e51b815260206004820181905260248201527f4163636f756e7420636f64652073697a652063616e6e6f74206265207a65726f60448201526064016103d8565b5050565b600054610100900460ff16610c355760405162461bcd60e51b81526004016103d8906115e8565b61053061106d565b33610c46610532565b6001600160a01b0316146105305760405162461bcd60e51b815260206004820181905260248201527f4f776e61626c653a2063616c6c6572206973206e6f7420746865206f776e657260448201526064016103d8565b603380546001600160a01b038381166001600160a01b0319831681179093556040519116919082907f8be0079c531659141344cd1fd0a4f28419497f9722a3daafe3b4186f6b6457e090600090a35050565b610cf6611469565b610cfe611469565b610d078361109d565b9150610d1c8383600001518460800151611227565b9050915091565b6000610d2e836112de565b80610d3d5750610d3d826112de565b90505b92915050565b6000613840610d6283604001514261134090919063ffffffff16565b1192915050565b600080610d818360200151846080015160ff1661134c565b9050610d3d84826113af565b60408051608081018252600080825260208201819052918101829052606081019190915281610dbb57919050565b606654604051637835690560e01b8152600481018490526001600160a01b0390911690637835690590602401606060405180830381865afa925050508015610e20575060408051601f3d908101601f19168201909252610e1d91810190611643565b60015b610e2957919050565b91151583526020830152604082015260016060820152919050565b919050565b60008160600151610e5c57506001919050565b60408201511580610e705750428260400151115b15610e7d57506001919050565b8160200151600003610e9157506001919050565b506000919050565b6067805482919060ff60a01b1916600160a01b836004811115610ebe57610ebe611497565b02179055507f5c57579a8214fe4f710c1c56fa829f045b9fa6d225a744225a30c32188064d4e81604051610ef291906114ad565b60405180910390a150565b600080610d818360200151611408565b600080610f258460200151856080015160ff1661134c565b90506000610f3e8460200151856080015160ff1661134c565b90506000610f4c838361142b565b90506000610f5a8484611441565b90506000610f8482610f7e670de0b6b3a7640000610f788388611340565b90611451565b9061145d565b6706f05b59d3b200001098975050505050505050565b600080610fb28460200151856080015160ff1661134c565b90506000610fc38460200151611408565b90506000610fd1828461142b565b90506000610fdf8385611441565b90506000610ffd83610f7e670de0b6b3a7640000610f788684611340565b66b1a2bc2ec50000101598975050505050505050565b600061101e82610e49565b8061102d575061102d82610d46565b8061103d575061103d8484610d23565b8061104c575061104c84610d46565b1561105957506000611066565b6110638483610f9a565b90505b9392505050565b600054610100900460ff166110945760405162461bcd60e51b81526004016103d8906115e8565b61053033610c9c565b6110a5611469565b606554604051631abf23ff60e11b81526001600160a01b039091169063357e47fe906110e99073a438451d6458044c3c8cd2f6f31c91ac882a6d91906004016114d5565b602060405180830381865afa158015611106573d6000803e3d6000fd5b505050506040513d601f19601f8201168201806040525081019061112a9190611678565b1561113457919050565b816001600160a01b031663313ce5676040518163ffffffff1660e01b8152600401602060405180830381865afa92505050801561118e575060408051601f3d908101601f1916820190925261118b91810190611693565b60015b61119757919050565b60ff166080820152816001600160a01b031663feaf968c6040518163ffffffff1660e01b815260040160a060405180830381865afa9250505080156111f9575060408051601f3d908101601f191682019092526111f6918101906116cd565b60015b61120257919050565b506001600160501b039093168452506020830152604082015260016060820152919050565b61122f611469565b6001600160501b0383161561106657604051639a6fc8f560e01b81526001600160501b0360001985011660048201526001600160a01b03851690639a6fc8f59060240160a060405180830381865afa9250505080156112ab575060408051601f3d908101601f191682019092526112a8918101906116cd565b60015b1561106657506001600160501b039093168452506020830152604082015260ff8216608082015260016060820152611066565b600081606001516112f157506001919050565b81516001600160501b031660000361130b57506001919050565b6040820151158061131f5750428260400151115b1561132c57506001919050565b6000826020015113610e9157506001919050565b6000610d3d8284611733565b6000806012831061137e57611377611365601285611733565b61137090600a61182a565b859061145d565b9050610d3d565b6012831015610d3d576113a7611395846012611733565b6113a090600a61182a565b8590611451565b949350505050565b6001600160a01b03821660008181526069602052604090819020839055517f9a696fe6a955b23852e2b245b6847dfda7d8944623d9b42628e087344ad17963906113fc9084815260200190565b60405180910390a25050565b6000610d4061141960066012611733565b61142490600a61182a565b8390611451565b600081831061143a5781610d3d565b5090919050565b60008183101561143a5781610d3d565b6000610d3d8284611836565b6000610d3d828461184d565b6040805160a08101825260008082526020820181905291810182905260608101829052608081019190915290565b634e487b7160e01b600052602160045260246000fd5b60208101600583106114cf57634e487b7160e01b600052602160045260246000fd5b91905290565b6001600160a01b0391909116815260200190565b80356001600160a01b0381168114610e4457600080fd5b60008060006060848603121561151557600080fd5b61151e846114e9565b925061152c602085016114e9565b915061153a604085016114e9565b90509250925092565b60006020828403121561155557600080fd5b610d3d826114e9565b60008060006060848603121561157357600080fd5b61157c846114e9565b925061158a602085016114e9565b9150604084013590509250925092565b600060208083528351808285015260005b818110156115c7578581018301518582016040015282016115ab565b506000604082860101526040601f19601f8301168501019250505092915050565b6020808252602b908201527f496e697469616c697a61626c653a20636f6e7472616374206973206e6f74206960408201526a6e697469616c697a696e6760a81b606082015260800190565b80518015158114610e4457600080fd5b60008060006060848603121561165857600080fd5b61166184611633565b925060208401519150604084015190509250925092565b60006020828403121561168a57600080fd5b610d3d82611633565b6000602082840312156116a557600080fd5b815160ff81168114610d3d57600080fd5b80516001600160501b0381168114610e4457600080fd5b600080600080600060a086880312156116e557600080fd5b6116ee866116b6565b9450602086015193506040860151925060608601519150611711608087016116b6565b90509295509295909350565b634e487b7160e01b600052601160045260246000fd5b81810381811115610d4057610d4061171d565b600181815b808511156117815781600019048211156117675761176761171d565b8085161561177457918102915b93841c939080029061174b565b509250929050565b60008261179857506001610d40565b816117a557506000610d40565b81600181146117bb57600281146117c5576117e1565b6001915050610d40565b60ff8411156117d6576117d661171d565b50506001821b610d40565b5060208310610133831016604e8410600b8410161715611804575081810a610d40565b61180e8383611746565b80600019048211156118225761182261171d565b029392505050565b6000610d3d8383611789565b8082028115828204841417610d4057610d4061171d565b60008261186a57634e487b7160e01b600052601260045260246000fd5b50049056fea264697066735822122055cf84ac67f3f68cd0f70b69801555ff0ee6359e54f6f4d37ce1f8c645181f2a64736f6c63430008110033",
  "linkReferences": {},
  "deployedLinkReferences": {}
}