{
  "_format": "hh-sol-artifact-1",
  "contractName": "VestaSafeMath128Tester",
  "sourceName": "contracts/TestContracts/LiquitySafeMath128Tester.sol",
  "abi": [
    {
      "inputs": [
        {
          "internalType": "uint128",
          "name": "a",
          "type": "uint128"
        },
        {
          "internalType": "uint128",
          "name": "b",
          "type": "uint128"
        }
      ],
      "name": "add",
      "outputs": [
        {
          "internalType": "uint128",
          "name": "",
          "type": "uint128"
        }
      ],
      "stateMutability": "pure",
      "type": "function"
    },
    {
      "inputs": [
        {
          "internalType": "uint128",
          "name": "a",
          "type": "uint128"
        },
        {
          "internalType": "uint128",
          "name": "b",
          "type": "uint128"
        }
      ],
      "name": "sub",
      "outputs": [
        {
          "internalType": "uint128",
          "name": "",
          "type": "uint128"
        }
      ],
      "stateMutability": "pure",
      "type": "function"
    }
  ],
  "bytecode": "0x608060405234801561001057600080fd5b50610299806100206000396000f3fe608060405234801561001057600080fd5b50600436106100365760003560e01c8063a6fd00851461003b578063feb993901461006a575b600080fd5b61004e6100493660046101d3565b61007d565b6040516001600160801b03909116815260200160405180910390f35b61004e6100783660046101d3565b610099565b60006100926001600160801b038416836100ae565b9392505050565b60006100926001600160801b0384168361013a565b6000826001600160801b0316826001600160801b031611156101265760405162461bcd60e51b815260206004820152602660248201527f5665737461536166654d6174683132383a207375627472616374696f6e206f766044820152656572666c6f7760d01b60648201526084015b60405180910390fd5b6000610132838561021c565b949350505050565b6000806101478385610243565b9050836001600160801b0316816001600160801b031610156100925760405162461bcd60e51b815260206004820152602360248201527f5665737461536166654d6174683132383a206164646974696f6e206f766572666044820152626c6f7760e81b606482015260840161011d565b80356001600160801b03811681146101ce57600080fd5b919050565b600080604083850312156101e657600080fd5b6101ef836101b7565b91506101fd602084016101b7565b90509250929050565b634e487b7160e01b600052601160045260246000fd5b6001600160801b0382811682821603908082111561023c5761023c610206565b5092915050565b6001600160801b0381811683821601908082111561023c5761023c61020656fea2646970667358221220852ee11811a3ae5584dd2d2454f2e4b619b0cd8b6ef95938c1341a0ddab239c464736f6c63430008110033",
  "linkReferences": {},
  "deployedLinkReferences": {}
}