{
  "_format": "hh-sol-artifact-1",
  "contractName": "TroveManagerScript",
  "sourceName": "contracts/Proxy/TroveManagerScript.sol",
  "abi": [
    {
      "inputs": [
        {
          "internalType": "contract ITroveManager",
          "name": "_troveManager",
          "type": "address"
        }
      ],
      "stateMutability": "nonpayable",
      "type": "constructor"
    },
    {
      "inputs": [],
      "name": "NAME",
      "outputs": [
        {
          "internalType": "string",
          "name": "",
          "type": "string"
        }
      ],
      "stateMutability": "view",
      "type": "function"
    },
    {
      "inputs": [
        {
          "internalType": "address",
          "name": "_asset",
          "type": "address"
        },
        {
          "internalType": "uint256",
          "name": "_YOUmount",
          "type": "uint256"
        },
        {
          "internalType": "address",
          "name": "_firstRedemptionHint",
          "type": "address"
        },
        {
          "internalType": "address",
          "name": "_upperPartialRedemptionHint",
          "type": "address"
        },
        {
          "internalType": "address",
          "name": "_lowerPartialRedemptionHint",
          "type": "address"
        },
        {
          "internalType": "uint256",
          "name": "_partialRedemptionHintNICR",
          "type": "uint256"
        },
        {
          "internalType": "uint256",
          "name": "_maxIterations",
          "type": "uint256"
        },
        {
          "internalType": "uint256",
          "name": "_maxFee",
          "type": "uint256"
        }
      ],
      "name": "redeemCollateral",
      "outputs": [],
      "stateMutability": "nonpayable",
      "type": "function"
    }
  ],
  "bytecode": "0x60a060405234801561001057600080fd5b506040516102f43803806102f483398101604081905261002f916100f7565b61003881610049565b6001600160a01b0316608052610127565b6001600160a01b0381166100a45760405162461bcd60e51b815260206004820152601e60248201527f4163636f756e742063616e6e6f74206265207a65726f2061646472657373000060448201526064015b60405180910390fd5b803b806100f35760405162461bcd60e51b815260206004820181905260248201527f4163636f756e7420636f64652073697a652063616e6e6f74206265207a65726f604482015260640161009b565b5050565b60006020828403121561010957600080fd5b81516001600160a01b038116811461012057600080fd5b9392505050565b6080516101b561013f600039600050506101b56000f3fe608060405234801561001057600080fd5b50600436106100365760003560e01c806340a44bd11461003b578063a3f4df7e14610055575b600080fd5b6100536100493660046100b8565b5050505050505050565b005b61008660405180604001604052806012815260200171151c9bdd9953585b9859d95c94d8dc9a5c1d60721b81525081565b6040516100939190610131565b60405180910390f35b80356001600160a01b03811681146100b357600080fd5b919050565b600080600080600080600080610100898b0312156100d557600080fd5b6100de8961009c565b9750602089013596506100f360408a0161009c565b955061010160608a0161009c565b945061010f60808a0161009c565b979a969950949793969560a0850135955060c08501359460e001359350915050565b600060208083528351808285015260005b8181101561015e57858101830151858201604001528201610142565b506000604082860101526040601f19601f830116850101925050509291505056fea26469706673582212202f98fc89d125dc48c1bf07c36d6baf3ce0f667e24a54a6161a9f9b4a41ce6d1264736f6c63430008110033",
  "linkReferences": {},
  "deployedLinkReferences": {}
}