{
  "_format": "hh-sol-artifact-1",
  "contractName": "LockedYOU",
  "sourceName": "contracts/YOU/LockedYOU.sol",
  "abi": [
    {
      "anonymous": false,
      "inputs": [
        {
          "indexed": true,
          "internalType": "address",
          "name": "previousOwner",
          "type": "address"
        },
        {
          "indexed": true,
          "internalType": "address",
          "name": "newOwner",
          "type": "address"
        }
      ],
      "name": "OwnershipTransferred",
      "type": "event"
    },
    {
      "inputs": [],
      "name": "NAME",
      "outputs": [
        {
          "internalType": "string",
          "name": "",
          "type": "string"
        }
      ],
      "stateMutability": "view",
      "type": "function"
    },
    {
      "inputs": [],
      "name": "SIX_MONTHS",
      "outputs": [
        {
          "internalType": "uint256",
          "name": "",
          "type": "uint256"
        }
      ],
      "stateMutability": "view",
      "type": "function"
    },
    {
      "inputs": [],
      "name": "TWO_YEARS",
      "outputs": [
        {
          "internalType": "uint256",
          "name": "",
          "type": "uint256"
        }
      ],
      "stateMutability": "view",
      "type": "function"
    },
    {
      "inputs": [
        {
          "internalType": "address",
          "name": "_entity",
          "type": "address"
        },
        {
          "internalType": "uint256",
          "name": "_totalSupply",
          "type": "uint256"
        }
      ],
      "name": "addEntityVesting",
      "outputs": [],
      "stateMutability": "nonpayable",
      "type": "function"
    },
    {
      "inputs": [],
      "name": "claimYOUToken",
      "outputs": [],
      "stateMutability": "nonpayable",
      "type": "function"
    },
    {
      "inputs": [
        {
          "internalType": "address",
          "name": "",
          "type": "address"
        }
      ],
      "name": "entitiesVesting",
      "outputs": [
        {
          "internalType": "uint256",
          "name": "createdDate",
          "type": "uint256"
        },
        {
          "internalType": "uint256",
          "name": "totalSupply",
          "type": "uint256"
        },
        {
          "internalType": "uint256",
          "name": "startVestingDate",
          "type": "uint256"
        },
        {
          "internalType": "uint256",
          "name": "endVestingDate",
          "type": "uint256"
        },
        {
          "internalType": "uint256",
          "name": "claimed",
          "type": "uint256"
        }
      ],
      "stateMutability": "view",
      "type": "function"
    },
    {
      "inputs": [
        {
          "internalType": "address",
          "name": "_entity",
          "type": "address"
        }
      ],
      "name": "getClaimableYOU",
      "outputs": [
        {
          "internalType": "uint256",
          "name": "claimable",
          "type": "uint256"
        }
      ],
      "stateMutability": "view",
      "type": "function"
    },
    {
      "inputs": [],
      "name": "getUnassignYOUTokensAmount",
      "outputs": [
        {
          "internalType": "uint256",
          "name": "",
          "type": "uint256"
        }
      ],
      "stateMutability": "view",
      "type": "function"
    },
    {
      "inputs": [
        {
          "internalType": "address",
          "name": "_entity",
          "type": "address"
        }
      ],
      "name": "isEntityExits",
      "outputs": [
        {
          "internalType": "bool",
          "name": "",
          "type": "bool"
        }
      ],
      "stateMutability": "view",
      "type": "function"
    },
    {
      "inputs": [],
      "name": "isInitialized",
      "outputs": [
        {
          "internalType": "bool",
          "name": "",
          "type": "bool"
        }
      ],
      "stateMutability": "view",
      "type": "function"
    },
    {
      "inputs": [
        {
          "internalType": "address",
          "name": "_entity",
          "type": "address"
        },
        {
          "internalType": "uint256",
          "name": "newTotalSupply",
          "type": "uint256"
        }
      ],
      "name": "lowerEntityVesting",
      "outputs": [],
      "stateMutability": "nonpayable",
      "type": "function"
    },
    {
      "inputs": [],
      "name": "owner",
      "outputs": [
        {
          "internalType": "address",
          "name": "",
          "type": "address"
        }
      ],
      "stateMutability": "view",
      "type": "function"
    },
    {
      "inputs": [
        {
          "internalType": "address",
          "name": "_entity",
          "type": "address"
        }
      ],
      "name": "removeEntityVesting",
      "outputs": [],
      "stateMutability": "nonpayable",
      "type": "function"
    },
    {
      "inputs": [],
      "name": "renounceOwnership",
      "outputs": [],
      "stateMutability": "nonpayable",
      "type": "function"
    },
    {
      "inputs": [
        {
          "internalType": "address",
          "name": "_youAddress",
          "type": "address"
        }
      ],
      "name": "setAddresses",
      "outputs": [],
      "stateMutability": "nonpayable",
      "type": "function"
    },
    {
      "inputs": [
        {
          "internalType": "address",
          "name": "newOwner",
          "type": "address"
        }
      ],
      "name": "transferOwnership",
      "outputs": [],
      "stateMutability": "nonpayable",
      "type": "function"
    },
    {
      "inputs": [],
      "name": "transferUnassignedYOU",
      "outputs": [],
      "stateMutability": "nonpayable",
      "type": "function"
    }
  ],
  "bytecode": "0x608060405234801561001057600080fd5b5061001a3361001f565b61006f565b600080546001600160a01b038381166001600160a01b0319831681178455604051919092169283917f8be0079c531659141344cd1fd0a4f28419497f9722a3daafe3b4186f6b6457e09190a35050565b6110108061007e6000396000f3fe608060405234801561001057600080fd5b50600436106100db5760003560e01c806301edf6a0146100e0578063392e53cd146100fe57806357fe76401461012257806364e892d3146101885780636a966bfe14610192578063715018a61461019a57806381d3c435146101a2578063830df592146101b55780638da5cb5b146101c8578063a3f4df7e146101dd578063aac12e2914610212578063ba579c741461023d578063c9a4a97614610247578063d38308491461025a578063db7a1ef314610262578063f2fde38b14610275578063fa0fb0c314610288575b600080fd5b6100eb6303c2670081565b6040519081526020015b60405180910390f35b60005461011290600160a01b900460ff1681565b60405190151581526020016100f5565b610160610130366004610e15565b60036020819052600091825260409091208054600182015460028301549383015460049093015491939092909185565b604080519586526020860194909452928401919091526060830152608082015260a0016100f5565b61019061029b565b005b6100eb6102de565b610190610366565b6101906101b0366004610e15565b61037a565b6100eb6101c3366004610e15565b610411565b6101d06104da565b6040516100f59190610e30565b610205604051806040016040528060098152602001684c6f636b6564594f5560b81b81525081565b6040516100f59190610e68565b610112610220366004610e15565b6001600160a01b0316600090815260036020526040902054151590565b6100eb62eff10081565b610190610255366004610e9b565b6104e9565b6101906105c9565b610190610270366004610e9b565b6105ff565b610190610283366004610e15565b610783565b610190610296366004610e15565b6107f9565b3360008181526003602052604081205490036102d25760405162461bcd60e51b81526004016102c990610ec5565b60405180910390fd5b6102db336108ef565b50565b6002546001546040516370a0823160e01b81526000926103619290916001600160a01b03909116906370a082319061031a903090600401610e30565b602060405180830381865afa158015610337573d6000803e3d6000fd5b505050506040513d601f19601f8201168201806040525081019061035b9190610f07565b90610966565b905090565b61036e61097b565b61037860006109da565b565b61038261097b565b600054600160a01b900460ff16156103d25760405162461bcd60e51b8152602060048201526013602482015272105b1c9958591e48125b9a5d1a585b1a5e9959606a1b60448201526064016102c9565b6103db81610a2a565b6000805460ff60a01b1916600160a01b179055600180546001600160a01b039092166001600160a01b0319909216919091179055565b6001600160a01b0381166000908152600360208181526040808420815160a0810183528154815260018201549381019390935260028101549183018290529283015460608301526004909201546080820152904210156104715750919050565b80606001514210610496576080810151602082015161048f91610966565b91506104d4565b6104d1816080015161035b6104b884600001514261096690919063ffffffff16565b60208501516104cb906303c26700610acf565b90610adb565b91505b50919050565b6000546001600160a01b031690565b6104f161097b565b6001600160a01b0382166000908152600360205260408120548391036105295760405162461bcd60e51b81526004016102c990610ec5565b610532836108ef565b6001600160a01b0383166000908152600360205260409020600481015483116105be5760405162461bcd60e51b815260206004820152603860248201527f546f74616c20537570706c7920676f6573206c6f776572206f7220657175616c604482015277103a3430b7103a34329031b630b4b6b2b2103a37ba30b61760411b60648201526084016102c9565b600101919091555050565b6105d161097b565b60006105db6102de565b9050806000036105e85750565b6001546102db906001600160a01b03163383610ae7565b61060761097b565b6001600160a01b0382166000036106525760405162461bcd60e51b815260206004820152600f60248201526e496e76616c6964204164647265737360881b60448201526064016102c9565b6001600160a01b038216600090815260036020526040902054156106c25760405162461bcd60e51b815260206004820152602160248201527f456e7469747920616c72656164792068617320612056657374696e672052756c6044820152606560f81b60648201526084016102c9565b80600260008282546106d49190610f36565b925050819055506040518060a0016040528042815260200182815260200161070862eff10042610b4a90919063ffffffff16565b815260200161071b426303c26700610b4a565b8152600060209182018190526001600160a01b038086168252600380845260409283902085518155938501516001808601919091559285015160028501556060850151908401556080909301516004909201919091555461077f9116333084610b56565b5050565b61078b61097b565b6001600160a01b0381166107f05760405162461bcd60e51b815260206004820152602660248201527f4f776e61626c653a206e6577206f776e657220697320746865207a65726f206160448201526564647265737360d01b60648201526084016102c9565b6102db816109da565b61080161097b565b6001600160a01b0381166000908152600360205260408120548291036108395760405162461bcd60e51b81526004016102c990610ec5565b610842826108ef565b6001600160a01b038216600090815260036020818152604092839020835160a081018552815481526001820154928101839052600282015494810194909452918201546060840152600490910154608083018190526108ad916108a491610966565b60025490610966565b60029081556001600160a01b03909316600090815260036020819052604082208281556001810183905594850182905584018190556004909301929092555050565b60006108fa82610411565b905080600003610908575050565b6001600160a01b038216600090815260036020526040812060048101805491928492610935908490610f36565b90915550506002546109479083610966565b600255600154610961906001600160a01b03168484610ae7565b505050565b60006109728284610f49565b90505b92915050565b336109846104da565b6001600160a01b0316146103785760405162461bcd60e51b815260206004820181905260248201527f4f776e61626c653a2063616c6c6572206973206e6f7420746865206f776e657260448201526064016102c9565b600080546001600160a01b038381166001600160a01b0319831681178455604051919092169283917f8be0079c531659141344cd1fd0a4f28419497f9722a3daafe3b4186f6b6457e09190a35050565b6001600160a01b038116610a805760405162461bcd60e51b815260206004820152601e60248201527f4163636f756e742063616e6e6f74206265207a65726f2061646472657373000060448201526064016102c9565b803b8061077f5760405162461bcd60e51b815260206004820181905260248201527f4163636f756e7420636f64652073697a652063616e6e6f74206265207a65726f60448201526064016102c9565b60006109728284610f5c565b60006109728284610f7e565b6040516001600160a01b03831660248201526044810182905261096190849063a9059cbb60e01b906064015b60408051601f198184030181529190526020810180516001600160e01b03166001600160e01b031990931692909217909152610b94565b60006109728284610f36565b6040516001600160a01b0380851660248301528316604482015260648101829052610b8e9085906323b872dd60e01b90608401610b13565b50505050565b6000610be9826040518060400160405280602081526020017f5361666545524332303a206c6f772d6c6576656c2063616c6c206661696c6564815250856001600160a01b0316610c699092919063ffffffff16565b9050805160001480610c0a575080806020019051810190610c0a9190610f95565b6109615760405162461bcd60e51b815260206004820152602a60248201527f5361666545524332303a204552433230206f7065726174696f6e20646964206e6044820152691bdd081cdd58d8d9595960b21b60648201526084016102c9565b6060610c788484600085610c80565b949350505050565b606082471015610ce15760405162461bcd60e51b815260206004820152602660248201527f416464726573733a20696e73756666696369656e742062616c616e636520666f6044820152651c8818d85b1b60d21b60648201526084016102c9565b600080866001600160a01b03168587604051610cfd9190610fbe565b60006040518083038185875af1925050503d8060008114610d3a576040519150601f19603f3d011682016040523d82523d6000602084013e610d3f565b606091505b5091509150610d5087838387610d5b565b979650505050505050565b60608315610dca578251600003610dc3576001600160a01b0385163b610dc35760405162461bcd60e51b815260206004820152601d60248201527f416464726573733a2063616c6c20746f206e6f6e2d636f6e747261637400000060448201526064016102c9565b5081610c78565b610c788383815115610ddf5781518083602001fd5b8060405162461bcd60e51b81526004016102c99190610e68565b80356001600160a01b0381168114610e1057600080fd5b919050565b600060208284031215610e2757600080fd5b61097282610df9565b6001600160a01b0391909116815260200190565b60005b83811015610e5f578181015183820152602001610e47565b50506000910152565b6020815260008251806020840152610e87816040850160208701610e44565b601f01601f19169190910160400192915050565b60008060408385031215610eae57600080fd5b610eb783610df9565b946020939093013593505050565b60208082526022908201527f456e7469747920646f65736e2774206861766520612056657374696e672052756040820152616c6560f01b606082015260800190565b600060208284031215610f1957600080fd5b5051919050565b634e487b7160e01b600052601160045260246000fd5b8082018082111561097557610975610f20565b8181038181111561097557610975610f20565b600082610f7957634e487b7160e01b600052601260045260246000fd5b500490565b808202811582820484141761097557610975610f20565b600060208284031215610fa757600080fd5b81518015158114610fb757600080fd5b9392505050565b60008251610fd0818460208701610e44565b919091019291505056fea264697066735822122088b32017c22242601a8e05315c32ca4099e1f47bc9492010c94f9800c04906f564736f6c63430008110033",
  "linkReferences": {},
  "deployedLinkReferences": {}
}