{
  "_format": "hh-sol-artifact-1",
  "contractName": "UTokenCaller",
  "sourceName": "contracts/TestContracts/UTokenCaller.sol",
  "abi": [
    {
      "inputs": [
        {
          "internalType": "address",
          "name": "_account",
          "type": "address"
        },
        {
          "internalType": "uint256",
          "name": "_amount",
          "type": "uint256"
        }
      ],
      "name": "UBurn",
      "outputs": [],
      "stateMutability": "nonpayable",
      "type": "function"
    },
    {
      "inputs": [
        {
          "internalType": "address",
          "name": "_asset",
          "type": "address"
        },
        {
          "internalType": "address",
          "name": "_account",
          "type": "address"
        },
        {
          "internalType": "uint256",
          "name": "_amount",
          "type": "uint256"
        }
      ],
      "name": "UMint",
      "outputs": [],
      "stateMutability": "nonpayable",
      "type": "function"
    },
    {
      "inputs": [
        {
          "internalType": "address",
          "name": "_poolAddress",
          "type": "address"
        },
        {
          "internalType": "address",
          "name": "_receiver",
          "type": "address"
        },
        {
          "internalType": "uint256",
          "name": "_amount",
          "type": "uint256"
        }
      ],
      "name": "UReturnFromPool",
      "outputs": [],
      "stateMutability": "nonpayable",
      "type": "function"
    },
    {
      "inputs": [
        {
          "internalType": "address",
          "name": "_sender",
          "type": "address"
        },
        {
          "internalType": "address",
          "name": "_poolAddress",
          "type": "address"
        },
        {
          "internalType": "uint256",
          "name": "_amount",
          "type": "uint256"
        }
      ],
      "name": "USendToPool",
      "outputs": [],
      "stateMutability": "nonpayable",
      "type": "function"
    },
    {
      "inputs": [
        {
          "internalType": "contract IUToken",
          "name": "_U",
          "type": "address"
        }
      ],
      "name": "setU",
      "outputs": [],
      "stateMutability": "nonpayable",
      "type": "function"
    }
  ],
  "bytecode": "0x608060405234801561001057600080fd5b5061031a806100206000396000f3fe608060405234801561001057600080fd5b50600436106100575760003560e01c80630790e25b1461005c5780632dadd1971461008e5780634e630c49146100a1578063560d331a146100b4578063ce4e7c88146100c7575b600080fd5b61008c61006a36600461022f565b600080546001600160a01b0319166001600160a01b0392909216919091179055565b005b61008c61009c366004610253565b6100da565b61008c6100af366004610253565b610145565b61008c6100c2366004610294565b610179565b61008c6100d5366004610253565b6101e3565b600054604051636361ddf360e11b81526001600160a01b039091169063c6c3bbe69061010e908690869086906004016102c0565b600060405180830381600087803b15801561012857600080fd5b505af115801561013c573d6000803e3d6000fd5b50505050505050565b600054604051631062c15f60e11b81526001600160a01b03909116906320c582be9061010e908690869086906004016102c0565b600054604051632770a7eb60e21b81526001600160a01b0384811660048301526024820184905290911690639dc29fac90604401600060405180830381600087803b1580156101c757600080fd5b505af11580156101db573d6000803e3d6000fd5b505050505050565b600054604051632ee65eeb60e21b81526001600160a01b039091169063bb997bac9061010e908690869086906004016102c0565b6001600160a01b038116811461022c57600080fd5b50565b60006020828403121561024157600080fd5b813561024c81610217565b9392505050565b60008060006060848603121561026857600080fd5b833561027381610217565b9250602084013561028381610217565b929592945050506040919091013590565b600080604083850312156102a757600080fd5b82356102b281610217565b946020939093013593505050565b6001600160a01b03938416815291909216602082015260408101919091526060019056fea2646970667358221220070731c5627a448df1a4b9fad86e9095aed2947106b030c1e5c7435543166bb964736f6c63430008110033",
  "linkReferences": {},
  "deployedLinkReferences": {}
}