{
  "_format": "hh-sol-artifact-1",
  "contractName": "HintHelpers",
  "sourceName": "contracts/HintHelpers.sol",
  "abi": [
    {
      "inputs": [],
      "name": "IsNotWstETH",
      "type": "error"
    },
    {
      "anonymous": false,
      "inputs": [
        {
          "indexed": false,
          "internalType": "uint8",
          "name": "version",
          "type": "uint8"
        }
      ],
      "name": "Initialized",
      "type": "event"
    },
    {
      "anonymous": false,
      "inputs": [
        {
          "indexed": true,
          "internalType": "address",
          "name": "previousOwner",
          "type": "address"
        },
        {
          "indexed": true,
          "internalType": "address",
          "name": "newOwner",
          "type": "address"
        }
      ],
      "name": "OwnershipTransferred",
      "type": "event"
    },
    {
      "anonymous": false,
      "inputs": [
        {
          "indexed": false,
          "internalType": "address",
          "name": "_sortedTrovesAddress",
          "type": "address"
        }
      ],
      "name": "SortedTrovesAddressChanged",
      "type": "event"
    },
    {
      "anonymous": false,
      "inputs": [
        {
          "indexed": false,
          "internalType": "address",
          "name": "_troveManagerAddress",
          "type": "address"
        }
      ],
      "name": "TroveManagerAddressChanged",
      "type": "event"
    },
    {
      "anonymous": false,
      "inputs": [
        {
          "indexed": true,
          "internalType": "address",
          "name": "newAddress",
          "type": "address"
        }
      ],
      "name": "VaultParametersBaseChanged",
      "type": "event"
    },
    {
      "inputs": [],
      "name": "DECIMAL_PRECISION",
      "outputs": [
        {
          "internalType": "uint256",
          "name": "",
          "type": "uint256"
        }
      ],
      "stateMutability": "view",
      "type": "function"
    },
    {
      "inputs": [],
      "name": "ETH_REF_ADDRESS",
      "outputs": [
        {
          "internalType": "address",
          "name": "",
          "type": "address"
        }
      ],
      "stateMutability": "view",
      "type": "function"
    },
    {
      "inputs": [],
      "name": "NAME",
      "outputs": [
        {
          "internalType": "string",
          "name": "",
          "type": "string"
        }
      ],
      "stateMutability": "view",
      "type": "function"
    },
    {
      "inputs": [
        {
          "internalType": "uint256",
          "name": "_coll",
          "type": "uint256"
        },
        {
          "internalType": "uint256",
          "name": "_debt",
          "type": "uint256"
        },
        {
          "internalType": "uint256",
          "name": "_price",
          "type": "uint256"
        }
      ],
      "name": "computeCR",
      "outputs": [
        {
          "internalType": "uint256",
          "name": "",
          "type": "uint256"
        }
      ],
      "stateMutability": "pure",
      "type": "function"
    },
    {
      "inputs": [
        {
          "internalType": "uint256",
          "name": "_coll",
          "type": "uint256"
        },
        {
          "internalType": "uint256",
          "name": "_debt",
          "type": "uint256"
        }
      ],
      "name": "computeNominalCR",
      "outputs": [
        {
          "internalType": "uint256",
          "name": "",
          "type": "uint256"
        }
      ],
      "stateMutability": "pure",
      "type": "function"
    },
    {
      "inputs": [
        {
          "internalType": "address",
          "name": "_asset",
          "type": "address"
        },
        {
          "internalType": "uint256",
          "name": "_CR",
          "type": "uint256"
        },
        {
          "internalType": "uint256",
          "name": "_numTrials",
          "type": "uint256"
        },
        {
          "internalType": "uint256",
          "name": "_inputRandomSeed",
          "type": "uint256"
        }
      ],
      "name": "getApproxHint",
      "outputs": [
        {
          "internalType": "address",
          "name": "hintAddress",
          "type": "address"
        },
        {
          "internalType": "uint256",
          "name": "diff",
          "type": "uint256"
        },
        {
          "internalType": "uint256",
          "name": "latestRandomSeed",
          "type": "uint256"
        }
      ],
      "stateMutability": "view",
      "type": "function"
    },
    {
      "inputs": [
        {
          "internalType": "address",
          "name": "_asset",
          "type": "address"
        }
      ],
      "name": "getEntireSystemColl",
      "outputs": [
        {
          "internalType": "uint256",
          "name": "entireSystemColl",
          "type": "uint256"
        }
      ],
      "stateMutability": "view",
      "type": "function"
    },
    {
      "inputs": [
        {
          "internalType": "address",
          "name": "_asset",
          "type": "address"
        }
      ],
      "name": "getEntireSystemDebt",
      "outputs": [
        {
          "internalType": "uint256",
          "name": "entireSystemDebt",
          "type": "uint256"
        }
      ],
      "stateMutability": "view",
      "type": "function"
    },
    {
      "inputs": [
        {
          "internalType": "address",
          "name": "_asset",
          "type": "address"
        },
        {
          "internalType": "uint256",
          "name": "_Uamount",
          "type": "uint256"
        },
        {
          "internalType": "uint256",
          "name": "_price",
          "type": "uint256"
        },
        {
          "internalType": "uint256",
          "name": "_maxIterations",
          "type": "uint256"
        }
      ],
      "name": "getRedemptionHints",
      "outputs": [
        {
          "internalType": "address",
          "name": "firstRedemptionHint",
          "type": "address"
        },
        {
          "internalType": "uint256",
          "name": "partialRedemptionHintNICR",
          "type": "uint256"
        },
        {
          "internalType": "uint256",
          "name": "truncatedUamount",
          "type": "uint256"
        }
      ],
      "stateMutability": "view",
      "type": "function"
    },
    {
      "inputs": [],
      "name": "isInitialized",
      "outputs": [
        {
          "internalType": "bool",
          "name": "",
          "type": "bool"
        }
      ],
      "stateMutability": "view",
      "type": "function"
    },
    {
      "inputs": [],
      "name": "owner",
      "outputs": [
        {
          "internalType": "address",
          "name": "",
          "type": "address"
        }
      ],
      "stateMutability": "view",
      "type": "function"
    },
    {
      "inputs": [],
      "name": "renounceOwnership",
      "outputs": [],
      "stateMutability": "nonpayable",
      "type": "function"
    },
    {
      "inputs": [
        {
          "internalType": "address",
          "name": "_sortedTrovesAddress",
          "type": "address"
        },
        {
          "internalType": "address",
          "name": "_troveManagerAddress",
          "type": "address"
        },
        {
          "internalType": "address",
          "name": "_vaultParametersAddress",
          "type": "address"
        }
      ],
      "name": "setAddresses",
      "outputs": [],
      "stateMutability": "nonpayable",
      "type": "function"
    },
    {
      "inputs": [
        {
          "internalType": "address",
          "name": "_vaultParams",
          "type": "address"
        }
      ],
      "name": "setVestaParameters",
      "outputs": [],
      "stateMutability": "nonpayable",
      "type": "function"
    },
    {
      "inputs": [],
      "name": "sortedTroves",
      "outputs": [
        {
          "internalType": "contract ISortedTroves",
          "name": "",
          "type": "address"
        }
      ],
      "stateMutability": "view",
      "type": "function"
    },
    {
      "inputs": [
        {
          "internalType": "address",
          "name": "newOwner",
          "type": "address"
        }
      ],
      "name": "transferOwnership",
      "outputs": [],
      "stateMutability": "nonpayable",
      "type": "function"
    },
    {
      "inputs": [],
      "name": "troveManager",
      "outputs": [
        {
          "internalType": "contract ITroveManager",
          "name": "",
          "type": "address"
        }
      ],
      "stateMutability": "view",
      "type": "function"
    },
    {
      "inputs": [],
      "name": "vestaParams",
      "outputs": [
        {
          "internalType": "contract IVestaParameters",
          "name": "",
          "type": "address"
        }
      ],
      "stateMutability": "view",
      "type": "function"
    },
    {
      "inputs": [],
      "name": "wstETH",
      "outputs": [
        {
          "internalType": "address",
          "name": "",
          "type": "address"
        }
      ],
      "stateMutability": "view",
      "type": "function"
    }
  ],
  "bytecode": "0x608060405234801561001057600080fd5b506119db806100206000396000f3fe608060405234801561001057600080fd5b50600436106100f15760003560e01c806327d04b35146100f6578063301be4591461011c578063363bf96414610154578063392e53cd146101695780633d83908a1461018d5780634aa07e64146101ad578063525acdbb146101c05780635cc4d148146101d3578063701526b4146101e6578063715018a6146101f957806372141e63146102015780638da5cb5b146102095780639e86d0c414610211578063a20baee614610224578063a3f4df7e14610233578063ae9187541461026a578063c394a7fa1461027d578063f2fde38b14610290578063f7a22d80146102a3575b600080fd5b6101096101043660046116f6565b6102b6565b6040519081526020015b60405180910390f35b61012f61012a366004611713565b610497565b604080516001600160a01b039094168452602084019290925290820152606001610113565b61016761016236600461174e565b610b32565b005b60675461017d90600160a01b900460ff1681565b6040519015158152602001610113565b6067546101a0906001600160a01b031681565b6040516101139190611799565b6000546101a0906001600160a01b031681565b6101096101ce3660046117ad565b610d8c565b6101676101e13660046116f6565b610da3565b61012f6101f4366004611713565b610df5565b61016761112e565b6101a0600081565b6101a0611142565b61010961021f3660046116f6565b611151565b610109670de0b6b3a764000081565b61025d6040518060400160405280600b81526020016a48696e7448656c7065727360a81b81525081565b60405161011391906117d9565b6066546101a0906001600160a01b031681565b61010961028b366004611827565b6112dd565b61016761029e3660046116f6565b6112f2565b6065546101a0906001600160a01b031681565b600080606560009054906101000a90046001600160a01b03166001600160a01b0316637f7dde4a6040518163ffffffff1660e01b8152600401602060405180830381865afa15801561030c573d6000803e3d6000fd5b505050506040513d601f19601f820116820180604052508101906103309190611849565b6001600160a01b031663631a53d4846040518263ffffffff1660e01b815260040161035b9190611799565b602060405180830381865afa158015610378573d6000803e3d6000fd5b505050506040513d601f19601f8201168201806040525081019061039c9190611866565b90506000606560009054906101000a90046001600160a01b03166001600160a01b0316633cc742256040518163ffffffff1660e01b8152600401602060405180830381865afa1580156103f3573d6000803e3d6000fd5b505050506040513d601f19601f820116820180604052508101906104179190611849565b6001600160a01b031663631a53d4856040518263ffffffff1660e01b81526004016104429190611799565b602060405180830381865afa15801561045f573d6000803e3d6000fd5b505050506040513d601f19601f820116820180604052508101906104839190611866565b905061048f828261136b565b949350505050565b600080548190819087906001600160a01b038083169116146104cc57604051631a40f2bd60e31b815260040160405180910390fd5b606654604080516080810182526001600160a01b038b8116808352602083018c90528284018b9052606083018a90529251637608271560e01b815293169290918a91600091859163760827159161052591600401611799565b602060405180830381865afa158015610542573d6000803e3d6000fd5b505050506040513d601f19601f820116820180604052508101906105669190611849565b90505b6001600160a01b0381161580159061066d575060655483516040516305f8cff960e01b81526001600160a01b03909216916305f8cff9916105ac91600401611799565b602060405180830381865afa1580156105c9573d6000803e3d6000fd5b505050506040513d601f19601f820116820180604052508101906105ed9190611866565b606754845160405163b1eafaab60e01b81526001600160a01b0391821660048201528482166024820152604481018e905291169063b1eafaab90606401602060405180830381865afa158015610647573d6000803e3d6000fd5b505050506040513d601f19601f8201168201806040525081019061066b9190611866565b105b156106e85782516040516239c6e160ea1b81526001600160a01b0386169163e71b8400916106a09190859060040161187f565b602060405180830381865afa1580156106bd573d6000803e3d6000fd5b505050506040513d601f19601f820116820180604052508101906106e19190611849565b9050610569565b809750886000036106f95760001998505b6001600160a01b038116158015906107115750600082115b80156107285750600089610724816118af565b9a50115b15610b1757606754835160405163250ad1fd60e11b815260009261082a926001600160a01b0390911691634a15a3fa9161076691879060040161187f565b602060405180830381865afa158015610783573d6000803e3d6000fd5b505050506040513d601f19601f820116820180604052508101906107a79190611866565b8551606754604051631e7c58c160e31b815261082492916001600160a01b03169063f3e2c608906107de9084908a9060040161187f565b602060405180830381865afa1580156107fb573d6000803e3d6000fd5b505050506040513d601f19601f8201168201806040525081019061081f9190611866565b611377565b9061136b565b905082811115610a9457606554845160405163c4063a1960e01b81526001600160a01b039092169163c4063a199161086491600401611799565b602060405180830381865afa158015610881573d6000803e3d6000fd5b505050506040513d601f19601f820116820180604052508101906108a59190611866565b811115610a8e57606554845160405163c4063a1960e01b8152600092610935928792610930926001600160a01b03169163c4063a19916108e89190600401611799565b602060405180830381865afa158015610905573d6000803e3d6000fd5b505050506040513d601f19601f820116820180604052508101906109299190611866565b85906113ef565b6113fb565b6067548651604051635f0b504b60e11b8152929350600092610a24926001600160a01b03169163be16a096916109709190899060040161187f565b602060405180830381865afa15801561098d573d6000803e3d6000fd5b505050506040513d601f19601f820116820180604052508101906109b19190611866565b606754885160405163305a536960e01b81526001600160a01b039092169163305a5369916109e3918a9060040161187f565b602060405180830381865afa158015610a00573d6000803e3d6000fd5b505050506040513d601f19601f820116820180604052508101906108249190611866565b90506000610a4e610a478f610a4186670de0b6b3a7640000611411565b9061141d565b83906113ef565b90506000610a5c85856113ef565b90506000610a6e896000015183611429565b9050610a7a83826114a8565b9c50610a8688866113ef565b975050505050505b50610b17565b610a9e83826113ef565b925083516040516239c6e160ea1b81526001600160a01b0387169163e71b840091610ace9190869060040161187f565b602060405180830381865afa158015610aeb573d6000803e3d6000fd5b505050506040513d601f19601f82011682018060405250810190610b0f9190611849565b9150506106f9565b610b218b836113ef565b955050505050509450945094915050565b600054600160a81b900460ff1615808015610b5a57506000546001600160a01b90910460ff16105b80610b7b5750303b158015610b7b5750600054600160a01b900460ff166001145b610be35760405162461bcd60e51b815260206004820152602e60248201527f496e697469616c697a61626c653a20636f6e747261637420697320616c72656160448201526d191e481a5b9a5d1a585b1a5e995960921b60648201526084015b60405180910390fd5b6000805460ff60a01b1916600160a01b1790558015610c10576000805460ff60a81b1916600160a81b1790555b606754600160a01b900460ff1615610c605760405162461bcd60e51b8152602060048201526013602482015272105b1c9958591e481a5b9a5d1a585b1a5e9959606a1b6044820152606401610bda565b610c69846114d7565b610c72836114d7565b610c7b826114d7565b6067805460ff60a01b1916600160a01b179055610c96611580565b606680546001600160a01b038087166001600160a01b03199283161790925560678054928616929091169190911790556040517f65f4cf077bc01e4742eb5ad98326f6e95b63548ea24b17f8d5e823111fe7880090610cf6908690611799565b60405180910390a17f143219c9e69b09e07e095fcc889b43d8f46ca892bba65f08dc3a0050869a567883604051610d2d9190611799565b60405180910390a1610d3e82610da3565b8015610d86576000805460ff60a81b19169055604051600181527f7f26b83ff96e1f2b6a682f133852f6798a09c465da95921460cefb38474024989060200160405180910390a15b50505050565b6000610d998484846115b1565b90505b9392505050565b610dab6115db565b606580546001600160a01b0319166001600160a01b0383169081179091556040517f98c5e303d085e26fdf8af6a41184b0937ed01142ae7fdfa02dcc87e7079c325390600090a250565b600080548190819087906001600160a01b03808316911614610e2a57604051631a40f2bd60e31b815260040160405180910390fd5b6067546040516320618ae960e11b81526000916001600160a01b0316906340c315d290610e5b908c90600401611799565b602060405180830381865afa158015610e78573d6000803e3d6000fd5b505050506040513d601f19601f82011682018060405250810190610e9c9190611866565b905080600003610eb6576000808794509450945050611123565b606654604051637608271560e01b81526001600160a01b0390911690637608271590610ee6908c90600401611799565b602060405180830381865afa158015610f03573d6000803e3d6000fd5b505050506040513d601f19601f82011682018060405250810190610f279190611849565b6067546040516390ec230160e01b8152919650610fa6918a916001600160a01b0316906390ec230190610f60908e908b9060040161187f565b602060405180830381865afa158015610f7d573d6000803e3d6000fd5b505050506040513d601f19601f82011682018060405250810190610fa19190611866565b61163a565b935085925060015b878110156111205760408051602081018690520160408051601f19818403018152919052805160209091012093506000610fe883866118dc565b606754604051638424ce7760e01b81526001600160a01b038e811660048301526024820184905292935060009290911690638424ce7790604401602060405180830381865afa15801561103f573d6000803e3d6000fd5b505050506040513d601f19601f820116820180604052508101906110639190611849565b90506000606760009054906101000a90046001600160a01b03166001600160a01b03166390ec23018e846040518363ffffffff1660e01b81526004016110aa92919061187f565b602060405180830381865afa1580156110c7573d6000803e3d6000fd5b505050506040513d601f19601f820116820180604052508101906110eb9190611866565b905060006110f9828e61163a565b90508881101561110a578098508299505b84611114816118f0565b95505050505050610fae565b50505b509450945094915050565b6111366115db565b611140600061165d565b565b6033546001600160a01b031690565b600080606560009054906101000a90046001600160a01b03166001600160a01b0316637f7dde4a6040518163ffffffff1660e01b8152600401602060405180830381865afa1580156111a7573d6000803e3d6000fd5b505050506040513d601f19601f820116820180604052508101906111cb9190611849565b6001600160a01b0316635373433f846040518263ffffffff1660e01b81526004016111f69190611799565b602060405180830381865afa158015611213573d6000803e3d6000fd5b505050506040513d601f19601f820116820180604052508101906112379190611866565b90506000606560009054906101000a90046001600160a01b03166001600160a01b0316633cc742256040518163ffffffff1660e01b8152600401602060405180830381865afa15801561128e573d6000803e3d6000fd5b505050506040513d601f19601f820116820180604052508101906112b29190611849565b6001600160a01b0316635373433f856040518263ffffffff1660e01b81526004016104429190611799565b60006112e983836114a8565b90505b92915050565b6112fa6115db565b6001600160a01b03811661135f5760405162461bcd60e51b815260206004820152602660248201527f4f776e61626c653a206e6577206f776e657220697320746865207a65726f206160448201526564647265737360d01b6064820152608401610bda565b6113688161165d565b50565b60006112e98284611909565b60655460405163e29607cf60e01b81526000916112e9916001600160a01b039091169063e29607cf906113ae908790600401611799565b602060405180830381865afa1580156113cb573d6000803e3d6000fd5b505050506040513d601f19601f82011682018060405250810190610a479190611866565b60006112e9828461191c565b600081831061140a57816112e9565b5090919050565b60006112e9828461192f565b60006112e98284611946565b60655460405163e29607cf60e01b81526000916112e9916001600160a01b039091169063e29607cf90611460908790600401611799565b602060405180830381865afa15801561147d573d6000803e3d6000fd5b505050506040513d601f19601f820116820180604052508101906114a19190611866565b839061136b565b600081156114ce576114c782610a418568056bc75e2d63100000611411565b90506112ec565b506000196112ec565b6001600160a01b03811661152d5760405162461bcd60e51b815260206004820152601e60248201527f4163636f756e742063616e6e6f74206265207a65726f206164647265737300006044820152606401610bda565b803b8061157c5760405162461bcd60e51b815260206004820181905260248201527f4163636f756e7420636f64652073697a652063616e6e6f74206265207a65726f6044820152606401610bda565b5050565b600054600160a81b900460ff166115a95760405162461bcd60e51b8152600401610bda9061195a565b6111406116af565b600082156115d25760006115c984610a418786611411565b9150610d9c9050565b50600019610d9c565b336115e4611142565b6001600160a01b0316146111405760405162461bcd60e51b815260206004820181905260248201527f4f776e61626c653a2063616c6c6572206973206e6f7420746865206f776e65726044820152606401610bda565b6000818310156116535761164e82846113ef565b6112e9565b6112e983836113ef565b603380546001600160a01b038381166001600160a01b0319831681179093556040519116919082907f8be0079c531659141344cd1fd0a4f28419497f9722a3daafe3b4186f6b6457e090600090a35050565b600054600160a81b900460ff166116d85760405162461bcd60e51b8152600401610bda9061195a565b6111403361165d565b6001600160a01b038116811461136857600080fd5b60006020828403121561170857600080fd5b8135610d9c816116e1565b6000806000806080858703121561172957600080fd5b8435611734816116e1565b966020860135965060408601359560600135945092505050565b60008060006060848603121561176357600080fd5b833561176e816116e1565b9250602084013561177e816116e1565b9150604084013561178e816116e1565b809150509250925092565b6001600160a01b0391909116815260200190565b6000806000606084860312156117c257600080fd5b505081359360208301359350604090920135919050565b600060208083528351808285015260005b81811015611806578581018301518582016040015282016117ea565b506000604082860101526040601f19601f8301168501019250505092915050565b6000806040838503121561183a57600080fd5b50508035926020909101359150565b60006020828403121561185b57600080fd5b8151610d9c816116e1565b60006020828403121561187857600080fd5b5051919050565b6001600160a01b0392831681529116602082015260400190565b634e487b7160e01b600052601160045260246000fd5b6000816118be576118be611899565b506000190190565b634e487b7160e01b600052601260045260246000fd5b6000826118eb576118eb6118c6565b500690565b60006001820161190257611902611899565b5060010190565b808201808211156112ec576112ec611899565b818103818111156112ec576112ec611899565b80820281158282048414176112ec576112ec611899565b600082611955576119556118c6565b500490565b6020808252602b908201527f496e697469616c697a61626c653a20636f6e7472616374206973206e6f74206960408201526a6e697469616c697a696e6760a81b60608201526080019056fea2646970667358221220f0473e93b68dca2cb4693a380d5a038f991b3de72cbf1c247674249b22531f5664736f6c63430008110033",
  "linkReferences": {},
  "deployedLinkReferences": {}
}