{
  "_format": "hh-sol-artifact-1",
  "contractName": "NonPayable",
  "sourceName": "contracts/TestContracts/NonPayable.sol",
  "abi": [
    {
      "inputs": [
        {
          "internalType": "address",
          "name": "_dest",
          "type": "address"
        },
        {
          "internalType": "bytes",
          "name": "_data",
          "type": "bytes"
        }
      ],
      "name": "forward",
      "outputs": [],
      "stateMutability": "payable",
      "type": "function"
    },
    {
      "inputs": [
        {
          "internalType": "bool",
          "name": "_isPayable",
          "type": "bool"
        }
      ],
      "name": "setPayable",
      "outputs": [],
      "stateMutability": "nonpayable",
      "type": "function"
    },
    {
      "stateMutability": "payable",
      "type": "receive"
    }
  ],
  "bytecode": "0x608060405234801561001057600080fd5b5061026c806100206000396000f3fe60806040526004361061002d5760003560e01c80636fadcf7214610048578063f124a3001461005b57600080fd5b366100435760005460ff1661004157600080fd5b005b600080fd5b61004161005636600461011f565b610089565b34801561006757600080fd5b506100416100763660046101af565b6000805460ff1916911515919091179055565b600080846001600160a01b03163485856040516100a79291906101d8565b60006040518083038185875af1925050503d80600081146100e4576040519150601f19603f3d011682016040523d82523d6000602084013e6100e9565b606091505b50915091508181906101175760405162461bcd60e51b815260040161010e91906101e8565b60405180910390fd5b505050505050565b60008060006040848603121561013457600080fd5b83356001600160a01b038116811461014b57600080fd5b925060208401356001600160401b038082111561016757600080fd5b818601915086601f83011261017b57600080fd5b81358181111561018a57600080fd5b87602082850101111561019c57600080fd5b6020830194508093505050509250925092565b6000602082840312156101c157600080fd5b813580151581146101d157600080fd5b9392505050565b8183823760009101908152919050565b600060208083528351808285015260005b81811015610215578581018301518582016040015282016101f9565b506000604082860101526040601f19601f830116850101925050509291505056fea26469706673582212207a45e4c9da664b6adfdde5624153ef583a672cbd7d2ec105cf084c75b5a9720e64736f6c63430008110033",
  "linkReferences": {},
  "deployedLinkReferences": {}
}