{
  "_format": "hh-sol-artifact-1",
  "contractName": "SortedTroves",
  "sourceName": "contracts/SortedTroves.sol",
  "abi": [
    {
      "inputs": [],
      "name": "IsNotWstETH",
      "type": "error"
    },
    {
      "anonymous": false,
      "inputs": [
        {
          "indexed": false,
          "internalType": "address",
          "name": "_borrowerOperationsAddress",
          "type": "address"
        }
      ],
      "name": "BorrowerOperationsAddressChanged",
      "type": "event"
    },
    {
      "anonymous": false,
      "inputs": [
        {
          "indexed": false,
          "internalType": "uint8",
          "name": "version",
          "type": "uint8"
        }
      ],
      "name": "Initialized",
      "type": "event"
    },
    {
      "anonymous": false,
      "inputs": [
        {
          "indexed": true,
          "internalType": "address",
          "name": "_asset",
          "type": "address"
        },
        {
          "indexed": false,
          "internalType": "address",
          "name": "_id",
          "type": "address"
        },
        {
          "indexed": false,
          "internalType": "uint256",
          "name": "_NICR",
          "type": "uint256"
        }
      ],
      "name": "NodeAdded",
      "type": "event"
    },
    {
      "anonymous": false,
      "inputs": [
        {
          "indexed": true,
          "internalType": "address",
          "name": "_asset",
          "type": "address"
        },
        {
          "indexed": false,
          "internalType": "address",
          "name": "_id",
          "type": "address"
        }
      ],
      "name": "NodeRemoved",
      "type": "event"
    },
    {
      "anonymous": false,
      "inputs": [
        {
          "indexed": true,
          "internalType": "address",
          "name": "previousOwner",
          "type": "address"
        },
        {
          "indexed": true,
          "internalType": "address",
          "name": "newOwner",
          "type": "address"
        }
      ],
      "name": "OwnershipTransferred",
      "type": "event"
    },
    {
      "anonymous": false,
      "inputs": [
        {
          "indexed": false,
          "internalType": "address",
          "name": "_sortedDoublyLLAddress",
          "type": "address"
        }
      ],
      "name": "SortedTrovesAddressChanged",
      "type": "event"
    },
    {
      "anonymous": false,
      "inputs": [
        {
          "indexed": false,
          "internalType": "address",
          "name": "_troveManagerAddress",
          "type": "address"
        }
      ],
      "name": "TroveManagerAddressChanged",
      "type": "event"
    },
    {
      "inputs": [],
      "name": "NAME",
      "outputs": [
        {
          "internalType": "string",
          "name": "",
          "type": "string"
        }
      ],
      "stateMutability": "view",
      "type": "function"
    },
    {
      "inputs": [],
      "name": "borrowerOperationsAddress",
      "outputs": [
        {
          "internalType": "address",
          "name": "",
          "type": "address"
        }
      ],
      "stateMutability": "view",
      "type": "function"
    },
    {
      "inputs": [
        {
          "internalType": "address",
          "name": "_asset",
          "type": "address"
        },
        {
          "internalType": "address",
          "name": "_id",
          "type": "address"
        }
      ],
      "name": "contains",
      "outputs": [
        {
          "internalType": "bool",
          "name": "",
          "type": "bool"
        }
      ],
      "stateMutability": "view",
      "type": "function"
    },
    {
      "inputs": [
        {
          "internalType": "address",
          "name": "",
          "type": "address"
        }
      ],
      "name": "data",
      "outputs": [
        {
          "internalType": "address",
          "name": "head",
          "type": "address"
        },
        {
          "internalType": "address",
          "name": "tail",
          "type": "address"
        },
        {
          "internalType": "uint256",
          "name": "maxSize",
          "type": "uint256"
        },
        {
          "internalType": "uint256",
          "name": "size",
          "type": "uint256"
        }
      ],
      "stateMutability": "view",
      "type": "function"
    },
    {
      "inputs": [
        {
          "internalType": "address",
          "name": "_asset",
          "type": "address"
        },
        {
          "internalType": "uint256",
          "name": "_NICR",
          "type": "uint256"
        },
        {
          "internalType": "address",
          "name": "_prevId",
          "type": "address"
        },
        {
          "internalType": "address",
          "name": "_nextId",
          "type": "address"
        }
      ],
      "name": "findInsertPosition",
      "outputs": [
        {
          "internalType": "address",
          "name": "",
          "type": "address"
        },
        {
          "internalType": "address",
          "name": "",
          "type": "address"
        }
      ],
      "stateMutability": "view",
      "type": "function"
    },
    {
      "inputs": [
        {
          "internalType": "address",
          "name": "_asset",
          "type": "address"
        }
      ],
      "name": "getFirst",
      "outputs": [
        {
          "internalType": "address",
          "name": "",
          "type": "address"
        }
      ],
      "stateMutability": "view",
      "type": "function"
    },
    {
      "inputs": [
        {
          "internalType": "address",
          "name": "_asset",
          "type": "address"
        }
      ],
      "name": "getLast",
      "outputs": [
        {
          "internalType": "address",
          "name": "",
          "type": "address"
        }
      ],
      "stateMutability": "view",
      "type": "function"
    },
    {
      "inputs": [
        {
          "internalType": "address",
          "name": "_asset",
          "type": "address"
        }
      ],
      "name": "getMaxSize",
      "outputs": [
        {
          "internalType": "uint256",
          "name": "",
          "type": "uint256"
        }
      ],
      "stateMutability": "view",
      "type": "function"
    },
    {
      "inputs": [
        {
          "internalType": "address",
          "name": "_asset",
          "type": "address"
        },
        {
          "internalType": "address",
          "name": "_id",
          "type": "address"
        }
      ],
      "name": "getNext",
      "outputs": [
        {
          "internalType": "address",
          "name": "",
          "type": "address"
        }
      ],
      "stateMutability": "view",
      "type": "function"
    },
    {
      "inputs": [
        {
          "internalType": "address",
          "name": "_asset",
          "type": "address"
        },
        {
          "internalType": "address",
          "name": "_id",
          "type": "address"
        }
      ],
      "name": "getPrev",
      "outputs": [
        {
          "internalType": "address",
          "name": "",
          "type": "address"
        }
      ],
      "stateMutability": "view",
      "type": "function"
    },
    {
      "inputs": [
        {
          "internalType": "address",
          "name": "_asset",
          "type": "address"
        }
      ],
      "name": "getSize",
      "outputs": [
        {
          "internalType": "uint256",
          "name": "",
          "type": "uint256"
        }
      ],
      "stateMutability": "view",
      "type": "function"
    },
    {
      "inputs": [
        {
          "internalType": "address",
          "name": "_asset",
          "type": "address"
        },
        {
          "internalType": "address",
          "name": "_id",
          "type": "address"
        },
        {
          "internalType": "uint256",
          "name": "_NICR",
          "type": "uint256"
        },
        {
          "internalType": "address",
          "name": "_prevId",
          "type": "address"
        },
        {
          "internalType": "address",
          "name": "_nextId",
          "type": "address"
        }
      ],
      "name": "insert",
      "outputs": [],
      "stateMutability": "nonpayable",
      "type": "function"
    },
    {
      "inputs": [
        {
          "internalType": "address",
          "name": "_asset",
          "type": "address"
        }
      ],
      "name": "isEmpty",
      "outputs": [
        {
          "internalType": "bool",
          "name": "",
          "type": "bool"
        }
      ],
      "stateMutability": "view",
      "type": "function"
    },
    {
      "inputs": [
        {
          "internalType": "address",
          "name": "_asset",
          "type": "address"
        }
      ],
      "name": "isFull",
      "outputs": [
        {
          "internalType": "bool",
          "name": "",
          "type": "bool"
        }
      ],
      "stateMutability": "view",
      "type": "function"
    },
    {
      "inputs": [],
      "name": "isInitialized",
      "outputs": [
        {
          "internalType": "bool",
          "name": "",
          "type": "bool"
        }
      ],
      "stateMutability": "view",
      "type": "function"
    },
    {
      "inputs": [],
      "name": "owner",
      "outputs": [
        {
          "internalType": "address",
          "name": "",
          "type": "address"
        }
      ],
      "stateMutability": "view",
      "type": "function"
    },
    {
      "inputs": [
        {
          "internalType": "address",
          "name": "_asset",
          "type": "address"
        },
        {
          "internalType": "address",
          "name": "_id",
          "type": "address"
        },
        {
          "internalType": "uint256",
          "name": "_newNICR",
          "type": "uint256"
        },
        {
          "internalType": "address",
          "name": "_prevId",
          "type": "address"
        },
        {
          "internalType": "address",
          "name": "_nextId",
          "type": "address"
        }
      ],
      "name": "reInsert",
      "outputs": [],
      "stateMutability": "nonpayable",
      "type": "function"
    },
    {
      "inputs": [
        {
          "internalType": "address",
          "name": "_asset",
          "type": "address"
        },
        {
          "internalType": "address",
          "name": "_id",
          "type": "address"
        }
      ],
      "name": "remove",
      "outputs": [],
      "stateMutability": "nonpayable",
      "type": "function"
    },
    {
      "inputs": [],
      "name": "renounceOwnership",
      "outputs": [],
      "stateMutability": "nonpayable",
      "type": "function"
    },
    {
      "inputs": [
        {
          "internalType": "address",
          "name": "_troveManagerAddress",
          "type": "address"
        },
        {
          "internalType": "address",
          "name": "_borrowerOperationsAddress",
          "type": "address"
        },
        {
          "internalType": "address",
          "name": "_wstETHAddress",
          "type": "address"
        }
      ],
      "name": "setParams",
      "outputs": [],
      "stateMutability": "nonpayable",
      "type": "function"
    },
    {
      "inputs": [
        {
          "internalType": "address",
          "name": "newOwner",
          "type": "address"
        }
      ],
      "name": "transferOwnership",
      "outputs": [],
      "stateMutability": "nonpayable",
      "type": "function"
    },
    {
      "inputs": [],
      "name": "troveManager",
      "outputs": [
        {
          "internalType": "contract ITroveManager",
          "name": "",
          "type": "address"
        }
      ],
      "stateMutability": "view",
      "type": "function"
    },
    {
      "inputs": [
        {
          "internalType": "address",
          "name": "_asset",
          "type": "address"
        },
        {
          "internalType": "uint256",
          "name": "_NICR",
          "type": "uint256"
        },
        {
          "internalType": "address",
          "name": "_prevId",
          "type": "address"
        },
        {
          "internalType": "address",
          "name": "_nextId",
          "type": "address"
        }
      ],
      "name": "validInsertPosition",
      "outputs": [
        {
          "internalType": "bool",
          "name": "",
          "type": "bool"
        }
      ],
      "stateMutability": "view",
      "type": "function"
    },
    {
      "inputs": [],
      "name": "wstETH",
      "outputs": [
        {
          "internalType": "address",
          "name": "",
          "type": "address"
        }
      ],
      "stateMutability": "view",
      "type": "function"
    }
  ],
  "bytecode": "0x608060405234801561001057600080fd5b50612006806100206000396000f3fe608060405234801561001057600080fd5b50600436106101285760003560e01c80631bdb4c8d1461012d578063392e53cd1461015657806339ed25cd1461017a5780633b725b231461018d5780633d83908a146101a05780634aa07e64146101b3578063504f1671146101c6578063715018a6146101e757806376082715146101f15780637c933c0a146102045780637f7c1491146102175780638da5cb5b1461022a578063a081df7f14610232578063a3f4df7e14610245578063b7f8cf9b1461027d578063b90d3d0c14610290578063bc9b5bd5146102fd578063bff365c414610310578063d4de695a14610331578063d8f61a4914610344578063e71b840014610357578063eceea2fb1461036a578063ed26cae81461037d578063f2fde38b14610390575b600080fd5b61014061013b366004611ceb565b6103a3565b60405161014d9190611d06565b60405180910390f35b60655461016a90600160a01b900460ff1681565b604051901515815260200161014d565b610140610188366004611d1a565b6103f6565b61016a61019b366004611ceb565b61045e565b606754610140906001600160a01b031681565b606554610140906001600160a01b031681565b6101d96101d4366004611ceb565b6104b2565b60405190815260200161014d565b6101ef610505565b005b6101406101ff366004611ceb565b610519565b6101ef610212366004611d4d565b61056f565b6101ef610225366004611d1a565b6105cb565b610140610612565b6101ef610240366004611dab565b610621565b6102706040518060400160405280600c81526020016b536f7274656454726f76657360a01b81525081565b60405161014d9190611dee565b606654610140906001600160a01b031681565b6102d261029e366004611ceb565b60686020526000908152604090208054600182015460028301546003909301546001600160a01b0392831693919092169184565b604080516001600160a01b03958616815294909316602085015291830152606082015260800161014d565b6101ef61030b366004611d4d565b61089a565b61032361031e366004611e3c565b61092f565b60405161014d929190611e89565b61016a61033f366004611ceb565b61098c565b6101d9610352366004611ceb565b6109e7565b610140610365366004611d1a565b610a3a565b61016a610378366004611e3c565b610aa0565b61016a61038b366004611d1a565b610af7565b6101ef61039e366004611ceb565b610b5e565b60655460009082906001600160a01b038083169116146103d657604051631a40f2bd60e31b815260040160405180910390fd5b50506001600160a01b039081166000908152606860205260409020541690565b60655460009083906001600160a01b0380831691161461042957604051631a40f2bd60e31b815260040160405180910390fd5b50506001600160a01b039182166000908152606860209081526040808320938516835260049093019052205461010090041690565b60655460009082906001600160a01b0380831691161461049157604051631a40f2bd60e31b815260040160405180910390fd5b50506001600160a01b03166000908152606860205260409020600301541590565b60655460009082906001600160a01b038083169116146104e557604051631a40f2bd60e31b815260040160405180910390fd5b50506001600160a01b031660009081526068602052604090206003015490565b61050d610bd7565b6105176000610c36565b565b60655460009082906001600160a01b0380831691161461054c57604051631a40f2bd60e31b815260040160405180910390fd5b50506001600160a01b039081166000908152606860205260409020600101541690565b60655485906001600160a01b0380831691161461059f57604051631a40f2bd60e31b815260040160405180910390fd5b6067546001600160a01b03166105b481610c88565b6105c2878288888888610d0b565b50505050505050565b60655482906001600160a01b038083169116146105fb57604051631a40f2bd60e31b815260040160405180910390fd5b610603611162565b61060d83836111d1565b505050565b6033546001600160a01b031690565b600054610100900460ff16158080156106415750600054600160ff909116105b8061065b5750303b15801561065b575060005460ff166001145b6106c35760405162461bcd60e51b815260206004820152602e60248201527f496e697469616c697a61626c653a20636f6e747261637420697320616c72656160448201526d191e481a5b9a5d1a585b1a5e995960921b60648201526084015b60405180910390fd5b6000805460ff1916600117905580156106e6576000805461ff0019166101001790555b606554600160a01b900460ff16156107365760405162461bcd60e51b8152602060048201526013602482015272105b1c9958591e481a5b9a5d1a585b1a5e9959606a1b60448201526064016106ba565b61073f84611491565b61074883611491565b61075182611491565b6065805460ff60a01b1916600160a01b17905561076c61153a565b6000805260686020526000197fad6f8124f6081c2622ab3a16acd47af73d52fe87b755c3f897263c58ba3fdbd955606580546001600160a01b038481166001600160a01b0319928316179092556067805487841690831617905560668054928616929091169190911790556040517f143219c9e69b09e07e095fcc889b43d8f46ca892bba65f08dc3a0050869a567890610807908690611d06565b60405180910390a17f3ca631ffcd2a9b5d9ae18543fc82f58eb4ca33af9e6ab01b7a8e95331e6ed9858360405161083e9190611d06565b60405180910390a161084e610505565b8015610894576000805461ff0019169055604051600181527f7f26b83ff96e1f2b6a682f133852f6798a09c465da95921460cefb38474024989060200160405180910390a15b50505050565b60655485906001600160a01b038083169116146108ca57604051631a40f2bd60e31b815260040160405180910390fd5b6067546001600160a01b03166108df81610c88565b6108e98787610af7565b6109055760405162461bcd60e51b81526004016106ba90611ea3565b600085116109255760405162461bcd60e51b81526004016106ba90611eed565b6105b487876111d1565b606554600090819086906001600160a01b0380831691161461096457604051631a40f2bd60e31b815260040160405180910390fd5b60675461097e9088906001600160a01b0316888888611569565b925092505094509492505050565b60655460009082906001600160a01b038083169116146109bf57604051631a40f2bd60e31b815260040160405180910390fd5b50506001600160a01b0316600090815260686020526040902060028101546003909101541490565b60655460009082906001600160a01b03808316911614610a1a57604051631a40f2bd60e31b815260040160405180910390fd5b50506001600160a01b031660009081526068602052604090206002015490565b60655460009083906001600160a01b03808316911614610a6d57604051631a40f2bd60e31b815260040160405180910390fd5b50506001600160a01b03918216600090815260686020908152604080832093851683526004909301905220600101541690565b60655460009085906001600160a01b03808316911614610ad357604051631a40f2bd60e31b815260040160405180910390fd5b606754610aed9087906001600160a01b0316878787611747565b9695505050505050565b60655460009083906001600160a01b03808316911614610b2a57604051631a40f2bd60e31b815260040160405180910390fd5b50506001600160a01b0391821660009081526068602090815260408083209390941682526004909201909152205460ff1690565b610b66610bd7565b6001600160a01b038116610bcb5760405162461bcd60e51b815260206004820152602660248201527f4f776e61626c653a206e6577206f776e657220697320746865207a65726f206160448201526564647265737360d01b60648201526084016106ba565b610bd481610c36565b50565b33610be0610612565b6001600160a01b0316146105175760405162461bcd60e51b815260206004820181905260248201527f4f776e61626c653a2063616c6c6572206973206e6f7420746865206f776e657260448201526064016106ba565b603380546001600160a01b038381166001600160a01b0319831681179093556040519116919082907f8be0079c531659141344cd1fd0a4f28419497f9722a3daafe3b4186f6b6457e090600090a35050565b6066546001600160a01b0316331480610ca95750336001600160a01b038216145b610bd45760405162461bcd60e51b815260206004820152602d60248201527f536f7274656454726f7665733a2043616c6c6572206973206e6569746865722060448201526c424f206e6f722054726f76654d60981b60648201526084016106ba565b6001600160a01b0386166000908152606860205260408120600201549003610d4f576001600160a01b03861660009081526068602052604090206000196002909101555b610d588661098c565b15610da25760405162461bcd60e51b815260206004820152601a60248201527914dbdc9d1959151c9bdd995cce88131a5cdd081a5cc8199d5b1b60321b60448201526064016106ba565b610dac8685610af7565b15610e0e5760405162461bcd60e51b815260206004820152602c60248201527f536f7274656454726f7665733a204c69737420616c726561647920636f6e746160448201526b696e7320746865206e6f646560a01b60648201526084016106ba565b6001600160a01b038416610e645760405162461bcd60e51b815260206004820152601f60248201527f536f7274656454726f7665733a2049642063616e6e6f74206265207a65726f0060448201526064016106ba565b60008311610e845760405162461bcd60e51b81526004016106ba90611eed565b8181610e938888878585611747565b610eaa57610ea48888878585611569565b90925090505b6001600160a01b0380891660009081526068602090815260408083208a851684526004019091529020805460ff191660011790558216158015610ef457506001600160a01b038116155b15610f39576001600160a01b03808916600090815260686020526040902080549188166001600160a01b031992831681178255600190910180549092161790556110d4565b6001600160a01b038216610fc5576001600160a01b03888116600081815260686020818152604080842080548d88168087526004830185528387208054928a1661010002610100600160a81b0319909316929092179091558154909716855290842060010180546001600160a01b031990811688179091559490935252805490911690911790556110d4565b6001600160a01b03811661104c576001600160a01b038881166000818152606860208181526040808420600180820180548f8a16808952600490940186528488209092018054928a166001600160a01b0319938416179055805490981686529185208054610100600160a81b031916610100830217905594909352528254161790556110d4565b6001600160a01b0380891660009081526068602090815260408083208a851680855260049091018084528285208054878916610100818102610100600160a81b0319938416178455600193840180549a8d166001600160a01b03199b8c1681179091558952848852868920805491870291909316179091558652935292200180549092161790555b6001600160a01b0388166000908152606860205260409020600301546110fb9060016119c9565b6001600160a01b03898116600081815260686020908152604091829020600301949094558051928a168352928201889052917fa74a9cd584cc27d44e7f746f6715fae75b600cc5eb8f85a95752788d6b4547a5910160405180910390a25050505050505050565b6067546001600160a01b031633146105175760405162461bcd60e51b815260206004820152602c60248201527f536f7274656454726f7665733a2043616c6c6572206973206e6f74207468652060448201526b2a3937bb32a6b0b730b3b2b960a11b60648201526084016106ba565b6111db8282610af7565b6111f75760405162461bcd60e51b81526004016106ba90611ea3565b6001600160a01b038216600090815260686020526040902060030154600110156113a1576001600160a01b0380831660009081526068602052604090205481169082160361129b576001600160a01b0382811660009081526068602090815260408083208585168452600481019092528083205482546101009091049094166001600160a01b031994851681179092559082529020600101805490911690556113d6565b6001600160a01b03808316600090815260686020526040902060010154811690821603611322576001600160a01b038281166000908152606860209081526040808320858516845260048101909252808320600190810154920180546001600160a01b031916929094169182179093558152208054610100600160a81b03191690556113d6565b6001600160a01b0382811660009081526068602090815260408083208585168452600401909152808220805460018083018054871686528486208054610100600160a81b0319166101009485900489168502179055549254919091048516845291909220018054919092166001600160a01b03199091161790556113d6565b6001600160a01b038216600090815260686020526040902080546001600160a01b031990811682556001909101805490911690555b6001600160a01b0380831660008181526068602081815260408084209587168452600486018252832080546001600160a81b0319168155600190810180546001600160a01b0319169055939092529052600390910154611435916119de565b6001600160a01b038316600081815260686020526040908190206003019290925590517f202321eaea3aa2b5e1e2ef1dfd98a9d6ba8c90e293f5dc2755b32eb921a4779790611485908490611d06565b60405180910390a25050565b6001600160a01b0381166114e75760405162461bcd60e51b815260206004820152601e60248201527f4163636f756e742063616e6e6f74206265207a65726f2061646472657373000060448201526064016106ba565b803b806115365760405162461bcd60e51b815260206004820181905260248201527f4163636f756e7420636f64652073697a652063616e6e6f74206265207a65726f60448201526064016106ba565b5050565b600054610100900460ff166115615760405162461bcd60e51b81526004016106ba90611f30565b6105176119ea565b60008083836001600160a01b0382161561160a576115878983610af7565b158061160057506040516390ec230160e01b81526001600160a01b038916906390ec2301906115bc908c908690600401611e89565b602060405180830381865afa1580156115d9573d6000803e3d6000fd5b505050506040513d601f19601f820116820180604052508101906115fd9190611f7b565b87115b1561160a57600091505b6001600160a01b038116156116a5576116238982610af7565b158061169c57506040516390ec230160e01b81526001600160a01b038916906390ec230190611658908c908590600401611e89565b602060405180830381865afa158015611675573d6000803e3d6000fd5b505050506040513d601f19601f820116820180604052508101906116999190611f7b565b87105b156116a5575060005b6001600160a01b0382161580156116c357506001600160a01b038116155b156116fd576001600160a01b03808a166000908152606860205260409020546116f2918b918b918b9116611a1a565b93509350505061173d565b6001600160a01b038216611717576116f289898984611b77565b6001600160a01b038116611731576116f289898985611a1a565b6116f289898985611a1a565b9550959350505050565b60006001600160a01b03831615801561176757506001600160a01b038216155b1561177c576117758661045e565b90506119c0565b6001600160a01b03831661182a576001600160a01b03868116600090815260686020526040902054811690831614801561177557506040516390ec230160e01b81526001600160a01b038616906390ec2301906117df9089908690600401611e89565b602060405180830381865afa1580156117fc573d6000803e3d6000fd5b505050506040513d601f19601f820116820180604052508101906118209190611f7b565b84101590506119c0565b6001600160a01b0382166118db576001600160a01b03868116600090815260686020526040902060010154811690841614801561177557506040516390ec230160e01b81526001600160a01b038616906390ec2301906118909089908790600401611e89565b602060405180830381865afa1580156118ad573d6000803e3d6000fd5b505050506040513d601f19601f820116820180604052508101906118d19190611f7b565b84111590506119c0565b6001600160a01b03868116600090815260686020908152604080832087851684526004019091529020546101009004811690831614801561198b57506040516390ec230160e01b815284906001600160a01b038716906390ec230190611947908a908890600401611e89565b602060405180830381865afa158015611964573d6000803e3d6000fd5b505050506040513d601f19601f820116820180604052508101906119889190611f7b565b10155b801561177557506040516390ec230160e01b81526001600160a01b038616906390ec2301906117df9089908690600401611e89565b95945050505050565b60006119d58284611faa565b90505b92915050565b60006119d58284611fbd565b600054610100900460ff16611a115760405162461bcd60e51b81526004016106ba90611f30565b61051733610c36565b6001600160a01b03848116600090815260686020526040812054909182918116908416148015611ab857506040516390ec230160e01b81526001600160a01b038616906390ec230190611a739089908790600401611e89565b602060405180830381865afa158015611a90573d6000803e3d6000fd5b505050506040513d601f19601f82011682018060405250810190611ab49190611f7b565b8410155b15611ac857506000905081611b6e565b6001600160a01b03808716600090815260686020908152604080832084881684526004019091529020548491610100909104165b6001600160a01b03821615801590611b1e5750611b1c8888888585611747565b155b15611b6857506001600160a01b0387811660009081526068602090815260408083209484168352600490940190528281205461010090819004831680835293909120540416611afc565b90925090505b94509492505050565b6001600160a01b03848116600090815260686020526040812060010154909182918116908416148015611c1857506040516390ec230160e01b81526001600160a01b038616906390ec230190611bd39089908790600401611e89565b602060405180830381865afa158015611bf0573d6000803e3d6000fd5b505050506040513d601f19601f82011682018060405250810190611c149190611f7b565b8411155b15611c2857508190506000611b6e565b6001600160a01b03808716600090815260686020908152604080832084881684526004019091529020600101548491165b6001600160a01b03821615801590611c7b5750611c798888888486611747565b155b15611cc357506001600160a01b038781166000908152606860209081526040808320948416835260049094019052828120600190810154831680835293909120015416611c59565b97909650945050505050565b80356001600160a01b0381168114611ce657600080fd5b919050565b600060208284031215611cfd57600080fd5b6119d582611ccf565b6001600160a01b0391909116815260200190565b60008060408385031215611d2d57600080fd5b611d3683611ccf565b9150611d4460208401611ccf565b90509250929050565b600080600080600060a08688031215611d6557600080fd5b611d6e86611ccf565b9450611d7c60208701611ccf565b935060408601359250611d9160608701611ccf565b9150611d9f60808701611ccf565b90509295509295909350565b600080600060608486031215611dc057600080fd5b611dc984611ccf565b9250611dd760208501611ccf565b9150611de560408501611ccf565b90509250925092565b600060208083528351808285015260005b81811015611e1b57858101830151858201604001528201611dff565b506000604082860101526040601f19601f8301168501019250505092915050565b60008060008060808587031215611e5257600080fd5b611e5b85611ccf565b935060208501359250611e7060408601611ccf565b9150611e7e60608601611ccf565b905092959194509250565b6001600160a01b0392831681529116602082015260400190565b6020808252602a908201527f536f7274656454726f7665733a204c69737420646f6573206e6f7420636f6e74604082015269185a5b881d1a19481a5960b21b606082015260800190565b60208082526023908201527f536f7274656454726f7665733a204e494352206d75737420626520706f73697460408201526269766560e81b606082015260800190565b6020808252602b908201527f496e697469616c697a61626c653a20636f6e7472616374206973206e6f74206960408201526a6e697469616c697a696e6760a81b606082015260800190565b600060208284031215611f8d57600080fd5b5051919050565b634e487b7160e01b600052601160045260246000fd5b808201808211156119d8576119d8611f94565b818103818111156119d8576119d8611f9456fea264697066735822122082e0ad3385099461ff96da02f8643e5dfac0bf6ccac7f8dd87947f6d72823f2664736f6c63430008110033",
  "linkReferences": {},
  "deployedLinkReferences": {}
}