{
  "_format": "hh-sol-artifact-1",
  "contractName": "StabilityPoolManager",
  "sourceName": "contracts/StabilityPoolManager.sol",
  "abi": [
    {
      "inputs": [],
      "name": "IsNotWstETH",
      "type": "error"
    },
    {
      "anonymous": false,
      "inputs": [
        {
          "indexed": false,
          "internalType": "uint8",
          "name": "version",
          "type": "uint8"
        }
      ],
      "name": "Initialized",
      "type": "event"
    },
    {
      "anonymous": false,
      "inputs": [
        {
          "indexed": true,
          "internalType": "address",
          "name": "previousOwner",
          "type": "address"
        },
        {
          "indexed": true,
          "internalType": "address",
          "name": "newOwner",
          "type": "address"
        }
      ],
      "name": "OwnershipTransferred",
      "type": "event"
    },
    {
      "inputs": [],
      "name": "NAME",
      "outputs": [
        {
          "internalType": "string",
          "name": "",
          "type": "string"
        }
      ],
      "stateMutability": "view",
      "type": "function"
    },
    {
      "inputs": [
        {
          "internalType": "address",
          "name": "asset",
          "type": "address"
        },
        {
          "internalType": "address",
          "name": "stabilityPool",
          "type": "address"
        }
      ],
      "name": "addStabilityPool",
      "outputs": [],
      "stateMutability": "nonpayable",
      "type": "function"
    },
    {
      "inputs": [],
      "name": "adminContract",
      "outputs": [
        {
          "internalType": "address",
          "name": "",
          "type": "address"
        }
      ],
      "stateMutability": "view",
      "type": "function"
    },
    {
      "inputs": [
        {
          "internalType": "address",
          "name": "asset",
          "type": "address"
        }
      ],
      "name": "getAssetStabilityPool",
      "outputs": [
        {
          "internalType": "contract IStabilityPool",
          "name": "",
          "type": "address"
        }
      ],
      "stateMutability": "view",
      "type": "function"
    },
    {
      "inputs": [],
      "name": "isInitialized",
      "outputs": [
        {
          "internalType": "bool",
          "name": "",
          "type": "bool"
        }
      ],
      "stateMutability": "view",
      "type": "function"
    },
    {
      "inputs": [
        {
          "internalType": "address",
          "name": "stabilityPool",
          "type": "address"
        }
      ],
      "name": "isStabilityPool",
      "outputs": [
        {
          "internalType": "bool",
          "name": "",
          "type": "bool"
        }
      ],
      "stateMutability": "view",
      "type": "function"
    },
    {
      "inputs": [],
      "name": "owner",
      "outputs": [
        {
          "internalType": "address",
          "name": "",
          "type": "address"
        }
      ],
      "stateMutability": "view",
      "type": "function"
    },
    {
      "inputs": [
        {
          "internalType": "address",
          "name": "asset",
          "type": "address"
        }
      ],
      "name": "removeStabilityPool",
      "outputs": [],
      "stateMutability": "nonpayable",
      "type": "function"
    },
    {
      "inputs": [],
      "name": "renounceOwnership",
      "outputs": [],
      "stateMutability": "nonpayable",
      "type": "function"
    },
    {
      "inputs": [
        {
          "internalType": "address",
          "name": "_adminContract",
          "type": "address"
        },
        {
          "internalType": "address",
          "name": "_wstETHAddress",
          "type": "address"
        }
      ],
      "name": "setAddresses",
      "outputs": [],
      "stateMutability": "nonpayable",
      "type": "function"
    },
    {
      "inputs": [
        {
          "internalType": "address",
          "name": "_admin",
          "type": "address"
        }
      ],
      "name": "setAdminContract",
      "outputs": [],
      "stateMutability": "nonpayable",
      "type": "function"
    },
    {
      "inputs": [
        {
          "internalType": "address",
          "name": "newOwner",
          "type": "address"
        }
      ],
      "name": "transferOwnership",
      "outputs": [],
      "stateMutability": "nonpayable",
      "type": "function"
    },
    {
      "inputs": [
        {
          "internalType": "address",
          "name": "_asset",
          "type": "address"
        }
      ],
      "name": "unsafeGetAssetStabilityPool",
      "outputs": [
        {
          "internalType": "address",
          "name": "",
          "type": "address"
        }
      ],
      "stateMutability": "view",
      "type": "function"
    },
    {
      "inputs": [],
      "name": "wstETH",
      "outputs": [
        {
          "internalType": "address",
          "name": "",
          "type": "address"
        }
      ],
      "stateMutability": "view",
      "type": "function"
    }
  ],
  "bytecode": "0x608060405234801561001057600080fd5b50610bc6806100206000396000f3fe608060405234801561001057600080fd5b50600436106100ba5760003560e01c806304c8ce5c146100bf578063392e53cd146100d45780633d7f9a50146100f65780634aa07e641461010957806363a812f91461013457806365c20bb014610147578063715018a61461015a5780638da5cb5b1461016257806390107afe1461016a578063a3f4df7e1461017d578063c05c5e94146101bd578063df896105146101d5578063f17db63c146101e8578063f2fde38b14610214575b600080fd5b6100d26100cd366004610a50565b610227565b005b6068546100e19060ff1681565b60405190151581526020015b60405180910390f35b6100d2610104366004610a89565b610427565b60655461011c906001600160a01b031681565b6040516001600160a01b0390911681526020016100ed565b6100d2610142366004610a89565b6104c0565b61011c610155366004610a89565b610546565b6100d26105fe565b61011c610612565b6100d2610178366004610a50565b610621565b6101b06040518060400160405280601481526020017329ba30b134b634ba3ca837b7b626b0b730b3b2b960611b81525081565b6040516100ed9190610aad565b60685461011c9061010090046001600160a01b031681565b61011c6101e3366004610a89565b6107db565b6100e16101f6366004610a89565b6001600160a01b031660009081526067602052604090205460ff1690565b6100d2610222366004610a89565b61080e565b61022f610612565b6001600160a01b0316336001600160a01b0316148061025d575060685461010090046001600160a01b031633145b6102825760405162461bcd60e51b815260040161027990610afb565b60405180910390fd5b6001600160a01b03811660009081526067602052604090205460ff16156102eb5760405162461bcd60e51b815260206004820152601e60248201527f53746162696c697479506f6f6c20616c726561647920637265617465642e00006044820152606401610279565b816001600160a01b0316816001600160a01b031663896317b86040518163ffffffff1660e01b8152600401602060405180830381865afa158015610333573d6000803e3d6000fd5b505050506040513d601f19601f820116820180604052508101906103579190610b28565b6001600160a01b0316146103df5760405162461bcd60e51b815260206004820152604360248201527f53746162696c69747920506f6f6c20646f65736e27742068617665207468652060448201527f73616d6520617373657420747970652e20497320697420696e697469616c697a60648201526265643f60e81b608482015260a401610279565b6001600160a01b03918216600090815260666020908152604080832080546001600160a01b03191694909516938417909455918152606790915220805460ff19166001179055565b61042f610612565b6001600160a01b0316336001600160a01b0316148061045d575060685461010090046001600160a01b031633145b6104795760405162461bcd60e51b815260040161027990610afb565b6001600160a01b03908116600081815260666020818152604080842080549096168452606782528320805460ff1916905592909152905280546001600160a01b0319169055565b6104c8610887565b6001600160a01b03811661051e5760405162461bcd60e51b815260206004820152601d60248201527f41646d696e2063616e6e6f7420626520656d70747920616464726573730000006044820152606401610279565b606880546001600160a01b0390921661010002610100600160a81b0319909216919091179055565b60655460009082906001600160a01b0380831691161461057957604051631a40f2bd60e31b815260040160405180910390fd5b6001600160a01b03838116600090815260666020526040902054166105de5760405162461bcd60e51b815260206004820152601b60248201527a125b9d985b1a5908185cdcd95d0814dd18589a5b1a5d1e541bdbdb602a1b6044820152606401610279565b50506001600160a01b039081166000908152606660205260409020541690565b610606610887565b61061060006108e6565b565b6033546001600160a01b031690565b600054610100900460ff16158080156106415750600054600160ff909116105b8061065b5750303b15801561065b575060005460ff166001145b6106be5760405162461bcd60e51b815260206004820152602e60248201527f496e697469616c697a61626c653a20636f6e747261637420697320616c72656160448201526d191e481a5b9a5d1a585b1a5e995960921b6064820152608401610279565b6000805460ff1916600117905580156106e1576000805461ff0019166101001790555b60685460ff161561072a5760405162461bcd60e51b8152602060048201526013602482015272105b1c9958591e481a5b9a5d1a585b1a5e9959606a1b6044820152606401610279565b61073383610938565b61073c82610938565b6068805460ff191660011790556107516109e1565b606580546001600160a01b0319166001600160a01b038481169190911790915560688054610100600160a81b0319166101009286169290920291909117905580156107d6576000805461ff0019169055604051600181527f7f26b83ff96e1f2b6a682f133852f6798a09c465da95921460cefb38474024989060200160405180910390a15b505050565b60655460009082906001600160a01b038083169116146105de57604051631a40f2bd60e31b815260040160405180910390fd5b610816610887565b6001600160a01b03811661087b5760405162461bcd60e51b815260206004820152602660248201527f4f776e61626c653a206e6577206f776e657220697320746865207a65726f206160448201526564647265737360d01b6064820152608401610279565b610884816108e6565b50565b33610890610612565b6001600160a01b0316146106105760405162461bcd60e51b815260206004820181905260248201527f4f776e61626c653a2063616c6c6572206973206e6f7420746865206f776e65726044820152606401610279565b603380546001600160a01b038381166001600160a01b0319831681179093556040519116919082907f8be0079c531659141344cd1fd0a4f28419497f9722a3daafe3b4186f6b6457e090600090a35050565b6001600160a01b03811661098e5760405162461bcd60e51b815260206004820152601e60248201527f4163636f756e742063616e6e6f74206265207a65726f206164647265737300006044820152606401610279565b803b806109dd5760405162461bcd60e51b815260206004820181905260248201527f4163636f756e7420636f64652073697a652063616e6e6f74206265207a65726f6044820152606401610279565b5050565b600054610100900460ff16610a085760405162461bcd60e51b815260040161027990610b45565b610610600054610100900460ff16610a325760405162461bcd60e51b815260040161027990610b45565b610610336108e6565b6001600160a01b038116811461088457600080fd5b60008060408385031215610a6357600080fd5b8235610a6e81610a3b565b91506020830135610a7e81610a3b565b809150509250929050565b600060208284031215610a9b57600080fd5b8135610aa681610a3b565b9392505050565b600060208083528351808285015260005b81811015610ada57858101830151858201604001528201610abe565b506000604082860101526040601f19601f8301168501019250505092915050565b602080825260139082015272496e76616c6964207065726d697373696f6e7360681b604082015260600190565b600060208284031215610b3a57600080fd5b8151610aa681610a3b565b6020808252602b908201527f496e697469616c697a61626c653a20636f6e7472616374206973206e6f74206960408201526a6e697469616c697a696e6760a81b60608201526080019056fea26469706673582212207fead2766fb87f1c574314d15190c728c2415aafb54fc0299ebf7b1702f9a2c064736f6c63430008110033",
  "linkReferences": {},
  "deployedLinkReferences": {}
}