{
  "_format": "hh-sol-artifact-1",
  "contractName": "ERC20Test",
  "sourceName": "contracts/TestContracts/ERC20Test.sol",
  "abi": [
    {
      "inputs": [],
      "stateMutability": "nonpayable",
      "type": "constructor"
    },
    {
      "anonymous": false,
      "inputs": [
        {
          "indexed": true,
          "internalType": "address",
          "name": "owner",
          "type": "address"
        },
        {
          "indexed": true,
          "internalType": "address",
          "name": "spender",
          "type": "address"
        },
        {
          "indexed": false,
          "internalType": "uint256",
          "name": "value",
          "type": "uint256"
        }
      ],
      "name": "Approval",
      "type": "event"
    },
    {
      "anonymous": false,
      "inputs": [
        {
          "indexed": true,
          "internalType": "address",
          "name": "from",
          "type": "address"
        },
        {
          "indexed": true,
          "internalType": "address",
          "name": "to",
          "type": "address"
        },
        {
          "indexed": false,
          "internalType": "uint256",
          "name": "value",
          "type": "uint256"
        }
      ],
      "name": "Transfer",
      "type": "event"
    },
    {
      "inputs": [],
      "name": "DOMAIN_SEPARATOR",
      "outputs": [
        {
          "internalType": "bytes32",
          "name": "",
          "type": "bytes32"
        }
      ],
      "stateMutability": "view",
      "type": "function"
    },
    {
      "inputs": [],
      "name": "PERMIT_TYPEHASH",
      "outputs": [
        {
          "internalType": "bytes32",
          "name": "",
          "type": "bytes32"
        }
      ],
      "stateMutability": "view",
      "type": "function"
    },
    {
      "inputs": [
        {
          "internalType": "address",
          "name": "owner",
          "type": "address"
        },
        {
          "internalType": "address",
          "name": "spender",
          "type": "address"
        }
      ],
      "name": "allowance",
      "outputs": [
        {
          "internalType": "uint256",
          "name": "",
          "type": "uint256"
        }
      ],
      "stateMutability": "view",
      "type": "function"
    },
    {
      "inputs": [
        {
          "internalType": "address",
          "name": "spender",
          "type": "address"
        },
        {
          "internalType": "uint256",
          "name": "amount",
          "type": "uint256"
        }
      ],
      "name": "approve",
      "outputs": [
        {
          "internalType": "bool",
          "name": "",
          "type": "bool"
        }
      ],
      "stateMutability": "nonpayable",
      "type": "function"
    },
    {
      "inputs": [
        {
          "internalType": "address",
          "name": "account",
          "type": "address"
        }
      ],
      "name": "balanceOf",
      "outputs": [
        {
          "internalType": "uint256",
          "name": "",
          "type": "uint256"
        }
      ],
      "stateMutability": "view",
      "type": "function"
    },
    {
      "inputs": [],
      "name": "chainId",
      "outputs": [
        {
          "internalType": "uint256",
          "name": "chainID",
          "type": "uint256"
        }
      ],
      "stateMutability": "view",
      "type": "function"
    },
    {
      "inputs": [],
      "name": "decimals",
      "outputs": [
        {
          "internalType": "uint8",
          "name": "",
          "type": "uint8"
        }
      ],
      "stateMutability": "view",
      "type": "function"
    },
    {
      "inputs": [
        {
          "internalType": "address",
          "name": "spender",
          "type": "address"
        },
        {
          "internalType": "uint256",
          "name": "subtractedValue",
          "type": "uint256"
        }
      ],
      "name": "decreaseAllowance",
      "outputs": [
        {
          "internalType": "bool",
          "name": "",
          "type": "bool"
        }
      ],
      "stateMutability": "nonpayable",
      "type": "function"
    },
    {
      "inputs": [
        {
          "internalType": "address",
          "name": "spender",
          "type": "address"
        },
        {
          "internalType": "uint256",
          "name": "addedValue",
          "type": "uint256"
        }
      ],
      "name": "increaseAllowance",
      "outputs": [
        {
          "internalType": "bool",
          "name": "",
          "type": "bool"
        }
      ],
      "stateMutability": "nonpayable",
      "type": "function"
    },
    {
      "inputs": [
        {
          "internalType": "address",
          "name": "_addr",
          "type": "address"
        },
        {
          "internalType": "uint256",
          "name": "_amount",
          "type": "uint256"
        }
      ],
      "name": "mint",
      "outputs": [],
      "stateMutability": "nonpayable",
      "type": "function"
    },
    {
      "inputs": [],
      "name": "name",
      "outputs": [
        {
          "internalType": "string",
          "name": "",
          "type": "string"
        }
      ],
      "stateMutability": "view",
      "type": "function"
    },
    {
      "inputs": [
        {
          "internalType": "address",
          "name": "owner",
          "type": "address"
        }
      ],
      "name": "nonces",
      "outputs": [
        {
          "internalType": "uint256",
          "name": "",
          "type": "uint256"
        }
      ],
      "stateMutability": "view",
      "type": "function"
    },
    {
      "inputs": [
        {
          "internalType": "address",
          "name": "owner",
          "type": "address"
        },
        {
          "internalType": "address",
          "name": "spender",
          "type": "address"
        },
        {
          "internalType": "uint256",
          "name": "amount",
          "type": "uint256"
        },
        {
          "internalType": "uint256",
          "name": "deadline",
          "type": "uint256"
        },
        {
          "internalType": "uint8",
          "name": "v",
          "type": "uint8"
        },
        {
          "internalType": "bytes32",
          "name": "r",
          "type": "bytes32"
        },
        {
          "internalType": "bytes32",
          "name": "s",
          "type": "bytes32"
        }
      ],
      "name": "permit",
      "outputs": [],
      "stateMutability": "nonpayable",
      "type": "function"
    },
    {
      "inputs": [
        {
          "internalType": "uint8",
          "name": "_decimals",
          "type": "uint8"
        }
      ],
      "name": "setDecimals",
      "outputs": [],
      "stateMutability": "nonpayable",
      "type": "function"
    },
    {
      "inputs": [],
      "name": "symbol",
      "outputs": [
        {
          "internalType": "string",
          "name": "",
          "type": "string"
        }
      ],
      "stateMutability": "view",
      "type": "function"
    },
    {
      "inputs": [],
      "name": "totalSupply",
      "outputs": [
        {
          "internalType": "uint256",
          "name": "",
          "type": "uint256"
        }
      ],
      "stateMutability": "view",
      "type": "function"
    },
    {
      "inputs": [
        {
          "internalType": "address",
          "name": "to",
          "type": "address"
        },
        {
          "internalType": "uint256",
          "name": "amount",
          "type": "uint256"
        }
      ],
      "name": "transfer",
      "outputs": [
        {
          "internalType": "bool",
          "name": "",
          "type": "bool"
        }
      ],
      "stateMutability": "nonpayable",
      "type": "function"
    },
    {
      "inputs": [
        {
          "internalType": "address",
          "name": "sender",
          "type": "address"
        },
        {
          "internalType": "address",
          "name": "recipient",
          "type": "address"
        },
        {
          "internalType": "uint256",
          "name": "amount",
          "type": "uint256"
        }
      ],
      "name": "transferFrom",
      "outputs": [
        {
          "internalType": "bool",
          "name": "",
          "type": "bool"
        }
      ],
      "stateMutability": "nonpayable",
      "type": "function"
    }
  ],
  "bytecode": "0x60806040526007805460ff191660121790553480156200001e57600080fd5b5060405180604001604052806008815260200167115490c815195cdd60c21b815250604051806040016040528060038152602001621514d560ea1b81525081600390816200006d919062000272565b5060046200007c828262000272565b504691507f8b73c3c69bb8fe3d512ecc4cf759cc79239f7b179b0ffacaa9a75d522b39400f9050620000ad62000133565b805160209182012060408051808201825260018152603160f81b90840152805192830193909352918101919091527fc89efdaa54c0f20c7adf612882df0950f5a951637e0307cdcb4c672f298b8bc66060820152608081018290523060a082015260c00160408051601f198184030181529190528051602090910120600655506200033e565b6060600380546200014490620001e3565b80601f01602080910402602001604051908101604052809291908181526020018280546200017290620001e3565b8015620001c35780601f106200019757610100808354040283529160200191620001c3565b820191906000526020600020905b815481529060010190602001808311620001a557829003601f168201915b5050505050905090565b634e487b7160e01b600052604160045260246000fd5b600181811c90821680620001f857607f821691505b6020821081036200021957634e487b7160e01b600052602260045260246000fd5b50919050565b601f8211156200026d57600081815260208120601f850160051c81016020861015620002485750805b601f850160051c820191505b81811015620002695782815560010162000254565b5050505b505050565b81516001600160401b038111156200028e576200028e620001cd565b620002a6816200029f8454620001e3565b846200021f565b602080601f831160018114620002de5760008415620002c55750858301515b600019600386901b1c1916600185901b17855562000269565b600085815260208120601f198616915b828110156200030f57888601518255948401946001909101908401620002ee565b50858210156200032e5787850151600019600388901b60f8161c191681555b5050505050600190811b01905550565b610c40806200034e6000396000f3fe608060405234801561001057600080fd5b50600436106100e65760003560e01c806306fdde03146100eb578063095ea7b31461010957806318160ddd1461012c57806323b872dd1461013e57806330adf81f14610151578063313ce567146101665780633644e5151461017b578063395093511461018457806340c10f191461019757806370a08231146101ac5780637a1395aa146101d55780637ecebe00146101f957806395d89b411461020c5780639a8a059214610214578063a457c2d71461021a578063a9059cbb1461022d578063d505accf14610240578063dd62ed3e14610253575b600080fd5b6100f3610266565b60405161010091906109b4565b60405180910390f35b61011c610117366004610a1e565b6102f8565b6040519015158152602001610100565b6002545b604051908152602001610100565b61011c61014c366004610a48565b610312565b610130600080516020610beb83398151915281565b60075460405160ff9091168152602001610100565b61013060065481565b61011c610192366004610a1e565b610329565b6101aa6101a5366004610a1e565b61034b565b005b6101306101ba366004610a84565b6001600160a01b031660009081526020819052604090205490565b6101aa6101e3366004610ab7565b6007805460ff191660ff92909216919091179055565b610130610207366004610a84565b610359565b6100f3610377565b46610130565b61011c610228366004610a1e565b610386565b61011c61023b366004610a1e565b610411565b6101aa61024e366004610ad2565b61041f565b610130610261366004610b3c565b610625565b60606003805461027590610b6f565b80601f01602080910402602001604051908101604052809291908181526020018280546102a190610b6f565b80156102ee5780601f106102c3576101008083540402835291602001916102ee565b820191906000526020600020905b8154815290600101906020018083116102d157829003601f168201915b5050505050905090565b600033610306818585610650565b60019150505b92915050565b600061031f848484610774565b5060019392505050565b60003361030681858561033c8383610625565b6103469190610ba9565b610650565b6103558282610907565b5050565b6001600160a01b03811660009081526005602052604081205461030c565b60606004805461027590610b6f565b600033816103948286610625565b9050838110156103f95760405162461bcd60e51b815260206004820152602560248201527f45524332303a2064656372656173656420616c6c6f77616e63652062656c6f77604482015264207a65726f60d81b60648201526084015b60405180910390fd5b6104068286868403610650565b506001949350505050565b600033610306818585610774565b8342111561046a5760405162461bcd60e51b81526020600482015260186024820152775065726d69743a206578706972656420646561646c696e6560401b60448201526064016103f0565b6001600160a01b038781166000818152600560209081526040808320548151600080516020610beb8339815191528185015280830195909552948b166060850152608084018a905260a084019490945260c08084018990528451808503909101815260e08401855280519082012060065461190160f01b61010086015261010285015261012280850182905285518086039091018152610142850180875281519184019190912090849052610162850180875281905260ff89166101828601526101a285018890526101c2850187905294519094936001926101e2808301939192601f198301929081900390910190855afa15801561056d573d6000803e3d6000fd5b5050604051601f1901519150506001600160a01b038116158015906105a35750896001600160a01b0316816001600160a01b0316145b6105ef5760405162461bcd60e51b815260206004820152601e60248201527f45524332305065726d69743a20496e76616c6964207369676e6174757265000060448201526064016103f0565b6001600160a01b038a166000908152600560205260409020805460010190556106198a8a8a610650565b50505050505050505050565b6001600160a01b03918216600090815260016020908152604080832093909416825291909152205490565b6001600160a01b0383166106b25760405162461bcd60e51b8152602060048201526024808201527f45524332303a20617070726f76652066726f6d20746865207a65726f206164646044820152637265737360e01b60648201526084016103f0565b6001600160a01b0382166107135760405162461bcd60e51b815260206004820152602260248201527f45524332303a20617070726f766520746f20746865207a65726f206164647265604482015261737360f01b60648201526084016103f0565b6001600160a01b0383811660008181526001602090815260408083209487168084529482529182902085905590518481527f8c5be1e5ebec7d5bd14f71427d1e84f3dd0314c0f7b2291e5b200ac8c7c3b925910160405180910390a3505050565b6001600160a01b0383166107d85760405162461bcd60e51b815260206004820152602560248201527f45524332303a207472616e736665722066726f6d20746865207a65726f206164604482015264647265737360d81b60648201526084016103f0565b6001600160a01b03821661083a5760405162461bcd60e51b815260206004820152602360248201527f45524332303a207472616e7366657220746f20746865207a65726f206164647260448201526265737360e81b60648201526084016103f0565b6001600160a01b038316600090815260208190526040902054818110156108b25760405162461bcd60e51b815260206004820152602660248201527f45524332303a207472616e7366657220616d6f756e7420657863656564732062604482015265616c616e636560d01b60648201526084016103f0565b6001600160a01b0384811660008181526020818152604080832087870390559387168083529184902080548701905592518581529092600080516020610bcb833981519152910160405180910390a350505050565b6001600160a01b03821661095d5760405162461bcd60e51b815260206004820152601f60248201527f45524332303a206d696e7420746f20746865207a65726f20616464726573730060448201526064016103f0565b806002600082825461096f9190610ba9565b90915550506001600160a01b03821660008181526020818152604080832080548601905551848152600080516020610bcb833981519152910160405180910390a35050565b600060208083528351808285015260005b818110156109e1578581018301518582016040015282016109c5565b506000604082860101526040601f19601f8301168501019250505092915050565b80356001600160a01b0381168114610a1957600080fd5b919050565b60008060408385031215610a3157600080fd5b610a3a83610a02565b946020939093013593505050565b600080600060608486031215610a5d57600080fd5b610a6684610a02565b9250610a7460208501610a02565b9150604084013590509250925092565b600060208284031215610a9657600080fd5b610a9f82610a02565b9392505050565b803560ff81168114610a1957600080fd5b600060208284031215610ac957600080fd5b610a9f82610aa6565b600080600080600080600060e0888a031215610aed57600080fd5b610af688610a02565b9650610b0460208901610a02565b95506040880135945060608801359350610b2060808901610aa6565b925060a0880135915060c0880135905092959891949750929550565b60008060408385031215610b4f57600080fd5b610b5883610a02565b9150610b6660208401610a02565b90509250929050565b600181811c90821680610b8357607f821691505b602082108103610ba357634e487b7160e01b600052602260045260246000fd5b50919050565b8082018082111561030c57634e487b7160e01b600052601160045260246000fdfeddf252ad1be2c89b69c2b068fc378daa952ba7f163c4a11628f55a4df523b3ef6e71edae12b1b97f4d1f60370fef10105fa2faae0126114a169c64845d6126c9a2646970667358221220eb582317837769589407e8fdcf37373f2f6b1af6a60671d5f52a3704bd0526cd64736f6c63430008110033",
  "linkReferences": {},
  "deployedLinkReferences": {}
}