{
  "_format": "hh-sol-artifact-1",
  "contractName": "ERC20Mock",
  "sourceName": "contracts/TestContracts/ERC20Mock.sol",
  "abi": [
    {
      "inputs": [
        {
          "internalType": "string",
          "name": "name",
          "type": "string"
        },
        {
          "internalType": "string",
          "name": "symbol",
          "type": "string"
        },
        {
          "internalType": "uint8",
          "name": "_decimals",
          "type": "uint8"
        }
      ],
      "stateMutability": "payable",
      "type": "constructor"
    },
    {
      "anonymous": false,
      "inputs": [
        {
          "indexed": true,
          "internalType": "address",
          "name": "owner",
          "type": "address"
        },
        {
          "indexed": true,
          "internalType": "address",
          "name": "spender",
          "type": "address"
        },
        {
          "indexed": false,
          "internalType": "uint256",
          "name": "value",
          "type": "uint256"
        }
      ],
      "name": "Approval",
      "type": "event"
    },
    {
      "anonymous": false,
      "inputs": [
        {
          "indexed": true,
          "internalType": "address",
          "name": "from",
          "type": "address"
        },
        {
          "indexed": true,
          "internalType": "address",
          "name": "to",
          "type": "address"
        },
        {
          "indexed": false,
          "internalType": "uint256",
          "name": "value",
          "type": "uint256"
        }
      ],
      "name": "Transfer",
      "type": "event"
    },
    {
      "inputs": [
        {
          "internalType": "address",
          "name": "owner",
          "type": "address"
        },
        {
          "internalType": "address",
          "name": "spender",
          "type": "address"
        }
      ],
      "name": "allowance",
      "outputs": [
        {
          "internalType": "uint256",
          "name": "",
          "type": "uint256"
        }
      ],
      "stateMutability": "view",
      "type": "function"
    },
    {
      "inputs": [
        {
          "internalType": "address",
          "name": "spender",
          "type": "address"
        },
        {
          "internalType": "uint256",
          "name": "amount",
          "type": "uint256"
        }
      ],
      "name": "approve",
      "outputs": [
        {
          "internalType": "bool",
          "name": "",
          "type": "bool"
        }
      ],
      "stateMutability": "nonpayable",
      "type": "function"
    },
    {
      "inputs": [
        {
          "internalType": "address",
          "name": "owner",
          "type": "address"
        },
        {
          "internalType": "address",
          "name": "spender",
          "type": "address"
        },
        {
          "internalType": "uint256",
          "name": "value",
          "type": "uint256"
        }
      ],
      "name": "approveInternal",
      "outputs": [],
      "stateMutability": "nonpayable",
      "type": "function"
    },
    {
      "inputs": [
        {
          "internalType": "address",
          "name": "account",
          "type": "address"
        }
      ],
      "name": "balanceOf",
      "outputs": [
        {
          "internalType": "uint256",
          "name": "",
          "type": "uint256"
        }
      ],
      "stateMutability": "view",
      "type": "function"
    },
    {
      "inputs": [
        {
          "internalType": "address",
          "name": "account",
          "type": "address"
        },
        {
          "internalType": "uint256",
          "name": "amount",
          "type": "uint256"
        }
      ],
      "name": "burn",
      "outputs": [],
      "stateMutability": "nonpayable",
      "type": "function"
    },
    {
      "inputs": [],
      "name": "decimals",
      "outputs": [
        {
          "internalType": "uint8",
          "name": "",
          "type": "uint8"
        }
      ],
      "stateMutability": "view",
      "type": "function"
    },
    {
      "inputs": [
        {
          "internalType": "address",
          "name": "spender",
          "type": "address"
        },
        {
          "internalType": "uint256",
          "name": "subtractedValue",
          "type": "uint256"
        }
      ],
      "name": "decreaseAllowance",
      "outputs": [
        {
          "internalType": "bool",
          "name": "",
          "type": "bool"
        }
      ],
      "stateMutability": "nonpayable",
      "type": "function"
    },
    {
      "inputs": [
        {
          "internalType": "address",
          "name": "spender",
          "type": "address"
        },
        {
          "internalType": "uint256",
          "name": "addedValue",
          "type": "uint256"
        }
      ],
      "name": "increaseAllowance",
      "outputs": [
        {
          "internalType": "bool",
          "name": "",
          "type": "bool"
        }
      ],
      "stateMutability": "nonpayable",
      "type": "function"
    },
    {
      "inputs": [
        {
          "internalType": "address",
          "name": "account",
          "type": "address"
        },
        {
          "internalType": "uint256",
          "name": "amount",
          "type": "uint256"
        }
      ],
      "name": "mint",
      "outputs": [],
      "stateMutability": "nonpayable",
      "type": "function"
    },
    {
      "inputs": [],
      "name": "name",
      "outputs": [
        {
          "internalType": "string",
          "name": "",
          "type": "string"
        }
      ],
      "stateMutability": "view",
      "type": "function"
    },
    {
      "inputs": [],
      "name": "symbol",
      "outputs": [
        {
          "internalType": "string",
          "name": "",
          "type": "string"
        }
      ],
      "stateMutability": "view",
      "type": "function"
    },
    {
      "inputs": [],
      "name": "totalSupply",
      "outputs": [
        {
          "internalType": "uint256",
          "name": "",
          "type": "uint256"
        }
      ],
      "stateMutability": "view",
      "type": "function"
    },
    {
      "inputs": [
        {
          "internalType": "address",
          "name": "to",
          "type": "address"
        },
        {
          "internalType": "uint256",
          "name": "amount",
          "type": "uint256"
        }
      ],
      "name": "transfer",
      "outputs": [
        {
          "internalType": "bool",
          "name": "",
          "type": "bool"
        }
      ],
      "stateMutability": "nonpayable",
      "type": "function"
    },
    {
      "inputs": [
        {
          "internalType": "address",
          "name": "from",
          "type": "address"
        },
        {
          "internalType": "address",
          "name": "to",
          "type": "address"
        },
        {
          "internalType": "uint256",
          "name": "amount",
          "type": "uint256"
        }
      ],
      "name": "transferFrom",
      "outputs": [
        {
          "internalType": "bool",
          "name": "",
          "type": "bool"
        }
      ],
      "stateMutability": "nonpayable",
      "type": "function"
    },
    {
      "inputs": [
        {
          "internalType": "address",
          "name": "from",
          "type": "address"
        },
        {
          "internalType": "address",
          "name": "to",
          "type": "address"
        },
        {
          "internalType": "uint256",
          "name": "value",
          "type": "uint256"
        }
      ],
      "name": "transferInternal",
      "outputs": [],
      "stateMutability": "nonpayable",
      "type": "function"
    }
  ],
  "bytecode": "0x608060408190526005805460ff1916601217905562000df338819003908190833981016040819052620000329162000137565b828260036200004283826200024b565b5060046200005182826200024b565b50506005805460ff191660ff93909316929092179091555062000317915050565b634e487b7160e01b600052604160045260246000fd5b600082601f8301126200009a57600080fd5b81516001600160401b0380821115620000b757620000b762000072565b604051601f8301601f19908116603f01168101908282118183101715620000e257620000e262000072565b81604052838152602092508683858801011115620000ff57600080fd5b600091505b8382101562000123578582018301518183018401529082019062000104565b600093810190920192909252949350505050565b6000806000606084860312156200014d57600080fd5b83516001600160401b03808211156200016557600080fd5b620001738783880162000088565b945060208601519150808211156200018a57600080fd5b50620001998682870162000088565b925050604084015160ff81168114620001b157600080fd5b809150509250925092565b600181811c90821680620001d157607f821691505b602082108103620001f257634e487b7160e01b600052602260045260246000fd5b50919050565b601f8211156200024657600081815260208120601f850160051c81016020861015620002215750805b601f850160051c820191505b8181101562000242578281556001016200022d565b5050505b505050565b81516001600160401b0381111562000267576200026762000072565b6200027f81620002788454620001bc565b84620001f8565b602080601f831160018114620002b757600084156200029e5750858301515b600019600386901b1c1916600185901b17855562000242565b600085815260208120601f198616915b82811015620002e857888601518255948401946001909101908401620002c7565b5085821015620003075787850151600019600388901b60f8161c191681555b5050505050600190811b01905550565b610acc80620003276000396000f3fe608060405234801561001057600080fd5b50600436106100c55760003560e01c806306fdde03146100ca578063095ea7b3146100e857806318160ddd1461010b578063222f5be01461011d57806323b872dd14610132578063313ce56714610145578063395093511461015a57806340c10f191461016d57806356189cb41461018057806370a082311461019357806395d89b41146101bc5780639dc29fac146101c4578063a457c2d7146101d7578063a9059cbb146101ea578063dd62ed3e146101fd575b600080fd5b6100d2610210565b6040516100df91906108f6565b60405180910390f35b6100fb6100f6366004610960565b6102a2565b60405190151581526020016100df565b6002545b6040519081526020016100df565b61013061012b36600461098a565b6102bc565b005b6100fb61014036600461098a565b6102cc565b60055460405160ff90911681526020016100df565b6100fb610168366004610960565b6102f0565b61013061017b366004610960565b610312565b61013061018e36600461098a565b610320565b61010f6101a13660046109c6565b6001600160a01b031660009081526020819052604090205490565b6100d261032b565b6101306101d2366004610960565b61033a565b6100fb6101e5366004610960565b610344565b6100fb6101f8366004610960565b6103c4565b61010f61020b3660046109e8565b6103d2565b60606003805461021f90610a1b565b80601f016020809104026020016040519081016040528092919081815260200182805461024b90610a1b565b80156102985780601f1061026d57610100808354040283529160200191610298565b820191906000526020600020905b81548152906001019060200180831161027b57829003601f168201915b5050505050905090565b6000336102b08185856103fd565b60019150505b92915050565b6102c7838383610521565b505050565b6000336102da8582856106b5565b6102e5858585610521565b506001949350505050565b6000336102b081858561030383836103d2565b61030d9190610a55565b6103fd565b61031c8282610729565b5050565b6102c78383836103fd565b60606004805461021f90610a1b565b61031c82826107d6565b6000338161035282866103d2565b9050838110156103b75760405162461bcd60e51b815260206004820152602560248201527f45524332303a2064656372656173656420616c6c6f77616e63652062656c6f77604482015264207a65726f60d81b60648201526084015b60405180910390fd5b6102e582868684036103fd565b6000336102b0818585610521565b6001600160a01b03918216600090815260016020908152604080832093909416825291909152205490565b6001600160a01b03831661045f5760405162461bcd60e51b8152602060048201526024808201527f45524332303a20617070726f76652066726f6d20746865207a65726f206164646044820152637265737360e01b60648201526084016103ae565b6001600160a01b0382166104c05760405162461bcd60e51b815260206004820152602260248201527f45524332303a20617070726f766520746f20746865207a65726f206164647265604482015261737360f01b60648201526084016103ae565b6001600160a01b0383811660008181526001602090815260408083209487168084529482529182902085905590518481527f8c5be1e5ebec7d5bd14f71427d1e84f3dd0314c0f7b2291e5b200ac8c7c3b925910160405180910390a3505050565b6001600160a01b0383166105855760405162461bcd60e51b815260206004820152602560248201527f45524332303a207472616e736665722066726f6d20746865207a65726f206164604482015264647265737360d81b60648201526084016103ae565b6001600160a01b0382166105e75760405162461bcd60e51b815260206004820152602360248201527f45524332303a207472616e7366657220746f20746865207a65726f206164647260448201526265737360e81b60648201526084016103ae565b6001600160a01b0383166000908152602081905260409020548181101561065f5760405162461bcd60e51b815260206004820152602660248201527f45524332303a207472616e7366657220616d6f756e7420657863656564732062604482015265616c616e636560d01b60648201526084016103ae565b6001600160a01b0384811660008181526020818152604080832087870390559387168083529184902080548701905592518581529092600080516020610a77833981519152910160405180910390a35b50505050565b60006106c184846103d2565b905060001981146106af578181101561071c5760405162461bcd60e51b815260206004820152601d60248201527f45524332303a20696e73756666696369656e7420616c6c6f77616e636500000060448201526064016103ae565b6106af84848484036103fd565b6001600160a01b03821661077f5760405162461bcd60e51b815260206004820152601f60248201527f45524332303a206d696e7420746f20746865207a65726f20616464726573730060448201526064016103ae565b80600260008282546107919190610a55565b90915550506001600160a01b03821660008181526020818152604080832080548601905551848152600080516020610a77833981519152910160405180910390a35050565b6001600160a01b0382166108365760405162461bcd60e51b815260206004820152602160248201527f45524332303a206275726e2066726f6d20746865207a65726f206164647265736044820152607360f81b60648201526084016103ae565b6001600160a01b038216600090815260208190526040902054818110156108aa5760405162461bcd60e51b815260206004820152602260248201527f45524332303a206275726e20616d6f756e7420657863656564732062616c616e604482015261636560f01b60648201526084016103ae565b6001600160a01b038316600081815260208181526040808320868603905560028054879003905551858152919291600080516020610a77833981519152910160405180910390a3505050565b600060208083528351808285015260005b8181101561092357858101830151858201604001528201610907565b506000604082860101526040601f19601f8301168501019250505092915050565b80356001600160a01b038116811461095b57600080fd5b919050565b6000806040838503121561097357600080fd5b61097c83610944565b946020939093013593505050565b60008060006060848603121561099f57600080fd5b6109a884610944565b92506109b660208501610944565b9150604084013590509250925092565b6000602082840312156109d857600080fd5b6109e182610944565b9392505050565b600080604083850312156109fb57600080fd5b610a0483610944565b9150610a1260208401610944565b90509250929050565b600181811c90821680610a2f57607f821691505b602082108103610a4f57634e487b7160e01b600052602260045260246000fd5b50919050565b808201808211156102b657634e487b7160e01b600052601160045260246000fdfeddf252ad1be2c89b69c2b068fc378daa952ba7f163c4a11628f55a4df523b3efa2646970667358221220efc4b4a4474d94d2a4c0f5431d465be2a607bb62302de6fd2dae6e594df4645e64736f6c63430008110033",
  "linkReferences": {},
  "deployedLinkReferences": {}
}