{
  "_format": "hh-sol-artifact-1",
  "contractName": "StabilityPool",
  "sourceName": "contracts/StabilityPool.sol",
  "abi": [
    {
      "anonymous": false,
      "inputs": [
        {
          "indexed": true,
          "internalType": "address",
          "name": "_depositor",
          "type": "address"
        },
        {
          "indexed": false,
          "internalType": "uint256",
          "name": "_Asset",
          "type": "uint256"
        },
        {
          "indexed": false,
          "internalType": "uint256",
          "name": "_ULoss",
          "type": "uint256"
        }
      ],
      "name": "AssetGainWithdrawn",
      "type": "event"
    },
    {
      "anonymous": false,
      "inputs": [
        {
          "indexed": false,
          "internalType": "address",
          "name": "_to",
          "type": "address"
        },
        {
          "indexed": false,
          "internalType": "uint256",
          "name": "_amount",
          "type": "uint256"
        }
      ],
      "name": "AssetSent",
      "type": "event"
    },
    {
      "anonymous": false,
      "inputs": [
        {
          "indexed": false,
          "internalType": "address",
          "name": "_newBorrowerOperationsAddress",
          "type": "address"
        }
      ],
      "name": "BorrowerOperationsAddressChanged",
      "type": "event"
    },
    {
      "anonymous": false,
      "inputs": [
        {
          "indexed": false,
          "internalType": "address",
          "name": "_newCommunityIssuanceAddress",
          "type": "address"
        }
      ],
      "name": "CommunityIssuanceAddressChanged",
      "type": "event"
    },
    {
      "anonymous": false,
      "inputs": [
        {
          "indexed": false,
          "internalType": "address",
          "name": "_newDefaultPoolAddress",
          "type": "address"
        }
      ],
      "name": "DefaultPoolAddressChanged",
      "type": "event"
    },
    {
      "anonymous": false,
      "inputs": [
        {
          "indexed": true,
          "internalType": "address",
          "name": "_depositor",
          "type": "address"
        },
        {
          "indexed": false,
          "internalType": "uint256",
          "name": "_P",
          "type": "uint256"
        },
        {
          "indexed": false,
          "internalType": "uint256",
          "name": "_S",
          "type": "uint256"
        },
        {
          "indexed": false,
          "internalType": "uint256",
          "name": "_G",
          "type": "uint256"
        }
      ],
      "name": "DepositSnapshotUpdated",
      "type": "event"
    },
    {
      "anonymous": false,
      "inputs": [
        {
          "indexed": false,
          "internalType": "uint128",
          "name": "_currentEpoch",
          "type": "uint128"
        }
      ],
      "name": "EpochUpdated",
      "type": "event"
    },
    {
      "anonymous": false,
      "inputs": [
        {
          "indexed": false,
          "internalType": "uint256",
          "name": "_G",
          "type": "uint256"
        },
        {
          "indexed": false,
          "internalType": "uint128",
          "name": "_epoch",
          "type": "uint128"
        },
        {
          "indexed": false,
          "internalType": "uint128",
          "name": "_scale",
          "type": "uint128"
        }
      ],
      "name": "G_Updated",
      "type": "event"
    },
    {
      "anonymous": false,
      "inputs": [
        {
          "indexed": false,
          "internalType": "uint8",
          "name": "version",
          "type": "uint8"
        }
      ],
      "name": "Initialized",
      "type": "event"
    },
    {
      "anonymous": false,
      "inputs": [
        {
          "indexed": false,
          "internalType": "bool",
          "name": "isPreYOU",
          "type": "bool"
        }
      ],
      "name": "IsPreYOUToggled",
      "type": "event"
    },
    {
      "anonymous": false,
      "inputs": [
        {
          "indexed": true,
          "internalType": "address",
          "name": "previousOwner",
          "type": "address"
        },
        {
          "indexed": true,
          "internalType": "address",
          "name": "newOwner",
          "type": "address"
        }
      ],
      "name": "OwnershipTransferred",
      "type": "event"
    },
    {
      "anonymous": false,
      "inputs": [
        {
          "indexed": false,
          "internalType": "uint256",
          "name": "_P",
          "type": "uint256"
        }
      ],
      "name": "P_Updated",
      "type": "event"
    },
    {
      "anonymous": false,
      "inputs": [
        {
          "indexed": false,
          "internalType": "uint256",
          "name": "_S",
          "type": "uint256"
        },
        {
          "indexed": false,
          "internalType": "uint128",
          "name": "_epoch",
          "type": "uint128"
        },
        {
          "indexed": false,
          "internalType": "uint128",
          "name": "_scale",
          "type": "uint128"
        }
      ],
      "name": "S_Updated",
      "type": "event"
    },
    {
      "anonymous": false,
      "inputs": [
        {
          "indexed": false,
          "internalType": "uint128",
          "name": "_currentScale",
          "type": "uint128"
        }
      ],
      "name": "ScaleUpdated",
      "type": "event"
    },
    {
      "anonymous": false,
      "inputs": [
        {
          "indexed": false,
          "internalType": "address",
          "name": "_newSortedTrovesAddress",
          "type": "address"
        }
      ],
      "name": "SortedTrovesAddressChanged",
      "type": "event"
    },
    {
      "anonymous": false,
      "inputs": [
        {
          "indexed": false,
          "internalType": "uint256",
          "name": "_newBalance",
          "type": "uint256"
        }
      ],
      "name": "StabilityPoolAssetBalanceUpdated",
      "type": "event"
    },
    {
      "anonymous": false,
      "inputs": [
        {
          "indexed": false,
          "internalType": "uint256",
          "name": "_newBalance",
          "type": "uint256"
        }
      ],
      "name": "StabilityPoolUBalanceUpdated",
      "type": "event"
    },
    {
      "anonymous": false,
      "inputs": [
        {
          "indexed": false,
          "internalType": "uint256",
          "name": "_newSystemStake",
          "type": "uint256"
        },
        {
          "indexed": false,
          "internalType": "address",
          "name": "_depositor",
          "type": "address"
        }
      ],
      "name": "StakeChanged",
      "type": "event"
    },
    {
      "anonymous": false,
      "inputs": [
        {
          "indexed": false,
          "internalType": "uint256",
          "name": "_P",
          "type": "uint256"
        },
        {
          "indexed": false,
          "internalType": "uint256",
          "name": "_G",
          "type": "uint256"
        }
      ],
      "name": "SystemSnapshotUpdated",
      "type": "event"
    },
    {
      "anonymous": false,
      "inputs": [
        {
          "indexed": false,
          "internalType": "address",
          "name": "_newTroveManagerAddress",
          "type": "address"
        }
      ],
      "name": "TroveManagerAddressChanged",
      "type": "event"
    },
    {
      "anonymous": false,
      "inputs": [
        {
          "indexed": false,
          "internalType": "address",
          "name": "depositor",
          "type": "address"
        },
        {
          "indexed": false,
          "internalType": "uint256",
          "name": "U",
          "type": "uint256"
        }
      ],
      "name": "UPaidToDepositorPreYOU",
      "type": "event"
    },
    {
      "anonymous": false,
      "inputs": [
        {
          "indexed": false,
          "internalType": "address",
          "name": "_newUTokenAddress",
          "type": "address"
        }
      ],
      "name": "UTokenAddressChanged",
      "type": "event"
    },
    {
      "anonymous": false,
      "inputs": [
        {
          "indexed": true,
          "internalType": "address",
          "name": "_depositor",
          "type": "address"
        },
        {
          "indexed": false,
          "internalType": "uint256",
          "name": "_newDeposit",
          "type": "uint256"
        }
      ],
      "name": "UserDepositChanged",
      "type": "event"
    },
    {
      "anonymous": false,
      "inputs": [
        {
          "indexed": true,
          "internalType": "address",
          "name": "newAddress",
          "type": "address"
        }
      ],
      "name": "VaultParametersBaseChanged",
      "type": "event"
    },
    {
      "anonymous": false,
      "inputs": [
        {
          "indexed": true,
          "internalType": "address",
          "name": "_depositor",
          "type": "address"
        },
        {
          "indexed": false,
          "internalType": "uint256",
          "name": "_YOU",
          "type": "uint256"
        }
      ],
      "name": "YOUPaidToDepositor",
      "type": "event"
    },
    {
      "inputs": [],
      "name": "DECIMAL_PRECISION",
      "outputs": [
        {
          "internalType": "uint256",
          "name": "",
          "type": "uint256"
        }
      ],
      "stateMutability": "view",
      "type": "function"
    },
    {
      "inputs": [],
      "name": "ETH_REF_ADDRESS",
      "outputs": [
        {
          "internalType": "address",
          "name": "",
          "type": "address"
        }
      ],
      "stateMutability": "view",
      "type": "function"
    },
    {
      "inputs": [],
      "name": "NAME",
      "outputs": [
        {
          "internalType": "string",
          "name": "",
          "type": "string"
        }
      ],
      "stateMutability": "view",
      "type": "function"
    },
    {
      "inputs": [],
      "name": "P",
      "outputs": [
        {
          "internalType": "uint256",
          "name": "",
          "type": "uint256"
        }
      ],
      "stateMutability": "view",
      "type": "function"
    },
    {
      "inputs": [],
      "name": "SCALE_FACTOR",
      "outputs": [
        {
          "internalType": "uint256",
          "name": "",
          "type": "uint256"
        }
      ],
      "stateMutability": "view",
      "type": "function"
    },
    {
      "inputs": [],
      "name": "STABILITY_POOL_NAME_BYTES",
      "outputs": [
        {
          "internalType": "bytes32",
          "name": "",
          "type": "bytes32"
        }
      ],
      "stateMutability": "view",
      "type": "function"
    },
    {
      "inputs": [],
      "name": "YOUExchangeRate",
      "outputs": [
        {
          "internalType": "uint256",
          "name": "",
          "type": "uint256"
        }
      ],
      "stateMutability": "view",
      "type": "function"
    },
    {
      "inputs": [],
      "name": "borrowerOperations",
      "outputs": [
        {
          "internalType": "contract IBorrowerOperations",
          "name": "",
          "type": "address"
        }
      ],
      "stateMutability": "view",
      "type": "function"
    },
    {
      "inputs": [],
      "name": "communityIssuance",
      "outputs": [
        {
          "internalType": "contract ICommunityIssuance",
          "name": "",
          "type": "address"
        }
      ],
      "stateMutability": "view",
      "type": "function"
    },
    {
      "inputs": [],
      "name": "currentEpoch",
      "outputs": [
        {
          "internalType": "uint128",
          "name": "",
          "type": "uint128"
        }
      ],
      "stateMutability": "view",
      "type": "function"
    },
    {
      "inputs": [],
      "name": "currentScale",
      "outputs": [
        {
          "internalType": "uint128",
          "name": "",
          "type": "uint128"
        }
      ],
      "stateMutability": "view",
      "type": "function"
    },
    {
      "inputs": [
        {
          "internalType": "address",
          "name": "",
          "type": "address"
        }
      ],
      "name": "depositSnapshots",
      "outputs": [
        {
          "internalType": "uint256",
          "name": "S",
          "type": "uint256"
        },
        {
          "internalType": "uint256",
          "name": "P",
          "type": "uint256"
        },
        {
          "internalType": "uint256",
          "name": "G",
          "type": "uint256"
        },
        {
          "internalType": "uint128",
          "name": "scale",
          "type": "uint128"
        },
        {
          "internalType": "uint128",
          "name": "epoch",
          "type": "uint128"
        }
      ],
      "stateMutability": "view",
      "type": "function"
    },
    {
      "inputs": [
        {
          "internalType": "address",
          "name": "",
          "type": "address"
        }
      ],
      "name": "deposits",
      "outputs": [
        {
          "internalType": "uint256",
          "name": "",
          "type": "uint256"
        }
      ],
      "stateMutability": "view",
      "type": "function"
    },
    {
      "inputs": [
        {
          "internalType": "uint128",
          "name": "",
          "type": "uint128"
        },
        {
          "internalType": "uint128",
          "name": "",
          "type": "uint128"
        }
      ],
      "name": "epochToScaleToG",
      "outputs": [
        {
          "internalType": "uint256",
          "name": "",
          "type": "uint256"
        }
      ],
      "stateMutability": "view",
      "type": "function"
    },
    {
      "inputs": [
        {
          "internalType": "uint128",
          "name": "",
          "type": "uint128"
        },
        {
          "internalType": "uint128",
          "name": "",
          "type": "uint128"
        }
      ],
      "name": "epochToScaleToSum",
      "outputs": [
        {
          "internalType": "uint256",
          "name": "",
          "type": "uint256"
        }
      ],
      "stateMutability": "view",
      "type": "function"
    },
    {
      "inputs": [],
      "name": "getAssetBalance",
      "outputs": [
        {
          "internalType": "uint256",
          "name": "",
          "type": "uint256"
        }
      ],
      "stateMutability": "view",
      "type": "function"
    },
    {
      "inputs": [],
      "name": "getAssetType",
      "outputs": [
        {
          "internalType": "address",
          "name": "",
          "type": "address"
        }
      ],
      "stateMutability": "view",
      "type": "function"
    },
    {
      "inputs": [],
      "name": "getCompoundedTotalStake",
      "outputs": [
        {
          "internalType": "uint256",
          "name": "",
          "type": "uint256"
        }
      ],
      "stateMutability": "view",
      "type": "function"
    },
    {
      "inputs": [
        {
          "internalType": "address",
          "name": "_depositor",
          "type": "address"
        }
      ],
      "name": "getCompoundedUDeposit",
      "outputs": [
        {
          "internalType": "uint256",
          "name": "",
          "type": "uint256"
        }
      ],
      "stateMutability": "view",
      "type": "function"
    },
    {
      "inputs": [
        {
          "internalType": "address",
          "name": "_depositor",
          "type": "address"
        }
      ],
      "name": "getDepositorAssetGain",
      "outputs": [
        {
          "internalType": "uint256",
          "name": "",
          "type": "uint256"
        }
      ],
      "stateMutability": "view",
      "type": "function"
    },
    {
      "inputs": [
        {
          "internalType": "address",
          "name": "_depositor",
          "type": "address"
        }
      ],
      "name": "getDepositorAssetGain1e18",
      "outputs": [
        {
          "internalType": "uint256",
          "name": "",
          "type": "uint256"
        }
      ],
      "stateMutability": "view",
      "type": "function"
    },
    {
      "inputs": [
        {
          "internalType": "address",
          "name": "_depositor",
          "type": "address"
        }
      ],
      "name": "getDepositorYOUGain",
      "outputs": [
        {
          "internalType": "uint256",
          "name": "",
          "type": "uint256"
        }
      ],
      "stateMutability": "view",
      "type": "function"
    },
    {
      "inputs": [
        {
          "internalType": "address",
          "name": "_asset",
          "type": "address"
        }
      ],
      "name": "getEntireSystemColl",
      "outputs": [
        {
          "internalType": "uint256",
          "name": "entireSystemColl",
          "type": "uint256"
        }
      ],
      "stateMutability": "view",
      "type": "function"
    },
    {
      "inputs": [
        {
          "internalType": "address",
          "name": "_asset",
          "type": "address"
        }
      ],
      "name": "getEntireSystemDebt",
      "outputs": [
        {
          "internalType": "uint256",
          "name": "entireSystemDebt",
          "type": "uint256"
        }
      ],
      "stateMutability": "view",
      "type": "function"
    },
    {
      "inputs": [],
      "name": "getNameBytes",
      "outputs": [
        {
          "internalType": "bytes32",
          "name": "",
          "type": "bytes32"
        }
      ],
      "stateMutability": "pure",
      "type": "function"
    },
    {
      "inputs": [],
      "name": "getTotalUDeposits",
      "outputs": [
        {
          "internalType": "uint256",
          "name": "",
          "type": "uint256"
        }
      ],
      "stateMutability": "view",
      "type": "function"
    },
    {
      "inputs": [],
      "name": "isInitialized",
      "outputs": [
        {
          "internalType": "bool",
          "name": "",
          "type": "bool"
        }
      ],
      "stateMutability": "view",
      "type": "function"
    },
    {
      "inputs": [],
      "name": "isPreYOU",
      "outputs": [
        {
          "internalType": "bool",
          "name": "",
          "type": "bool"
        }
      ],
      "stateMutability": "view",
      "type": "function"
    },
    {
      "inputs": [],
      "name": "lastAssetError_Offset",
      "outputs": [
        {
          "internalType": "uint256",
          "name": "",
          "type": "uint256"
        }
      ],
      "stateMutability": "view",
      "type": "function"
    },
    {
      "inputs": [],
      "name": "lastULossError_Offset",
      "outputs": [
        {
          "internalType": "uint256",
          "name": "",
          "type": "uint256"
        }
      ],
      "stateMutability": "view",
      "type": "function"
    },
    {
      "inputs": [],
      "name": "lastYOUError",
      "outputs": [
        {
          "internalType": "uint256",
          "name": "",
          "type": "uint256"
        }
      ],
      "stateMutability": "view",
      "type": "function"
    },
    {
      "inputs": [
        {
          "internalType": "uint256",
          "name": "_debtToOffset",
          "type": "uint256"
        },
        {
          "internalType": "uint256",
          "name": "_collToAdd",
          "type": "uint256"
        }
      ],
      "name": "offset",
      "outputs": [],
      "stateMutability": "nonpayable",
      "type": "function"
    },
    {
      "inputs": [],
      "name": "owner",
      "outputs": [
        {
          "internalType": "address",
          "name": "",
          "type": "address"
        }
      ],
      "stateMutability": "view",
      "type": "function"
    },
    {
      "inputs": [
        {
          "internalType": "uint256",
          "name": "_amount",
          "type": "uint256"
        }
      ],
      "name": "provideToSP",
      "outputs": [],
      "stateMutability": "nonpayable",
      "type": "function"
    },
    {
      "inputs": [
        {
          "internalType": "address",
          "name": "_asset",
          "type": "address"
        },
        {
          "internalType": "uint256",
          "name": "_amount",
          "type": "uint256"
        }
      ],
      "name": "receivedERC20",
      "outputs": [],
      "stateMutability": "nonpayable",
      "type": "function"
    },
    {
      "inputs": [],
      "name": "renounceOwnership",
      "outputs": [],
      "stateMutability": "nonpayable",
      "type": "function"
    },
    {
      "inputs": [
        {
          "internalType": "address",
          "name": "_assetAddress",
          "type": "address"
        },
        {
          "internalType": "address",
          "name": "_borrowerOperationsAddress",
          "type": "address"
        },
        {
          "internalType": "address",
          "name": "_troveManagerAddress",
          "type": "address"
        },
        {
          "internalType": "address",
          "name": "_uTokenAddress",
          "type": "address"
        },
        {
          "internalType": "address",
          "name": "_sortedTrovesAddress",
          "type": "address"
        },
        {
          "internalType": "address",
          "name": "_communityIssuanceAddress",
          "type": "address"
        },
        {
          "internalType": "address",
          "name": "_vestaParamsAddress",
          "type": "address"
        },
        {
          "internalType": "uint256",
          "name": "_YOUExchangeRate",
          "type": "uint256"
        }
      ],
      "name": "setAddresses",
      "outputs": [],
      "stateMutability": "nonpayable",
      "type": "function"
    },
    {
      "inputs": [
        {
          "internalType": "address",
          "name": "_vaultParams",
          "type": "address"
        }
      ],
      "name": "setVestaParameters",
      "outputs": [],
      "stateMutability": "nonpayable",
      "type": "function"
    },
    {
      "inputs": [],
      "name": "sortedTroves",
      "outputs": [
        {
          "internalType": "contract ISortedTroves",
          "name": "",
          "type": "address"
        }
      ],
      "stateMutability": "view",
      "type": "function"
    },
    {
      "inputs": [],
      "name": "systemSnapshots",
      "outputs": [
        {
          "internalType": "uint256",
          "name": "S",
          "type": "uint256"
        },
        {
          "internalType": "uint256",
          "name": "P",
          "type": "uint256"
        },
        {
          "internalType": "uint256",
          "name": "G",
          "type": "uint256"
        },
        {
          "internalType": "uint128",
          "name": "scale",
          "type": "uint128"
        },
        {
          "internalType": "uint128",
          "name": "epoch",
          "type": "uint128"
        }
      ],
      "stateMutability": "view",
      "type": "function"
    },
    {
      "inputs": [],
      "name": "togglePreYOU",
      "outputs": [],
      "stateMutability": "nonpayable",
      "type": "function"
    },
    {
      "inputs": [],
      "name": "totalStakes",
      "outputs": [
        {
          "internalType": "uint256",
          "name": "",
          "type": "uint256"
        }
      ],
      "stateMutability": "view",
      "type": "function"
    },
    {
      "inputs": [
        {
          "internalType": "address",
          "name": "newOwner",
          "type": "address"
        }
      ],
      "name": "transferOwnership",
      "outputs": [],
      "stateMutability": "nonpayable",
      "type": "function"
    },
    {
      "inputs": [],
      "name": "troveManager",
      "outputs": [
        {
          "internalType": "contract ITroveManager",
          "name": "",
          "type": "address"
        }
      ],
      "stateMutability": "view",
      "type": "function"
    },
    {
      "inputs": [],
      "name": "uToken",
      "outputs": [
        {
          "internalType": "contract IUToken",
          "name": "",
          "type": "address"
        }
      ],
      "stateMutability": "view",
      "type": "function"
    },
    {
      "inputs": [],
      "name": "vestaParams",
      "outputs": [
        {
          "internalType": "contract IVestaParameters",
          "name": "",
          "type": "address"
        }
      ],
      "stateMutability": "view",
      "type": "function"
    },
    {
      "inputs": [
        {
          "internalType": "address",
          "name": "_upperHint",
          "type": "address"
        },
        {
          "internalType": "address",
          "name": "_lowerHint",
          "type": "address"
        }
      ],
      "name": "withdrawAssetGainToTrove",
      "outputs": [],
      "stateMutability": "nonpayable",
      "type": "function"
    },
    {
      "inputs": [
        {
          "internalType": "uint256",
          "name": "_amount",
          "type": "uint256"
        }
      ],
      "name": "withdrawFromSP",
      "outputs": [],
      "stateMutability": "nonpayable",
      "type": "function"
    },
    {
      "inputs": [],
      "name": "wstETH",
      "outputs": [
        {
          "internalType": "address",
          "name": "",
          "type": "address"
        }
      ],
      "stateMutability": "view",
      "type": "function"
    },
    {
      "stateMutability": "payable",
      "type": "receive"
    }
  ],
  "bytecode": "0x608060405234801561001057600080fd5b50613cdb806100206000396000f3fe6080604052600436106102325760003560e01c80630fe3e1b71461027957806313db1c37146102ac578063183b3159146102c25780631de64283146102d757806327d04b35146102ec57806328a0a04d1461030c5780632e30c4ff146103445780632e54bf9514610366578063335525ad146103865780633470a4a2146103a6578063392e53cd146103c75780633d83908a146103f15780634634bb1a1461041e5780634aa07e641461043e5780635cc4d1481461045e578063633156371461047e578063715018a61461049e57806372141e63146104b357806376671808146104c857806377553ad4146104fc57806378c77a241461051c5780638060e0c81461053c57806382e0a5741461055257806386da08241461058a578063896317b8146106145780638ac89d04146106325780638b8fbd92146106475780638da5cb5b1461065d57806391962d0d14610672578063923032571461069157806395fb16bb146106a65780639e86d0c4146106c6578063a20baee6146106e6578063a3f4df7e14610702578063a4e59ac814610748578063a8e10e3914610768578063ab1352491461078a578063ae918754146107a0578063ba22f7cb146107c0578063bf9befb1146107e0578063c2eeb958146107f6578063c7cb317314610816578063ce4b5bbe14610836578063e3c8d67a1461084e578063eb16f00414610864578063f2fde38b14610884578063f7a22d80146108a4578063f8832ae3146108c4578063fc7e286d146108fb57600080fd5b366102745761023f610928565b606c5461024c9034610a16565b606c819055604051908152600080516020613b668339815191529060200160405180910390a1005b600080fd5b34801561028557600080fd5b506102996102943660046135e3565b610a2b565b6040519081526020015b60405180910390f35b3480156102b857600080fd5b5061029960795481565b3480156102ce57600080fd5b50606c54610299565b3480156102e357600080fd5b50610299610aca565b3480156102f857600080fd5b506102996103073660046135e3565b610b32565b34801561031857600080fd5b5061029961032736600461361c565b607760209081526000928352604080842090915290825290205481565b34801561035057600080fd5b5061036461035f36600461364f565b610d0b565b005b34801561037257600080fd5b506103646103813660046136ef565b61107c565b34801561039257600080fd5b506103646103a1366004613708565b6111dc565b3480156103b257600080fd5b50600080516020613c06833981519152610299565b3480156103d357600080fd5b50607c546103e19060ff1681565b60405190151581526020016102a3565b3480156103fd57600080fd5b50606754610411906001600160a01b031681565b6040516102a3919061372a565b34801561042a57600080fd5b506102996104393660046135e3565b61123e565b34801561044a57600080fd5b50600054610411906001600160a01b031681565b34801561046a57600080fd5b506103646104793660046135e3565b6112dd565b34801561048a57600080fd5b50606854610411906001600160a01b031681565b3480156104aa57600080fd5b5061036461132f565b3480156104bf57600080fd5b50610411600081565b3480156104d457600080fd5b506076546104ef90600160801b90046001600160801b031681565b6040516102a3919061373e565b34801561050857600080fd5b50606654610411906001600160a01b031681565b34801561052857600080fd5b506103646105373660046136ef565b611341565b34801561054857600080fd5b50610299607d5481565b34801561055e57600080fd5b5061029961056d36600461361c565b607860209081526000928352604080842090915290825290205481565b34801561059657600080fd5b506105e06105a53660046135e3565b606f602052600090815260409020805460018201546002830154600390930154919290916001600160801b0380821691600160801b90041685565b604080519586526020860194909452928401919091526001600160801b03908116606084015216608082015260a0016102a3565b34801561062057600080fd5b50606b546001600160a01b0316610411565b34801561063e57600080fd5b50610364611484565b34801561065357600080fd5b5061029960755481565b34801561066957600080fd5b506104116114ee565b34801561067e57600080fd5b50607c546103e190610100900460ff1681565b34801561069d57600080fd5b50606d54610299565b3480156106b257600080fd5b50606a54610411906001600160a01b031681565b3480156106d257600080fd5b506102996106e13660046135e3565b6114fd565b3480156106f257600080fd5b50610299670de0b6b3a764000081565b34801561070e57600080fd5b5061073b6040518060400160405280600d81526020016c14dd18589a5b1a5d1e541bdbdb609a1b81525081565b6040516102a39190613776565b34801561075457600080fd5b506076546104ef906001600160801b031681565b34801561077457600080fd5b50610299600080516020613c0683398151915281565b34801561079657600080fd5b50610299607a5481565b3480156107ac57600080fd5b50606954610411906001600160a01b031681565b3480156107cc57600080fd5b506102996107db3660046135e3565b611689565b3480156107ec57600080fd5b5061029960705481565b34801561080257600080fd5b506103646108113660046137a9565b611730565b34801561082257600080fd5b506102996108313660046135e3565b611940565b34801561084257600080fd5b50610299633b9aca0081565b34801561085a57600080fd5b50610299607b5481565b34801561087057600080fd5b5061036461087f3660046137e2565b6119d7565b34801561089057600080fd5b5061036461089f3660046135e3565b611a99565b3480156108b057600080fd5b50606554610411906001600160a01b031681565b3480156108d057600080fd5b506071546072546073546074546105e0939291906001600160801b0380821691600160801b90041685565b34801561090757600080fd5b506102996109163660046135e3565b606e6020526000908152604090205481565b606560009054906101000a90046001600160a01b03166001600160a01b0316637f7dde4a6040518163ffffffff1660e01b8152600401602060405180830381865afa15801561097b573d6000803e3d6000fd5b505050506040513d601f19601f8201168201806040525081019061099f919061380e565b6001600160a01b0316336001600160a01b031614610a145760405162461bcd60e51b815260206004820152602760248201527f53746162696c697479506f6f6c3a2043616c6c6572206973206e6f74204163746044820152661a5d99541bdbdb60ca1b60648201526084015b60405180910390fd5b565b6000610a228284613841565b90505b92915050565b6001600160a01b0381166000908152606e6020526040812054808203610a545750600092915050565b6001600160a01b0383166000908152606f6020908152604091829020825160a081018452815481526001820154928101929092526002810154928201929092526003909101546001600160801b038082166060840152600160801b909104166080820152610ac28282611b12565b949350505050565b607054600090808203610adf57600091505090565b6040805160a08101825260715481526072546020820152607354918101919091526074546001600160801b038082166060840152600160801b909104166080820152610b2c908290611beb565b91505090565b600080606560009054906101000a90046001600160a01b03166001600160a01b0316637f7dde4a6040518163ffffffff1660e01b8152600401602060405180830381865afa158015610b88573d6000803e3d6000fd5b505050506040513d601f19601f82011682018060405250810190610bac919061380e565b6001600160a01b031663631a53d4846040518263ffffffff1660e01b8152600401610bd7919061372a565b602060405180830381865afa158015610bf4573d6000803e3d6000fd5b505050506040513d601f19601f82011682018060405250810190610c189190613854565b90506000606560009054906101000a90046001600160a01b03166001600160a01b0316633cc742256040518163ffffffff1660e01b8152600401602060405180830381865afa158015610c6f573d6000803e3d6000fd5b505050506040513d601f19601f82011682018060405250810190610c93919061380e565b6001600160a01b031663631a53d4856040518263ffffffff1660e01b8152600401610cbe919061372a565b602060405180830381865afa158015610cdb573d6000803e3d6000fd5b505050506040513d601f19601f82011682018060405250810190610cff9190613854565b9050610ac28282610a16565b600054600160a81b900460ff1615808015610d3357506000546001600160a01b90910460ff16105b80610d5b5750610d4230611cdd565b158015610d5b5750600054600160a01b900460ff166001145b610dbe5760405162461bcd60e51b815260206004820152602e60248201527f496e697469616c697a61626c653a20636f6e747261637420697320616c72656160448201526d191e481a5b9a5d1a585b1a5e995960921b6064820152608401610a0b565b6000805460ff60a01b1916600160a01b1790558015610deb576000805460ff60a81b1916600160a81b1790555b607c5460ff1615610e345760405162461bcd60e51b8152602060048201526013602482015272105b1c9958591e481a5b9a5d1a585b1a5e9959606a1b6044820152606401610a0b565b610e3d88611cec565b610e4687611cec565b610e4f86611cec565b610e5885611cec565b610e6184611cec565b610e6a83611cec565b607c805461ffff1916610101179055607d829055610e86611d91565b6001600160a01b03891615610e9e57610e9e89611cec565b606b80546001600160a01b03199081166001600160a01b038c8116919091179092556066805482168b84161790556067805482168a8416179055606880548216898416179055606980548216888416179055606a8054909116918616919091179055610f09836112dd565b670de0b6b3a76400006075556040517f3ca631ffcd2a9b5d9ae18543fc82f58eb4ca33af9e6ab01b7a8e95331e6ed98590610f45908a9061372a565b60405180910390a17f143219c9e69b09e07e095fcc889b43d8f46ca892bba65f08dc3a0050869a567887604051610f7c919061372a565b60405180910390a17fffbb094c9e44d0e86f5ef0b73fc5fd37eb0b9f00e5d56a3e5a591c1f63ae937886604051610fb3919061372a565b60405180910390a17f65f4cf077bc01e4742eb5ad98326f6e95b63548ea24b17f8d5e823111fe7880085604051610fea919061372a565b60405180910390a17f3055265812fb8447b9ada4a5d804ec43bd528ec40e89c952bbc7b85dc5ac681184604051611021919061372a565b60405180910390a18015611071576000805460ff60a81b19169055604051600181527f7f26b83ff96e1f2b6a682f133852f6798a09c465da95921460cefb38474024989060200160405180910390a15b505050505050505050565b801561108a5761108a611dc2565b336000908152606e60205260409020546110a38161209d565b606a546001600160a01b03166110b881612106565b60006110c333611689565b905060006110d033610a2b565b905060006110dd3361123e565b905060006110eb8783612177565b905060006110f9878461218d565b90506111058633612199565b600061110f610aca565b9050600061111d828561218d565b905061112881612354565b600080516020613c86833981519152813360405161114792919061386d565b60405180910390a161115933856123ea565b6000611165868661218d565b90506111713382612465565b6040518181523390600080516020613be68339815191529060200160405180910390a2336001600160a01b0316600080516020613c6683398151915289866040516111bd929190613884565b60405180910390a26111cf8888612598565b5050505050505050505050565b6111e46126cb565b606d548015806111f2575082155b156111fc57505050565b606a54611211906001600160a01b0316612106565b60008061121f848685612737565b9150915061122d8282612805565b6112378486612abb565b5050505050565b6001600160a01b0381166000908152606e60205260408120548082036112675750600092915050565b6001600160a01b0383166000908152606f6020908152604091829020825160a081018452815481526001820154928101929092526002810154928201929092526003909101546001600160801b038082166060840152600160801b9091041660808201526112d6908290611beb565b9392505050565b6112e5612c68565b606580546001600160a01b0319166001600160a01b0383169081179091556040517f98c5e303d085e26fdf8af6a41184b0937ed01142ae7fdfa02dcc87e7079c325390600090a250565b611337612c68565b610a146000612cc7565b61134a81612d19565b336000908152606e6020526040902054606a546001600160a01b031661136f81612106565b600061137a33611689565b9050600061138733610a2b565b905060006113943361123e565b905060006113a2868361218d565b90506113ae8533612199565b60006113b8610aca565b905060006113c6828a610a16565b90506113d181612354565b600080516020613c8683398151915281336040516113f092919061386d565b60405180910390a1611402338a612d78565b600061140e858b610a16565b905061141a3382612465565b6040518181523390600080516020613be68339815191529060200160405180910390a2336001600160a01b0316600080516020613c668339815191528886604051611466929190613884565b60405180910390a26114788787612598565b50505050505050505050565b61148c612c68565b607c805460ff610100808304821615810261ff001990931692909217928390556040517fb9f685b05f86f188fb8b7d7faaa088d1ae7e38218c7ee9d6533477f37560f875936114e49390049091161515815260200190565b60405180910390a1565b6033546001600160a01b031690565b600080606560009054906101000a90046001600160a01b03166001600160a01b0316637f7dde4a6040518163ffffffff1660e01b8152600401602060405180830381865afa158015611553573d6000803e3d6000fd5b505050506040513d601f19601f82011682018060405250810190611577919061380e565b6001600160a01b0316635373433f846040518263ffffffff1660e01b81526004016115a2919061372a565b602060405180830381865afa1580156115bf573d6000803e3d6000fd5b505050506040513d601f19601f820116820180604052508101906115e39190613854565b90506000606560009054906101000a90046001600160a01b03166001600160a01b0316633cc742256040518163ffffffff1660e01b8152600401602060405180830381865afa15801561163a573d6000803e3d6000fd5b505050506040513d601f19601f8201168201806040525081019061165e919061380e565b6001600160a01b0316635373433f856040518263ffffffff1660e01b8152600401610cbe919061372a565b6001600160a01b0381166000908152606e60205260408120548082036116b25750600092915050565b6001600160a01b038084166000908152606f6020908152604091829020825160a081018452815481526001820154928101929092526002810154928201929092526003909101546001600160801b038082166060840152600160801b909104166080820152606b549091610ac2911661172b8484611b12565b612e14565b336000908152606e60205260409020546117498161209d565b61175233612edd565b61175b33612fc9565b606a546001600160a01b031661177081612106565b600061177b33610a2b565b905060006117883361123e565b90506000611796858361218d565b90506117a28433612199565b60006117ac610aca565b90506117b781612354565b600080516020613c8683398151915281336040516117d692919061386d565b60405180910390a16117e83384612465565b336001600160a01b0316600080516020613c668339815191528584604051611811929190613884565b60405180910390a26040518381523390600080516020613be68339815191529060200160405180910390a2606c54611849908561218d565b606c819055604051908152600080516020613b668339815191529060200160405180910390a1600080516020613ba6833981519152338560405161188e929190613892565b60405180910390a1606654606b546001600160a01b039182169163501414f59116156118bb5760006118bd565b855b606b5460405160e084901b6001600160e01b03191681526001600160a01b039182166004820152602481018990523360448201528c82166064820152908b16608482015260a4016000604051808303818588803b15801561191d57600080fd5b505af1158015611931573d6000803e3d6000fd5b50505050505050505050505050565b6001600160a01b0381166000908152606e60205260408120548082036119695750600092915050565b6001600160a01b0383166000908152606f6020908152604091829020825160a081018452815481526001820154928101929092526002810154928201929092526003909101546001600160801b038082166060840152600160801b909104166080820152610ac2828261302e565b6119df610928565b606b546001600160a01b03838116911614611a4f5760405162461bcd60e51b815260206004820152602a60248201527f526563656976696e67207468652077726f6e6720617373657420696e20537461604482015269189a5b1a5d1e541bdbdb60b21b6064820152608401610a0b565b606b546001600160a01b031615611a9557606c54611a6d9082610a16565b606c819055604051908152600080516020613b66833981519152906020015b60405180910390a15b5050565b611aa1612c68565b6001600160a01b038116611b065760405162461bcd60e51b815260206004820152602660248201527f4f776e61626c653a206e6577206f776e657220697320746865207a65726f206160448201526564647265737360d01b6064820152608401610a0b565b611b0f81612cc7565b50565b6080810151606082015182516020808501516001600160801b03808616600090815260778452604080822092871682529190935282205491949392918590611b5a908461218d565b6001600160801b03808716600090815260776020526040812092935091611bb191633b9aca0091908490611b91908a1660016130aa565b6001600160801b0316815260208101919091526040016000205490613127565b90506000611bdd670de0b6b3a7640000611bd78681611bd08888610a16565b8f90613133565b90613127565b9a9950505050505050505050565b6020810151606082015160808301516076546000939291906001600160801b03600160801b90910481169082161015611c2a5760009350505050610a25565b6076546000908190611c45906001600160801b03168561313f565b9050806001600160801b0316600003611c7857611c7185611bd76075548b61313390919063ffffffff16565b9150611caf565b806001600160801b0316600103611caa57611c71633b9aca00611bd787611bd76075548d61313390919063ffffffff16565b600091505b611cbd88633b9aca00613127565b821015611cd257600095505050505050610a25565b509695505050505050565b6001600160a01b03163b151590565b6001600160a01b038116611d425760405162461bcd60e51b815260206004820152601e60248201527f4163636f756e742063616e6e6f74206265207a65726f206164647265737300006044820152606401610a0b565b803b80611a955760405162461bcd60e51b815260206004820181905260248201527f4163636f756e7420636f64652073697a652063616e6e6f74206265207a65726f6044820152606401610a0b565b600054600160a81b900460ff16611dba5760405162461bcd60e51b8152600401610a0b906138ab565b610a146131be565b60655460408051633a0df78d60e11b815290516000926001600160a01b03169163741bef1a9160048083019260209291908290030181865afa158015611e0c573d6000803e3d6000fd5b505050506040513d601f19601f82011682018060405250810190611e30919061380e565b606b54604051635670bcc760e11b81526001600160a01b039283169263ace1798e92611e619291169060040161372a565b6020604051808303816000875af1158015611e80573d6000803e3d6000fd5b505050506040513d601f19601f82011682018060405250810190611ea49190613854565b606954606b54604051637608271560e01b81529293506000926001600160a01b0392831692637608271592611ede9291169060040161372a565b602060405180830381865afa158015611efb573d6000803e3d6000fd5b505050506040513d601f19601f82011682018060405250810190611f1f919061380e565b606754606b5460405163b1eafaab60e01b81529293506000926001600160a01b039283169263b1eafaab92611f5d92911690869088906004016138f6565b602060405180830381865afa158015611f7a573d6000803e3d6000fd5b505050506040513d601f19601f82011682018060405250810190611f9e9190613854565b606554606b546040516305f8cff960e01b81529293506001600160a01b03918216926305f8cff992611fd492169060040161372a565b602060405180830381865afa158015611ff1573d6000803e3d6000fd5b505050506040513d601f19601f820116820180604052508101906120159190613854565b8110156120985760405162461bcd60e51b8152602060048201526044602482018190527f53746162696c697479506f6f6c3a2043616e6e6f742077697468647261772077908201527f68696c65207468657265206172652074726f766573207769746820494352203c6064820152631026a1a960e11b608482015260a401610a0b565b505050565b60008111611b0f5760405162461bcd60e51b815260206004820152603060248201527f53746162696c697479506f6f6c3a2055736572206d757374206861766520612060448201526f1b9bdb8b5e995c9bc819195c1bdcda5d60821b6064820152608401610a0b565b6000816001600160a01b031663a2f126f06040518163ffffffff1660e01b81526004016020604051808303816000875af1158015612148573d6000803e3d6000fd5b505050506040513d601f19601f8201168201806040525081019061216c9190613854565b9050611a95816131f0565b60008183106121865781610a22565b5090919050565b6000610a22828461391a565b60006121a482611940565b607c54909150610100900460ff16156122ac57606854607d546001600160a01b039091169063a9059cbb9084906121e385670de0b6b3a764000061392d565b6121ed9190613944565b6040518363ffffffff1660e01b815260040161220a929190613892565b6020604051808303816000875af1158015612229573d6000803e3d6000fd5b505050506040513d601f19601f8201168201806040525081019061224d9190613966565b507fe160dfcb2380169c057c54be3cff79a2910c3d3f1d7b2ec1ae4c44bcfc660af482607d5483670de0b6b3a7640000612287919061392d565b6122919190613944565b60405161229f929190613892565b60405180910390a1505050565b6040516373d6939160e01b81526001600160a01b038416906373d69391906122da9085908590600401613892565b600060405180830381600087803b1580156122f457600080fd5b505af1158015612308573d6000803e3d6000fd5b50505050816001600160a01b03167fa867fd6c2d9c2e2ab8b79962b9743e5f2766510bac947b4ad8b904765c372d688260405161234791815260200190565b60405180910390a2505050565b60708190556076546075546001600160801b03600160801b8084048216600081815260786020908152604080832095909716808352949052859020546072859055607381905591810283176074559351607194929391907fb9388978b54026c51c20e3972ba5ed79bca3fc98beb4d005b4ae633b14db9718906123da9084908490613884565b60405180910390a1505050505050565b806000036123f6575050565b606854604051631062c15f60e11b81526001600160a01b03909116906320c582be9061242a903090869086906004016138f6565b600060405180830381600087803b15801561244457600080fd5b505af1158015612458573d6000803e3d6000fd5b50505050611a95816132f9565b6001600160a01b0382166000908152606e602052604081208290558190036124e1576001600160a01b0382166000818152606f6020526040808220828155600181018390556002810183905560030182905551600080516020613b86833981519152916124d59181908190613988565b60405180910390a25050565b6076546075546001600160801b03600160801b808404821660008181526077602090815260408083209590971680835294815286822054838352607882528783208684528252878320546001600160a01b038b16808552606f909352928890206001810188905581815560028101849055948402861760038601559651949692959492939192600080516020613b868339815191529061258690879087908790613988565b60405180910390a25050505050505050565b816000036125a4575050565b606c546125b1908261218d565b606c55606b546001600160a01b031661266c57604051600090339083908381818185875af1925050503d8060008114612606576040519150601f19603f3d011682016040523d82523d6000602084013e61260b565b606091505b50509050806126665760405162461bcd60e51b815260206004820152602160248201527f53746162696c697479506f6f6c3a2073656e64696e6720455448206661696c656044820152601960fa1b6064820152608401610a0b565b50612683565b606b54612683906001600160a01b0316338461332f565b600080516020613b66833981519152606c546040516126a491815260200190565b60405180910390a1600080516020613ba68339815191523383604051611a8c929190613892565b6067546001600160a01b03163314610a145760405162461bcd60e51b815260206004820152602960248201527f53746162696c697479506f6f6c3a2043616c6c6572206973206e6f742054726f6044820152683b32a6b0b730b3b2b960b91b6064820152608401610a0b565b6000806000612763607a5461275d670de0b6b3a76400008961313390919063ffffffff16565b90610a16565b9050838511156127755761277561399e565b838503612791576000607b55670de0b6b3a764000091506127d9565b607b546000906127b3906127ad88670de0b6b3a7640000613133565b9061218d565b90506127c4600161275d8388613127565b92506127d4816127ad8588613133565b607b55505b6127e38185613127565b92506127f96127f28486613133565b829061218d565b607a5550935093915050565b6075546000670de0b6b3a76400008311156128225761282261399e565b6000612836670de0b6b3a76400008561218d565b6076546001600160801b03600160801b82048116600081815260776020908152604080832094909516808352939052928320549394509092909161287a8988613133565b905060006128888383610a16565b6001600160801b038086166000908152607760209081526040808320938a168352929052819020829055519091507fe12e2cd2c9afa8069203ca07e7eff1edce4a075686d0736a8e7e0d593597b207906128e7908390879089906139b4565b60405180910390a1856000036129ab5761290b6001600160801b03851660016130aa565b607680546001600160801b03908116600160801b938216840217918290556040517fb50f0f59e7cb5b421dc77581c3a9919e3806e076e5fa78a874c3f120cb7d874d9361295c93049091169061373e565b60405180910390a1607680546001600160801b0319169055604051600080516020613c46833981519152906129939060009061373e565b60405180910390a1670de0b6b3a76400009650612a67565b633b9aca006129c6670de0b6b3a7640000611bd78b8a613133565b1015612a4e576129f0670de0b6b3a7640000611bd7633b9aca006129ea8c8b613133565b90613133565b9650612a066001600160801b03861660016130aa565b607680546001600160801b0319166001600160801b03929092169182179055604051600080516020613c4683398151915291612a419161373e565b60405180910390a1612a67565b612a64670de0b6b3a7640000611bd78a89613133565b96505b60008711612a7757612a7761399e565b60758790556040518781527fc1a9618cb59ebca77cbdbc2949f126823c407ff13edb285fd0262519a9c18e8c9060200160405180910390a150505050505050505050565b60655460408051633fbeef2560e11b815290516000926001600160a01b031691637f7dde4a9160048083019260209291908290030181865afa158015612b05573d6000803e3d6000fd5b505050506040513d601f19601f82011682018060405250810190612b29919061380e565b606b54604051631197fc7160e01b81529192506001600160a01b0380841692631197fc7192612b5e9216908690600401613892565b600060405180830381600087803b158015612b7857600080fd5b505af1158015612b8c573d6000803e3d6000fd5b50505050612b99826132f9565b606854604051632770a7eb60e21b81526001600160a01b0390911690639dc29fac90612bcb9030908690600401613892565b600060405180830381600087803b158015612be557600080fd5b505af1158015612bf9573d6000803e3d6000fd5b5050606b546040516347878f1560e01b81526001600160a01b0380861694506347878f159350612c31921690309088906004016138f6565b600060405180830381600087803b158015612c4b57600080fd5b505af1158015612c5f573d6000803e3d6000fd5b50505050505050565b33612c716114ee565b6001600160a01b031614610a145760405162461bcd60e51b815260206004820181905260248201527f4f776e61626c653a2063616c6c6572206973206e6f7420746865206f776e65726044820152606401610a0b565b603380546001600160a01b038381166001600160a01b0319831681179093556040519116919082907f8be0079c531659141344cd1fd0a4f28419497f9722a3daafe3b4186f6b6457e090600090a35050565b60008111611b0f5760405162461bcd60e51b815260206004820152602660248201527f53746162696c697479506f6f6c3a20416d6f756e74206d757374206265206e6f6044820152656e2d7a65726f60d01b6064820152608401610a0b565b606854604051632ee65eeb60e21b81526001600160a01b039091169063bb997bac90612dac908590309086906004016138f6565b600060405180830381600087803b158015612dc657600080fd5b505af1158015612dda573d6000803e3d6000fd5b5050606d5460009250612dee915083610a16565b606d819055604051818152909150600080516020613bc68339815191529060200161229f565b60006001600160a01b038316612e2b575080610a25565b81600003612e3b57506000610a25565b6000836001600160a01b031663313ce5676040518163ffffffff1660e01b8152600401602060405180830381865afa158015612e7b573d6000803e3d6000fd5b505050506040513d601f19601f82011682018060405250810190612e9f91906139d3565b905060128160ff161015612ed557612ecd612ebb8260126139f6565b612ec690600a613af3565b8490613127565b915050610a25565b509092915050565b606754606b5460405163614d120960e01b81526001600160a01b039182166004820152838216602482015291169063614d120990604401602060405180830381865afa158015612f31573d6000803e3d6000fd5b505050506040513d601f19601f82011682018060405250810190612f559190613854565b600114611b0f5760405162461bcd60e51b81526020600482015260486024820152600080516020613c2683398151915260448201527f616e206163746976652074726f766520746f2077697468647261772041737365606482015267744761696e20746f60c01b608482015260a401610a0b565b6000612fd482611689565b905060008111611a955760405162461bcd60e51b81526020600482015260316024820152600080516020613c268339815191526044820152703737b716bd32b9379022aa241023b0b4b760791b6064820152608401610a0b565b608081015160608201516040808401516020808601516001600160801b03808716600090815260788452858120918716815292529281205490949392908590613077908461218d565b6001600160801b03808716600090815260786020526040812092935091611bb191633b9aca0091908490611b91908a1660015b6000806130b78385613b02565b9050836001600160801b0316816001600160801b03161015610a225760405162461bcd60e51b815260206004820152602360248201527f5665737461536166654d6174683132383a206164646974696f6e206f766572666044820152626c6f7760e81b6064820152608401610a0b565b6000610a228284613944565b6000610a22828461392d565b6000826001600160801b0316826001600160801b031611156131b25760405162461bcd60e51b815260206004820152602660248201527f5665737461536166654d6174683132383a207375627472616374696f6e206f766044820152656572666c6f7760d01b6064820152608401610a0b565b6000610ac28385613b29565b600054600160a81b900460ff166131e75760405162461bcd60e51b8152600401610a0b906138ab565b610a1433612cc7565b606d548015806131fe575081155b15613207575050565b60006132138383613385565b9050600061322c6075548361313390919063ffffffff16565b6076546001600160801b03600160801b82048116600090815260786020908152604080832093909416825291909152205490915061326a9082610a16565b607680546001600160801b03600160801b80830482166000908152607860208181526040808420968616845295815285832097909755945491820483168082529486528381209190921680835294528190205490517f2d6127771b164a9cc8827d24b5955db2a77e7a81dac389107ebb8bce9fb64968936132eb93916139b4565b60405180910390a150505050565b606d54600090613309908361218d565b606d819055604051818152909150600080516020613bc683398151915290602001611a8c565b6120988363a9059cbb60e01b848460405160240161334e929190613892565b60408051601f198184030181529190526020810180516001600160e01b03166001600160e01b0319909316929092179091526133d8565b6000806133a960795461275d670de0b6b3a76400008761313390919063ffffffff16565b905060006133b78285613127565b90506133cd6133c68286613133565b839061218d565b607955949350505050565b600061342d826040518060400160405280602081526020017f5361666545524332303a206c6f772d6c6576656c2063616c6c206661696c6564815250856001600160a01b03166134ad9092919063ffffffff16565b905080516000148061344e57508080602001905181019061344e9190613966565b6120985760405162461bcd60e51b815260206004820152602a60248201527f5361666545524332303a204552433230206f7065726174696f6e20646964206e6044820152691bdd081cdd58d8d9595960b21b6064820152608401610a0b565b6060610ac2848460008585600080866001600160a01b031685876040516134d49190613b49565b60006040518083038185875af1925050503d8060008114613511576040519150601f19603f3d011682016040523d82523d6000602084013e613516565b606091505b509150915061352787838387613532565b979650505050505050565b6060831561359f5782516000036135985761354c85611cdd565b6135985760405162461bcd60e51b815260206004820152601d60248201527f416464726573733a2063616c6c20746f206e6f6e2d636f6e74726163740000006044820152606401610a0b565b5081610ac2565b610ac283838151156135b45781518083602001fd5b8060405162461bcd60e51b8152600401610a0b9190613776565b6001600160a01b0381168114611b0f57600080fd5b6000602082840312156135f557600080fd5b8135610a22816135ce565b80356001600160801b038116811461361757600080fd5b919050565b6000806040838503121561362f57600080fd5b61363883613600565b915061364660208401613600565b90509250929050565b600080600080600080600080610100898b03121561366c57600080fd5b8835613677816135ce565b97506020890135613687816135ce565b96506040890135613697816135ce565b955060608901356136a7816135ce565b945060808901356136b7816135ce565b935060a08901356136c7816135ce565b925060c08901356136d7816135ce565b8092505060e089013590509295985092959890939650565b60006020828403121561370157600080fd5b5035919050565b6000806040838503121561371b57600080fd5b50508035926020909101359150565b6001600160a01b0391909116815260200190565b6001600160801b0391909116815260200190565b60005b8381101561376d578181015183820152602001613755565b50506000910152565b6020815260008251806020840152613795816040850160208701613752565b601f01601f19169190910160400192915050565b600080604083850312156137bc57600080fd5b82356137c7816135ce565b915060208301356137d7816135ce565b809150509250929050565b600080604083850312156137f557600080fd5b8235613800816135ce565b946020939093013593505050565b60006020828403121561382057600080fd5b8151610a22816135ce565b634e487b7160e01b600052601160045260246000fd5b80820180821115610a2557610a2561382b565b60006020828403121561386657600080fd5b5051919050565b9182526001600160a01b0316602082015260400190565b918252602082015260400190565b6001600160a01b03929092168252602082015260400190565b6020808252602b908201527f496e697469616c697a61626c653a20636f6e7472616374206973206e6f74206960408201526a6e697469616c697a696e6760a81b606082015260800190565b6001600160a01b039384168152919092166020820152604081019190915260600190565b81810381811115610a2557610a2561382b565b8082028115828204841417610a2557610a2561382b565b60008261396157634e487b7160e01b600052601260045260246000fd5b500490565b60006020828403121561397857600080fd5b81518015158114610a2257600080fd5b9283526020830191909152604082015260600190565b634e487b7160e01b600052600160045260246000fd5b9283526001600160801b03918216602084015216604082015260600190565b6000602082840312156139e557600080fd5b815160ff81168114610a2257600080fd5b60ff8281168282160390811115610a2557610a2561382b565b600181815b80851115613a4a578160001904821115613a3057613a3061382b565b80851615613a3d57918102915b93841c9390800290613a14565b509250929050565b600082613a6157506001610a25565b81613a6e57506000610a25565b8160018114613a845760028114613a8e57613aaa565b6001915050610a25565b60ff841115613a9f57613a9f61382b565b50506001821b610a25565b5060208310610133831016604e8410600b8410161715613acd575081810a610a25565b613ad78383613a0f565b8060001904821115613aeb57613aeb61382b565b029392505050565b6000610a2260ff841683613a52565b6001600160801b03818116838216019080821115613b2257613b2261382b565b5092915050565b6001600160801b03828116828216039080821115613b2257613b2261382b565b60008251613b5b818460208701613752565b919091019291505056feda08342aeb056fbb00fd5a62a4033b8f6496e358fd964a431042595d762afbaf2d6cc0bcdf72c9486f6451bde6b80f44066f4558f77f44dbfedbe7d8b295225ac4dfa259771b0ed50b100eaf04734dad1b094a866d9d285c59180cde3f3f45e832449ddbf0a02db8444d6687307ae4024de6db36dc09c3d5667fa71d6bffaa9ebce78369dccab09eec1986f4d409ab09ffbb47d65423e5148fcf98411c5111c9f704b47f65a99b2219b7213612db4be4a436cdf50624f4baca1373ef0de0aac753746162696c697479506f6f6c3a2063616c6c6572206d7573742068617665201f9dfc70cd666adb18a39d60a797518f7b4febf4b6e24ef37d44f6e1e7219fbe3807eb27e116be27b5a2c63478a4f4029945291386db0b94d494102430cab67c02a5b2bd0f6030e3d5dfb2ee2b5bcf058fe8526dabf91b58b2d5d53d0f02dc04a264697066735822122041c5541dc7377b12cf079109bf372a14425db9e7dc540a411ab0a7326ae3665064736f6c63430008110033",
  "linkReferences": {},
  "deployedLinkReferences": {}
}