{
  "_format": "hh-sol-artifact-1",
  "contractName": "OFTV2",
  "sourceName": "@layerzerolabs/solidity-examples/contracts/token/oft/v2/OFTV2.sol",
  "abi": [
    {
      "inputs": [
        {
          "internalType": "string",
          "name": "_name",
          "type": "string"
        },
        {
          "internalType": "string",
          "name": "_symbol",
          "type": "string"
        },
        {
          "internalType": "uint8",
          "name": "_sharedDecimals",
          "type": "uint8"
        },
        {
          "internalType": "address",
          "name": "_lzEndpoint",
          "type": "address"
        }
      ],
      "stateMutability": "nonpayable",
      "type": "constructor"
    },
    {
      "anonymous": false,
      "inputs": [
        {
          "indexed": true,
          "internalType": "address",
          "name": "owner",
          "type": "address"
        },
        {
          "indexed": true,
          "internalType": "address",
          "name": "spender",
          "type": "address"
        },
        {
          "indexed": false,
          "internalType": "uint256",
          "name": "value",
          "type": "uint256"
        }
      ],
      "name": "Approval",
      "type": "event"
    },
    {
      "anonymous": false,
      "inputs": [
        {
          "indexed": true,
          "internalType": "uint16",
          "name": "_srcChainId",
          "type": "uint16"
        },
        {
          "indexed": false,
          "internalType": "bytes",
          "name": "_srcAddress",
          "type": "bytes"
        },
        {
          "indexed": false,
          "internalType": "uint64",
          "name": "_nonce",
          "type": "uint64"
        },
        {
          "indexed": false,
          "internalType": "bytes32",
          "name": "_hash",
          "type": "bytes32"
        }
      ],
      "name": "CallOFTReceivedSuccess",
      "type": "event"
    },
    {
      "anonymous": false,
      "inputs": [
        {
          "indexed": false,
          "internalType": "uint16",
          "name": "_srcChainId",
          "type": "uint16"
        },
        {
          "indexed": false,
          "internalType": "bytes",
          "name": "_srcAddress",
          "type": "bytes"
        },
        {
          "indexed": false,
          "internalType": "uint64",
          "name": "_nonce",
          "type": "uint64"
        },
        {
          "indexed": false,
          "internalType": "bytes",
          "name": "_payload",
          "type": "bytes"
        },
        {
          "indexed": false,
          "internalType": "bytes",
          "name": "_reason",
          "type": "bytes"
        }
      ],
      "name": "MessageFailed",
      "type": "event"
    },
    {
      "anonymous": false,
      "inputs": [
        {
          "indexed": false,
          "internalType": "address",
          "name": "_address",
          "type": "address"
        }
      ],
      "name": "NonContractAddress",
      "type": "event"
    },
    {
      "anonymous": false,
      "inputs": [
        {
          "indexed": true,
          "internalType": "address",
          "name": "previousOwner",
          "type": "address"
        },
        {
          "indexed": true,
          "internalType": "address",
          "name": "newOwner",
          "type": "address"
        }
      ],
      "name": "OwnershipTransferred",
      "type": "event"
    },
    {
      "anonymous": false,
      "inputs": [
        {
          "indexed": true,
          "internalType": "uint16",
          "name": "_srcChainId",
          "type": "uint16"
        },
        {
          "indexed": true,
          "internalType": "address",
          "name": "_to",
          "type": "address"
        },
        {
          "indexed": false,
          "internalType": "uint256",
          "name": "_amount",
          "type": "uint256"
        }
      ],
      "name": "ReceiveFromChain",
      "type": "event"
    },
    {
      "anonymous": false,
      "inputs": [
        {
          "indexed": false,
          "internalType": "uint16",
          "name": "_srcChainId",
          "type": "uint16"
        },
        {
          "indexed": false,
          "internalType": "bytes",
          "name": "_srcAddress",
          "type": "bytes"
        },
        {
          "indexed": false,
          "internalType": "uint64",
          "name": "_nonce",
          "type": "uint64"
        },
        {
          "indexed": false,
          "internalType": "bytes32",
          "name": "_payloadHash",
          "type": "bytes32"
        }
      ],
      "name": "RetryMessageSuccess",
      "type": "event"
    },
    {
      "anonymous": false,
      "inputs": [
        {
          "indexed": true,
          "internalType": "uint16",
          "name": "_dstChainId",
          "type": "uint16"
        },
        {
          "indexed": true,
          "internalType": "address",
          "name": "_from",
          "type": "address"
        },
        {
          "indexed": true,
          "internalType": "bytes32",
          "name": "_toAddress",
          "type": "bytes32"
        },
        {
          "indexed": false,
          "internalType": "uint256",
          "name": "_amount",
          "type": "uint256"
        }
      ],
      "name": "SendToChain",
      "type": "event"
    },
    {
      "anonymous": false,
      "inputs": [
        {
          "indexed": false,
          "internalType": "uint16",
          "name": "_dstChainId",
          "type": "uint16"
        },
        {
          "indexed": false,
          "internalType": "uint16",
          "name": "_type",
          "type": "uint16"
        },
        {
          "indexed": false,
          "internalType": "uint256",
          "name": "_minDstGas",
          "type": "uint256"
        }
      ],
      "name": "SetMinDstGas",
      "type": "event"
    },
    {
      "anonymous": false,
      "inputs": [
        {
          "indexed": false,
          "internalType": "address",
          "name": "precrime",
          "type": "address"
        }
      ],
      "name": "SetPrecrime",
      "type": "event"
    },
    {
      "anonymous": false,
      "inputs": [
        {
          "indexed": false,
          "internalType": "uint16",
          "name": "_remoteChainId",
          "type": "uint16"
        },
        {
          "indexed": false,
          "internalType": "bytes",
          "name": "_path",
          "type": "bytes"
        }
      ],
      "name": "SetTrustedRemote",
      "type": "event"
    },
    {
      "anonymous": false,
      "inputs": [
        {
          "indexed": false,
          "internalType": "uint16",
          "name": "_remoteChainId",
          "type": "uint16"
        },
        {
          "indexed": false,
          "internalType": "bytes",
          "name": "_remoteAddress",
          "type": "bytes"
        }
      ],
      "name": "SetTrustedRemoteAddress",
      "type": "event"
    },
    {
      "anonymous": false,
      "inputs": [
        {
          "indexed": false,
          "internalType": "bool",
          "name": "_useCustomAdapterParams",
          "type": "bool"
        }
      ],
      "name": "SetUseCustomAdapterParams",
      "type": "event"
    },
    {
      "anonymous": false,
      "inputs": [
        {
          "indexed": true,
          "internalType": "address",
          "name": "from",
          "type": "address"
        },
        {
          "indexed": true,
          "internalType": "address",
          "name": "to",
          "type": "address"
        },
        {
          "indexed": false,
          "internalType": "uint256",
          "name": "value",
          "type": "uint256"
        }
      ],
      "name": "Transfer",
      "type": "event"
    },
    {
      "inputs": [],
      "name": "DEFAULT_PAYLOAD_SIZE_LIMIT",
      "outputs": [
        {
          "internalType": "uint256",
          "name": "",
          "type": "uint256"
        }
      ],
      "stateMutability": "view",
      "type": "function"
    },
    {
      "inputs": [],
      "name": "NO_EXTRA_GAS",
      "outputs": [
        {
          "internalType": "uint256",
          "name": "",
          "type": "uint256"
        }
      ],
      "stateMutability": "view",
      "type": "function"
    },
    {
      "inputs": [],
      "name": "PT_SEND",
      "outputs": [
        {
          "internalType": "uint8",
          "name": "",
          "type": "uint8"
        }
      ],
      "stateMutability": "view",
      "type": "function"
    },
    {
      "inputs": [],
      "name": "PT_SEND_AND_CALL",
      "outputs": [
        {
          "internalType": "uint8",
          "name": "",
          "type": "uint8"
        }
      ],
      "stateMutability": "view",
      "type": "function"
    },
    {
      "inputs": [
        {
          "internalType": "address",
          "name": "owner",
          "type": "address"
        },
        {
          "internalType": "address",
          "name": "spender",
          "type": "address"
        }
      ],
      "name": "allowance",
      "outputs": [
        {
          "internalType": "uint256",
          "name": "",
          "type": "uint256"
        }
      ],
      "stateMutability": "view",
      "type": "function"
    },
    {
      "inputs": [
        {
          "internalType": "address",
          "name": "spender",
          "type": "address"
        },
        {
          "internalType": "uint256",
          "name": "amount",
          "type": "uint256"
        }
      ],
      "name": "approve",
      "outputs": [
        {
          "internalType": "bool",
          "name": "",
          "type": "bool"
        }
      ],
      "stateMutability": "nonpayable",
      "type": "function"
    },
    {
      "inputs": [
        {
          "internalType": "address",
          "name": "account",
          "type": "address"
        }
      ],
      "name": "balanceOf",
      "outputs": [
        {
          "internalType": "uint256",
          "name": "",
          "type": "uint256"
        }
      ],
      "stateMutability": "view",
      "type": "function"
    },
    {
      "inputs": [
        {
          "internalType": "uint16",
          "name": "_srcChainId",
          "type": "uint16"
        },
        {
          "internalType": "bytes",
          "name": "_srcAddress",
          "type": "bytes"
        },
        {
          "internalType": "uint64",
          "name": "_nonce",
          "type": "uint64"
        },
        {
          "internalType": "bytes32",
          "name": "_from",
          "type": "bytes32"
        },
        {
          "internalType": "address",
          "name": "_to",
          "type": "address"
        },
        {
          "internalType": "uint256",
          "name": "_amount",
          "type": "uint256"
        },
        {
          "internalType": "bytes",
          "name": "_payload",
          "type": "bytes"
        },
        {
          "internalType": "uint256",
          "name": "_gasForCall",
          "type": "uint256"
        }
      ],
      "name": "callOnOFTReceived",
      "outputs": [],
      "stateMutability": "nonpayable",
      "type": "function"
    },
    {
      "inputs": [],
      "name": "circulatingSupply",
      "outputs": [
        {
          "internalType": "uint256",
          "name": "",
          "type": "uint256"
        }
      ],
      "stateMutability": "view",
      "type": "function"
    },
    {
      "inputs": [
        {
          "internalType": "uint16",
          "name": "",
          "type": "uint16"
        },
        {
          "internalType": "bytes",
          "name": "",
          "type": "bytes"
        },
        {
          "internalType": "uint64",
          "name": "",
          "type": "uint64"
        }
      ],
      "name": "creditedPackets",
      "outputs": [
        {
          "internalType": "bool",
          "name": "",
          "type": "bool"
        }
      ],
      "stateMutability": "view",
      "type": "function"
    },
    {
      "inputs": [],
      "name": "decimals",
      "outputs": [
        {
          "internalType": "uint8",
          "name": "",
          "type": "uint8"
        }
      ],
      "stateMutability": "view",
      "type": "function"
    },
    {
      "inputs": [
        {
          "internalType": "address",
          "name": "spender",
          "type": "address"
        },
        {
          "internalType": "uint256",
          "name": "subtractedValue",
          "type": "uint256"
        }
      ],
      "name": "decreaseAllowance",
      "outputs": [
        {
          "internalType": "bool",
          "name": "",
          "type": "bool"
        }
      ],
      "stateMutability": "nonpayable",
      "type": "function"
    },
    {
      "inputs": [
        {
          "internalType": "uint16",
          "name": "_dstChainId",
          "type": "uint16"
        },
        {
          "internalType": "bytes32",
          "name": "_toAddress",
          "type": "bytes32"
        },
        {
          "internalType": "uint256",
          "name": "_amount",
          "type": "uint256"
        },
        {
          "internalType": "bytes",
          "name": "_payload",
          "type": "bytes"
        },
        {
          "internalType": "uint64",
          "name": "_dstGasForCall",
          "type": "uint64"
        },
        {
          "internalType": "bool",
          "name": "_useZro",
          "type": "bool"
        },
        {
          "internalType": "bytes",
          "name": "_adapterParams",
          "type": "bytes"
        }
      ],
      "name": "estimateSendAndCallFee",
      "outputs": [
        {
          "internalType": "uint256",
          "name": "nativeFee",
          "type": "uint256"
        },
        {
          "internalType": "uint256",
          "name": "zroFee",
          "type": "uint256"
        }
      ],
      "stateMutability": "view",
      "type": "function"
    },
    {
      "inputs": [
        {
          "internalType": "uint16",
          "name": "_dstChainId",
          "type": "uint16"
        },
        {
          "internalType": "bytes32",
          "name": "_toAddress",
          "type": "bytes32"
        },
        {
          "internalType": "uint256",
          "name": "_amount",
          "type": "uint256"
        },
        {
          "internalType": "bool",
          "name": "_useZro",
          "type": "bool"
        },
        {
          "internalType": "bytes",
          "name": "_adapterParams",
          "type": "bytes"
        }
      ],
      "name": "estimateSendFee",
      "outputs": [
        {
          "internalType": "uint256",
          "name": "nativeFee",
          "type": "uint256"
        },
        {
          "internalType": "uint256",
          "name": "zroFee",
          "type": "uint256"
        }
      ],
      "stateMutability": "view",
      "type": "function"
    },
    {
      "inputs": [
        {
          "internalType": "uint16",
          "name": "",
          "type": "uint16"
        },
        {
          "internalType": "bytes",
          "name": "",
          "type": "bytes"
        },
        {
          "internalType": "uint64",
          "name": "",
          "type": "uint64"
        }
      ],
      "name": "failedMessages",
      "outputs": [
        {
          "internalType": "bytes32",
          "name": "",
          "type": "bytes32"
        }
      ],
      "stateMutability": "view",
      "type": "function"
    },
    {
      "inputs": [
        {
          "internalType": "uint16",
          "name": "_srcChainId",
          "type": "uint16"
        },
        {
          "internalType": "bytes",
          "name": "_srcAddress",
          "type": "bytes"
        }
      ],
      "name": "forceResumeReceive",
      "outputs": [],
      "stateMutability": "nonpayable",
      "type": "function"
    },
    {
      "inputs": [
        {
          "internalType": "uint16",
          "name": "_version",
          "type": "uint16"
        },
        {
          "internalType": "uint16",
          "name": "_chainId",
          "type": "uint16"
        },
        {
          "internalType": "address",
          "name": "",
          "type": "address"
        },
        {
          "internalType": "uint256",
          "name": "_configType",
          "type": "uint256"
        }
      ],
      "name": "getConfig",
      "outputs": [
        {
          "internalType": "bytes",
          "name": "",
          "type": "bytes"
        }
      ],
      "stateMutability": "view",
      "type": "function"
    },
    {
      "inputs": [
        {
          "internalType": "uint16",
          "name": "_remoteChainId",
          "type": "uint16"
        }
      ],
      "name": "getTrustedRemoteAddress",
      "outputs": [
        {
          "internalType": "bytes",
          "name": "",
          "type": "bytes"
        }
      ],
      "stateMutability": "view",
      "type": "function"
    },
    {
      "inputs": [
        {
          "internalType": "address",
          "name": "spender",
          "type": "address"
        },
        {
          "internalType": "uint256",
          "name": "addedValue",
          "type": "uint256"
        }
      ],
      "name": "increaseAllowance",
      "outputs": [
        {
          "internalType": "bool",
          "name": "",
          "type": "bool"
        }
      ],
      "stateMutability": "nonpayable",
      "type": "function"
    },
    {
      "inputs": [
        {
          "internalType": "uint16",
          "name": "_srcChainId",
          "type": "uint16"
        },
        {
          "internalType": "bytes",
          "name": "_srcAddress",
          "type": "bytes"
        }
      ],
      "name": "isTrustedRemote",
      "outputs": [
        {
          "internalType": "bool",
          "name": "",
          "type": "bool"
        }
      ],
      "stateMutability": "view",
      "type": "function"
    },
    {
      "inputs": [],
      "name": "lzEndpoint",
      "outputs": [
        {
          "internalType": "contract ILayerZeroEndpoint",
          "name": "",
          "type": "address"
        }
      ],
      "stateMutability": "view",
      "type": "function"
    },
    {
      "inputs": [
        {
          "internalType": "uint16",
          "name": "_srcChainId",
          "type": "uint16"
        },
        {
          "internalType": "bytes",
          "name": "_srcAddress",
          "type": "bytes"
        },
        {
          "internalType": "uint64",
          "name": "_nonce",
          "type": "uint64"
        },
        {
          "internalType": "bytes",
          "name": "_payload",
          "type": "bytes"
        }
      ],
      "name": "lzReceive",
      "outputs": [],
      "stateMutability": "nonpayable",
      "type": "function"
    },
    {
      "inputs": [
        {
          "internalType": "uint16",
          "name": "",
          "type": "uint16"
        },
        {
          "internalType": "uint16",
          "name": "",
          "type": "uint16"
        }
      ],
      "name": "minDstGasLookup",
      "outputs": [
        {
          "internalType": "uint256",
          "name": "",
          "type": "uint256"
        }
      ],
      "stateMutability": "view",
      "type": "function"
    },
    {
      "inputs": [],
      "name": "name",
      "outputs": [
        {
          "internalType": "string",
          "name": "",
          "type": "string"
        }
      ],
      "stateMutability": "view",
      "type": "function"
    },
    {
      "inputs": [
        {
          "internalType": "uint16",
          "name": "_srcChainId",
          "type": "uint16"
        },
        {
          "internalType": "bytes",
          "name": "_srcAddress",
          "type": "bytes"
        },
        {
          "internalType": "uint64",
          "name": "_nonce",
          "type": "uint64"
        },
        {
          "internalType": "bytes",
          "name": "_payload",
          "type": "bytes"
        }
      ],
      "name": "nonblockingLzReceive",
      "outputs": [],
      "stateMutability": "nonpayable",
      "type": "function"
    },
    {
      "inputs": [],
      "name": "owner",
      "outputs": [
        {
          "internalType": "address",
          "name": "",
          "type": "address"
        }
      ],
      "stateMutability": "view",
      "type": "function"
    },
    {
      "inputs": [
        {
          "internalType": "uint16",
          "name": "",
          "type": "uint16"
        }
      ],
      "name": "payloadSizeLimitLookup",
      "outputs": [
        {
          "internalType": "uint256",
          "name": "",
          "type": "uint256"
        }
      ],
      "stateMutability": "view",
      "type": "function"
    },
    {
      "inputs": [],
      "name": "precrime",
      "outputs": [
        {
          "internalType": "address",
          "name": "",
          "type": "address"
        }
      ],
      "stateMutability": "view",
      "type": "function"
    },
    {
      "inputs": [],
      "name": "renounceOwnership",
      "outputs": [],
      "stateMutability": "nonpayable",
      "type": "function"
    },
    {
      "inputs": [
        {
          "internalType": "uint16",
          "name": "_srcChainId",
          "type": "uint16"
        },
        {
          "internalType": "bytes",
          "name": "_srcAddress",
          "type": "bytes"
        },
        {
          "internalType": "uint64",
          "name": "_nonce",
          "type": "uint64"
        },
        {
          "internalType": "bytes",
          "name": "_payload",
          "type": "bytes"
        }
      ],
      "name": "retryMessage",
      "outputs": [],
      "stateMutability": "payable",
      "type": "function"
    },
    {
      "inputs": [
        {
          "internalType": "address",
          "name": "_from",
          "type": "address"
        },
        {
          "internalType": "uint16",
          "name": "_dstChainId",
          "type": "uint16"
        },
        {
          "internalType": "bytes32",
          "name": "_toAddress",
          "type": "bytes32"
        },
        {
          "internalType": "uint256",
          "name": "_amount",
          "type": "uint256"
        },
        {
          "internalType": "bytes",
          "name": "_payload",
          "type": "bytes"
        },
        {
          "internalType": "uint64",
          "name": "_dstGasForCall",
          "type": "uint64"
        },
        {
          "components": [
            {
              "internalType": "address payable",
              "name": "refundAddress",
              "type": "address"
            },
            {
              "internalType": "address",
              "name": "zroPaymentAddress",
              "type": "address"
            },
            {
              "internalType": "bytes",
              "name": "adapterParams",
              "type": "bytes"
            }
          ],
          "internalType": "struct ICommonOFT.LzCallParams",
          "name": "_callParams",
          "type": "tuple"
        }
      ],
      "name": "sendAndCall",
      "outputs": [],
      "stateMutability": "payable",
      "type": "function"
    },
    {
      "inputs": [
        {
          "internalType": "address",
          "name": "_from",
          "type": "address"
        },
        {
          "internalType": "uint16",
          "name": "_dstChainId",
          "type": "uint16"
        },
        {
          "internalType": "bytes32",
          "name": "_toAddress",
          "type": "bytes32"
        },
        {
          "internalType": "uint256",
          "name": "_amount",
          "type": "uint256"
        },
        {
          "components": [
            {
              "internalType": "address payable",
              "name": "refundAddress",
              "type": "address"
            },
            {
              "internalType": "address",
              "name": "zroPaymentAddress",
              "type": "address"
            },
            {
              "internalType": "bytes",
              "name": "adapterParams",
              "type": "bytes"
            }
          ],
          "internalType": "struct ICommonOFT.LzCallParams",
          "name": "_callParams",
          "type": "tuple"
        }
      ],
      "name": "sendFrom",
      "outputs": [],
      "stateMutability": "payable",
      "type": "function"
    },
    {
      "inputs": [
        {
          "internalType": "uint16",
          "name": "_version",
          "type": "uint16"
        },
        {
          "internalType": "uint16",
          "name": "_chainId",
          "type": "uint16"
        },
        {
          "internalType": "uint256",
          "name": "_configType",
          "type": "uint256"
        },
        {
          "internalType": "bytes",
          "name": "_config",
          "type": "bytes"
        }
      ],
      "name": "setConfig",
      "outputs": [],
      "stateMutability": "nonpayable",
      "type": "function"
    },
    {
      "inputs": [
        {
          "internalType": "uint16",
          "name": "_dstChainId",
          "type": "uint16"
        },
        {
          "internalType": "uint16",
          "name": "_packetType",
          "type": "uint16"
        },
        {
          "internalType": "uint256",
          "name": "_minGas",
          "type": "uint256"
        }
      ],
      "name": "setMinDstGas",
      "outputs": [],
      "stateMutability": "nonpayable",
      "type": "function"
    },
    {
      "inputs": [
        {
          "internalType": "uint16",
          "name": "_dstChainId",
          "type": "uint16"
        },
        {
          "internalType": "uint256",
          "name": "_size",
          "type": "uint256"
        }
      ],
      "name": "setPayloadSizeLimit",
      "outputs": [],
      "stateMutability": "nonpayable",
      "type": "function"
    },
    {
      "inputs": [
        {
          "internalType": "address",
          "name": "_precrime",
          "type": "address"
        }
      ],
      "name": "setPrecrime",
      "outputs": [],
      "stateMutability": "nonpayable",
      "type": "function"
    },
    {
      "inputs": [
        {
          "internalType": "uint16",
          "name": "_version",
          "type": "uint16"
        }
      ],
      "name": "setReceiveVersion",
      "outputs": [],
      "stateMutability": "nonpayable",
      "type": "function"
    },
    {
      "inputs": [
        {
          "internalType": "uint16",
          "name": "_version",
          "type": "uint16"
        }
      ],
      "name": "setSendVersion",
      "outputs": [],
      "stateMutability": "nonpayable",
      "type": "function"
    },
    {
      "inputs": [
        {
          "internalType": "uint16",
          "name": "_remoteChainId",
          "type": "uint16"
        },
        {
          "internalType": "bytes",
          "name": "_path",
          "type": "bytes"
        }
      ],
      "name": "setTrustedRemote",
      "outputs": [],
      "stateMutability": "nonpayable",
      "type": "function"
    },
    {
      "inputs": [
        {
          "internalType": "uint16",
          "name": "_remoteChainId",
          "type": "uint16"
        },
        {
          "internalType": "bytes",
          "name": "_remoteAddress",
          "type": "bytes"
        }
      ],
      "name": "setTrustedRemoteAddress",
      "outputs": [],
      "stateMutability": "nonpayable",
      "type": "function"
    },
    {
      "inputs": [
        {
          "internalType": "bool",
          "name": "_useCustomAdapterParams",
          "type": "bool"
        }
      ],
      "name": "setUseCustomAdapterParams",
      "outputs": [],
      "stateMutability": "nonpayable",
      "type": "function"
    },
    {
      "inputs": [],
      "name": "sharedDecimals",
      "outputs": [
        {
          "internalType": "uint8",
          "name": "",
          "type": "uint8"
        }
      ],
      "stateMutability": "view",
      "type": "function"
    },
    {
      "inputs": [
        {
          "internalType": "bytes4",
          "name": "interfaceId",
          "type": "bytes4"
        }
      ],
      "name": "supportsInterface",
      "outputs": [
        {
          "internalType": "bool",
          "name": "",
          "type": "bool"
        }
      ],
      "stateMutability": "view",
      "type": "function"
    },
    {
      "inputs": [],
      "name": "symbol",
      "outputs": [
        {
          "internalType": "string",
          "name": "",
          "type": "string"
        }
      ],
      "stateMutability": "view",
      "type": "function"
    },
    {
      "inputs": [],
      "name": "token",
      "outputs": [
        {
          "internalType": "address",
          "name": "",
          "type": "address"
        }
      ],
      "stateMutability": "view",
      "type": "function"
    },
    {
      "inputs": [],
      "name": "totalSupply",
      "outputs": [
        {
          "internalType": "uint256",
          "name": "",
          "type": "uint256"
        }
      ],
      "stateMutability": "view",
      "type": "function"
    },
    {
      "inputs": [
        {
          "internalType": "address",
          "name": "to",
          "type": "address"
        },
        {
          "internalType": "uint256",
          "name": "amount",
          "type": "uint256"
        }
      ],
      "name": "transfer",
      "outputs": [
        {
          "internalType": "bool",
          "name": "",
          "type": "bool"
        }
      ],
      "stateMutability": "nonpayable",
      "type": "function"
    },
    {
      "inputs": [
        {
          "internalType": "address",
          "name": "from",
          "type": "address"
        },
        {
          "internalType": "address",
          "name": "to",
          "type": "address"
        },
        {
          "internalType": "uint256",
          "name": "amount",
          "type": "uint256"
        }
      ],
      "name": "transferFrom",
      "outputs": [
        {
          "internalType": "bool",
          "name": "",
          "type": "bool"
        }
      ],
      "stateMutability": "nonpayable",
      "type": "function"
    },
    {
      "inputs": [
        {
          "internalType": "address",
          "name": "newOwner",
          "type": "address"
        }
      ],
      "name": "transferOwnership",
      "outputs": [],
      "stateMutability": "nonpayable",
      "type": "function"
    },
    {
      "inputs": [
        {
          "internalType": "uint16",
          "name": "",
          "type": "uint16"
        }
      ],
      "name": "trustedRemoteLookup",
      "outputs": [
        {
          "internalType": "bytes",
          "name": "",
          "type": "bytes"
        }
      ],
      "stateMutability": "view",
      "type": "function"
    },
    {
      "inputs": [],
      "name": "useCustomAdapterParams",
      "outputs": [
        {
          "internalType": "bool",
          "name": "",
          "type": "bool"
        }
      ],
      "stateMutability": "view",
      "type": "function"
    }
  ],
  "bytecode": "0x60e06040523480156200001157600080fd5b50604051620048593803806200485983398101604081905262000034916200023f565b8383838381818080620000473362000125565b6001600160a01b0316608052505060ff1660a05250600b90506200006c838262000372565b50600c6200007b828262000372565b5050506000620000906200017560201b60201c565b90508060ff168360ff161115620000fd5760405162461bcd60e51b815260206004820152602760248201527f4f46543a20736861726564446563696d616c73206d757374206265203c3d20646044820152666563696d616c7360c81b606482015260840160405180910390fd5b62000109838262000454565b6200011690600a62000573565b60c052506200058b9350505050565b600080546001600160a01b038381166001600160a01b0319831681178455604051919092169283917f8be0079c531659141344cd1fd0a4f28419497f9722a3daafe3b4186f6b6457e09190a35050565b601290565b634e487b7160e01b600052604160045260246000fd5b600082601f830112620001a257600080fd5b81516001600160401b0380821115620001bf57620001bf6200017a565b604051601f8301601f19908116603f01168101908282118183101715620001ea57620001ea6200017a565b816040528381526020925086838588010111156200020757600080fd5b600091505b838210156200022b57858201830151818301840152908201906200020c565b600093810190920192909252949350505050565b600080600080608085870312156200025657600080fd5b84516001600160401b03808211156200026e57600080fd5b6200027c8883890162000190565b955060208701519150808211156200029357600080fd5b50620002a28782880162000190565b935050604085015160ff81168114620002ba57600080fd5b60608601519092506001600160a01b0381168114620002d857600080fd5b939692955090935050565b600181811c90821680620002f857607f821691505b6020821081036200031957634e487b7160e01b600052602260045260246000fd5b50919050565b601f8211156200036d57600081815260208120601f850160051c81016020861015620003485750805b601f850160051c820191505b81811015620003695782815560010162000354565b5050505b505050565b81516001600160401b038111156200038e576200038e6200017a565b620003a6816200039f8454620002e3565b846200031f565b602080601f831160018114620003de5760008415620003c55750858301515b600019600386901b1c1916600185901b17855562000369565b600085815260208120601f198616915b828110156200040f57888601518255948401946001909101908401620003ee565b50858210156200042e5787850151600019600388901b60f8161c191681555b5050505050600190811b01905550565b634e487b7160e01b600052601160045260246000fd5b60ff82811682821603908111156200047057620004706200043e565b92915050565b600181815b80851115620004b75781600019048211156200049b576200049b6200043e565b80851615620004a957918102915b93841c93908002906200047b565b509250929050565b600082620004d05750600162000470565b81620004df5750600062000470565b8160018114620004f85760028114620005035762000523565b600191505062000470565b60ff8411156200051757620005176200043e565b50506001821b62000470565b5060208310610133831016604e8410600b841016171562000548575081810a62000470565b62000554838362000476565b80600019048211156200056b576200056b6200043e565b029392505050565b60006200058460ff841683620004bf565b9392505050565b60805160a05160c05161425f620005fa6000396000612be5015260006105a001526000818161076a0152818161091a01528181610c3201528181610cf201528181610eaf0152818161151c01528181611ad401528181611fcb015281816123cf0152612b26015261425f6000f3fe6080604052600436106102435760003560e01c80621d35671461024857806301ffc9a71461026a57806306fdde031461029f57806307e0db17146102c1578063095ea7b3146102e15780630df374831461030157806310ddb1371461032157806318160ddd1461034157806323b872dd14610360578063313ce56714610380578063365260b4146103a257806339509351146103d75780633d8b38f6146103f75780633f1f4fa41461041757806342d65a8d1461044457806344770515146104645780634c42899a146104795780635b8c41e61461048e57806366ad5c8a146104dd578063695ef6bf146104fd57806370a0823114610510578063715018a6146105465780637533d7881461055b57806376203b481461057b578063857749b01461058e5780638cfd8f5c146105c25780638da5cb5b146105fa5780639358928b1461061c578063950c8a741461063157806395d89b41146106515780639bdb9812146106665780639f38369a146106b8578063a457c2d7146106d8578063a4c51df5146106f8578063a6c3d16514610718578063a9059cbb14610738578063b353aaa714610758578063baf3292d1461078c578063c4461834146107ac578063cbed8b9c146107c2578063d1deba1f146107e2578063dd62ed3e146107f5578063df2a5b3b14610815578063e6a20ae614610835578063eab45d9c1461084a578063eaffd49a1461086a578063eb8d72b71461088a578063ed629c5c146108aa578063f2fde38b146108c4578063f5ecbdbc146108e4578063fc0c546a14610904575b600080fd5b34801561025457600080fd5b5061026861026336600461322a565b610917565b005b34801561027657600080fd5b5061028a6102853660046132bd565b610b48565b60405190151581526020015b60405180910390f35b3480156102ab57600080fd5b506102b4610b7f565b6040516102969190613337565b3480156102cd57600080fd5b506102686102dc36600461334a565b610c11565b3480156102ed57600080fd5b5061028a6102fc36600461337a565b610c9a565b34801561030d57600080fd5b5061026861031c3660046133a6565b610cb2565b34801561032d57600080fd5b5061026861033c36600461334a565b610cd1565b34801561034d57600080fd5b50600a545b604051908152602001610296565b34801561036c57600080fd5b5061028a61037b3660046133c2565b610d29565b34801561038c57600080fd5b5060125b60405160ff9091168152602001610296565b3480156103ae57600080fd5b506103c26103bd366004613413565b610d4d565b60408051928352602083019190915201610296565b3480156103e357600080fd5b5061028a6103f236600461337a565b610da2565b34801561040357600080fd5b5061028a610412366004613478565b610dc4565b34801561042357600080fd5b5061035261043236600461334a565b60036020526000908152604090205481565b34801561045057600080fd5b5061026861045f366004613478565b610e90565b34801561047057600080fd5b50610352600081565b34801561048557600080fd5b50610390600081565b34801561049a57600080fd5b506103526104a9366004613537565b6005602090815260009384526040808520845180860184018051928152908401958401959095209452929052825290205481565b3480156104e957600080fd5b506102686104f836600461322a565b610f16565b61026861050b3660046135ef565b610ff2565b34801561051c57600080fd5b5061035261052b366004613662565b6001600160a01b031660009081526008602052604090205490565b34801561055257600080fd5b5061026861105d565b34801561056757600080fd5b506102b461057636600461334a565b611071565b61026861058936600461367f565b61110b565b34801561059a57600080fd5b506103907f000000000000000000000000000000000000000000000000000000000000000081565b3480156105ce57600080fd5b506103526105dd366004613731565b600260209081526000928352604080842090915290825290205481565b34801561060657600080fd5b5061060f6111ba565b6040516102969190613764565b34801561062857600080fd5b506103526111c9565b34801561063d57600080fd5b5060045461060f906001600160a01b031681565b34801561065d57600080fd5b506102b46111d9565b34801561067257600080fd5b5061028a610681366004613537565b6007602090815260009384526040808520845180860184018051928152908401958401959095209452929052825290205460ff1681565b3480156106c457600080fd5b506102b46106d336600461334a565b6111e8565b3480156106e457600080fd5b5061028a6106f336600461337a565b6112fe565b34801561070457600080fd5b506103c2610713366004613778565b611379565b34801561072457600080fd5b50610268610733366004613478565b611408565b34801561074457600080fd5b5061028a61075336600461337a565b611491565b34801561076457600080fd5b5061060f7f000000000000000000000000000000000000000000000000000000000000000081565b34801561079857600080fd5b506102686107a7366004613662565b61149f565b3480156107b857600080fd5b5061035261271081565b3480156107ce57600080fd5b506102686107dd366004613831565b6114fd565b6102686107f036600461322a565b611587565b34801561080157600080fd5b5061035261081036600461389f565b61179d565b34801561082157600080fd5b506102686108303660046138d8565b6117c8565b34801561084157600080fd5b50610390600181565b34801561085657600080fd5b50610268610865366004613914565b61187a565b34801561087657600080fd5b5061026861088536600461392f565b6118c3565b34801561089657600080fd5b506102686108a5366004613478565b6119d0565b3480156108b657600080fd5b5060065461028a9060ff1681565b3480156108d057600080fd5b506102686108df366004613662565b611a2a565b3480156108f057600080fd5b506102b46108ff3660046139f7565b611aa3565b34801561091057600080fd5b503061060f565b337f00000000000000000000000000000000000000000000000000000000000000006001600160a01b0316146109945760405162461bcd60e51b815260206004820152601e60248201527f4c7a4170703a20696e76616c696420656e64706f696e742063616c6c6572000060448201526064015b60405180910390fd5b61ffff8616600090815260016020526040812080546109b290613a44565b80601f01602080910402602001604051908101604052809291908181526020018280546109de90613a44565b8015610a2b5780601f10610a0057610100808354040283529160200191610a2b565b820191906000526020600020905b815481529060010190602001808311610a0e57829003601f168201915b50505050509050805186869050148015610a46575060008151115b8015610a6e575080516020820120604051610a649088908890613a78565b6040518091039020145b610ac95760405162461bcd60e51b815260206004820152602660248201527f4c7a4170703a20696e76616c696420736f757263652073656e64696e6720636f6044820152651b9d1c9858dd60d21b606482015260840161098b565b610b3f8787878080601f01602080910402602001604051908101604052809392919081815260200183838082843760009201919091525050604080516020601f8a018190048102820181019092528881528a935091508890889081908401838280828437600092019190915250611b5492505050565b50505050505050565b60006001600160e01b03198216631f7ecdf760e01b1480610b7957506301ffc9a760e01b6001600160e01b03198316145b92915050565b6060600b8054610b8e90613a44565b80601f0160208091040260200160405190810160405280929190818152602001828054610bba90613a44565b8015610c075780601f10610bdc57610100808354040283529160200191610c07565b820191906000526020600020905b815481529060010190602001808311610bea57829003601f168201915b5050505050905090565b610c19611bcd565b6040516307e0db1760e01b815261ffff821660048201527f00000000000000000000000000000000000000000000000000000000000000006001600160a01b0316906307e0db17906024015b600060405180830381600087803b158015610c7f57600080fd5b505af1158015610c93573d6000803e3d6000fd5b5050505050565b600033610ca8818585611c2c565b5060019392505050565b610cba611bcd565b61ffff909116600090815260036020526040902055565b610cd9611bcd565b6040516310ddb13760e01b815261ffff821660048201527f00000000000000000000000000000000000000000000000000000000000000006001600160a01b0316906310ddb13790602401610c65565b600033610d37858285611d50565b610d42858585611dca565b506001949350505050565b600080610d938888888888888080601f016020809104026020016040519081016040528093929190818152602001838380828437600092019190915250611f6392505050565b91509150965096945050505050565b600033610ca8818585610db5838361179d565b610dbf9190613a9e565b611c2c565b61ffff831660009081526001602052604081208054829190610de590613a44565b80601f0160208091040260200160405190810160405280929190818152602001828054610e1190613a44565b8015610e5e5780601f10610e3357610100808354040283529160200191610e5e565b820191906000526020600020905b815481529060010190602001808311610e4157829003601f168201915b505050505090508383604051610e75929190613a78565b60405180910390208180519060200120149150509392505050565b610e98611bcd565b6040516342d65a8d60e01b81526001600160a01b037f000000000000000000000000000000000000000000000000000000000000000016906342d65a8d90610ee890869086908690600401613ada565b600060405180830381600087803b158015610f0257600080fd5b505af1158015610b3f573d6000803e3d6000fd5b333014610f745760405162461bcd60e51b815260206004820152602660248201527f4e6f6e626c6f636b696e674c7a4170703a2063616c6c6572206d7573742062656044820152650204c7a4170760d41b606482015260840161098b565b610fea8686868080601f01602080910402602001604051908101604052809392919081815260200183838082843760009201919091525050604080516020601f89018190048102820181019092528781528993509150879087908190840183828082843760009201919091525061205792505050565b505050505050565b610fea858585856110066020870187613662565b6110166040880160208901613662565b6110236040890189613af8565b8080601f0160208091040260200160405190810160405280939291908181526020018383808284376000920191909152506120dd92505050565b611065611bcd565b61106f6000612187565b565b6001602052600090815260409020805461108a90613a44565b80601f01602080910402602001604051908101604052809291908181526020018280546110b690613a44565b80156111035780601f106110d857610100808354040283529160200191611103565b820191906000526020600020905b8154815290600101906020018083116110e657829003601f168201915b505050505081565b6111af8888888888888080601f0160208091040260200160405190810160405280939291908181526020018383808284376000920191909152508a92506111589150506020890189613662565b61116860408a0160208b01613662565b61117560408b018b613af8565b8080601f0160208091040260200160405190810160405280939291908181526020018383808284376000920191909152506121d792505050565b505050505050505050565b6000546001600160a01b031690565b60006111d4600a5490565b905090565b6060600c8054610b8e90613a44565b61ffff811660009081526001602052604081208054606092919061120b90613a44565b80601f016020809104026020016040519081016040528092919081815260200182805461123790613a44565b80156112845780601f1061125957610100808354040283529160200191611284565b820191906000526020600020905b81548152906001019060200180831161126757829003601f168201915b5050505050905080516000036112dc5760405162461bcd60e51b815260206004820152601d60248201527f4c7a4170703a206e6f20747275737465642070617468207265636f7264000000604482015260640161098b565b6112f76000601483516112ef9190613b3e565b839190612295565b9392505050565b6000338161130c828661179d565b90508381101561136c5760405162461bcd60e51b815260206004820152602560248201527f45524332303a2064656372656173656420616c6c6f77616e63652062656c6f77604482015264207a65726f60d81b606482015260840161098b565b610d428286868403611c2c565b6000806113f68b8b8b8b8b8080601f01602080910402602001604051908101604052809392919081815260200183838082843760009201919091525050604080516020601f8d018190048102820181019092528b81528e93508d9250908c908c90819084018382808284376000920191909152506123a292505050565b91509150995099975050505050505050565b611410611bcd565b81813060405160200161142593929190613b51565b60408051601f1981840301815291815261ffff85166000908152600160205220906114509082613bcd565b507f8c0400cfe2d1199b1a725c78960bcc2a344d869b80590d0f2bd005db15a572ce83838360405161148493929190613ada565b60405180910390a1505050565b600033610ca8818585611dca565b6114a7611bcd565b600480546001600160a01b0319166001600160a01b0383161790556040517f5db758e995a17ec1ad84bdef7e8c3293a0bd6179bcce400dff5d4c3d87db726b906114f2908390613764565b60405180910390a150565b611505611bcd565b6040516332fb62e760e21b81526001600160a01b037f0000000000000000000000000000000000000000000000000000000000000000169063cbed8b9c906115599088908890889088908890600401613c86565b600060405180830381600087803b15801561157357600080fd5b505af11580156111af573d6000803e3d6000fd5b61ffff861660009081526005602052604080822090516115aa9088908890613a78565b90815260408051602092819003830190206001600160401b0387166000908152925290205490508061162a5760405162461bcd60e51b815260206004820152602360248201527f4e6f6e626c6f636b696e674c7a4170703a206e6f2073746f726564206d65737360448201526261676560e81b606482015260840161098b565b80838360405161163b929190613a78565b60405180910390201461169a5760405162461bcd60e51b815260206004820152602160248201527f4e6f6e626c6f636b696e674c7a4170703a20696e76616c6964207061796c6f616044820152601960fa1b606482015260840161098b565b61ffff871660009081526005602052604080822090516116bd9089908990613a78565b90815260408051602092819003830181206001600160401b038916600090815290845282902093909355601f88018290048202830182019052868252611755918991899089908190840183828082843760009201919091525050604080516020601f8a018190048102820181019092528881528a93509150889088908190840183828082843760009201919091525061205792505050565b7fc264d91f3adc5588250e1551f547752ca0cfa8f6b530d243b9f9f4cab10ea8e5878787878560405161178c959493929190613cbf565b60405180910390a150505050505050565b6001600160a01b03918216600090815260096020908152604080832093909416825291909152205490565b6117d0611bcd565b600081116118185760405162461bcd60e51b81526020600482015260156024820152744c7a4170703a20696e76616c6964206d696e47617360581b604482015260640161098b565b61ffff83811660008181526002602090815260408083209487168084529482529182902085905581519283528201929092529081018290527f9d5c7c0b934da8fefa9c7760c98383778a12dfbfc0c3b3106518f43fb9508ac090606001611484565b611882611bcd565b6006805460ff19168215159081179091556040519081527f1584ad594a70cbe1e6515592e1272a987d922b097ead875069cebe8b40c004a4906020016114f2565b3330146119125760405162461bcd60e51b815260206004820152601f60248201527f4f4654436f72653a2063616c6c6572206d757374206265204f4654436f726500604482015260640161098b565b61191d30868661245d565b9350846001600160a01b03168a61ffff166000805160206141ea8339815191528660405161194d91815260200190565b60405180910390a3604051633fe79aed60e11b81526001600160a01b03861690637fcf35da908390611991908e908e908e908e908e908d908d908d90600401613cfa565b600060405180830381600088803b1580156119ab57600080fd5b5087f11580156119bf573d6000803e3d6000fd5b505050505050505050505050505050565b6119d8611bcd565b61ffff831660009081526001602052604090206119f6828483613d57565b507ffa41487ad5d6728f0b19276fa1eddc16558578f5109fc39d2dc33c3230470dab83838360405161148493929190613ada565b611a32611bcd565b6001600160a01b038116611a975760405162461bcd60e51b815260206004820152602660248201527f4f776e61626c653a206e6577206f776e657220697320746865207a65726f206160448201526564647265737360d01b606482015260840161098b565b611aa081612187565b50565b604051633d7b2f6f60e21b815261ffff808616600483015284166024820152306044820152606481018290526060907f00000000000000000000000000000000000000000000000000000000000000006001600160a01b03169063f5ecbdbc90608401600060405180830381865afa158015611b23573d6000803e3d6000fd5b505050506040513d6000823e601f3d908101601f19168201604052611b4b9190810190613e10565b95945050505050565b600080611bb75a60966366ad5c8a60e01b89898989604051602401611b7c9493929190613e7d565b60408051601f198184030181529190526020810180516001600160e01b03166001600160e01b031990931692909217909152309291906124af565b9150915081610fea57610fea8686868685612539565b33611bd66111ba565b6001600160a01b03161461106f5760405162461bcd60e51b815260206004820181905260248201527f4f776e61626c653a2063616c6c6572206973206e6f7420746865206f776e6572604482015260640161098b565b6001600160a01b038316611c8e5760405162461bcd60e51b8152602060048201526024808201527f45524332303a20617070726f76652066726f6d20746865207a65726f206164646044820152637265737360e01b606482015260840161098b565b6001600160a01b038216611cef5760405162461bcd60e51b815260206004820152602260248201527f45524332303a20617070726f766520746f20746865207a65726f206164647265604482015261737360f01b606482015260840161098b565b6001600160a01b0383811660008181526009602090815260408083209487168084529482529182902085905590518481527f8c5be1e5ebec7d5bd14f71427d1e84f3dd0314c0f7b2291e5b200ac8c7c3b925910160405180910390a3505050565b6000611d5c848461179d565b90506000198114611dc45781811015611db75760405162461bcd60e51b815260206004820152601d60248201527f45524332303a20696e73756666696369656e7420616c6c6f77616e6365000000604482015260640161098b565b611dc48484848403611c2c565b50505050565b6001600160a01b038316611e2e5760405162461bcd60e51b815260206004820152602560248201527f45524332303a207472616e736665722066726f6d20746865207a65726f206164604482015264647265737360d81b606482015260840161098b565b6001600160a01b038216611e905760405162461bcd60e51b815260206004820152602360248201527f45524332303a207472616e7366657220746f20746865207a65726f206164647260448201526265737360e81b606482015260840161098b565b6001600160a01b03831660009081526008602052604090205481811015611f085760405162461bcd60e51b815260206004820152602660248201527f45524332303a207472616e7366657220616d6f756e7420657863656564732062604482015265616c616e636560d01b606482015260840161098b565b6001600160a01b03808516600081815260086020526040808220868603905592861680825290839020805486019055915160008051602061420a83398151915290611f569086815260200190565b60405180910390a3611dc4565b6000806000611fb187611f75886125db565b6040805160006020820152602181019390935260c09190911b6001600160c01b0319166041830152805160298184030181526049909201905290565b60405163040a7bb160e41b81529091506001600160a01b037f000000000000000000000000000000000000000000000000000000000000000016906340a7bb1090612008908b90309086908b908b90600401613ebb565b6040805180830381865afa158015612024573d6000803e3d6000fd5b505050506040513d601f19601f820116820180604052508101906120489190613f0f565b92509250509550959350505050565b60006120638282612646565b905060ff811661207e57612079858585856126a2565b610c93565b60001960ff8216016120965761207985858585612720565b60405162461bcd60e51b815260206004820152601c60248201527b4f4654436f72653a20756e6b6e6f776e207061636b6574207479706560201b604482015260640161098b565b60006120eb87828481612929565b6120f4856129a3565b509050612103888888846129cb565b9050600081116121255760405162461bcd60e51b815260040161098b90613f33565b600061213487611f75846125db565b90506121448882878787346129fd565b86896001600160a01b03168961ffff166000805160206141ca8339815191528560405161217391815260200190565b60405180910390a450979650505050505050565b600080546001600160a01b038381166001600160a01b0319831681178455604051919092169283917f8be0079c531659141344cd1fd0a4f28419497f9722a3daafe3b4186f6b6457e09190a35050565b60006121ef896001846001600160401b038916612929565b6121f8876129a3565b5090506122078a8a8a846129cb565b9050600081116122295760405162461bcd60e51b815260040161098b90613f33565b6000612240338a612239856125db565b8a8a612ba2565b90506122508a82878787346129fd565b888b6001600160a01b03168b61ffff166000805160206141ca8339815191528560405161227f91815260200190565b60405180910390a4509998505050505050505050565b6060816122a381601f613a9e565b10156122e25760405162461bcd60e51b815260206004820152600e60248201526d736c6963655f6f766572666c6f7760901b604482015260640161098b565b6122ec8284613a9e565b845110156123305760405162461bcd60e51b8152602060048201526011602482015270736c6963655f6f75744f66426f756e647360781b604482015260640161098b565b60608215801561234f5760405191506000825260208201604052612399565b6040519150601f8416801560200281840101858101878315602002848b0101015b81831015612388578051835260209283019201612370565b5050858452601f01601f1916604052505b50949350505050565b60008060006123b5338a6122398b6125db565b60405163040a7bb160e41b81529091506001600160a01b037f000000000000000000000000000000000000000000000000000000000000000016906340a7bb109061240c908d90309086908b908b90600401613ebb565b6040805180830381865afa158015612428573d6000803e3d6000fd5b505050506040513d601f19601f8201168201806040525081019061244c9190613f0f565b925092505097509795505050505050565b600033306001600160a01b0386161480159061248b5750806001600160a01b0316856001600160a01b031614155b1561249b5761249b858285611d50565b6124a6858585611dca565b50909392505050565b6000606060008060008661ffff166001600160401b038111156124d4576124d46134ca565b6040519080825280601f01601f1916602001820160405280156124fe576020820181803683370190505b50905060008087516020890160008d8df191503d925086831115612520578692505b828152826000602083013e909890975095505050505050565b8180519060200120600560008761ffff1661ffff1681526020019081526020016000208560405161256a9190613f66565b9081526040805191829003602090810183206001600160401b0388166000908152915220919091557fe183f33de2837795525b4792ca4cd60535bd77c53b7e7030060bfcf5734d6b0c906125c79087908790879087908790613f82565b60405180910390a15050505050565b505050565b6000806125e6612be3565b6125f09084613fea565b90506001600160401b03811115610b795760405162461bcd60e51b815260206004820152601a6024820152794f4654436f72653a20616d6f756e745344206f766572666c6f7760301b604482015260640161098b565b6000612653826001613a9e565b835110156126995760405162461bcd60e51b8152602060048201526013602482015272746f55696e74385f6f75744f66426f756e647360681b604482015260640161098b565b50016001015190565b6000806126ae83612c07565b90925090506001600160a01b0382166126c75761dead91505b60006126d282612c61565b90506126df878483612c7e565b9050826001600160a01b03168761ffff166000805160206141ea8339815191528360405161270f91815260200190565b60405180910390a350505050505050565b600080600080600061273186612c91565b945094509450945094506000600760008b61ffff1661ffff168152602001908152602001600020896040516127669190613f66565b90815260408051602092819003830190206001600160401b038b166000908152925281205460ff16915061279985612c61565b905081612807576127ab8b3083612c7e565b61ffff8c166000908152600760205260409081902090519192506001916127d3908d90613f66565b90815260408051602092819003830190206001600160401b038d16600090815292529020805460ff19169115159190911790555b6001600160a01b0386163b612859577f9aedf5fdba8716db3b6705ca00150643309995d4f818a249ed6dde6677e7792d866040516128459190613764565b60405180910390a150505050505050611dc4565b8a8a8a8a8a8a868a60008a612877578b6001600160401b0316612879565b5a5b90506000806128ab5a609663eaffd49a60e01b8e8e8e8d8d8d8d8d604051602401611b7c989796959493929190613ffe565b915091508115612904578751602089012060405161ffff8d16907fb8890edbfc1c74692f527444645f95489c3703cc2df42e4a366f5d06fa6cd884906128f6908e908e908690614072565b60405180910390a250612911565b6129118b8b8b8b85612539565b50505050505050505050505050505050505050505050565b60065460ff16156129455761294084848484612d1d565b611dc4565b815115611dc45760405162461bcd60e51b815260206004820152602660248201527f4f4654436f72653a205f61646170746572506172616d73206d7573742062652060448201526532b6b83a3c9760d11b606482015260840161098b565b6000806129ae612be3565b6129b890846140a0565b90506129c48184613b3e565b9150915091565b6000336001600160a01b03861681146129e9576129e9868285611d50565b6129f38684612df7565b5090949350505050565b61ffff861660009081526001602052604081208054612a1b90613a44565b80601f0160208091040260200160405190810160405280929190818152602001828054612a4790613a44565b8015612a945780601f10612a6957610100808354040283529160200191612a94565b820191906000526020600020905b815481529060010190602001808311612a7757829003601f168201915b505050505090508051600003612b055760405162461bcd60e51b815260206004820152603060248201527f4c7a4170703a2064657374696e6174696f6e20636861696e206973206e6f742060448201526f61207472757374656420736f7572636560801b606482015260840161098b565b612b10878751612f19565b60405162c5803160e81b81526001600160a01b037f0000000000000000000000000000000000000000000000000000000000000000169063c5803100908490612b67908b9086908c908c908c908c906004016140b4565b6000604051808303818588803b158015612b8057600080fd5b505af1158015612b94573d6000803e3d6000fd5b505050505050505050505050565b6060600185856001600160a01b0389168587604051602001612bc99695949392919061411b565b604051602081830303815290604052905095945050505050565b7f000000000000000000000000000000000000000000000000000000000000000090565b60008080612c158482612646565b60ff16148015612c26575082516029145b612c425760405162461bcd60e51b815260040161098b90614180565b612c4d83600d612f8a565b9150612c5a836021612fef565b9050915091565b6000612c6b612be3565b610b79906001600160401b0384166141b2565b6000612c8a838361304c565b5092915050565b600080806060816001612ca48783612646565b60ff1614612cc45760405162461bcd60e51b815260040161098b90614180565b612ccf86600d612f8a565b9350612cdc866021612fef565b9250612ce98660296130fb565b9450612cf6866049612fef565b9050612d126051808851612d0a9190613b3e565b889190612295565b915091939590929450565b6000612d2883613159565b61ffff808716600090815260026020908152604080832093891683529290529081205491925090612d5a908490613a9e565b905060008111612da95760405162461bcd60e51b815260206004820152601a602482015279131e905c1c0e881b5a5b91d85cd31a5b5a5d081b9bdd081cd95d60321b604482015260640161098b565b80821015610fea5760405162461bcd60e51b815260206004820152601b60248201527a4c7a4170703a20676173206c696d697420697320746f6f206c6f7760281b604482015260640161098b565b6001600160a01b038216612e575760405162461bcd60e51b815260206004820152602160248201527f45524332303a206275726e2066726f6d20746865207a65726f206164647265736044820152607360f81b606482015260840161098b565b6001600160a01b03821660009081526008602052604090205481811015612ecb5760405162461bcd60e51b815260206004820152602260248201527f45524332303a206275726e20616d6f756e7420657863656564732062616c616e604482015261636560f01b606482015260840161098b565b6001600160a01b03831660008181526008602090815260408083208686039055600a805487900390555185815291929160008051602061420a833981519152910160405180910390a3505050565b61ffff821660009081526003602052604081205490819003612f3a57506127105b808211156125d65760405162461bcd60e51b815260206004820181905260248201527f4c7a4170703a207061796c6f61642073697a6520697320746f6f206c61726765604482015260640161098b565b6000612f97826014613a9e565b83511015612fdf5760405162461bcd60e51b8152602060048201526015602482015274746f416464726573735f6f75744f66426f756e647360581b604482015260640161098b565b500160200151600160601b900490565b6000612ffc826008613a9e565b835110156130435760405162461bcd60e51b8152602060048201526014602482015273746f55696e7436345f6f75744f66426f756e647360601b604482015260640161098b565b50016008015190565b6001600160a01b0382166130a25760405162461bcd60e51b815260206004820152601f60248201527f45524332303a206d696e7420746f20746865207a65726f206164647265737300604482015260640161098b565b80600a60008282546130b49190613a9e565b90915550506001600160a01b03821660008181526008602090815260408083208054860190555184815260008051602061420a833981519152910160405180910390a35050565b6000613108826020613a9e565b835110156131505760405162461bcd60e51b8152602060048201526015602482015274746f427974657333325f6f75744f66426f756e647360581b604482015260640161098b565b50016020015190565b60006022825110156131ac5760405162461bcd60e51b815260206004820152601c60248201527b4c7a4170703a20696e76616c69642061646170746572506172616d7360201b604482015260640161098b565b506022015190565b803561ffff811681146131c657600080fd5b919050565b60008083601f8401126131dd57600080fd5b5081356001600160401b038111156131f457600080fd5b60208301915083602082850101111561320c57600080fd5b9250929050565b80356001600160401b03811681146131c657600080fd5b6000806000806000806080878903121561324357600080fd5b61324c876131b4565b955060208701356001600160401b038082111561326857600080fd5b6132748a838b016131cb565b909750955085915061328860408a01613213565b9450606089013591508082111561329e57600080fd5b506132ab89828a016131cb565b979a9699509497509295939492505050565b6000602082840312156132cf57600080fd5b81356001600160e01b0319811681146112f757600080fd5b60005b838110156133025781810151838201526020016132ea565b50506000910152565b600081518084526133238160208601602086016132e7565b601f01601f19169290920160200192915050565b6020815260006112f7602083018461330b565b60006020828403121561335c57600080fd5b6112f7826131b4565b6001600160a01b0381168114611aa057600080fd5b6000806040838503121561338d57600080fd5b823561339881613365565b946020939093013593505050565b600080604083850312156133b957600080fd5b613398836131b4565b6000806000606084860312156133d757600080fd5b83356133e281613365565b925060208401356133f281613365565b929592945050506040919091013590565b803580151581146131c657600080fd5b60008060008060008060a0878903121561342c57600080fd5b613435876131b4565b9550602087013594506040870135935061345160608801613403565b925060808701356001600160401b0381111561346c57600080fd5b6132ab89828a016131cb565b60008060006040848603121561348d57600080fd5b613496846131b4565b925060208401356001600160401b038111156134b157600080fd5b6134bd868287016131cb565b9497909650939450505050565b634e487b7160e01b600052604160045260246000fd5b604051601f8201601f191681016001600160401b0381118282101715613508576135086134ca565b604052919050565b60006001600160401b03821115613529576135296134ca565b50601f01601f191660200190565b60008060006060848603121561354c57600080fd5b613555846131b4565b925060208401356001600160401b0381111561357057600080fd5b8401601f8101861361358157600080fd5b803561359461358f82613510565b6134e0565b8181528760208385010111156135a957600080fd5b816020840160208301376000602083830101528094505050506135ce60408501613213565b90509250925092565b6000606082840312156135e957600080fd5b50919050565b600080600080600060a0868803121561360757600080fd5b853561361281613365565b9450613620602087016131b4565b9350604086013592506060860135915060808601356001600160401b0381111561364957600080fd5b613655888289016135d7565b9150509295509295909350565b60006020828403121561367457600080fd5b81356112f781613365565b60008060008060008060008060e0898b03121561369b57600080fd5b88356136a681613365565b97506136b460208a016131b4565b9650604089013595506060890135945060808901356001600160401b03808211156136de57600080fd5b6136ea8c838d016131cb565b90965094508491506136fe60a08c01613213565b935060c08b013591508082111561371457600080fd5b506137218b828c016135d7565b9150509295985092959890939650565b6000806040838503121561374457600080fd5b61374d836131b4565b915061375b602084016131b4565b90509250929050565b6001600160a01b0391909116815260200190565b600080600080600080600080600060e08a8c03121561379657600080fd5b61379f8a6131b4565b985060208a0135975060408a0135965060608a01356001600160401b03808211156137c957600080fd5b6137d58d838e016131cb565b90985096508691506137e960808d01613213565b95506137f760a08d01613403565b945060c08c013591508082111561380d57600080fd5b5061381a8c828d016131cb565b915080935050809150509295985092959850929598565b60008060008060006080868803121561384957600080fd5b613852866131b4565b9450613860602087016131b4565b93506040860135925060608601356001600160401b0381111561388257600080fd5b61388e888289016131cb565b969995985093965092949392505050565b600080604083850312156138b257600080fd5b82356138bd81613365565b915060208301356138cd81613365565b809150509250929050565b6000806000606084860312156138ed57600080fd5b6138f6846131b4565b9250613904602085016131b4565b9150604084013590509250925092565b60006020828403121561392657600080fd5b6112f782613403565b6000806000806000806000806000806101008b8d03121561394f57600080fd5b6139588b6131b4565b995060208b01356001600160401b038082111561397457600080fd5b6139808e838f016131cb565b909b50995089915061399460408e01613213565b985060608d0135975060808d013591506139ad82613365565b90955060a08c0135945060c08c013590808211156139ca57600080fd5b506139d78d828e016131cb565b9150809450508092505060e08b013590509295989b9194979a5092959850565b60008060008060808587031215613a0d57600080fd5b613a16856131b4565b9350613a24602086016131b4565b92506040850135613a3481613365565b9396929550929360600135925050565b600181811c90821680613a5857607f821691505b6020821081036135e957634e487b7160e01b600052602260045260246000fd5b8183823760009101908152919050565b634e487b7160e01b600052601160045260246000fd5b80820180821115610b7957610b79613a88565b81835281816020850137506000828201602090810191909152601f909101601f19169091010190565b61ffff84168152604060208201526000611b4b604083018486613ab1565b6000808335601e19843603018112613b0f57600080fd5b8301803591506001600160401b03821115613b2957600080fd5b60200191503681900382131561320c57600080fd5b81810381811115610b7957610b79613a88565b8284823760609190911b6001600160601b0319169101908152601401919050565b601f8211156125d657600081815260208120601f850160051c81016020861015613b995750805b601f850160051c820191505b81811015610fea57828155600101613ba5565b600019600383901b1c191660019190911b1790565b81516001600160401b03811115613be657613be66134ca565b613bfa81613bf48454613a44565b84613b72565b602080601f831160018114613c295760008415613c175750858301515b613c218582613bb8565b865550610fea565b600085815260208120601f198616915b82811015613c5857888601518255948401946001909101908401613c39565b5085821015613c765787850151600019600388901b60f8161c191681555b5050505050600190811b01905550565b600061ffff808816835280871660208401525084604083015260806060830152613cb4608083018486613ab1565b979650505050505050565b61ffff86168152608060208201526000613cdd608083018688613ab1565b6001600160401b0394909416604083015250606001529392505050565b61ffff8916815260c060208201526000613d1860c08301898b613ab1565b6001600160401b0388166040840152606083018790526080830186905282810360a0840152613d48818587613ab1565b9b9a5050505050505050505050565b6001600160401b03831115613d6e57613d6e6134ca565b613d8283613d7c8354613a44565b83613b72565b6000601f841160018114613db05760008515613d9e5750838201355b613da88682613bb8565b845550610c93565b600083815260209020601f19861690835b82811015613de15786850135825560209485019460019092019101613dc1565b5086821015613dfe5760001960f88860031b161c19848701351681555b505060018560011b0183555050505050565b600060208284031215613e2257600080fd5b81516001600160401b03811115613e3857600080fd5b8201601f81018413613e4957600080fd5b8051613e5761358f82613510565b818152856020838501011115613e6c57600080fd5b611b4b8260208301602086016132e7565b61ffff85168152608060208201526000613e9a608083018661330b565b6001600160401b03851660408401528281036060840152613cb4818561330b565b61ffff861681526001600160a01b038516602082015260a060408201819052600090613ee99083018661330b565b84151560608401528281036080840152613f03818561330b565b98975050505050505050565b60008060408385031215613f2257600080fd5b505080516020909101519092909150565b60208082526019908201527813d19510dbdc994e88185b5bdd5b9d081d1bdbc81cdb585b1b603a1b604082015260600190565b60008251613f788184602087016132e7565b9190910192915050565b61ffff8616815260a060208201526000613f9f60a083018761330b565b6001600160401b03861660408401528281036060840152613fc0818661330b565b90508281036080840152613f03818561330b565b634e487b7160e01b600052601260045260246000fd5b600082613ff957613ff9613fd4565b500490565b600061010061ffff8b16835280602084015261401c8184018b61330b565b6001600160401b038a166040850152606084018990526001600160a01b038816608085015260a0840187905283810360c0850152905061405c818661330b565b9150508260e08301529998505050505050505050565b606081526000614085606083018661330b565b6001600160401b039490941660208301525060400152919050565b6000826140af576140af613fd4565b500690565b61ffff8716815260c0602082015260006140d160c083018861330b565b82810360408401526140e3818861330b565b6001600160a01b0387811660608601528616608085015283810360a0850152905061410e818561330b565b9998505050505050505050565b6001600160f81b031960f888901b168152600181018690526001600160c01b031960c086811b821660218401526029830186905284901b166049820152815160009061416e8160518501602087016132e7565b91909101605101979650505050505050565b60208082526018908201527713d19510dbdc994e881a5b9d985b1a59081c185e5b1bd85960421b604082015260600190565b8082028115828204841417610b7957610b79613a8856fed81fc9b8523134ed613870ed029d6170cbb73aa6a6bc311b9a642689fb9df59abf551ec93859b170f9b2141bd9298bf3f64322c6f7beb2543a0cb669834118bfddf252ad1be2c89b69c2b068fc378daa952ba7f163c4a11628f55a4df523b3efa2646970667358221220c53e56ef1fe9ef45cf86a4fafb7a8bfd727ba88884c6aa56817b1ea02576a2de64736f6c63430008110033",
  "linkReferences": {},
  "deployedLinkReferences": {}
}