{
  "_format": "hh-sol-artifact-1",
  "contractName": "YOUStakingTester",
  "sourceName": "contracts/TestContracts/YOUStakingTester.sol",
  "abi": [
    {
      "anonymous": false,
      "inputs": [
        {
          "indexed": false,
          "internalType": "address",
          "name": "_activePoolAddress",
          "type": "address"
        }
      ],
      "name": "ActivePoolAddressSet",
      "type": "event"
    },
    {
      "anonymous": false,
      "inputs": [
        {
          "indexed": true,
          "internalType": "address",
          "name": "_asset",
          "type": "address"
        },
        {
          "indexed": true,
          "internalType": "address",
          "name": "_account",
          "type": "address"
        },
        {
          "indexed": false,
          "internalType": "uint256",
          "name": "_amount",
          "type": "uint256"
        }
      ],
      "name": "AssetSent",
      "type": "event"
    },
    {
      "anonymous": false,
      "inputs": [
        {
          "indexed": false,
          "internalType": "address",
          "name": "_borrowerOperationsAddress",
          "type": "address"
        }
      ],
      "name": "BorrowerOperationsAddressSet",
      "type": "event"
    },
    {
      "anonymous": false,
      "inputs": [
        {
          "indexed": true,
          "internalType": "address",
          "name": "_asset",
          "type": "address"
        },
        {
          "indexed": false,
          "internalType": "uint256",
          "name": "_F_ASSET",
          "type": "uint256"
        }
      ],
      "name": "F_AssetUpdated",
      "type": "event"
    },
    {
      "anonymous": false,
      "inputs": [
        {
          "indexed": false,
          "internalType": "uint256",
          "name": "_F_U",
          "type": "uint256"
        }
      ],
      "name": "F_UUpdated",
      "type": "event"
    },
    {
      "anonymous": false,
      "inputs": [
        {
          "indexed": false,
          "internalType": "uint8",
          "name": "version",
          "type": "uint8"
        }
      ],
      "name": "Initialized",
      "type": "event"
    },
    {
      "anonymous": false,
      "inputs": [
        {
          "indexed": true,
          "internalType": "address",
          "name": "previousOwner",
          "type": "address"
        },
        {
          "indexed": true,
          "internalType": "address",
          "name": "newOwner",
          "type": "address"
        }
      ],
      "name": "OwnershipTransferred",
      "type": "event"
    },
    {
      "anonymous": false,
      "inputs": [
        {
          "indexed": false,
          "internalType": "address",
          "name": "account",
          "type": "address"
        }
      ],
      "name": "Paused",
      "type": "event"
    },
    {
      "anonymous": false,
      "inputs": [
        {
          "indexed": true,
          "internalType": "address",
          "name": "_asset",
          "type": "address"
        },
        {
          "indexed": false,
          "internalType": "uint256",
          "name": "_amount",
          "type": "uint256"
        }
      ],
      "name": "SentToTreasury",
      "type": "event"
    },
    {
      "anonymous": false,
      "inputs": [
        {
          "indexed": true,
          "internalType": "address",
          "name": "staker",
          "type": "address"
        },
        {
          "indexed": false,
          "internalType": "uint256",
          "name": "newStake",
          "type": "uint256"
        }
      ],
      "name": "StakeChanged",
      "type": "event"
    },
    {
      "anonymous": false,
      "inputs": [
        {
          "indexed": false,
          "internalType": "address",
          "name": "_staker",
          "type": "address"
        },
        {
          "indexed": false,
          "internalType": "uint256",
          "name": "_F_Asset",
          "type": "uint256"
        },
        {
          "indexed": false,
          "internalType": "uint256",
          "name": "_F_U",
          "type": "uint256"
        }
      ],
      "name": "StakerSnapshotsUpdated",
      "type": "event"
    },
    {
      "anonymous": false,
      "inputs": [
        {
          "indexed": true,
          "internalType": "address",
          "name": "staker",
          "type": "address"
        },
        {
          "indexed": true,
          "internalType": "address",
          "name": "asset",
          "type": "address"
        },
        {
          "indexed": false,
          "internalType": "uint256",
          "name": "AssetGain",
          "type": "uint256"
        }
      ],
      "name": "StakingGainsAssetWithdrawn",
      "type": "event"
    },
    {
      "anonymous": false,
      "inputs": [
        {
          "indexed": true,
          "internalType": "address",
          "name": "staker",
          "type": "address"
        },
        {
          "indexed": false,
          "internalType": "uint256",
          "name": "UGain",
          "type": "uint256"
        }
      ],
      "name": "StakingGainsUWithdrawn",
      "type": "event"
    },
    {
      "anonymous": false,
      "inputs": [
        {
          "indexed": false,
          "internalType": "uint256",
          "name": "_totalYOUStaked",
          "type": "uint256"
        }
      ],
      "name": "TotalYOUStakedUpdated",
      "type": "event"
    },
    {
      "anonymous": false,
      "inputs": [
        {
          "indexed": false,
          "internalType": "address",
          "name": "_treausury",
          "type": "address"
        }
      ],
      "name": "TreasuryAddressChanged",
      "type": "event"
    },
    {
      "anonymous": false,
      "inputs": [
        {
          "indexed": false,
          "internalType": "address",
          "name": "_troveManager",
          "type": "address"
        }
      ],
      "name": "TroveManagerAddressSet",
      "type": "event"
    },
    {
      "anonymous": false,
      "inputs": [
        {
          "indexed": false,
          "internalType": "address",
          "name": "_uTokenAddress",
          "type": "address"
        }
      ],
      "name": "UTokenAddressSet",
      "type": "event"
    },
    {
      "anonymous": false,
      "inputs": [
        {
          "indexed": false,
          "internalType": "address",
          "name": "account",
          "type": "address"
        }
      ],
      "name": "Unpaused",
      "type": "event"
    },
    {
      "anonymous": false,
      "inputs": [
        {
          "indexed": false,
          "internalType": "address",
          "name": "_YOUTokenAddress",
          "type": "address"
        }
      ],
      "name": "YOUTokenAddressSet",
      "type": "event"
    },
    {
      "inputs": [],
      "name": "DECIMAL_PRECISION",
      "outputs": [
        {
          "internalType": "uint256",
          "name": "",
          "type": "uint256"
        }
      ],
      "stateMutability": "view",
      "type": "function"
    },
    {
      "inputs": [
        {
          "internalType": "address",
          "name": "",
          "type": "address"
        }
      ],
      "name": "F_ASSETS",
      "outputs": [
        {
          "internalType": "uint256",
          "name": "",
          "type": "uint256"
        }
      ],
      "stateMutability": "view",
      "type": "function"
    },
    {
      "inputs": [],
      "name": "F_U",
      "outputs": [
        {
          "internalType": "uint256",
          "name": "",
          "type": "uint256"
        }
      ],
      "stateMutability": "view",
      "type": "function"
    },
    {
      "inputs": [],
      "name": "NAME",
      "outputs": [
        {
          "internalType": "string",
          "name": "",
          "type": "string"
        }
      ],
      "stateMutability": "view",
      "type": "function"
    },
    {
      "inputs": [],
      "name": "activePoolAddress",
      "outputs": [
        {
          "internalType": "address",
          "name": "",
          "type": "address"
        }
      ],
      "stateMutability": "view",
      "type": "function"
    },
    {
      "inputs": [],
      "name": "borrowerOperationsAddress",
      "outputs": [
        {
          "internalType": "address",
          "name": "",
          "type": "address"
        }
      ],
      "stateMutability": "view",
      "type": "function"
    },
    {
      "inputs": [
        {
          "internalType": "address",
          "name": "_treasury",
          "type": "address"
        }
      ],
      "name": "changeTreasuryAddress",
      "outputs": [],
      "stateMutability": "nonpayable",
      "type": "function"
    },
    {
      "inputs": [
        {
          "internalType": "address",
          "name": "_asset",
          "type": "address"
        },
        {
          "internalType": "address",
          "name": "_user",
          "type": "address"
        }
      ],
      "name": "getPendingAssetGain",
      "outputs": [
        {
          "internalType": "uint256",
          "name": "",
          "type": "uint256"
        }
      ],
      "stateMutability": "view",
      "type": "function"
    },
    {
      "inputs": [
        {
          "internalType": "address",
          "name": "_user",
          "type": "address"
        }
      ],
      "name": "getPendingUGain",
      "outputs": [
        {
          "internalType": "uint256",
          "name": "",
          "type": "uint256"
        }
      ],
      "stateMutability": "view",
      "type": "function"
    },
    {
      "inputs": [
        {
          "internalType": "address",
          "name": "_asset",
          "type": "address"
        },
        {
          "internalType": "uint256",
          "name": "_AssetFee",
          "type": "uint256"
        }
      ],
      "name": "increaseF_Asset",
      "outputs": [],
      "stateMutability": "nonpayable",
      "type": "function"
    },
    {
      "inputs": [
        {
          "internalType": "uint256",
          "name": "_UFee",
          "type": "uint256"
        }
      ],
      "name": "increaseF_U",
      "outputs": [],
      "stateMutability": "nonpayable",
      "type": "function"
    },
    {
      "inputs": [],
      "name": "isInitialized",
      "outputs": [
        {
          "internalType": "bool",
          "name": "",
          "type": "bool"
        }
      ],
      "stateMutability": "view",
      "type": "function"
    },
    {
      "inputs": [],
      "name": "owner",
      "outputs": [
        {
          "internalType": "address",
          "name": "",
          "type": "address"
        }
      ],
      "stateMutability": "view",
      "type": "function"
    },
    {
      "inputs": [],
      "name": "pause",
      "outputs": [],
      "stateMutability": "nonpayable",
      "type": "function"
    },
    {
      "inputs": [],
      "name": "paused",
      "outputs": [
        {
          "internalType": "bool",
          "name": "",
          "type": "bool"
        }
      ],
      "stateMutability": "view",
      "type": "function"
    },
    {
      "inputs": [],
      "name": "renounceOwnership",
      "outputs": [],
      "stateMutability": "nonpayable",
      "type": "function"
    },
    {
      "inputs": [],
      "name": "requireCallerIsTroveManager",
      "outputs": [],
      "stateMutability": "view",
      "type": "function"
    },
    {
      "inputs": [
        {
          "internalType": "address",
          "name": "",
          "type": "address"
        }
      ],
      "name": "sentToTreasuryTracker",
      "outputs": [
        {
          "internalType": "uint256",
          "name": "",
          "type": "uint256"
        }
      ],
      "stateMutability": "view",
      "type": "function"
    },
    {
      "inputs": [
        {
          "internalType": "address",
          "name": "_youTokenAddress",
          "type": "address"
        },
        {
          "internalType": "address",
          "name": "_uTokenAddress",
          "type": "address"
        },
        {
          "internalType": "address",
          "name": "_troveManagerAddress",
          "type": "address"
        },
        {
          "internalType": "address",
          "name": "_borrowerOperationsAddress",
          "type": "address"
        },
        {
          "internalType": "address",
          "name": "_activePoolAddress",
          "type": "address"
        },
        {
          "internalType": "address",
          "name": "_treasury",
          "type": "address"
        }
      ],
      "name": "setAddresses",
      "outputs": [],
      "stateMutability": "nonpayable",
      "type": "function"
    },
    {
      "inputs": [
        {
          "internalType": "address",
          "name": "",
          "type": "address"
        }
      ],
      "name": "snapshots",
      "outputs": [
        {
          "internalType": "uint256",
          "name": "F_U_Snapshot",
          "type": "uint256"
        }
      ],
      "stateMutability": "view",
      "type": "function"
    },
    {
      "inputs": [
        {
          "internalType": "uint256",
          "name": "_YOUamount",
          "type": "uint256"
        }
      ],
      "name": "stake",
      "outputs": [],
      "stateMutability": "nonpayable",
      "type": "function"
    },
    {
      "inputs": [
        {
          "internalType": "address",
          "name": "",
          "type": "address"
        }
      ],
      "name": "stakes",
      "outputs": [
        {
          "internalType": "uint256",
          "name": "",
          "type": "uint256"
        }
      ],
      "stateMutability": "view",
      "type": "function"
    },
    {
      "inputs": [],
      "name": "totalYOUStaked",
      "outputs": [
        {
          "internalType": "uint256",
          "name": "",
          "type": "uint256"
        }
      ],
      "stateMutability": "view",
      "type": "function"
    },
    {
      "inputs": [
        {
          "internalType": "address",
          "name": "newOwner",
          "type": "address"
        }
      ],
      "name": "transferOwnership",
      "outputs": [],
      "stateMutability": "nonpayable",
      "type": "function"
    },
    {
      "inputs": [],
      "name": "treasury",
      "outputs": [
        {
          "internalType": "address",
          "name": "",
          "type": "address"
        }
      ],
      "stateMutability": "view",
      "type": "function"
    },
    {
      "inputs": [],
      "name": "troveManagerAddress",
      "outputs": [
        {
          "internalType": "address",
          "name": "",
          "type": "address"
        }
      ],
      "stateMutability": "view",
      "type": "function"
    },
    {
      "inputs": [],
      "name": "uToken",
      "outputs": [
        {
          "internalType": "contract IERC20Upgradeable",
          "name": "",
          "type": "address"
        }
      ],
      "stateMutability": "view",
      "type": "function"
    },
    {
      "inputs": [],
      "name": "unpause",
      "outputs": [],
      "stateMutability": "nonpayable",
      "type": "function"
    },
    {
      "inputs": [
        {
          "internalType": "uint256",
          "name": "_YOUamount",
          "type": "uint256"
        }
      ],
      "name": "unstake",
      "outputs": [],
      "stateMutability": "nonpayable",
      "type": "function"
    },
    {
      "inputs": [],
      "name": "youToken",
      "outputs": [
        {
          "internalType": "contract IERC20Upgradeable",
          "name": "",
          "type": "address"
        }
      ],
      "stateMutability": "view",
      "type": "function"
    },
    {
      "stateMutability": "payable",
      "type": "receive"
    }
  ],
  "bytecode": "0x608060405234801561001057600080fd5b5061221f806100206000396000f3fe6080604052600436106101615760003560e01c8063122581e6146101d857806316934fc4146101f85780632e17de78146102385780632ffbaa551461025857806334b3081f146102785780633522c6e8146102a8578063392e53cd146102c85780633b95b91d146102f25780633f4ba83a146103075780634438c9511461031c5780635a4d28bb146103325780635c975abb1461035f57806361d027b31461037757806363315637146103975780636b11ea20146103b75780636cfb6bf9146103d7578063715018a6146103f75780638174a5f21461040c5780638456cb5914610439578063852cdece1461044e5780638da5cb5b1461046e578063955d3ca414610483578063a20baee6146104b0578063a3f4df7e146104cc578063a694fc3a1461050f578063a6f353f01461052f578063b08bc7221461054f578063b7f8cf9b1461056f578063e9be48f81461058f578063f2fde38b146105a557600080fd5b366101d35760d6546001600160a01b031633146101d15760405162461bcd60e51b8152602060048201526024808201527f594f555374616b696e673a2063616c6c6572206973206e6f7420416374697665604482015263141bdbdb60e21b60648201526084015b60405180910390fd5b005b600080fd5b3480156101e457600080fd5b506101d16101f3366004611d0f565b6105c5565b34801561020457600080fd5b50610225610213366004611d39565b60ca6020526000908152604090205481565b6040519081526020015b60405180910390f35b34801561024457600080fd5b506101d1610253366004611d54565b610727565b34801561026457600080fd5b50610225610273366004611d39565b6109a7565b34801561028457600080fd5b50610225610293366004611d39565b60ce6020526000908152604090206001015481565b3480156102b457600080fd5b506102256102c3366004611d6d565b6109b8565b3480156102d457600080fd5b5060c9546102e29060ff1681565b604051901515815260200161022f565b3480156102fe57600080fd5b506101d16109cb565b34801561031357600080fd5b506101d16109f7565b34801561032857600080fd5b5061022560cb5481565b34801561033e57600080fd5b5060d454610352906001600160a01b031681565b60405161022f9190611da0565b34801561036b57600080fd5b5060335460ff166102e2565b34801561038357600080fd5b5060d754610352906001600160a01b031681565b3480156103a357600080fd5b5060d354610352906001600160a01b031681565b3480156103c357600080fd5b5060d254610352906001600160a01b031681565b3480156103e357600080fd5b506101d16103f2366004611db4565b610a07565b34801561040357600080fd5b506101d1610dba565b34801561041857600080fd5b50610225610427366004611d39565b60cc6020526000908152604090205481565b34801561044557600080fd5b506101d1610dcc565b34801561045a57600080fd5b506101d1610469366004611d54565b610ddc565b34801561047a57600080fd5b50610352610ed6565b34801561048f57600080fd5b5061022561049e366004611d39565b60d16020526000908152604090205481565b3480156104bc57600080fd5b50610225670de0b6b3a764000081565b3480156104d857600080fd5b506105026040518060400160405280600a815260200169594f555374616b696e6760b01b81525081565b60405161022f9190611e4c565b34801561051b57600080fd5b506101d161052a366004611d54565b610ee5565b34801561053b57600080fd5b506101d161054a366004611d39565b611165565b34801561055b57600080fd5b5060d654610352906001600160a01b031681565b34801561057b57600080fd5b5060d554610352906001600160a01b031681565b34801561059b57600080fd5b5061022560cd5481565b3480156105b157600080fd5b506101d16105c0366004611d39565b6111c3565b60d4546001600160a01b031633146105ef5760405162461bcd60e51b81526004016101c890611e7f565b60335460ff1615610608576106048282611239565b5050565b6001600160a01b038216600090815260d0602052604090205460ff1661067c576001600160a01b038216600081815260d060205260408120805460ff1916600190811790915560cf8054918201815590915260008051602061214a8339815191520180546001600160a01b03191690911790555b60cb54600090156106a95760cb546106a6906106a084670de0b6b3a76400006112bf565b906112cb565b90505b6001600160a01b038316600090815260cc60205260409020546106cc90826112d7565b6001600160a01b038416600081815260cc6020526040908190208390555190917fae1df072173f21c2cc2e0aa1368be1b6b7b0f4f295d82ccae83bd489a5575f299161071a91815260200190565b60405180910390a2505050565b61072f6112e3565b33600090815260ca60205260409020546107488161133c565b60cf54600080805b838110156108915760cf818154811061076b5761076b611eb4565b6000918252602090912001546001600160a01b0316915061078c82336113a0565b92508060000361083d5760006107a13361141a565b60d35460405163a9059cbb60e01b81529192506001600160a01b03169063a9059cbb906107d49033908590600401611eca565b6020604051808303816000875af11580156107f3573d6000803e3d6000fd5b505050506040513d601f19601f820116820180604052508101906108179190611ee3565b50604051818152339060008051602061212a8339815191529060200160405180910390a2505b610847823361145f565b6040518381526001600160a01b03831690339060008051602061218a8339815191529060200160405180910390a361087f82846114e2565b8061088981611f1b565b915050610750565b5084156109965760006108a4868661153d565b905060006108b28683611553565b33600090815260ca6020526040902081905560cb549091506108d49083611553565b60cb8190556040519081526000805160206121ca8339815191529060200160405180910390a160d25460405163a9059cbb60e01b81526001600160a01b039091169063a9059cbb9061092c9033908690600401611eca565b6020604051808303816000875af115801561094b573d6000803e3d6000fd5b505050506040513d601f19601f8201168201806040525081019061096f9190611ee3565b5060405181815233906000805160206121aa8339815191529060200160405180910390a250505b505050506109a46001609755565b50565b60006109b28261141a565b92915050565b60006109c483836113a0565b9392505050565b60d4546001600160a01b031633146109f55760405162461bcd60e51b81526004016101c890611e7f565b565b6109ff611566565b6109f56115c5565b600054610100900460ff1615808015610a275750600054600160ff909116105b80610a485750610a3630611611565b158015610a48575060005460ff166001145b610aab5760405162461bcd60e51b815260206004820152602e60248201527f496e697469616c697a61626c653a20636f6e747261637420697320616c72656160448201526d191e481a5b9a5d1a585b1a5e995960921b60648201526084016101c8565b6000805460ff191660011790558015610ace576000805461ff0019166101001790555b60c95460ff1615610b175760405162461bcd60e51b8152602060048201526013602482015272105b1c9958591e48125b9a5d1a585b1a5e9959606a1b60448201526064016101c8565b6001600160a01b038216610b685760405162461bcd60e51b8152602060048201526018602482015277496e76616c6964205472656175737279204164647265737360401b60448201526064016101c8565b610b7187611620565b610b7a86611620565b610b8385611620565b610b8c84611620565b610b9583611620565b60c9805460ff19166001179055610baa6116c5565b610bb26116f4565b610bba611723565b610bc2611752565b60d280546001600160a01b03199081166001600160a01b038a81169190911790925560d38054821689841617905560d48054821688841617905560d58054821687841617905560d68054821686841617905560d7805482169285169290921790915560d06020527f790dca8aa28f25f1915553dd78bb1fae41686aabbb62ea6516ab2cafb7d25899805460ff1916600190811790915560cf8054918201815560005260008051602061214a833981519152018054909116905560405160008051602061216a83398151915290610c99908990611da0565b60405180910390a160008051602061216a83398151915286604051610cbe9190611da0565b60405180910390a17f41097dcc1f7cbd663d822443d7972f05b04f71918b30fe9fc59dd6e42e22806085604051610cf59190611da0565b60405180910390a17f5962f8af633c4df1ab230096f773a514ee5adf7785c621ecdcdb764cb7f6e39184604051610d2c9190611da0565b60405180910390a17f8f6a6e7d20a3233e0a79883272259ffbd7a243734e397bc2b4642c79d7fa8a6d83604051610d639190611da0565b60405180910390a18015610db1576000805461ff0019169055604051600181527f7f26b83ff96e1f2b6a682f133852f6798a09c465da95921460cefb38474024989060200160405180910390a15b50505050505050565b610dc2611566565b6109f5600061178f565b610dd4611566565b6109f5611752565b60d5546001600160a01b03163314610e445760405162461bcd60e51b815260206004820152602560248201527f594f555374616b696e673a2063616c6c6572206973206e6f7420426f72726f7760448201526465724f707360d81b60648201526084016101c8565b60335460ff1615610e655760d3546109a4906001600160a01b031682611239565b60cb5460009015610e8c5760cb54610e89906106a084670de0b6b3a76400006112bf565b90505b60cd54610e9990826112d7565b60cd8190556040519081527ff1328c1733e5d818d921abe5088b7689c0087a1189a2e6dd645b0320d39ed510906020015b60405180910390a15050565b6065546001600160a01b031690565b610eed6112e3565b610ef56117e1565b60008111610f0257600080fd5b33600090815260ca602052604081205460cf54909180805b838110156110625760cf8181548110610f3557610f35611eb4565b6000918252602090912001546001600160a01b03169150841561104657610f5c82336113a0565b92508060000361100d576000610f713361141a565b60d35460405163a9059cbb60e01b81529192506001600160a01b03169063a9059cbb90610fa49033908590600401611eca565b6020604051808303816000875af1158015610fc3573d6000803e3d6000fd5b505050506040513d601f19601f82011682018060405250810190610fe79190611ee3565b50604051818152339060008051602061212a8339815191529060200160405180910390a2505b61101782846114e2565b6040518381526001600160a01b03831690339060008051602061218a8339815191529060200160405180910390a35b611050823361145f565b8061105a81611f1b565b915050610f1a565b50600061106f85876112d7565b33600090815260ca6020526040902081905560cb5490915061109190876112d7565b60cb8190556040519081526000805160206121ca8339815191529060200160405180910390a160d2546040516323b872dd60e01b8152336004820152306024820152604481018890526001600160a01b03909116906323b872dd906064016020604051808303816000875af115801561110e573d6000803e3d6000fd5b505050506040513d601f19601f820116820180604052508101906111329190611ee3565b5060405181815233906000805160206121aa8339815191529060200160405180910390a250505050506109a46001609755565b61116d611566565b60d780546001600160a01b0319166001600160a01b0383161790556040517f9073dfac663173e64aa95665faedae52e2246f9bcdd3890fbfaf6733b46bba13906111b8908390611da0565b60405180910390a150565b6111cb611566565b6001600160a01b0381166112305760405162461bcd60e51b815260206004820152602660248201527f4f776e61626c653a206e6577206f776e657220697320746865207a65726f206160448201526564647265737360d01b60648201526084016101c8565b6109a48161178f565b60d754611250906001600160a01b03168383611827565b6001600160a01b038216600090815260d1602052604081208054839290611278908490611f34565b90915550506040518181526001600160a01b038316907fcb3b1cf844e7338746f3d6afd66ab59782b22b7e485960c851b6e77689714da49060200160405180910390a25050565b60006109c48284611f47565b60006109c48284611f5e565b60006109c48284611f34565b6002609754036113355760405162461bcd60e51b815260206004820152601f60248201527f5265656e7472616e637947756172643a207265656e7472616e742063616c6c0060448201526064016101c8565b6002609755565b600081116109a45760405162461bcd60e51b815260206004820152602b60248201527f594f555374616b696e673a2055736572206d75737420686176652061206e6f6e60448201526a2d7a65726f207374616b6560a81b60648201526084016101c8565b6001600160a01b03808216600090815260ce6020908152604080832093861683529281528282205460cc90915291812054909190829061141190670de0b6b3a7640000906106a0906113f29086611553565b6001600160a01b038816600090815260ca6020526040902054906112bf565b95945050505050565b6001600160a01b038116600090815260ce602052604081206001015460cd54829061145790670de0b6b3a7640000906106a0906113f29086611553565b949350505050565b6001600160a01b03828116600081815260cc60208181526040808420805496881680865260ce8452828620968652868452948290209690965560cd5460019095018590559181529354815192835293820193909352918201527f6b5cf27595af4428271524e0a5abd2b63f6fee1a61e31970490f5a10e257a1cd90606001610eca565b6114ec8282611910565b90506114f9338383611827565b60405181815233906001600160a01b038416907ff89c3306c782ffbbe4593aa5673e97e9ad6a8c65d240405e8986363fada663929060200160405180910390a35050565b600081831061154c57816109c4565b5090919050565b60006109c48284611f80565b6001609755565b3361156f610ed6565b6001600160a01b0316146109f55760405162461bcd60e51b815260206004820181905260248201527f4f776e61626c653a2063616c6c6572206973206e6f7420746865206f776e657260448201526064016101c8565b6115cd6119d9565b6033805460ff191690557f5db9ee0a495bf2e6ff9c91a7834c1ba4fdd244a5e8aa4e537bd38aeae4b073aa335b6040516116079190611da0565b60405180910390a1565b6001600160a01b03163b151590565b6001600160a01b0381166116765760405162461bcd60e51b815260206004820152601e60248201527f4163636f756e742063616e6e6f74206265207a65726f2061646472657373000060448201526064016101c8565b803b806106045760405162461bcd60e51b815260206004820181905260248201527f4163636f756e7420636f64652073697a652063616e6e6f74206265207a65726f60448201526064016101c8565b600054610100900460ff166116ec5760405162461bcd60e51b81526004016101c890611f93565b6109f5611a22565b600054610100900460ff1661171b5760405162461bcd60e51b81526004016101c890611f93565b6109f5611a55565b600054610100900460ff1661174a5760405162461bcd60e51b81526004016101c890611f93565b6109f5611a7c565b61175a6117e1565b6033805460ff191660011790557f62e78cea01bee320cd4e420270b5ea74000d11b0c9f74754ebdbfc544b05a2586115fa3390565b606580546001600160a01b038381166001600160a01b0319831681179093556040519116919082907f8be0079c531659141344cd1fd0a4f28419497f9722a3daafe3b4186f6b6457e090600090a35050565b60335460ff16156109f55760405162461bcd60e51b815260206004820152601060248201526f14185d5cd8589b194e881c185d5cd95960821b60448201526064016101c8565b6001600160a01b0382166118f7576000836001600160a01b03168260405160006040518083038185875af1925050503d8060008114611882576040519150601f19603f3d011682016040523d82523d6000602084013e611887565b606091505b50509050806118f15760405162461bcd60e51b815260206004820152603060248201527f594f555374616b696e673a204661696c656420746f2073656e6420616363756d60448201526f3ab630ba32b21020b9b9b2ba23b0b4b760811b60648201526084016101c8565b50505050565b61190b6001600160a01b0383168483611aac565b505050565b60006001600160a01b0383166119275750806109b2565b81600003611937575060006109b2565b6000836001600160a01b031663313ce5676040518163ffffffff1660e01b8152600401602060405180830381865afa158015611977573d6000803e3d6000fd5b505050506040513d601f19601f8201168201806040525081019061199b9190611fde565b905060128160ff1610156119d1576119c96119b7826012612001565b6119c290600a6120fe565b84906112cb565b9150506109b2565b509092915050565b60335460ff166109f55760405162461bcd60e51b815260206004820152601460248201527314185d5cd8589b194e881b9bdd081c185d5cd95960621b60448201526064016101c8565b600054610100900460ff16611a495760405162461bcd60e51b81526004016101c890611f93565b6033805460ff19169055565b600054610100900460ff1661155f5760405162461bcd60e51b81526004016101c890611f93565b600054610100900460ff16611aa35760405162461bcd60e51b81526004016101c890611f93565b6109f53361178f565b61190b8363a9059cbb60e01b8484604051602401611acb929190611eca565b60408051601f198184030181529190526020810180516001600160e01b03166001600160e01b0319909316929092179091526000611b52826040518060400160405280602081526020017f5361666545524332303a206c6f772d6c6576656c2063616c6c206661696c6564815250856001600160a01b0316611bd29092919063ffffffff16565b9050805160001480611b73575080806020019051810190611b739190611ee3565b61190b5760405162461bcd60e51b815260206004820152602a60248201527f5361666545524332303a204552433230206f7065726174696f6e20646964206e6044820152691bdd081cdd58d8d9595960b21b60648201526084016101c8565b6060611457848460008585600080866001600160a01b03168587604051611bf9919061210d565b60006040518083038185875af1925050503d8060008114611c36576040519150601f19603f3d011682016040523d82523d6000602084013e611c3b565b606091505b5091509150611c4c87838387611c57565b979650505050505050565b60608315611cc4578251600003611cbd57611c7185611611565b611cbd5760405162461bcd60e51b815260206004820152601d60248201527f416464726573733a2063616c6c20746f206e6f6e2d636f6e747261637400000060448201526064016101c8565b5081611457565b6114578383815115611cd95781518083602001fd5b8060405162461bcd60e51b81526004016101c89190611e4c565b80356001600160a01b0381168114611d0a57600080fd5b919050565b60008060408385031215611d2257600080fd5b611d2b83611cf3565b946020939093013593505050565b600060208284031215611d4b57600080fd5b6109c482611cf3565b600060208284031215611d6657600080fd5b5035919050565b60008060408385031215611d8057600080fd5b611d8983611cf3565b9150611d9760208401611cf3565b90509250929050565b6001600160a01b0391909116815260200190565b60008060008060008060c08789031215611dcd57600080fd5b611dd687611cf3565b9550611de460208801611cf3565b9450611df260408801611cf3565b9350611e0060608801611cf3565b9250611e0e60808801611cf3565b9150611e1c60a08801611cf3565b90509295509295509295565b60005b83811015611e43578181015183820152602001611e2b565b50506000910152565b6020815260008251806020840152611e6b816040850160208701611e28565b601f01601f19169190910160400192915050565b6020808252818101527f594f555374616b696e673a2063616c6c6572206973206e6f742054726f76654d604082015260600190565b634e487b7160e01b600052603260045260246000fd5b6001600160a01b03929092168252602082015260400190565b600060208284031215611ef557600080fd5b815180151581146109c457600080fd5b634e487b7160e01b600052601160045260246000fd5b600060018201611f2d57611f2d611f05565b5060010190565b808201808211156109b2576109b2611f05565b80820281158282048414176109b2576109b2611f05565b600082611f7b57634e487b7160e01b600052601260045260246000fd5b500490565b818103818111156109b2576109b2611f05565b6020808252602b908201527f496e697469616c697a61626c653a20636f6e7472616374206973206e6f74206960408201526a6e697469616c697a696e6760a81b606082015260800190565b600060208284031215611ff057600080fd5b815160ff811681146109c457600080fd5b60ff82811682821603908111156109b2576109b2611f05565b600181815b8085111561205557816000190482111561203b5761203b611f05565b8085161561204857918102915b93841c939080029061201f565b509250929050565b60008261206c575060016109b2565b81612079575060006109b2565b816001811461208f5760028114612099576120b5565b60019150506109b2565b60ff8411156120aa576120aa611f05565b50506001821b6109b2565b5060208310610133831016604e8410600b84101617156120d8575081810a6109b2565b6120e2838361201a565b80600019048211156120f6576120f6611f05565b029392505050565b60006109c460ff84168361205d565b6000825161211f818460208701611e28565b919091019291505056fe793c9a4ca8adbf1ed84ebc05848a4f22edcdb4a3b03c8a1e29ec1f30a9843fd6acb8d954e2cfef495862221e91bd7523613cf8808827cb33edfe4904cc51bf29c0ad54e58fac2603ed793501ec1532822cf23a969a1cf74aedff6af2471fc5745461929fc7866d2777ffdec3e8203fb397bb1c8d727549022e6128217bf80ae339df0e5286a3ef2f42a0bf52f32cfe2c58e5b0405f47fe512f2c2439e4cfe204fb4e49673247b4700957d74d369dd685c55b6cfbd381d55db9c895a60d6c889da264697066735822122009d7b10898b8d3012d14f75e0c591a470cd9e1a296f7f08d960d47597ec1791e64736f6c63430008110033",
  "linkReferences": {},
  "deployedLinkReferences": {}
}