{
  "_format": "hh-sol-artifact-1",
  "contractName": "ArbitroveBase",
  "sourceName": "contracts/Dependencies/ArbitroveBase.sol",
  "abi": [
    {
      "inputs": [],
      "name": "wstETH",
      "outputs": [
        {
          "internalType": "address",
          "name": "",
          "type": "address"
        }
      ],
      "stateMutability": "view",
      "type": "function"
    }
  ],
  "bytecode": "0x6080604052348015600f57600080fd5b5060918061001e6000396000f3fe6080604052348015600f57600080fd5b506004361060285760003560e01c80634aa07e6414602d575b600080fd5b600054603f906001600160a01b031681565b6040516001600160a01b03909116815260200160405180910390f3fea2646970667358221220b5f15c2beb97285535a64947d608089a75fa4e6d2d18f0c936f1e7f5289c0dfa64736f6c63430008110033",
  "linkReferences": {},
  "deployedLinkReferences": {}
}