{
  "_format": "hh-sol-artifact-1",
  "contractName": "TokenScript",
  "sourceName": "contracts/Proxy/TokenScript.sol",
  "abi": [
    {
      "inputs": [
        {
          "internalType": "address",
          "name": "_tokenAddress",
          "type": "address"
        }
      ],
      "stateMutability": "nonpayable",
      "type": "constructor"
    },
    {
      "inputs": [],
      "name": "NAME",
      "outputs": [
        {
          "internalType": "string",
          "name": "",
          "type": "string"
        }
      ],
      "stateMutability": "view",
      "type": "function"
    },
    {
      "inputs": [
        {
          "internalType": "address",
          "name": "owner",
          "type": "address"
        },
        {
          "internalType": "address",
          "name": "spender",
          "type": "address"
        }
      ],
      "name": "allowance",
      "outputs": [],
      "stateMutability": "view",
      "type": "function"
    },
    {
      "inputs": [
        {
          "internalType": "address",
          "name": "spender",
          "type": "address"
        },
        {
          "internalType": "uint256",
          "name": "amount",
          "type": "uint256"
        }
      ],
      "name": "approve",
      "outputs": [],
      "stateMutability": "nonpayable",
      "type": "function"
    },
    {
      "inputs": [
        {
          "internalType": "address",
          "name": "spender",
          "type": "address"
        },
        {
          "internalType": "uint256",
          "name": "subtractedValue",
          "type": "uint256"
        }
      ],
      "name": "decreaseAllowance",
      "outputs": [],
      "stateMutability": "nonpayable",
      "type": "function"
    },
    {
      "inputs": [
        {
          "internalType": "address",
          "name": "spender",
          "type": "address"
        },
        {
          "internalType": "uint256",
          "name": "addedValue",
          "type": "uint256"
        }
      ],
      "name": "increaseAllowance",
      "outputs": [],
      "stateMutability": "nonpayable",
      "type": "function"
    },
    {
      "inputs": [
        {
          "internalType": "address",
          "name": "recipient",
          "type": "address"
        },
        {
          "internalType": "uint256",
          "name": "amount",
          "type": "uint256"
        }
      ],
      "name": "transfer",
      "outputs": [],
      "stateMutability": "nonpayable",
      "type": "function"
    },
    {
      "inputs": [
        {
          "internalType": "address",
          "name": "sender",
          "type": "address"
        },
        {
          "internalType": "address",
          "name": "recipient",
          "type": "address"
        },
        {
          "internalType": "uint256",
          "name": "amount",
          "type": "uint256"
        }
      ],
      "name": "transferFrom",
      "outputs": [],
      "stateMutability": "nonpayable",
      "type": "function"
    }
  ],
  "bytecode": "0x60a060405234801561001057600080fd5b50604051610b39380380610b3983398101604081905261002f916100f7565b61003881610049565b6001600160a01b0316608052610127565b6001600160a01b0381166100a45760405162461bcd60e51b815260206004820152601e60248201527f4163636f756e742063616e6e6f74206265207a65726f2061646472657373000060448201526064015b60405180910390fd5b803b806100f35760405162461bcd60e51b815260206004820181905260248201527f4163636f756e7420636f64652073697a652063616e6e6f74206265207a65726f604482015260640161009b565b5050565b60006020828403121561010957600080fd5b81516001600160a01b038116811461012057600080fd5b9392505050565b6080516109d46101656000396000818161013d015281816101ea0152818161026a015281816102a2015281816102e0015261032e01526109d46000f3fe608060405234801561001057600080fd5b506004361061006d5760003560e01c8063095ea7b31461007257806323b872dd14610087578063395093511461009a578063a3f4df7e146100ad578063a457c2d7146100ed578063a9059cbb14610100578063dd62ed3e14610113575b600080fd5b6100856100803660046107f6565b610126565b005b610085610095366004610820565b6101bc565b6100856100a83660046107f6565b61025d565b6100d76040518060400160405280600b81526020016a151bdad95b94d8dc9a5c1d60aa1b81525081565b6040516100e49190610880565b60405180910390f35b6100856100fb3660046107f6565b610295565b61008561010e3660046107f6565b6102c9565b6100856101213660046108b3565b610317565b60405163095ea7b360e01b81526001600160a01b037f0000000000000000000000000000000000000000000000000000000000000000169063095ea7b39061017490859085906004016108e6565b6020604051808303816000875af1158015610193573d6000803e3d6000fd5b505050506040513d601f19601f820116820180604052508101906101b791906108ff565b505050565b6040516323b872dd60e01b81526001600160a01b0384811660048301528381166024830152604482018390527f000000000000000000000000000000000000000000000000000000000000000016906323b872dd906064016020604051808303816000875af1158015610233573d6000803e3d6000fd5b505050506040513d601f19601f8201168201806040525081019061025791906108ff565b50505050565b6102916001600160a01b037f00000000000000000000000000000000000000000000000000000000000000001683836103a6565b5050565b6102916001600160a01b037f0000000000000000000000000000000000000000000000000000000000000000168383610479565b60405163a9059cbb60e01b81526001600160a01b037f0000000000000000000000000000000000000000000000000000000000000000169063a9059cbb9061017490859085906004016108e6565b604051636eb1769f60e11b81526001600160a01b037f0000000000000000000000000000000000000000000000000000000000000000169063dd62ed3e906103659085908590600401610928565b602060405180830381865afa158015610382573d6000803e3d6000fd5b505050506040513d601f19601f820116820180604052508101906101b79190610942565b604051636eb1769f60e11b81526000906001600160a01b0385169063dd62ed3e906103d79030908790600401610928565b602060405180830381865afa1580156103f4573d6000803e3d6000fd5b505050506040513d601f19601f820116820180604052508101906104189190610942565b90506102578463095ea7b360e01b85610431868661095b565b6040516024016104429291906108e6565b60408051601f198184030181529190526020810180516001600160e01b03166001600160e01b031990931692909217909152610575565b604051636eb1769f60e11b81526000906001600160a01b0385169063dd62ed3e906104aa9030908790600401610928565b602060405180830381865afa1580156104c7573d6000803e3d6000fd5b505050506040513d601f19601f820116820180604052508101906104eb9190610942565b9050818110156105545760405162461bcd60e51b815260206004820152602960248201527f5361666545524332303a2064656372656173656420616c6c6f77616e63652062604482015268656c6f77207a65726f60b81b60648201526084015b60405180910390fd5b6102578463095ea7b360e01b858585036040516024016104429291906108e6565b60006105ca826040518060400160405280602081526020017f5361666545524332303a206c6f772d6c6576656c2063616c6c206661696c6564815250856001600160a01b031661064a9092919063ffffffff16565b90508051600014806105eb5750808060200190518101906105eb91906108ff565b6101b75760405162461bcd60e51b815260206004820152602a60248201527f5361666545524332303a204552433230206f7065726174696f6e20646964206e6044820152691bdd081cdd58d8d9595960b21b606482015260840161054b565b60606106598484600085610661565b949350505050565b6060824710156106c25760405162461bcd60e51b815260206004820152602660248201527f416464726573733a20696e73756666696369656e742062616c616e636520666f6044820152651c8818d85b1b60d21b606482015260840161054b565b600080866001600160a01b031685876040516106de9190610982565b60006040518083038185875af1925050503d806000811461071b576040519150601f19603f3d011682016040523d82523d6000602084013e610720565b606091505b50915091506107318783838761073c565b979650505050505050565b606083156107ab5782516000036107a4576001600160a01b0385163b6107a45760405162461bcd60e51b815260206004820152601d60248201527f416464726573733a2063616c6c20746f206e6f6e2d636f6e7472616374000000604482015260640161054b565b5081610659565b61065983838151156107c05781518083602001fd5b8060405162461bcd60e51b815260040161054b9190610880565b80356001600160a01b03811681146107f157600080fd5b919050565b6000806040838503121561080957600080fd5b610812836107da565b946020939093013593505050565b60008060006060848603121561083557600080fd5b61083e846107da565b925061084c602085016107da565b9150604084013590509250925092565b60005b8381101561087757818101518382015260200161085f565b50506000910152565b602081526000825180602084015261089f81604085016020870161085c565b601f01601f19169190910160400192915050565b600080604083850312156108c657600080fd5b6108cf836107da565b91506108dd602084016107da565b90509250929050565b6001600160a01b03929092168252602082015260400190565b60006020828403121561091157600080fd5b8151801515811461092157600080fd5b9392505050565b6001600160a01b0392831681529116602082015260400190565b60006020828403121561095457600080fd5b5051919050565b8082018082111561097c57634e487b7160e01b600052601160045260246000fd5b92915050565b6000825161099481846020870161085c565b919091019291505056fea26469706673582212209b9a816c8b5c55e389d200a5411ac3e5387b8a3541274fd747e2463afe0ab08464736f6c63430008110033",
  "linkReferences": {},
  "deployedLinkReferences": {}
}