{
  "_format": "hh-sol-artifact-1",
  "contractName": "AdminContract",
  "sourceName": "contracts/AdminContract.sol",
  "abi": [
    {
      "inputs": [],
      "name": "IsNotWstETH",
      "type": "error"
    },
    {
      "anonymous": false,
      "inputs": [
        {
          "indexed": true,
          "internalType": "address",
          "name": "previousOwner",
          "type": "address"
        },
        {
          "indexed": true,
          "internalType": "address",
          "name": "newOwner",
          "type": "address"
        }
      ],
      "name": "OwnershipTransferred",
      "type": "event"
    },
    {
      "inputs": [],
      "name": "NAME",
      "outputs": [
        {
          "internalType": "string",
          "name": "",
          "type": "string"
        }
      ],
      "stateMutability": "view",
      "type": "function"
    },
    {
      "inputs": [],
      "name": "STABILITY_POOL_NAME_BYTES",
      "outputs": [
        {
          "internalType": "bytes32",
          "name": "",
          "type": "bytes32"
        }
      ],
      "stateMutability": "view",
      "type": "function"
    },
    {
      "inputs": [
        {
          "internalType": "address",
          "name": "_asset",
          "type": "address"
        },
        {
          "internalType": "address",
          "name": "_stabilityPoolImplementation",
          "type": "address"
        },
        {
          "internalType": "address",
          "name": "_chainlinkOracle",
          "type": "address"
        },
        {
          "internalType": "bytes32",
          "name": "_tellorId",
          "type": "bytes32"
        },
        {
          "internalType": "uint256",
          "name": "assignedToken",
          "type": "uint256"
        },
        {
          "internalType": "uint256",
          "name": "_tokenPerWeekDistributed",
          "type": "uint256"
        },
        {
          "internalType": "uint256",
          "name": "redemptionLockInDay",
          "type": "uint256"
        }
      ],
      "name": "addNewCollateral",
      "outputs": [],
      "stateMutability": "nonpayable",
      "type": "function"
    },
    {
      "inputs": [
        {
          "internalType": "contract ITransparentUpgradeableProxy",
          "name": "proxy",
          "type": "address"
        },
        {
          "internalType": "address",
          "name": "newAdmin",
          "type": "address"
        }
      ],
      "name": "changeProxyAdmin",
      "outputs": [],
      "stateMutability": "nonpayable",
      "type": "function"
    },
    {
      "inputs": [
        {
          "internalType": "contract ITransparentUpgradeableProxy",
          "name": "proxy",
          "type": "address"
        }
      ],
      "name": "getProxyAdmin",
      "outputs": [
        {
          "internalType": "address",
          "name": "",
          "type": "address"
        }
      ],
      "stateMutability": "view",
      "type": "function"
    },
    {
      "inputs": [
        {
          "internalType": "contract ITransparentUpgradeableProxy",
          "name": "proxy",
          "type": "address"
        }
      ],
      "name": "getProxyImplementation",
      "outputs": [
        {
          "internalType": "address",
          "name": "",
          "type": "address"
        }
      ],
      "stateMutability": "view",
      "type": "function"
    },
    {
      "inputs": [],
      "name": "isInitialized",
      "outputs": [
        {
          "internalType": "bool",
          "name": "",
          "type": "bool"
        }
      ],
      "stateMutability": "view",
      "type": "function"
    },
    {
      "inputs": [],
      "name": "owner",
      "outputs": [
        {
          "internalType": "address",
          "name": "",
          "type": "address"
        }
      ],
      "stateMutability": "view",
      "type": "function"
    },
    {
      "inputs": [],
      "name": "renounceOwnership",
      "outputs": [],
      "stateMutability": "nonpayable",
      "type": "function"
    },
    {
      "inputs": [
        {
          "internalType": "address",
          "name": "_paramaters",
          "type": "address"
        },
        {
          "internalType": "address",
          "name": "_stabilityPoolManager",
          "type": "address"
        },
        {
          "internalType": "address",
          "name": "_borrowerOperationsAddress",
          "type": "address"
        },
        {
          "internalType": "address",
          "name": "_troveManagerAddress",
          "type": "address"
        },
        {
          "internalType": "address",
          "name": "_uTokenAddress",
          "type": "address"
        },
        {
          "internalType": "address",
          "name": "_sortedTrovesAddress",
          "type": "address"
        },
        {
          "internalType": "address",
          "name": "_communityIssuanceAddress",
          "type": "address"
        },
        {
          "internalType": "address",
          "name": "_wstETHAddress",
          "type": "address"
        }
      ],
      "name": "setAddresses",
      "outputs": [],
      "stateMutability": "nonpayable",
      "type": "function"
    },
    {
      "inputs": [
        {
          "internalType": "address",
          "name": "newOwner",
          "type": "address"
        }
      ],
      "name": "transferOwnership",
      "outputs": [],
      "stateMutability": "nonpayable",
      "type": "function"
    },
    {
      "inputs": [
        {
          "internalType": "contract ITransparentUpgradeableProxy",
          "name": "proxy",
          "type": "address"
        },
        {
          "internalType": "address",
          "name": "implementation",
          "type": "address"
        }
      ],
      "name": "upgrade",
      "outputs": [],
      "stateMutability": "nonpayable",
      "type": "function"
    },
    {
      "inputs": [
        {
          "internalType": "contract ITransparentUpgradeableProxy",
          "name": "proxy",
          "type": "address"
        },
        {
          "internalType": "address",
          "name": "implementation",
          "type": "address"
        },
        {
          "internalType": "bytes",
          "name": "data",
          "type": "bytes"
        }
      ],
      "name": "upgradeAndCall",
      "outputs": [],
      "stateMutability": "payable",
      "type": "function"
    },
    {
      "inputs": [],
      "name": "wstETH",
      "outputs": [
        {
          "internalType": "address",
          "name": "",
          "type": "address"
        }
      ],
      "stateMutability": "view",
      "type": "function"
    }
  ],
  "bytecode": "0x608060405234801561001057600080fd5b5061001a3361001f565b61006f565b600080546001600160a01b038381166001600160a01b0319831681178455604051919092169283917f8be0079c531659141344cd1fd0a4f28419497f9722a3daafe3b4186f6b6457e09190a35050565b6120838061007e6000396000f3fe608060405260043610620000bc5760003560e01c8063204e1c7a14620000c1578063392e53cd14620000fe5780634aa07e641462000132578063715018a614620001545780637cc05fcd146200016e5780637eff275e14620001935780638da5cb5b14620001b85780639623609d14620001d057806399a88ec414620001e7578063a3f4df7e146200020c578063a8e10e391462000256578063d733cfd0146200028a578063f2fde38b14620002af578063f3b7dead14620002d4575b600080fd5b348015620000ce57600080fd5b50620000e6620000e036600462000dcd565b620002f9565b604051620000f5919062000df4565b60405180910390f35b3480156200010b57600080fd5b506001546200012190600160a01b900460ff1681565b6040519015158152602001620000f5565b3480156200013f57600080fd5b50600154620000e6906001600160a01b031681565b3480156200016157600080fd5b506200016c62000390565b005b3480156200017b57600080fd5b506200016c6200018d36600462000e08565b620003a8565b348015620001a057600080fd5b506200016c620001b236600462000e7d565b620009ca565b348015620001c557600080fd5b50620000e662000a3a565b6200016c620001e136600462000ed1565b62000a49565b348015620001f457600080fd5b506200016c6200020636600462000e7d565b62000abe565b3480156200021957600080fd5b50620002476040518060400160405280600d81526020016c10591b5a5b90dbdb9d1c9858dd609a1b81525081565b604051620000f5919062000ffc565b3480156200026357600080fd5b506200027b6000805160206200202e83398151915281565b604051908152602001620000f5565b3480156200029757600080fd5b506200016c620002a936600462001011565b62000af6565b348015620002bc57600080fd5b506200016c620002ce36600462000dcd565b62000bb4565b348015620002e157600080fd5b50620000e6620002f336600462000dcd565b62000c33565b6000806000836001600160a01b03166040516200032090635c60da1b60e01b815260040190565b600060405180830381855afa9150503d80600081146200035d576040519150601f19603f3d011682016040523d82523d6000602084013e62000362565b606091505b5091509150816200037257600080fd5b80806020019051810190620003889190620010cb565b949350505050565b6200039a62000c5a565b620003a6600062000cbd565b565b620003b262000c5a565b60015487906001600160a01b03808316911614620003e357604051631a40f2bd60e31b815260040160405180910390fd5b60035460405163df89610560e01b81526000916001600160a01b03169063df8961059062000416908c9060040162000df4565b602060405180830381865afa15801562000434573d6000803e3d6000fd5b505050506040513d601f19601f820116820180604052508101906200045a9190620010cb565b6001600160a01b031614620004b65760405162461bcd60e51b815260206004820152601e60248201527f5468697320636f6c6c61746572616c20616c726561647920657869737473000060448201526064015b60405180910390fd5b6000805160206200202e83398151915260001b876001600160a01b0316633470a4a26040518163ffffffff1660e01b8152600401602060405180830381865afa15801562000508573d6000803e3d6000fd5b505050506040513d601f19601f820116820180604052508101906200052e9190620010eb565b14620005765760405162461bcd60e51b8152602060048201526016602482015275125b9d985b1a590814dd18589a5b1a5d1e481c1bdbdb60521b6044820152606401620004ad565b600260009054906101000a90046001600160a01b03166001600160a01b031663741bef1a6040518163ffffffff1660e01b8152600401602060405180830381865afa158015620005ca573d6000803e3d6000fd5b505050506040513d601f19601f82011682018060405250810190620005f09190620010cb565b60405163505bcdcd60e11b81526001600160a01b038a81166004830152888116602483015260448201889052919091169063a0b79b9a90606401600060405180830381600087803b1580156200064557600080fd5b505af11580156200065a573d6000803e3d6000fd5b505060025460405163ab2b967d60e01b81526001600160a01b03909116925063ab2b967d915062000692908b90869060040162001105565b600060405180830381600087803b158015620006ad57600080fd5b505af1158015620006c2573d6000803e3d6000fd5b505050506000620006d38862000d0d565b90506001600160a01b038116620007285760405162461bcd60e51b815260206004820152601860248201527711985a5b1959081d1bc818db1bdb994818dbdb9d1c9858dd60421b6044820152606401620004ad565b600081308b600560009054906101000a90046001600160a01b0316600660009054906101000a90046001600160a01b0316600760009054906101000a90046001600160a01b0316600860009054906101000a90046001600160a01b0316600460009054906101000a90046001600160a01b0316600260009054906101000a90046001600160a01b03166103e8604051602401620008169897969594939291906001600160a01b0398891681529688166020880152948716604087015292861660608601529085166080850152841660a084015290921660c082015261ffff9190911660e08201526101000190565b60408051601f198184030181529181526020820180516001600160e01b0316632e30c4ff60e01b179052516200084c9062000da9565b6200085a939291906200111e565b604051809103906000f08015801562000877573d6000803e3d6000fd5b50600354604051630132339760e21b81526001600160a01b038d8116600483015280841660248301529293508392909116906304c8ce5c90604401600060405180830381600087803b158015620008cd57600080fd5b505af1158015620008e2573d6000803e3d6000fd5b5050600480546040516302eecdc360e31b81526001600160a01b0386811693820193909352602481018c9052336044820152911692506317766e189150606401600060405180830381600087803b1580156200093d57600080fd5b505af115801562000952573d6000803e3d6000fd5b5050600480546040516369dc667960e11b81526001600160a01b03909116935063d3b8ccf29250620009899185918b910162001105565b600060405180830381600087803b158015620009a457600080fd5b505af1158015620009b9573d6000803e3d6000fd5b505050505050505050505050505050565b620009d462000c5a565b6040516308f2839760e41b81526001600160a01b03831690638f2839709062000a0290849060040162000df4565b600060405180830381600087803b15801562000a1d57600080fd5b505af115801562000a32573d6000803e3d6000fd5b505050505050565b6000546001600160a01b031690565b62000a5362000c5a565b60405163278f794360e11b81526001600160a01b03841690634f1ef28690349062000a85908690869060040162001155565b6000604051808303818588803b15801562000a9f57600080fd5b505af115801562000ab4573d6000803e3d6000fd5b5050505050505050565b62000ac862000c5a565b604051631b2ce7f360e11b81526001600160a01b03831690633659cfe69062000a0290849060040162000df4565b62000b0062000c5a565b600154600160a01b900460ff161562000b1857600080fd5b60018054600580546001600160a01b03199081166001600160a01b039a8b1617909155600680548216988a1698909817909755600780548816968916969096179095556008805487169488169490941790935560048054861692871692909217909155600160a01b6001600160a81b03199093169085161791909117905560028054821694831694909417909355600380549093169116179055565b62000bbe62000c5a565b6001600160a01b03811662000c255760405162461bcd60e51b815260206004820152602660248201527f4f776e61626c653a206e6577206f776e657220697320746865207a65726f206160448201526564647265737360d01b6064820152608401620004ad565b62000c308162000cbd565b50565b6000806000836001600160a01b031660405162000320906303e1469160e61b815260040190565b3362000c6562000a3a565b6001600160a01b031614620003a65760405162461bcd60e51b815260206004820181905260248201527f4f776e61626c653a2063616c6c6572206973206e6f7420746865206f776e65726044820152606401620004ad565b600080546001600160a01b038381166001600160a01b0319831681178455604051919092169283917f8be0079c531659141344cd1fd0a4f28419497f9722a3daafe3b4186f6b6457e09190a35050565b6000763d602d80600a3d3981f3363d3d373d3d3d363d730000008260601b60e81c176000526e5af43d82803e903d91602b57fd5bf38260781b17602052603760096000f090506001600160a01b03811662000da45760405162461bcd60e51b8152602060048201526016602482015275115490cc4c4d8dce8818dc99585d194819985a5b195960521b6044820152606401620004ad565b919050565b610eb2806200117c83390190565b6001600160a01b038116811462000c3057600080fd5b60006020828403121562000de057600080fd5b813562000ded8162000db7565b9392505050565b6001600160a01b0391909116815260200190565b600080600080600080600060e0888a03121562000e2457600080fd5b873562000e318162000db7565b9650602088013562000e438162000db7565b9550604088013562000e558162000db7565b969995985095966060810135965060808101359560a0820135955060c0909101359350915050565b6000806040838503121562000e9157600080fd5b823562000e9e8162000db7565b9150602083013562000eb08162000db7565b809150509250929050565b634e487b7160e01b600052604160045260246000fd5b60008060006060848603121562000ee757600080fd5b833562000ef48162000db7565b9250602084013562000f068162000db7565b915060408401356001600160401b038082111562000f2357600080fd5b818601915086601f83011262000f3857600080fd5b81358181111562000f4d5762000f4d62000ebb565b604051601f8201601f19908116603f0116810190838211818310171562000f785762000f7862000ebb565b8160405282815289602084870101111562000f9257600080fd5b8260208601602083013760006020848301015280955050505050509250925092565b6000815180845260005b8181101562000fdc5760208185018101518683018201520162000fbe565b506000602082860101526020601f19601f83011685010191505092915050565b60208152600062000ded602083018462000fb4565b600080600080600080600080610100898b0312156200102f57600080fd5b88356200103c8162000db7565b975060208901356200104e8162000db7565b96506040890135620010608162000db7565b95506060890135620010728162000db7565b94506080890135620010848162000db7565b935060a0890135620010968162000db7565b925060c0890135620010a88162000db7565b915060e0890135620010ba8162000db7565b809150509295985092959890939650565b600060208284031215620010de57600080fd5b815162000ded8162000db7565b600060208284031215620010fe57600080fd5b5051919050565b6001600160a01b03929092168252602082015260400190565b6001600160a01b038481168252831660208201526060604082018190526000906200114c9083018462000fb4565b95945050505050565b6001600160a01b0383168152604060208201819052600090620003889083018462000fb456fe608060405260405162000eb238038062000eb2833981016040819052620000269162000497565b828162000036828260006200004d565b50620000449050826200008a565b505050620005ca565b6200005883620000e5565b600082511180620000665750805b1562000085576200008383836200012760201b620001691760201c565b505b505050565b7f7e644d79422f17c01e4894b5f4f588d331ebfa28653d42ae832dc59e38c9798f620000b562000156565b604080516001600160a01b03928316815291841660208301520160405180910390a1620000e2816200018f565b50565b620000f08162000244565b6040516001600160a01b038216907fbc7cd75a20ee27fd9adebab32041f755214dbc6bffa90cc0225b39da2e5c2d3b90600090a250565b60606200014f838360405180606001604052806027815260200162000e8b60279139620002f8565b9392505050565b60006200018060008051602062000e6b83398151915260001b6200037760201b620001951760201c565b546001600160a01b0316919050565b6001600160a01b038116620001fa5760405162461bcd60e51b815260206004820152602660248201527f455243313936373a206e65772061646d696e20697320746865207a65726f206160448201526564647265737360d01b60648201526084015b60405180910390fd5b806200022360008051602062000e6b83398151915260001b6200037760201b620001951760201c565b80546001600160a01b0319166001600160a01b039290921691909117905550565b6200025a816200037a60201b620001981760201c565b620002be5760405162461bcd60e51b815260206004820152602d60248201527f455243313936373a206e657720696d706c656d656e746174696f6e206973206e60448201526c1bdd08184818dbdb9d1c9858dd609a1b6064820152608401620001f1565b80620002237f360894a13ba1a3210667c828492db98dca3e2076cc3735a920a3ca505d382bbc60001b6200037760201b620001951760201c565b6060600080856001600160a01b03168560405162000317919062000577565b600060405180830381855af49150503d806000811462000354576040519150601f19603f3d011682016040523d82523d6000602084013e62000359565b606091505b5090925090506200036d8683838762000389565b9695505050505050565b90565b6001600160a01b03163b151590565b60608315620003fd578251600003620003f557620003a7856200037a565b620003f55760405162461bcd60e51b815260206004820152601d60248201527f416464726573733a2063616c6c20746f206e6f6e2d636f6e74726163740000006044820152606401620001f1565b508162000409565b62000409838362000411565b949350505050565b815115620004225781518083602001fd5b8060405162461bcd60e51b8152600401620001f1919062000595565b80516001600160a01b03811681146200045657600080fd5b919050565b634e487b7160e01b600052604160045260246000fd5b60005b838110156200048e57818101518382015260200162000474565b50506000910152565b600080600060608486031215620004ad57600080fd5b620004b8846200043e565b9250620004c8602085016200043e565b60408501519092506001600160401b0380821115620004e657600080fd5b818601915086601f830112620004fb57600080fd5b8151818111156200051057620005106200045b565b604051601f8201601f19908116603f011681019083821181831017156200053b576200053b6200045b565b816040528281528960208487010111156200055557600080fd5b6200056883602083016020880162000471565b80955050505050509250925092565b600082516200058b81846020870162000471565b9190910192915050565b6020815260008251806020840152620005b681604085016020870162000471565b601f01601f19169190910160400192915050565b61089180620005da6000396000f3fe60806040523661001357610011610017565b005b6100115b61001f6101a7565b6001600160a01b0316330361015f5760606001600160e01b0319600035166364d3180d60e11b810161005a576100536101c8565b9150610157565b63587086bd60e11b6001600160e01b031982160161007a5761005361021f565b63070d7c6960e41b6001600160e01b031982160161009a57610053610265565b621eb96f60e61b6001600160e01b03198216016100b957610053610296565b63a39f25e560e01b6001600160e01b03198216016100d9576100536102d6565b60405162461bcd60e51b815260206004820152604260248201527f5472616e73706172656e745570677261646561626c6550726f78793a2061646d60448201527f696e2063616e6e6f742066616c6c6261636b20746f2070726f78792074617267606482015261195d60f21b608482015260a4015b60405180910390fd5b815160208301f35b6101676102ea565b565b606061018e8383604051806060016040528060278152602001610835602791396102fa565b9392505050565b90565b6001600160a01b03163b151590565b60006000805160206107f58339815191525b546001600160a01b0316919050565b60606101d2610372565b60006101e13660048184610649565b8101906101ee919061068f565b905061020b8160405180602001604052806000815250600061037d565b505060408051602081019091526000815290565b60606000806102313660048184610649565b81019061023e91906106c0565b9150915061024e8282600161037d565b604051806020016040528060008152509250505090565b606061026f610372565b600061027e3660048184610649565b81019061028b919061068f565b905061020b816103a9565b60606102a0610372565b60006102aa6101a7565b604080516001600160a01b03831660208201529192500160405160208183030381529060405291505090565b60606102e0610372565b60006102aa610400565b6101676102f5610400565b61040f565b6060600080856001600160a01b03168560405161031791906107a5565b600060405180830381855af49150503d8060008114610352576040519150601f19603f3d011682016040523d82523d6000602084013e610357565b606091505b509150915061036886838387610433565b9695505050505050565b341561016757600080fd5b610386836104b2565b6000825111806103935750805b156103a4576103a28383610169565b505b505050565b7f7e644d79422f17c01e4894b5f4f588d331ebfa28653d42ae832dc59e38c9798f6103d26101a7565b604080516001600160a01b03928316815291841660208301520160405180910390a16103fd816104f2565b50565b600061040a610589565b905090565b3660008037600080366000845af43d6000803e80801561042e573d6000f35b3d6000fd5b606083156104a05782516000036104995761044d85610198565b6104995760405162461bcd60e51b815260206004820152601d60248201527f416464726573733a2063616c6c20746f206e6f6e2d636f6e7472616374000000604482015260640161014e565b50816104aa565b6104aa838361059f565b949350505050565b6104bb816105c9565b6040516001600160a01b038216907fbc7cd75a20ee27fd9adebab32041f755214dbc6bffa90cc0225b39da2e5c2d3b90600090a250565b6001600160a01b0381166105575760405162461bcd60e51b815260206004820152602660248201527f455243313936373a206e65772061646d696e20697320746865207a65726f206160448201526564647265737360d01b606482015260840161014e565b806000805160206107f58339815191525b80546001600160a01b0319166001600160a01b039290921691909117905550565b60006000805160206108158339815191526101b9565b8151156105af5781518083602001fd5b8060405162461bcd60e51b815260040161014e91906107c1565b6105d281610198565b6106345760405162461bcd60e51b815260206004820152602d60248201527f455243313936373a206e657720696d706c656d656e746174696f6e206973206e60448201526c1bdd08184818dbdb9d1c9858dd609a1b606482015260840161014e565b80600080516020610815833981519152610568565b6000808585111561065957600080fd5b8386111561066657600080fd5b5050820193919092039150565b80356001600160a01b038116811461068a57600080fd5b919050565b6000602082840312156106a157600080fd5b61018e82610673565b634e487b7160e01b600052604160045260246000fd5b600080604083850312156106d357600080fd5b6106dc83610673565b915060208301356001600160401b03808211156106f857600080fd5b818501915085601f83011261070c57600080fd5b81358181111561071e5761071e6106aa565b604051601f8201601f19908116603f01168101908382118183101715610746576107466106aa565b8160405282815288602084870101111561075f57600080fd5b8260208601602083013760006020848301015280955050505050509250929050565b60005b8381101561079c578181015183820152602001610784565b50506000910152565b600082516107b7818460208701610781565b9190910192915050565b60208152600082518060208401526107e0816040850160208701610781565b601f01601f1916919091016040019291505056feb53127684a568b3173ae13b9f8a6016e243e63b6e8ee1178d6a717850b5d6103360894a13ba1a3210667c828492db98dca3e2076cc3735a920a3ca505d382bbc416464726573733a206c6f772d6c6576656c2064656c65676174652063616c6c206661696c6564a2646970667358221220839a97fa9829859e4498c1a89a419170ab34e5b8b36250556b8ef24886176fa564736f6c63430008110033b53127684a568b3173ae13b9f8a6016e243e63b6e8ee1178d6a717850b5d6103416464726573733a206c6f772d6c6576656c2064656c65676174652063616c6c206661696c6564f704b47f65a99b2219b7213612db4be4a436cdf50624f4baca1373ef0de0aac7a2646970667358221220605d136053cbe2846d2eebc8ee518df4bc7f1548c64e8fe57363b3fbadb1946f64736f6c63430008110033",
  "linkReferences": {},
  "deployedLinkReferences": {}
}